:100000000C9445010C946D010C946D010C946D01E0
:100010000C946D010C946D010C946D010C946D01A8
:100020000C946D010C946D010C94782D0C946D0161
:100030000C946D010C946D010C946D010C946D0188
:100040000C946D010C946D010C946D010C946D0178
:100050000C946D010C946D010C946D010C94D20CF8
:100060000C946D010C9449070C947B070C946D0162
:100070000C946D010C946D010C946D010C946D0148
:100080000C946D010C946D010C946D010C946D0138
:100090000C946C0A0C946D010C946D010C946D0120
:1000A0000C946D010C946D010C946D01020E050E03
:1000B000F40DF80DFE0D260E260E260E090E0D0E61
:1000C000110E170E1B0E260E210E6E2E952E8D2F45
:1000D000952E8D2FE12E042F8D2F5B2F6A2F0D0A69
:1000E000546869732069732074686520686F73743D
:1000F00020636F6E74726F6C6C6572000D0A5553DD
:100100004220486F737420436F6E74726F6C6C651D
:100110007220496E697469616C69736564000D0AC7
:100120004F534320646964206E6F7420737461724E
:1001300074000D0A546869732064657669636520EC
:10014000697320696E20706C6179657220736C6FC1
:100150007420000000000200090F000003040100E9
:100160000C00000000000000000000000000000083
:1001700000000408020110408040102040804080B0
:10018000080204018040201002011080102040402D
:10019000200404040404030405020202020403020E
:1001A000020202060606060606040402020204040F
:1001B000000000002300260029002C002F00000072
:1001C0000000250028002B002E0031000000000058
:1001D000240027002A002D00300000010008000242
:1001E000000400200010004000800000000001001A
:1001F0000200200010004000800004000800000100
:1002000000080002000400200010004000800000F0
:1002100000000100020020001000400080000400E7
:1002200008000002030405010001000800020004A8
:1002300000200010004000800000000001000200CB
:1002400020001000400080000400080000020304A9
:1002500005010902200001010080FA0904000002E2
:10026000584200000705810320000407050203200F
:10027000000412011001000000205E048902210127
:1002800000000001CF02A107CE0C11241FBECFEF4A
:10029000DAE0DEBFCDBF11E0A0E0B1E0E2E5F2E6DA
:1002A00002C005900D92A63EB107D9F728E0A6EE50
:1002B000B1E001C01D92A036B207E1F711E0C5E43C
:1002C000D1E004C02197FE010E94FD30C234D10765
:1002D000C9F70E940F030C9427310C940000982F4B
:1002E000462F262F30E0F901E450FB4F5381552370
:1002F00029F0682F8CEF94E00C94AD23220F331F6C
:10030000F901E65FFE4F0190F081E02D82818823A4
:1003100021F0692FCF010C941F27F901EE5FFE4FEA
:100320000190F081E02D8481882389F0692F88EF86
:10033000890F823040F4CF010E94D71F9695879590
:100340009695879503C0CF010E94D71F582F852F00
:100350000895982F462F262F30E0F901E450FB4FE7
:100360008381882329F0692F8CEF94E00C94EB2390
:10037000220F331FF901E65FFE4F0190F081E02D5F
:100380008281882321F0692FCF010C944827F9013D
:10039000EE5FFE4F0190F081E02D8481882321F0F3
:1003A000692FCF010C94FC1F80E090E008950F931B
:1003B000982F242FE42FF0E0DF01A450BB4F1396B9
:1003C0008C91882339F0462F692F8CEF94E00F91A0
:1003D0000C948124EE0FFF1FDF01A65FBE4F0D902E
:1003E000BC91A02D12968C911297882341F0411157
:1003F0001FC0462F692FCD010F910C949827EE5FF7
:10040000FE4F0190F081E02D8481882389F0411115
:100410000FC0062F0695292F2695462F46954695FF
:100420004695969596959695692FCF010E948921BC
:100430000F910895462F262F30E0F901E450FB4F2D
:100440009381992329F0682F8CEF94E00C94482431
:10045000220F331FF901E65FFE4F0190F081E02D7E
:100460009281992321F0682FCF010C948B27089556
:100470002E9A08952E988EBD0DB407FEFDCF1EBC9A
:100480000DB407FEFDCF0E9438028EB508952E9858
:1004900082608EBD0DB407FEFDCF6EBD0DB407FEAC
:1004A000FDCF0C94380288EF0E943A02807C8034A1
:1004B000A1F018F4882301F10895803819F0803CE8
:1004C000B9F0089588ED0E943A0281FD0BC069ECF5
:1004D00088ED0E94470282E00CC088ED0E943A023B
:1004E00081FDF5CF6BEC88ED0E94470283E001C0EF
:1004F00081E08093EA01089561ED88ED0E94470252
:100500001092EA0108950F931F93CF93DF938C010C
:10051000269A0E943802219A229A2398209A80E5EE
:100520008CBD1DBC259868E188E80E94470260E206
:1005300088E70E94470260E088E70E944702C0E027
:10054000D0E088E60E943A02219680FD06C0CF3FA7
:100550008FEFD807B1F78FEF1DC061EC88ED0E94D7
:10056000470260E680ED0E94470264E088EE0E9448
:10057000470288EE0E943A0282FFFBCFC8010E9428
:10058000530260E288EC0E94470261E080E80E942A
:10059000470280E0DF91CF911F910F9108958CEB7E
:1005A00095E00E94CA0F6CEB75E08BEA95E00E9423
:1005B000EF1A6CEB75E08CEF94E00E944C236CEB2F
:1005C00075E08CEA94E00E945D266CEB75E08CE5AA
:1005D00094E00E945D266CEB75E08CE094E00E9454
:1005E0005D266CEB75E08CEB93E00E945D266CEB76
:1005F00075E088E493E00E946D1E6CEB75E084ED7D
:1006000092E00E946D1E6CEB75E080E692E00E9425
:100610006D1E6CEB75E08CEE91E00C946D1E0E94EB
:10062000940D61E084E00E94270E61E089E00E9461
:10063000270E61E081E10E94270E62E083E10E94C3
:10064000270E62E084E10E94270E60E089E00E94AC
:10065000630E60E084E00E94630E61E081E10E942D
:10066000630E0E94C12F789426E040E251EA67E0D1
:1006700070E083E396E00E94E10683E10E94920E1F
:10068000EC0184E10E94920ECC0FDD1F8C2B809335
:10069000EB0162E371E083E396E00E940E08609153
:1006A000EB0170E06F5F7F4F4AE050E083E396E03C
:1006B0000E94CA088CE8E1EBF7E0DF011D928A9501
:1006C000E9F764EF71E080E090E00E944D0D60E09A
:1006D00089E00E94630E64E170E080E090E00E9497
:1006E0004D0D61E089E00E94630E64E170E080E0FE
:1006F00090E00E944D0D8CEB95E00E9483028F3FAD
:1007000039F46EE171E083E396E00E940E08FFCFBA
:100710006CEF70E083E396E00E940E0882E497E0BD
:100720000E943C0C40E85AE166E070E082E497E009
:100730000E94460C6EED70E083E396E00E940E0886
:100740000FEF8CEB95E00E9453028CEB95E00E943A
:100750008F178CEFC82E84E0D82EC1EBD7E092E043
:10076000A92E91E0B92E2AE0822E21E0922E36EEBB
:10077000E32E31E0F32E10E0F601838181110DC0EC
:10078000D401ED91FC918281811107C0D501ED91D9
:10079000FC918481882309F46FC1612F80E00E945D
:1007A0006F01882319F08A81816002C08A818E7F5F
:1007B0008A83612F82E00E946F01882319F08A8169
:1007C000826002C08A818D7F8A83612F83E00E94CC
:1007D0006F01882319F08A81846002C08A818B7F2F
:1007E0008A83612F81E00E946F01882319F08A813A
:1007F000886002C08A81877F8A83612F85E00E949A
:100800006F01882319F08A81806102C08A818F7EFE
:100810008A83612F84E00E946F01882319F08A8106
:10082000806202C08A818F7D8A83612F86E00E9468
:100830006F01882319F08A81806402C08A818F7BCE
:100840008A83612F87E00E946F01882319F08A81D3
:10085000806802C08A818F778A83612F8DE00E9431
:100860006F01882311F00C8301C01C82612F8CE082
:100870000E946F01882311F00D8301C01D82612F3A
:100880008EE00E946F01882311F00E8301C01E824A
:10089000612F8FE00E946F01882311F00F8301C048
:1008A0001F82612F8AE00E946F01882311F0088760
:1008B00001C01886612F8BE00E946F01882311F020
:1008C000098701C01986612F88E00E946F018A871D
:1008D000612F89E00E946F018B87612F80E00E9469
:1008E000A9019D878C87612F81E00E94A9019F87C4
:1008F0008E87612F82E00E94A901998B888B612FDE
:1009000083E00E94A9019B8B8A8B0E941C0D4F8C57
:1009100058A069A07AA0DC01CB0184199509A60929
:10092000B7090997A105B10508F45AC0612F80E104
:100930000E946F01882391F18B8D9C8DAD8DBE8DB2
:10094000892B8A2B8B2B31F40E941C0D6B8F7C8F93
:100950008D8F9E8F0E941C0D4B8C5C8C6D8C7E8CC1
:10096000DC01CB0184199509A609B709893E93409A
:10097000A105B105A8F10E941C0D4B8C5C8C6D8CFF
:100980007E8CDC01CB0184199509A609B7098C344A
:100990009440A105B10508F4E2C022C0612F85E0B2
:1009A0000E946F01882309F4F1C0612F84E00E9446
:1009B0006F01882309F4EAC08A85882309F4E6C018
:1009C0008B85882309F4E2C0412F60E080E00E941B
:1009D000D7010E941C0D6F8F78A389A39AA31E8A4A
:1009E000112309F45DC0612F82E497E00E944A0C54
:1009F00044E150E0BE0182E497E00E94C40B61E054
:100A000082E497E00E94540C42E0612F82E497E078
:100A10000E94CB0C823059F582E497E00E94A10B32
:100A20008F3FBFEF9B0769F0AC0155274F3F510542
:100A300041F02C8930E04217530719F08C8B81E08C
:100A40008E8B82E497E00E94A10B8F3FEFEF9E0711
:100A500039F1AC0155274F3F510511F12D8930E097
:100A600042175307E9F08D8B81E08E8B19C082E429
:100A700097E00E94200C14C0112391F0612F82E4B2
:100A800097E00E944A0C42E050E060E071E082E4AE
:100A900097E00E94C40B61E082E497E00E94540C4E
:100AA0008091E4009091E50020911C0130911D019E
:100AB000821B930B049730F082E191E00E94482A58
:100AC0000E94A62F1F5FFFEFCF1ADF0AA39622E036
:100AD000A20EB11C82E0880E911C9FEFE91AF90A60
:100AE000143009F049CE8091FF0481110EC0E091CD
:100AF0000A01F0910B018281811107C0E09102018E
:100B0000F09103018481882371F08091E0008E7F51
:100B10008093E0008091A307882371F060E081E179
:100B20000E94630E09C061E081E10E94630E809122
:100B3000E00081608093E0008091E4009091E50006
:100B400020911C0130911D01821B930B049720F012
:100B500082E191E00E94482A0E94A62FF2CD1A82DB
:100B6000412F60E080E00E94D7016AE070E080E001
:100B700090E00E944D0DD60113968C91882399F038
:100B8000612F8CEF94E00E9423240DC01B8E1C8EDD
:100B90001D8E1E8E8E89813069F4412F6D898C895E
:100BA0000E94D7011E8A0E941C0D6F8F78A389A313
:100BB0009AA316CFD7018C918B3FB9F08C3F41F1AE
:100BC0008A3FA1F5F6018381882329F0612F8CEFFC
:100BD00094E00E945524D5018D919C91FC012481C3
:100BE000222361F00E94B42109C0F6018381882389
:100BF00029F0612F8CEF94E00E946C240E941C0D60
:100C00006F8F78A389A39AA3D7018C918F5F10C0AF
:100C1000612F81E0810F0E941A020E941C0D6F8FCC
:100C200078A389A39AA3F7011082DACE8F5FD70148
:100C30008C93D6CEFC01918D228D892F90E0805C23
:100C40009F4F821B91098F7399270895FC01918D05
:100C5000828D981731F0828DE80FF11D858D90E01F
:100C600008958FEF9FEF0895FC01918D828D981765
:100C700061F0828DDF01A80FB11D5D968C91928D80
:100C80009F5F9F73928F90E008958FEF9FEF08957D
:100C9000FC01538D448D252F30E0842F90E0821B82
:100CA000930B541710F0CF96089501970895FC0107
:100CB000848DDF01A80FB11DA35ABF4F2C91848DE5
:100CC00090E001968F739927848FA689B7892C931A
:100CD000A089B1898C9180648C93938D848D9813B5
:100CE00006C00288F389E02D80818F7D808308957E
:100CF000EF92FF920F931F93CF93DF93EC0181E06C
:100D0000888F9B8D8C8D981305C0E889F989808127
:100D100085FD24C0F62E0B8D10E00F5F1F4F0F7363
:100D20001127E02E8C8DE8120CC00FB607FCFACF0D
:100D3000E889F989808185FFF5CFCE010E945706A9
:100D4000F1CF8B8DFE01E80FF11DE35AFF4FF082CA
:100D50000B8FEA89FB898081806207C0EE89FF8959
:100D60006083E889F98980818064808381E090E0F4
:100D7000DF91CF911F910F91FF90EF900895CF9346
:100D8000DF93EC01888D8823C9F0EA89FB89808193
:100D900085FD05C0A889B9898C9186FD0FC00FB665
:100DA00007FCF5CF808185FFF2CFA889B9898C91A6
:100DB00085FFEDCFCE010E945706E7CFDF91CF919F
:100DC0000895CF92DF92EF92FF921F93CF93DF931C
:100DD000EC016A017B01122FE889F98982E08083A6
:100DE0004115514E61057105B1F060E079E08DE388
:100DF00090E0A70196010E94DB30DA01C90101975A
:100E0000A109B109B695A795979587959C012115DC
:100E100080E13807A8F0E889F989108260E874E871
:100E20008EE190E0A70196010E94DB30DA01C90152
:100E30000197A109B109B695A795979587959C014A
:100E4000EC85FD853083EE85FF852083188EEC8947
:100E5000FD891083EA89FB89808180618083EA892A
:100E6000FB89808188608083EA89FB898081806832
:100E70008083EA89FB8980818F7D8083DF91CF9198
:100E80001F91FF90EF90DF90CF90089580E090E069
:100E900008951F920F920FB60F9211242F938F93E4
:100EA0009F93EF93FF93E0914306F0914406808176
:100EB000E0914906F0914A0682FD12C0908180912E
:100EC0004C068F5F8F7320914D06821751F0E09191
:100ED0004C06F0E0ED5CF94F958F80934C0601C015
:100EE0008081FF91EF919F918F912F910F900FBE75
:100EF0000F901F9018951F920F920FB60F9211240A
:100F00002F933F934F935F936F937F938F939F9311
:100F1000AF93BF93EF93FF9383E396E00E9457064E
:100F2000FF91EF91BF91AF919F918F917F916F91C1
:100F30005F914F913F912F910F900FBE0F901F9097
:100F40001895E3E3F6E01382128288EE93E0A0E0C6
:100F5000B0E084839583A683B78386E291E0918392
:100F600080838DEC90E0958784878CEC90E0978768
:100F7000868788EC90E0918B808B89EC90E0938B56
:100F8000828B8AEC90E0958B848B8EEC90E0978B33
:100F9000868B118E128E138E148E08950895CF9223
:100FA000DF92EF92FF920F931F93CF93DF936C0129
:100FB0007A018B01C0E0D0E0CE15DF0581F0D801C9
:100FC0006D918D01D601ED91FC910190F081E02DA4
:100FD000C6010995892B11F02196EECF7E01C7013C
:100FE000DF91CF911F910F91FF90EF90DF90CF9005
:100FF00008956115710579F0FB0101900020E9F772
:101000003197AF01461B570BDC01ED91FC9102803B
:10101000F381E02D099480E090E00895EF92FF9233
:101020000F931F93CF93DF938C017B01C0E0D0E03F
:10103000F701EC0FFD1F6491662361F0D801ED917B
:10104000FC910190F081E02DC8010995892B11F0E8
:101050002196EECFCE01DF91CF911F910F91FF909E
:10106000EF900895DC01ED91FC910190F081E02D6D
:1010700009948F929F92AF92BF92EF92FF920F933B
:101080001F93CF93DF93CDB7DEB7A1970FB6F89438
:10109000DEBF0FBECDBF7C01FA01CB0119A2223009
:1010A00008F42AE08E010F5D1F4F822E912CA12C97
:1010B000B12CBF01A50194010E94DB30F901CA01E6
:1010C000015011096A3010F4605D01C0695CD801FB
:1010D0006C93232B242B252B61F7B801C7010E94A9
:1010E000F907A1960FB6F894DEBF0FBECDBFDF9112
:1010F000CF911F910F91FF90EF90BF90AF909F9075
:101100008F900895CF92DF92EF92FF920F931F93EB
:10111000CF93DF932115310581F4DC01ED91FC9132
:101120000190F081E02D642FDF91CF911F910F91FD
:10113000FF90EF90DF90CF9009942A30310501F5B0
:1011400077FF1DC06A017B01EC016DE20E9432084D
:101150008C0144275527BA014C195D096E097F0996
:101160002AE0CE010E943908800F911FDF91CF91B4
:101170001F910F91FF90EF90DF90CF9008952AE09C
:10118000DF91CF911F910F91FF90EF90DF90CF9063
:101190000C9439089A01AB01770F660B770B0C940E
:1011A0008208CF93DF93CCEBD0E0188210924107F6
:1011B00081E080933F0710923E0761E082E00E9449
:1011C000630E61E083E00E94630EE9EBF0E0808152
:1011D0008E7F808380818D7F808388E48093B800B8
:1011E00085E48883DF91CF910895813049F410928E
:1011F000D0061092D1061092D2061092D30617C0D4
:101200008091D0069091D106A091D206B091D306DC
:101210000196A11DB11D8093D0069093D106A09395
:10122000D206B093D30684E690E00E94890D8091A7
:10123000D0069091D106A091D206B091D306803508
:101240009105A105B10580F01092D0061092D1064B
:101250001092D2061092D3060E94D10861E081E17B
:101260000E94630E81E0089580E008959B01AC0127
:1012700060E074E284EF90E00E94DB30DA01C901A3
:101280004097A109B109B695A79597958795809341
:10129000B8000895FF920F931F93CF93DF93D82F39
:1012A000162F072FC42FF22E413208F054C081E0D0
:1012B0000E94F50880914107882329F080E00E9470
:1012C000F5088823B9F381E080934107F0923F0746
:1012D0009FEF9093D406109219079C0F90931807D4
:1012E0008093400780914007DD0FD82BD0934007B3
:1012F00080913E07813061F410923E078091400753
:101300008093BB008091BC0083FDF8CF85EC01C0C9
:1013100085EE8093BC0081E00E94F5088091410732
:10132000813029F480E00E94F5088823B9F3809188
:1013300019078C1710F4C0911907AAE1B7E0912F93
:10134000E12FF02F8E2F891B8C1718F48D9181932C
:10135000F9CF8C2F01C080E0DF91CF911F910F91C9
:10136000FF900895DF92EF92FF920F931F93CF9318
:10137000DF93413208F062C0D22E142FE72EF62EF2
:10138000D82F81E00E94F508C0914107CC2331F0AD
:1013900080E00E94F50881114FC0F6CF82E0809373
:1013A000410700933F078FEF8093D40610921907EF
:1013B000109318079F2DAAE1B7E0EF2DFE2D8E2F79
:1013C000891B811718F481918D93F9CF10924007F2
:1013D00080914007DD0FD82BD093400780913E07C6
:1013E000813061F410923E07809140078093BB00EA
:1013F0008091BC0083FDF8CF85EC01C085EE809321
:10140000BC0081E00E94F508DD2051F08091410789
:10141000823031F480E00E94F50881110DC0F4CFD4
:101420008091D4068F3F79F08091D406803241F0CC
:101430008091D406803331F0C4E005C0C1E003C020
:10144000C2E001C0C3E08C2FDF91CF911F910F91BB
:10145000FF90EF90DF9008954091F606262F30E040
:10146000240F311D21323105DCF420914107243055
:10147000C9F4FC0180E090E0861758F43091F6063C
:101480002191DC01A850B94FA30FB11D2C930196F7
:10149000F3CF8091F606680F6093F60680E008951A
:1014A00081E0089582E0089585ED8093BC0081E09D
:1014B0000E94F5088091BC0084FF05C080E00E9476
:1014C000F5088823B9F310924107089585EC8093BD
:1014D000BC001092410708951F920F920FB60F9211
:1014E00011242F933F934F935F936F937F938F9329
:1014F0009F93AF93BF93EF93FF938091B900887F41
:10150000803609F49EC078F5883209F45DC090F405
:10151000803109F456C038F4882309F4F5C08830C6
:1015200009F44FC0F5C0883109F44EC0803209F487
:101530005FC0EEC0803409F46AC058F4803309F407
:1015400057C0883309F0E4C08093D4060E94660A2D
:10155000DFC0803509F44FC0883509F45DC0883498
:1015600009F0D6C0D3C0883909F4C4C0A8F48837BC
:1015700009F467C038F4883609F463C0803709F489
:1015800060C0C6C0883809F4B5C0803909F45FC0AE
:10159000803809F0BDC05BC0803B09F483C038F4DB
:1015A000803A09F466C0883A09F47CC0B1C0803C36
:1015B00009F4A4C0883C09F4A1C0883B09F487C0A1
:1015C000A7C08091400710C090911907809118071B
:1015D000981770F5E091190781E08E0F8093190735
:1015E000F0E0E65EF84F80818093BB0085EC83C01D
:1015F0008093D4068BC0E091190781E08E0F809311
:1016000019078091BB00F0E0E65EF84F808390916F
:101610001907809118076BC0E091190781E08E0FC0
:10162000809319078091BB00F0E0E65EF84F80835D
:1016300080913F0781116AC081E080933E0784EA70
:101640005EC083E0809341071092D506CFCF809192
:10165000D506803208F04EC0E091D50681E08E0FAD
:101660008093D5068091BB00F0E0EA52F94F808369
:10167000BDCF0E94660A8091D506803230F4E09199
:10168000D506F0E0EA52F94F10826091D50670E07D
:10169000E0913A07F0913B0786ED96E009951092AC
:1016A000D50636C084E0809341071092F706109269
:1016B000F606E0913C07F0913D0709958091F6060A
:1016C000811105C081E08093F6061092F806E09142
:1016D000F70681E08E0F8093F706F0E0E850F94FAF
:1016E00080818093BB009091F7068091F606981751
:1016F00008F47CCF85E88093BC000AC085EC809319
:10170000BC001092410704C01092D4060E94540AF3
:10171000FF91EF91BF91AF919F918F917F916F91C9
:101720005F914F913F912F910F900FBE0F901F909F
:1017300018958091720790E020917307821B9109A0
:1017400008959091730780917207981750F4E92FCC
:10175000F0E0EC58F84F208130E09F5F90937307E2
:1017600002C02FEF3FEFC9010895E0917307809108
:101770007207E81730F4F0E0EC58F84F808190E001
:1017800008958FEF9FEF0895CF92DF92EF92FF922F
:101790000F931F93CF93DF937C01CB018A0120919C
:1017A0004E07222389F0EB016B01C40ED51ECC1528
:1017B000DD0569F06991D701ED91FC910190F0810F
:1017C000E02DC7010995F3CF642F0E942C0AC801B0
:1017D000DF91CF911F910F91FF90EF90DF90CF900D
:1017E0000895CF93DF931F92CDB7DEB76983209121
:1017F0004E072223D1F020914F07203240F021E004
:1018000030E0FC013383228380E090E015C08091BA
:101810005007E82FF0E0EF5AF84F998190838F5FDF
:101820008093500780934F0705C061E0CE01019679
:101830000E942C0A81E090E00F90DF91CF910895F3
:10184000109273071092720780E2E4E7F7E0DF017D
:101850001D928A95E9F70895FC011382128288EEA1
:1018600093E0A0E0B0E084839583A683B78388E308
:1018700091E091838083089510927307109272070C
:101880001092500710924F070C94D108CB01BA0167
:101890000C94360981E080934E0760937107109293
:1018A000500710924F0708950F93062F21E04091A3
:1018B0004F0761E577E0809171070E94B2091092AD
:1018C000500710924F0710924E070F9108954F92B4
:1018D0005F926F927F92AF92BF92CF92EF92FF9200
:1018E0000F931F93CF93DF935C01F62ED42F280123
:1018F0003901EE2021F10E944A0CCE2DC43008F0AF
:10190000C3E0C150C0F028E0C29FC0011124A30170
:10191000920104C056954795379527958A95D2F739
:10192000CA01B901D501ED91FC910190F081E02D42
:10193000C5010995E6CF60E0C5010E94540C4D2F0A
:10194000D13208F040E22C2D64E777E08F2D0E9421
:101950004A091092730780937207DF91CF911F910C
:101960000F91FF90EF90CF90BF90AF907F906F90CE
:101970005F904F900895CF92EF920F931F93C22ED6
:10198000E12C00E010E098010E94670C1F910F917C
:10199000EF90CF90089521E00C94BB0C82E497E087
:1019A0000C942C0C1F920F920FB60F9211242F93B0
:1019B0003F938F939F93AF93BF938091950790919F
:1019C0009607A0919707B09198073091940723E06C
:1019D000230F2D3720F40196A11DB11D05C026E867
:1019E000230F0296A11DB11D2093940780939507A4
:1019F00090939607A0939707B093980780919907C3
:101A000090919A07A0919B07B0919C070196A11D08
:101A1000B11D8093990790939A07A0939B07B09369
:101A20009C07BF91AF919F918F913F912F910F9004
:101A30000FBE0F901F9018952FB7F89460919507DF
:101A40007091960780919707909198072FBF0895FE
:101A50003FB7F8948091990790919A07A0919B07BE
:101A6000B0919C0726B5A89B05C02F3F19F00196A1
:101A7000A11DB11D3FBFBA2FA92F982F8827820F14
:101A8000911DA11DB11DBC01CD0142E0660F771F64
:101A9000881F991F4A95D1F708958F929F92AF9210
:101AA000BF92CF92DF92EF92FF926B017C010E9476
:101AB000280D4B015C01C114D104E104F10401F1D2
:101AC0000E94CE070E94280DDC01CB0188199909DC
:101AD000AA09BB09883E9340A105B10560F321E046
:101AE000C21AD108E108F10888EE880E83E0981E3A
:101AF000A11CB11CC114D104E104F10419F7DBCF1E
:101B0000FF90EF90DF90CF90BF90AF909F908F901D
:101B100008958230910538F0880F991F880F991F1A
:101B200005970197F1F70895789484B5826084BD94
:101B300084B5816084BD85B5826085BD85B58160D1
:101B400085BDEEE6F0E0808181608083E1E8F0E031
:101B50001082808182608083808181608083E0E860
:101B6000F0E0808181608083E1E9F0E08081826043
:101B70008083808181608083E0E9F0E08081816002
:101B80008083E1ECF0E080818460808380818260EA
:101B90008083808181608083E3ECF0E080818160DC
:101BA0008083E0ECF0E0808182608083E2ECF0E012
:101BB000808181608083EAE7F0E0808184608083B7
:101BC0008081826080838081816080838081806861
:101BD0008083089590E0FC013197EF30F105B0F576
:101BE000EA5AFF4F0C94FD30809180008F7703C03C
:101BF000809180008F7D8093800008958091800087
:101C0000877FF9CF84B58F7702C084B58F7D84BD7F
:101C10000895809190008F7707C0809190008F7D0C
:101C200003C080919000877F8093900008958091F9
:101C3000C0008F7703C08091C0008F7D8093C0006B
:101C400008958091C200877F8093C2000895CF934A
:101C5000DF9390E0FC01EE58FE4F2491FC01EF561B
:101C6000FE4F8491882361F190E0880F991FFC0159
:101C7000E453FE4FC591D491FC01E254FE4FA5916F
:101C8000B491611109C09FB7F8948881209582238F
:101C90008883EC912E230BC0623061F49FB7F894D7
:101CA0008881322F309583238883EC912E2B2C93BF
:101CB0009FBF06C08FB7F894E8812E2B28838FBF73
:101CC000DF91CF9108951F93CF93DF93282F30E0BA
:101CD000F901ED5AFE4F8491F901EE58FE4FD4916F
:101CE000F901EF56FE4FC491CC23C1F0162F81119C
:101CF0000E94EA0DEC2FF0E0EE0FFF1FE254FE4FC2
:101D0000A591B4919FB7F894111104C08C91D0950E
:101D1000D82302C0EC91DE2BDC939FBFDF91CF91E3
:101D20001F910895CF93DF93282F30E0F901ED5AEA
:101D3000FE4F8491F901EE58FE4FD491F901EF5610
:101D4000FE4FC491CC2391F081110E94EA0DEC2F3B
:101D5000F0E0EE0FFF1FE055FE4FA591B491EC911E
:101D6000ED2381E090E021F480E002C080E090E08B
:101D7000DF91CF910895CF93DF93FC01EB01808138
:101D80009181892B21F18281882319F1DA012D912A
:101D90003C91232BE1F0A881B9819C91A381B0E013
:101DA000A81BB10920813181A20FB31F9C938281AE
:101DB00081508283DA018D919C91119701978D93C7
:101DC0009C9388819981019699838883DCCF80E0F8
:101DD00003C08381828381E0DF91CF910895CF9307
:101DE000DF93FC01862F8078A9F4283008F04DC0DD
:101DF000442321F09581973009F447C0EF01A1E019
:101E0000B0E09D85992341F011962596A031B1054A
:101E1000C1F73BC080E039C061111CC085E08A9FDA
:101E2000E0018B9FD00D1124CE0FDF1F442331F032
:101E300081E4888785818F5F858302C081E0888700
:101E400025E02A9FC0012B9F900D1124E80FF91F58
:101E500080851BC06770660F660F660F442341F0D4
:101E6000606485818F5F85838770687F682B03C07E
:101E70002770687B622B25E02A9FC0012B9F900D65
:101E80001124E80FF91F6087862FDF91CF91089505
:101E9000611102C006960895FC0121E035856317A3
:101EA00039F02F5F35962031C9F780E090E0089532
:101EB000069635E0239F800D911D11240895DF9231
:101EC000EF92FF920F931F93CF93DF93EC01E62ED7
:101ED000F12C85E0689FB0011124FE01E60FF71F89
:101EE0008085182F177086FF17C001E085E0D82E77
:101EF000FE01D09EE00DF11D11248085869586950A
:101F0000869587701817F9F00F5F003189F78D817A
:101F1000811302C011501D8385E08E9DF0018F9DBD
:101F2000F00D1124EC0FFD1F108681E081871286D1
:101F30002296D783C683DF91CF911F910F91FF9097
:101F4000EF90DF900895602FCE010E945F0FD0CFF9
:101F5000FC01613499F49C01255B3F4F61E0AC01C9
:101F60004E5F5F4F15866687178654874387359681
:101F7000E217F307B9F7FC011582089521E03585D2
:101F8000631729F02F5F35962031C9F70895622F26
:101F90000C945F0FFC018AE491E0918380831582A9
:101FA000108681E081871286CF010296978386830F
:101FB000128228E023832CE32483DF019F01255B29
:101FC0003F4F41E01D961C921D971E964C931E9705
:101FD0001F961C921F971C969C938E931B97159689
:101FE000A217B30779F7EA58FF4F108281E1809377
:101FF000A1070895CF93C42F0E94480F009789F03E
:10200000DC01ED91FC911197309759F013969C915A
:1020100080E0891731F020812C1731F033968F5FE3
:10202000F8CF80E090E001C0CF01CF9108950F93E9
:102030001F93CF93DF932115310571F0E901042F30
:10204000162F0E94480FFC01892B41F01283D18387
:10205000C083038380E003C088ED01C086EDDF917B
:10206000CF911F910F910895CF92DF92FF920F931E
:102070001F93CF93DF93662381F1F62E8C016C01C1
:1020800086E5C80ED11CC0E0D0E0D6018D919D91AF
:102090006D010097F1F0DC01ED91FC910084F18578
:1020A000E02D0995F81215C0AB96CC0FDD1FC00FBF
:1020B000D11F88819981DC01ED91FC910480F5812B
:1020C000E02DDF91CF911F910F91FF90DF90CF9086
:1020D00009942196C031D105C1F680E0DF91CF91FE
:1020E0001F910F91FF90DF90CF9008952E98089543
:1020F000CF93C82F0E947610CEBD0DB407FEFDCF42
:102100001EBC0DB407FEFDCF0E9438028EB5CF91E4
:102110000895CF93DF93C82FD62F0E947610C26008
:10212000CEBD0DB407FEFDCFDEBD0DB407FEFDCF65
:10213000DF91CF910C9438028F929F92AF92BF9211
:10214000CF92DF92EF92FF920F931F93CF93DF9383
:10215000EC01D62EC42E59010E94480F7C01009735
:1021600009F445C0FC0180819181892B09F441C0AB
:102170004C2D6D2DCE010E94FA0FF50191838083C5
:102180000097C9F1FC0182818695869590E08031A7
:10219000910514F08FE090E041E050E060E070E0E5
:1021A0004A015B0104C0880C991CAA1CBB1C8A95BF
:1021B000D2F7D501C4010197F801918380836D2D79
:1021C00080EE0E94891088ED0E947810F7019481BA
:1021D000992331F0CA58DF4F68816260682B02C0D2
:1021E000682F697F88ED0E94891080E005C086ED28
:1021F00003C087ED01C08BEDDF91CF911F910F914F
:10220000FF90EF90DF90CF90BF90AF909F908F9016
:1022100008958F929F92AF92BF92CF92DF92EF92EA
:10222000FF920F931F93CF93DF93862E942E590125
:102230000E941C0D6B017C0128E8C20E23E1D21E16
:10224000E11CF11C00E010E0D0E0C0E098280E9402
:102250001C0DDC01CB018C199D09AE09BF09B7FF2C
:102260002DC0692D80EF0E9489100E941C0DDC0199
:10227000CB018C199D09AE09BF09B7FF09C088ECD5
:102280000E94781087FFF1CF60E888EC0E948910E7
:1022900088EF0E947810C82FCF70C43019F0CE306C
:1022A00051F00CC00F5F1F4FA114B10481F20A1549
:1022B0001B0569F603C0DF5FD33049F68C2FDF9131
:1022C000CF911F910F91FF90EF90DF90CF90BF9033
:1022D000AF909F908F9008959F92AF92BF92CF92B0
:1022E000DF92EF92FF920F931F93CF93DF937C01C6
:1022F000D42F122F902E00E06C01C60ED11CC60EFA
:10230000D11C86E5C80ED11CA42EB12CABE2AA0EBE
:10231000B11CAA0CBB1CAE0CBF1CF60180819181C4
:10232000DC01ED91FC910280F381E02D292D412FFC
:102330006D2F0995803EC9F4D1110BC061E088EE84
:102340000E94891066E670E080E090E00E944D0DEA
:1023500014C0F50180819181DC01ED91FC91028432
:10236000F385E02D612F099508C08D3021F40330ED
:1023700008F03FC014C081113FC0F60180819181F7
:10238000DC01ED91FC910190F081E02D292D412F90
:102390006D2F0995C82F8D3051F4033050F464E649
:1023A00070E080E090E00E944D0D0F5FB6CF882373
:1023B00011F1D1110BC061E088EE0E94891066E630
:1023C00070E080E090E00E944D0D11C0ED2FF0E034
:1023D000BB96EE0FFF1FEE0DFF1D80819181DC018A
:1023E000ED91FC910284F385E02D612F09958C2FEE
:1023F00003C08DE001C080E0DF91CF911F910F916C
:10240000FF90EF90DF90CF90BF90AF909F90089596
:102410000F931F93CF93DF93182F062FEA010E948B
:10242000761012601EBDFE01802F882339F00DB496
:1024300007FEFDCF91919EBD8150F7CFC00FD11DFA
:102440000DB407FEFDCF0E943802CE01DF91CF917F
:102450001F910F9108952F923F924F925F926F922A
:102460007F928F929F92AF92BF92CF92DF92EF9224
:10247000FF920F931F93CF93DF9300D000D01F9252
:10248000CDB7DEB77D836C834A016901FB01F18022
:102490008FEF8F0D803408F074C00E941C0D2B014B
:1024A0003C01F8E84F0EF3E15F1E611C711CEC81EA
:1024B000FD81828180FD02C060E401C060E888EE99
:1024C0000E948910312C8F2D90E09A838983C1144A
:1024D000D10409F448C0E980FA80CE14DF0408F47E
:1024E0007601EB82A8016E2D80E10E9408126E2D0C
:1024F00088E30E948910EC81FD816081606280EF39
:102500000E94891088EC0E94781087FFFBCF60E85A
:1025100088EC0E94891088EF0E9478108F70382E06
:10252000A12CB12C212C332009F46BC00E941C0D6E
:10253000DC01CB0184199509A609B709B7FF61C071
:10254000F6E03F1601F12EE0321609F455C084E0A2
:10255000381209C0FFEFAF1ABF0A8114910449F184
:10256000A814B90431F588EF0E94781085FB8827FC
:1025700080F9EC81FD81928180FB90F99283832D1B
:1025800045C08AED43C088EF0E94781085FB8827FC
:1025900080F991E08927EC81FD81928180FB90F99F
:1025A000928390FD02C060E401C060E888EE0E9462
:1025B000891060E088E30E948910F801608180E161
:1025C0000E9489106B8188E30E948910EC81FD8153
:1025D0006081606280EF0E94891088EC0E94781010
:1025E00087FFFBCF60E888EC0E94891088EF0E948B
:1025F00078108F70382E97CF239423E02212D9CFF2
:10260000B2CFCE18DF080E0D1F1D61CF0F900F90B7
:102610000F900F900F90DF91CF911F910F91FF902E
:10262000EF90DF90CF90BF90AF909F908F907F9072
:102630006F905F904F903F902F900895AF92BF9210
:10264000CF92DF92EF92FF920F931F93CF93DF937E
:1026500000D000D0CDB7DEB77C01690158011C82E3
:102660001B821A8219828E010F5F1F4F9E012D5F00
:102670003F4F0E949C10811109C049815A816B8192
:102680007C8185019601C7010E942B120F900F904B
:102690000F900F90DF91CF911F910F91FF90EF90CE
:1026A000DF90CF90BF90AF9008952F923F924F92BE
:1026B0005F926F927F928F929F92AF92BF92CF92D2
:1026C000DF92EF92FF920F931F93CF93DF93CDB7DB
:1026D000DEB72A970FB6F894DEBF0FBECDBF1C0140
:1026E0006B015B834A835901D9016D907C901197EE
:1026F000FB01F181F9831D921C92DB0112968C91F2
:1027000081FD02C060E101C060E288EE0E94891094
:102710008E2D90E0A0E0B0E08C839D83AE83BF83DC
:1027200068862A813B81D6014C9160E0C1010E94FC
:102730000911F82EB6E08B1318C088EF0E947810AC
:1027400082958170E1E08E27D60112969C911297B6
:1027500080FB91F912969C9391FD02C060E101C04B
:1027600060E288EE0E948910DCCF811167C088EC9E
:102770000E94781082FF60C080E30E947810582E7B
:1027800090E06816790608F45884F50180819181FB
:102790009301281B390B3A87298737FF02C01A8615
:1027A0001986852C912C89859A858816990614F4AA
:1027B0009A86898649840E94761098E09EBD0DB461
:1027C00007FEFDCFF801442041F01EBC4A940DB431
:1027D00007FEFDCF8EB58193F6CFA985BA850A0F86
:1027E0001B1F0E94380264E088EC0E948910F501EA
:1027F00080819181880E991E91828082F9815F1675
:1028000018F08614970470F088EF0E947810829573
:102810008170D60112969C91129780FB91F91296C5
:102820009C930CC0EE2009F47CCF6C817D818E815D
:102830009F810E944D0D75CF80EFF82E8F2D2A9627
:102840000FB6F894DEBF0FBECDBFDF91CF911F91C1
:102850000F91FF90EF90DF90CF90BF90AF909F903F
:102860008F907F906F905F904F903F902F90089542
:102870002F923F924F925F926F927F928F929F9290
:10288000AF92BF92CF92DF92EF92FF920F931F937E
:10289000CF93DF93CDB7DEB761970FB6F894DEBF65
:1028A0000FBECDBF3C01F42E322E202EC98A4EA081
:1028B0005FA0C8A4D9A4188A1F861E861D868E0113
:1028C000035F1F4F9E01215F3F4F0E949C108111AB
:1028D00096C039822A82EB8289898C83BE82AD823E
:1028E00098868F82AE014F5F5F4F68E080E20E9462
:1028F00008122D853E854F2D60E1C3010E9409110C
:10290000E82E811178C0932D9078392EC114D1040E
:1029100009F462C0EF85F8898281992309F44DC0DA
:1029200082608283540122242394A114B10409F407
:1029300058C05C864B864D855E856F857889E12C15
:1029400086019E01255F3F4FC3010E945513E82E6B
:10295000A6E08A130FC00F85188988EF0E947810AF
:1029600085FB882780F98225F801928180FB91F907
:102970009283DBCF81113FC08AA59BA50097A1F070
:10298000DC01ED91FC9111970190F081E02DC401E3
:102990008A199B099A8789876B857C859E01275FA9
:1029A0003F4FA601CD0109958B859C85A81AB90AD0
:1029B0008415950508F0B9CF0FC0816082834D85DD
:1029C0005E8586019201BF01C3010E942B12811115
:1029D00016C02D853E8511C02D853E85311005C060
:1029E0000CC0E11008C02D853E8560EA4F2DC30163
:1029F0000E94091104C08E2D02C060E8F7CF6196D5
:102A00000FB6F894DEBF0FBECDBFDF91CF911F91FF
:102A10000F91FF90EF90DF90CF90BF90AF909F907D
:102A20008F907F906F905F904F903F902F90089580
:102A30008F929F92AF92BF92CF92EF920F931F937C
:102A40001F921F921F930F933F932F934901A12C25
:102A5000B12CCC24C394E12C06E020E80E94381469
:102A60000F900F900F900F900F900F901F910F915C
:102A7000EF90CF90BF90AF909F908F9008958F92DE
:102A80009F92AF92BF92CF92EF92FF920F931F92BD
:102A90001F92FF92EF923F932F934901A12CB12CEB
:102AA00022E0C22EE02E06E020E80E9438140F90AB
:102AB0000F900F900F900F900F900F91FF90EF904D
:102AC000CF90BF90AF909F908F9008954F925F925C
:102AD0006F927F928F929F92AF92BF92CF92DF922E
:102AE000EF92FF920F931F93CF93DF93CDB7DEB793
:102AF000C054D1090FB6F894DEBF0FBECDBF3C0164
:102B0000D62E542E422EC02ECE0101965C017C01A1
:102B1000022F29E030E0C3010E943F1581111BC044
:102B20008B809C801F93CF92BF92AF921F9280E4C4
:102B30008F93A12CB12C82E0C82EE42C06E020E873
:102B4000452D6D2DC3010E9438140F900F900F90EA
:102B50000F900F900F90C05CDF4F0FB6F894DEBF60
:102B60000FBECDBFDF91CF911F910F91FF90EF90DE
:102B7000DF90CF90BF90AF909F908F907F906F909D
:102B80005F904F9008958F929F92AF92BF92CF9295
:102B9000EF920F93CF931F921F921F921F921F923B
:102BA0001F92812C912CA12CB12CC12CE22E05E07E
:102BB00020E00E943814C82F6CE271E080E090E0C1
:102BC0000E944D0D0F900F900F900F900F900F904F
:102BD0008C2FCF910F91EF90CF90BF90AF909F909F
:102BE0008F9008950F931F93CF93DF938A3F3FEF0A
:102BF000930711F486ED2DC0DC011696ED91FC9142
:102C00001797EF2B09F1122F242FEC011A8740E0C0
:102C10000E94EF0E082F8823C9F0682FCE010E9472
:102C2000480F009739F3FC011483202F40E060E047
:102C3000CE010E94C315182F882351F0602FCE01BA
:102C40000E94A80F812F05C087ED03C084ED01C04D
:102C500080E0DF91CF911F910F9108952F923F92C5
:102C60004F925F926F927F928F929F92AF92BF929C
:102C7000CF92DF92EF92FF920F931F93CF93DF9348
:102C8000CDB7DEB766970FB6F894DEBF0FBECDBFE7
:102C90001B8A38E03C8B3CE33D8B8A3F3FEF930738
:102CA00009F464C0522E342E462E7C01DC011696A7
:102CB000CD90DC901797CE01439617969C938E93F8
:102CC00016971A962C938E010F5F1F4F22E130E06A
:102CD00040E060E0C7010E941815F701D782C68264
:102CE0008111A6C089849A846B847C84FD81FE8BCB
:102CF0002E80670136E5C30ED11C560110E0D501C8
:102D00008D919C910097F1F1DC01ED91FC91008493
:102D1000F185E02D0995811135C0F5018081918102
:102D2000DC01ED91FC910088F189E02D622D09957F
:102D3000882341F1F50180819181DC01ED91FC91C5
:102D40000484F585E02DA301B4010995811110C01B
:102D5000F50180819181DC01ED91FC910684F7857C
:102D6000E02D6E890995811103C00CC086ED60C00D
:102D7000052D232D442D612FC7010E946C11813D2B
:102D800009F056C01F5FB2E0AB0EB11C103109F064
:102D9000B6CF10E0F601808191810097E1F1DC016E
:102DA000ED91FC910084F185E02D0995811133C0EE
:102DB000F60180819181DC01ED91FC910088F1891F
:102DC000E02D622D09958823D9F0F601808191814B
:102DD000DC01ED91FC910484F585E02DA301B401A3
:102DE0000995811118C0F60180819181DC01ED9176
:102DF000FC910684F785E02D6E89099581110BC041
:102E0000052D232D442D612FC7010E946C11982F91
:102E1000977F913D69F41F5FE2E0CE0ED11C103127
:102E200009F0B8CF252D432D642DC7010E94F2155E
:102E300066960FB6F894DEBF0FBECDBFDF91CF917F
:102E40001F910F91FF90EF90DF90CF90BF90AF90C8
:102E50009F908F907F906F905F904F903F902F90BA
:102E600008958F929F92AF92BF92CF92EF920F935D
:102E70001F921F921F921F921F921F92812C912CC2
:102E8000A12CB12CC12CE22E09E020E00E943814C4
:102E90000F900F900F900F900F900F900F91EF9059
:102EA000CF90BF90AF909F908F9008958F929F92F8
:102EB000AF92BF92CF92DF92EF920F931F93CF9377
:102EC000DF9300D000D0CDB7DEB76C0159014801C7
:102ED0001C821B821A8219828E010F5F1F4F9E0176
:102EE0002D5F3F4F0E949C10811109C049815A817A
:102EF0006B817C8184019501C6010E9455130F905E
:102F00000F900F900F90DF91CF911F910F91EF9045
:102F1000DF90CF90BF90AF909F908F900895AF9229
:102F2000BF92CF92DF92EF92FF920F931F93CF93B6
:102F30008C011D990EC088EC0E94781085FF05C099
:102F4000C8010E94530260E201C060E088EC0E9468
:102F500089108091EA01813039F040F0823079F0B7
:102F6000833039F5C1E00CC083E106C08091A10730
:102F7000807F8031F1F081E18093A1071AC0C0E029
:102F80008091A107807F8031A9F40E941C0DDC0193
:102F9000CB0188539F4FAF4FBF4F80939D079093B6
:102FA0009E07A0939F07B093A00780E28093A1079C
:102FB00001C0C0E0780186E5E80EF11C6801A6E7D3
:102FC000CA0ED11C5701F501819191915F010097C3
:102FD00039F0DC01ED91FC910680F781E02D099537
:102FE000AC14BD0481F78091A107803409F43FC07F
:102FF00050F4803221F18033A1F1813109F082C097
:10300000F60110820AC0813509F458C0803809F4ED
:103010006AC0803509F076C039C0D7018D919D9185
:103020007D01009739F0DC01ED91FC910480F58180
:10303000E02D0995EC14FD0481F782E161C00E9446
:103040001C0D00919D0710919E0720919F073091C4
:10305000A007DC01CB01801B910BA20BB30BB7FDCA
:1030600051C061E088EE0E94891080E449C088EE7A
:103070000E94781080FD46C088ED0E947810682F6D
:10308000686088ED0E94891080E53AC088EC0E9453
:10309000781086FF37C081E58093A1070E941C0D40
:1030A000DC01CB014496A11DB11D80939D07909337
:1030B0009E07A0939F07B093A00724C00E941C0DF9
:1030C000C0909D07D0909E07E0909F07F090A007CA
:1030D000DC01CB018C199D09AE09BF09B7FD12C0F7
:1030E00080E88093A1072C2F40E060E0C8010E9497
:1030F0002E16882321F0823D29F080EA01C080E964
:103100008093A107CF911F910F91FF90EF90DF90D7
:10311000CF90BF90AF90089580E00895089580E02B
:10312000089580E0089581E00895FC018285089566
:1031300081E0693009F080E00895CF93DF93EC01DE
:103140008A819B81DC01ED91FC910480F581E02D69
:103150006A8509958A85813439F4EA81FB81EA58C8
:10316000FF4F8081846080831A861B861C861D86A3
:103170001E861F86188A80E0DF91CF9108958F9276
:103180009F92AF92BF92CF92EF920F93A42EB12C49
:10319000B22A1F921F921F921F921F921F92812C80
:1031A000912CC12CE62E01E023E240E0FC01628577
:1031B000828193810E9438140F900F900F900F908E
:1031C0000F900F900F91EF90CF90BF90AF909F9086
:1031D0008F9008958F929F92AF92BF92CF92EF926D
:1031E0000F93A62EB12C1F921F923F932F935F93A4
:1031F0004F934A01C12CE12C00E023EA40E0FC019E
:103200006285828193810E9438140F900F900F90F5
:103210000F900F900F900F91EF90CF90BF90AF90C5
:103220009F908F9008958F929F92AF92BF92CF926E
:10323000EF920F93A42EB12CB22A1F921F921F92CD
:103240001F921F921F92812C912CC12CE62E03E01D
:1032500023E240E0FC016285828193810E94381460
:103260000F900F900F900F900F900F900F91EF9085
:10327000CF90BF90AF909F908F9008952F923F92E4
:103280004F925F926F927F928F929F92AF92BF9276
:10329000CF92DF92EF92FF920F931F93CF93DF9322
:1032A000CDB7DEB7E8970FB6F894DEBF0FBECDBF3F
:1032B000DC011A963C91311107C1122F242E362EB3
:1032C0003C01FC01C280D380D601ED91FC910190BC
:1032D000F081E02D60E0C60109957C01009709F4BA
:1032E000F5C0FC01A080B180A114B10409F4F0C0C4
:1032F0004301F4E08F0E911CDC0111969C928E929A
:1033000014961C93FE0131962F018F0128E030E0C6
:1033100040E060E0D30112968D919C9113970E943A
:103320001815F70114828111D9C08D81893009F0F7
:10333000D1C00981D601ED91FC910280F381E02D8D
:10334000222D41E0632DC6010995F3018287882370
:1033500009F4C2C098859583282F40E060E08281FF
:1033600093810E94C315182F882389F0D701AD924D
:10337000BC92D601ED91FC910480F581E02DD30142
:103380001A966C91C6010995F3011286ABC0202FE5
:10339000013208F020E2D701AD92BC9221110BC09E
:1033A000940142E0F3016285828193810E941710AB
:1033B000811197C010C030E0820140E0D3011A961D
:1033C0006C911A9712968D919C9113970E941815E3
:1033D000811187C0E5CF1F921F925F924F921F927B
:1033E00088E08F9388E0882E912CA12CB12C99E253
:1033F000C92EE12C06E020EA40E0F30162858281DB
:1034000093810E943814182F0F900F900F900F90F7
:103410000F900F90811166C08B81D3011B968C9306
:103420001B97720100E028E030E040E01A966C91B2
:103430001A9712968D919C9113970E943F158111B6
:1034400050C02B813C8140E0F301628582819381F1
:103450000E943F15811145C0298130E0CE0181963F
:103460007C0140E0D3011A966C911A9712968D91C7
:103470009C9113970E943F15811133C02E8140E02B
:10348000F3016285828193810E943117811129C0E5
:1034900001E0D3011B968C91801740F020E0402F73
:1034A00068E0C3010E9413190F5FF3CFD301129696
:1034B000ED91FC911397EA58FF4F808184608083DF
:1034C00081E050968C930EC019ED0CC016ED0AC029
:1034D00017ED08C011ED06C014ED04C0F701B1826C
:1034E000A082182F812FE8960FB6F894DEBF0FBE8A
:1034F000CDBFDF91CF911F910F91FF90EF90DF90A3
:10350000CF90BF90AF909F908F907F906F905F9083
:103510004F903F902F900895CF92DF92FF920F939C
:103520001F93CF93DF9300D000D0CDB7DEB78C01CF
:10353000F62E19821A821B821C8220E0462F61E13E
:103540000E94BF1820E04F2D60E1C8010E94BF1803
:1035500020E04F2D64E0C8010E94131983E0C82EBB
:10356000D12C9E012F5F3F4F44E050E06F2DC801EA
:103570000E94EA188823F1F020E04F2D64E1C80191
:103580000E94BF1820E04F2D60E1C8010E94BF18C3
:1035900064E170E080E090E00E944D0D0F900F908C
:1035A0000F900F90DF91CF911F910F91FF90DF90BF
:1035B000CF90089589819A81AB81BC819D7F8330B2
:1035C0009140A041B105C1F264E670E080E090E076
:1035D0000E944D0D81E0C81AD10819F6CDCFFC012B
:1035E00084E591E0918380837383628312861386DE
:1035F0001486158616861786108A148288E08583BD
:103600009CE3968391E09783808784E081876115AE
:103610007105B1F0DB01AA5ABF4F80E090E02D9117
:103620003D91232B49F48B96880F991FDB01A80F3E
:10363000B91FED93FC93089501968031910579F7B8
:103640000895EF92FF920F931F93CF938C01C62F93
:103650007A01FA0180819181A281B3818130F3E006
:103660009F07F1E0AF07B105D1F060F48115E1E00B
:103670009E07AE07B10571F181309140A140B105BF
:1036800071F064C0833021E0920720E1A207B10508
:10369000E1F183309340A041B105B9F157C0809169
:1036A000A207811153C020E04C2F61E1C8010E94A4
:1036B000BF1820E04C2F60E1C8010E94BF1820E035
:1036C0004C2F64E0C8010E94131981E08093A20787
:1036D00081EB3DC020E0462F61E1C8010E94BF1888
:1036E00020E04C2F60E1C8010E94BF181092A20791
:1036F000F80162856770C770660F660F660F6C2BE6
:10370000828193810E94341021C020E04C2F64E11B
:10371000C8010E94BF1820E04C2F60E1C8010E9440
:10372000BF1864E170E080E090E00E944D0DF80168
:103730006285F70121812695217067704C2FF80171
:10374000828193810E942E161092A20780E0CF9171
:103750001F910F91FF90EF900895CF92DF92EF921B
:103760000F931F93CF93DF93CDB7DEB72E970FB68E
:10377000F894DEBF0FBECDBF6C0181E090E09E8764
:103780008D87E12C8E010F5F1F4F9E01235F3F4FFE
:1037900041E0F6016285828193810E945617811172
:1037A00051C002E011E089818023D1F019861A8688
:1037B0001B861C869E01275F3F4F44E050E0612F2F
:1037C000C6010E94EA1881110BC0AE01475F5F4F2E
:1037D000612FC6010E94211B813B99F1811132C0EA
:1037E000000F1F5F1830F9F611E0F601838581178D
:1037F00040F119861A861B861C869E01275F3F4F63
:1038000044E050E0612FC6010E94EA18811117C000
:1038100089859A85877091708130914081F48B857C
:103820009C8581609C878B87AE01475F5F4F612FCE
:10383000C6010E94211B813B21F0811103C01F5F43
:10384000D4CF80E02E960FB6F894DEBF0FBECDBF6A
:10385000DF91CF911F910F91EF90DF90CF9008955E
:103860000F931F93CF93DF93FC012089211102C096
:1038700080E020C0EC010E941C0D0C851D852E856A
:103880003F85DC01CB01801B910BA20BB30BB7FD75
:10389000EFCFCE010E94AD1B182F0E941C0DDC0142
:1038A000CB018C599F4FAF4FBF4F8C879D87AE8701
:1038B000BF87812FDF91CF911F910F910895FC0158
:1038C00087810895FC01828D08956E3524E072078A
:1038D00099F0683387E0780779F06F369EE07907D2
:1038E00059F06D302FE0720739F0623385E17807C7
:1038F00019F0663C7442A1F5413D22E0520791F176
:103900004D3D82E0580771F1433E92E0590751F175
:103910004A3E22E0520731F141308AE4580711F162
:10392000493391E05907F1F0463421E05207D1F0D4
:1039300047365105B9F043308AE0580799F0CA017B
:103940008F7D8A31944571F04A3284E5580751F0F1
:1039500081E04A309BE0590739F0473A524021F064
:1039600080E0089581E008950895CF93DF93EC01FE
:103970001C828D819E81DC01ED91FC910480F5819A
:10398000E02D6F8109951F8281E08A8B1B8A1C8A3A
:103990001D8A1E8A198E1A8E80E0DF91CF910895BC
:1039A0003F924F925F926F927F928F929F92AF92CF
:1039B000BF92CF92DF92EF92FF920F931F93CF931C
:1039C000DF9300D000D0CDB7DEB76C017C836B8372
:1039D0005A8349834C0180E1880E911C5601A7E06F
:1039E000AA0EB11C11E084E0482E3601B2E16B0E44
:1039F000711C93E0392E22E0522E8B819C81892B01
:103A000009F4EEC0F60180A1823059F128F4882330
:103A100041F0813071F0F1CF833039F18430C1F160
:103A2000ECCF548285819681908787835286518618
:103A300010A3AE014D5F5F4FBE016F5F7F4FC501A9
:103A40000E94BB0E882309F4CBC0D6011596ED91D8
:103A5000FC911697808191968C9391978181929693
:103A60008C93F6017682658230A2D60192968C9173
:103A70009297843011F493961C92F60181A18250A2
:103A8000848325813681308727838287818740A27E
:103A9000D60192968C918430A9F08530D1F1823094
:103AA00009F062C0AE014D5F5F4FBE016F5F7F4F97
:103AB000C5010E94BB0E882309F492C0F6018589D6
:103AC00084A386C0AE014D5F5F4FBE016F5F7F4F25
:103AD000C5010E94BB0E882309F482C0D6019896C6
:103AE0008C919897811174C093961C9393975296DA
:103AF0008C91529796968C93969753968C91539758
:103B000097968C93979757968C91579795968C93F9
:103B10005FC0AE014D5F5F4FBE016F5F7F4FC5015C
:103B20000E94BB0E882309F45BC0F60183A18823A1
:103B300009F44EC082819381009709F449C0DC01E9
:103B4000ED91FC910190F081E02D7401D6019596E4
:103B50000C91959797962C91979796964C9196974E
:103B600094966C91099534C0F6018585882319F0E7
:103B7000813039F028C081A190E00297978786872D
:103B800015872B813C8189819A81782F692FF601D5
:103B9000468557854115510581F00196211531055E
:103BA00029F479836A831C821B820DC0415051091C
:103BB0005787468721503109E8CF9A8389833C8310
:103BC0002B83F6011586F60186859785892B41F4AE
:103BD000D60116969C928E92159790961C920DCFB8
:103BE0000F900F900F900F90DF91CF911F910F9139
:103BF000FF90EF90DF90CF90BF90AF909F908F900D
:103C00007F906F905F904F903F900895EF92FF925A
:103C1000CF93DF93E701DC01129751966C93519794
:103C20008B818370833009F58A81E82FEE1FEE27A0
:103C3000EE1FEF5FF0E09F01220F331FE20FF31F33
:103C4000EA0FFB1F8F7080878C8181878E81599648
:103C50009C915997981718F459968C9359975296A6
:103C60008C9152978F5F52968C93DF91CF91FF90FA
:103C7000EF900895EF92FF92CF93DF93DC01E7017D
:103C800051966C9351978B818370833009F58A81AB
:103C9000E82FEE1FEE27EE1FEF5FF0E09F01220FEF
:103CA000331FE20FF31FEA0FFB1F8F7080878C8199
:103CB00081878E8159969C915997981718F4599637
:103CC0008C93599752968C9152978F5F52968C9302
:103CD000DF91CF91FF90EF900895FC0180E791E094
:103CE000918380838AE891E09383828376836583DE
:103CF000178281E0828B138A148A158A168A118EA4
:103D0000128E108688E081878CE382871386148662
:103D100084E0858716861786808B61157105B1F062
:103D2000DB01AA5ABF4F80E090E02D913D91232BFB
:103D300049F48B96880F991FDB01A80FB91FED93EB
:103D4000FC93089501968031910579F70895CF93FA
:103D5000DF93DC01D3968C91D397873009F037C07D
:103D6000D7968C91D7975B964D915C915C97EAEFD3
:103D7000F1E0813049F425913491242B352B5C9668
:103D80003C932E935B970AC0859194918095909572
:103D9000842395235C969C938E935B975B962D91E1
:103DA0003C915C975D968D919C915E9728173907A1
:103DB00009F4AEC0809590958223932390969C93AE
:103DC0008E935F975E963C932E935D97A1C0803251
:103DD00009F09EC0EAEFF1E065917491D8962C91BC
:103DE000D897D7968C91D797922F9F70482F4C7069
:103DF00050E0542F4427550F550F592B982F907F83
:103E0000492B922F907C592B8170C82F80E0D82F9E
:103E1000CE01E3E0880F991FEA95E1F7842B952BFB
:103E2000207330E0F4E035952795FA95E1F7822B81
:103E3000932B5B962D913C915C9762237323862B89
:103E4000972B5C969C938E935B97D9966D917C9102
:103E5000DA979A967C936E939997DB964D915C9145
:103E6000DC979C965C934E939B97DD962D913C91AD
:103E7000DE9792963C932E939197FD01FF962081B9
:103E8000318194963C932E93939732962081318181
:103E900096963C932E9395973296208131819896F1
:103EA0003C932E9397975D962D913C915E97821748
:103EB000930761F0209530952823392390963C9301
:103EC0002E935F975E969C938E935D976115710517
:103ED00051F09D968D919C919E97892B21F481E0C4
:103EE000D1968C93D1979E967C936E939D97411516
:103EF000510551F09F968D919C91D097892B21F47B
:103F000081E0D2968C93D297D0965C934E939F97F4
:103F1000DF91CF910895CF92DF92EF920F931F938D
:103F2000CF93DF9300D0CDB7DEB7FC01228D2223E3
:103F300099F16C010E941C0DF601038914892589F1
:103F40003689DC01CB01801B910BA20BB30BB7FDB3
:103F500023C00E941C0DF601E18CDC01CB018E0D0B
:103F6000911DA11DB11D838B948BA58BB68B87856D
:103F700090E09A83898386010D5C1F4F9E012F5F1D
:103F80003F4F46856781858196810E945617811132
:103F900003C0C6010E94A71E80E00F900F90DF9122
:103FA000CF911F910F91EF90DF90CF900895DC019A
:103FB000683031F499968C9199979A969C910895CE
:103FC000693031F49B968C919B979C969C910895B7
:103FD000E62FF0E0EE0FFF1FE652FE4F25913491E1
:103FE0005B968D919C915C972823392381E090E02A
:103FF000232B09F480E00895860F911D860F911DF3
:10400000FC0181A192A108950F931F93FC019A01D5
:10401000DC01AD58BF4F8C9191E0980F9C93DB0170
:1040200012968C938B0143856781858196810E94CE
:104030001E131F910F910895DC015796ED91FC918D
:104040005897309709F0099408952F923F924F9214
:104050005F926F927F928F929F92AF92BF92CF9218
:10406000DF92EF92FF920F931F93CF93DF93CDB721
:10407000DEB7EB970FB6F894DEBF0FBECDBFDC0105
:1040800017965C90511023C1422E242E362E7C01AF
:10409000FC01C580D680D601ED91FC910190F081A4
:1040A000E02D60E0C60109955C01009719F446ED2A
:1040B000542E15C1FC01608071806114710409F4F3
:1040C00009C14701F8E08F0E911CDC0111969C920A
:1040D0008E9214964C928E01065D1F4F22E130E0C5
:1040E00040E060E0F701858196810E941815182F45
:1040F000D5016D927C928111E0C04CA95DA96AA99D
:104100007BA9D701ED91FC910484F585E02DC701D1
:104110000995811102C011EDD0C0D601ED91FC913D
:104120000280F381E02D222D40E0632DC601099528
:10413000F7018783882309F4D0C099A99187282F94
:1041400040E060E0858196810E94C315182FD6015A
:10415000ED91FC91D50114961C92882359F00480AE
:10416000F581E02DD70117966C91C6010995F701ED
:104170001782ABC00190F081E02DD70117966C91AA
:10418000C6010995009709F492CFFC01448294017D
:1041900041E0D70117966C91179715968D919C91D8
:1041A00016970E941710182F811187C03BAC412C25
:1041B0003AE6632E31E0732E5701B2E0AB0EB11C2C
:1041C0006E01E1E1CE0ED11C431461F17A82698265
:1041D000BC82AB821E86188A1F8619A21AA21BA255
:1041E00019A6DF82CE82D986C8868D818B878A8781
:1041F000DD86CC868E010F5F1F4F242D40E0D70156
:1042000017966C91179715968D919C9116970E9411
:104210006615182F811151C0F7018289833010F47F
:104220004394D2CFD70152964C915297433008F421
:1042300072CF940117966C91179715968D919C915A
:1042400016970E941710182F811137C068EC70E084
:1042500080E090E00E944D0DF70121894085678143
:10426000858196810E943117182F811126C068EC34
:1042700070E080E090E00E944D0DF701ED58FF4F97
:10428000108285E0898380E28A8301E00C831D82AD
:1042900045E050E0BE016F5F7F4FC7010E940420E0
:1042A000182F81110AC0C7010E941C20D701149643
:1042B0000C9314975A960C9312C0D701ED91FC9170
:1042C0000480F581E02DC7010995512E08C029ED24
:1042D000522E05C097ED592E02C084ED582E852D23
:1042E000EB960FB6F894DEBF0FBECDBFDF91CF9136
:1042F0001F910F91FF90EF90DF90CF90BF90AF9004
:104300009F908F907F906F905F904F903F902F90F5
:1043100008950F93CF93DF93CDB7DEB72D970FB6E8
:10432000F894DEBF0FBECDBF39E039831A823C83DB
:104330001D823FE03E836F83488729870A872FEFDE
:104340002B871C862D874DE050E0BE016F5F7F4FAD
:104350000E9404202D960FB6F894DEBF0FBECDBF8D
:10436000DF91CF910F910895CF93DF9300D000D0CC
:104370001F92CDB7DEB725E0298320E22A8321E012
:104380002C831D8245E050E0BE016F5F7F4F0E948D
:1043900004200F900F900F900F900F90DF91CF910E
:1043A0000895FC0181850895FC0187A108956E356B
:1043B00084E0780739F06D3A9BE1790719F06E32A5
:1043C000764141F481E0493197E0590729F04139BC
:1043D000524011F080E008950895CF93DF93EC01EF
:1043E0001A821B821C821D821E828F819885DC01AD
:1043F000ED91FC910480F581E02D69850995198680
:104400001FA280E0DF91CF9108956F927F928F92EB
:104410009F92AF92BF92CF92DF92EF92FF920F9353
:104420001F93CF93DF93CDB7DEB762970FB6F894A3
:10443000DEBF0FBECDBFDC0119963C91311172C0B9
:10444000122F642E762E7C01FC01A780B084D5014A
:10445000ED91FC910190F081E02D60E0C50109959E
:104460006C01009709F460C0FC0180809180811488
:10447000910409F45BC0C7010A9691838083148379
:104480008E010F5F1F4F22E130E040E060E0D70176
:1044900017968D919C9118970E941815182FF60168
:1044A0009182808281112FC089859A858E35F4E0B2
:1044B0009F0739F08D3A2BE1920719F08E32964121
:1044C00031F58B859C858931B7E09B0719F08139DF
:1044D0009240E9F4D501ED91FC910280F381E02D49
:1044E000262D40E0672DC5010995F70181878823B6
:1044F000F9F08885838764E170E080E090E00E94B5
:104500004D0D80EE16C08D3019F011EE01C011ED89
:10451000D701ED91FC910480F581E02DC70109954B
:10452000812F07C089ED05C086ED03C087ED01C06E
:1045300084ED62960FB6F894DEBF0FBECDBFDF915B
:10454000CF911F910F91FF90EF90DF90CF90BF9090
:10455000AF909F908F907F906F900895CF92DF9251
:10456000EF92FF920F931F93CF93DF93EC01022FF3
:10457000EF80F884D701ED91FC910190F081E02D5E
:104580006985C70109956C01892B11F486ED7BC003
:104590006CE271E080E090E00E944D0D298540E0E2
:1045A00060E08F8198850E94C315182F882319F029
:1045B000F601148260C0D60114961C92D701ED91C9
:1045C000FC910190F081E02D6985C7010995009764
:1045D000E9F2FC0104837E01FAE0EF0EF11C970181
:1045E00041E069858F8198850E941710182F8111ED
:1045F00042C001E00D8733E027E090E29E8784E02F
:104600008F87088B998B8A8B3B8B9C8B8D8B3E8BFA
:104610009F8B888F35E0398F9A8F8B8F3C8F9D8F42
:104620008E8F2F8F98A389A32AA39BA38CA3970176
:1046300049E069858F8198850E941710182F811194
:104640001AC068EC70E080E090E00E944D0D21E01F
:104650004A8569858F8198850E943117182F8111AD
:104660000AC00A830FA3CC57DF4F188219821A821F
:104670001B8280E008C0E881F9810480F581E02D8B
:10468000CE010995812FDF91CF911F910F91FF905E
:10469000EF90DF90CF9008950F931F93CF93DF9308
:1046A000DC0180E991E011969C938E9318967C939F
:1046B0006E93179719961C92199797961C92979735
:1046C000FD0180E090E01286582F811102C028E0A1
:1046D00001C020E023878C01000F111F9801280FD3
:1046E000391F2A0F3B1FE9014C854E7F4D7F4C87B8
:1046F000511102C03FE001C031E0E801C80FD91FED
:10470000CA0FDB1F330F330F2C852370322B3C87EE
:104710000196339689309105B1F661157105C1F0A6
:10472000FB01EA5AFF4F20E030E081919191892B03
:1047300051F4255D3F4F220F331FFB01E20FF31FA2
:10474000B183A08305C02F5F3F4F2031310569F74A
:10475000DF91CF911F910F91089550E0683051F48F
:10476000FA013A96EE0FFF1FEE0FFF1FE80FF91F39
:1047700081810895693051F4FA013A96EE0FFF1FD6
:10478000EE0FFF1FE80FF91F80810895E62FF0E07C
:10479000EE0FFF1FE250FE4F25913491FA013A9639
:1047A000EE0FFF1FEE0FFF1FE80FF91FC901A0E07A
:1047B000B0E0DC01992788274081518162817381B3
:1047C000482359236A237B2381E0452B462B472B23
:1047D00009F480E0089524E0429FA0011124460FCF
:1047E000511D485D5F4F440F551F840F951FFC01FD
:1047F0008081918108950F931F93613039F050F0BB
:10480000623031F06330E1F468E005C064E003C079
:1048100066E001C062E08A01DC0170E0FB01EE0F9E
:10482000FF1F6E0F7F1FFD01E60FF71F42851996D0
:104830006C91199717968D919C9118970E941E1351
:104840001F910F910895AC0148555F4FFA011082F6
:1048500031961082319628E02083319620EC208317
:1048600024E030E00C94FB23742FAC0148555F4FDB
:10487000FA01108231961082319628E02083319619
:10488000262F2064208324E030E0672F0C94FB2344
:10489000662341F0653041F0E62FF0E0EE5DFD4F1C
:1048A00064916C5F0C9434240895FC0127A12223A9
:1048B00091F0AC0148555F4F28E0FA012083319612
:1048C000108231962FE02083319620EC208324E063
:1048D00030E00C94FB230895FC0127A1222381F0F2
:1048E000AC0148555F4FFA01108231961082319623
:1048F0001082319620E4208324E030E00C94FB23E6
:104900000895362F622FFC01E855FF4F1082DC011D
:10491000A755BF4F21E02C9311962FE02C931196B1
:1049200020EC2C9311961C9211963C9311964C936B
:1049300027E030E0AF010C94FB23DC01462F959675
:10494000ED91FC919697309709F00994662331F028
:10495000613031F0623031F064E005C061E003C0E5
:1049600062E001C063E0CD010C9448244F925F9255
:104970006F927F928F929F92BF92CF92DF92EF922F
:10498000FF920F931F93CF93DF93FC01DC01A85795
:10499000BF4F09F4E4C08C9111968830E9F48C91F2
:1049A000EF01C60FD11D9B818917B1F08B8388233E
:1049B00009F4D5C0CF01DF91CF911F910F91FF90E6
:1049C000EF90DF90CF90BF909F908F907F906F90EF
:1049D0005F904F900C949D248C9181111DC0DF013C
:1049E000A557BF4F8C91837109F4B9C0EF01C4572B
:1049F000DF4F8881823208F4B2C070E0685C7F4F7C
:104A0000660F771FE60FF71F8D919C9198278927D6
:104A1000982791838083A3C0813009F0A0C0262FFE
:104A200030E0DF01A20FB31F13968C911397811111
:104A300004C080E813968C931397EF01C257DF4FA1
:104A4000688179818A819B810E940331AB01BC011D
:104A5000E901CC0FDD1FCC0FDD1F4E018E0E9F1E16
:104A6000E40148A759A76AA77BA7C9010A9603E0F2
:104A7000880F991F0A95E1F78E0F9F1F8F010E5621
:104A80001F4FE80108811981EC0119830883C901CE
:104A9000C3E0880F991FCA95E1F78E0F9F1F8C0105
:104AA0000E5A1F4F7F01D4E9ED0EF11CE701E8809B
:104AB000F980E801F982E8820E5F1F4F7F01D6E995
:104AC000ED0EF11CE701E880F980E801F982E88247
:104AD0008A5A9F4F8F0108561F4FE801088119819C
:104AE000EC0119830883E401C8ACD9ACEAACFBAC97
:104AF0004C155D056E057F0591F1BB24B394CD0186
:104B000088589F4FEC01B8822C5D3F4F220F331F16
:104B1000E20FF31F970186010095109520953095BF
:104B20002901662477248B012227332704211521AC
:104B300011830083C11006C0442321F0FD01E05819
:104B4000FF4FB082D11006C0552321F0A458BF4FAB
:104B500081E08C93F40140AF51AF62AF73AFDF914E
:104B6000CF911F910F91FF90EF90DF90CF90BF906A
:104B70009F908F907F906F905F904F9008958F924D
:104B80009F92AF92BF92CF92DF92EF92FF920F93DC
:104B90001F93CF93DF9300D0CDB7DEB7FC0127A1E1
:104BA0002223C9F16C01F12C21E090E2A92EB12C55
:104BB0004F01F8E88F0E911CBA82A98230E0F9010A
:104BC000EE0FFF1F2E0F3F1FF601E20FF31FE12C28
:104BD00084019E012F5F3F4F4285F60161858781E9
:104BE00090850E94561789819A81892B21F06F2D1B
:104BF000C6010E94B624F394F4E0FF1661F081E050
:104C0000F81629F0E2E0FE1621F027E0D5CF23E0E8
:104C1000D3CF25E0D1CF80E00F900F90DF91CF91DF
:104C20001F910F91FF90EF90DF90CF90BF90AF90CA
:104C30009F908F900895FC0185810895FC018189E2
:104C400008956E3584E0780759F06D3A9BE1790755
:104C500039F06E3286E1780719F06F367E40A1F4A4
:104C60004E3882E0580791F0463190EF590771F0C5
:104C7000413084E0580751F081E0433192E0590718
:104C800039F04F3E5E4B21F080E0089581E00895B9
:104C90000895CF93DF93EC011A828B819C81DC0114
:104CA000ED91FC910480F581E02D6D8109951D82C7
:104CB000198A80E0DF91CF910895FC0188EA91E0A4
:104CC00091838083748363831582118A168288E0BE
:104CD00087838CE380871186128684E0838714861D
:104CE0001586868761157105B1F0DB01AA5ABF4FA1
:104CF00080E090E02D913D91232B49F48B96880F15
:104D0000991FDB01A80FB91FED93FC93089501963D
:104D10008031910579F708958F929F92AF92BF925B
:104D2000CF92DF92EF92FF920F931F93FC01E83D29
:104D30008FEFF80709F44AC080A5811147C081A50B
:104D4000843109F043C062A573A584A595A50E948E
:104D50000331628B738B848B958B26A537A5358F9A
:104D6000248F20A931A9378F268F22A933A931A3F7
:104D700020A324A935A933A322A306891789208D4E
:104D8000318D601771078207930701F1680179017E
:104D9000C094D094E094F0944701AA24BB246C0101
:104DA000EE24FF24C820D920D38EC28E011104C066
:104DB000662311F041E047A3111104C0772311F0DD
:104DC00021E026A3668B778B808F918F1F910F91A7
:104DD000FF90EF90DF90CF90BF90AF909F908F901B
:104DE0000895CF92DF92EF920F931F93CF93DF93AB
:104DF00000D0CDB7DEB7FC0121892223A9F06C01D8
:104E000080E290E09A8389838F01085D1F4FE12C37
:104E10009E012F5F3F4F41856581838194810E9470
:104E20005617C6010E948C2680E00F900F90DF91EC
:104E3000CF911F910F91EF90DF90CF900895DC01FB
:104E4000683019F453968C910895693019F452968C
:104E50008C910895E62FF0E0EE0FFF1FE85DFD4F07
:104E60004591549160E070E0BA015527442752966D
:104E70008D919D910D90BC91A02D482359236A23BB
:104E80007B2381E0452B462B472B09F480E00895D6
:104E9000860F911D860F911DFC01848D958D0895BF
:104EA0008F929F92AF92BF92CF92EF920F93FC019D
:104EB0001F921F927F936F935F934F934A01A12C90
:104EC000B12C82E0C82EE12C09E021E24681658107
:104ED000838194810E9438140F900F900F900F904F
:104EE0000F900F900F91EF90CF90BF90AF909F9049
:104EF0008F900895FC01E85BFF4F21E02083DC01E7
:104F0000A75BBF4F23E02C9311966C9343E050E0D6
:104F1000BF010C945027662341F0653041F0E62F25
:104F2000F0E0E45BFD4F64916C5F0C947A27089588
:104F3000FC01E85BFF4F1082DC01A75BBF4F28E05C
:104F40002C9311961C9211966C9311964C9311967A
:104F50001C9211961C9211961C9248E050E0BF01E1
:104F60000C945027DC011F96ED91FC9150973097DF
:104F700009F00994EDE4F2E064916C5F0C947A27F7
:104F80002F923F924F925F926F927F928F929F9259
:104F9000AF92BF92CF92DF92EF92FF920F931F9347
:104FA000CF93DF93CDB7DEB762970FB6F894DEBF2D
:104FB0000FBECDBFDC0115965C905110F7C0422E9C
:104FC000242E362E7C01FC01C380D480D601ED91C5
:104FD000FC910190F081E02D60E0C60109955C0133
:104FE000009719F436ED532EE9C0FC016080718002
:104FF0006114710409F4DDC04701F6E08F0E911CC5
:10500000DC0111969C928E9214964C928E010F5F49
:105010001F4F22E130E040E060E0F701838194819E
:105020000E941815182FD5016D927C928111B4C081
:1050300089859A858E35B4E09B0761F08D3AEBE166
:105040009E0741F08E32F6E19F0721F08F369E4099
:1050500009F0A1C08B859C858F38A2E09A0709F4DE
:105060009AC08931B7E09B0709F495C08139E2E025
:105070009E0709F490C08E38F2E09F0781F08631D8
:1050800020EF920761F08130A4E09A0741F083316C
:10509000B2E09B0721F08F3E9E4B09F07CC0D60109
:1050A000ED91FC910280F381E02D222D40E0632DF3
:1050B000C6010995F7018583882309F47DC0988589
:1050C0009783282F40E060E0838194810E94C3157C
:1050D000182FD601ED91FC91D50114961C928823CE
:1050E00059F00480F581E02DD70115966C91C60129
:1050F0000995F701158258C00190F081E02DD70184
:1051000015966C91C6010995009709F46BCFFC01C7
:105110004482940141E0D70115966C91159713963E
:105120008D919C9114970E941710182F811134C0F3
:1051300001E0F701018790E2928784E0838722E013
:10514000248795878687940143E0658183819481D4
:105150000E941710182F81111FC068EC70E080E0CA
:1051600090E00E944D0D21E0D70116964C911697C4
:1051700015966C91159713968D919C9114970E949A
:105180003117182F811108C0C7010E94B227F701FB
:105190000283018B13C011EDD701ED91FC910480C6
:1051A000F581E02DC7010995512E08C029ED522E39
:1051B00005C097ED592E02C084ED582E852D6296BC
:1051C0000FB6F894DEBF0FBECDBFDF91CF911F9118
:1051D0000F91FF90EF90DF90CF90BF90AF909F9096
:1051E0008F907F906F905F904F903F902F90089599
:1051F0006F927F928F929F92AF92BF92CF92DF92E7
:10520000EF92FF920F931F93CF93DF9300D01F92E3
:10521000CDB7DEB77C01ADB6BEB68091E80083FFA6
:105220000CC1F701808190E02091AD073091AE076D
:105230002817390709F001C18091AA07833009F4C2
:10524000A0C030F4813071F0823009F4D9C0F5C0CB
:105250008A3009F4BCC08B3009F4A4C0893009F04D
:10526000ECC050C08091A907813A09F0E6C08DB624
:105270009EB61A8219828091AB071091AC078B837E
:10528000F7018085482F50E08DB79EB7841B950BA2
:105290000FB6F8949EBF0FBE8DBFEDB7FEB7319627
:1052A0006F0160E070E0CF010E9420314FEF410FAD
:1052B0008E010F5F1F4F9601BE016D5F7F4FC701CB
:1052C0000E944230F70186819781009729F040853E
:1052D00050E0B6010E9417311092E9008091E80079
:1052E000877F8093E8008B8181118093F100698131
:1052F0007A81C6010E94532B8091E8008B778093BE
:10530000E80039C08091A907813209F096C08DB6B6
:105310009EB60091AF071091B0077090AB076090F8
:10532000AC078DB79EB7801B910B0FB6F8949EBF4C
:105330000FBE8DBFEDB7FEB731966F018091E800CB
:10534000877F8093E800B801CF010E94B12B809144
:10535000E8008E778093E80021E0711001C020E022
:1053600030E0021B130B2C0D3D1D4FEF460D672D3A
:10537000C7010E9490300FB6F8949EBE0FBE8DBE3E
:105380005CC08091A907813A09F057C08091E8007C
:10539000877F8093E8008091E80080FFFCCFF701D1
:1053A000818542C08091A907813209F046C0809171
:1053B000E800877F8093E8000E94C52C9091AB079E
:1053C00081E0911101C080E0F701818736C08091B2
:1053D000A907813291F58091E800877F8093E800EA
:1053E0000E94C52C8091AB079091AC07882736E0CE
:1053F000969587953A95E1F7F701958784871DC0C3
:105400008091A907813AC9F48091E800877F809351
:10541000E8008091E80080FFFCCFF7018485958546
:1054200096958795969587958093F1008091E800F1
:105430008E778093E8000E94C52C0FB6F894BEBE0C
:105440000FBEADBE0F900F900F90DF91CF911F91C7
:105450000F91FF90EF90DF90CF90BF90AF909F9013
:105460008F907F906F900895FC01399627E0DF01BF
:105470001D922A95E9F721E0FC01218728E833E114
:105480003587248723E0248361E001960C94872CE0
:105490005F926F927F928F929F92AF92BF92CF92C4
:1054A000DF92EF92FF920F931F93CF93DF9300D081
:1054B0001F92CDB7DEB77C01ADB6BEB68091A8070E
:1054C000843009F08BC08091E4009091E500F701F1
:1054D000228533852817390709F480C081818F70B0
:1054E0008093E9008091E80085FF78C08DB69EB674
:1054F000408550E08DB79EB7841B950B0FB6F8948E
:105500009EBF0FBE8DBFEDB7FEB731966F011B82F8
:105510001A82198260E070E0CF010E9420318E0172
:105520000F5F1F4F960140E0BE016D5F7F4FC701C7
:105530000E944230582EF70184859585892B29F0E9
:1055400011E086859785892B09F010E0F7016680C8
:1055500077806114710491F049815A81B301C601C9
:105560000E940A3101E0892B09F400E0F70140852F
:1055700050E0B601C3010E94173101C000E08981EB
:105580009A81892BF9F0511004C0011102C010FF5B
:1055900019C0F701848595859787868781818F70EB
:1055A0008093E9008B8181118093F10069817A8178
:1055B00040E050E0C6010E94062B8091E8008E7703
:1055C0008093E8008091E4009091E500F7019387D3
:1055D00082870FB6F8949EBE0FBE8DBE0FB6F894AC
:1055E000BEBE0FBEADBE0F900F900F90DF91CF915A
:1055F0001F910F91FF90EF90DF90CF90BF90AF90F1
:105600009F908F907F906F905F900895CF92DF92E0
:10561000EF92FF920F931F93CF93DF93EC018B01D7
:105620007A010E94E42C811135C0E114F10439F0B3
:10563000F70180819181081B190BC80FD91FC12C5C
:10564000D12C0115110529F18091E80085FD18C0C4
:105650008091E8008E778093E8000E94A62FE114E5
:10566000F10449F0F70180819181C80ED91ED182E1
:10567000C08285E00FC00E94E42C882311F30AC089
:1056800089918093F10001501109FFEFCF1ADF0AD1
:10569000D8CF80E0DF91CF911F910F91FF90EF90D5
:1056A000DF90CF9008952091AF073091B007261773
:1056B000370748F06115710539F42091E8002E771D
:1056C0002093E80001C0B901FC0120E061157105DB
:1056D00079F18091A8078823F1F18530F1F180916B
:1056E000E80083FD3CC08091E80082FD2EC08091DF
:1056F000E80080FFEBCF2091F3008091F20090E072
:10570000922B6115710551F08032910538F4219189
:105710002093F100615071090196F3CF21E0809749
:1057200009F020E08091E8008E778093E800CECFEA
:105730002111CFCF0AC08091A807882361F085305E
:1057400061F08091E80083FD0AC08091E80082FF4B
:10575000F2CF80E0089582E0089583E0089581E02B
:1057600008956115710529F42091E8002B772093A5
:10577000E800FC016115710541F18091A8078823BB
:1057800061F1853061F18091E80083FD24C0809152
:10579000E80082FFEFCF2091F3008091F20090E0CB
:1057A000922B892B31F08091F10081936150710926
:1057B00091F78091E8008B778093E800DBCF8091B0
:1057C000A807882351F0853051F08091E80080FFD0
:1057D000F6CF80E0089581E0089582E0089583E0A7
:1057E00008952091AF073091B0072617370748F08A
:1057F0006115710539F42091E8002E772093E800B7
:1058000001C0B901FC0120E06115710591F18091A1
:10581000A807882309F440C0853009F43FC080916F
:10582000E80083FD3DC08091E80082FD2FC080919B
:10583000E80080FFE9CF2091F3008091F20090E032
:10584000922B6115710559F08032910540F4249135
:105850002093F1003196615071090196F2CF21E059
:10586000809709F020E08091E8008E778093E8002F
:10587000CBCF2111CCCF0AC08091A807882361F03B
:10588000853061F08091E80083FD0AC08091E800D6
:1058900082FFF2CF80E0089582E0089583E00895CA
:1058A00081E00895982F973068F59093E900981754
:1058B00039F07091EC002091ED005091F00003C0A0
:1058C000242F762F50E021FD02C09F5FECCF309156
:1058D000EB003E7F3093EB003091ED003D7F309345
:1058E000ED003091EB0031603093EB007093EC00F1
:1058F0002093ED005093F0002091EE0027FDE5CFBE
:1059000080E008958F708093E90081E008950F93FF
:105910001F93CF93DF93062FEC0110E0101779F15E
:105920006881611103C01F5F2596F8CF2C81A98182
:10593000BA819B81862F8F70873010F080E020C065
:10594000223010F442E001C046E0E8E0F0E020E060
:10595000EA17FB0720F42F5FEE0FFF1FF9CF229508
:10596000207F422B50E4959F90011124661F6627EB
:10597000661F622B0E94522C8111D5CFDFCF81E0B0
:10598000DF91CF911F910F9108958091A90787FF13
:1059900011C08091E80082FD05C08091A8078111A7
:1059A000F8CF11C08091E8008B770BC08091A807D9
:1059B000882349F08091E80080FFF8CF8091E800CB
:1059C0008E778093E80008952091E4003091E500FF
:1059D00095E64091EC00842F817040FF23C08091B8
:1059E000E80080FD1DC08091A807882399F08530CC
:1059F00099F08091EB0085FD11C04091E400509139
:105A0000E5002417350729F3915011F09A01E1CFF1
:105A100084E0089582E0089583E0089581E0089588
:105A200080E008954091E80042FFDDCF08950F9394
:105A30001F93CF93DF930E946B2D0E94732DC8EDAF
:105A4000D0E088818F778883888180688883888187
:105A50008F7D888319BC1092A8071092A40710921A
:105A6000A6071092A50700EE10E0F80180818B7F59
:105A7000808388818160888342E260E080E00E94C8
:105A8000522CE1EEF0E080818E7F8083E2EEF0E048
:105A9000808181608083808188608083F80180813B
:105AA0008E7F8083888180618883DF91CF911F9171
:105AB0000F910895E8EDF0E080818F7E8083E7ED1F
:105AC000F0E080818160808384E082BF81E0809308
:105AD000A7070C94172DE8EDF0E080818E7F80837E
