:100000000C9445010C946D010C946D010C946D01E0
:100010000C946D010C946D010C946D010C946D01A8
:100020000C946D010C946D010C94682E0C946D0170
:100030000C946D010C946D010C946D010C946D0188
:100040000C946D010C946D010C946D010C946D0178
:100050000C946D010C946D010C946D010C94EA0CE0
:100060000C946D010C9461070C9493070C946D0132
:100070000C946D010C946D010C946D010C946D0148
:100080000C946D010C946D010C946D010C946D0138
:100090000C94840A0C946D010C946D010C946D0108
:1000A0000C946D010C946D010C946D011A0E1D0ED3
:1000B0000C0E100E160E3E0E3E0E3E0E210E250E9E
:1000C000290E2F0E330E3E0E390E5E2F852F7D30FA
:1000D000852F7D30D12FF42F7D304B305A300D0AD3
:1000E000546869732069732074686520686F73743D
:1000F00020636F6E74726F6C6C6572000D0A5553DD
:100100004220486F737420436F6E74726F6C6C651D
:100110007220496E697469616C69736564000D0AC7
:100120004F534320646964206E6F7420737461724E
:1001300074000D0A546869732064657669636520EC
:10014000697320696E20706C6179657220736C6FC1
:100150007420000000000200090F000003040100E9
:100160000C00000000000000000000000000000083
:1001700000000408020110408040102040804080B0
:10018000080204018040201002011080102040402D
:10019000200404040404030405020202020403020E
:1001A000020202060606060606040402020204040F
:1001B000000000002300260029002C002F00000072
:1001C0000000250028002B002E0031000000000058
:1001D000240027002A002D00300000010008000242
:1001E000000400200010004000800000000001001A
:1001F0000200200010004000800004000800000100
:1002000000080002000400200010004000800000F0
:1002100000000100020020001000400080000400E7
:1002200008000002030405010001000800020004A8
:1002300000200010004000800000000001000200CB
:1002400020001000400080000400080000020304A9
:1002500005010902200001010080FA0904000002E2
:10026000584200000705810320000407050203200F
:10027000000412011001000000205E048902210127
:1002800000000001CF02B907E60C11241FBECFEF1A
:10029000DAE0DEBFCDBF12E0A0E0B1E0E2E3F4E6D9
:1002A00002C005900D92AE30B107D9F728E0AEE05C
:1002B000B2E001C01D92A839B207E1F711E0C5E430
:1002C000D1E004C02197FE010E94ED31C234D10774
:1002D000C9F70E940F030C9417320C940000982F5A
:1002E000462F262F30E0F901EC5CFA4F538155235D
:1002F00029F0682F84E395E00C949D24220F331F8E
:10030000F901E65FFE4F0190F081E02D82818823A4
:1003100021F0692FCF010C940F28F901EE5FFE4FF9
:100320000190F081E02D8481882389F0692F88EF86
:10033000890F823040F4CF010E94ED1F969587957A
:100340009695879503C0CF010E94ED1F582F852FEA
:100350000895982F462F262F30E0F901EC5CFA4FD4
:100360008381882329F0692F84E395E00C94DB24B2
:10037000220F331FF901E65FFE4F0190F081E02D5F
:100380008281882321F0692FCF010C943828F9014C
:10039000EE5FFE4F0190F081E02D8481882321F0F3
:1003A000692FCF010C94122080E090E008950F9304
:1003B000982F242FE42FF0E0DF01AC5CBA4F1396A6
:1003C0008C91882339F0462F692F84E395E00F91B3
:1003D0000C947125EE0FFF1FDF01A65FBE4F0D903D
:1003E000BC91A02D12968C911297882341F0411157
:1003F0001FC0462F692FCD010F910C948828EE5F06
:10040000FE4F0190F081E02D8481882389F0411115
:100410000FC0062F0695292F2695462F46954695FF
:100420004695969596959695692FCF010E942B201B
:100430000F910895462F262F30E0F901EC5CFA4F1A
:100440009381992329F0682F84E395E00C94382553
:10045000220F331FF901E65FFE4F0190F081E02D7E
:100460009281992321F0682FCF010C947B28089565
:100470002E9A08952E988EBD0DB407FEFDCF1EBC9A
:100480000DB407FEFDCF0E9438028EB508952E9858
:1004900082608EBD0DB407FEFDCF6EBD0DB407FEAC
:1004A000FDCF0C94380288EF0E943A02807C8034A1
:1004B000A1F018F4882301F10895803819F0803CE8
:1004C000B9F0089588ED0E943A0281FD0BC069ECF5
:1004D00088ED0E94470282E00CC088ED0E943A023B
:1004E00081FDF5CF6BEC88ED0E94470283E001C0EF
:1004F00081E080931202089561ED88ED0E94470229
:100500001092120208950F931F93CF93DF938C01E3
:10051000269A0E943802219A229A2398209A80E5EE
:100520008CBD1DBC259868E188E80E94470260E206
:1005300088E70E94470260E088E70E944702C0E027
:10054000D0E088E60E943A02219680FD06C0CF3FA7
:100550008FEFD807B1F78FEF1DC061EC88ED0E94D7
:10056000470260E680ED0E94470264E088EE0E9448
:10057000470288EE0E943A0282FFFBCFC8010E9428
:10058000530260E288EC0E94470261E080E80E942A
:10059000470280E0DF91CF911F910F91089584EF82
:1005A00095E00E94E20F64EF75E083EE95E00E9413
:1005B000071B64EF75E084E395E00E943C2464EF40
:1005C00075E084EE94E00E944D2764EF75E084E9C5
:1005D00094E00E944D2764EF75E084E494E00E946B
:1005E0004D2764EF75E084EF93E00E944D2764EFA0
:1005F00075E08CE793E00E94851E64EF75E084E06F
:1006000093E00E94851E64EF75E08CE892E00E9402
:10061000851E64EF75E084E192E00C94851E0E94D3
:10062000AC0D61E084E00E943F0E61E089E00E9431
:100630003F0E61E081E10E943F0E62E083E10E9493
:100640003F0E62E084E10E943F0E60E089E00E947C
:100650007B0E60E084E00E947B0E61E081E10E94FD
:100660007B0E0E94B130789426E040E251EA67E0C8
:1006700070E08BE696E00E94F90683E10E94AA0EE4
:10068000EC0184E10E94AA0ECC0FDD1F8C2B80931D
:10069000130262E371E08BE696E00E942608609107
:1006A000130270E06F5F7F4F4AE050E08BE696E008
:1006B0000E94E2088CE8E9EEF7E0DF011D928A95DE
:1006C000E9F764EF71E080E090E00E94650D60E082
:1006D00089E00E947B0E64E170E080E090E00E947F
:1006E000650D61E089E00E947B0E64E170E080E0CE
:1006F00090E00E94650D84EF95E00E9483028F3F99
:1007000039F46EE171E08BE696E00E942608FFCF97
:100710006CEF70E08BE696E00E9426088AE797E08F
:100720000E94540C40E85AE166E070E08AE797E0E6
:100730000E945E0C6EED70E08BE696E00E9426084B
:100740000FEF84EF95E00E94530284EF95E00E9442
:10075000A71784E3A82E85E0B82EC9EED7E092E073
:10076000C92E91E0D92E2AE0822E21E0922E3EE081
:10077000E32E32E0F32E10E0F501838181110DC0EC
:10078000D401ED91FC918281811107C0D601ED91D8
:10079000FC918481882309F46FC1612F80E00E945D
:1007A0006F01882319F08A81816002C08A818E7F5F
:1007B0008A83612F82E00E946F01882319F08A8169
:1007C000826002C08A818D7F8A83612F83E00E94CC
:1007D0006F01882319F08A81846002C08A818B7F2F
:1007E0008A83612F81E00E946F01882319F08A813A
:1007F000886002C08A81877F8A83612F85E00E949A
:100800006F01882319F08A81806102C08A818F7EFE
:100810008A83612F84E00E946F01882319F08A8106
:10082000806202C08A818F7D8A83612F86E00E9468
:100830006F01882319F08A81806402C08A818F7BCE
:100840008A83612F87E00E946F01882319F08A81D3
:10085000806802C08A818F778A83612F8DE00E9431
:100860006F01882311F00C8301C01C82612F8CE082
:100870000E946F01882311F00D8301C01D82612F3A
:100880008EE00E946F01882311F00E8301C01E824A
:10089000612F8FE00E946F01882311F00F8301C048
:1008A0001F82612F8AE00E946F01882311F009875F
:1008B00001C01986612F8BE00E946F01882311F01F
:1008C000088701C01886612F88E00E946F018A871F
:1008D000612F89E00E946F018B87612F80E00E9469
:1008E000A9019D878C87612F81E00E94A9019F87C4
:1008F0008E87612F82E00E94A901998B888B612FDE
:1009000083E00E94A9019B8B8A8B0E94340D4F8C3F
:1009100058A069A07AA0DC01CB0184199509A60929
:10092000B7090997A105B10508F45AC0612F80E104
:100930000E946F01882391F18B8D9C8DAD8DBE8DB2
:10094000892B8A2B8B2B31F40E94340D6B8F7C8F7B
:100950008D8F9E8F0E94340D4B8C5C8C6D8C7E8CA9
:10096000DC01CB0184199509A609B709893E93409A
:10097000A105B105A8F10E94340D4B8C5C8C6D8CE7
:100980007E8CDC01CB0184199509A609B7098C344A
:100990009440A105B10508F4E2C022C0612F85E0B2
:1009A0000E946F01882309F4F0C0612F84E00E9447
:1009B0006F01882309F4E9C08A85882309F4E5C01A
:1009C0008B85882309F4E1C0412F60E080E00E941C
:1009D000D7010E94340D6F8F78A389A39AA31E8A32
:1009E000112309F45DC0612F8AE797E00E94620C31
:1009F00044E150E0BE018AE797E00E94DC0B61E031
:100A00008AE797E00E946C0C42E0612F8AE797E04A
:100A10000E94E30C823059F58AE797E00E94B90BF7
:100A20008F3FFFEF9F0769F0AC0155274F3F5105FE
:100A300041F02C8930E04217530719F08C8B81E08C
:100A40008E8B8AE797E00E94B90B8F3F2FEF9207BA
:100A500039F1AC0155274F3F510511F12D8930E097
:100A600042175307E9F08D8B81E08E8B19C08AE71E
:100A700097E00E94380C14C0112391F0612F8AE78F
:100A800097E00E94620C42E050E060E071E08AE78B
:100A900097E00E94DC0B61E08AE797E00E946C0C13
:100AA0000E9496308091E4009091E50020911C0115
:100AB00030911D01821B930B049720F082E191E09D
:100AC0000E94382B1F5F4FEFA41AB40AA39682E04E
:100AD000C80ED11C92E0890E911CAFEFEA1AFA0AF7
:100AE000143009F049CE8091370581110EC0E09194
:100AF0000A01F0910B018281811107C0E09102018E
:100B0000F09103018481882371F08091E0008E7F51
:100B10008093E0008091DB07882371F060E081E141
:100B20000E947B0E09C061E081E10E947B0E8091F2
:100B3000E00081608093E0008091E4009091E50006
:100B400020911C0130911D01821B930B049720F012
:100B500082E191E00E94382B0E949630F2CD1A82F9
:100B6000412F60E080E00E94D7016AE070E080E001
:100B700090E00E94650DF5018381882399F0612F33
:100B800084E395E00E9413250DC01B8E1C8E1D8EE4
:100B90001E8E8E89813069F4412F6D898C890E9467
:100BA000D7011E8A0E94340D6F8F78A389A39AA360
:100BB00017CFD7018C918B3FC1F08C3F51F18A3F09
:100BC00009F04CC0F5018381882329F0612F84E36B
:100BD00095E00E944525D6018D919C91FC012481D0
:100BE000222361F00E94562009C0F50183818823E9
:100BF00029F0612F84E395E00E945C250E94340D6A
:100C00006F8F78A389A39AA3D7018C918F5F8C9360
:100C1000E7CEF60180819181DC0114962C91149726
:100C2000222371F017962D913C9118972F363E4054
:100C300039F40E947320F601808191810E949920ED
:100C4000612F81E0810F0E941A020E94340D6F8F84
:100C500078A389A39AA3D7011C92C2CE8F5FF70114
:100C60008083BECEFC01918D228D892F90E0805C27
:100C70009F4F821B91098F7399270895FC01918DD5
:100C8000828D981731F0828DE80FF11D858D90E0EF
:100C900008958FEF9FEF0895FC01918D828D981735
:100CA00061F0828DDF01A80FB11D5D968C91928D50
:100CB0009F5F9F73928F90E008958FEF9FEF08954D
:100CC000FC01538D448D252F30E0842F90E0821B52
:100CD000930B541710F0CF96089501970895FC01D7
:100CE000848DDF01A80FB11DA35ABF4F2C91848DB5
:100CF00090E001968F739927848FA689B7892C93EA
:100D0000A089B1898C9180648C93938D848D981384
:100D100006C00288F389E02D80818F7D808308954D
:100D2000EF92FF920F931F93CF93DF93EC0181E03B
:100D3000888F9B8D8C8D981305C0E889F9898081F7
:100D400085FD24C0F62E0B8D10E00F5F1F4F0F7333
:100D50001127E02E8C8DE8120CC00FB607FCFACFDD
:100D6000E889F989808185FFF5CFCE010E946F0661
:100D7000F1CF8B8DFE01E80FF11DE35AFF4FF0829A
:100D80000B8FEA89FB898081806207C0EE89FF8929
:100D90006083E889F98980818064808381E090E0C4
:100DA000DF91CF911F910F91FF90EF900895CF9316
:100DB000DF93EC01888D8823C9F0EA89FB89808163
:100DC00085FD05C0A889B9898C9186FD0FC00FB635
:100DD00007FCF5CF808185FFF2CFA889B9898C9176
:100DE00085FFEDCFCE010E946F06E7CFDF91CF9157
:100DF0000895CF92DF92EF92FF921F93CF93DF93EC
:100E0000EC016A017B01122FE889F98982E0808375
:100E10004115514E61057105B1F060E079E08DE357
:100E200090E0A70196010E94CB31DA01C901019738
:100E3000A109B109B695A795979587959C012115AC
:100E400080E13807A8F0E889F989108260E874E841
:100E50008EE190E0A70196010E94CB31DA01C90131
:100E60000197A109B109B695A795979587959C011A
:100E7000EC85FD853083EE85FF852083188EEC8917
:100E8000FD891083EA89FB89808180618083EA89FA
:100E9000FB89808188608083EA89FB898081806802
:100EA0008083EA89FB8980818F7D8083DF91CF9168
:100EB0001F91FF90EF90DF90CF90089580E090E039
:100EC00008951F920F920FB60F9211242F938F93B4
:100ED0009F93EF93FF93E0917B06F0917C068081D6
:100EE000E0918106F091820682FD12C0908180918E
:100EF00084068F5F8F7320918506821751F0E091F1
:100F00008406F0E0E559F94F958F8093840601C07F
:100F10008081FF91EF919F918F912F910F900FBE44
:100F20000F901F9018951F920F920FB60F921124D9
:100F30002F933F934F935F936F937F938F939F93E1
:100F4000AF93BF93EF93FF938BE696E00E946F06FB
:100F5000FF91EF91BF91AF919F918F917F916F9191
:100F60005F914F913F912F910F900FBE0F901F9067
:100F70001895EBE6F6E01382128288EE93E0A0E08B
:100F8000B0E084839583A683B7838DE491E0918359
:100F900080838DEC90E0958784878CEC90E0978738
:100FA000868788EC90E0918B808B89EC90E0938B26
:100FB000828B8AEC90E0958B848B8EEC90E0978B03
:100FC000868B118E128E138E148E08950895CF92F3
:100FD000DF92EF92FF920F931F93CF93DF936C01F9
:100FE0007A018B01C0E0D0E0CE15DF0581F0D80199
:100FF0006D918D01D601ED91FC910190F081E02D74
:10100000C6010995892B11F02196EECF7E01C7010B
:10101000DF91CF911F910F91FF90EF90DF90CF90D4
:1010200008956115710579F0FB0101900020E9F741
:101030003197AF01461B570BDC01ED91FC9102800B
:10104000F381E02D099480E090E00895EF92FF9203
:101050000F931F93CF93DF938C017B01C0E0D0E00F
:10106000F701EC0FFD1F6491662361F0D801ED914B
:10107000FC910190F081E02DC8010995892B11F0B8
:101080002196EECFCE01DF91CF911F910F91FF906E
:10109000EF900895DC01ED91FC910190F081E02D3D
:1010A00009948F929F92AF92BF92EF92FF920F930B
:1010B0001F93CF93DF93CDB7DEB7A1970FB6F89408
:1010C000DEBF0FBECDBF7C01FA01CB0119A22230D9
:1010D00008F42AE08E010F5D1F4F822E912CA12C67
:1010E000B12CBF01A50194010E94CB31F901CA01C5
:1010F000015011096A3010F4605D01C0695CD801CB
:101100006C93232B242B252B61F7B801C7010E9478
:101110001108A1960FB6F894DEBF0FBECDBFDF91C8
:10112000CF911F910F91FF90EF90BF90AF909F9044
:101130008F900895CF92DF92EF92FF920F931F93BB
:10114000CF93DF932115310581F4DC01ED91FC9102
:101150000190F081E02D642FDF91CF911F910F91CD
:10116000FF90EF90DF90CF9009942A30310501F580
:1011700077FF1DC06A017B01EC016DE20E944A0805
:101180008C0144275527BA014C195D096E097F0966
:101190002AE0CE010E945108800F911FDF91CF916C
:1011A0001F910F91FF90EF90DF90CF9008952AE06C
:1011B000DF91CF911F910F91FF90EF90DF90CF9033
:1011C0000C9451089A01AB01770F660B770B0C94C6
:1011D0009A08CF93DF93CCEBD0E018821092790776
:1011E00081E0809377071092760761E082E00E94A9
:1011F0007B0E61E083E00E947B0EE9EBF0E08081F2
:101200008E7F808380818D7F808388E48093B80087
:1012100085E48883DF91CF910895813049F410925D
:1012200008071092090710920A0710920B0717C0BF
:101230008091080790910907A0910A07B0910B07C8
:101240000196A11DB11D8093080790930907A093F3
:101250000A07B0930B0784E690E00E94A10D8091ED
:10126000080790910907A0910A07B0910B078035F4
:101270009105A105B10580F01092080710920907A9
:1012800010920A0710920B070E94E90861E081E1C1
:101290000E947B0E81E0089580E008959B01AC01DF
:1012A00060E074E284EF90E00E94CB31DA01C90182
:1012B0004097A109B109B695A79597958795809311
:1012C000B8000895FF920F931F93CF93DF93D82F09
:1012D000162F072FC42FF22E413208F054C081E0A0
:1012E0000E940D0980917907882329F080E00E94EF
:1012F0000D098823B9F381E080937907F09277078D
:101300009FEF90930C07109251079C0F90935007FA
:101310008093780780917807DD0FD82BD0937807DA
:1013200080917607813061F410927607809178077A
:101330008093BB008091BC0083FDF8CF85EC01C099
:1013400085EE8093BC0081E00E940D0980917907B1
:10135000813029F480E00E940D098823B9F380913F
:1013600051078C1710F4C0915107A2E5B7E0912FF7
:10137000E12FF02F8E2F891B8C1718F48D918193FC
:10138000F9CF8C2F01C080E0DF91CF911F910F9199
:10139000FF900895DF92EF92FF920F931F93CF93E8
:1013A000DF93413208F062C0D22E142FE72EF62EC2
:1013B000D82F81E00E940D09C0917907CC2331F02C
:1013C00080E00E940D0981114FC0F6CF82E080932A
:1013D0007907009377078FEF80930C0710925107DE
:1013E000109350079F2DA2E5B7E0EF2DFE2D8E2F15
:1013F000891B811718F481918D93F9CF109278078A
:1014000080917807DD0FD82BD093780780917607ED
:10141000813061F410927607809178078093BB0049
:101420008091BC0083FDF8CF85EC01C085EE8093F0
:10143000BC0081E00E940D09DD2051F08091790708
:10144000823031F480E00E940D0981110DC0F4CF8B
:1014500080910C078F3F79F080910C07803241F02A
:1014600080910C07803331F0C4E005C0C1E003C0B7
:10147000C2E001C0C3E08C2FDF91CF911F910F918B
:10148000FF90EF90DF90089540912E07262F30E0D7
:10149000240F311D21323105DCF4209179072430ED
:1014A000C9F4FC0180E090E0861758F430912E07D3
:1014B0002191DC01A05DB84FA30FB11D2C930196C3
:1014C000F3CF80912E07680F60932E0780E0089578
:1014D00081E0089582E0089585ED8093BC0081E06D
:1014E0000E940D098091BC0084FF05C080E00E942D
:1014F0000D098823B9F310927907089585EC80933C
:10150000BC001092790708951F920F920FB60F92A8
:1015100011242F933F934F935F936F937F938F93F8
:101520009F93AF93BF93EF93FF938091B900887F10
:10153000803609F49EC078F5883209F45DC090F4D5
:10154000803109F456C038F4882309F4F5C0883096
:1015500009F44FC0F5C0883109F44EC0803209F457
:101560005FC0EEC0803409F46AC058F4803309F4D7
:1015700057C0883309F0E4C080930C070E947E0AAC
:10158000DFC0803509F44FC0883509F45DC0883468
:1015900009F0D6C0D3C0883909F4C4C0A8F488378C
:1015A00009F467C038F4883609F463C0803709F459
:1015B00060C0C6C0883809F4B5C0803909F45FC07E
:1015C000803809F0BDC05BC0803B09F483C038F4AB
:1015D000803A09F466C0883A09F47CC0B1C0803C06
:1015E00009F4A4C0883C09F4A1C0883B09F487C071
:1015F000A7C08091780710C0909151078091500743
:10160000981770F5E091510781E08E0F8093510794
:10161000F0E0EE5AF84F80818093BB0085EC83C0E8
:1016200080930C078BC0E091510781E08E0F80936F
:1016300051078091BB00F0E0EE5AF84F8083909103
:101640005107809150076BC0E091510781E08E0FE8
:10165000809351078091BB00F0E0EE5AF84F8083F1
:101660008091770781116AC081E08093760784EAD0
:101670005EC083E08093790710920D07CFCF8091F1
:101680000D07803208F04EC0E0910D0781E08E0F0B
:1016900080930D078091BB00F0E0E25FF84F8083FC
:1016A000BDCF0E947E0A80910D07803230F4E09118
:1016B0000D07F0E0E25FF84F108260910D0770E0D7
:1016C000E0917207F09173078EE097E00995109210
:1016D0000D0736C084E08093790710922F0710928F
:1016E0002E07E0917407F0917507099580912E07F8
:1016F000811105C081E080932E0710923007E091A0
:101700002F0781E08E0F80932F07F0E0E05DF84F08
:1017100080818093BB0090912F0780912E079817AE
:1017200008F47CCF85E88093BC000AC085EC8093E8
:10173000BC001092790704C010920C070E946C0A3A
:10174000FF91EF91BF91AF919F918F917F916F9199
:101750005F914F913F912F910F900FBE0F901F906F
:1017600018958091AA0790E02091AB07821B910900
:1017700008959091AB078091AA07981750F4E92F2C
:10178000F0E0E455F84F208130E09F5F9093AB0785
:1017900002C02FEF3FEFC9010895E091AB078091A0
:1017A000AA07E81730F4F0E0E455F84F808190E0A4
:1017B00008958FEF9FEF0895CF92DF92EF92FF92FF
:1017C0000F931F93CF93DF937C01CB018A0120916C
:1017D0008607222389F0EB016B01C40ED51ECC15C0
:1017E000DD0569F06991D701ED91FC910190F081DF
:1017F000E02DC7010995F3CF642F0E94440AC80168
:10180000DF91CF911F910F91FF90EF90DF90CF90DC
:101810000895CF93DF931F92CDB7DEB769832091F0
:1018200086072223D1F020918707203240F021E063
:1018300030E0FC013383228380E090E015C080918A
:101840008807E82FF0E0E757F84F998190838F5F82
:10185000809388078093870705C061E0CE010196D9
:101860000E94440A81E090E00F90DF91CF910895AB
:101870001092AB071092AA0780E2ECEAF7E0DF01D2
:101880001D928A95E9F70895FC011382128288EE71
:1018900093E0A0E0B0E084839583A683B7838FE5CF
:1018A00091E09183808308951092AB071092AA076C
:1018B00010928807109287070C94E908CB01BA01AF
:1018C0000C944E0981E0809386076093A9071092DB
:1018D00088071092870708950F93062F21E0409103
:1018E000870769E877E08091A9070E94CA091092EA
:1018F000880710928707109286070F9108954F92DC
:101900005F926F927F92AF92BF92CF92EF92FF92CF
:101910000F931F93CF93DF935C01F62ED42F2801F2
:101920003901EE2021F10E94620CCE2DC43008F066
:10193000C3E0C150C0F028E0C29FC0011124A30140
:10194000920104C056954795379527958A95D2F709
:10195000CA01B901D501ED91FC910190F081E02D12
:10196000C5010995E6CF60E0C5010E946C0C4D2FC2
:10197000D13208F040E22C2D6CEA77E08F2D0E94E6
:1019800062091092AB078093AA07DF91CF911F9154
:101990000F91FF90EF90CF90BF90AF907F906F909E
:1019A0005F904F900895CF92EF920F931F93C22EA6
:1019B000E12C00E010E098010E947F0C1F910F9134
:1019C000EF90CF90089521E00C94D30C8AE797E034
:1019D0000C94440C1F920F920FB60F9211242F9368
:1019E0003F938F939F93AF93BF938091CD07909137
:1019F000CE07A091CF07B091D0073091CC0723E05C
:101A0000230F2D3720F40196A11DB11D05C026E836
:101A1000230F0296A11DB11D2093CC078093CD0703
:101A20009093CE07A093CF07B093D0078091D107B2
:101A30009091D207A091D307B091D4070196A11D30
:101A4000B11D8093D1079093D207A093D307B09391
:101A5000D407BF91AF919F918F913F912F910F909C
:101A60000FBE0F901F9018952FB7F8946091CD0777
:101A70007091CE078091CF079091D0072FBF089526
:101A80003FB7F8948091D1079091D207A091D307E6
:101A9000B091D40726B5A89B05C02F3F19F0019639
:101AA000A11DB11D3FBFBA2FA92F982F8827820FE4
:101AB000911DA11DB11DBC01CD0142E0660F771F34
:101AC000881F991F4A95D1F708958F929F92AF92E0
:101AD000BF92CF92DF92EF92FF926B017C010E9446
:101AE000400D4B015C01C114D104E104F10401F18A
:101AF0000E94E6070E94400DDC01CB01881999097C
:101B0000AA09BB09883E9340A105B10560F321E015
:101B1000C21AD108E108F10888EE880E83E0981E09
:101B2000A11CB11CC114D104E104F10419F7DBCFED
:101B3000FF90EF90DF90CF90BF90AF909F908F90ED
:101B400008958230910538F0880F991F880F991FEA
:101B500005970197F1F70895789484B5826084BD64
:101B600084B5816084BD85B5826085BD85B58160A1
:101B700085BDEEE6F0E0808181608083E1E8F0E001
:101B80001082808182608083808181608083E0E830
:101B9000F0E0808181608083E1E9F0E08081826013
:101BA0008083808181608083E0E9F0E080818160D2
:101BB0008083E1ECF0E080818460808380818260BA
:101BC0008083808181608083E3ECF0E080818160AC
:101BD0008083E0ECF0E0808182608083E2ECF0E0E2
:101BE000808181608083EAE7F0E080818460808387
:101BF0008081826080838081816080838081806831
:101C00008083089590E0FC013197EF30F105B0F545
:101C1000EA5AFF4F0C94ED31809180008F7703C01A
:101C2000809180008F7D8093800008958091800056
:101C3000877FF9CF84B58F7702C084B58F7D84BD4F
:101C40000895809190008F7707C0809190008F7DDC
:101C500003C080919000877F8093900008958091C9
:101C6000C0008F7703C08091C0008F7D8093C0003B
:101C700008958091C200877F8093C2000895CF931A
:101C8000DF9390E0FC01EE58FE4F2491FC01EF56EB
:101C9000FE4F8491882361F190E0880F991FFC0129
:101CA000E453FE4FC591D491FC01E254FE4FA5913F
:101CB000B491611109C09FB7F8948881209582235F
:101CC0008883EC912E230BC0623061F49FB7F894A7
:101CD0008881322F309583238883EC912E2B2C938F
:101CE0009FBF06C08FB7F894E8812E2B28838FBF43
:101CF000DF91CF9108951F93CF93DF93282F30E08A
:101D0000F901ED5AFE4F8491F901EE58FE4FD4913E
:101D1000F901EF56FE4FC491CC23C1F0162F81116B
:101D20000E94020EEC2FF0E0EE0FFF1FE254FE4F78
:101D3000A591B4919FB7F894111104C08C91D095DE
:101D4000D82302C0EC91DE2BDC939FBFDF91CF91B3
:101D50001F910895CF93DF93282F30E0F901ED5ABA
:101D6000FE4F8491F901EE58FE4FD491F901EF56E0
:101D7000FE4FC491CC2391F081110E94020EEC2FF2
:101D8000F0E0EE0FFF1FE055FE4FA591B491EC91EE
:101D9000ED2381E090E021F480E002C080E090E05B
:101DA000DF91CF910895CF93DF93FC01EB01808108
:101DB0009181892B21F18281882319F1DA012D91FA
:101DC0003C91232BE1F0A881B9819C91A381B0E0E3
:101DD000A81BB10920813181A20FB31F9C9382817E
:101DE00081508283DA018D919C91119701978D9397
:101DF0009C9388819981019699838883DCCF80E0C8
:101E000003C08381828381E0DF91CF910895CF93D6
:101E1000DF93FC01862F8078A9F4283008F04DC0AC
:101E2000442321F09581973009F447C0EF01A1E0E8
:101E3000B0E09D85992341F011962596A031B1051A
:101E4000C1F73BC080E039C061111CC085E08A9FAA
:101E5000E0018B9FD00D1124CE0FDF1F442331F002
:101E600081E4888785818F5F858302C081E08887D0
:101E700025E02A9FC0012B9F900D1124E80FF91F28
:101E800080851BC06770660F660F660F442341F0A4
:101E9000606485818F5F85838770687F682B03C04E
:101EA0002770687B622B25E02A9FC0012B9F900D35
:101EB0001124E80FF91F6087862FDF91CF910895D5
:101EC000611102C006960895FC0121E03585631773
:101ED00039F02F5F35962031C9F780E090E0089502
:101EE000069635E0239F800D911D11240895DF9201
:101EF000EF92FF920F931F93CF93DF93EC01E62EA7
:101F0000F12C85E0689FB0011124FE01E60FF71F58
:101F10008085182F177086FF17C001E085E0D82E46
:101F2000FE01D09EE00DF11D1124808586958695D9
:101F3000869587701817F9F00F5F003189F78D814A
:101F4000811302C011501D8385E08E9DF0018F9D8D
:101F5000F00D1124EC0FFD1F108681E081871286A1
:101F60002296D783C683DF91CF911F910F91FF9067
:101F7000EF90DF900895602FCE010E94770FD0CFB1
:101F8000FC01613499F49C01255B3F4F61E0AC0199
:101F90004E5F5F4F15866687178654874387359651
:101FA000E217F307B9F7FC011582089521E03585A2
:101FB000631729F02F5F35962031C9F70895622FF6
:101FC0000C94770FFC0181E791E091838083158267
:101FD000108681E081871286CF01029697838683DF
:101FE000128228E023832CE32483DF019F01255BF9
:101FF0003F4F41E01D961C921D971E964C931E97D5
:102000001F961C921F971C969C938E931B97159658
:10201000A217B30779F7EA58FF4F108281E1809346
:10202000D9070895CF93C42F0E94600F009789F0BD
:10203000DC01ED91FC911197309759F013969C912A
:1020400080E0891731F020812C1731F033968F5FB3
:10205000F8CF80E090E001C0CF01CF9108950F93B9
:102060001F93CF93DF932115310571F0E901042F00
:10207000162F0E94600FFC01892B41F01283D1833F
:10208000C083038380E003C088ED01C086EDDF914B
:10209000CF911F910F910895CF92DF92FF920F93EE
:1020A0001F93CF93DF93662381F1F62E8C016C0191
:1020B00086E5C80ED11CC0E0D0E0D6018D919D917F
:1020C0006D010097F1F0DC01ED91FC910084F18548
:1020D000E02D0995F81215C0AB96CC0FDD1FC00F8F
:1020E000D11F88819981DC01ED91FC910480F581FB
:1020F000E02DDF91CF911F910F91FF90DF90CF9056
:1021000009942196C031D105C1F680E0DF91CF91CD
:102110001F910F91FF90DF90CF9008952E98089512
:10212000CF93C82F0E948E10CEBD0DB407FEFDCFF9
:102130001EBC0DB407FEFDCF0E9438028EB5CF91B4
:102140000895CF93DF93C82FD62F0E948E10C260C0
:10215000CEBD0DB407FEFDCFDEBD0DB407FEFDCF35
:10216000DF91CF910C9438028F929F92AF92BF92E1
:10217000CF92DF92EF92FF920F931F93CF93DF9353
:10218000EC01D62EC42E59010E94600F7C010097ED
:1021900009F445C0FC0180819181892B09F441C07B
:1021A0004C2D6D2DCE010E941210F501918380837C
:1021B0000097C9F1FC0182818695869590E0803177
:1021C000910514F08FE090E041E050E060E070E0B5
:1021D0004A015B0104C0880C991CAA1CBB1C8A958F
:1021E000D2F7D501C4010197F801918380836D2D49
:1021F00080EE0E94A11088ED0E949010F70194815A
:10220000992331F0CA58DF4F68816260682B02C0A1
:10221000682F697F88ED0E94A11080E005C086EDDF
:1022200003C087ED01C08BEDDF91CF911F910F911E
:10223000FF90EF90DF90CF90BF90AF909F908F90E6
:1022400008958F929F92AF92BF92CF92DF92EF92BA
:10225000FF920F931F93CF93DF93862E942E5901F5
:102260000E94340D6B017C0128E8C20E23E1D21ECE
:10227000E11CF11C00E010E0D0E0C0E098280E94D2
:10228000340DDC01CB018C199D09AE09BF09B7FFE4
:102290002DC0692D80EF0E94A1100E94340DDC0139
:1022A000CB018C199D09AE09BF09B7FF09C088ECA5
:1022B0000E94901087FFF1CF60E888EC0E94A11087
:1022C00088EF0E949010C82FCF70C43019F0CE3024
:1022D00051F00CC00F5F1F4FA114B10481F20A1519
:1022E0001B0569F603C0DF5FD33049F68C2FDF9101
:1022F000CF911F910F91FF90EF90DF90CF90BF9003
:10230000AF909F908F9008959F92AF92BF92CF927F
:10231000DF92EF92FF920F931F93CF93DF937C0195
:10232000D42F122F902E00E06C01C60ED11CC60EC9
:10233000D11C86E5C80ED11CA42EB12CABE2AA0E8E
:10234000B11CAA0CBB1CAE0CBF1CF6018081918194
:10235000DC01ED91FC910280F381E02D292D412FCC
:102360006D2F0995803EC9F4D1110BC061E088EE54
:102370000E94A11066E670E080E090E00E94650D8A
:1023800014C0F50180819181DC01ED91FC91028402
:10239000F385E02D612F099508C08D3021F40330BD
:1023A00008F03FC014C081113FC0F60180819181C7
:1023B000DC01ED91FC910190F081E02D292D412F60
:1023C0006D2F0995C82F8D3051F4033050F464E619
:1023D00070E080E090E00E94650D0F5FB6CF88232B
:1023E00011F1D1110BC061E088EE0E94A11066E6E8
:1023F00070E080E090E00E94650D11C0ED2FF0E0EC
:10240000BB96EE0FFF1FEE0DFF1D80819181DC0159
:10241000ED91FC910284F385E02D612F09958C2FBD
:1024200003C08DE001C080E0DF91CF911F910F913B
:10243000FF90EF90DF90CF90BF90AF909F90089566
:102440000F931F93CF93DF93182F062FEA010E945B
:102450008E1012601EBDFE01802F882339F00DB44E
:1024600007FEFDCF91919EBD8150F7CFC00FD11DCA
:102470000DB407FEFDCF0E943802CE01DF91CF914F
:102480001F910F9108952F923F924F925F926F92FA
:102490007F928F929F92AF92BF92CF92DF92EF92F4
:1024A000FF920F931F93CF93DF9300D000D01F9222
:1024B000CDB7DEB77D836C834A016901FB01F180F2
:1024C0008FEF8F0D803408F074C00E94340D2B0103
:1024D0003C01F8E84F0EF3E15F1E611C711CEC81BA
:1024E000FD81828180FD02C060E401C060E888EE69
:1024F0000E94A110312C8F2D90E09A838983C11402
:10250000D10409F448C0E980FA80CE14DF0408F44D
:102510007601EB82A8016E2D80E10E9420126E2DC3
:1025200088E30E94A110EC81FD816081606280EFF0
:102530000E94A11088EC0E94901087FFFBCF60E8FA
:1025400088EC0E94A11088EF0E9490108F70382EA6
:10255000A12CB12C212C332009F46BC00E94340D26
:10256000DC01CB0184199509A609B709B7FF61C041
:10257000F6E03F1601F12EE0321609F455C084E072
:10258000381209C0FFEFAF1ABF0A8114910449F154
:10259000A814B90431F588EF0E94901085FB8827B4
:1025A00080F9EC81FD81928180FB90F99283832DEB
:1025B00045C08AED43C088EF0E94901085FB8827B4
:1025C00080F991E08927EC81FD81928180FB90F96F
:1025D000928390FD02C060E401C060E888EE0E9432
:1025E000A11060E088E30E94A110F801608180E101
:1025F0000E94A1106B8188E30E94A110EC81FD81F3
:102600006081606280EF0E94A11088EC0E949010AF
:1026100087FFFBCF60E888EC0E94A11088EF0E9442
:1026200090108F70382E97CF239423E02212D9CFA9
:10263000B2CFCE18DF080E0D1F1D61CF0F900F9087
:102640000F900F900F90DF91CF911F910F91FF90FE
:10265000EF90DF90CF90BF90AF909F908F907F9042
:102660006F905F904F903F902F900895AF92BF92E0
:10267000CF92DF92EF92FF920F931F93CF93DF934E
:1026800000D000D0CDB7DEB77C01690158011C82B3
:102690001B821A8219828E010F5F1F4F9E012D5FD0
:1026A0003F4F0E94B410811109C049815A816B814A
:1026B0007C8185019601C7010E9443120F900F9003
:1026C0000F900F90DF91CF911F910F91FF90EF909E
:1026D000DF90CF90BF90AF9008952F923F924F928E
:1026E0005F926F927F928F929F92AF92BF92CF92A2
:1026F000DF92EF92FF920F931F93CF93DF93CDB7AB
:10270000DEB72A970FB6F894DEBF0FBECDBF1C010F
:102710006B015B834A835901D9016D907C901197BD
:10272000FB01F181F9831D921C92DB0112968C91C1
:1027300081FD02C060E101C060E288EE0E94A1104C
:102740008E2D90E0A0E0B0E08C839D83AE83BF83AC
:1027500068862A813B81D6014C9160E0C1010E94CC
:102760002111F82EB6E08B1318C088EF0E9490104C
:1027700082958170E1E08E27D60112969C91129786
:1027800080FB91F912969C9391FD02C060E101C01B
:1027900060E288EE0E94A110DCCF811167C088EC56
:1027A0000E94901082FF60C080E30E949010582E1B
:1027B00090E06816790608F45884F50180819181CB
:1027C0009301281B390B3A87298737FF02C01A86E5
:1027D0001986852C912C89859A858816990614F47A
:1027E0009A86898649840E948E1098E09EBD0DB419
:1027F00007FEFDCFF801442041F01EBC4A940DB401
:1028000007FEFDCF8EB58193F6CFA985BA850A0F55
:102810001B1F0E94380264E088EC0E94A110F501A1
:1028200080819181880E991E91828082F9815F1644
:1028300018F08614970470F088EF0E94901082952B
:102840008170D60112969C91129780FB91F9129695
:102850009C930CC0EE2009F47CCF6C817D818E812D
:102860009F810E94650D75CF80EFF82E8F2D2A96DF
:102870000FB6F894DEBF0FBECDBFDF91CF911F9191
:102880000F91FF90EF90DF90CF90BF90AF909F900F
:102890008F907F906F905F904F903F902F90089512
:1028A0002F923F924F925F926F927F928F929F9260
:1028B000AF92BF92CF92DF92EF92FF920F931F934E
:1028C000CF93DF93CDB7DEB761970FB6F894DEBF35
:1028D0000FBECDBF3C01F42E322E202EC98A4EA051
:1028E0005FA0C8A4D9A4188A1F861E861D868E01E3
:1028F000035F1F4F9E01215F3F4F0E94B410811163
:1029000096C039822A82EB8289898C83BE82AD820D
:1029100098868F82AE014F5F5F4F68E080E20E9431
:1029200020122D853E854F2D60E1C3010E942111AB
:10293000E82E811178C0932D9078392EC114D104DE
:1029400009F462C0EF85F8898281992309F44DC0AA
:1029500082608283540122242394A114B10409F4D7
:1029600058C05C864B864D855E856F857889E12CE5
:1029700086019E01255F3F4FC3010E946D13E82E23
:10298000A6E08A130FC00F85188988EF0E94901067
:1029900085FB882780F98225F801928180FB91F9D7
:1029A0009283DBCF81113FC08AA59BA50097A1F040
:1029B000DC01ED91FC9111970190F081E02DC401B3
:1029C0008A199B099A8789876B857C859E01275F79
:1029D0003F4FA601CD0109958B859C85A81AB90AA0
:1029E0008415950508F0B9CF0FC0816082834D85AD
:1029F0005E8586019201BF01C3010E9443128111CD
:102A000016C02D853E8511C02D853E85311005C02F
:102A10000CC0E11008C02D853E8560EA4F2DC30132
:102A20000E94211104C08E2D02C060E8F7CF61968C
:102A30000FB6F894DEBF0FBECDBFDF91CF911F91CF
:102A40000F91FF90EF90DF90CF90BF90AF909F904D
:102A50008F907F906F905F904F903F902F90089550
:102A60008F929F92AF92BF92CF92EF920F931F934C
:102A70001F921F921F930F933F932F934901A12CF5
:102A8000B12CCC24C394E12C06E020E80E94501421
:102A90000F900F900F900F900F900F901F910F912C
:102AA000EF90CF90BF90AF909F908F9008958F92AE
:102AB0009F92AF92BF92CF92EF92FF920F931F928D
:102AC0001F92FF92EF923F932F934901A12CB12CBB
:102AD00022E0C22EE02E06E020E80E9450140F9063
:102AE0000F900F900F900F900F900F91FF90EF901D
:102AF000CF90BF90AF909F908F9008954F925F922C
:102B00006F927F928F929F92AF92BF92CF92DF92FD
:102B1000EF92FF920F931F93CF93DF93CDB7DEB762
:102B2000C054D1090FB6F894DEBF0FBECDBF3C0133
:102B3000D62E542E422EC02ECE0101965C017C0171
:102B4000022F29E030E0C3010E94571581111BC0FC
:102B50008B809C801F93CF92BF92AF921F9280E494
:102B60008F93A12CB12C82E0C82EE42C06E020E843
:102B7000452D6D2DC3010E9450140F900F900F90A2
:102B80000F900F900F90C05CDF4F0FB6F894DEBF30
:102B90000FBECDBFDF91CF911F910F91FF90EF90AE
:102BA000DF90CF90BF90AF909F908F907F906F906D
:102BB0005F904F9008958F929F92AF92BF92CF9265
:102BC000EF920F93CF931F921F921F921F921F920B
:102BD0001F92812C912CA12CB12CC12CE22E05E04E
:102BE00020E00E945014C82F6CE271E080E090E079
:102BF0000E94650D0F900F900F900F900F900F9007
:102C00008C2FCF910F91EF90CF90BF90AF909F906E
:102C10008F9008950F931F93CF93DF938A3F3FEFD9
:102C2000930711F486ED2DC0DC011696ED91FC9111
:102C30001797EF2B09F1122F242FEC011A8740E090
:102C40000E94070F082F8823C9F0682FCE010E9429
:102C5000600F009739F3FC011483202F40E060E0FF
:102C6000CE010E94DB15182F882351F0602FCE0172
:102C70000E94C00F812F05C087ED03C084ED01C005
:102C800080E0DF91CF911F910F9108952F923F9295
:102C90004F925F926F927F928F929F92AF92BF926C
:102CA000CF92DF92EF92FF920F931F93CF93DF9318
:102CB000CDB7DEB766970FB6F894DEBF0FBECDBFB7
:102CC0001B8A38E03C8B3CE33D8B8A3F3FEF930708
:102CD00009F464C0522E342E462E7C01DC01169677
:102CE000CD90DC901797CE01439617969C938E93C8
:102CF00016971A962C938E010F5F1F4F22E130E03A
:102D000040E060E0C7010E943015F701D782C6821B
:102D10008111A6C089849A846B847C84FD81FE8B9A
:102D20002E80670136E5C30ED11C560110E0D50197
:102D30008D919C910097F1F1DC01ED91FC91008463
:102D4000F185E02D0995811135C0F50180819181D2
:102D5000DC01ED91FC910088F189E02D622D09954F
:102D6000882341F1F50180819181DC01ED91FC9195
:102D70000484F585E02DA301B4010995811110C0EB
:102D8000F50180819181DC01ED91FC910684F7854C
:102D9000E02D6E890995811103C00CC086ED60C0DD
:102DA000052D232D442D612FC7010E948411813DE3
:102DB00009F056C01F5FB2E0AB0EB11C103109F034
:102DC000B6CF10E0F601808191810097E1F1DC013E
:102DD000ED91FC910084F185E02D0995811133C0BE
:102DE000F60180819181DC01ED91FC910088F189EF
:102DF000E02D622D09958823D9F0F601808191811B
:102E0000DC01ED91FC910484F585E02DA301B40172
:102E10000995811118C0F60180819181DC01ED9145
:102E2000FC910684F785E02D6E89099581110BC010
:102E3000052D232D442D612FC7010E948411982F49
:102E4000977F913D69F41F5FE2E0CE0ED11C1031F7
:102E500009F0B8CF252D432D642DC7010E940A1615
:102E600066960FB6F894DEBF0FBECDBFDF91CF914F
:102E70001F910F91FF90EF90DF90CF90BF90AF9098
:102E80009F908F907F906F905F904F903F902F908A
:102E900008958F929F92AF92BF92CF92EF920F932D
:102EA0001F921F921F921F921F921F92812C912C92
:102EB000A12CB12CC12CE22E09E020E00E9450147C
:102EC0000F900F900F900F900F900F900F91EF9029
:102ED000CF90BF90AF909F908F9008958F929F92C8
:102EE000AF92BF92CF92DF92EF920F931F93CF9347
:102EF000DF9300D000D0CDB7DEB76C015901480197
:102F00001C821B821A8219828E010F5F1F4F9E0145
:102F10002D5F3F4F0E94B410811109C049815A8131
:102F20006B817C8184019501C6010E946D130F9015
:102F30000F900F900F90DF91CF911F910F91EF9015
:102F4000DF90CF90BF90AF909F908F900895AF92F9
:102F5000BF92CF92DF92EF92FF920F931F93CF9386
:102F60008C011D990EC088EC0E94901085FF05C051
:102F7000C8010E94530260E201C060E088EC0E9438
:102F8000A11080911202813039F040F0823079F046
:102F9000833039F5C1E00CC083E106C08091D907C8
:102FA000807F8031F1F081E18093D9071AC0C0E0C1
:102FB0008091D907807F8031A9F40E94340DDC0113
:102FC000CB0188539F4FAF4FBF4F8093D50790934E
:102FD000D607A093D707B093D80780E28093D9078C
:102FE00001C0C0E0780186E5E80EF11C6801A6E7A3
:102FF000CA0ED11C5701F501819191915F01009793
:1030000039F0DC01ED91FC910680F781E02D099506
:10301000AC14BD0481F78091D907803409F43FC016
:1030200050F4803221F18033A1F1813109F082C066
:10303000F60110820AC0813509F458C0803809F4BD
:103040006AC0803509F076C039C0D7018D919D9155
:103050007D01009739F0DC01ED91FC910480F58150
:10306000E02D0995EC14FD0481F782E161C00E9416
:10307000340D0091D5071091D6072091D7073091D4
:10308000D807DC01CB01801B910BA20BB30BB7FD62
:1030900051C061E088EE0E94A11080E449C088EE32
:1030A0000E94901080FD46C088ED0E949010682F0D
:1030B000686088ED0E94A11080E53AC088EC0E940B
:1030C000901086FF37C081E58093D9070E94340DA8
:1030D000DC01CB014496A11DB11D8093D5079093CF
:1030E000D607A093D707B093D80724C00E94340D09
:1030F000C090D507D090D607E090D707F090D807BA
:10310000DC01CB018C199D09AE09BF09B7FD12C0C6
:1031100080E88093D9072C2F40E060E0C8010E942E
:103120004616882321F0823D29F080EA01C080E91B
:103130008093D907CF911F910F91FF90EF90DF906F
:10314000CF90BF90AF90089580E00895089580E0FB
:10315000089580E0089581E00895FC018285089536
:1031600081E0693009F080E00895CF93DF93EC01AE
:103170008A819B81DC01ED91FC910480F581E02D39
:103180006A8509958A85813439F4EA81FB81EA5898
:10319000FF4F8081846080831A861B861C861D8673
:1031A0001E861F86188A80E0DF91CF9108958F9246
:1031B0009F92AF92BF92CF92EF920F93A42EB12C19
:1031C000B22A1F921F921F921F921F921F92812C50
:1031D000912CC12CE62E01E023E240E0FC01628547
:1031E000828193810E9450140F900F900F900F9046
:1031F0000F900F900F91EF90CF90BF90AF909F9056
:103200008F9008958F929F92AF92BF92CF92EF923C
:103210000F93A62EB12C1F921F923F932F935F9373
:103220004F934A01C12CE12C00E023EA40E0FC016D
:103230006285828193810E9450140F900F900F90AD
:103240000F900F900F900F91EF90CF90BF90AF9095
:103250009F908F9008958F929F92AF92BF92CF923E
:10326000EF920F93A42EB12CB22A1F921F921F929D
:103270001F921F921F92812C912CC12CE62E03E0ED
:1032800023E240E0FC016285828193810E94501418
:103290000F900F900F900F900F900F900F91EF9055
:1032A000CF90BF90AF909F908F9008952F923F92B4
:1032B0004F925F926F927F928F929F92AF92BF9246
:1032C000CF92DF92EF92FF920F931F93CF93DF93F2
:1032D000CDB7DEB7E8970FB6F894DEBF0FBECDBF0F
:1032E000DC011A963C91311107C1122F242E362E83
:1032F0003C01FC01C280D380D601ED91FC9101908C
:10330000F081E02D60E0C60109957C01009709F489
:10331000F5C0FC01A080B180A114B10409F4F0C093
:103320004301F4E08F0E911CDC0111969C928E9269
:1033300014961C93FE0131962F018F0128E030E096
:1033400040E060E0D30112968D919C9113970E940A
:103350003015F70114828111D9C08D81893009F0AF
:10336000D1C00981D601ED91FC910280F381E02D5D
:10337000222D41E0632DC6010995F3018287882340
:1033800009F4C2C098859583282F40E060E08281CF
:1033900093810E94DB15182F882389F0D701AD9205
:1033A000BC92D601ED91FC910480F581E02DD30112
:1033B0001A966C91C6010995F3011286ABC0202FB5
:1033C000013208F020E2D701AD92BC9221110BC06E
:1033D000940142E0F3016285828193810E942F1063
:1033E000811197C010C030E0820140E0D3011A96ED
:1033F0006C911A9712968D919C9113970E9430159B
:10340000811187C0E5CF1F921F925F924F921F924A
:1034100088E08F9388E0882E912CA12CB12C99E222
:10342000C92EE12C06E020EA40E0F30162858281AA
:1034300093810E945014182F0F900F900F900F90AF
:103440000F900F90811166C08B81D3011B968C93D6
:103450001B97720100E028E030E040E01A966C9182
:103460001A9712968D919C9113970E94571581116E
:1034700050C02B813C8140E0F301628582819381C1
:103480000E945715811145C0298130E0CE018196F7
:103490007C0140E0D3011A966C911A9712968D9197
:1034A0009C9113970E945715811133C02E8140E0E3
:1034B000F3016285828193810E944917811129C09D
:1034C00001E0D3011B968C91801740F020E0402F43
:1034D00068E0C3010E942B190F5FF3CFD30112964E
:1034E000ED91FC911397EA58FF4F808184608083AF
:1034F00081E050968C930EC019ED0CC016ED0AC0F9
:1035000017ED08C011ED06C014ED04C0F701B1823B
:10351000A082182F812FE8960FB6F894DEBF0FBE59
:10352000CDBFDF91CF911F910F91FF90EF90DF9072
:10353000CF90BF90AF909F908F907F906F905F9053
:103540004F903F902F900895CF92DF92FF920F936C
:103550001F93CF93DF9300D000D0CDB7DEB78C019F
:10356000F62E19821A821B821C8220E0462F61E10E
:103570000E94D71820E04F2D60E1C8010E94D718A3
:1035800020E04F2D64E0C8010E942B1983E0C82E73
:10359000D12C9E012F5F3F4F44E050E06F2DC801BA
:1035A0000E9402198823F1F020E04F2D64E1C80148
:1035B0000E94D71820E04F2D60E1C8010E94D71863
:1035C00064E170E080E090E00E94650D0F900F9044
:1035D0000F900F90DF91CF911F910F91FF90DF908F
:1035E000CF90089589819A81AB81BC819D7F833082
:1035F0009140A041B105C1F264E670E080E090E046
:103600000E94650D81E0C81AD10819F6CDCFFC01E2
:103610008BE791E0918380837383628312861386A4
:103620001486158616861786108A148288E085838C
:103630009CE3968391E09783808784E0818761157E
:103640007105B1F0DB01AA5ABF4F80E090E02D91E7
:103650003D91232B49F48B96880F991FDB01A80F0E
:10366000B91FED93FC93089501968031910579F788
:103670000895EF92FF920F931F93CF938C01C62F63
:103680007A01FA0180819181A281B3818130F3E0D6
:103690009F07F1E0AF07B105D1F060F48115E1E0DB
:1036A0009E07AE07B10571F181309140A140B1058F
:1036B00071F064C0833021E0920720E1A207B105D8
:1036C000E1F183309340A041B105B9F157C0809139
:1036D000DA07811153C020E04C2F61E1C8010E943C
:1036E000D71820E04C2F60E1C8010E94D71820E0D5
:1036F0004C2F64E0C8010E942B1981E08093DA0707
:1037000081EB3DC020E0462F61E1C8010E94D7183F
:1037100020E04C2F60E1C8010E94D7181092DA0710
:10372000F80162856770C770660F660F660F6C2BB5
:10373000828193810E944C1021C020E04C2F64E1D3
:10374000C8010E94D71820E04C2F60E1C8010E94F8
:10375000D71864E170E080E090E00E94650DF80108
:103760006285F70121812695217067704C2FF80141
:10377000828193810E9446161092DA0780E0CF91F1
:103780001F910F91FF90EF900895CF92DF92EF92EB
:103790000F931F93CF93DF93CDB7DEB72E970FB65E
:1037A000F894DEBF0FBECDBF6C0181E090E09E8734
:1037B0008D87E12C8E010F5F1F4F9E01235F3F4FCE
:1037C00041E0F6016285828193810E946E1781112A
:1037D00051C002E011E089818023D1F019861A8658
:1037E0001B861C869E01275F3F4F44E050E0612FFF
:1037F000C6010E94021981110BC0AE01475F5F4FE5
:10380000612FC6010E94391B813B99F1811132C0A1
:10381000000F1F5F1830F9F611E0F601838581175C
:1038200040F119861A861B861C869E01275F3F4F32
:1038300044E050E0612FC6010E940219811117C0B7
:1038400089859A85877091708130914081F48B854C
:103850009C8581609C878B87AE01475F5F4F612F9E
:10386000C6010E94391B813B21F0811103C01F5FFB
:10387000D4CF80E02E960FB6F894DEBF0FBECDBF3A
:10388000DF91CF911F910F91EF90DF90CF9008952E
:103890000F931F93CF93DF93FC012089211102C066
:1038A00080E020C0EC010E94340D0C851D852E8522
:1038B0003F85DC01CB01801B910BA20BB30BB7FD45
:1038C000EFCFCE010E94C51B182F0E94340DDC01E2
:1038D000CB018C599F4FAF4FBF4F8C879D87AE87D1
:1038E000BF87812FDF91CF911F910F910895FC0128
:1038F00083850895FC01868D08956E3524E0720756
:1039000099F0683387E0780779F06F369EE07907A1
:1039100059F06D302FE0720739F0623385E1780796
:1039200019F0663C7442A1F5413D22E0520791F145
:103930004D3D82E0580771F1433E92E0590751F145
:103940004A3E22E0520731F141308AE4580711F132
:10395000493391E05907F1F0463421E05207D1F0A4
:1039600047365105B9F043308AE0580799F0CA014B
:103970008F7D8A31944571F04A3284E5580751F0C1
:1039800081E04A309BE0590739F0473A524021F034
:1039900080E0089581E008950895CF93DF93EC01CE
:1039A0001C8289859A85DC01ED91FC910480F5816A
:1039B000E02D6B8509951B8681E08E8B1F8A188E02
:1039C000198E1A8E1D8E1E8E80E0DF91CF91089584
:1039D0003F924F925F926F927F928F929F92AF929F
:1039E000BF92CF92DF92EF92FF920F931F93CF93EC
:1039F000DF9300D000D0CDB7DEB76C017C836B8342
:103A00005A8349834C0180E1880E911C5601A7E03E
:103A1000AA0EB11C11E084E0482E3601B2E16B0E13
:103A2000711C93E0392E22E0522E8B819C81892BD0
:103A300009F4EEC0F60180A1823059F128F4882300
:103A400041F0813071F0F1CF833039F18430C1F130
:103A5000ECCF5482858196819087878352865186E8
:103A600010A3AE014D5F5F4FBE016F5F7F4FC50179
:103A70000E94D30E882309F4CBC0D6011596ED9190
:103A8000FC911697808191968C9391978181929663
:103A90008C93F6017682658230A2D60192968C9143
:103AA0009297843011F493961C92F60181A1825072
:103AB000848325813681308727838287818740A24E
:103AC000D60192968C918430A9F08530D1F1823064
:103AD00009F062C0AE014D5F5F4FBE016F5F7F4F67
:103AE000C5010E94D30E882309F492C0F60185898E
:103AF00084A386C0AE014D5F5F4FBE016F5F7F4FF5
:103B0000C5010E94D30E882309F482C0D60198967D
:103B10008C919897811174C093961C9393975296A9
:103B20008C91529796968C93969753968C91539727
:103B300097968C93979757968C91579795968C93C9
:103B40005FC0AE014D5F5F4FBE016F5F7F4FC5012C
:103B50000E94D30E882309F45BC0F60183A1882359
:103B600009F44EC082819381009709F449C0DC01B9
:103B7000ED91FC910190F081E02D7401D6019596B4
:103B80000C91959797962C91979796964C9196971E
:103B900094966C91099534C0F6018585882319F0B7
:103BA000813039F028C081A190E0029797878687FD
:103BB00015872B813C8189819A81782F692FF601A5
:103BC000468557854115510581F00196211531052E
:103BD00029F479836A831C821B820DC041505109EC
:103BE0005787468721503109E8CF9A8389833C83E0
:103BF0002B83F6011586F60186859785892B41F47E
:103C0000D60116969C928E92159790961C920DCF87
:103C10000F900F900F900F90DF91CF911F910F9108
:103C2000FF90EF90DF90CF90BF90AF909F908F90DC
:103C30007F906F905F904F903F900895EF92FF922A
:103C4000CF93DF93E701DC01129755966C9355975C
:103C50008B818370833009F58A81E82FEE1FEE2770
:103C6000EE1FEF5FF0E09F01220F331FE20FF31F03
:103C7000EA0FFB1F8F7084878C8185878E815D960C
:103C80009C915D97981718F45D968C935D97569666
:103C90008C9156978F5F56968C93DF91CF91FF90C2
:103CA000EF900895EF92FF92CF93DF93DC01E7014D
:103CB00055966C9355978B818370833009F58A8173
:103CC000E82FEE1FEE27EE1FEF5FF0E09F01220FBF
:103CD000331FE20FF31FEA0FFB1F8F7084878C8165
:103CE00085878E815D969C915D97981718F45D96F7
:103CF0008C935D9756968C9156978F5F56968C93C2
:103D0000DF91CF91FF90EF900895FC0187E991E05A
:103D10009183808381EB91E09383828372876187B3
:103D2000138681E0868B178A108E118E128E158E67
:103D3000168E148688E085878CE386871786108A1E
:103D400084E0818B128A138A848B61157105B1F02E
:103D5000DB01AA5ABF4F80E090E02D913D91232BCB
:103D600049F48B96880F991FDB01A80FB91FED93BB
:103D7000FC93089501968031910579F70895CF93CA
:103D8000DF93DC01D7968C91D797873009F037C045
:103D9000DB968C91DB975F964D915C919097EAEF63
:103DA000F1E0813049F425913491242B352B909604
:103DB0003C932E935F970AC085919491809590953E
:103DC0008423952390969C938E935F975F962D9175
:103DD0003C91909791968D919C91929728173907D5
:103DE00009F4ACC0809590958223932394969C937C
:103DF0008E93939792963C932E9391979FC0803287
:103E000009F09CC0EAEFF1E065917491DC962C9189
:103E1000DC97DB968C91DB97922F9F70482F4C702C
:103E200050E0542F4427550F550F592B982F907F52
:103E3000492B922F907C592B8170C82F80E0D82F6E
:103E4000CE01E3E0880F991FEA95E1F7842B952BCB
:103E5000207330E0F4E035952795FA95E1F7822B51
:103E6000932B5F962D913C91909762237323862B21
:103E7000972B90969C938E935F97DD966D917C9196
:103E8000DE979E967C936E939D97FD01FF964081F1
:103E90005181D0965C934E939F97329620813181C9
:103EA00096963C932E9395973296208131819896E1
:103EB0003C932E9397973296208131819A963C932A
:103EC0002E9399973296208131819C963C932E9324
:103ED0009B9791962D913C9192978217930761F051
:103EE000209530952823392394963C932E939397CD
:103EF00092969C938E9391976115710551F0D1968E
:103F00008D919C91D297892B21F481E0D5968C9349
:103F1000D597D2967C936E93D1974115510551F068
:103F2000D3968D919C91D497892B21F481E0D696DC
:103F30008C93D697D4965C934E93D397DF91CF9181
:103F40000895CF92DF92EF920F931F93CF93DF9359
:103F500000D0CDB7DEB7FC01268D222399F16C018C
:103F60000E94340DF6010789108D218D328DDC0100
:103F7000CB01801B910BA20BB30BB7FD23C00E949A
:103F8000340DF601E58CDC01CB018E0D911DA11DD8
:103F9000B11D878B908FA18FB28F838990E09A8318
:103FA00089838601095C1F4F9E012F5F3F4F428925
:103FB0006385818592850E946E17811103C0C601B9
:103FC0000E94BF1E80E00F900F90DF91CF911F9154
:103FD0000F91EF90DF90CF900895DC01683031F4BD
:103FE0009D968C919D979E969C910895693031F491
:103FF0009F968C919F97D0969C910895E62FF0E024
:10400000EE0FFF1FE652FE4F259134915F968D9182
:104010009C9190972823392381E090E0232B09F489
:1040200080E00895860F911D860F911DFC0185A1EA
:1040300096A108950F931F93FC019A01DB0112963C
:104040001C928B0147856385818592850E9436137A
:104050001F910F9108950F93CF93DF93CDB7DEB7E4
:104060002D970FB6F894DEBF0FBECDBF39E0398370
:104070001A823C831D823FE03E836F8348872987F5
:104080000A872FEF2B871C862D874DE050E0BE015D
:104090006F5F7F4F0E941A202D960FB6F894DEBFF7
:1040A0000FBECDBFDF91CF910F910895CF93DF93D6
:1040B00000D000D01F92CDB7DEB725E0298320E2E3
:1040C0002A8321E02C831D8245E050E0BE016F5F12
:1040D0007F4F0E941A200F900F900F900F900F901B
:1040E000DF91CF910895CF93DF93CDB7DEB72797B8
:1040F0000FB6F894DEBF0FBECDBF2AE0298320E2C1
:104100002A831B8223E02C831D8221E02E8324E15D
:104110002F8347E050E0BE016F5F7F4F0E941A205F
:1041200027960FB6F894DEBF0FBECDBFDF91CF91BB
:104130000895CF93DF93CDB7DEB727970FB6F894E6
:10414000DEBF0FBECDBF26E0298320E22A831B827B
:1041500022E02C8321E02D831E821F8247E050E065
:10416000BE016F5F7F4F0E941A2027960FB6F8940A
:10417000DEBF0FBECDBFDF91CF910895CF93DF9308
:10418000CDB7DEB72D970FB6F894DEBF0FBECDBF0B
:104190002DE0E2E2F1E0DE01119601900D922A9508
:1041A000E1F74DE050E0BE016F5F7F4F0E941A20A3
:1041B0002D960FB6F894DEBF0FBECDBFDF91CF9125
:1041C0000895CF93DF93CDB7DEB72D970FB6F89450
:1041D000DEBF0FBECDBF2DE0EFE2F1E0DE011196B4
:1041E00001900D922A95E1F74DE050E0BE016F5F1E
:1041F0007F4F0E941A202D960FB6F894DEBF0FBE97
:10420000CDBFDF91CF910895CF93DF93CDB7DEB7C8
:104210002D970FB6F894DEBF0FBECDBF2DE0ECE3B7
:10422000F1E0DE01119601900D922A95E1F74DE043
:1042300050E0BE016F5F7F4F0E941A202D960FB68F
:10424000F894DEBF0FBECDBFDF91CF910895CF931D
:10425000DF93EC018F8198858F362EE0920739F439
:10426000CE010E947320CE010E94992017C0863C87
:1042700024E2920769F4CE010E94BE2064E070E05F
:1042800080E090E00E94650DCE010E94E12006C012
:104290008D309F4019F4CE010E940421EB8DFC8DDE
:1042A000309719F0DF91CF910994DF91CF91089564
:1042B0002F923F924F925F926F927F928F929F9236
:1042C000AF92BF92CF92DF92EF92FF920F931F9324
:1042D000CF93DF93CDB7DEB7EB970FB6F894DEBF81
:1042E0000FBECDBFDC011B965C90511028C1422E41
:1042F000242E362E7C01FC01C184D284D601ED919E
:10430000FC910190F081E02D60E0C60109955C010F
:10431000009719F446ED542E1AC1FC01608071809B
:104320006114710409F40EC14701FCE08F0E911C69
:10433000DC0111969C928E9214964C928E01065D31
:104340001F4F22E130E040E060E0F7018185928577
:104350000E943015182FD5016D927C928111E5C015
:104360006AA97BA9F701708767834CA95DA9568369
:1043700045830190F081E02D0484F585E02DC7018F
:104380000995811102C011EDD0C0D601ED91FC91CB
:104390000280F381E02D222D40E0632DC6010995B6
:1043A000F7018387882309F4D0C099A99587282F1E
:1043B00040E060E0818592850E94DB15182FD601D0
:1043C000ED91FC91D50114961C92882359F004803C
:1043D000F581E02DD7011B966C91C6010995F70177
:1043E0001386ABC00190F081E02DD7011B966C9134
:1043F000C6010995009709F48DCFFC014482940110
:1044000041E0D7011B966C911B9719968D919C9159
:104410001A970E942F10182F811187C03BAC412C96
:1044200031E9632E31E0732E5701B2E0AB0EB11CBF
:104430006E01E1E1CE0ED11C431461F17A826982F2
:10444000BC82AB821E86188A1F8619A21AA21BA2E2
:1044500019A6DF82CE82D986C8868D818B878A870E
:10446000DD86CC868E010F5F1F4F242D40E0D701E3
:104470001B966C911B9719968D919C911A970E948F
:104480007E15182F811151C0F7018689833010F4F1
:104490004394D2CFD70156964C915697433008F4A7
:1044A00072CF94011B966C911B9719968D919C91DC
:1044B0001A970E942F10182F811137C068EC70E0F6
:1044C00080E090E00E94650DF701258944856385B1
:1044D000818592850E944917182F811126C068ECAA
:1044E00070E080E090E00E94650DF701E958FF4F11
:1044F000108285E0898380E28A8301E00C831D823B
:1045000045E050E0BE016F5F7F4FC7010E941A2057
:10451000182F81110AC0C7010E942721D7011496C4
:104520000C9314975E960C9312C0D701ED91FC91F9
:104530000480F581E02DC7010995512E08C029EDB1
:10454000522E05C097ED592E02C084ED582E852DB0
:10455000EB960FB6F894DEBF0FBECDBFDF91CF91C3
:104560001F910F91FF90EF90DF90CF90BF90AF9091
:104570009F908F907F906F905F904F903F902F9083
:104580000895FC0181850895FC0187A108956E3589
:1045900084E0780739F06D3A9BE1790719F06E32C3
:1045A000764141F481E0493197E0590729F04139DA
:1045B000524011F080E008950895CF93DF93EC010D
:1045C0001A821B821C821D821E828F819885DC01CB
:1045D000ED91FC910480F581E02D6985099519869E
:1045E0001FA280E0DF91CF9108956F927F928F920A
:1045F0009F92AF92BF92CF92DF92EF92FF920F9372
:104600001F93CF93DF93CDB7DEB762970FB6F894C1
:10461000DEBF0FBECDBFDC0119963C91311172C0D7
:10462000122F642E762E7C01FC01A780B084D50168
:10463000ED91FC910190F081E02D60E0C5010995BC
:104640006C01009709F460C0FC01808091808114A6
:10465000910409F45BC0C7010A9691838083148397
:104660008E010F5F1F4F22E130E040E060E0D70194
:1046700017968D919C9118970E943015182FF6016E
:104680009182808281112FC089859A858E35F4E0D0
:104690009F0739F08D3A2BE1920719F08E3296413F
:1046A00031F58B859C858931B7E09B0719F08139FD
:1046B0009240E9F4D501ED91FC910280F381E02D67
:1046C000262D40E0672DC5010995F70181878823D4
:1046D000F9F08885838764E170E080E090E00E94D3
:1046E000650D80EE16C08D3019F011EE01C011ED90
:1046F000D701ED91FC910480F581E02DC70109956A
:10470000812F07C089ED05C086ED03C087ED01C08C
:1047100084ED62960FB6F894DEBF0FBECDBFDF9179
:10472000CF911F910F91FF90EF90DF90CF90BF90AE
:10473000AF909F908F907F906F900895CF92DF926F
:10474000EF92FF920F931F93CF93DF93EC01022F11
:10475000EF80F884D701ED91FC910190F081E02D7C
:104760006985C70109956C01892B11F486ED7BC021
:104770006CE271E080E090E00E94650D298540E0E8
:1047800060E08F8198850E94DB15182F882319F02F
:10479000F601148260C0D60114961C92D701ED91E7
:1047A000FC910190F081E02D6985C7010995009782
:1047B000E9F2FC0104837E01FAE0EF0EF11C97019F
:1047C00041E069858F8198850E942F10182F8111F3
:1047D00042C001E00D8733E027E090E29E8784E04D
:1047E0008F87088B998B8A8B3B8B9C8B8D8B3E8B19
:1047F0009F8B888F35E0398F9A8F8B8F3C8F9D8F61
:104800008E8F2F8F98A389A32AA39BA38CA3970194
:1048100049E069858F8198850E942F10182F81119A
:104820001AC068EC70E080E090E00E94650D21E025
:104830004A8569858F8198850E944917182F8111B3
:104840000AC00A830FA3CC57DF4F188219821A823D
:104850001B8280E008C0E881F9810480F581E02DA9
:10486000CE010995812FDF91CF911F910F91FF907C
:10487000EF90DF90CF9008950F931F93CF93DF9326
:10488000DC0187EB91E011969C938E9318967C93B4
:104890006E93179719961C92199797961C92979753
:1048A000FD0180E090E01286582F811102C028E0BF
:1048B00001C020E023878C01000F111F9801280FF1
:1048C000391F2A0F3B1FE9014C854E7F4D7F4C87D6
:1048D000511102C03FE001C031E0E801C80FD91F0B
:1048E000CA0FDB1F330F330F2C852370322B3C870D
:1048F0000196339689309105B1F661157105C1F0C5
:10490000FB01EA5AFF4F20E030E081919191892B21
:1049100051F4255D3F4F220F331FFB01E20FF31FC0
:10492000B183A08305C02F5F3F4F2031310569F768
:10493000DF91CF911F910F91089550E0683051F4AD
:10494000FA013A96EE0FFF1FEE0FFF1FE80FF91F57
:1049500081810895693051F4FA013A96EE0FFF1FF4
:10496000EE0FFF1FE80FF91F80810895E62FF0E09A
:10497000EE0FFF1FE250FE4F25913491FA013A9657
:10498000EE0FFF1FEE0FFF1FE80FF91FC901A0E098
:10499000B0E0DC01992788274081518162817381D1
:1049A000482359236A237B2381E0452B462B472B41
:1049B00009F480E0089524E0429FA0011124460FED
:1049C000511D485D5F4F440F551F840F951FFC011B
:1049D0008081918108950F931F93613039F050F0D9
:1049E000623031F06330E1F468E005C064E003C098
:1049F00066E001C062E08A01DC0170E0FB01EE0FBD
:104A0000FF1F6E0F7F1FFD01E60FF71F42851996EE
:104A10006C91199717968D919C9118970E94361357
:104A20001F910F910895AC0148555F4FFA01108214
:104A300031961082319628E02083319620EC208335
:104A400024E030E00C94EB24742FAC0148555F4F08
:104A5000FA01108231961082319628E02083319637
:104A6000262F2064208324E030E0672F0C94EB2471
:104A7000662341F0653041F0E62FF0E0EE5DFD4F3A
:104A800064916C5F0C9424250895FC0127A12223D6
:104A900091F0AC0148555F4F28E0FA012083319630
:104AA000108231962FE02083319620EC208324E081
:104AB00030E00C94EB240895FC0127A1222381F01F
:104AC000AC0148555F4FFA01108231961082319641
:104AD0001082319620E4208324E030E00C94EB2413
:104AE0000895362F622FFC01E855FF4F1082DC013C
:104AF000A755BF4F21E02C9311962FE02C931196D0
:104B000020EC2C9311961C9211963C9311964C9389
:104B100027E030E0AF010C94EB24DC01462F9596A2
:104B2000ED91FC919697309709F00994662331F046
:104B3000613031F0623031F064E005C061E003C003
:104B400062E001C063E0CD010C9438254F925F9282
:104B50006F927F928F929F92BF92CF92DF92EF924D
:104B6000FF920F931F93CF93DF93FC01DC01A857B3
:104B7000BF4F09F4E4C08C9111968830E9F48C9110
:104B8000EF01C60FD11D9B818917B1F08B8388235C
:104B900009F4D5C0CF01DF91CF911F910F91FF9004
:104BA000EF90DF90CF90BF909F908F907F906F900D
:104BB0005F904F900C948D258C9181111DC0DF0169
:104BC000A557BF4F8C91837109F4B9C0EF01C45749
:104BD000DF4F8881823208F4B2C070E0685C7F4F9A
:104BE000660F771FE60FF71F8D919C9198278927F5
:104BF000982791838083A3C0813009F0A0C0262F1D
:104C000030E0DF01A20FB31F13968C91139781112F
:104C100004C080E813968C931397EF01C257DF4FBF
:104C2000688179818A819B810E94F331AB01BC014B
:104C3000E901CC0FDD1FCC0FDD1F4E018E0E9F1E34
:104C4000E40148A759A76AA77BA7C9010A9603E010
:104C5000880F991F0A95E1F78E0F9F1F8F010E563F
:104C60001F4FE80108811981EC0119830883C901EC
:104C7000C3E0880F991FCA95E1F78E0F9F1F8C0123
:104C80000E5A1F4F7F01D4E9ED0EF11CE701E880B9
:104C9000F980E801F982E8820E5F1F4F7F01D6E9B3
:104CA000ED0EF11CE701E880F980E801F982E88265
:104CB0008A5A9F4F8F0108561F4FE80108811981BA
:104CC000EC0119830883E401C8ACD9ACEAACFBACB5
:104CD0004C155D056E057F0591F1BB24B394CD01A4
:104CE00088589F4FEC01B8822C5D3F4F220F331F35
:104CF000E20FF31F970186010095109520953095DE
:104D00002901662477248B012227332704211521CA
:104D100011830083C11006C0442321F0FD01E05837
:104D2000FF4FB082D11006C0552321F0A458BF4FC9
:104D300081E08C93F40140AF51AF62AF73AFDF916C
:104D4000CF911F910F91FF90EF90DF90CF90BF9088
:104D50009F908F907F906F905F904F9008958F926B
:104D60009F92AF92BF92CF92DF92EF92FF920F93FA
:104D70001F93CF93DF9300D0CDB7DEB7FC0127A1FF
:104D80002223C9F16C01F12C21E090E2A92EB12C73
:104D90004F01F8E88F0E911CBA82A98230E0F90128
:104DA000EE0FFF1F2E0F3F1FF601E20FF31FE12C46
:104DB00084019E012F5F3F4F4285F6016185878107
:104DC00090850E946E1789819A81892B21F06F2D21
:104DD000C6010E94A625F394F4E0FF1661F081E07D
:104DE000F81629F0E2E0FE1621F027E0D5CF23E007
:104DF000D3CF25E0D1CF80E00F900F90DF91CF91FE
:104E00001F910F91FF90EF90DF90CF90BF90AF90E8
:104E10009F908F900895FC0185810895FC01818900
:104E200008956E3584E0780759F06D3A9BE1790773
:104E300039F06E3286E1780719F06F367E40A1F4C2
:104E40004E3882E0580791F0463190EF590771F0E3
:104E5000413084E0580751F081E0433192E0590736
:104E600039F04F3E5E4B21F080E0089581E00895D7
:104E70000895CF93DF93EC011A828B819C81DC0132
:104E8000ED91FC910480F581E02D6D8109951D82E5
:104E9000198A80E0DF91CF910895FC018FEC91E0B9
:104EA00091838083748363831582118A168288E0DC
:104EB00087838CE380871186128684E0838714863B
:104EC0001586868761157105B1F0DB01AA5ABF4FBF
:104ED00080E090E02D913D91232B49F48B96880F33
:104EE000991FDB01A80FB91FED93FC93089501965C
:104EF0008031910579F708958F929F92AF92BF927A
:104F0000CF92DF92EF92FF920F931F93FC01E83D47
:104F10008FEFF80709F44AC080A5811147C081A529
:104F2000843109F043C062A573A584A595A50E94AC
:104F3000F331628B738B848B958B26A537A5358FC8
:104F4000248F20A931A9378F268F22A933A931A315
:104F500020A324A935A933A322A306891789208D6C
:104F6000318D601771078207930701F1680179019C
:104F7000C094D094E094F0944701AA24BB246C011F
:104F8000EE24FF24C820D920D38EC28E011104C084
:104F9000662311F041E047A3111104C0772311F0FB
:104FA00021E026A3668B778B808F918F1F910F91C5
:104FB000FF90EF90DF90CF90BF90AF909F908F9039
:104FC0000895CF92DF92EF920F931F93CF93DF93C9
:104FD00000D0CDB7DEB7FC0121892223A9F06C01F6
:104FE00080E290E09A8389838F01085D1F4FE12C56
:104FF0009E012F5F3F4F41856581838194810E948F
:105000006E17C6010E947C2780E00F900F90DF9101
:10501000CF911F910F91EF90DF90CF900895DC0119
:10502000683019F453968C910895693019F45296AA
:105030008C910895E62FF0E0EE0FFF1FE85DFD4F25
:105040004591549160E070E0BA015527442752968B
:105050008D919D910D90BC91A02D482359236A23D9
:105060007B2381E0452B462B472B09F480E00895F4
:10507000860F911D860F911DFC01848D958D0895DD
:105080008F929F92AF92BF92CF92EF920F93FC01BB
:105090001F921F927F936F935F934F934A01A12CAE
:1050A000B12C82E0C82EE12C09E021E24681658125
:1050B000838194810E9450140F900F900F900F9055
:1050C0000F900F900F91EF90CF90BF90AF909F9067
:1050D0008F900895FC01E85BFF4F21E02083DC0105
:1050E000A75BBF4F23E02C9311966C9343E050E0F5
:1050F000BF010C944028662341F0653041F0E62F53
:10510000F0E0E45BFD4F64916C5F0C946A280895B5
:10511000FC01E85BFF4F1082DC01A75BBF4F28E07A
:105120002C9311961C9211966C9311964C93119698
:105130001C9211961C9211961C9248E050E0BF01FF
:105140000C944028DC011F96ED91FC91509730970C
:1051500009F00994EDE4F2E064916C5F0C946A2824
:105160002F923F924F925F926F927F928F929F9277
:10517000AF92BF92CF92DF92EF92FF920F931F9365
:10518000CF93DF93CDB7DEB762970FB6F894DEBF4B
:105190000FBECDBFDC0115965C905110F7C0422EBA
:1051A000242E362E7C01FC01C380D480D601ED91E3
:1051B000FC910190F081E02D60E0C60109955C0151
:1051C000009719F436ED532EE9C0FC016080718020
:1051D0006114710409F4DDC04701F6E08F0E911CE3
:1051E000DC0111969C928E9214964C928E010F5F68
:1051F0001F4F22E130E040E060E0F70183819481BD
:105200000E943015182FD5016D927C928111B4C087
:1052100089859A858E35B4E09B0761F08D3AEBE184
:105220009E0741F08E32F6E19F0721F08F369E40B7
:1052300009F0A1C08B859C858F38A2E09A0709F4FC
:105240009AC08931B7E09B0709F495C08139E2E043
:105250009E0709F490C08E38F2E09F0781F08631F6
:1052600020EF920761F08130A4E09A0741F083318A
:10527000B2E09B0721F08F3E9E4B09F07CC0D60127
:10528000ED91FC910280F381E02D222D40E0632D11
:10529000C6010995F7018583882309F47DC09885A7
:1052A0009783282F40E060E0838194810E94DB1582
:1052B000182FD601ED91FC91D50114961C928823EC
:1052C00059F00480F581E02DD70115966C91C60147
:1052D0000995F701158258C00190F081E02DD701A2
:1052E00015966C91C6010995009709F46BCFFC01E6
:1052F0004482940141E0D70115966C91159713965D
:105300008D919C9114970E942F10182F811134C0F9
:1053100001E0F701018790E2928784E0838722E031
:10532000248795878687940143E0658183819481F2
:105330000E942F10182F81111FC068EC70E080E0D0
:1053400090E00E94650D21E0D70116964C911697CA
:1053500015966C91159713968D919C9114970E94B8
:105360004917182F811108C0C7010E94A228F70110
:105370000283018B13C011EDD701ED91FC910480E4
:10538000F581E02DC7010995512E08C029ED522E57
:1053900005C097ED592E02C084ED582E852D6296DA
:1053A0000FB6F894DEBF0FBECDBFDF91CF911F9136
:1053B0000F91FF90EF90DF90CF90BF90AF909F90B4
:1053C0008F907F906F905F904F903F902F900895B7
:1053D0006F927F928F929F92AF92BF92CF92DF9205
:1053E000EF92FF920F931F93CF93DF9300D01F9202
:1053F000CDB7DEB77C01ADB6BEB68091E80083FFC5
:105400000CC1F701808190E02091E5073091E6071B
:105410002817390709F001C18091E207833009F4A8
:10542000A0C030F4813071F0823009F4D9C0F5C0E9
:105430008A3009F4BCC08B3009F4A4C0893009F06B
:10544000ECC050C08091E107813A09F0E6C08DB60A
:105450009EB61A8219828091E3071091E4078B832C
:10546000F7018085482F50E08DB79EB7841B950BC0
:105470000FB6F8949EBF0FBE8DBFEDB7FEB7319645
:105480006F0160E070E0CF010E9410324FEF410FDA
:105490008E010F5F1F4F9601BE016D5F7F4FC701E9
:1054A0000E943231F70186819781009729F040856B
:1054B00050E0B6010E9407321092E9008091E800A6
:1054C000877F8093E8008B8181118093F10069814F
:1054D0007A81C6010E94432C8091E8008B778093EB
:1054E000E80039C08091E107813209F096C08DB69D
:1054F0009EB60091E7071091E8077090E30760906F
:10550000E4078DB79EB7801B910B0FB6F8949EBF32
:105510000FBE8DBFEDB7FEB731966F018091E800E9
:10552000877F8093E800B801CF010E94A12C809171
:10553000E8008E778093E80021E0711001C020E040
:1055400030E0021B130B2C0D3D1D4FEF460D672D58
:10555000C7010E9480310FB6F8949EBE0FBE8DBE6B
:105560005CC08091E107813A09F057C08091E80062
:10557000877F8093E8008091E80080FFFCCFF701EF
:10558000818542C08091E107813209F046C0809157
:10559000E800877F8093E8000E94B52D9091E30793
:1055A00081E0911101C080E0F701818736C08091D0
:1055B000E107813291F58091E800877F8093E800D0
:1055C0000E94B52D8091E3079091E407882736E08B
:1055D000969587953A95E1F7F701958784871DC0E1
:1055E0008091E107813AC9F48091E800877F809338
:1055F000E8008091E80080FFFCCFF7018485958565
:1056000096958795969587958093F1008091E8000F
:105610008E778093E8000E94B52D0FB6F894BEBE39
:105620000FBEADBE0F900F900F90DF91CF911F91E5
:105630000F91FF90EF90DF90CF90BF90AF909F9031
:105640008F907F906F900895FC01399627E0DF01DD
:105650001D922A95E9F721E0FC01218728E833E132
:105660003587248723E0248361E001960C94772D0D
:105670005F926F927F928F929F92AF92BF92CF92E2
:10568000DF92EF92FF920F931F93CF93DF9300D09F
:105690001F92CDB7DEB77C01ADB6BEB68091E007F4
:1056A000843009F08BC08091E4009091E500F7010F
:1056B000228533852817390709F480C081818F70CE
:1056C0008093E9008091E80085FF78C08DB69EB692
:1056D000408550E08DB79EB7841B950B0FB6F894AC
:1056E0009EBF0FBE8DBFEDB7FEB731966F011B8217
:1056F0001A82198260E070E0CF010E9410328E01A0
:105700000F5F1F4F960140E0BE016D5F7F4FC701E5
:105710000E943231582EF70184859585892B29F016
:1057200011E086859785892B09F010E0F7016680E6
:1057300077806114710491F049815A81B301C601E7
:105740000E94FA3101E0892B09F400E0F70140855D
:1057500050E0B601C3010E94073201C000E0898118
:105760009A81892BF9F0511004C0011102C010FF79
:1057700019C0F701848595859787868781818F7009
:105780008093E9008B8181118093F10069817A8196
:1057900040E050E0C6010E94F62B8091E8008E7731
:1057A0008093E8008091E4009091E500F7019387F1
:1057B00082870FB6F8949EBE0FBE8DBE0FB6F894CA
:1057C000BEBE0FBEADBE0F900F900F90DF91CF9178
:1057D0001F910F91FF90EF90DF90CF90BF90AF900F
:1057E0009F908F907F906F905F900895CF92DF92FF
:1057F000EF92FF920F931F93CF93DF93EC018B01F6
:105800007A010E94D42D811135C0E114F10439F0E0
:10581000F70180819181081B190BC80FD91FC12C7A
:10582000D12C0115110529F18091E80085FD18C0E2
:105830008091E8008E778093E8000E949630E11412
:10584000F10449F0F70180819181C80ED91ED182FF
:10585000C08285E00FC00E94D42D882311F30AC0B6
:1058600089918093F10001501109FFEFCF1ADF0AEF
:10587000D8CF80E0DF91CF911F910F91FF90EF90F3
:10588000DF90CF9008952091E7073091E807261721
:10589000370748F06115710539F42091E8002E773B
:1058A0002093E80001C0B901FC0120E061157105F9
:1058B00079F18091E0078823F1F18530F1F1809151
:1058C000E80083FD3CC08091E80082FD2EC08091FD
:1058D000E80080FFEBCF2091F3008091F20090E090
:1058E000922B6115710551F08032910538F42191A8
:1058F0002093F100615071090196F3CF21E0809768
:1059000009F020E08091E8008E778093E800CECF08
:105910002111CFCF0AC08091E007882361F0853044
:1059200061F08091E80083FD0AC08091E80082FF69
:10593000F2CF80E0089582E0089583E0089581E049
:1059400008956115710529F42091E8002B772093C3
:10595000E800FC016115710541F18091E0078823A1
:1059600061F1853061F18091E80083FD24C0809170
:10597000E80082FFEFCF2091F3008091F20090E0E9
:10598000922B892B31F08091F10081936150710944
:1059900091F78091E8008B778093E800DBCF8091CE
:1059A000E007882351F0853051F08091E80080FFB6
:1059B000F6CF80E0089581E0089582E0089583E0C5
:1059C00008952091E7073091E8072617370748F038
:1059D0006115710539F42091E8002E772093E800D5
:1059E00001C0B901FC0120E06115710591F18091C0
:1059F000E007882309F440C0853009F43FC0809156
:105A0000E80083FD3DC08091E80082FD2FC08091B9
:105A1000E80080FFE9CF2091F3008091F20090E050
:105A2000922B6115710559F08032910540F4249153
:105A30002093F1003196615071090196F2CF21E077
:105A4000809709F020E08091E8008E778093E8004D
:105A5000CBCF2111CCCF0AC08091E007882361F021
:105A6000853061F08091E80083FD0AC08091E800F4
:105A700082FFF2CF80E0089582E0089583E00895E8
:105A800081E00895982F973068F59093E900981772
:105A900039F07091EC002091ED005091F00003C0BE
:105AA000242F762F50E021FD02C09F5FECCF309174
:105AB000EB003E7F3093EB003091ED003D7F309363
:105AC000ED003091EB0031603093EB007093EC000F
:105AD0002093ED005093F0002091EE0027FDE5CFDC
