:100000000C94EB000C9413010C9413010C94130149
:100010000C9413010C9413010C9413010C94130110
:100020000C9413010C9413010C94970D0C94130170
:100030000C9413010C9413010C9413010C941301F0
:100040000C9413010C9413010C9413010C941301E0
:100050000C9413010C9413010C9413010C949B0742
:100060000C9413010C9418030C944A030C94130180
:100070000C9413010C9413010C9413010C941301B0
:100080000C9413010C9413010C9413010C941301A0
:100090000C9466050C9413010C9413010C94130139
:1000A0000C9413010C9413010C9413015E08610865
:1000B000500854085A0882088208820865086908AE
:1000C0006D087308770882087D088D0EB40EAC0F9A
:1000D000B40EAC0F000F230FAC0F7A0F890F0D0A6F
:1000E00054686973206973206120736C61766520A0
:1000F000646576696365000D0A54686973206465F8
:100100007669636520697320696E20706C6179651A
:100110007220736C6F7420000000000200090F0051
:1001200000030401000C00000000000000000000BB
:100130000000000000000004080201104080401090
:1001400020408040800802040180402010020110FD
:10015000801020404020040404040403040502022B
:100160000202040302020202060606060606040450
:100170000202020404000000002300260029002CD3
:10018000002F0000000000250028002B002E003169
:100190000000000000240027002A002D0030000984
:1001A00002200001010080FA090400000258420008
:1001B0000007058103200004070502032000041244
:1001C000011001000000205E0489022101000000EE
:1001D00001007003970711241FBECFEFDAE0DEBFE6
:1001E000CDBF11E0A0E0B1E0EAE7F2E202C0059085
:1001F0000D92AE35B107D9F723E0AEE5B1E001C00D
:100200001D92AD3EB207E1F710E0CBEED0E004C0A6
:100210002197FE010E941811C93ED107C9F70E941B
:1002200015010C943B110C9400000E94F00761E052
:1002300084E00E94830861E089E00E94830861E015
:1002400081E10E94830862E083E10E94830862E00A
:1002500084E10E94830860E089E00E94BF0860E0BA
:1002600084E00E94BF0861E081E10E94BF080E9413
:10027000E00F789426E040E251EA67E070E083EC1A
:1002800091E00E94B00283E10E94EE08EC0184E15B
:100290000E94EE08CC0FDD1F8C2B80935E0167EF70
:1002A00070E083EC91E00E94DC0360915E0170E0FD
:1002B0006F5F7F4F4AE050E083EC91E00E9498042A
:1002C0008CE8EEE3F3E0DF011D928A95E9F7609197
:1002D0005E0182ED92E00E94760740E85AE166E016
:1002E00070E082ED92E00E9489076AE971E082ED98
:1002F00092E00E9492076AEA71E082ED92E00E9429
:100300008D076EED70E083EC91E00E94DC0380913C
:10031000E4009091E50020910A0130910B01821BCD
:10032000930B049720F080E091E00E94670A0E94FE
:10033000C50FEDCF41E050E062E573E082ED92E061
:100340000E94F40641E050E063E573E082ED92E044
:100350000C94F4060F931F93CF93DF938C01CFE59A
:10036000D1E0CE018F5591408017910734F482ED92
:1003700092E00E949B068993F4CF80915F01803FB9
:1003800069F48091E00081608093E00061E081E1A8
:10039000DF91CF911F910F910C94BF088091E000E5
:1003A0008E7F8093E00080913003882321F060E00D
:1003B00081E10E94BF0884E1EFE5F1E0AEE3B3E044
:1003C00001900D928A95E1F7DF91CF911F910F91E6
:1003D0000895FC01918D228D892F90E0805C9F4FC4
:1003E000821B91098F7399270895FC01918D828D4D
:1003F000981731F0828DE80FF11D858D90E00895FA
:100400008FEF9FEF0895FC01918D828D981761F019
:10041000828DDF01A80FB11D5D968C91928D9F5F3B
:100420009F73928F90E008958FEF9FEF0895FC01E6
:10043000538D448D252F30E0842F90E0821B930B49
:10044000541710F0CF96089501970895FC01848DFC
:10045000DF01A80FB11DA35ABF4F2C91848D90E0EE
:1004600001968F739927848FA689B7892C93A089C9
:10047000B1898C9180648C93938D848D981306C080
:100480000288F389E02D80818F7D80830895EF922B
:10049000FF920F931F93CF93DF93EC0181E0888F3E
:1004A0009B8D8C8D981305C0E889F989808185FD25
:1004B00024C0F62E0B8D10E00F5F1F4F0F73112716
:1004C000E02E8C8DE8120CC00FB607FCFACFE8893D
:1004D000F989808185FFF5CFCE010E942602F1CFF8
:1004E0008B8DFE01E80FF11DE35AFF4FF0820B8F59
:1004F000EA89FB898081806207C0EE89FF89608379
:10050000E889F98980818064808381E090E0DF91CF
:10051000CF911F910F91FF90EF900895CF93DF93AC
:10052000EC01888D8823C9F0EA89FB89808185FDEB
:1005300005C0A889B9898C9186FD0FC00FB607FC4C
:10054000F5CF808185FFF2CFA889B9898C9185FF8D
:10055000EDCFCE010E942602E7CFDF91CF91089523
:10056000CF92DF92EF92FF921F93CF93DF93EC0134
:100570006A017B01122FE889F98982E080834115A5
:10058000514E61057105B1F060E079E08DE390E0D6
:10059000A70196010E94F610DA01C9010197A1098D
:1005A000B109B695A795979587959C01211580E18E
:1005B0003807A8F0E889F989108260E874E88EE1CC
:1005C00090E0A70196010E94F610DA01C901019797
:1005D000A109B109B695A795979587959C01EC85DA
:1005E000FD853083EE85FF852083188EEC89FD899B
:1005F0001083EA89FB89808180618083EA89FB8995
:10060000808188608083EA89FB898081806880831B
:10061000EA89FB8980818F7D8083DF91CF911F9153
:10062000FF90EF90DF90CF90089580E090E00895E4
:100630001F920F920FB60F9211242F938F939F93B7
:10064000EF93FF93E091D301F091D4018081E09189
:10065000D901F091DA0182FD12C090818091DC0114
:100660008F5F8F732091DD01821751F0E091DC01E3
:10067000F0E0ED53FE4F958F8093DC0101C0808147
:10068000FF91EF919F918F912F910F900FBE0F903F
:100690001F9018951F920F920FB60F9211242F934F
:1006A0003F934F935F936F937F938F939F93AF93FA
:1006B000BF93EF93FF9383EC91E00E942602FF919A
:1006C000EF91BF91AF919F918F917F916F915F91CA
:1006D0004F913F912F910F900FBE0F901F90189543
:1006E000E3ECF1E01382128288EE93E0A0E0B0E048
:1006F00084839583A683B78384E191E0918380838B
:100700008DEC90E0958784878CEC90E097878687C6
:1007100088EC90E0918B808B89EC90E0938B828BBE
:100720008AEC90E0958B848B8EEC90E0978B868B97
:10073000118E128E138E148E0895CF92DF92EF9247
:10074000FF920F931F93CF93DF936C017A018B017C
:10075000C0E0D0E0CE15DF0581F0D8016D918D01AC
:10076000D601ED91FC910190F081E02DC601099533
:10077000892B11F02196EECF7E01C701DF91CF9139
:100780001F910F91FF90EF90DF90CF90089561152A
:10079000710579F0FB0101900020E9F73197AF0175
:1007A000461B570BDC01ED91FC910280F381E02D9B
:1007B000099480E090E00895EF92FF920F931F93C9
:1007C000CF93DF938C017B01C0E0D0E0F701EC0F09
:1007D000FD1F6491662361F0D801ED91FC910190B9
:1007E000F081E02DC8010995892B11F02196EECFFB
:1007F000CE01DF91CF911F910F91FF90EF9008955F
:10080000DC01ED91FC910190F081E02D09948F9233
:100810009F92AF92BF92EF92FF920F931F93CF934D
:10082000DF93CDB7DEB7A1970FB6F894DEBF0FBE4A
:10083000CDBF7C01FA01CB0119A2223008F42AE0D5
:100840008E010F5D1F4F822E912CA12CB12CBF0168
:10085000A50194010E94F610F901CA010150110985
:100860006A3010F4605D01C0695CD8016C93232B81
:10087000242B252B61F7B801C7010E94C703A1965D
:100880000FB6F894DEBF0FBECDBFDF91CF911F91A1
:100890000F91FF90EF90BF90AF909F908F90089531
:1008A000CF92DF92EF92FF920F931F93CF93DF933C
:1008B0002115310581F4DC01ED91FC910190F0816D
:1008C000E02D642FDF91CF911F910F91FF90EF905A
:1008D000DF90CF9009942A30310501F577FF1DC0D4
:1008E0006A017B01EC016DE20E9400048C01442747
:1008F0005527BA014C195D096E097F092AE0CE011E
:100900000E940704800F911FDF91CF911F910F91DB
:10091000FF90EF90DF90CF9008952AE0DF91CF9184
:100920001F910F91FF90EF90DF90CF900C940704F0
:100930009A01AB01770F660B770B0C945004CF93A1
:10094000DF93CCEBD0E018821092D10281E080934B
:10095000CF021092CE0261E082E00E94BF0861E007
:1009600083E00E94BF08E9EBF0E080818E7F808306
:1009700080818D7F808388E48093B80085E48883BC
:10098000DF91CF910895813049F410926002109266
:100990006102109262021092630217C0809160029D
:1009A00090916102A0916202B09163020196A11D33
:1009B000B11D8093600290936102A0936202B09394
:1009C000630284E690E00E94E507809160029091C6
:1009D0006102A0916202B091630280359105A10588
:1009E000B10580F0109260021092610210926202D2
:1009F000109263020E949F0461E081E10E94BF089F
:100A000081E0089580E00895880F8093BA000895EA
:100A10009B01AC0160E074E284EF90E00E94F6106C
:100A2000DA01C9014097A109B109B695A795979533
:100A300087958093B800089540918602262F30E074
:100A4000240F311D21323105DCF42091D1022430F4
:100A5000C9F4FC0180E090E0861758F430918602DA
:100A60002191DC01A857BD4FA30FB11D2C93019616
:100A7000F3CF80918602680F6093860280E008952C
:100A800081E0089582E008959093CB028093CA029A
:100A900008959093CD028093CC02089585ED8093C4
:100AA000BC0081E00E94C3048091BC0084FF05C0AB
:100AB00080E00E94C3048823B9F31092D102089504
:100AC00085EC8093BC001092D10208951F920F9282
:100AD0000FB60F9211242F933F934F935F936F9311
:100AE0007F938F939F93AF93BF93EF93FF938091E7
:100AF000B900887F803609F49EC078F5883209F401
:100B00005DC090F4803109F456C038F4882309F4AC
:100B1000F5C0883009F44FC0F5C0883109F44EC0E3
:100B2000803209F45FC0EEC0803409F46AC058F422
:100B3000803309F457C0883309F0E4C0809364021D
:100B40000E946005DFC0803509F44FC0883509F484
:100B50005DC0883409F0D6C0D3C0883909F4C4C058
:100B6000A8F4883709F467C038F4883609F463C0FC
:100B7000803709F460C0C6C0883809F4B5C0803930
:100B800009F45FC0803809F0BDC05BC0803B09F448
:100B900083C038F4803A09F466C0883A09F47CC00E
:100BA000B1C0803C09F4A4C0883C09F4A1C0883BD2
:100BB00009F487C0A7C08091D00210C09091A9020B
:100BC0008091A802981770F5E091A90281E08E0F3C
:100BD0008093A902F0E0E655FD4F80818093BB0031
:100BE00085EC83C0809364028BC0E091A90281E010
:100BF0008E0F8093A9028091BB00F0E0E655FD4F77
:100C000080839091A9028091A8026BC0E091A90213
:100C100081E08E0F8093A9028091BB00F0E0E65541
:100C2000FD4F80838091CF0281116AC081E0809363
:100C3000CE0284EA5EC083E08093D1021092650206
:100C4000CFCF80916502803208F04EC0E0916502FE
:100C500081E08E0F809365028091BB00F0E0EA593D
:100C6000FD4F8083BDCF0E94600580916502803278
:100C700030F4E0916502F0E0EA59FD4F1082609196
:100C8000650270E0E091CA02F091CB0286E692E044
:100C900009951092650236C084E08093D1021092CB
:100CA000870210928602E091CC02F091CD02099564
:100CB00080918602811105C081E0809386021092A6
:100CC0008802E091870281E08E0F80938702F0E036
:100CD000E857FD4F80818093BB00909187028091FF
:100CE0008602981708F47CCF85E88093BC000AC080
:100CF00085EC8093BC001092D10204C01092640273
:100D00000E944E05FF91EF91BF91AF919F918F91FE
:100D10007F916F915F914F913F912F910F900FBEF7
:100D20000F901F9018958091050390E02091060385
:100D3000821B9109089590910603809105039817ED
:100D400050F4E92FF0E0E95FFC4F208130E09F5F35
:100D50009093060302C02FEF3FEFC9010895E09181
:100D6000060380910503E81730F4F0E0E95FFC4FDB
:100D7000808190E008958FEF9FEF0895CF93DF93E8
:100D8000EC01E091DE02F091DF023097F1F09091FA
:100D90000603809105039817C0F090E0292F30E0FA
:100DA0002617370754F4DE01A20FB31F4C91D90167
:100DB000A95FBC4F4C939F5FF1CF109206036093E5
:100DC0000503CB01DF91CF910994DF91CF91089575
:100DD000E091E002F091E102309729F01092E402F4
:100DE0001092E30209940895CF92DF92EF92FF925E
:100DF0000F931F93CF93DF937C01CB018A01209146
:100E0000E202222389F0EB016B01C40ED51ECC1542
:100E1000DD0569F06991D701ED91FC910190F081B8
:100E2000E02DC7010995F3CF642F0E941C05C8016E
:100E3000DF91CF911F910F91FF90EF90DF90CF90B6
:100E40000895CF93DF931F92CDB7DEB769832091CA
:100E5000E2022223D1F02091E302203240F021E08F
:100E600030E0FC013383228380E090E015C0809164
:100E7000E402E82FF0E0EB51FD4F998190838F5F02
:100E80008093E4028093E30205C061E0CE01019605
:100E90000E941C0581E090E00F90DF91CF910895B2
:100EA000109206031092050380E2E7E0F3E0DF0111
:100EB0001D928A95E9F70895FC011382128288EE4B
:100EC00093E0A0E0B0E084839583A683B78386E2B5
:100ED00091E0918380830895109206031092050398
:100EE0001092E4021092E3020C949F04CF93DF93DC
:100EF000EC01862F0E94040588EE96E00E944905C9
:100F00008EEB96E00E944405CE01DF91CF910C94C8
:100F10006C07CB01BA010C9408057093DF02609353
:100F2000DE0208957093E1026093E002089582ED7D
:100F300092E00C945C071F920F920FB60F9211244F
:100F40002F933F938F939F93AF93BF9380912803E9
:100F500090912903A0912A03B0912B03309127038C
:100F600023E0230F2D3720F40196A11DB11D05C0EC
:100F700026E8230F0296A11DB11D2093270380931D
:100F8000280390932903A0932A03B0932B03809105
:100F90002C0390912D03A0912E03B0912F03019665
:100FA000A11DB11D80932C0390932D03A0932E03BC
:100FB000B0932F03BF91AF919F918F913F912F914C
:100FC0000F900FBE0F901F9018958230910538F04A
:100FD000880F991F880F991F05970197F1F70895BA
:100FE000789484B5826084BD84B5816084BD85B504
:100FF000826085BD85B5816085BDEEE6F0E08081CB
:1010000081608083E1E8F0E01082808182608083EB
:10101000808181608083E0E8F0E08081816080836E
:10102000E1E9F0E08081826080838081816080835B
:10103000E0E9F0E0808181608083E1ECF0E0808194
:1010400084608083808182608083808181608083EE
:10105000E3ECF0E0808181608083E0ECF0E080816F
:1010600082608083E2ECF0E0808181608083EAE747
:10107000F0E08081846080838081826080838081D1
:1010800081608083808180688083089590E0FC0186
:101090003197EF30F105B0F5EA5AFF4F0C94181173
:1010A000809180008F7703C0809180008F7D809336
:1010B0008000089580918000877FF9CF84B58F7775
:1010C00002C084B58F7D84BD0895809190008F7794
:1010D00007C0809190008F7D03C080919000877F32
:1010E0008093900008958091C0008F7703C0809115
:1010F000C0008F7D8093C00008958091C200877FDB
:101100008093C2000895CF93DF9390E0FC01E95CE7
:10111000FE4F2491FC01EA5AFE4F8491882361F12D
:1011200090E0880F991FFC01EF56FE4FC591D491B6
:10113000FC01ED57FE4FA591B491611109C09FB715
:10114000F8948881209582238883EC912E230BC00C
:10115000623061F49FB7F8948881322F30958323F1
:101160008883EC912E2B2C939FBF06C08FB7F894E9
:10117000E8812E2B28838FBFDF91CF9108951F9395
:10118000CF93DF93282F30E0F901E85EFE4F849182
:10119000F901E95CFE4FD491F901EA5AFE4FC4917E
:1011A000CC23C1F0162F81110E944608EC2FF0E0ED
:1011B000EE0FFF1FED57FE4FA591B4919FB7F89426
:1011C000111104C08C91D095D82302C0EC91DE2B74
:1011D000DC939FBFDF91CF911F910895CF93DF9351
:1011E000282F30E0F901E85EFE4F8491F901E95CB7
:1011F000FE4FD491F901EA5AFE4FC491CC2391F0ED
:1012000081110E944608EC2FF0E0EE0FFF1FEB5813
:10121000FE4FA591B491EC91ED2381E090E021F493
:1012200080E002C080E090E0DF91CF9108956F925E
:101230007F928F929F92AF92BF92CF92DF92EF9266
:10124000FF920F931F93CF93DF9300D01F92CDB7E0
:10125000DEB77C01ADB6BEB68091E80083FF0CC15D
:10126000F701808190E020913A0330913B032817E9
:10127000390709F001C180913703833009F4A0C018
:1012800030F4813071F0823009F4D9C0F5C08A3071
:1012900009F4BCC08B3009F4A4C0893009F0ECC05B
:1012A00050C080913603813A09F0E6C08DB69EB6F3
:1012B0001A82198280913803109139038B83F701C8
:1012C0008085482F50E08DB79EB7841B950B0FB6D5
:1012D000F8949EBF0FBE8DBFEDB7FEB731966F017C
:1012E00060E070E0CF010E9434114FEF410F8E019A
:1012F0000F5F1F4F9601BE016D5F7F4FC7010E94B8
:101300005D10F70186819781009729F0408550E0B4
:10131000B6010E942B111092E9008091E800877FAE
:101320008093E8008B8181118093F10069817A813B
:10133000C6010E94720B8091E8008B778093E800D1
:1013400039C080913603813209F096C08DB69EB6C1
:1013500000913C0310913D03709038036090390375
:101360008DB79EB7801B910B0FB6F8949EBF0FBE32
:101370008DBFEDB7FEB731966F018091E800877F92
:101380008093E800B801CF010E94D00B8091E80063
:101390008E778093E80021E0711001C020E030E0FA
:1013A000021B130B2C0D3D1D4FEF460D672DC70182
:1013B0000E94AB100FB6F8949EBE0FBE8DBE5CC0EF
:1013C00080913603813A09F057C08091E800877F09
:1013D0008093E8008091E80080FFFCCFF7018185D1
:1013E00042C080913603813209F046C08091E80006
:1013F000877F8093E8000E94E40C9091380381E09D
:10140000911101C080E0F701818736C080913603D9
:10141000813291F58091E800877F8093E8000E94F7
:10142000E40C8091380390913903882736E0969533
:1014300087953A95E1F7F701958784871DC08091DC
:101440003603813AC9F48091E800877F8093E800F1
:101450008091E80080FFFCCFF70184859585969503
:101460008795969587958093F1008091E8008E7717
:101470008093E8000E94E40C0FB6F894BEBE0FBE45
:10148000ADBE0F900F900F90DF91CF911F910F91F4
:10149000FF90EF90DF90CF90BF90AF909F908F9094
:1014A0007F906F900895FC01399627E0DF011D922F
:1014B0002A95E9F721E0FC01218728E833E1358707
:1014C000248723E0248361E001960C94A60C5F92AC
:1014D0006F927F928F929F92AF92BF92CF92DF9244
:1014E000EF92FF920F931F93CF93DF9300D01F9241
:1014F000CDB7DEB77C01ADB6BEB680913503843082
:1015000009F08BC08091E4009091E500F7012285FD
:1015100033852817390709F480C081818F70809343
:10152000E9008091E80085FF78C08DB69EB64085C1
:1015300050E08DB79EB7841B950B0FB6F8949EBFF5
:101540000FBE8DBFEDB7FEB731966F011B821A82B9
:10155000198260E070E0CF010E9434118E010F5FAC
:101560001F4F960140E0BE016D5F7F4FC7010E9493
:101570005D10582EF70184859585892B29F011E09F
:1015800086859785892B09F010E0F70166807780C2
:101590006114710491F049815A81B301C6010E941E
:1015A0001E1101E0892B09F400E0F701408550E0AD
:1015B000B601C3010E942B1101C000E089819A810C
:1015C000892BF9F0511004C0011102C010FF19C09D
:1015D000F701848595859787868781818F708093B1
:1015E000E9008B8181118093F10069817A8140E06B
:1015F00050E0C6010E94250B8091E8008E77809311
:10160000E8008091E4009091E500F70193878287DC
:101610000FB6F8949EBE0FBE8DBE0FB6F894BEBE38
:101620000FBEADBE0F900F900F90DF91CF911F9125
:101630000F91FF90EF90DF90CF90BF90AF909F9071
:101640008F907F906F905F900895CF92DF92EF928E
:10165000FF920F931F93CF93DF93EC018B017A01DD
:101660000E94030D811135C0E114F10439F0F70136
:1016700080819181081B190BC80FD91FC12CD12C57
:101680000115110529F18091E80085FD18C08091B0
:10169000E8008E778093E8000E94C50FE114F10402
:1016A00049F0F70180819181C80ED91ED182C08294
:1016B00085E00FC00E94030D882311F30AC08991B1
:1016C0008093F10001501109FFEFCF1ADF0AD8CF44
:1016D00080E0DF91CF911F910F91FF90EF90DF900D
:1016E000CF90089520913C0330913D032617370792
:1016F00048F06115710539F42091E8002E772093A8
:10170000E80001C0B901FC0120E06115710579F123
:10171000809135038823F1F18530F1F18091E80063
:1017200083FD3CC08091E80082FD2EC08091E800DE
:1017300080FFEBCF2091F3008091F20090E0922B9C
:101740006115710551F08032910538F42191209393
:10175000F100615071090196F3CF21E0809709F003
:1017600020E08091E8008E778093E800CECF2111B1
:10177000CFCF0AC080913503882361F0853061F0B6
:101780008091E80083FD0AC08091E80082FFF2CFDB
:1017900080E0089582E0089583E0089581E008954F
:1017A0006115710529F42091E8002B772093E8005A
:1017B000FC016115710541F180913503882361F1C8
:1017C000853061F18091E80083FD24C08091E800BC
:1017D00082FFEFCF2091F3008091F20090E0922BF6
:1017E000892B31F08091F10081936150710991F75B
:1017F0008091E8008B778093E800DBCF8091350300
:10180000882351F0853051F08091E80080FFF6CFB9
:1018100080E0089581E0089582E0089583E00895CE
:1018200020913C0330913D032617370748F061159E
:10183000710539F42091E8002E772093E80001C06B
:10184000B901FC0120E06115710591F1809135032A
:10185000882309F440C0853009F43FC08091E80036
:1018600083FD3DC08091E80082FD2FC08091E8009B
:1018700080FFE9CF2091F3008091F20090E0922B5D
:101880006115710559F08032910540F4249120933F
:10189000F1003196615071090196F2CF21E08097F5
:1018A00009F020E08091E8008E778093E800CBCFAC
:1018B0002111CCCF0AC080913503882361F0853097
:1018C00061F08091E80083FD0AC08091E80082FF0A
:1018D000F2CF80E0089582E0089583E0089581E0EA
:1018E0000895982F973068F59093E900981739F08C
:1018F0007091EC002091ED005091F00003C0242F76
:10190000762F50E021FD02C09F5FECCF3091EB00BD
:101910003E7F3093EB003091ED003D7F3093ED0042
:101920003091EB0031603093EB007093EC0020932A
:10193000ED005093F0002091EE0027FDE5CF80E010
:1019400008958F708093E90081E008950F931F93AD
:10195000CF93DF93062FEC0110E0101779F1688127
:10196000611103C01F5F2596F8CF2C81A981BA8130
:101970009B81862F8F70873010F080E020C022304E
:1019800010F442E001C046E0E8E0F0E020E0EA17B1
:10199000FB0720F42F5FEE0FFF1FF9CF2295207F6A
:1019A000422B50E4959F90011124661F6627661F05
:1019B000622B0E94710C8111D5CFDFCF81E0DF91C6
:1019C000CF911F910F9108958091360387FF11C029
:1019D0008091E80082FD05C0809135038111F8CF28
:1019E00011C08091E8008B770BC08091350388236C
:1019F00049F08091E80080FFF8CF8091E8008E7771
:101A00008093E80008952091E4003091E50095E688
:101A10004091EC00842F817040FF23C08091E8004A
:101A200080FD1DC080913503882399F0853099F0A1
:101A30008091EB0085FD11C04091E4005091E500DC
:101A40002417350729F3915011F09A01E1CF84E072
:101A5000089582E0089583E0089581E0089580E08C
:101A600008954091E80042FFDDCF08950F931F9342
:101A7000CF93DF930E948A0D0E94920DC8EDD0E0B3
:101A800088818F77888388818068888388818F7D2B
:101A9000888319BC109235031092310310923303DE
:101AA0001092320300EE10E0F80180818B7F80837A
:101AB00088818160888342E260E080E00E94710C4E
:101AC000E1EEF0E080818E7F8083E2EEF0E08081C5
:101AD00081608083808188608083F80180818E7F2F
:101AE0008083888180618883DF91CF911F910F91DE
:101AF0000895E8EDF0E080818F7E8083E7EDF0E0EF
:101B000080818160808384E082BF81E080933403A0
:101B10000C94360DE8EDF0E080818E7F808310928A
:101B2000E20008951092DA001092E10008951F92E9
:101B30000F920FB60F9211242F933F934F935F9301
:101B40006F937F938F939F93AF93BF93EF93FF9385
:101B50008091E10082FF0BC08091E20082FF07C00C
:101B60008091E1008B7F8093E1000E945110809171
:101B7000DA0080FF1FC08091D80080FF1BC08091D9
:101B8000DA008E7F8093DA008091D90080FF0DC04B
:101B900080E189BD82E189BD09B400FEFDCF81E00D
:101BA000809335030E94F90F05C019BC10923503CC
:101BB0000E94FA0F8091E10080FF19C08091E2003D
:101BC00080FF15C08091E2008E7F8093E2008091BB
:101BD000E20080618093E2008091D800806280936F
:101BE000D80019BC85E0809335030E94C40F809112
:101BF000E10084FF30C08091E20084FF2CC080E1CE
:101C000089BD82E189BD09B400FEFDCF8091D80075
:101C10008F7D8093D8008091E1008F7E8093E100DA
:101C20008091E2008F7E8093E2008091E2008160EB
:101C30008093E20080913103882311F084E007C093
:101C40008091E30087FD02C081E001C083E08093C2
:101C500035030E94C40F8091E10083FF24C080916E
:101C6000E20083FF20C08091E100877F8093E10044
:101C700082E080933503109231038091E1008E7FE2
:101C80008093E1008091E2008E7F8093E20080915A
:101C9000E20080618093E20042E260E080E00E9426
:101CA000710C0E94C40FFF91EF91BF91AF919F9172
:101CB0008F917F916F915F914F913F912F910F90F5
:101CC0000FBE0F901F9018951F93CF93DF93CDB742
:101CD000DEB7AA970FB6F894DEBF0FBECDBFE6E31E
:101CE000F3E08091F100819323E0EE33F207C9F72E
:101CF0000E940C108091E80083FF2EC18091360372
:101D000090913703492F50E04A30510508F024C123
:101D1000FA01EB59FF4F0C941811803821F08238EA
:101D200009F01AC108C080913203909133039923BE
:101D300089F082600FC080913A038F70873008F07D
:101D40000BC18093E9008091EB0085FB882780F927
:101D50001092E9009091E800977F9093E8008093BB
:101D6000F1001092F100D1C0282F2D7F09F0F4C0AE
:101D7000882319F0823061F0EFC080913803813000
:101D800009F0EAC0933009F080E0809333032EC05D
:101D90008091380381112AC080913A038F702FEF10
:101DA000280F263008F0D8C08093E9002091EB007E
:101DB00020FF1CC0933021F48091EB00806214C09E
:101DC0009091EB0090619093EB0021E030E0A9014D
:101DD00002C0440F551F8A95E2F74093EA00109223
:101DE000EA008091EB0088608093EB001092E9009C
:101DF0008091E800877F8093E8000E94E40CACC0EB
:101E00008111AAC0109138031F778091E300807878
:101E1000812B8093E3008091E800877F8093E80026
:101E20000E94E40C8091E80080FFFCCF8091E300E9
:101E300080688093E300111102C082E001C083E05A
:101E40008093350389C08058823008F085C0809126
:101E50003803909139038C3D53E0950779F583E081
:101E60008A838AE289834FB7F894DE01139620E0D3
:101E70003EE051E2E32FF0E050935700E49120FF61
:101E800003C0E295EF703F5FEF708E2F90E0EA3075
:101E900010F0C79601C0C0968D939D932F5F24319B
:101EA00049F74FBF8091E800877F8093E8006AE29E
:101EB00070E0CE0101960E94720B16C060913A0349
:101EC00070913B03AE014F5F5F4F0E94CB10BC018E
:101ED000892B09F441C09091E800977F9093E80026
:101EE00089819A810E94100C8091E8008B77809301
:101EF000E80032C0803881F58091E800877F8093C8
:101F0000E800809131038093F1008091E8008E77A2
:101F100072CF811121C080913803909139039927A4
:101F20000297D4F48091E800877F8093E800809145
:101F30003803809331030E94E40C809131038111B6
:101F400006C08091E30087FD02C081E001C084E00B
:101F5000809335030E9400108091E80083FF0AC03F
:101F60008091E800877F8093E8008091EB00806299
:101F70008093EB00AA960FB6F894DEBF0FBECDBFDC
:101F8000DF91CF911F9108950895CF9380913503EC
:101F90008823A1F0C091E900CF709091EC00892FC7
:101FA000817090FD80E8C82B1092E9008091E800D4
:101FB00083FD0E94640ECF70C093E900CF91089515
:101FC00084B7877F84BF0FB6F894A895809160008E
:101FD000886180936000109260000FBE90E080E8FE
:101FE0000FB6F89480936100909361000FBE0C943B
:101FF000790D08951092300361E081E10C94BF08DF
:1020000080E091E00E94530AE2EEF0E0908194605B
:10201000908380933003089580913603813CE9F5E5
:1020200080913703863089F4809138039091390389
:102030008115924491F58091E800877F8093E800B4
:1020400060E170E08EE491E020C0813031F5809154
:10205000380390913903811521E0920751F4809162
:10206000E800877F8093E80064E170E08AE391E014
:102070000CC08115924089F48091E800877F80939D
:10208000E80066E070E084E391E00E94720B8091CA
:10209000E8008B778093E800089580E091E00C944D
:1020A000170980910E0190910F01009729F0019777
:1020B00090930F0180930E0108950F931F93F901E0
:1020C000108284E18183AEE3B3E012968C91129783
:1020D0008283138214968C911497848315968C9125
:1020E0001597858316968C911697868317968C91F3
:1020F0001797878318968C911897808719968C91DB
:10210000199781871A968C911A9782871B968C91C2
:102110001B9783871C968D919C911D97958784872B
:102120001E968D919C911F979787868750968D91CB
:102130009C915197918B808B52968D919C91539746
:10214000938B828B84E190E0F8019183808380E01F
:102150001F910F9108950F931F930630110551F4AD
:10216000F90183818093520385818093530381E039
:1021700080935403809152038F3F19F48EEF809324
:102180005203809153038F3F19F48EEF80935303D2
:102190001F910F910895CF93DF931F92CDB7DEB7B4
:1021A000292F30E02230310559F02330310569F014
:1021B0002130310581F482E190E02FEB31E00FC056
:1021C00080E290E02FE931E00AC080E090E09E01DB
:1021D0002F5F3F4F04C080E090E020E030E0FA0144
:1021E000318320830F90DF91CF910895A1E21A2EC1
:1021F000AA1BBB1BFD010DC0AA1FBB1FEE1FFF1FAB
:10220000A217B307E407F50720F0A21BB30BE40BFA
:10221000F50B661F771F881F991F1A9469F7609541
:102220007095809590959B01AC01BD01CF010895FB
:10223000EE0FFF1F0590F491E02D0994FB01DC01E6
:1022400004C08D910190801921F441505040C8F78D
:10225000881B990B0895FB01DC0102C001900D92CF
:1022600041505040D8F70895DC0101C06D934150B2
:0A2270005040E0F70895F894FFCF06
:10227A00008114000001CA031400000000000000DD
:10228A000000000047029D0317028E02E9010302C3
:10229A00F501000000002107F40615035007930614
:1022AA009B06AF060006FFFFFFFF0014FF00FFFFBB
:1022BA00FFFFFFFFFFFFFFFFFFFFFFFFFFFF1042D0
:0E22CA00000101021406FFFFFFFFFFFFFFFFF0
:00000001FF
