:100000000C94EB000C9413010C9413010C94130149
:100010000C9413010C9413010C9413010C94130110
:100020000C9413010C9413010C949C0D0C9413016B
:100030000C9413010C9413010C9413010C941301F0
:100040000C9413010C9413010C9413010C941301E0
:100050000C9413010C9413010C9413010C94A0073D
:100060000C9413010C941D030C944F030C94130176
:100070000C9413010C9413010C9413010C941301B0
:100080000C9413010C9413010C9413010C941301A0
:100090000C946B050C9413010C9413010C94130134
:1000A0000C9413010C9413010C941301630866085B
:1000B000550859085F088708870887086A086E0886
:1000C000720878087C0887088208920EB90EB10F72
:1000D000B90EB10F050F280FB10F7F0F8E0F0D0A4C
:1000E00054686973206973206120736C61766520A0
:1000F000646576696365000D0A54686973206465F8
:100100007669636520697320696E20706C6179651A
:100110007220736C6F7420000000000200090F0051
:1001200000030401000C00000000000000000000BB
:100130000000000000000004080201104080401090
:1001400020408040800802040180402010020110FD
:10015000801020404020040404040403040502022B
:100160000202040302020202060606060606040450
:100170000202020404000000002300260029002CD3
:10018000002F0000000000250028002B002E003169
:100190000000000000240027002A002D0030000984
:1001A00002200001010080FA090400000258420008
:1001B0000007058103200004070502032000041244
:1001C000011001000000205E0489022101000000EE
:1001D000010075039C0711241FBECFEFDAE0DEBFDC
:1001E000CDBF11E0A0E0B1E0ECEAF2E202C0059080
:1001F0000D92AE35B107D9F723E0AEE5B1E001C00D
:100200001D92A038B207E1F710E0CBEED0E004C0B9
:100210002197FE010E943111C93ED107C9F70E9402
:100220002C010C9454110C9400000E94CA0F809170
:100230009101811110C08091E4009091E50020911E
:100240000A0130910B01821B930B049720F080E090
:1002500091E00C946C0A08950E94F50761E089E032
:100260000E94880861E081E10E94880861E087E0DF
:100270000E94880862E083E10E94880862E084E1CD
:100280000E94880860E089E00E94C40861E081E182
:100290000E94C4080E94E50F789426E040E251EAEB
:1002A00067E070E08FEE91E00E94B50283E10E946A
:1002B000F308EC0184E10E94F308CC0FDD1F8C2BC6
:1002C0008093EE0167EF70E08FEE91E00E94E10312
:1002D0006091EE0170E06F5F7F4F4AE050E08FEE7B
:1002E00091E00E949D048CE5E2E9F1E0DF011D92BE
:1002F0008A95E9F76091EE018EEF92E00E947B070C
:1003000040E85AE166E070E08EEF92E00E948E07CE
:100310006AEA71E08EEF92E00E9497076AEB71E063
:100320008EEF92E00E9492076EED70E08FEE91E00A
:100330000E94E10380915E01803F49F084E1EEE597
:10034000F1E0A2E9B1E001900D928A95E1F70E94F7
:100350001501F0CF41E050E066EA71E08EEF92E0E7
:100360000E94F90641E050E067EA71E08EEF92E00A
:100370000C94F9060F931F93CF93DF938C01CEE576
:10038000D1E0CE018E5591408017910734F48EEF65
:1003900092E00E94A0068993F4CF80915E01803F95
:1003A00039F48091E00081608093E00061E00AC050
:1003B0008091E0008E7F8093E000809190018823FF
:1003C00041F060E081E1DF91CF911F910F910C949A
:1003D000C408DF91CF911F910F910895FC01918D79
:1003E000228D892F90E0805C9F4F821B91098F7333
:1003F00099270895FC01918D828D981731F0828D97
:10040000E80FF11D858D90E008958FEF9FEF08951F
:10041000FC01918D828D981761F0828DDF01A80F0C
:10042000B11D5D968C91928D9F5F9F73928F90E02E
:1004300008958FEF9FEF0895FC01538D448D252F74
:1004400030E0842F90E0821B930B541710F0CF966E
:10045000089501970895FC01848DDF01A80FB11D57
:10046000A35ABF4F2C91848D90E001968F739927EA
:10047000848FA689B7892C93A089B1898C918064D7
:100480008C93938D848D981306C00288F389E02D98
:1004900080818F7D80830895EF92FF920F931F9349
:1004A000CF93DF93EC0181E0888F9B8D8C8D981327
:1004B00005C0E889F989808185FD24C0F62E0B8D61
:1004C00010E00F5F1F4F0F731127E02E8C8DE81285
:1004D0000CC00FB607FCFACFE889F989808185FF47
:1004E000F5CFCE010E942B02F1CF8B8DFE01E80FDC
:1004F000F11DE35AFF4FF0820B8FEA89FB8980815F
:10050000806207C0EE89FF896083E889F98980816C
:100510008064808381E090E0DF91CF911F910F9103
:10052000FF90EF900895CF93DF93EC01888D88239F
:10053000C9F0EA89FB89808185FD05C0A889B98950
:100540008C9186FD0FC00FB607FCF5CF808185FF2B
:10055000F2CFA889B9898C9185FFEDCFCE010E9499
:100560002B02E7CFDF91CF910895CF92DF92EF92E8
:10057000FF921F93CF93DF93EC016A017B01122F4F
:10058000E889F98982E080834115514E6105710542
:10059000B1F060E079E08DE390E0A70196010E9460
:1005A0000F11DA01C9010197A109B109B695A79503
:1005B000979587959C01211580E13807A8F0E88977
:1005C000F989108260E874E88EE190E0A701960155
:1005D0000E940F11DA01C9010197A109B109B6956D
:1005E000A795979587959C01EC85FD853083EE85D1
:1005F000FF852083188EEC89FD891083EA89FB89A9
:10060000808180618083EA89FB8980818860808322
:10061000EA89FB89808180688083EA89FB898081FF
:100620008F7D8083DF91CF911F91FF90EF90DF90BE
:10063000CF90089580E090E008951F920F920FB63A
:100640000F9211242F938F939F93EF93FF93E09139
:10065000FF01F09100028081E0910502F091060215
:1006600082FD12C09081809108028F5F8F7320916C
:100670000902821751F0E0910802F0E0E151FE4FCB
:10068000958F8093080201C08081FF91EF919F9127
:100690008F912F910F900FBE0F901F9018951F9262
:1006A0000F920FB60F9211242F933F934F935F93A6
:1006B0006F937F938F939F93AF93BF93EF93FF932A
:1006C0008FEE91E00E942B02FF91EF91BF91AF91CD
:1006D0009F918F917F916F915F914F913F912F915A
:1006E0000F900FBE0F901F901895EFEEF1E0138260
:1006F000128288EE93E0A0E0B0E084839583A68325
:10070000B78384E191E0918380838DEC90E09587BD
:1007100084878CEC90E09787868788EC90E0918BBB
:10072000808B89EC90E0938B828B8AEC90E0958BA8
:10073000848B8EEC90E0978B868B118E128E138EAD
:10074000148E0895CF92DF92EF92FF920F931F9332
:10075000CF93DF936C017A018B01C0E0D0E0CE151E
:10076000DF0581F0D8016D918D01D601ED91FC91ED
:100770000190F081E02DC6010995892B11F0219699
:10078000EECF7E01C701DF91CF911F910F91FF90B6
:10079000EF90DF90CF9008956115710579F0FB011E
:1007A00001900020E9F73197AF01461B570BDC01A0
:1007B000ED91FC910280F381E02D099480E090E0BE
:1007C0000895EF92FF920F931F93CF93DF938C01C5
:1007D0007B01C0E0D0E0F701EC0FFD1F64916623C0
:1007E00061F0D801ED91FC910190F081E02DC801FC
:1007F0000995892B11F02196EECFCE01DF91CF9193
:100800001F910F91FF90EF900895DC01ED91FC9105
:100810000190F081E02D09948F929F92AF92BF9248
:10082000EF92FF920F931F93CF93DF93CDB7DEB775
:10083000A1970FB6F894DEBF0FBECDBF7C01FA01C1
:10084000CB0119A2223008F42AE08E010F5D1F4F60
:10085000822E912CA12CB12CBF01A50194010E94E4
:100860000F11F901CA01015011096A3010F4605DDD
:1008700001C0695CD8016C93232B242B252B61F7D5
:10088000B801C7010E94CC03A1960FB6F894DEBF51
:100890000FBECDBFDF91CF911F910F91FF90EF90D1
:1008A000BF90AF909F908F900895CF92DF92EF927C
:1008B000FF920F931F93CF93DF932115310581F49E
:1008C000DC01ED91FC910190F081E02D642FDF912E
:1008D000CF911F910F91FF90EF90DF90CF900994EF
:1008E0002A30310501F577FF1DC06A017B01EC015B
:1008F0006DE20E9405048C0144275527BA014C196A
:100900005D096E097F092AE0CE010E940C04800F68
:10091000911FDF91CF911F910F91FF90EF90DF908A
:10092000CF9008952AE0DF91CF911F910F91FF9012
:10093000EF90DF90CF900C940C049A01AB01770FED
:10094000660B770B0C945504CF93DF93CCEBD0E080
:1009500018821092FD0281E08093FB021092FA024D
:1009600061E082E00E94C40861E083E00E94C40864
:10097000E9EBF0E080818E7F808380818D7F8083B2
:1009800088E48093B80085E48883DF91CF9108954F
:10099000813049F410928C0210928D0210928E02D6
:1009A00010928F0217C080918C0290918D02A091BD
:1009B0008E02B0918F020196A11DB11D80938C0211
:1009C00090938D02A0938E02B0938F0284E690E004
:1009D0000E94EA0780918C0290918D02A0918E0274
:1009E000B0918F0280359105A105B10580F010927C
:1009F0008C0210928D0210928E0210928F020E9431
:100A0000A40461E081E10E94C40881E0089580E0CF
:100A10000895880F8093BA0008959B01AC0160E0AF
:100A200074E284EF90E00E940F11DA01C90140974F
:100A3000A109B109B695A795979587958093B800B8
:100A400008954091B202262F30E0240F311D21324B
:100A50003105DCF42091FD022430C9F4FC0180E072
:100A600090E0861758F43091B2022191DC01AC5429
:100A7000BD4FA30FB11D2C930196F3CF8091B2020D
:100A8000680F6093B20280E0089581E0089582E0EB
:100A900008959093F7028093F60208959093F902D7
:100AA0008093F802089585ED8093BC0081E00E9458
:100AB000C8048091BC0084FF05C080E00E94C80487
:100AC0008823B9F31092FD02089585EC8093BC0051
:100AD0001092FD0208951F920F920FB60F921124EB
:100AE0002F933F934F935F936F937F938F939F9336
:100AF000AF93BF93EF93FF938091B900887F8036C7
:100B000009F49EC078F5883209F45DC090F4803114
:100B100009F456C038F4882309F4F5C0883009F484
:100B20004FC0F5C0883109F44EC0803209F45FC06F
:100B3000EEC0803409F46AC058F4803309F457C019
:100B4000883309F0E4C0809390020E946505DFC0FD
:100B5000803509F44FC0883509F45DC0883409F048
:100B6000D6C0D3C0883909F4C4C0A8F4883709F4C2
:100B700067C038F4883609F463C0803709F460C070
:100B8000C6C0883809F4B5C0803909F45FC0803820
:100B900009F0BDC05BC0803B09F483C038F4803AE3
:100BA00009F466C0883A09F47CC0B1C0803C09F4FD
:100BB000A4C0883C09F4A1C0883B09F487C0A7C041
:100BC0008091FC0210C09091D5028091D4029817B8
:100BD00070F5E091D50281E08E0F8093D502F0E0B0
:100BE000EA52FD4F80818093BB0085EC83C08093E7
:100BF00090028BC0E091D50281E08E0F8093D502E8
:100C00008091BB00F0E0EA52FD4F80839091D502C5
:100C10008091D4026BC0E091D50281E08E0F809369
:100C2000D5028091BB00F0E0EA52FD4F80838091B5
:100C3000FB0281116AC081E08093FA0284EA5EC0FF
:100C400083E08093FD0210929102CFCF80919102B8
:100C5000803208F04EC0E091910281E08E0F8093C7
:100C600091028091BB00F0E0EE56FD4F8083BDCF36
:100C70000E94650580919102803230F4E0919102EA
:100C8000F0E0EE56FD4F10826091910270E0E0912D
:100C9000F602F091F70282E992E009951092910232
:100CA00036C084E08093FD021092B3021092B2022B
:100CB000E091F802F091F90209958091B202811158
:100CC00005C081E08093B2021092B402E091B302B9
:100CD00081E08E0F8093B302F0E0EC54FD4F8081F1
:100CE0008093BB009091B3028091B202981708F4F0
:100CF0007CCF85E88093BC000AC085EC8093BC0063
:100D00001092FD0204C0109290020E945305FF91C0
:100D1000EF91BF91AF919F918F917F916F915F9173
:100D20004F913F912F910F900FBE0F901F901895EC
:100D30008091310390E020913203821B9109089544
:100D40009091320380913103981750F4E92FF0E02D
:100D5000ED5CFC4F208130E09F5F9093320302C036
:100D60002FEF3FEFC9010895E091320380913103E5
:100D7000E81730F4F0E0ED5CFC4F808190E00895DE
:100D80008FEF9FEF0895CF93DF93EC01E0910A037B
:100D9000F0910B033097F1F0909132038091310381
:100DA0009817C0F090E0292F30E02617370754F449
:100DB000DE01A20FB31F4C91D901AD5CBC4F4C9327
:100DC0009F5FF1CF1092320360933103CB01DF912B
:100DD000CF910994DF91CF910895E0910C03F091A8
:100DE0000D03309729F01092100310920F0309940D
:100DF0000895CF92DF92EF92FF920F931F93CF93BC
:100E0000DF937C01CB018A0120910E03222389F01C
:100E1000EB016B01C40ED51ECC15DD0569F069919F
:100E2000D701ED91FC910190F081E02DC70109956A
:100E3000F3CF642F0E942105C801DF91CF911F914C
:100E40000F91FF90EF90DF90CF900895CF93DF93B5
:100E50001F92CDB7DEB7698320910E032223D1F014
:100E600020910F03203240F021E030E0FC01338379
:100E7000228380E090E015C080911003E82FF0E01D
:100E8000EF5EFC4F998190838F5F80931003809376
:100E90000F0305C061E0CE0101960E94210581E0AB
:100EA00090E00F90DF91CF9108951092320310924D
:100EB000310380E2E3E3F3E0DF011D928A95E9F775
:100EC0000895FC011382128288EE93E0A0E0B0E066
:100ED00084839583A683B78386E291E091838083A0
:100EE0000895109232031092310310921003109261
:100EF0000F030C94A404CF93DF93EC01862F0E9480
:100F000009058DEE96E00E944E0583EC96E00E9466
:100F10004905CE01DF91CF910C947107CB01BA0145
:100F20000C940D0570930B0360930A03089570935E
:100F30000D0360930C0308958EEF92E00C9461070B
:100F40001F920F920FB60F9211242F933F938F93FE
:100F50009F93AF93BF938091540390915503A091B9
:100F60005603B09157033091530323E0230F2D37DD
:100F700020F40196A11DB11D05C026E8230F02969D
:100F8000A11DB11D209353038093540390935503E7
:100F9000A0935603B093570380915803909159033F
:100FA000A0915A03B0915B030196A11DB11D8093DE
:100FB000580390935903A0935A03B0935B03BF91D6
:100FC000AF919F918F913F912F910F900FBE0F90F6
:100FD0001F9018958230910538F0880F991F880F5F
:100FE000991F05970197F1F70895789484B5826069
:100FF00084BD84B5816084BD85B5826085BD85B5BD
:10100000816085BDEEE6F0E0808181608083E1E86B
:10101000F0E01082808182608083808181608083A3
:10102000E0E8F0E0808181608083E1E9F0E08081A8
:1010300082608083808181608083E0E9F0E080814C
:1010400081608083E1ECF0E0808184608083808136
:1010500082608083808181608083E3ECF0E0808126
:1010600081608083E0ECF0E0808182608083E2EC4C
:10107000F0E0808181608083EAE7F0E08081846035
:101080008083808182608083808181608083808191
:1010900080688083089590E0FC013197EF30F1057E
:1010A000B0F5EA5AFF4F0C943111809180008F7790
:1010B00003C0809180008F7D80938000089580918F
:1010C0008000877FF9CF84B58F7702C084B58F7D8C
:1010D00084BD0895809190008F7707C08091900023
:1010E0008F7D03C080919000877F8093900008954A
:1010F0008091C0008F7703C08091C0008F7D809366
:10110000C00008958091C200877F8093C200089537
:10111000CF93DF9390E0FC01E95CFE4F2491FC014A
:10112000EA5AFE4F8491882361F190E0880F991F5D
:10113000FC01EF56FE4FC591D491FC01ED57FE4FD7
:10114000A591B491611109C09FB7F8948881209549
:1011500082238883EC912E230BC0623061F49FB709
:10116000F8948881322F309583238883EC912E2B3D
:101170002C939FBF06C08FB7F894E8812E2B28834D
:101180008FBFDF91CF9108951F93CF93DF93282FC7
:1011900030E0F901E85EFE4F8491F901E95CFE4F11
:1011A000D491F901EA5AFE4FC491CC23C1F0162F15
:1011B00081110E944B08EC2FF0E0EE0FFF1FED575E
:1011C000FE4FA591B4919FB7F894111104C08C9172
:1011D000D095D82302C0EC91DE2BDC939FBFDF912A
:1011E000CF911F910895CF93DF93282F30E0F9011D
:1011F000E85EFE4F8491F901E95CFE4FD491F9015C
:10120000EA5AFE4FC491CC2391F081110E944B0801
:10121000EC2FF0E0EE0FFF1FEB58FE4FA591B491BD
:10122000EC91ED2381E090E021F480E002C080E0C9
:1012300090E0DF91CF9108956F927F928F929F926D
:10124000AF92BF92CF92DF92EF92FF920F931F93D4
:10125000CF93DF9300D01F92CDB7DEB77C01ADB640
:10126000BEB68091E80083FF0CC1F701808190E059
:1012700020916503309166032817390709F001C1F1
:1012800080916203833009F4A0C030F4813071F0A2
:10129000823009F4D9C0F5C08A3009F4BCC08B3063
:1012A00009F4A4C0893009F0ECC050C080916103FA
:1012B000813A09F0E6C08DB69EB61A8219828091F5
:1012C0006303109164038B83F7018085482F50E0FE
:1012D0008DB79EB7841B950B0FB6F8949EBF0FBEBB
:1012E0008DBFEDB7FEB731966F0160E070E0CF01C2
:1012F0000E944D114FEF410F8E010F5F1F4F96015E
:10130000BE016D5F7F4FC7010E947E10F70186818D
:101310009781009729F0408550E0B6010E94441162
:101320001092E9008091E800877F8093E8008B812C
:1013300081118093F10069817A81C6010E94770B47
:101340008091E8008B778093E80039C08091610339
:10135000813209F096C08DB69EB600916703109158
:10136000680370906303609064038DB79EB7801B21
:10137000910B0FB6F8949EBF0FBE8DBFEDB7FEB7B1
:1013800031966F018091E800877F8093E800B80173
:10139000CF010E94D50B8091E8008E778093E80002
:1013A00021E0711001C020E030E0021B130B2C0D76
:1013B0003D1D4FEF460D672DC7010E94C5100FB6AA
:1013C000F8949EBE0FBE8DBE5CC080916103813AD1
:1013D00009F057C08091E800877F8093E8008091F2
:1013E000E80080FFFCCFF701818542C08091610356
:1013F000813209F046C08091E800877F8093E80041
:101400000E94E90C9091630381E0911101C080E09A
:10141000F701818736C080916103813291F5809117
:10142000E800877F8093E8000E94E90C80916303C5
:1014300090916403882736E0969587953A95E1F771
:10144000F701958784871DC080916103813AC9F4B3
:101450008091E800877F8093E8008091E80080FF1A
:10146000FCCFF70184859585969587959695879508
:101470008093F1008091E8008E778093E8000E94CD
:10148000E90C0FB6F894BEBE0FBEADBE0F900F9024
:101490000F90DF91CF911F910F91FF90EF90DF9010
:1014A000CF90BF90AF909F908F907F906F90089556
:1014B000FC01399627E0DF011D922A95E9F721E02A
:1014C000FC01218728E833E13587248723E0248342
:1014D00061E001960C94AB0C5F926F927F928F92B9
:1014E0009F92AF92BF92CF92DF92EF92FF920F93B3
:1014F0001F93CF93DF9300D01F92CDB7DEB77C014F
:10150000ADB6BEB680916003843009F08BC0809187
:10151000E4009091E500F70122853385281739070B
:1015200009F480C081818F708093E9008091E80088
:1015300085FF78C08DB69EB6408550E08DB79EB7CA
:10154000841B950B0FB6F8949EBF0FBE8DBFEDB7F1
:10155000FEB731966F011B821A82198260E070E03B
:10156000CF010E944D118E010F5F1F4F960140E089
:10157000BE016D5F7F4FC7010E947E10582EF7019C
:1015800084859585892B29F011E086859785892B9F
:1015900009F010E0F701668077806114710491F022
:1015A00049815A81B301C6010E94371101E0892B9C
:1015B00009F400E0F701408550E0B601C3010E9444
:1015C000441101C000E089819A81892BF9F0511002
:1015D00004C0011102C010FF19C0F7018485958570
:1015E0009787868781818F708093E9008B81811135
:1015F0008093F10069817A8140E050E0C6010E9449
:101600002A0B8091E8008E778093E8008091E400B7
:101610009091E500F701938782870FB6F8949EBEFC
:101620000FBE8DBE0FB6F894BEBE0FBEADBE0F90FE
:101630000F900F90DF91CF911F910F91FF90EF903E
:10164000DF90CF90BF90AF909F908F907F906F90E2
:101650005F900895CF92DF92EF92FF920F931F93C6
:10166000CF93DF93EC018B017A010E94080D811169
:1016700035C0E114F10439F0F70180819181081B34
:10168000190BC80FD91FC12CD12C0115110529F137
:101690008091E80085FD18C08091E8008E778093E6
:1016A000E8000E94CA0FE114F10449F0F7018081BB
:1016B0009181C80ED91ED182C08285E00FC00E94E0
:1016C000080D882311F30AC089918093F10001501D
:1016D0001109FFEFCF1ADF0AD8CF80E0DF91CF9159
:1016E0001F910F91FF90EF90DF90CF900895209180
:1016F0006703309168032617370748F061157105B5
:1017000039F42091E8002E772093E80001C0B90158
:10171000FC0120E06115710579F180916003882357
:10172000F1F18530F1F18091E80083FD3CC08091BA
:10173000E80082FD2EC08091E80080FFEBCF209171
:10174000F3008091F20090E0922B6115710551F049
:101750008032910538F421912093F1006150710994
:101760000196F3CF21E0809709F020E08091E80016
:101770008E778093E800CECF2111CFCF0AC0809121
:101780006003882361F0853061F08091E80083FD7B
:101790000AC08091E80082FFF2CF80E0089582E0E5
:1017A000089583E0089581E008956115710529F495
:1017B0002091E8002B772093E800FC01611571056A
:1017C00041F180916003882361F1853061F180915E
:1017D000E80083FD24C08091E80082FFEFCF2091D4
:1017E000F3008091F20090E0922B892B31F08091F0
:1017F000F10081936150710991F78091E8008B7736
:101800008093E800DBCF80916003882351F085301E
:1018100051F08091E80080FFF6CF80E0089581E0EC
:10182000089582E0089583E0089520916703309140
:1018300068032617370748F06115710539F42091C0
:10184000E8002E772093E80001C0B901FC0120E0F8
:101850006115710591F180916003882309F440C0FE
:10186000853009F43FC08091E80083FD3DC0809140
:10187000E80082FD2FC08091E80080FFE9CF209131
:10188000F3008091F20090E0922B6115710559F000
:101890008032910540F424912093F10031966150FB
:1018A00071090196F2CF21E0809709F020E0809144
:1018B000E8008E778093E800CBCF2111CCCF0AC00F
:1018C00080916003882361F0853061F08091E800A9
:1018D00083FD0AC08091E80082FFF2CF80E0089586
:1018E00082E0089583E0089581E00895982F97306D
:1018F00068F59093E900981739F07091EC00209109
:10190000ED005091F00003C0242F762F50E021FD10
:1019100002C09F5FECCF3091EB003E7F3093EB0035
:101920003091ED003D7F3093ED003091EB00316060
:101930003093EB007093EC002093ED005093F00097
:101940002091EE0027FDE5CF80E008958F70809311
:10195000E90081E008950F931F93CF93DF93062F43
:10196000EC0110E0101779F16881611103C01F5F6D
:101970002596F8CF2C81A981BA819B81862F8F7003
:10198000873010F080E020C0223010F442E001C027
:1019900046E0E8E0F0E020E0EA17FB0720F42F5FE4
:1019A000EE0FFF1FF9CF2295207F422B50E4959F29
:1019B00090011124661F6627661F622B0E94760C19
:1019C0008111D5CFDFCF81E0DF91CF911F910F91B2
:1019D00008958091610387FF11C08091E80082FD26
:1019E00005C0809160038111F8CF11C08091E8009B
:1019F0008B770BC080916003882349F08091E800C9
:101A000080FFF8CF8091E8008E778093E8000895FA
:101A10002091E4003091E50095E64091EC00842FA0
:101A2000817040FF23C08091E80080FD1DC080913F
:101A30006003882399F0853099F08091EB0085FD53
:101A400011C04091E4005091E5002417350729F3B7
:101A5000915011F09A01E1CF84E0089582E0089559
:101A600083E0089581E0089580E008954091E800C2
:101A700042FFDDCF08950F931F93CF93DF930E9412
:101A80008F0D0E94970DC8EDD0E088818F778883F5
:101A900088818068888388818F7D888319BC1092B3
:101AA000600310925C0310925E0310925D0300EEDF
:101AB00010E0F80180818B7F80838881816088833A
:101AC00042E260E080E00E94760CE1EEF0E080818E
:101AD0008E7F8083E2EEF0E0808181608083808170
:101AE00088608083F80180818E7F80838881806117
:101AF0008883DF91CF911F910F910895E8EDF0E079
:101B000080818F7E8083E7EDF0E08081816080833B
:101B100084E082BF81E080935F030C943B0DE8ED8D
:101B2000F0E080818E7F80831092E2000895109211
:101B3000DA001092E10008951F920F920FB60F92F3
:101B400011242F933F934F935F936F937F938F93C2
:101B50009F93AF93BF93EF93FF938091E10082FF38
:101B60000BC08091E20082FF07C08091E1008B7F73
:101B70008093E1000E946E108091DA0080FF1FC008
:101B80008091D80080FF1BC08091DA008E7F809307
:101B9000DA008091D90080FF0DC080E189BD82E12B
:101BA00089BD09B400FEFDCF81E0809360030E94EF
:101BB000FE0F05C019BC109260030E94FF0F8091B8
:101BC000E10080FF19C08091E20080FF15C0809184
:101BD000E2008E7F8093E2008091E200806180933A
:101BE000E2008091D80080628093D80019BC85E023
:101BF000809360030E94C90F8091E10084FF30C090
:101C00008091E20084FF2CC080E189BD82E189BD22
:101C100009B400FEFDCF8091D8008F7D8093D8005D
:101C20008091E1008F7E8093E1008091E2008F7EC1
:101C30008093E2008091E20081608093E2008091D5
:101C40005C03882311F084E007C08091E30087FDE6
:101C500002C081E001C083E0809360030E94C90F4D
:101C60008091E10083FF24C08091E20083FF20C0C7
:101C70008091E100877F8093E10082E080936003A0
:101C800010925C038091E1008E7F8093E10080914F
:101C9000E2008E7F8093E2008091E2008061809379
:101CA000E20042E260E080E00E94760C0E94C90FF0
:101CB000FF91EF91BF91AF919F918F917F916F9124
:101CC0005F914F913F912F910F900FBE0F901F90FA
:101CD00018951F93CF93DF93CDB7DEB7AA970FB6B2
:101CE000F894DEBF0FBECDBFE1E6F3E08091F100D6
:101CF000819323E0E936F207C9F70E94171080911B
:101D0000E80083FF2EC18091610390916203492F07
:101D100050E04A30510508F024C1FA01EB59FF4F59
:101D20000C943111803821F0823809F01AC108C0B2
:101D300080915D0390915E03992389F082600FC0CA
:101D4000809165038F70873008F00BC18093E900A4
:101D50008091EB0085FB882780F91092E900909133
:101D6000E800977F9093E8008093F1001092F100D3
:101D7000D1C0282F2D7F09F0F4C0882319F08230BC
:101D800061F0EFC080916303813009F0EAC09330C5
:101D900009F080E080935E032EC08091630381117F
:101DA0002AC0809165038F702FEF280F263008F02E
:101DB000D8C08093E9002091EB0020FF1CC0933035
:101DC00021F48091EB00806214C09091EB0090614F
:101DD0009093EB0021E030E0A90102C0440F551FB1
:101DE0008A95E2F74093EA001092EA008091EB00B6
:101DF00088608093EB001092E9008091E800877F73
:101E00008093E8000E94E90CACC08111AAC0109137
:101E100063031F778091E3008078812B8093E30038
:101E20008091E800877F8093E8000E94E90C809110
:101E3000E80080FFFCCF8091E30080688093E3009E
:101E4000111102C082E001C083E08093600389C069
:101E50008058823008F085C08091630390916403BC
:101E60008C3D53E0950779F583E08A838AE2898384
:101E70004FB7F894DE01139620E03EE051E2E32FE5
:101E8000F0E050935700E49120FF03C0E295EF701B
:101E90003F5FEF708E2F90E0EA3010F0C79601C0E0
:101EA000C0968D939D932F5F243149F74FBF80914A
:101EB000E800877F8093E8006AE270E0CE01019637
:101EC0000E94770B16C06091650370916603AE01A6
:101ED0004F5F5F4F0E94DB10BC01892B09F441C0AA
:101EE0009091E800977F9093E80089819A810E9401
:101EF000150C8091E8008B778093E80032C0803821
:101F000081F58091E800877F8093E80080915C03F1
:101F10008093F1008091E8008E7772CF811121C00B
:101F2000809163039091640399270297D4F4809180
:101F3000E800877F8093E8008091630380935C03CF
:101F40000E94E90C80915C03811106C08091E3003E
:101F500087FD02C081E001C084E0809360030E949D
:101F600005108091E80083FF0AC08091E800877F18
:101F70008093E8008091EB0080628093EB00AA964A
:101F80000FB6F894DEBF0FBECDBFDF91CF911F918A
:101F900008950895CF93809160038823A1F0C091A4
:101FA000E900CF709091EC00892F817090FD80E85E
:101FB000C82B1092E9008091E80083FD0E94690E11
:101FC000CF70C093E900CF91089584B7877F84BF15
:101FD0000FB6F894A89580916000886180936000A6
:101FE000109260000FBE90E080E80FB6F8948093E6
:101FF0006100909361000FBE0C947E0D08951092C5
:10200000900161E081E10C94C408809191018111FB
:1020100005C080E091E00E94580A01C081E09091E3
:10202000E20094609093E200809390010895809183
:102030006103813C09F049C0809162038630A9F4B4
:10204000809163039091640381159244F1F580912E
:10205000E800877F8093E8008091910181112FC073
:1020600060E170E08EE491E028C0813071F58091EC
:10207000630390916403811521E0920771F48091CC
:10208000E800877F8093E80080919101811117C05B
:1020900064E170E08AE391E010C081159240A9F4F8
:1020A0008091E800877F8093E80080919101811101
:1020B00006C066E070E084E391E00E94770B8091B7
:1020C000E8008B778093E800089580919101811159
:1020D00004C080E091E00C941C0908958091910166
:1020E00081110BC080910E0190910F01009729F092
:1020F000019790930F0180930E0108950F931F9302
:10210000F9018091910181113CC0108284E18183A9
:1021100080919401828313828091960184838091BF
:1021200097018583809198018683809199018783A7
:1021300080919A01808780919B01818780919C0189
:10214000828780919D01838780919E0190919F015C
:10215000958784878091A0019091A10197878687B8
:102160008091A2019091A301918B808B8091A40119
:102170009091A501938B828B84E190E0F80191838B
:10218000808380E01F910F9108950F931F9380919A
:10219000910181110DC00630110551F4F9018381BF
:1021A0008093A60185818093A70181E08093A80197
:1021B0001F910F910895CF93DF931F92CDB7DEB794
:1021C000292F30E022303105B1F02330310521F0E4
:1021D00021303105C9F406C080E090E09E012F5FF8
:1021E0003F4F16C08091910181110EC082E190E0B5
:1021F0002FEB31E00DC080919101811105C080E28B
:1022000090E02FE931E004C080E090E020E030E091
:10221000FA01318320830F90DF91CF910895A1E2DD
:102220001A2EAA1BBB1BFD010DC0AA1FBB1FEE1F50
:10223000FF1FA217B307E407F50720F0A21BB30B9B
:10224000E40BF50B661F771F881F991F1A9469F717
:1022500060957095809590959B01AC01BD01CF0173
:102260000895EE0FFF1F0590F491E02D0994FB01F6
:10227000DC0104C08D910190801921F4415050403F
:10228000C8F7881B990B0895FB01DC0102C001907F
:102290000D9241505040D8F70895DC0101C06D9374
:0C22A00041505040E0F70895F894FFCF43
:1022AC000081140000016903170000000000000009
:1022BC00000000004C02A2031C029302EE01080273
:1022CC00FA01000000002607F9061A0355079806C4
:1022DC00A006B4060006FFFFFFFF0014FF00FFFF7F
:1022EC00FFFFFFFFFFFFFFFFFFFFFFFFFFFF10429E
:0E22FC00000101021406FFFFFFFFFFFFFFFFBE
:00000001FF
