:100000000C9412010C943A010C943A010C943A01AC
:100010000C943A010C943A010C943A010C943A0174
:100020000C943A010C943A010C94CC300C943A01A3
:100030000C943A010C943A010C943A010C943A0154
:100040000C943A010C943A010C943A010C943A0144
:100050000C943A010C943A010C943A010C94EB1371
:100060000C943A010C943A0F0C946C0F0C943A01D6
:100070000C943A010C943A010C943A010C943A0114
:100080000C943A010C943A010C943A010C943A0104
:100090000C9485110C943A010C943A010C943A0199
:1000A0000C943A010C943A010C943A011B151E155C
:1000B0000D15111517153F153F153F15221526155E
:1000C0002A15301534153F153A15C231E931E132A0
:1000D000E931E13235325832E132AF32BE3200001E
:1000E000000200090F0000030401000C00000000E2
:1000F00000000000000000000000000000040802F2
:10010000011040804010204080408008020401809F
:1001100040201002011080102040402004040404FC
:10012000040304050202020204030202020206069C
:10013000060606060404020202040400000000236E
:1001400000260029002C002F0000000000250028B8
:10015000002B002E00310000000000240027002AA0
:10016000002D003000000100080002000400200003
:10017000100040008000000000010002002000107C
:100180000040008000040008000002030405010094
:100190000100080002000400200010004000800060
:1001A0000000000100020020001000400080000458
:1001B00000080000020304050109022000010100FB
:1001C00080FA09040000025842000007058203205B
:1001D00000040705010320000412011001000000C3
:1001E000207B0A00D000010000000109022000016C
:1001F000010080FA0904000002584200000705814E
:10020000032000040705020320000412011001006E
:100210000000205E04890221010000000100E002CC
:10022000920FE71311241FBECFEFDAE0DEBFCDBF80
:1002300012E0A0E0B1E0EAEBFAE602C005900D9210
:10024000AE33B107D9F727E0AEE3B2E001C01D92AB
:10025000A03AB207E1F711E0C2E1D1E004C0219772
:10026000FE010E941B35CF30D107C9F70E94080359
:100270000C945B350C940000DF92EF92FF920F9389
:100280001F93CF93DF937C018C01C0E0D0E0F80195
:10029000D1908F01CE010E944535D81621F06D2DE9
:1002A000CE010E944D352196C430D10581F7C7019A
:1002B000DF91CF911F910F91FF90EF90DF90089504
:1002C000EF92FF920F931F93CF93DF937C018C01EA
:1002D000C0E0D0E0CE010E944535F80181938F0146
:1002E0002196C430D105B1F7C701DF91CF911F919D
:1002F0000F91FF90EF9008950E94FA32809194053B
:10030000882319F0813081F008958091E400909164
:10031000E5002091340130913501821B930B049745
:1003200098F08AE291E00EC08091E4009091E5009F
:100330002091240130912501821B930B049720F01A
:100340008AE191E00C944F2D0895462F262F30E03E
:10035000F901ED53FC4F9789992329F0682F83EC1D
:1003600093E00C94CD24220F331FF901EE5EFE4F73
:100370000190F081E02D9281992321F0682FCF0127
:100380000C94912980E00895462F262F30E0F90142
:10039000ED53FC4F9789992329F0682F83EC93E064
:1003A0000C94A225220F331FF901EE5EFE4F01903F
:1003B000F081E02D9281992321F0682FCF010C94D8
:1003C000BA2980E090E008950F931F93CF93DF93B5
:1003D000182F062F242FC42FD0E0FE01ED53FC4F21
:1003E0008789882331F0462F612F83EC93E00E94A8
:1003F0006826CC0FDD1FCE5EDE4F88819981FC011F
:100400002281222341F0402F612FDF91CF911F9154
:100410000F910C94EE29DF91CF911F910F910895C8
:100420001F93CF93DF93182F462FC62FD0E0FE01E6
:10043000ED53FC4F8789882329F0612F83EC93E0EB
:100440000E94FF25CC0FDD1FCE5EDE4F8881998193
:10045000FC012281222331F0612FDF91CF911F9186
:100460000C94E129DF91CF911F91089590E0FC0158
:10047000ED53FC4F278921110AC0880F991FFC01F9
:10048000EE5EFE4F0190F081E02D8281089581E0C3
:1004900008952E9A08952E988EBD0DB407FEFDCFB7
:1004A0001EBC0DB407FEFDCF0E9449028EB5089513
:1004B0002E9882608EBD0DB407FEFDCF6EBD0DB4CB
:1004C00007FEFDCF0C94490288EF0E944B02807C0E
:1004D0008034A1F018F4882301F10895803819F0D0
:1004E000803CB9F0089588ED0E944B0281FD0BC05D
:1004F00069EC88ED0E94580282E00CC088ED0E94F1
:100500004B0281FDF5CF6BEC88ED0E94580283E031
:1005100001C081E080938202089561ED88ED0E9420
:1005200058021092820208950F931F93CF93DF9386
:100530008C01269A0E944902219A229A2398209A95
:1005400080E58CBD1DBC259868E188E80E945802B2
:1005500060E288E70E94580260E088E70E94580243
:10056000C0E0D0E088E60E944B02219680FD06C0E4
:10057000CF3F8FEFD807B1F78FEF1DC061EC88ED4B
:100580000E94580260E680ED0E94580264E088EE06
:100590000E94580288EE0E944B0282FFFBCFC801E6
:1005A0000E94640260E288EC0E94580261E080E8E8
:1005B0000E94580280E0DF91CF911F910F91089522
:1005C00084EE94E00E94AF1664EE74E083ED94E054
:1005D0000E94752164EE74E083EC93E00E946B242A
:1005E00064EE74E083E793E00E94CF2864EE74E049
:1005F00083E293E00E94CF2864EE74E083ED92E002
:100600000E94CF2864EE74E083E892E00C94CF2837
:10061000CF93DF93CDB7DEB72A970FB6F894DEBF3E
:100620000FBECDBF0E94AD1461E089E00E9440156D
:1006300061E081E10E94401562E083E10E94401583
:1006400062E084E10E94401560E089E00E947C1530
:1006500061E081E10E947C150E941533789483E16A
:100660000E94AB158C0184E10E94AB15000F111F95
:10067000802B8093F1058CE5E5E9F5E0DF011D9223
:100680008A95E9F760E971E080E090E00E946614E5
:1006900060E089E00E947C1564E170E080E090E019
:1006A0000E94661461E089E00E947C1564E170E0BC
:1006B00080E090E00E94661484EE94E00E94940230
:1006C0008F3F89F481E10E94AB1561E0892B09F02D
:1006D00060E081E10E947C1564EF71E080E090E0D1
:1006E0000E946614EFCF81E097E00E94551340E826
:1006F0005AE166E070E081E097E00E945F13A5EDAB
:10070000B3E0E3ECF3E08FEF91E0828383838483B3
:1007100085839D93349623E0E33DF207B1F780E2B1
:1007200090E00E9445358B3A49F06BEA80E290E018
:100730000E944D358EE091E00E943C0184EE94E0F1
:100740000E9464028EE392E09A878987AEE6B2E067
:10075000B887AF838BE8882E85E0982EEEE4F2E030
:10076000FE83ED839EE5292E92E0392E23ECC22EE6
:1007700023E0D22E560105E915E0F12C412C30E89A
:10078000532E612C712C84EE94E00E94151E8F2D47
:100790000E943602882309F424C680919405882398
:1007A00019F0FF2009F4DBC0D80112961C926F2DBE
:1007B00080E00E94A501882321F0F80182818160F8
:1007C00082836F2D82E00E94A501882339F0D80131
:1007D00012968C911297826012968C936F2D83E003
:1007E0000E94A501882321F0F80182818460828320
:1007F0006F2D81E00E94A501882339F0D80112965F
:100800008C911297886012968C936F2D85E00E94D0
:10081000A501882321F0F8018281806182836F2DF8
:1008200084E00E94A501882339F0D80112968C91AA
:100830001297806212968C936F2D86E00E94A5011C
:10084000882321F0F8018281806482836F2D87E004
:100850000E94A501882339F0D80112968C91129735
:10086000806812968C936F2D8DE00E94A5018823DD
:1008700021F08FEFF801848303C0D80114961C92F5
:100880006F2D8CE00E94A501882321F08FEFF801E5
:10089000858303C0D80115961C926F2D8EE00E94AF
:1008A000A501882321F08FEFF801868303C0D801CA
:1008B00016961C926F2D8FE00E94A501882321F0CF
:1008C0008FEFF801878303C0D80117961C926F2D14
:1008D0008AE00E94A501882321F08FEFF80181872B
:1008E00003C0D80119961C926F2D8BE00E94A501C0
:1008F000882321F08FEFF801808703C0D801189674
:100900001C926F2D88E00E94A501F80182876F2D4F
:1009100089E00E94A501D8011B968C936F2D80E081
:100920000E94C401F801958784876F2D81E00E94A1
:10093000C401D8011F969C938E931E976F2D82E061
:100940000E94C401F801918B808B6F2D83E00E947F
:10095000C401D80153969C938E935297CDC3813096
:1009600009F0CAC38091DA03882309F4C5C3109241
:1009700097051092740510927305109276051092E7
:10098000750580917705909178058C7F9093780517
:100990008093770540E065E083EC93E00E94CD24EE
:1009A000882349F080917305909174058064909339
:1009B00074058093730540E06AE083EC93E00E9445
:1009C000CD24882349F0809173059091740582604D
:1009D000909374058093730540E066E083EC93E0A8
:1009E0000E94CD24882309F45FC0809177059091FF
:1009F00078058260909378058093770580917E02D8
:100A000090917F02A0918002B0918102892B8A2B64
:100A10008B2B29F580910A0190910B01A0910C017B
:100A2000B0910D0181159048A105B10569F480913F
:100A3000060190910701A0910801B091090181156B
:100A40009048A105B10559F00E94351460937E02CB
:100A500070937F0280938002909381022DC00E9448
:100A6000351420917E0230917F0240918002509196
:100A70008102DC01CB01821B930BA40BB50B853FDC
:100A80009140A105B105C0F04092060150920701C6
:100A9000609208017092090140920A0150920B0184
:100AA00060920C0170920D0110927E0210927F02F2
:100AB000109280021092810240E067E083EC93E0A4
:100AC0000E94CD248111D7C440E06CE083EC93E018
:100AD0000E94CD248111CFC440E06BE083EC93E011
:100AE0000E94CD248111D1C440E06DE083EC93E0FD
:100AF0000E94CD248111C9C440E060E183EC93E001
:100B00000E94CD248111CBC440E065E683EC93E0E4
:100B10000E9449258111C3C480916405982F907F5C
:100B200029F09093AA0591E09093AB05982F9F70C0
:100B3000E1F030E1839FC00111248093A9058093E7
:100B4000AA0581E08093AB0540E06EE083EC93E082
:100B50000E94CD24882349F08091750590917605F7
:100B60008260909376058093750580916905982F32
:100B70009F70E1F0A0E18A9FC00111248093A90534
:100B80008093AA0581E08093AB0540E06EE083ECA2
:100B900093E00E94CD24882349F0809175059091BF
:100BA000760598609093760580937505809163052E
:100BB000807F89F040E06EE083EC93E00E94CD24DA
:100BC000882349F080917505909176058160909316
:100BD00076058093750580915D05982F9F7059F07B
:100BE000B0E18B9FC00111248093A9058093AA05D1
:100BF00081E08093AB0540E068E083EC93E00E94E5
:100C00004925811109C040E064E083EC93E00E9433
:100C1000CD24882309F45CC540E067E183EC93E0D0
:100C20000E944925882349F08091750590917605A9
:100C30009061909376058093750540E066E183ECC2
:100C400093E00E944925882349F080917505909191
:100C500076059062909376058093750540E065E196
:100C600083EC93E00E944925882349F08091750523
:100C7000909176059064909376058093750540E099
:100C800064E183EC93E00E944925882349F0809138
:100C9000750590917605906890937605809375051B
:100CA00040E063E183EC93E00E944925882349F00A
:100CB0008091770590917805816090937805809375
:100CC000770540E060E083EC93E00E940E258111FF
:100CD000BCC540E061E083EC93E00E940E258111E9
:100CE000B4C540E062E083EC93E00E940E258111E0
:100CF000B2C540E063E083EC93E00E940E258111D1
:100D0000AAC58091890580311CF08FE08093890508
:100D10008091890587FD1092890540E067E283ECA8
:100D200093E00E946125882351F08091770590918E
:100D30007805E8E08E27909378058093770540E06A
:100D400067E383EC93E00E946125882351F0809152
:100D5000770590917805F4E08F279093780580933C
:100D6000770540E066E283EC93E00E9461258823EA
:100D700051F0809177059091780520E48227909337
:100D800078058093770540E066E383EC93E00E946A
:100D90006125882351F0809177059091780530E2A4
:100DA0008327909378058093770540E066E483EC91
:100DB00093E00E946125882351F0809177059091FE
:100DC0007805A0E18A27909378058093770540E025
:100DD00065E383EC93E00E944925882349F08091E4
:100DE00075059091760581609093760580937505E1
:100DF00040E064E383EC93E00E944925882349F0B6
:100E00008091750590917605826090937605809328
:100E1000750540E061E083EC93E00E94612581115B
:100E200048C340E063E383EC93E00E9449258111CD
:100E30004DC540E06FE083EC93E00E94CD2481112A
:100E400045C540E065E483EC93E00E9449258111AB
:100E500047C540E061E583EC93E00E94492581119C
:100E60003FC540E064E483EC93E00E944925811192
:100E700041C540E065E583EC93E00E94492581117E
:100E800039C540E063E483EC93E00E944925811179
:100E90003BC540E064E583EC93E00E944925811165
:100EA00033C540E061E283EC93E00E94492588234A
:100EB00049F0809173059091740580689093740552
:100EC0008093730540E061E383EC93E00E94492541
:100ED000882349F0809173059091740592609093F6
:100EE00074058093730540E061E483EC93E00E9415
:100EF0004925882349F08091730590917405986085
:100F0000909374058093730540E066E783EC93E06B
:100F10000E944925882349F08091730590917405BA
:100F20009160909374058093730540E067E783ECCC
:100F300093E00E944925882349F0809173059091A0
:100F400074059460909374058093730540E062E5A6
:100F500083EC93E00E944925882349F08091730532
:100F6000909174059061909374058093730540E0AF
:100F700063E683EC93E00E944925882349F0809141
:100F80007305909174058064909374058093730544
:100F900040E064E683EC93E00E944925882351F009
:100FA00080917305909174058F7D80619093740595
:100FB0008093730540E062E683EC93E00E9449254C
:100FC000882351F080917305909174058F7E806223
:100FD00090937405809373058091E9008F70209140
:100FE000EC00922F917020FD90E8E92EE82A81E034
:100FF0008093E9008091E80082FF0DC040E050E05E
:1010000066E170E08BE595E00E945A2E8091E80041
:101010008B778093E8008E2D8F708093E90040E0FD
:1010200068E083EC93E00E94CD24109283058093C6
:10103000840540E069E083EC93E00E94CD241092A7
:1010400087058093880540E061E783EC93E00E9488
:101050004925882309F440C280E09FEF90938605DC
:101060008093850540E068E083EC93E00E94492589
:10107000882309F436C281E091E00E94600140E0DB
:1010800064E083EC93E00E944925811134C240E082
:1010900060E083EC93E00E94A2259093800580930A
:1010A0007F0540E061E083EC93E00E94A2258095FB
:1010B0009095909382058093810540E068E083ECF1
:1010C00093E00E944925882309F4F8C240E060E0DB
:1010D00083EC93E00E94A2259093800580937F0586
:1010E00040E061E083EC93E00E94A225809590951A
:1010F000909382058093810540E062E083EC93E069
:101100000E944925882311F140E064E083EC93E0DC
:101110000E9461258823D1F08091E0008160809356
:10112000E0000E94351460938F05709390058093C2
:1011300091059093920580919405813009F4D8C46B
:101140008AE08093C50381E08093C60380918F0578
:1011500090919005A0919105B0919205892B8A2BD1
:101160008B2BB9F10E94351420918F053091900599
:101170004091910550919205DC01CB01821B930BAC
:10118000A40BB50B8B3F9105A105B10510F1809122
:101190009405813009F4B1C481E0809394051092E4
:1011A000A9051092AA058093AB05109274051092C0
:1011B00073051092760510927505109278051092BD
:1011C000770510928F05109290051092910510925C
:1011D00092050E943514AF81B8852D913D914D91B6
:1011E0005C91DC01CB01821B930BA40BB50B4197E7
:1011F000A105B10508F48AC06F2D80E10E94A50108
:101200008823B9F1F10180819181A281B381892B79
:101210008A2B8B2B41F40E943514D1016D937D9361
:101220008D939C9313970E943514F1012081318195
:1012300042815381DC01CB01821B930BA40BB50BC4
:10124000893E9340A105B10508F457C00E943514AA
:10125000D1012D913D914D915C91DC01CB01821B1F
:10126000930BA40BB50B8C349440A105B10550F140
:1012700044C06F2D85E00E94A501882309F448C46D
:101280006F2D84E00E94A501882309F441C46F2DCD
:1012900088E00E94A501882309F43AC46F2D89E0F3
:1012A0000E94A501882309F433C4E5E9F5E081E053
:1012B000148A158A868B779621EF35E02E173F0723
:1012C000B9F71BC0F80112824F2D60E080E00E9448
:1012D000E4016AE070E080E090E00E946614D501CD
:1012E00057968C91882329F06F2D83EC93E00E9410
:1012F000DA2581E0D50152968C930E943514AF8196
:10130000B8856D937D938D939C931397FF2009F47B
:1013100065C06F2D81E097E00E94631344E150E0C7
:10132000B80181E097E00E94DD1261E081E097E082
:101330000E946D130E943514E985FA852081318160
:1013400042815381DC01CB01821B930BA40BB50BB3
:101350000997A105B10508F441C042E06F2D81E075
:1013600097E00E94E413823061F581E097E00E94EB
:10137000BA128F3FFFEF9F0781F0D80154962C914E
:10138000549730E0AC0155272417350731F05496B7
:101390008C93549781E056968C9381E097E00E945D
:1013A000BA128F3FBFEF9B0781F0F801258930E02B
:1013B000AC0155272417350741F0858B81E0868BDA
:1013C00004C081E097E00E9439130E943514A9857A
:1013D000BA856D937D938D939C9313970E947C01A6
:1013E00014C0FF2091F06F2D81E097E00E946313FD
:1013F00041E050E060E071E081E097E00E94DD12A2
:1014000061E081E097E00E946D13F394E985FA852D
:101410003496FA87E987095E1F4F2F8138852C5F44
:101420003F4F38872F833FEFA31AB30A8FEF881AF5
:10143000980AAD81BE811496BE83AD83B4E0CB0E15
:10144000D11CE4E02E0E311CF4E0FF129CC980E0B8
:101450000E943602882309F424C480918F0590915C
:101460009005A0919105B0919205892B8A2B8B2B29
:1014700009F425C416C480917305909174058460A5
:10148000909374058093730527CB80917305909199
:101490007405816090937405809373052DCB8091C2
:1014A000730590917405886090937405809373051B
:1014B00033CB80917705909178058C7F892B29F02B
:1014C0001092780510927705ACCC8CEF9FEF90933B
:1014D000780580937705A5CC109286051092850536
:1014E000C1CD40E064E083EC93E00E94CD248823EA
:1014F00009F414C2C0CD40E066E683EC93E00E949C
:101500004925882361F088EC90E0A0E0B0E080936A
:10151000010190930201A0930301B093040140E004
:1015200067E683EC93E00E944925882361F08AEF07
:1015300090E0A0E0B0E08093010190930201A093BD
:101540000301B093040140E061E183EC93E00E9469
:101550004925882361F08CE291E0A0E0B0E080931F
:10156000010190930201A0930301B093040140E0B4
:1015700062E183EC93E00E944925882361F08EE5C7
:1015800091E0A0E0B0E08093010190930201A0936C
:101590000301B093040140E063E183EC93E00E9417
:1015A0004925882361F080E991E0A0E0B0E08093D4
:1015B000010190930201A0930301B093040140E064
:1015C00064E183EC93E00E944925882361F08AE876
:1015D00092E0A0E0B0E08093010190930201A0931B
:1015E0000301B093040140E065E183EC93E00E94C5
:1015F0004925882361F080E293E0A0E0B0E0809389
:10160000010190930201A0930301B093040140E013
:1016100066E183EC93E00E944925882361F088EE1F
:1016200093E0A0E0B0E08093010190930201A093C9
:101630000301B093040140E067E183EC93E00E9472
:101640004925882361F080EB94E0A0E0B0E080932E
:10165000010190930201A0930301B0930401198248
:101660001A821B821C82CE0101960E946001498170
:101670005A816B817C818091010190910201A0913E
:101680000301B0910401481759076A077B0709F461
:10169000FECC81E091E00E943C0181E10E94AB150B
:1016A00061E0892B09F060E081E10E947C1564E62D
:1016B00070E080E090E00E946614E9CC40E064E0D5
:1016C00083EC93E00E94CD24882309F446C1FECC2C
:1016D00040E064E083EC93E00E94492581111DCB3A
:1016E00040E067E183EC93E00E944925882349F0BC
:1016F000809175059091760580649093760580932E
:10170000750540E066E183EC93E00E94492588235B
:1017100049F08091750590917605886090937605E3
:101720008093750540E065E183EC93E00E944925D4
:10173000882349F08091730590917405906290938D
:1017400074058093730540E064E183EC93E00E94AC
:101750004925882349F08091750590917605806828
:10176000909376058093750540E063E183EC93E008
:101770000E944925882349F080917505909176054E
:101780008061909376058093750540E062E183EC7B
:1017900093E00E944925882349F080917305909138
:1017A00074059064909374058093730540E061E143
:1017B00083EC93E00E944925882349F080917505C8
:1017C000909176059160909376058093750540E041
:1017D00067E683EC93E00E944925882349F08091D5
:1017E00075059091760580629093760580937505D6
:1017F00040E066E683EC93E00E944925882349F0A7
:10180000809173059091740590689093740580930E
:10181000730540E060E083EC93E00E940E2588238E
:1018200001F140E063E083EC93E00E94CD2481115C
:1018300018C040E061E083EC93E00E94CD24811168
:1018400010C0809105018F5F3EC0809189058E5F39
:101850008093890546CA80918905825080938905C5
:1018600050CA40E062E083EC93E00E940E2588239A
:1018700081F040E063E083EC93E00E94CD2481118D
:1018800008C040E061E083EC93E00E94CD2488230F
:10189000B9F08091050187301CF086E08093050146
:1018A0008091050187FD10920501E09105010E2E42
:1018B000000CFF0BED5BFE4F808180938A052DCAE3
:1018C00080910501815080930501E3CF80917505DA
:1018D0009091760584609093760580937505B1CAE2
:1018E000809175059091760592609093760580932E
:1018F0007505B7CA809175059091760594609093AF
:10190000760580937505BDCA809175059091760521
:1019100098609093760580937505C3CA40E063E0B4
:1019200083EC93E00E94CD24882319F081E090E8B5
:101930000AC040E061E083EC93E00E94CD2488235C
:1019400039F08FEF9FE790937E0580937D0593CBD1
:1019500010927E0510927D058ECB40E062E083EC14
:1019600093E00E94A225BC01990F880B990B9B0163
:10197000AC01245B324E4F4F5F4F29393A4341054A
:101980005105F0F0209101013091020140910301D5
:10199000509104010E94FC3480910601909107014E
:1019A000A0910801B0910901820F931FA41FB51FD8
:1019B0008093060190930701A0930801B093090159
:1019C00040E063E083EC93E00E94A225BC01990F04
:1019D000880B990B9B01AC01245B324E4F4F5F4F3C
:1019E00029393A4341055105F0F020910101309128
:1019F000020140910301509104010E94FC34809146
:101A00000A0190910B01A0910C01B0910D01821B74
:101A1000930BA40BB50B80930A0190930B01A09339
:101A20000C01B0930D018091060190910701A091E6
:101A30000801B0910901B7FF08C010920601109289
:101A400007011092080110920901809106019091FE
:101A50000701A0910801B09109010097A140B105CB
:101A600064F08FEF9FEFA0E0B0E0809306019093C9
:101A70000701A0930801B093090180910A01909198
:101A80000B01A0910C01B0910D010097A140B1058F
:101A900064F08FEF9FEFA0E0B0E080930A01909395
:101AA0000B01A0930C01B0930D0180910A0190915C
:101AB0000B01A0910C01B0910D01B7FF08C010926D
:101AC0000A0110920B0110920C0110920D018091ED
:101AD00006019091070190937A0580937905809192
:101AE0000A0190910B0190937C0580937B05EECACF
:101AF00089E08093C50382E027CB10929405109271
:101B0000A9051092AA058093AB051092970559CBB1
:101B1000F1011082118212821382D50157968C91A5
:101B20008823B9F1D50152968C91813091F5F1104D
:101B300030C0F401808180FF2CC060E083EC93E032
:101B40000E940C26D50152961C9280919405882300
:101B500081F08130A9F4D60112968C9312979AE005
:101B600013969C93139714968C93149715969C93A5
:101B700007C099E0F601928382E083839483858392
:101B80000E943514ED81FE8160837183828393838B
:101B900041C00E943514AD81BE812D913D914D9182
:101BA0005C91DC01CB01821B930BA40BB50B873935
:101BB0009105A105B10508F462C0F60162816F3F8D
:101BC00009F45DC0D50152968C915297811157C08E
:101BD00057968C91882309F452C0F11050C0F4013B
:101BE000808180FF4CC040E083EC93E00E94742829
:101BF000F6018381828384818383858184838FEF4F
:101C000085830E943514AD81BE816D937D938D9344
:101C10009C931397F40180818C3D81F028F481110D
:101C200029C084E6808326C0863EA9F0803F11F556
:101C30006F2D81E08F0D0E9410021CC0F501878975
:101C40008823C1F08289811115C06F2D83EC93E048
:101C50000E942E260FC0D50157968C915797882346
:101C600049F052968C91811105C06F2D83EC93E061
:101C70000E945026F40180818F5F80833ECBF80163
:101C80008689813039F6D4018C9180FFC3CF4F2DE6
:101C9000F801658984890E94E401D80156961C9256
:101CA000B9CF61E081E10E947C158091E000816004
:101CB0008093E00081E08093D5030C949E03809193
:101CC000E0008E7F8093E00080919305882311F4DB
:101CD0000C949E0360E081E10E947C150C949E03AD
:101CE000FC01918D228D892F90E0805C9F4F821B9B
:101CF00091098F7399270895FC01918D828D981712
:101D000031F0828DE80FF11D858D90E008958FEF01
:101D10009FEF0895FC01918D828D981761F0828D5F
:101D2000DF01A80FB11D5D968C91928D9F5F9F730F
:101D3000928F90E008958FEF9FEF0895FC01538DEF
:101D4000448D252F30E0842F90E0821B930B541795
:101D500010F0CF96089501970895FC01848DDF015E
:101D6000A80FB11DA35ABF4F2C91848D90E001960E
:101D70008F739927848FA689B7892C93A089B189FD
:101D80008C9180648C93938D848D981306C0028807
:101D9000F389E02D80818F7D80830895EF92FF92FB
:101DA0000F931F93CF93DF93EC0181E0888F9B8D7E
:101DB0008C8D981305C0E889F989808185FD24C040
:101DC000F62E0B8D10E00F5F1F4F0F731127E02EC3
:101DD0008C8DE8120CC00FB607FCFACFE889F989A0
:101DE000808185FFF5CFCE010E94AD0EF1CF8B8DA6
:101DF000FE01E80FF11DE35AFF4FF0820B8FEA89D5
:101E0000FB898081806207C0EE89FF896083E88951
:101E1000F98980818064808381E090E0DF91CF91B7
:101E20001F910F91FF90EF900895CF93DF93EC01F6
:101E3000888D8823C9F0EA89FB89808185FD05C0EA
:101E4000A889B9898C9186FD0FC00FB607FCF5CF24
:101E5000808185FFF2CFA889B9898C9185FFEDCF6C
:101E6000CE010E94AD0EE7CFDF91CF91089580E0C3
:101E700090E008951F920F920FB60F9211242F93A6
:101E80008F939F93EF93FF93E0910206F0910306E7
:101E90008081E0910806F091090682FD12C09081D0
:101EA00080910B068F5F8F7320910C06821751F083
:101EB000E0910B06F0E0EE50FA4F958F80930B0601
:101EC00001C08081FF91EF919F918F912F910F9091
:101ED0000FBE0F901F9018951F920F920FB60F9282
:101EE00011242F933F934F935F936F937F938F931F
:101EF0009F93AF93BF93EF93FF9382EF95E00E9480
:101F0000AD0EFF91EF91BF91AF919F918F917F9116
:101F10006F915F914F913F912F910F900FBE0F9056
:101F20001F901895E2EFF5E01382128288EE93E09D
:101F3000A0E0B0E084839583A683B7838EE491E02C
:101F4000918380838DEC90E0958784878CEC90E082
:101F50009787868788EC90E0918B808B89EC90E066
:101F6000938B828B8AEC90E0958B848B8EEC90E047
:101F7000978B868B118E128E138E148E0895089572
:101F8000CF92DF92EF92FF920F931F93CF93DF9345
:101F90006C017A018B01C0E0D0E0CE15DF0581F045
:101FA000D8016D918D01D601ED91FC910190F081E8
:101FB000E02DC6010995892B11F02196EECF7E0107
:101FC000C701DF91CF911F910F91FF90EF90DF90AC
:101FD000CF900895CF93DF93CCEBD0E0188210928E
:101FE000000781E08093FE061092FD0661E082E02A
:101FF0000E947C1561E083E00E947C15E9EBF0E033
:1020000080818E7F808380818D7F808388E4809330
:10201000B80085E48883DF91CF910895813049F439
:1020200010928F06109290061092910610929206CE
:1020300017C080918F0690919006A0919106B09163
:1020400092060196A11DB11D80938F069093900674
:10205000A0939106B093920684E690E00E94A214A9
:1020600080918F0690919006A0919106B091920672
:1020700080359105A105B10580F010928F06109270
:10208000900610929106109292060E94EA0F61E06B
:1020900081E10E947C1581E0089580E008959B0114
:1020A000AC0160E074E284EF90E00E94DA34DA017F
:1020B000C9014097A109B109B695A795979587954C
:1020C0008093B8000895FF920F931F93CF93DF93EF
:1020D000D82F162F072FC42FF22E413208F054C0EC
:1020E00081E00E940E1080910007882329F080E093
:1020F0000E940E108823B9F381E080930007F092CC
:10210000FE069FEF909393061092D8069C0F909333
:10211000D7068093FF068091FF06DD0FD82BD09362
:10212000FF068091FD06813061F41092FD068091DA
:10213000FF068093BB008091BC0083FDF8CF85EC47
:1021400001C085EE8093BC0081E00E940E1080915A
:102150000007813029F480E00E940E108823B9F333
:102160008091D8068C1710F4C091D806A9EDB6E07E
:10217000912FE12FF02F8E2F891B8C1718F48D9142
:102180008193F9CF8C2F01C080E0DF91CF911F9117
:102190000F91FF900895DF92EF92FF920F931F939C
:1021A000CF93DF93413208F062C0D22E142FE72E76
:1021B000F62ED82F81E00E940E10C0910007CC238C
:1021C00031F080E00E940E1081114FC0F6CF82E006
:1021D000809300070093FE068FEF80939306109282
:1021E000D8061093D7069F2DA9EDB6E0EF2DFE2D52
:1021F0008E2F891B811718F481918D93F9CF10923E
:10220000FF068091FF06DD0FD82BD093FF0680914B
:10221000FD06813061F41092FD068091FF068093E7
:10222000BB008091BC0083FDF8CF85EC01C085EE3A
:102230008093BC0081E00E940E10DD2051F080915F
:102240000007823031F480E00E940E1081110DC031
:10225000F4CF809193068F3F79F08091930680327E
:1022600041F080919306803331F0C4E005C0C1E0B5
:1022700003C0C2E001C0C3E08C2FDF91CF911F915A
:102280000F91FF90EF90DF9008954091B506262FB3
:1022900030E0240F311D21323105DCF4209100079C
:1022A0002430C9F4FC0180E090E0861758F43091A6
:1022B000B5062191DC01A954B94FA30FB11D2C9390
:1022C0000196F3CF8091B506680F6093B50680E064
:1022D000089581E0089582E0089585ED8093BC0023
:1022E00081E00E940E108091BC0084FF05C080E058
:1022F0000E940E108823B9F310920007089585EC10
:102300008093BC001092000708951F920F920FB6A1
:102310000F9211242F933F934F935F936F937F936B
:102320008F939F93AF93BF93EF93FF938091B900E7
:10233000887F803609F49EC078F5883209F45DC044
:1023400090F4803109F456C038F4882309F4F5C0BC
:10235000883009F44FC0F5C0883109F44EC080328E
:1023600009F45FC0EEC0803409F46AC058F48033C9
:1023700009F457C0883309F0E4C0809393060E94A3
:102380007F11DFC0803509F44FC0883509F45DC086
:10239000883409F0D6C0D3C0883909F4C4C0A8F481
:1023A000883709F467C038F4883609F463C0803789
:1023B00009F460C0C6C0883809F4B5C0803909F492
:1023C0005FC0803809F0BDC05BC0803B09F483C0AA
:1023D00038F4803A09F466C0883A09F47CC0B1C088
:1023E000803C09F4A4C0883C09F4A1C0883B09F4EE
:1023F00087C0A7C08091FF0610C09091D806809139
:10240000D706981770F5E091D80681E08E0F80937B
:10241000D806F0E0E752F94F80818093BB0085EC4D
:1024200083C0809393068BC0E091D80681E08E0F25
:102430008093D8068091BB00F0E0E752F94F80838B
:102440009091D8068091D7066BC0E091D80681E0C4
:102450008E0F8093D8068091BB00F0E0E752F94FD1
:1024600080838091FE0681116AC081E08093FD0621
:1024700084EA5EC083E08093000710929406CFCF79
:1024800080919406803208F04EC0E091940681E07D
:102490008E0F809394068091BB00F0E0EB56F94FCD
:1024A0008083BDCF0E947F1180919406803230F4EA
:1024B000E0919406F0E0EB56F94F1082609194069B
:1024C00070E0E091F906F091FA0685E996E0099549
:1024D0001092940636C084E0809300071092B606EE
:1024E0001092B506E091FB06F091FC0609958091EB
:1024F000B506811105C081E08093B5061092B7063C
:10250000E091B60681E08E0F8093B606F0E0E954C4
:10251000F94F80818093BB009091B6068091B506FB
:10252000981708F47CCF85E88093BC000AC085EC3E
:102530008093BC001092000704C0109293060E9482
:102540006D11FF91EF91BF91AF919F918F917F910D
:102550006F915F914F913F912F910F900FBE0F9010
:102560001F9018958091310790E020913207821BCF
:10257000910908959091320780913107981750F48E
:10258000E92FF0E0ED5CF84F208130E09F5F909301
:10259000320702C02FEF3FEFC9010895E0913207E3
:1025A00080913107E81730F4F0E0ED5CF84F80815E
:1025B00090E008958FEF9FEF0895CF92DF92EF9212
:1025C000FF920F931F93CF93DF937C01CB018A017E
:1025D00020910D07222389F0EB016B01C40ED51E5B
:1025E000CC15DD0569F06991D701ED91FC91019061
:1025F000F081E02DC7010995F3CF642F0E944511AA
:10260000C801DF91CF911F910F91FF90EF90DF9064
:10261000CF900895CF93DF931F92CDB7DEB7698334
:1026200020910D072223D1F020910E07203240F097
:1026300021E030E0FC013383228380E090E015C08C
:1026400080910F07E82FF0E0E05FF84F99819083C9
:102650008F5F80930F0780930E0705C061E0CE0166
:1026600001960E94451181E090E00F90DF91CF919B
:102670000895109232071092310780E2E3E3F7E009
:10268000DF011D928A95E9F70895FC0113821282F9
:1026900088EE93E0A0E0B0E084839583A683B783BF
:1026A00080E691E091838083089510923207109222
:1026B000310710920F0710920E070C94EA0FCB010E
:1026C000BA010C944F1081E080930D07609330079E
:1026D00010920F0710920E0708950F93062F21E016
:1026E00040910E0760E177E0809130070E94CB10A7
:1026F00010920F0710920E0710920D070F91089578
:102700004F925F926F927F92AF92BF92CF92EF9271
:10271000FF920F931F93CF93DF935C01F62ED42F7C
:1027200028013901EE2021F10E946313CE2DC4301F
:1027300008F0C3E0C150C0F028E0C29FC0011124DE
:10274000A301920104C056954795379527958A9520
:10275000D2F7CA01B901D501ED91FC910190F08148
:10276000E02DC5010995E6CF60E0C5010E946D131B
:102770004D2FD13208F040E22C2D63E377E08F2D0E
:102780000E9463101092320780933107DF91CF913E
:102790001F910F91FF90EF90CF90BF90AF907F90DF
:1027A0006F905F904F900895CF92EF920F931F9389
:1027B000C22EE12C00E010E098010E9480131F91CE
:1027C0000F91EF90CF90089521E00C94D41381E005
:1027D00097E00C9445131F920F920FB60F9211249D
:1027E0002F933F938F939F93AF93BF938091540701
:1027F00090915507A0915607B09157073091530714
:1028000023E0230F2D3720F40196A11DB11D05C033
:1028100026E8230F0296A11DB11D20935307809334
:10282000540790935507A0935607B093570780918C
:10283000580790915907A0915A07B0915B070196EC
:10284000A11DB11D8093580790935907A0935A0773
:10285000B0935B07BF91AF919F918F913F912F9163
:102860000F900FBE0F901F9018952FB7F89460919E
:1028700054077091550780915607909157072FBFC5
:1028800008953FB7F8948091580790915907A09107
:102890005A07B0915B0726B5A89B05C02F3F19F0DA
:1028A0000196A11DB11D3FBFBA2FA92F982F8827D0
:1028B000820F911DA11DB11DBC01CD0142E0660F2B
:1028C000771F881F991F4A95D1F708958F929F927D
:1028D000AF92BF92CF92DF92EF92FF926B017C0199
:1028E0000E9441144B015C01C114D104E104F104C4
:1028F00001F10E94BF0F0E944114DC01CB01881935
:102900009909AA09BB09883E9340A105B10560F366
:1029100021E0C21AD108E108F10888EE880E83E0B0
:10292000981EA11CB11CC114D104E104F10419F7D3
:10293000DBCFFF90EF90DF90CF90BF90AF909F9054
:102940008F9008958230910538F0880F991F880F75
:10295000991F05970197F1F70895789484B58260DF
:1029600084BD84B5816084BD85B5826085BD85B533
:10297000816085BDEEE6F0E0808181608083E1E8E2
:10298000F0E010828081826080838081816080831A
:10299000E0E8F0E0808181608083E1E9F0E080811F
:1029A00082608083808181608083E0E9F0E08081C3
:1029B00081608083E1ECF0E08081846080838081AD
:1029C00082608083808181608083E3ECF0E080819D
:1029D00081608083E0ECF0E0808182608083E2ECC3
:1029E000F0E0808181608083EAE7F0E080818460AC
:1029F0008083808182608083808181608083808108
:102A000080688083089590E0FC013197EF30F105F4
:102A1000B0F5EA5AFF4F0C941B35809180008F77F8
:102A200003C0809180008F7D809380000895809105
:102A30008000877FF9CF84B58F7702C084B58F7D02
:102A400084BD0895809190008F7707C08091900099
:102A50008F7D03C080919000877F809390000895C0
:102A60008091C0008F7703C08091C0008F7D8093DC
:102A7000C00008958091C200877F8093C2000895AE
:102A8000CF93DF9390E0FC01E350FF4F2491FC01D2
:102A9000E45EFE4F8491882361F190E0880F991FD6
:102AA000FC01E95AFE4FC591D491FC01E75BFE4F52
:102AB000A591B491611109C09FB7F89488812095C0
:102AC00082238883EC912E230BC0623061F49FB780
:102AD000F8948881322F309583238883EC912E2BB4
:102AE0002C939FBF06C08FB7F894E8812E2B2883C4
:102AF0008FBFDF91CF9108951F93CF93DF93282F3E
:102B000030E0F901E252FF4F8491F901E350FF4FA9
:102B1000D491F901E45EFE4FC491CC23C1F0162F8D
:102B200081110E940315EC2FF0E0EE0FFF1FE75B11
:102B3000FE4FA591B4919FB7F894111104C08C91E8
:102B4000D095D82302C0EC91DE2BDC939FBFDF91A0
:102B5000CF911F910895CF93DF93282F30E0F90193
:102B6000E252FF4F8491F901E350FF4FD491F901F4
:102B7000E45EFE4FC491CC2391F081110E940315B5
:102B8000EC2FF0E0EE0FFF1FE55CFE4FA591B49136
:102B9000EC91ED2381E090E021F480E002C080E040
:102BA00090E0DF91CF910895CF93DF93FC01862FC2
:102BB0008078A9F4283008F04DC0442321F0958195
:102BC000973009F447C0EF01A1E0B0E09D8599235B
:102BD00041F011962596A031B105C1F73BC080E0C8
:102BE00039C061111CC085E08A9FE0018B9FD00D28
:102BF0001124CE0FDF1F442331F081E488878581C3
:102C00008F5F858302C081E0888725E02A9FC0010D
:102C10002B9F900D1124E80FF91F80851BC0677052
:102C2000660F660F660F442341F0606485818F5FF5
:102C300085838770687F682B03C02770687B622B51
:102C400025E02A9FC0012B9F900D1124E80FF91F4A
:102C50006087862FDF91CF910895611102C006969B
:102C60000895FC0121E03585631739F02F5F359613
:102C70002031C9F780E090E00895069635E0239F63
:102C8000800D911D11240895DF92EF92FF920F9312
:102C90001F93CF93DF93EC01E62EF12C85E0689F24
:102CA000B0011124FE01E60FF71F8085182F177061
:102CB00086FF17C001E085E0D82EFE01D09EE00D12
:102CC000F11D112480858695869586958770181745
:102CD000F9F00F5F003189F78D81811302C0115027
:102CE0001D8385E08E9DF0018F9DF00D1124EC0F6A
:102CF000FD1F108681E0818712862296D783C683C6
:102D0000DF91CF911F910F91FF90EF90DF90089589
:102D1000602FCE010E944416D0CFFC01613499F49B
:102D20009C01255B3F4F61E0AC014E5F5F4F158614
:102D300066871786548743873596E217F307B9F7F6
:102D4000FC011582089521E03585631729F02F5F76
:102D500035962031C9F70895622F0C944416FC0172
:102D600082E791E0918380831582108681E08187DC
:102D70001286CF01029697838683128228E02383EE
:102D80002CE32483DF019F01255B3F4F41E01D962B
:102D90001C921D971E964C931E971F961C921F9770
:102DA0001C969C938E931B971596A217B30779F7E1
:102DB000EA58FF4F108281E1809360070895CF9316
:102DC000C42F0E942D16009789F0DC01ED91FC9133
:102DD0001197309759F013969C9180E0891731F044
:102DE00020812C1731F033968F5FF8CF80E090E090
:102DF00001C0CF01CF9108950F931F93CF93DF931D
:102E00002115310571F0E901042F162F0E942D16AE
:102E1000FC01892B41F01283D183C083038380E0BE
:102E200003C088ED01C086EDDF91CF911F910F9116
:102E30000895CF92DF92FF920F931F93CF93DF936A
:102E4000662381F1F62E8C016C0186E5C80ED11C3B
:102E5000C0E0D0E0D6018D919D916D010097F1F019
:102E6000DC01ED91FC910084F185E02D0995F812CB
:102E700015C0AB96CC0FDD1FC00FD11F8881998183
:102E8000DC01ED91FC910480F581E02DDF91CF9183
:102E90001F910F91FF90DF90CF9009942196C03140
:102EA000D105C1F680E0DF91CF911F910F91FF9086
:102EB000DF90CF9008952E980895CF93C82F0E9449
:102EC0005B17CEBD0DB407FEFDCF1EBC0DB407FED3
:102ED000FDCF0E9449028EB5CF910895CF93DF9325
:102EE000C82FD62F0E945B17C260CEBD0DB407FE5F
:102EF000FDCFDEBD0DB407FEFDCFDF91CF910C9469
:102F000049028F929F92AF92BF92CF92DF92EF923F
:102F1000FF920F931F93CF93DF93EC01D62EC42E15
:102F200059010E942D167C01009709F445C0FC014F
:102F300080819181892B09F441C04C2D6D2DCE01EA
:102F40000E94DF16F501918380830097C9F1FC018F
:102F500082818695869590E08031910514F08FE00E
:102F600090E041E050E060E070E04A015B0104C0A5
:102F7000880C991CAA1CBB1C8A95D2F7D501C401E8
:102F80000197F801918380836D2D80EE0E946E176A
:102F900088ED0E945D17F7019481992331F0CA589A
:102FA000DF4F68816260682B02C0682F697F88EDFF
:102FB0000E946E1780E005C086ED03C087ED01C05A
:102FC0008BEDDF91CF911F910F91FF90EF90DF90EC
:102FD000CF90BF90AF909F908F9008958F929F92C7
:102FE000AF92BF92CF92DF92EF92FF920F931F9317
:102FF000CF93DF93862E942E59010E9435146B01D6
:103000007C0128E8C20E23E1D21EE11CF11C00E085
:1030100010E0D0E0C0E098280E943514DC01CB011C
:103020008C199D09AE09BF09B7FF2DC0692D80EF2E
:103030000E946E170E943514DC01CB018C199D098A
:10304000AE09BF09B7FF09C088EC0E945D1787FF72
:10305000F1CF60E888EC0E946E1788EF0E945D1740
:10306000C82FCF70C43019F0CE3051F00CC00F5FB4
:103070001F4FA114B10481F20A151B0569F603C0A4
:10308000DF5FD33049F68C2FDF91CF911F910F91E5
:10309000FF90EF90DF90CF90BF90AF909F908F9078
:1030A00008959F92AF92BF92CF92DF92EF92FF92DC
:1030B0000F931F93CF93DF937C01D42F122F902E69
:1030C00000E06C01C60ED11CC60ED11C86E5C80EF0
:1030D000D11CA42EB12CABE2AA0EB11CAA0CBB1CB5
:1030E000AE0CBF1CF60180819181DC01ED91FC9159
:1030F0000280F381E02D292D412F6D2F0995803E0F
:10310000C9F4D1110BC061E088EE0E946E1766E62B
:1031100070E080E090E00E94661414C0F5018081A8
:103120009181DC01ED91FC910284F385E02D612F0A
:10313000099508C08D3021F4033008F03FC014C059
:1031400081113FC0F60180819181DC01ED91FC91FC
:103150000190F081E02D292D412F6D2F0995C82F69
:103160008D3051F4033050F464E670E080E090E07C
:103170000E9466140F5FB6CF882311F1D1110BC0E6
:1031800061E088EE0E946E1766E670E080E090E0F5
:103190000E94661411C0ED2FF0E0BB96EE0FFF1FEA
:1031A000EE0DFF1D80819181DC01ED91FC91028487
:1031B000F385E02D612F09958C2F03C08DE001C0B0
:1031C00080E0DF91CF911F910F91FF90EF90DF9002
:1031D000CF90BF90AF909F9008950F931F93CF9380
:1031E000DF93182F062FEA010E945B1712601EBDA5
:1031F000FE01802F882339F00DB407FEFDCF919199
:103200009EBD8150F7CFC00FD11D0DB407FEFDCF7D
:103210000E944902CE01DF91CF911F910F91089535
:103220002F923F924F925F926F927F928F929F92D6
:10323000AF92BF92CF92DF92EF92FF920F931F93C4
:10324000CF93DF9300D000D01F92CDB7DEB77D8340
:103250006C834A016901FB01F1808FEF8F0D80348F
:1032600008F074C00E9435142B013C01F8E84F0EA1
:10327000F3E15F1E611C711CEC81FD81828180FD88
:1032800002C060E401C060E888EE0E946E17312C35
:103290008F2D90E09A838983C114D10409F448C02A
:1032A000E980FA80CE14DF0408F47601EB82A801ED
:1032B0006E2D80E10E94ED186E2D88E30E946E173E
:1032C000EC81FD816081606280EF0E946E1788EC66
:1032D0000E945D1787FFFBCF60E888EC0E946E17A5
:1032E00088EF0E945D178F70382EA12CB12C212CF5
:1032F000332009F46BC00E943514DC01CB01841922
:103300009509A609B709B7FF61C0F6E03F1601F1BC
:103310002EE0321609F455C084E0381209C0FFEFE0
:10332000AF1ABF0A8114910449F1A814B90431F508
:1033300088EF0E945D1785FB882780F9EC81FD816D
:10334000928180FB90F99283832D45C08AED43C022
:1033500088EF0E945D1785FB882780F991E0892717
:10336000EC81FD81928180FB90F9928390FD02C0F7
:1033700060E401C060E888EE0E946E1760E088E3B8
:103380000E946E17F801608180E10E946E176B81C8
:1033900088E30E946E17EC81FD816081606280EF9E
:1033A0000E946E1788EC0E945D1787FFFBCF60E8D4
:1033B00088EC0E946E1788EF0E945D178F70382E80
:1033C00097CF239423E02212D9CFB2CFCE18DF08B3
:1033D0000E0D1F1D61CF0F900F900F900F900F904B
:1033E000DF91CF911F910F91FF90EF90DF90CF90E1
:1033F000BF90AF909F908F907F906F905F904F9015
:103400003F902F900895AF92BF92CF92DF92EF92AC
:10341000FF920F931F93CF93DF9300D000D0CDB7CF
:10342000DEB77C01690158011C821B821A82198255
:103430008E010F5F1F4F9E012D5F3F4F0E9481172E
:10344000811109C049815A816B817C818501960176
:10345000C7010E9410190F900F900F900F90DF91ED
:10346000CF911F910F91FF90EF90DF90CF90BF9081
:10347000AF9008952F923F924F925F926F927F92FA
:103480008F929F92AF92BF92CF92DF92EF92FF9274
:103490000F931F93CF93DF93CDB7DEB72A970FB665
:1034A000F894DEBF0FBECDBF1C016B015B834A8366
:1034B0005901D9016D907C901197FB01F181F9833D
:1034C0001D921C92DB0112968C9181FD02C060E17D
:1034D00001C060E288EE0E946E178E2D90E0A0E0A1
:1034E000B0E08C839D83AE83BF8368862A813B8155
:1034F000D6014C9160E0C1010E94EE17F82EB6E0B3
:103500008B1318C088EF0E945D1782958170E1E0EF
:103510008E27D60112969C91129780FB91F91296F4
:103520009C9391FD02C060E101C060E288EE0E94C0
:103530006E17DCCF811167C088EC0E945D1782FF97
:1035400060C080E30E945D17582E90E068167906EF
:1035500008F45884F501808191819301281B390B6F
:103560003A87298737FF02C01A861986852C912C45
:1035700089859A858816990614F49A8689864984DD
:103580000E945B1798E09EBD0DB407FEFDCFF801C9
:10359000442041F01EBC4A940DB407FEFDCF8EB509
:1035A0008193F6CFA985BA850A0F1B1F0E94490295
:1035B00064E088EC0E946E17F50180819181880E8D
:1035C000991E91828082F9815F1618F08614970403
:1035D00070F088EF0E945D1782958170D601129677
:1035E0009C91129780FB91F912969C930CC0EE204F
:1035F00009F47CCF6C817D818E819F810E9466144D
:1036000075CF80EFF82E8F2D2A960FB6F894DEBF77
:103610000FBECDBFDF91CF911F910F91FF90EF9023
:10362000DF90CF90BF90AF909F908F907F906F90E2
:103630005F904F903F902F9008952F923F924F921E
:103640005F926F927F928F929F92AF92BF92CF9232
:10365000DF92EF92FF920F931F93CF93DF93CDB73B
:10366000DEB761970FB6F894DEBF0FBECDBF3C0149
:10367000F42E322E202EC98A4EA05FA0C8A4D9A451
:10368000188A1F861E861D868E01035F1F4F9E01AE
:10369000215F3F4F0E948117811196C039822A8293
:1036A000EB8289898C83BE82AD8298868F82AE013F
:1036B0004F5F5F4F68E080E20E94ED182D853E85E8
:1036C0004F2D60E1C3010E94EE17E82E811178C0F2
:1036D000932D9078392EC114D10409F462C0EF857E
:1036E000F8898281992309F44DC082608283540154
:1036F00022242394A114B10409F458C05C864B869B
:103700004D855E856F857889E12C86019E01255F58
:103710003F4FC3010E943A1AE82EA6E08A130FC059
:103720000F85188988EF0E945D1785FB882780F92F
:103730008225F801928180FB91F99283DBCF811180
:103740003FC08AA59BA50097A1F0DC01ED91FC91FB
:1037500011970190F081E02DC4018A199B099A8785
:1037600089876B857C859E01275F3F4FA601CD0130
:1037700009958B859C85A81AB90A8415950508F0CA
:10378000B9CF0FC0816082834D855E85860192012D
:10379000BF01C3010E941019811116C02D853E85FD
:1037A00011C02D853E85311005C00CC0E11008C048
:1037B0002D853E8560EA4F2DC3010E94EE1704C09F
:1037C0008E2D02C060E8F7CF61960FB6F894DEBF89
:1037D0000FBECDBFDF91CF911F910F91FF90EF9062
:1037E000DF90CF90BF90AF909F908F907F906F9021
:1037F0005F904F903F902F9008958F929F92AF923D
:10380000BF92CF92EF920F931F931F921F921F931D
:103810000F933F932F934901A12CB12CCC24C39437
:10382000E12C06E020E80E941D1B0F900F900F90E6
:103830000F900F900F901F910F91EF90CF90BF902E
:10384000AF909F908F9008958F929F92AF92BF926A
:10385000CF92EF92FF920F931F921F92FF92EF92DF
:103860003F932F934901A12CB12C22E0C22EE02ED0
:1038700006E020E80E941D1B0F900F900F900F9004
:103880000F900F900F91FF90EF90CF90BF90AF905F
:103890009F908F9008958F929F92AF92BF92CF92F8
:1038A000EF920F93CF931F921F921F921F921F921E
:1038B0001F92812C912CA12CB12CC12CE22E05E061
:1038C00020E00E941D1BC82F6CE271E080E090E0B8
:1038D0000E9466140F900F900F900F900F900F9012
:1038E0008C2FCF910F91EF90CF90BF90AF909F9082
:1038F0008F9008950F931F93CF93DF938A3F3FEFED
:10390000930711F486ED2DC0DC011696ED91FC9124
:103910001797EF2B09F1122F242FEC011A8740E0A3
:103920000E94D415082F8823C9F0682FCE010E9469
:103930002D16009739F3FC011483202F40E060E03E
:10394000CE010E944B1C182F882351F0602FCE010E
:103950000E948D16812F05C087ED03C084ED01C044
:1039600080E0DF91CF911F910F9108952F923F92A8
:103970004F925F926F927F928F929F92AF92BF927F
:10398000CF92DF92EF92FF920F931F93CF93DF932B
:10399000CDB7DEB766970FB6F894DEBF0FBECDBFCA
:1039A0001B8A38E03C8B3CE33D8B8A3F3FEF93071B
:1039B00009F464C0522E342E462E7C01DC0116968A
:1039C000CD90DC901797CE01439617969C938E93DB
:1039D00016971A962C938E010F5F1F4F22E130E04D
:1039E00040E060E0C7010E94FD1BF701D782C6825C
:1039F0008111A6C089849A846B847C84FD81FE8BAE
:103A00002E80670136E5C30ED11C560110E0D501AA
:103A10008D919C910097F1F1DC01ED91FC91008476
:103A2000F185E02D0995811135C0F50180819181E5
:103A3000DC01ED91FC910088F189E02D622D099562
:103A4000882341F1F50180819181DC01ED91FC91A8
:103A50000484F585E02DA301B4010995811110C0FE
:103A6000F50180819181DC01ED91FC910684F7855F
:103A7000E02D6E890995811103C00CC086ED60C0F0
:103A8000052D232D442D612FC7010E945118813D22
:103A900009F056C01F5FB2E0AB0EB11C103109F047
:103AA000B6CF10E0F601808191810097E1F1DC0151
:103AB000ED91FC910084F185E02D0995811133C0D1
:103AC000F60180819181DC01ED91FC910088F18902
:103AD000E02D622D09958823D9F0F601808191812E
:103AE000DC01ED91FC910484F585E02DA301B40186
:103AF0000995811118C0F60180819181DC01ED9159
:103B0000FC910684F785E02D6E89099581110BC023
:103B1000052D232D442D612FC7010E945118982F88
:103B2000977F913D69F41F5FE2E0CE0ED11C10310A
:103B300009F0B8CF252D432D642DC7010E947A1CB2
:103B400066960FB6F894DEBF0FBECDBFDF91CF9162
:103B50001F910F91FF90EF90DF90CF90BF90AF90AB
:103B60009F908F907F906F905F904F903F902F909D
:103B700008958F929F92AF92BF92CF92EF920F9340
:103B80001F921F921F921F921F921F92812C912CA5
:103B9000A12CB12CC12CE22E09E020E00E941D1BBB
:103BA0000F900F900F900F900F900F900F91EF903C
:103BB000CF90BF90AF909F908F9008958F929F92DB
:103BC000AF92BF92CF92DF92EF920F931F93CF935A
:103BD000DF9300D000D0CDB7DEB76C0159014801AA
:103BE0001C821B821A8219828E010F5F1F4F9E0159
:103BF0002D5F3F4F0E94811749815A816B817C81E3
:103C000084019501C6010E943A1A0F900F900F90FF
:103C10000F90DF91CF911F910F91EF90DF90CF9098
:103C2000BF90AF909F908F900895AF92BF92CF9228
:103C3000DF92EF92FF920F931F93CF938C011D9908
:103C40000EC088EC0E945D1785FF05C0C8010E9468
:103C5000640260E201C060E088EC0E946E1780910F
:103C60008202813039F040F0823079F0833039F5CA
:103C7000C1E00CC083E106C080916007807F803185
:103C8000F1F081E1809360071AC0C0E08091600785
:103C9000807F8031A9F40E943514DC01CB01885368
:103CA0009F4FAF4FBF4F80935C0790935D07A093EA
:103CB0005E07B0935F0780E28093600701C0C0E0B9
:103CC000780186E5E80EF11C6801A6E7CA0ED11C52
:103CD0005701F501819191915F01009739F0DC0165
:103CE000ED91FC910680F781E02D0995AC14BD049F
:103CF00081F780916007803409F43FC050F480322E
:103D000021F18033A1F1813109F082C0F6011082E6
:103D10000AC0813509F458C0803809F46AC080357A
:103D200009F076C039C0D7018D919D917D01009732
:103D300039F0DC01ED91FC910480F581E02D0995CD
:103D4000EC14FD0481F782E161C00E9435140091FA
:103D50005C0710915D0720915E0730915F07DC01E1
:103D6000CB01801B910BA20BB30BB7FD51C061E0DF
:103D700088EE0E946E1780E449C088EE0E945D17AD
:103D800080FD46C088ED0E945D17682F686088ED51
:103D90000E946E1780E53AC088EC0E945D1786FF8E
:103DA00037C081E5809360070E943514DC01CB01A8
:103DB0004496A11DB11D80935C0790935D07A0936D
:103DC0005E07B0935F0724C00E943514C0905C0763
:103DD000D0905D07E0905E07F0905F07DC01CB01BB
:103DE0008C199D09AE09BF09B7FD12C080E8809308
:103DF00060072C2F40E060E0C8010E94B61C8823B9
:103E000021F0823D29F080EA01C080E980936007BB
:103E1000CF911F910F91FF90EF90DF90CF90BF90C7
:103E2000AF90089580E00895089580E0089580E0BF
:103E3000089581E00895FC018285089581E069304C
:103E400009F080E00895CF93DF93EC018A819B8194
:103E5000DC01ED91FC910480F581E02D6A850995E6
:103E60008A85813439F4EA81FB81EA58FF4F8081E9
:103E7000846080831A861B861C861D861E861F868C
:103E8000188A80E0DF91CF9108958F929F92AF9230
:103E9000BF92CF92EF920F93A42EB12CB22A1F9211
:103EA0001F921F921F921F921F92812C912CC12C46
:103EB000E62E01E023E240E0FC01628582819381ED
:103EC0000E941D1B0F900F900F900F900F900F905E
:103ED0000F91EF90CF90BF90AF909F908F900895EB
:103EE0008F929F92AF92BF92CF92EF920F93A62E96
:103EF000B12C1F921F923F932F935F934F934A01D0
:103F0000C12CE12C00E023EA40E0FC0162858281C3
:103F100093810E941D1B0F900F900F900F900F9098
:103F20000F900F91EF90CF90BF90AF909F908F9098
:103F300008958F929F92AF92BF92CF92EF920F937C
:103F4000A42EB12CB22A1F921F921F921F921F9271
:103F50001F92812C912CC12CE62E03E023E240E03D
:103F6000FC016285828193810E941D1B0F900F903E
:103F70000F900F900F900F900F91EF90CF90BF90F8
:103F8000AF909F908F9008952F923F924F925F92A3
:103F90006F927F928F929F92AF92BF92CF92DF9259
:103FA000EF92FF920F931F93CF93DF93CDB7DEB7BE
:103FB000E8970FB6F894DEBF0FBECDBFDC011A96AE
:103FC0003C91311107C1122F242E362E3C01FC01E9
:103FD000C280D380D601ED91FC910190F081E02D5B
:103FE00060E0C60109957C01009709F4F5C0FC0169
:103FF000A080B180A114B10409F4F0C04301F4E041
:104000008F0E911CDC0111969C928E9214961C933B
:10401000FE0131962F018F0128E030E040E060E0A2
:10402000D30112968D919C9113970E94FD1BF7016D
:1040300014828111D9C08D81893009F0D1C00981E4
:10404000D601ED91FC910280F381E02D222D41E01B
:10405000632DC6010995F3018287882309F4C2C044
:1040600098859583282F40E060E0828193810E94AB
:104070004B1C182F882389F0D701AD92BC92D60132
:10408000ED91FC910480F581E02DD3011A966C919D
:10409000C6010995F3011286ABC0202F013208F04A
:1040A00020E2D701AD92BC9221110BC0940142E0F5
:1040B000F3016285828193810E94FC16811197C071
:1040C00010C030E0820140E0D3011A966C911A973B
:1040D00012968D919C9113970E94FD1B811187C0B0
:1040E000E5CF1F921F925F924F921F9288E08F93AD
:1040F00088E0882E912CA12CB12C99E2C92EE12CBC
:1041000006E020EA40E0F3016285828193810E940B
:104110001D1B182F0F900F900F900F900F900F9066
:10412000811166C08B81D3011B968C931B97720102
:1041300000E028E030E040E01A966C911A97129661
:104140008D919C9113970E94241C811150C02B814A
:104150003C8140E0F3016285828193810E94241CAE
:10416000811145C0298130E0CE0181967C0140E07B
:10417000D3011A966C911A9712968D919C91139770
:104180000E94241C811133C02E8140E0F30162851E
:10419000828193810E94B91D811129C001E0D30160
:1041A0001B968C91801740F020E0402F68E0C301FF
:1041B0000E94991F0F5FF3CFD3011296ED91FC91EE
:1041C0001397EA58FF4F80818460808381E0509686
:1041D0008C930EC019ED0CC016ED0AC017ED08C087
:1041E00011ED06C014ED04C0F701B182A082182FB2
:1041F000812FE8960FB6F894DEBF0FBECDBFDF91DA
:10420000CF911F910F91FF90EF90DF90CF90BF90D3
:10421000AF909F908F907F906F905F904F903F9066
:104220002F900895CF92DF92FF920F931F93CF9319
:10423000DF9300D000D0CDB7DEB78C01F62E198207
:104240001A821B821C8220E0462F61E10E94451FDA
:1042500020E04F2D60E1C8010E94451F20E04F2D56
:1042600064E0C8010E94991F83E0C82ED12C9E01F2
:104270002F5F3F4F44E050E06F2DC8010E94701F38
:104280008823F1F020E04F2D64E1C8010E94451F12
:1042900020E04F2D60E1C8010E94451F64E170E0FD
:1042A00080E090E00E9466140F900F900F900F90A6
:1042B000DF91CF911F910F91FF90DF90CF900895E4
:1042C00089819A81AB81BC819D7F83309140A041DF
:1042D000B105C1F264E670E080E090E00E946614EF
:1042E00081E0C81AD10819F6CDCFFC018CE791E026
:1042F0009183808373836283128613861486158666
:1043000016861786108A148288E085839CE396833C
:1043100091E09783808784E0818761157105B1F012
:10432000DB01AA5ABF4F80E090E02D913D91232BF5
:1043300049F48B96880F991FDB01A80FB91FED93E5
:10434000FC93089501968031910579F70895EF92D5
:10435000FF920F931F93CF938C01C62F7A01FA011E
:1043600080819181A281B3818130F3E09F07F1E0E8
:10437000AF07B105D1F060F48115E1E09E07AE070B
:10438000B10571F181309140A140B10571F064C077
:10439000833021E0920720E1A207B105E1F18330EB
:1043A0009340A041B105B9F157C0809161078111D7
:1043B00053C020E04C2F61E1C8010E94451F20E05E
:1043C0004C2F60E1C8010E94451F20E04C2F64E0A3
:1043D000C8010E94991F81E08093610781EB3DC075
:1043E00020E0462F61E1C8010E94451F20E04C2FCC
:1043F00060E1C8010E94451F10926107F8016285C3
:104400006770C770660F660F660F6C2B8281938191
:104410000E94191721C020E04C2F64E1C8010E94BE
:10442000451F20E04C2F60E1C8010E94451F64E158
:1044300070E080E090E00E946614F8016285F70168
:1044400021812695217067704C2FF801828193811C
:104450000E94B61C1092610780E0CF911F910F91CE
:10446000FF90EF900895CF92DF92EF920F931F93FA
:10447000CF93DF93CDB7DEB72E970FB6F894DEBF9C
:104480000FBECDBF6C0181E090E09E878D87E12C4F
:104490008E010F5F1F4F9E01235F3F4F41E0F601EA
:1044A0006285828193810E94DE1D811151C002E0EC
:1044B00011E089818023D1F019861A861B861C861B
:1044C0009E01275F3F4F44E050E0612FC6010E94EC
:1044D000701F81110BC0AE01475F5F4F612FC60196
:1044E0000E94A721813B99F1811132C0000F1F5F0B
:1044F0001830F9F611E0F6018385811740F119862D
:104500001A861B861C869E01275F3F4F44E050E0C1
:10451000612FC6010E94701F811117C089859A857D
:10452000877091708130914081F48B859C8581608A
:104530009C878B87AE01475F5F4F612FC6010E944A
:10454000A721813B21F0811103C01F5FD4CF80E000
:104550002E960FB6F894DEBF0FBECDBFDF91CF9180
:104560001F910F91EF90DF90CF9008950F931F93BD
:10457000CF93DF93FC012089211102C080E020C08D
:10458000EC010E9435140C851D852E853F85DC01CC
:10459000CB01801B910BA20BB30BB7FDEFCFCE016C
:1045A0000E943322182F0E943514DC01CB018C5954
:1045B0009F4FAF4FBF4F8C879D87AE87BF87812F9F
:1045C000DF91CF911F910F910895FC01858D089582
:1045D0008C5A9F4FFC01808108956E3584E07807E6
:1045E00039F06D3A9BE1790719F06E32764141F46A
:1045F00081E0493197E0590729F04139524011F0E3
:1046000080E008950895CF93DF93EC011E8A1F8AFE
:10461000188E198E1A8E8B8D9C8DDC01ED91FC917C
:104620000480F581E02D6D8D09951D8ECC5ADF4FEC
:10463000188280E0DF91CF9108956F927F928F92E0
:104640009F92AF92BF92CF92DF92EF92FF920F9321
:104650001F93CF93DF93CDB7DEB762970FB6F89471
:10466000DEBF0FBECDBFDC015D963C91311176C03F
:10467000122F642E762E7C01FC01A38CB48CD50104
:10468000ED91FC910190F081E02D60E0C50109956C
:104690006C01009709F464C0FC0180809180811452
:1046A000910409F45FC0C7014E96918380831483FF
:1046B0008E010F5F1F4F22E130E040E060E0D70144
:1046C0005B968D919C915C970E94FD1B182FF601C3
:1046D00091828082811133C089859A858E35F4E07C
:1046E0009F0739F08D3A2BE1920719F08E329641EF
:1046F00051F58B859C858931B7E09B0739F081396D
:10470000E2E09E0719F08A3A9240E9F4D501ED9172
:10471000FC910280F381E02D262D40E0672DC5013C
:104720000995F701858F8823F9F08885878F64E1E3
:1047300070E080E090E00E94661480EE16C08D303C
:1047400019F011EE01C011EDD701ED91FC9104803B
:10475000F581E02DC7010995812F07C089ED05C0BE
:1047600086ED03C087ED01C084ED62960FB6F89424
:10477000DEBF0FBECDBFDF91CF911F910F91FF9094
:10478000EF90DF90CF90BF90AF909F908F907F90F1
:104790006F900895CF92DF92EF92FF920F931F9345
:1047A000CF93DF93EC01022FEB8CFC8CD701ED91C2
:1047B000FC910190F081E02D6D8DC70109956C0190
:1047C000892B11F486ED7EC06CE271E080E090E010
:1047D0000E9466142D8D40E060E08B8D9C8D0E94C0
:1047E0004B1C182F882319F0F601148263C0D601E0
:1047F00014961C92D701ED91FC910190F081E02D6F
:104800006D8DC70109950097E9F2FC0104837E01D3
:10481000FEE1EF0EF11C970141E06D8D8B8D9C8DBB
:104820000E94FC16182F811145C001E009A333E056
:1048300027E090E29AA384E08BA30CA39DA38EA310
:104840003FA398A789A73AA79BA78CA735E03DA7C8
:104850009EA78FA738AB99AB8AAB2BAB9CAB8DAB2C
:104860002EAB9FAB88AF970149E06D8D8B8D9C8DF2
:104870000E94FC16182F81111DC068EC70E080E0CA
:1048800090E00E94661421E04E8D6D8D8B8D9C8D85
:104890000E94B91D182F81110DC00E8BFE01EC5A1C
:1048A000FF4F0083CB51DF4F188219821A821B827F
:1048B00080E008C0E881F9810480F581E02DCE0117
:1048C0000995812FDF91CF911F910F91FF90EF906C
:1048D000DF90CF9008950F931F93CF93DF93DC0168
:1048E00082E991E011969C938E935C967C936E93F3
:1048F0005B975D961C925D97FD01EC5AFF4F10820D
:10490000FD0180E090E0168E582F811102C028E052
:1049100001C020E0278F8C01000F111F9801280F84
:10492000391F2A0F3B1FE90148A14E7F4D7F48A345
:10493000511102C03FE001C031E0E801C80FD91FAA
:10494000CA0FDB1F330F330F28A12370322B38A37C
:104950000196339681319105B1F661157105C1F06B
:10496000FB01EA5AFF4F20E030E081919191892BC1
:1049700051F4255D3F4F220F331FFB01E20FF31F60
:10498000B183A08305C02F5F3F4F2031310569F708
:10499000DF91CF911F910F91089550E0683059F445
:1049A000FA01EE0FFF1FEE0FFF1FE80FF91FEB5A82
:1049B000FF4F81810895693059F4FA01EE0FFF1F0E
:1049C000EE0FFF1FE80FF91FEB5AFF4F808108958C
:1049D000E62FF0E0EE0FFF1FEB59FE4F25913491CB
:1049E000FA01EE0FFF1FEE0FFF1FE80FF91FEB5A42
:1049F000FF4FC901A0E0B0E0DC0199278827408182
:104A0000518162817381482359236A237B2381E08A
:104A1000452B462B472B09F480E008959C0150E07C
:104A2000683031F4480F591FFA01E352FF4F07C0B5
:104A3000693051F4480F591FFA01EF51FF4F80813F
:104A4000882331F110820895E62FF0E0EE0FFF1F6A
:104A5000EB59FE4FA591B491440F551FF901E40F96
:104A6000F51FEB58FF4F60817181FD01E623F723AD
:104A700091E0EF2B09F490E0420F531FFA01EB583D
:104A8000FF4FA095B0956A237B2371836083892FA4
:104A9000089524E0429F800D911D1124FC01EF57E1
:104AA000FF4F208181819281613110F4962339F486
:104AB000681729F081E0621719F080E0089581E01D
:104AC0000895CF939C0184E0489FA0011124F9012F
:104AD000E40FF51FEF55FF4F80819181A281B381D3
:104AE000792F613198F4C62FCA2381F0462F50E008
:104AF00060E070E0BA0155274427409550956095D5
:104B0000709584239523A623B72313C0671308C089
:104B1000420F531FFA01EF55FF4F9927BB2709C0DA
:104B200068130DC0420F531FFA01EF55FF4F88273E
:104B3000BB2780839183A283B38381E001C080E09F
:104B4000CF91089524E0429FA0011124460F511DEA
:104B5000440F551F840F951FFC01EB54FF4F8081BC
:104B6000918108950F931F93613039F050F06230B6
:104B700031F06330E1F468E005C064E003C066E052
:104B800001C062E08A01DC0170E0FB01EE0FFF1F53
:104B90006E0F7F1FFD01E60FF71F468D5D966C912E
:104BA0005D975B968D919C915C970E94031A1F9173
:104BB0000F910895AC01475F5E4FFA011082319664
:104BC0001082319628E02083319620EC208324E067
:104BD00030E00C94B225742FAC01475F5E4FFA01B0
:104BE000108231961082319628E020833196262F4C
:104BF0002064208324E030E0672F0C94B2256623E4
:104C000041F0653041F0E62FF0E0E757FE4F649148
:104C10006C5F0C94EB250895CF93DF93FC01EC5A65
:104C2000FF4F20812223B9F0EC01AC01475F5E4FBA
:104C3000FA0110823196108231968CE08083319691
:104C40008BE1808324E030E0CE010E94B225CF5A70
:104C5000DF4F81E08883DF91CF910895CF93DF9379
:104C6000FC01EC5AFF4F20812223B9F0EC01AC018A
:104C7000475F5E4FFA0110823196108231968CE0C8
:104C8000808331968FE1808324E030E0CE010E9462
:104C9000B225CF5ADF4F81E08883DF91CF9108950D
:104CA000FC01EC5AFF4F2081222389F0AC01475FC1
:104CB0005E4FFA0110823196108231962CE02083EB
:104CC00031962EE1208324E030E00C94B225089543
:104CD000362F622FFC01E75FFE4F1082DC01A65FDA
:104CE000BE4F21E02C9311962FE02C93119620ECCF
:104CF0002C9311961C9211963C9311964C9327E09D
:104D000030E0AF010C94B2259C01462FFC01EE5A15
:104D1000FF4F0190F081E02D309709F00994662350
:104D200031F0613031F0623031F064E005C061E0B3
:104D300003C062E001C063E0C9010C94FF254F92FB
:104D40005F926F927F928F929F92AF92BF92CF921B
:104D5000DF92EF92FF920F931F93CF93DF939C010B
:104D60008C0107511F4F09F450C1D8019C91F901E2
:104D7000E651FF4F983091F48081E901C60FD11DB3
:104D80004F89841759F08F8B882329F0C90121E0BE
:104D90002A8B0E94842681E08A8B37C18081811111
:104DA0001DC0F901E451FF4F8081837109F428C1CE
:104DB000D901A351BF4F8C91823208F421C1260F33
:104DC000311D260F311DD901AB52BF4F808191811A
:104DD0009827892798278D939C9317C1911110C10B
:104DE000813009F0ADC0F901E451FF4F8081803F6F
:104DF00009F006C1462F50E0F901E40FF51F87893D
:104E0000811102C080E8878BD901A151BF4F6D91FC
:104E10007D918D919C910E9421354B015C01CA01CD
:104E2000880F991F880F991F3901680E791ED301C9
:104E3000AB5ABF4F8D929D92AD92BC921397DA01FF
:104E4000C3E0AA0FBB1FCA95E1F7A20FB31F6D0104
:104E5000C5EBCC0ED11C7901D3EFED0EF11CE701AF
:104E6000E880F980E601F982E8826D01D7EBCD0E8A
:104E7000D11C790165EFE60EF11CE70168817981AB
:104E8000E601798368836D01D9EBCD0ED11C7901E0
:104E900067EFE60EF11CE70168817981E60179830D
:104EA00068837D01DBEBED0EF11CD901A750BF4FEC
:104EB0006D917C91D7016D937C93E301CB59DF4FCA
:104EC000C880D980EA80FB808C149D04AE04BF04A6
:104ED00009F496C0C1E0DF01A358BF4FCC93DA01BB
:104EE000AA0FBB1FA20FB31FAB58BF4FB701A6013C
:104EF0004095509560957095AB0166277727250101
:104F000066247724442155214D935C93C11006C03B
:104F1000882021F0DF01AF51BF4FCC93D11006C0E4
:104F2000992021F0E352FF4F41E04083820F931F0D
:104F3000FC01EB59FF4F80829182A282B38260C054
:104F4000823009F05DC0F901E451FF4F8081803F5C
:104F500009F056C075968081811145C031968081D7
:104F60003196C080D12CE12CF12CFE2CED2CDC2CC8
:104F7000CC24E82A31968081C82A862F90E0F90156
:104F8000B4E06B9FE00DF11D1124DF01AF57BF4F5F
:104F9000CD92DD92ED92FC92139750964D915D91DA
:104FA0006D917C911397C416D506E606F70641F17C
:104FB000820F931FEC01CF54DF4F81E08883EF55C0
:104FC000FF4F40955095609570954C215D216E2165
:104FD0007F214083518362837383CD92DD92ED9272
:104FE000FC9213970DC0803F59F4F901EE5FFE4F1C
:104FF0008081833029F4F901E60FF11D81E0828B75
:1050000080E2E80119928A95E9F7DF91CF911F912B
:105010000F91FF90EF90DF90CF90BF90AF909F9057
:105020008F907F906F905F904F9008958F929F9296
:10503000AF92BF92CF92DF92EF92FF920F931F93A6
:10504000CF93DF9300D0CDB7DEB7FC01EC5AFF4F12
:1050500020812223C9F16C01F12C21E090E2A92EDC
:10506000B12C460189EE880E911CBA82A98230E0EB
:10507000F901EE0FFF1F2E0F3F1FF601E20FF31F86
:10508000E12C84019E012F5F3F4F468DF601658D17
:10509000838D948D0E94DE1D89819A81892B21F058
:1050A0006F2DC6010E949F26F394F4E0FF1661F075
:1050B000E1E0FE1629F0F2E0FF1621F027E0D5CF5F
:1050C00023E0D3CF25E0D1CF80E00F900F90DF9188
:1050D000CF911F910F91FF90EF90DF90CF90BF90F5
:1050E000AF909F908F900895262F642FFC01EC5A6B
:1050F000FF4F3081332381F0AC01475F5E4FFA01EF
:1051000010823196108231963CE0308331962083B4
:1051100024E030E00C94B2250895FC0185810895C7
:10512000FC01818908956E3584E0780759F06D3A65
:105130009BE1790739F06E3286E1780719F06F3616
:105140007E40A1F44E3882E0580791F0463190EF4E
:10515000590771F0413084E0580751F081E0433144
:1051600092E0590739F04F3E5E4B21F080E0089500
:1051700081E008950895CF93DF93EC011A828B812B
:105180009C81DC01ED91FC910480F581E02D6D8125
:1051900009951D82198A80E0DF91CF910895FC0165
:1051A0008AEA91E091838083748363831582118AF4
:1051B000168288E087838CE380871186128684E0DC
:1051C000838714861586868761157105B1F0DB012A
:1051D000AA5ABF4F80E090E02D913D91232B49F4D6
:1051E0008B96880F991FDB01A80FB91FED93FC93D5
:1051F000089501968031910579F708958F929F92D5
:10520000AF92BF92CF92DF92EF92FF920F931F93D4
:10521000FC01E83D8FEFF80709F44AC080A5811131
:1052200047C081A5843109F043C062A573A584A558
:1052300095A50E942135628B738B848B958B26A557
:1052400037A5358F248F20A931A9378F268F22A922
:1052500033A931A320A324A935A933A322A3068906
:105260001789208D318D601771078207930701F12F
:1052700068017901C094D094E094F0944701AA2485
:10528000BB246C01EE24FF24C820D920D38EC28E0B
:10529000011104C0662311F041E047A3111104C0BD
:1052A000772311F021E026A3668B778B808F918F77
:1052B0001F910F91FF90EF90DF90CF90BF90AF9034
:1052C0009F908F900895CF92DF92EF920F931F934C
:1052D000CF93DF9300D0CDB7DEB7FC012189222325
:1052E000A9F06C0180E290E09A8389838F01085DC8
:1052F0001F4FE12C9E012F5F3F4F418565818381C8
:1053000094810E94DE1DC6010E94FE2880E00F905D
:105310000F90DF91CF911F910F91EF90DF90CF9081
:105320000895DC01683019F453968C910895693022
:1053300019F452968C910895E62FF0E0EE0FFF1FBE
:10534000E157FE4F4591549160E070E0BA01552756
:10535000442752968D919D910D90BC91A02D48238C
:1053600059236A237B2381E0452B462B472B09F4E5
:1053700080E00895860F911D860F911DFC01848D9C
:10538000958D08950F931F93FC019A018B0144851D
:105390006581838194810E94031A1F910F91089562
:1053A000FC01E85BFF4F21E02083DC01A75BBF4FDE
:1053B00023E02C9311966C9343E050E0BF010C94D2
:1053C000C229662341F0653041F0E62FF0E0ED544C
:1053D000FE4F64916C5F0C94D0290895FC01E85B4A
:1053E000FF4F1082DC01A75BBF4F28E02C93119682
:1053F0001C9211966C9311964C9311961C921196D7
:105400001C9211961C9248E050E0BF010C94C229F6
:105410006F927F928F929F92AF92BF92CF92EF92B4
:105420000F93CF93DF93CDB7DEB766970FB6F8949F
:10543000DEBF0FBECDBF3C011F921F921F921F9275
:105440001F9282E08F9382E0882E912C99E0A92E02
:1054500094E0B92E23E0C22E32E0E32E06E020E8ED
:10546000D30116964C91169715966C911597139635
:105470008D919C9114970E941D1B61E070E080E06B
:1054800090E00E9466141F921F92CE0101969F9396
:105490008F931F928AE08F9342E2842E912C20E812
:1054A000F30146816581838194810E941D1B61E027
:1054B00070E080E090E00E94661480913A01909143
:1054C0003B01A0913C018C8B9D8BAE8B80913D016B
:1054D00090913E01A0913F01898B9A8BAB8B80917B
:1054E000400190914101A09142018E879F87A88B36
:1054F0001B8683E08C871D8643E050E0BE016C5E16
:105500007F4FC3010E94C22943E050E0BE016F5E9D
:105510007F4FC3010E94C22943E050E0BE01625F99
:105520007F4FC3010E94C22943E050E0BE01655F86
:105530007F4FC3010E94C229D3011F96ED91FC91B8
:1055400050970FB6F894DEBF0FBECDBF309711F065
:10555000099507C0E4EBF1E064916C5FC3010E9420
:10556000D02966960FB6F894DEBF0FBECDBFDF918F
:10557000CF910F91EF90CF90BF90AF909F908F9071
:105580007F906F9008952F923F924F925F926F920B
:105590007F928F929F92AF92BF92CF92DF92EF92C3
:1055A000FF920F931F93CF93DF93CDB7DEB7629730
:1055B0000FB6F894DEBF0FBECDBFDC0115965C9030
:1055C0005110FBC0422E242E362E7C01FC01C380DC
:1055D000D480D601ED91FC910190F081E02D60E046
:1055E000C60109955C01009719F436ED532EEDC004
:1055F000FC01608071806114710409F4E1C047010D
:10560000F6E08F0E911CDC0111969C928E921496FE
:105610004C928E010F5F1F4F22E130E040E060E0CE
:10562000F701838194810E94FD1B182FD5016D9293
:105630007C928111B8C089859A858E35B4E09B072C
:1056400061F08D3AEBE19E0741F08E32F6E19F0763
:1056500021F08F369E4009F0A5C08B859C858F3840
:10566000A2E09A0709F49EC08931B7E09B0709F4CC
:1056700099C08139E2E09E0709F494C08E38F2E0C7
:105680009F07A1F0863120EF920781F08130A4E0DE
:105690009A0761F08331B2E09B0741F08F3EEEEB59
:1056A0009E0721F08A33904F09F07CC0D601ED911E
:1056B000FC910280F381E02D222D40E0632DC60194
:1056C0000995F7018583882309F47DC09885978320
:1056D000282F40E060E0838194810E944B1C182FAA
:1056E000D601ED91FC91D50114961C92882359F0B6
:1056F0000480F581E02DD70115966C91C6010995BE
:10570000F701158258C00190F081E02DD701159660
:105710006C91C6010995009709F467CFFC0144829A
:10572000940141E0D70115966C91159713968D91D0
:105730009C9114970E94FC16182F811134C001E02F
:10574000F701018790E2928784E0838722E0248733
:1057500095878687940143E06581838194810E94C7
:10576000FC16182F81111FC068EC70E080E090E0FB
:105770000E94661421E0D70116964C911697159653
:105780006C91159713968D919C9114970E94B91D59
:10579000182F811108C0C7010E94082AF70102834F
:1057A000018B13C011EDD701ED91FC910480F581BF
:1057B000E02DC7010995512E08C029ED522E05C0D4
:1057C00097ED592E02C084ED582E852D62960FB6A6
:1057D000F894DEBF0FBECDBFDF91CF911F910F9127
:1057E000FF90EF90DF90CF90BF90AF909F908F9001
:1057F0007F906F905F904F903F902F9008956F92A1
:105800007F928F929F92AF92BF92CF92DF92EF9250
:10581000FF920F931F93CF93DF9300D01F92CDB7CA
:10582000DEB77C01ADB6BEB68091E80083FF0CC147
:10583000F701808190E020916B0730916C07281769
:10584000390709F001C180916807833009F4A0C0CD
:1058500030F4813071F0823009F4D9C0F5C08A305B
:1058600009F4BCC08B3009F4A4C0893009F0ECC045
:1058700050C080916707813A09F0E6C08DB69EB6A8
:105880001A8219828091690710916A078B83F70148
:105890008085482F50E08DB79EB7841B950B0FB6BF
:1058A000F8949EBF0FBE8DBFEDB7FEB731966F0166
:1058B00060E070E0CF010E943E354FEF410F8E0156
:1058C0000F5F1F4F9601BE016D5F7F4FC7010E94A2
:1058D000E933F70186819781009729F0408550E0F0
:1058E000B6010E9435351092E9008091E800877F6B
:1058F0008093E8008B8181118093F10069817A8126
:10590000C6010E94A72E8091E8008B778093E80063
:1059100039C080916707813209F096C08DB69EB676
:1059200000916D0710916E077090690760906A078B
:105930008DB79EB7801B910B0FB6F8949EBF0FBE1C
:105940008DBFEDB7FEB731966F018091E800877F7C
:105950008093E800B801CF010E94052F8091E800F4
:105960008E778093E80021E0711001C020E030E0E4
:10597000021B130B2C0D3D1D4FEF460D672DC7016C
:105980000E9482340FB6F8949EBE0FBE8DBE5CC0DE
:1059900080916707813A09F057C08091E800877FBE
:1059A0008093E8008091E80080FFFCCFF7018185BB
:1059B00042C080916707813209F046C08091E800BB
:1059C000877F8093E8000E9419309091690781E0F9
:1059D000911101C080E0F701818736C0809167078F
:1059E000813291F58091E800877F8093E8000E94E2
:1059F00019308091690790916A07882736E096955B
:105A000087953A95E1F7F701958784871DC08091C6
:105A10006707813AC9F48091E800877F8093E800A6
:105A20008091E80080FFFCCFF701848595859695ED
:105A30008795969587958093F1008091E8008E7701
:105A40008093E8000E9419300FB6F894BEBE0FBED6
:105A5000ADBE0F900F900F90DF91CF911F910F91DE
:105A6000FF90EF90DF90CF90BF90AF909F908F907E
:105A70007F906F900895FC01399627E0DF011D9219
:105A80002A95E9F721E0FC01218728E833E13587F1
:105A9000248723E0248361E001960C94DB2F5F923E
:105AA0006F927F928F929F92AF92BF92CF92DF922E
:105AB000EF92FF920F931F93CF93DF9300D01F922B
:105AC000CDB7DEB77C01ADB6BEB680916607843037
:105AD00009F08BC08091E4009091E500F7012285E8
