:100000000C940F010C9437010C9437010C943701B8
:100010000C9437010C9437010C9437010C94370180
:100020000C9437010C9437010C94D9310C9437019E
:100030000C9437010C9437010C9437010C94370160
:100040000C9437010C9437010C9437010C94370150
:100050000C9437010C9437010C9437010C945A130B
:100060000C9437010C94A90E0C94DB0E0C94370100
:100070000C9437010C9437010C9437010C94370120
:100080000C9437010C9437010C9437010C94370110
:100090000C94F4100C9437010C9437010C94370134
:1000A0000C9437010C9437010C9437018A148D1489
:1000B0007C1480148614AE14AE14AE1491149514EE
:1000C00099149F14A314AE14A914CF32F632EE3350
:1000D000F632EE3342336533EE33BC33CB330000BC
:1000E000000200090F0000030401000C00000000E2
:1000F00000000000000000000000000000040802F2
:10010000011040804010204080408008020401809F
:1001100040201002011080102040402004040404FC
:10012000040304050202020204030202020206069C
:10013000060606060404020202040400000000236E
:1001400000260029002C002F0000000000250028B8
:10015000002B002E00310000000000240027002AA0
:10016000002D003000000100080002000400200003
:10017000100040008000000000010002002000107C
:100180000040008000040008000001000800020098
:100190000400200010004000800000000001000268
:1001A000002000100040008000040008000002034E
:1001B0000405010902200001010080FA0904000081
:1001C00002584200000705820320000407050103CE
:1001D00020000412011001000000207B0A00D00062
:1001E00001000000010902200001010080FA090459
:1001F00000000258420000070581032000040705A3
:10020000020320000412011001000000205E048996
:100210000221010000000100C902010F5613112440
:100220001FBECFEFDAE0DEBFCDBF12E0A0E0B1E04D
:10023000E4EDFCE602C005900D92AE33B107D9F7AC
:1002400027E0AEE3B2E001C01D92AA39B207E1F7A0
:1002500011E0CFE0D1E004C02197FE010E942836D2
:10026000CC30D107C9F70E94F1020C9468360C9487
:100270000000DF92EF92FF920F931F93CF93DF93D3
:100280007C018C01C0E0D0E0F801D1908F01CE015B
:100290000E945236D81621F06D2DCE010E945A369A
:1002A0002196C430D10581F7C701DF91CF911F910D
:1002B0000F91FF90EF90DF900895EF92FF920F93D0
:1002C0001F93CF93DF937C018C01C0E0D0E0CE017F
:1002D0000E945236F80181938F012196C430D105D6
:1002E000B1F7C701DF91CF911F910F91FF90EF9070
:1002F00008950E94073480918905882319F0813080
:1003000081F008958091E4009091E50020913401FE
:1003100030913501821B930B049798F08AE291E0AB
:100320000EC08091E4009091E5002091240130916D
:100330002501821B930B049720F08AE191E00C9435
:100340005C2E0895462F262F30E0F901ED54FC4F26
:100350009789992329F0682F83EB93E00C943C2430
:10036000220F331FF901EE5EFE4F0190F081E02D68
:100370009281992321F0682FCF010C94A62A80E066
:100380000895462F262F30E0F901ED54FC4F978950
:10039000992329F0682F83EB93E00C941125220F09
:1003A000331FF901EE5EFE4F0190F081E02D928146
:1003B000992381F0682FCF010E94CF2A092E000CCB
:1003C000AA0BBB0B811521E892072FEFA207B207FA
:1003D00029F0089580E090E0DC01089580E090E845
:1003E000AFEFBFEF08950F931F93CF93DF93182FB5
:1003F000062F242FC42FD0E0FE01ED54FC4F878937
:10040000882331F0462F612F83EB93E00E942A2648
:10041000CC0FDD1FCE5EDE4F88819981FC012281E9
:10042000222341F0402F612FDF91CF911F910F9137
:100430000C94FB2ADF91CF911F910F91089590E0CA
:10044000FC01ED54FC4F278921110AC0880F991F28
:10045000FC01EE5EFE4F0190F081E02D8281089557
:1004600081E008952E9A08952E988EBD0DB407FE52
:10047000FDCF1EBC0DB407FEFDCF0E9432028EB52B
:1004800008952E9882608EBD0DB407FEFDCF6EBD1F
:100490000DB407FEFDCF0C94320288EF0E943402A7
:1004A000807C8034A1F018F4882301F1089580380D
:1004B00019F0803CB9F0089588ED0E94340281FD66
:1004C0000BC069EC88ED0E94410282E00CC088ED0F
:1004D0000E94340281FDF5CF6BEC88ED0E94410251
:1004E00083E001C081E080937202089561ED88EDA0
:1004F0000E9441021092720208950F931F93CF93AE
:10050000DF938C01269A0E943202219A229A239824
:10051000209A80E58CBD1DBC259868E188E80E9482
:10052000410260E288E70E94410260E088E70E94A1
:100530004102C0E0D0E088E60E943402219680FDAE
:1005400006C0CF3F8FEFD807B1F78FEF1DC061EC2A
:1005500088ED0E94410260E680ED0E94410264E065
:1005600088EE0E94410288EE0E94340282FFFBCF97
:10057000C8010E944D0260E288EC0E94410261E0E5
:1005800080E80E94410280E0DF91CF911F910F919E
:1005900008958DED94E00E941E166DED74E08CECD4
:1005A00094E00E94E4206DED74E083EB93E00E9400
:1005B000DA236DED74E083E693E00E94E4296DEDAB
:1005C00074E083E193E00E94E4296DED74E083EC34
:1005D00092E00E94E4296DED74E083E792E00C94D0
:1005E000E429CF93DF9300D000D000D0CDB7DEB7A1
:1005F0000E941C1461E089E00E94AF1461E081E177
:100600000E94AF1462E083E10E94AF1462E084E1D3
:100610000E94AF1460E089E00E94EB1461E081E188
:100620000E94EB140E942234789483E10E941A15F0
:100630008C0184E10E941A15000F111F802B8093FA
:10064000E6058CE5EAE8F5E0DF011D928A95E9F719
:1006500060E089E00E94EB1464E170E080E090E0EB
:100660000E94D51361E089E00E94EB1464E170E020
:1006700080E090E00E94D5138DED94E00E947D0211
:100680008F3F79F481E10E941A1561E0892B09F00E
:1006900060E081E10E94EB1464EF71E080E090E0A3
:1006A000E9CF86EF96E00E94C41240E85AE166E086
:1006B00070E086EF96E00E94CE1211E0612F86EF87
:1006C00096E00E94D21241E050E06AE471E086EFC9
:1006D00096E00E944C1261E086EF96E00E94DC12E8
:1006E00064E670E080E090E00E94D5131F5F143054
:1006F00029F7E3EBF3E0A5ECB3E023EC33E08FEF75
:1007000091E082838383848385839D9334962E171F
:100710003F07B9F780E290E00E9452368B3A49F0E9
:100720006BEA80E290E00E945A368EE091E00E94EF
:10073000390188248A94982CA12CB12C8DED94E059
:100740000E944D028EE3282E82E0382EEEE5F2E084
:10075000FE83ED839EE4C92E92E0D92E2AE8E22E94
:1007600025E0F22E10E0412C30E8532E612C712C44
:100770008DED94E00E94841D812F0E941F0288232A
:1007800009F440C680918905882319F0112309F4E2
:10079000DBC0D70112961C92612F80E00E94A2015B
:1007A000882321F0F701828181608283612F82E0BA
:1007B0000E94A201882339F0D70112968C911297DA
:1007C000826012968C93612F83E00E94A20188239D
:1007D00021F0F701828184608283612F81E00E9491
:1007E000A201882339F0D70112968C911297886064
:1007F00012968C93612F85E00E94A201882321F03C
:10080000F701828180618283612F84E00E94A201CE
:10081000882339F0D70112968C9112978062129634
:100820008C93612F86E00E94A201882321F0F701BA
:10083000828180648283612F87E00E94A2018823E5
:1008400039F0D70112968C911297806812968C938A
:10085000612F8DE00E94A201882321F08FEFF70124
:10086000848303C0D70114961C92612F8CE00E94F0
:10087000A201882321F08FEFF701858303C0D70100
:1008800015961C92612F8EE00E94A201882321F010
:100890008FEFF701868303C0D70116961C92612F54
:1008A0008FE00E94A201882321F08FEFF701878358
:1008B00003C0D70117961C92612F8AE00E94A20103
:1008C000882321F08FEFF701818703C0D7011996A4
:1008D0001C92612F8BE00E94A201882321F08FEFF0
:1008E000F701808703C0D70118961C92612F88E01A
:1008F0000E94A201F7018287612F89E00E94A20174
:10090000D7011B968C93612F80E00E94C101F701F3
:1009100095878487612F81E00E94C101D7011F96CE
:100920009C938E931E97612F82E00E94C101F70174
:10093000918B808B612F83E00E94C101D701539678
:100940009C938E935297C9C3813009F0C6C380919E
:10095000CA03882309F4C1C310926D0510926C0577
:1009600010926F0510926E0580917005909171053F
:100970008C7F909371058093700540E065E083EB78
:1009800093E00E943C24882349F080916C0590916B
:100990006D05806490936D0580936C0540E06AE07E
:1009A00083EB93E00E943C24882349F080916C05FE
:1009B00090916D05826090936D0580936C0540E089
:1009C00066E083EB93E00E943C24882309F45FC037
:1009D000809170059091710582609093710580936C
:1009E000700580916E0290916F02A0917002B0919B
:1009F0007102892B8A2B8B2B29F580910A0190910A
:100A00000B01A0910C01B0910D0181159048A10539
:100A1000B10569F48091060190910701A091080148
:100A2000B091090181159048A105B10559F00E94C6
:100A3000A41360936E0270936F0280937002909380
:100A400071022DC00E94A41320916E0230916F029A
:100A50004091700250917102DC01CB01821B930B1B
:100A6000A40BB50B853F9140A105B105C0F04092A4
:100A700006015092070160920801709209014092AC
:100A80000A0150920B0160920C0170920D011092BC
:100A90006E0210926F02109270021092710240E08A
:100AA00067E083EB93E00E943C248111E6C440E0C0
:100AB0006CE083EB93E00E943C248111DEC440E0B3
:100AC0006BE083EB93E00E943C248111E0C440E0A2
:100AD0006DE083EB93E00E943C248111D8C440E098
:100AE00060E183EB93E00E943C248111DAC440E092
:100AF00065E683EB93E00E94B8248111D2C4809113
:100B00005D05982F907F29F090939F0591E0909339
:100B1000A005982F9F70E1F030E1839FC001112460
:100B200080939E0580939F0581E08093A00540E01F
:100B30006EE083EB93E00E943C24882349F080918F
:100B40006E0590916F05826090936F0580936E059E
:100B500080916205982F9F70E1F0A0E18A9FC0010B
:100B6000112480939E0580939F0581E08093A005CA
:100B700040E06EE083EB93E00E943C24882349F040
:100B800080916E0590916F05986090936F058093AA
:100B90006E0580915C05807F89F040E06EE083EB1C
:100BA00093E00E943C24882349F080916E05909147
:100BB0006F05816090936F0580936E058091560557
:100BC000982F9F7059F0B0E18B9FC0011124809342
:100BD0009E0580939F0581E08093A00540E068E03A
:100BE00083EB93E00E94B824811109C040E064E0E7
:100BF00083EB93E00E943C24882309F45CC440E02A
:100C000067E183EB93E00E94B824882349F0809148
:100C10006E0590916F05906190936F0580936E05BE
:100C200040E066E183EB93E00E94B824882349F01A
:100C300080916E0590916F05906290936F058093FF
:100C40006E0540E065E183EB93E00E94B8248823C1
:100C500049F080916E0590916F05906490936F05B7
:100C600080936E0540E064E183EB93E00E94B8243A
:100C7000882349F080916E0590916F05906890935C
:100C80006F0580936E0540E063E183EB93E00E9483
:100C9000B824882349F08091700590917105816096
:100CA000909371058093700540E060E083EB93E0E2
:100CB0000E947D248111CCC540E061E083EB93E08C
:100CC0000E947D248111C4C540E062E083EB93E083
:100CD0000E947D248111C2C540E063E083EB93E074
:100CE0000E947D248111BAC58091820580311CF05B
:100CF0008FE0809382058091820587FD10928205A6
:100D000040E067E283EB93E00E94D024882351F017
:100D10008091700590917105E8E08E2790937105A0
:100D20008093700540E067E383EB93E00E94D0245A
:100D3000882351F08091700590917105F4E08F2720
:100D4000909371058093700540E066E283EB93E039
:100D50000E94D024882351F08091700590917105F4
:100D600020E48227909371058093700540E066E34C
:100D700083EB93E00E94D024882351F0809170058A
:100D80009091710530E283279093710580937005EF
:100D900040E066E483EB93E00E94D024882351F086
:100DA0008091700590917105A0E18A27909371055B
:100DB0008093700540E065E383EB93E00E94B824E4
:100DC000882349F080916E0590916F058160909322
:100DD0006F0580936E0540E064E383EB93E00E942F
:100DE000B824882349F080916E0590916F05826048
:100DF00090936F0580936E0540E061E083EB93E094
:100E00000E94D024811115C440E063E383EB93E09A
:100E10000E94B82481115DC540E06FE083EB93E050
:100E20000E943C24811155C540E065E483EB93E0CA
:100E30000E94B824811157C540E061E583EB93E03F
:100E40000E94B82481114FC540E064E483EB93E035
:100E50000E94B824811151C540E065E583EB93E021
:100E60000E94B824811149C540E063E483EB93E01C
:100E70000E94B82481114BC540E064E583EB93E008
:100E80000E94B824811143C540E061E283EB93E006
:100E90000E94B824882349F080916C0590916D05DB
:100EA000806890936D0580936C0540E061E383EB6F
:100EB00093E00E94B824882349F080916C059091BA
:100EC0006D05926090936D0580936C0540E061E440
:100ED00083EB93E00E94B824882349F080916C054D
:100EE00090916D05986090936D0580936C0540E03E
:100EF00066E783EB93E00E94B824882349F0809151
:100F00006C0590916D05916090936D0580936C05D3
:100F100040E067E783EB93E00E94B824882349F020
:100F200080916C0590916D05946090936D05809310
:100F30006C0540E062E583EB93E00E94B8248823CF
:100F400049F080916C0590916D05906190936D05CD
:100F500080936C0540E063E683EB93E00E94B82445
:100F6000882349F080916C0590916D058064909381
:100F70006D0580936C0540E064E683EB93E00E948E
:100F8000B824882351F080916C0590916D058F7D78
:100F9000806190936D0580936C0540E062E683EB81
:100FA00093E00E94B824882351F080916C059091C1
:100FB0006D058F7E806290936D0580936C05009126
:100FC000E9000F709091EC00892F817090FD80E80E
:100FD000082B81E08093E9008091E80082FF0DC03A
:100FE00040E050E066E170E084E595E00E94672F04
:100FF0008091E8008B778093E8000F700093E90000
:1010000040E068E083EB93E00E943C2410927C0572
:1010100080937D0540E069E083EB93E00E943C24EF
:10102000109280058093810540E061E783EB93E0B7
:101030000E94B824882309F40FC380E09FEF9093A7
:101040007F0580937E0540E068E083EB93E00E949B
:10105000B824882309F405C381E091E00E945D0172
:1010600040E064E083EB93E00E94B824811103C365
:1010700040E060E083EB93E00E94112590937905B6
:101080008093780540E061E083EB93E00E941125B6
:101090008095909590937B0580937A0540E068E079
:1010A00083EB93E00E94B824882309F4C7C340E08F
:1010B00060E083EB93E00E94112590937905809383
:1010C000780540E061E083EB93E00E941125809574
:1010D000909590937B0580937A0540E062E083EBE6
:1010E00093E00E94B8248823A1F140E064E083EB00
:1010F00093E00E94D024882361F18091E000816018
:101100008093E0000E94A41360938405709385058A
:10111000809386059093870580918905813009F435
:10112000E2C4412F61E083EB93E00E945A28412FF3
:101130006AE083EB93E00E945A28412F61E083EB41
:1011400093E00E945A28412F6AE083EB93E00E94CB
:101150005A288091840590918505A0918605B091CB
:101160008705892B8A2B8B2B09F44FC00E94A4136F
:101170002091840530918505409186055091870521
:10118000DC01CB01821B930BA40BB50B853F914077
:10119000A105B105D0F180918905813009F4B8C469
:1011A00081E08093890510929E0510929F0580939F
:1011B000A00510926D0510926C0510926F051092AB
:1011C0006E051092710510927005412F61E083EB5E
:1011D00093E00E945A28412F6AE083EB93E00E943B
:1011E0005A28412F61E083EB93E00E945A28412F57
:1011F0006AE083EB93E00E945A28109284051092D3
:10120000850510928605109287050E94A413AD8172
:10121000BE812D913D914D915C91DC01CB01821BF2
:10122000930BA40BB50B4197A105B10508F481C040
:10123000612F80E10E94A2018823C1F1F601808123
:101240009181A281B381892B8A2B8B2B41F40E943F
:10125000A413D6016D937D938D939C9313970E9455
:10126000A413F6012081318142815381DC01CB013D
:10127000821B930BA40BB50B893E9340A105B105CE
:1012800008F44EC00E94A413D6012D913D914D91BA
:101290005C91DC01CB01821B930BA40BB50B8C344E
:1012A0009440A105B10508F452C43AC0612F85E00D
:1012B0000E94A2018823F9F0612F84E00E94A2011C
:1012C0008823C9F0612F88E00E94A201882399F049
:1012D000612F89E00E94A201882369F0EAE8F5E025
:1012E00081E0148A158A868B779626EE35E02E17D4
:1012F0003F07B9F715C0F6011082118212821382DE
:10130000D70156968C91813059F4412FD7015596CB
:101310006C91559754968C910E94F301F701168AAF
:101320000E94A413AD81BE816D937D938D939C9398
:101330001397112309F463C0612F86EF96E00E9492
:10134000D21244E150E0B70186EF96E00E944C12C1
:1013500061E086EF96E00E94DC120E94A413F10186
:101360002081318142815381DC01CB01821B930BAF
:10137000A40BB50B0997A105B10508F440C042E0E4
:10138000612F86EF96E00E945313823061F586EF5D
:1013900096E00E9429128F3FFFEF9F0781F0D7014F
:1013A00054962C91549730E0AC01552724173507FB
:1013B00031F054968C93549781E056968C9386EF37
:1013C00096E00E9429128F3FBFEF9B0781F0F70143
:1013D000258930E0AC0155272417350741F0858B6E
:1013E00081E0868B04C086EF96E00E94A8120E94DE
:1013F000A413D1016D937D938D939C9313970E94B9
:10140000790114C0112391F0612F86EF96E00E94BC
:10141000D21241E050E060E071E086EF96E00E9479
:101420004C1261E086EF96E00E94DC121F5FB4E090
:101430002B0E311CE7E1EE0EF11C2D813E812C5F5D
:101440003F4F3E832D8334E0C30ED11C143009F08E
:101450008FC980E00E941F02882309F4A2C38091F3
:10146000840590918505A0918605B0918705892B0B
:101470008A2B8B2B09F484C394C380916C059091C3
:101480006D05846090936D0580936C0518CB8091F9
:101490006C0590916D05816090936D0580936C054E
:1014A0001ECB80916C0590916D05886090936D05C1
:1014B00080936C0524CB40E064E083EB93E00E94D2
:1014C000B82481111DCC40E067E183EB93E00E94DA
:1014D000B824882349F080916E0590916F0580644F
:1014E00090936F0580936E0540E066E183EB93E097
:1014F0000E94B824882349F080916E0590916F0571
:10150000886090936F0580936E0540E065E183EB02
:1015100093E00E94B824882349F080916C05909153
:101520006D05906290936D0580936C0540E064E1D9
:1015300083EB93E00E94B824882349F080916E05E4
:1015400090916F05806890936F0580936E0540E0E1
:1015500063E183EB93E00E94B824882349F08091F3
:101560006E0590916F05806190936F0580936E0575
:1015700040E062E183EB93E00E94B824882349F0C5
:1015800080916C0590916D05906490936D058093AA
:101590006C0540E061E183EB93E00E94B82488236E
:1015A00049F080916E0590916F05916090936F0561
:1015B00080936E0540E067E683EB93E00E94B824D9
:1015C000882349F080916E0590916F058062909319
:1015D0006F0580936E0540E066E683EB93E00E9422
:1015E000B824882349F080916C0590916D0590682E
:1015F00090936D0580936C0540E060E083EB93E091
:101600000E947D24882309F42FC140E063E083EB2E
:1016100093E00E943C24811127C140E061E083EB0C
:1016200093E00E943C2481111FC1809105018F5FCE
:101630004DC180917005909171058C7F892B29F0A7
:101640001092710510927005DFCB8CEF9FEF909395
:10165000710580937005D8CB10927F0510927E059E
:10166000F2CC40E064E083EB93E00E943C248823CA
:1016700009F457C1F1CC40E066E683EB93E00E94A9
:10168000B824882361F088EC90E0A0E0B0E080937B
:10169000010190930201A0930301B093040140E083
:1016A00067E683EB93E00E94B824882361F08AEF19
:1016B00090E0A0E0B0E08093010190930201A0933C
:1016C0000301B093040140E061E183EB93E00E94E9
:1016D000B824882361F08CE291E0A0E0B0E0809330
:1016E000010190930201A0930301B093040140E033
:1016F00062E183EB93E00E94B824882361F08EE5D9
:1017000091E0A0E0B0E08093010190930201A093EA
:101710000301B093040140E063E183EB93E00E9496
:10172000B824882361F080E991E0A0E0B0E08093E4
:10173000010190930201A0930301B093040140E0E2
:1017400064E183EB93E00E94B824882361F08AE887
:1017500092E0A0E0B0E08093010190930201A09399
:101760000301B093040140E065E183EB93E00E9444
:10177000B824882361F080E293E0A0E0B0E0809399
:10178000010190930201A0930301B093040140E092
:1017900066E183EB93E00E94B824882361F088EE31
:1017A00093E0A0E0B0E08093010190930201A09348
:1017B0000301B093040140E067E183EB93E00E94F2
:1017C000B824882361F080EB94E0A0E0B0E080933F
:1017D000010190930201A0930301B09304011982C7
:1017E0001A821B821C82CE0101960E945D014981F2
:1017F0005A816B817C818091010190910201A091BD
:101800000301B0910401481759076A077B0709F4DF
:101810002FCC81E091E00E94390181E10E941A15EC
:1018200061E0892B09F060E081E10E94EB1464E63D
:1018300070E080E090E00E94D5131ACC40E064E0B4
:1018400083EB93E00E943C24882309F489C02FCCC9
:10185000809182058E5F8093820536CA80918205D1
:1018600082508093820540CA40E062E083EB93E0BF
:101870000E947D24882381F040E063E083EB93E0C5
:101880000E943C24811108C040E061E083EB93E0BA
:101890000E943C248823B9F08091050187301CF018
:1018A00086E0809305018091050187FD1092050176
:1018B000E09105010E2E000CFF0BED5BFE4F8081C9
:1018C000809383051DCA8091050181508093050195
:1018D000E3CF80916E0590916F05846090936F05C2
:1018E00080936E05A1CA80916E0590916F059260FC
:1018F00090936F0580936E05A7CA80916E059091B5
:101900006F05946090936F0580936E05ADCA8091CA
:101910006E0590916F05986090936F0580936E05AA
:10192000B3CA40E063E083EB93E00E943C24882349
:1019300019F081E090E80AC040E061E083EB93E0B9
:101940000E943C24882339F08FEF9FE7909377051E
:101950008093760581CB10927705109276057CCB2B
:1019600040E062E083EB93E00E941125BC01990FF7
:10197000880B990B9B01AC01245B324E4F4F5F4F9C
:1019800029393A4341055105F0F020910101309188
:10199000020140910301509104010E940936809197
:1019A000060190910701A0910801B0910901820FF1
:1019B000931FA41FB51F8093060190930701A09366
:1019C0000801B093090140E063E083EB93E00E94DB
:1019D0001125BC01990F880B990B9B01AC01245B6D
:1019E000324E4F4F5F4F29393A4341055105F0F0D0
:1019F00020910101309102014091030150910401B5
:101A00000E94093680910A0190910B01A0910C016E
:101A1000B0910D01821B930BA40BB50B80930A01AF
:101A200090930B01A0930C01B0930D0180910601DE
:101A300090910701A0910801B0910901B7FF08C07A
:101A400010920601109207011092080110920901EC
:101A50008091060190910701A0910801B0910901C0
:101A60000097A140B10544F08092060190920701D1
:101A7000A0920801B092090180910A0190910B0196
:101A8000A0910C01B0910D010097A140B10544F067
:101A900080920A0190920B01A0920C01B0920D016C
:101AA00080910A0190910B01A0910C01B0910D0160
:101AB000B7FF08C010920A0110920B0110920C019E
:101AC00010920D018091060190910701909373058A
:101AD0008093720580910A0190910B019093750596
:101AE00080937405E4CA412F69E083EB93E00E9480
:101AF0005A28412F62E083EB93E00E945A28412F3D
:101B000069E083EB93E00E945A28412F62E01DCBED
:101B10001092890510929E0510929F058093A00552
:101B200010928C05412F69E083EB93E00E945A28C4
:101B3000412F62E083EB93E00E945A28412F69E035
:101B400083EB93E00E945A28412F62E052CBF701C9
:101B50001282412F60E080E00E94F3016AE070E0B1
:101B600080E090E00E94D513612F83EB93E00E9408
:101B70007725D6011D921D921D921C921397D0CBF2
:101B80008091E0008E7F8093E0008091880588231B
:101B900011F40C949E0360E081E10E94EB140C941C
:101BA0009E0361E081E10E94EB148091E00081607E
:101BB0008093E00081E08093C5030C949E03FC01B8
:101BC000918D228D892F90E0805C9F4F821B91091F
:101BD0008F7399270895FC01918D828D981731F0AC
:101BE000828DE80FF11D858D90E008958FEF9FEFB6
:101BF0000895FC01918D828D981761F0828DDF012F
:101C0000A80FB11D5D968C91928D9F5F9F73928FEF
:101C100090E008958FEF9FEF0895FC01538D448D60
:101C2000252F30E0842F90E0821B930B541710F087
:101C3000CF96089501970895FC01848DDF01A80FC8
:101C4000B11DA35ABF4F2C91848D90E001968F73E4
:101C50009927848FA689B7892C93A089B1898C9103
:101C600080648C93938D848D981306C00288F389C9
:101C7000E02D80818F7D80830895EF92FF920F93F6
:101C80001F93CF93DF93EC0181E0888F9B8D8C8D28
:101C9000981305C0E889F989808185FD24C0F62E56
:101CA0000B8D10E00F5F1F4F0F731127E02E8C8DEF
:101CB000E8120CC00FB607FCFACFE889F9898081D9
:101CC00085FFF5CFCE010E941C0EF1CF8B8DFE015A
:101CD000E80FF11DE35AFF4FF0820B8FEA89FB8971
:101CE0008081806207C0EE89FF896083E889F98975
:101CF00080818064808381E090E0DF91CF911F91AB
:101D00000F91FF90EF900895CF93DF93EC01888DB2
:101D10008823C9F0EA89FB89808185FD05C0A889EF
:101D2000B9898C9186FD0FC00FB607FCF5CF808175
:101D300085FFF2CFA889B9898C9185FFEDCFCE01BF
:101D40000E941C0EE7CFDF91CF91089580E090E0D4
:101D500008951F920F920FB60F9211242F938F9315
:101D60009F93EF93FF93E091F705F091F805808141
:101D7000E091FD05F091FE0582FD12C090818091F9
:101D800000068F5F8F7320910106821751F0E0915A
:101D90000006F0E0E951FA4F958F8093000601C0EC
:101DA0008081FF91EF919F918F912F910F900FBEA6
:101DB0000F901F9018951F920F920FB60F9211243B
:101DC0002F933F934F935F936F937F938F939F9343
:101DD000AF93BF93EF93FF9387EE95E00E941C0EA5
:101DE000FF91EF91BF91AF919F918F917F916F91F3
:101DF0005F914F913F912F910F900FBE0F901F90C9
:101E00001895E7EEF5E01382128288EE93E0A0E0E9
:101E1000B0E084839583A683B7838FE491E09183B8
:101E200080838DEC90E0958784878CEC90E0978799
:101E3000868788EC90E0918B808B89EC90E0938B87
:101E4000828B8AEC90E0958B848B8EEC90E0978B64
:101E5000868B118E128E138E148E08950895CF9254
:101E6000DF92EF92FF920F931F93CF93DF936C015A
:101E70007A018B01C0E0D0E0CE15DF0581F0D801FA
:101E80006D918D01D601ED91FC910190F081E02DD5
:101E9000C6010995892B11F02196EECF7E01C7016D
:101EA000DF91CF911F910F91FF90EF90DF90CF9036
:101EB0000895CF93DF93CCEBD0E018821092F50613
:101EC00081E08093F3061092F20661E082E00E94C6
:101ED000EB1461E083E00E94EB14E9EBF0E0808119
:101EE0008E7F808380818D7F808388E48093B8009B
:101EF00085E48883DF91CF910895813049F4109271
:101F0000840610928506109286061092870617C0E6
:101F10008091840690918506A0918606B0918706EF
:101F20000196A11DB11D8093840690938506A09310
:101F30008606B093870684E690E00E941114809193
:101F4000840690918506A0918606B091870680351B
:101F50009105A105B10580F01092840610928506C6
:101F600010928606109287060E94590F61E081E167
:101F70000E94EB1481E0089580E008959B01AC017C
:101F800060E074E284EF90E00E94E735DA01C90175
:101F90004097A109B109B695A79597958795809324
:101FA000B8000895FF920F931F93CF93DF93D82F1C
:101FB000162F072FC42FF22E413208F054C081E0B3
:101FC0000E947D0F8091F506882329F080E00E9411
:101FD0007D0F8823B9F381E08093F506F092F30634
:101FE0009FEF909388061092CD069C0F9093CC069D
:101FF0008093F4068091F406DD0FD82BD093F4067D
:102000008091F206813061F41092F2068091F4061C
:102010008093BB008091BC0083FDF8CF85EC01C0AC
:1020200085EE8093BC0081E00E947D0F8091F506D3
:10203000813029F480E00E947D0F8823B9F38091DC
:10204000CD068C1710F4C091CD06AEECB6E0912F02
:10205000E12FF02F8E2F891B8C1718F48D9181930F
:10206000F9CF8C2F01C080E0DF91CF911F910F91AC
:10207000FF900895DF92EF92FF920F931F93CF93FB
:10208000DF93413208F062C0D22E142FE72EF62ED5
:10209000D82F81E00E947D0FC091F506CC2331F04E
:1020A00080E00E947D0F81114FC0F6CF82E08093C7
:1020B000F5060093F3068FEF809388061092CD0605
:1020C0001093CC069F2DAEECB6E0EF2DFE2D8E2F9B
:1020D000891B811718F481918D93F9CF1092F40622
:1020E0008091F406DD0FD82BD093F4068091F20690
:1020F000813061F41092F2068091F4068093BB0067
:102100008091BC0083FDF8CF85EC01C085EE809303
:10211000BC0081E00E947D0FDD2051F08091F5062A
:10212000823031F480E00E947D0F81110DC0F4CF28
:10213000809188068F3F79F080918806803241F047
:1021400080918806803331F0C4E005C0C1E003C04F
:10215000C2E001C0C3E08C2FDF91CF911F910F919E
:10216000FF90EF90DF9008954091AA06262F30E06F
:10217000240F311D21323105DCF42091F506243085
:10218000C9F4FC0180E090E0861758F43091AA066B
:102190002191DC01A455B94FA30FB11D2C930196D9
:1021A000F3CF8091AA06680F6093AA0680E0089595
:1021B00081E0089582E0089585ED8093BC0081E080
:1021C0000E947D0F8091BC0084FF05C080E00E94CA
:1021D0007D0F8823B9F31092F506089585EC80935E
:1021E000BC001092F50608951F920F920FB60F9241
:1021F00011242F933F934F935F936F937F938F930C
:102200009F93AF93BF93EF93FF938091B900887F23
:10221000803609F49EC078F5883209F45DC090F4E8
:10222000803109F456C038F4882309F4F5C08830A9
:1022300009F44FC0F5C0883109F44EC0803209F46A
:102240005FC0EEC0803409F46AC058F4803309F4EA
:1022500057C0883309F0E4C0809388060E94EE10CE
:10226000DFC0803509F44FC0883509F45DC088347B
:1022700009F0D6C0D3C0883909F4C4C0A8F488379F
:1022800009F467C038F4883609F463C0803709F46C
:1022900060C0C6C0883809F4B5C0803909F45FC091
:1022A000803809F0BDC05BC0803B09F483C038F4BE
:1022B000803A09F466C0883A09F47CC0B1C0803C19
:1022C00009F4A4C0883C09F4A1C0883B09F487C084
:1022D000A7C08091F40610C09091CD068091CC06E5
:1022E000981770F5E091CD0681E08E0F8093CD06B2
:1022F000F0E0E253F94F80818093BB0085EC83C00E
:10230000809388068BC0E091CD0681E08E0F80938C
:10231000CD068091BB00F0E0E253F94F80839091AD
:10232000CD068091CC066BC0E091CD0681E08E0F8A
:102330008093CD068091BB00F0E0E253F94F80839B
:102340008091F30681116AC081E08093F20684EAED
:102350005EC083E08093F50610928906CFCF80910E
:102360008906803208F04EC0E091890681E08E0F28
:10237000809389068091BB00F0E0E657F94F808397
:10238000BDCF0E94EE1080918906803230F4E0913A
:102390008906F0E0E657F94F10826091890670E0F7
:1023A000E091EE06F091EF068AE896E0099510922A
:1023B000890636C084E08093F5061092AB06109231
:1023C000AA06E091F006F091F10609958091AA061F
:1023D000811105C081E08093AA061092AC06E091BD
:1023E000AB0681E08E0F8093AB06F0E0E455F94F29
:1023F00080818093BB009091AB068091AA069817CC
:1024000008F47CCF85E88093BC000AC085EC8093FB
:10241000BC001092F50604C0109288060E94DC10E1
:10242000FF91EF91BF91AF919F918F917F916F91AC
:102430005F914F913F912F910F900FBE0F901F9082
:1024400018958091260790E020912707821B91091B
:1024500008959091270780912607981750F4E92F47
:10246000F0E0E85DF84F208130E09F5F9093270710
:1024700002C02FEF3FEFC9010895E0912707809137
:102480002607E81730F4F0E0E85DF84F808190E02F
:1024900008958FEF9FEF0895CF92DF92EF92FF9212
:1024A0000F931F93CF93DF937C01CB018A0120917F
:1024B0000207222389F0EB016B01C40ED51ECC1557
:1024C000DD0569F06991D701ED91FC910190F081F2
:1024D000E02DC7010995F3CF642F0E94B410C80105
:1024E000DF91CF911F910F91FF90EF90DF90CF90F0
:1024F0000895CF93DF931F92CDB7DEB76983209104
:1025000002072223D1F020910307203240F021E07E
:1025100030E0FC013383228380E090E015C080919D
:102520000407E82FF0E0EB5FF84F998190838F5F0D
:10253000809304078093030705C061E0CE010196F4
:102540000E94B41081E090E00F90DF91CF91089548
:10255000109227071092260780E2E8E2F7E0DF01F9
:102560001D928A95E9F70895FC011382128288EE84
:1025700093E0A0E0B0E084839583A683B78381E6EF
:1025800091E0918380830895109227071092260787
:1025900010920407109203070C94590FCB01BA0153
:1025A0000C94BE0F81E08093020760932507109280
:1025B00004071092030708950F93062F21E040911E
:1025C000030765E077E0809125070E943A1010929A
:1025D000040710920307109202070F9108954F927B
:1025E0005F926F927F92AF92BF92CF92EF92FF92E3
:1025F0000F931F93CF93DF935C01F62ED42F280106
:102600003901EE2021F10E94D212CE2DC43008F003
:10261000C3E0C150C0F028E0C29FC0011124A30153
:10262000920104C056954795379527958A95D2F71C
:10263000CA01B901D501ED91FC910190F081E02D25
:10264000C5010995E6CF60E0C5010E94DC124D2F5F
:10265000D13208F040E22C2D68E277E08F2D0E9405
:10266000D20F1092270780932607DF91CF911F91F9
:102670000F91FF90EF90CF90BF90AF907F906F90B1
:102680005F904F900895CF92EF920F931F93C22EB9
:10269000E12C00E010E098010E94EF121F910F91D1
:1026A000EF90CF90089521E00C94431386EF96E0CD
:1026B0000C94B4121F920F920FB60F9211242F9305
:1026C0003F938F939F93AF93BF93809149079091CE
:1026D0004A07A0914B07B0914C073091480723E07F
:1026E000230F2D3720F40196A11DB11D05C026E84A
:1026F000230F0296A11DB11D20934807809349071F
:1027000090934A07A0934B07B0934C0780914D07D5
:1027100090914E07A0914F07B09150070196A11DCF
:10272000B11D80934D0790934E07A0934F07B09330
:102730005007BF91AF919F918F913F912F910F9033
:102740000FBE0F901F9018952FB7F894609149070E
:1027500070914A0780914B0790914C072FBF0895C5
:102760003FB7F89480914D0790914E07A0914F0785
:10277000B091500726B5A89B05C02F3F19F00196D0
:10278000A11DB11D3FBFBA2FA92F982F8827820FF7
:10279000911DA11DB11DBC01CD0142E0660F771F47
:1027A000881F991F4A95D1F708958F929F92AF92F3
:1027B000BF92CF92DF92EF92FF926B017C010E9459
:1027C000B0134B015C01C114D104E104F10401F127
:1027D0000E942E0F0E94B013DC01CB0188199909C9
:1027E000AA09BB09883E9340A105B10560F321E029
:1027F000C21AD108E108F10888EE880E83E0981E1D
:10280000A11CB11CC114D104E104F10419F7DBCF00
:10281000FF90EF90DF90CF90BF90AF909F908F9000
:1028200008958230910538F0880F991F880F991FFD
:1028300005970197F1F70895789484B5826084BD77
:1028400084B5816084BD85B5826085BD85B58160B4
:1028500085BDEEE6F0E0808181608083E1E8F0E014
:102860001082808182608083808181608083E0E843
:10287000F0E0808181608083E1E9F0E08081826026
:102880008083808181608083E0E9F0E080818160E5
:102890008083E1ECF0E080818460808380818260CD
:1028A0008083808181608083E3ECF0E080818160BF
:1028B0008083E0ECF0E0808182608083E2ECF0E0F5
:1028C000808181608083EAE7F0E08081846080839A
:1028D0008081826080838081816080838081806844
:1028E0008083089590E0FC013197EF30F105B0F559
:1028F000EA5AFF4F0C942836809180008F7703C0EE
:10290000809180008F7D8093800008958091800069
:10291000877FF9CF84B58F7702C084B58F7D84BD62
:102920000895809190008F7707C0809190008F7DEF
:1029300003C080919000877F8093900008958091DC
:10294000C0008F7703C08091C0008F7D8093C0004E
:1029500008958091C200877F8093C2000895CF932D
:10296000DF9390E0FC01E350FF4F2491FC01E45E13
:10297000FE4F8491882361F190E0880F991FFC013C
:10298000E95AFE4FC591D491FC01E75BFE4FA5913A
:10299000B491611109C09FB7F89488812095822372
:1029A0008883EC912E230BC0623061F49FB7F894BA
:1029B0008881322F309583238883EC912E2B2C93A2
:1029C0009FBF06C08FB7F894E8812E2B28838FBF56
:1029D000DF91CF9108951F93CF93DF93282F30E09D
:1029E000F901E252FF4F8491F901E350FF4FD49176
:1029F000F901E45EFE4FC491CC23C1F0162F811182
:102A00000E947214EC2FF0E0EE0FFF1FE75BFE4F09
:102A1000A591B4919FB7F894111104C08C91D095F1
:102A2000D82302C0EC91DE2BDC939FBFDF91CF91C6
:102A30001F910895CF93DF93282F30E0F901E252E0
:102A4000FF4F8491F901E350FF4FD491F901E45E07
:102A5000FE4FC491CC2391F081110E947214EC2F8F
:102A6000F0E0EE0FFF1FE55CFE4FA591B491EC91F5
:102A7000ED2381E090E021F480E002C080E090E06E
:102A8000DF91CF910895CF93DF93FC01862F80785B
:102A9000A9F4283008F04DC0442321F095819730E7
:102AA00009F447C0EF01A1E0B0E09D85992341F012
:102AB00011962596A031B105C1F73BC080E039C021
:102AC00061111CC085E08A9FE0018B9FD00D11240D
:102AD000CE0FDF1F442331F081E4888785818F5F2B
:102AE000858302C081E0888725E02A9FC0012B9F53
:102AF000900D1124E80FF91F80851BC06770660FC9
:102B0000660F660F442341F0606485818F5F858383
:102B10008770687F682B03C02770687B622B25E075
:102B20002A9FC0012B9F900D1124E80FF91F608789
:102B3000862FDF91CF910895611102C00696089506
:102B4000FC0121E03585631739F02F5F3596203180
:102B5000C9F780E090E00895069635E0239F800D48
:102B6000911D11240895DF92EF92FF920F931F930E
:102B7000CF93DF93EC01E62EF12C85E0689FB00146
:102B80001124FE01E60FF71F8085182F177086FFAE
:102B900017C001E085E0D82EFE01D09EE00DF11DAA
:102BA0001124808586958695869587701817F9F08B
:102BB0000F5F003189F78D81811302C011501D8391
:102BC00085E08E9DF0018F9DF00D1124EC0FFD1F0F
:102BD000108681E0818712862296D783C683DF9193
:102BE000CF911F910F91FF90EF90DF900895602F8C
:102BF000CE010E94B315D0CFFC01613499F49C0141
:102C0000255B3F4F61E0AC014E5F5F4F15866687E5
:102C10001786548743873596E217F307B9F7FC0107
:102C20001582089521E03585631729F02F5F3596C9
:102C30002031C9F70895622F0C94B315FC0183E786
:102C400091E0918380831582108681E081871286CE
:102C5000CF01029697838683128228E023832CE398
:102C60002483DF019F01255B3F4F41E01D961C92AD
:102C70001D971E964C931E971F961C921F971C968D
:102C80009C938E931B971596A217B30779F7EA5872
:102C9000FF4F108281E1809355070895CF93C42F91
:102CA0000E949C15009789F0DC01ED91FC91119731
:102CB000309759F013969C9180E0891731F020816C
:102CC0002C1731F033968F5FF8CF80E090E001C091
:102CD000CF01CF9108950F931F93CF93DF932115C9
:102CE000310571F0E901042F162F0E949C15FC019B
:102CF000892B41F01283D183C083038380E003C01A
:102D000088ED01C086EDDF91CF911F910F9108955D
:102D1000CF92DF92FF920F931F93CF93DF9366239F
:102D200081F1F62E8C016C0186E5C80ED11CC0E045
:102D3000D0E0D6018D919D916D010097F1F0DC01FD
:102D4000ED91FC910084F185E02D0995F81215C0F4
:102D5000AB96CC0FDD1FC00FD11F88819981DC019C
:102D6000ED91FC910480F581E02DDF91CF911F91D1
:102D70000F91FF90DF90CF9009942196C031D1053B
:102D8000C1F680E0DF91CF911F910F91FF90DF900E
:102D9000CF9008952E980895CF93C82F0E94CA16F9
:102DA000CEBD0DB407FEFDCF1EBC0DB407FEFDCF9A
:102DB0000E9432028EB5CF910895CF93DF93C82F32
:102DC000D62F0E94CA16C260CEBD0DB407FEFDCF3D
:102DD000DEBD0DB407FEFDCFDF91CF910C94320222
:102DE0008F929F92AF92BF92CF92DF92EF92FF921B
:102DF0000F931F93CF93DF93EC01D62EC42E59016E
:102E00000E949C157C01009709F445C0FC0180815B
:102E10009181892B09F441C04C2D6D2DCE010E946A
:102E20004E16F501918380830097C9F1FC018281E0
:102E30008695869590E08031910514F08FE090E0C2
:102E400041E050E060E070E04A015B0104C0880CA2
:102E5000991CAA1CBB1C8A95D2F7D501C401019705
:102E6000F801918380836D2D80EE0E94DD1688ED40
:102E70000E94CC16F7019481992331F0CA58DF4F94
:102E800068816260682B02C0682F697F88ED0E94AC
:102E9000DD1680E005C086ED03C087ED01C08BED37
:102EA000DF91CF911F910F91FF90EF90DF90CF9026
:102EB000BF90AF909F908F9008958F929F92AF9206
:102EC000BF92CF92DF92EF92FF920F931F93CF9317
:102ED000DF93862E942E59010E94A4136B017C016E
:102EE00028E8C20E23E1D21EE11CF11C00E010E034
:102EF000D0E0C0E098280E94A413DC01CB018C191B
:102F00009D09AE09BF09B7FF2DC0692D80EF0E9452
:102F1000DD160E94A413DC01CB018C199D09AE09BA
:102F2000BF09B7FF09C088EC0E94CC1687FFF1CF1C
:102F300060E888EC0E94DD1688EF0E94CC16C82F4E
:102F4000CF70C43019F0CE3051F00CC00F5F1F4F5E
:102F5000A114B10481F20A151B0569F603C0DF5FF5
:102F6000D33049F68C2FDF91CF911F910F91FF90B5
:102F7000EF90DF90CF90BF90AF909F908F9008958B
:102F80009F92AF92BF92CF92DF92EF92FF920F93F8
:102F90001F93CF93DF937C01D42F122F902E00E04C
:102FA0006C01C60ED11CC60ED11C86E5C80ED11C04
:102FB000A42EB12CABE2AA0EB11CAA0CBB1CAE0C09
:102FC000BF1CF60180819181DC01ED91FC910280B2
:102FD000F381E02D292D412F6D2F0995803EC9F4F5
:102FE000D1110BC061E088EE0E94DD1666E670E04C
:102FF00080E090E00E94D51314C0F501808191819A
:10300000DC01ED91FC910284F385E02D612F09959F
:1030100008C08D3021F4033008F03FC014C0811186
:103020003FC0F60180819181DC01ED91FC9101901E
:10303000F081E02D292D412F6D2F0995C82F8D305E
:1030400051F4033050F464E670E080E090E00E94B8
:10305000D5130F5FB6CF882311F1D1110BC061E0FA
:1030600088EE0E94DD1666E670E080E090E00E9447
:10307000D51311C0ED2FF0E0BB96EE0FFF1FEE0D44
:10308000FF1D80819181DC01ED91FC910284F3852B
:10309000E02D612F09958C2F03C08DE001C080E0E9
:1030A000DF91CF911F910F91FF90EF90DF90CF9024
:1030B000BF90AF909F9008950F931F93CF93DF938E
:1030C000182F062FEA010E94CA1612601EBDFE01CB
:1030D000802F882339F00DB407FEFDCF91919EBD5E
:1030E0008150F7CFC00FD11D0DB407FEFDCF0E9458
:1030F0003202CE01DF91CF911F910F9108952F924F
:103100003F924F925F926F927F928F929F92AF9277
:10311000BF92CF92DF92EF92FF920F931F93CF93C4
:10312000DF9300D000D01F92CDB7DEB77D836C83D4
:103130004A016901FB01F1808FEF8F0D803408F0A7
:1031400074C00E94A4132B013C01F8E84F0EF3E178
:103150005F1E611C711CEC81FD81828180FD02C0BB
:1031600060E401C060E888EE0E94DD16312C8F2DEE
:1031700090E09A838983C114D10409F448C0E9809E
:10318000FA80CE14DF0408F47601EB82A8016E2DDC
:1031900080E10E945C186E2D88E30E94DD16EC81B0
:1031A000FD816081606280EF0E94DD1688EC0E94E4
:1031B000CC1687FFFBCF60E888EC0E94DD1688EF15
:1031C0000E94CC168F70382EA12CB12C212C3320CC
:1031D00009F46BC00E94A413DC01CB01841995098A
:1031E000A609B709B7FF61C0F6E03F1601F12EE06E
:1031F000321609F455C084E0381209C0FFEFAF1A47
:10320000BF0A8114910449F1A814B90431F588EF7B
:103210000E94CC1685FB882780F9EC81FD81928184
:1032200080FB90F99283832D45C08AED43C088EFDF
:103230000E94CC1685FB882780F991E08927EC81D4
:10324000FD81928180FB90F9928390FD02C060E441
:1032500001C060E888EE0E94DD1660E088E30E940D
:10326000DD16F801608180E10E94DD166B8188E344
:103270000E94DD16EC81FD816081606280EF0E941A
:10328000DD1688EC0E94CC1687FFFBCF60E888EC47
:103290000E94DD1688EF0E94CC168F70382E97CFD3
:1032A000239423E02212D9CFB2CFCE18DF080E0D1F
:1032B0001F1D61CF0F900F900F900F900F90DF9117
:1032C000CF911F910F91FF90EF90DF90CF90BF9023
:1032D000AF909F908F907F906F905F904F903F90B6
:1032E0002F900895AF92BF92CF92DF92EF92FF920C
:1032F0000F931F93CF93DF9300D000D0CDB7DEB7ED
:103300007C01690158011C821B821A8219828E017C
:103310000F5F1F4F9E012D5F3F4F0E94F0168111DE
:1033200009C049815A816B817C8185019601C70161
:103330000E947F180F900F900F900F90DF91CF9108
:103340001F910F91FF90EF90DF90CF90BF90AF90C3
:1033500008952F923F924F925F926F927F928F9239
:103360009F92AF92BF92CF92DF92EF92FF920F9314
:103370001F93CF93DF93CDB7DEB72A970FB6F8949C
:10338000DEBF0FBECDBF1C016B015B834A835901B9
:10339000D9016D907C901197FB01F181F9831D9209
:1033A0001C92DB0112968C9181FD02C060E101C08C
:1033B00060E288EE0E94DD168E2D90E0A0E0B0E085
:1033C0008C839D83AE83BF8368862A813B81D6012F
:1033D0004C9160E0C1010E945D17F82EB6E08B139E
:1033E00018C088EF0E94CC1682958170E1E08E278C
:1033F000D60112969C91129780FB91F912969C939C
:1034000091FD02C060E101C060E288EE0E94DD161D
:10341000DCCF811167C088EC0E94CC1682FF60C0AF
:1034200080E30E94CC16582E90E06816790608F4C6
:103430005884F501808191819301281B390B3A87CB
:10344000298737FF02C01A861986852C912C898519
:103450009A858816990614F49A86898649840E946A
:10346000CA1698E09EBD0DB407FEFDCFF8014420BA
:1034700041F01EBC4A940DB407FEFDCF8EB581937A
:10348000F6CFA985BA850A0F1B1F0E94320264E09D
:1034900088EC0E94DD16F50180819181880E991ECD
:1034A00091828082F9815F1618F08614970470F07B
:1034B00088EF0E94CC1682958170D60112969C915D
:1034C000129780FB91F912969C930CC0EE2009F4A0
:1034D0007CCF6C817D818E819F810E94D51375CFB9
:1034E00080EFF82E8F2D2A960FB6F894DEBF0FBE10
:1034F000CDBFDF91CF911F910F91FF90EF90DF90A3
:10350000CF90BF90AF909F908F907F906F905F9083
:103510004F903F902F9008952F923F924F925F923D
:103520006F927F928F929F92AF92BF92CF92DF92D3
:10353000EF92FF920F931F93CF93DF93CDB7DEB738
:1035400061970FB6F894DEBF0FBECDBF3C01F42EDD
:10355000322E202EC98A4EA05FA0C8A4D9A4188AF2
:103560001F861E861D868E01035F1F4F9E01215FF1
:103570003F4F0E94F016811196C039822A82EB8259
:1035800089898C83BE82AD8298868F82AE014F5F1F
:103590005F4F68E080E20E945C182D853E854F2DCC
:1035A00060E1C3010E945D17E82E811178C0932D60
:1035B0009078392EC114D10409F462C0EF85F889DE
:1035C0008281992309F44DC08260828354012224B0
:1035D0002394A114B10409F458C05C864B864D8530
:1035E0005E856F857889E12C86019E01255F3F4FBE
:1035F000C3010E94A919E82EA6E08A130FC00F8507
:10360000188988EF0E94CC1685FB882780F98225CF
:10361000F801928180FB91F99283DBCF81113FC049
:103620008AA59BA50097A1F0DC01ED91FC91119773
:103630000190F081E02DC4018A199B099A8789873E
:103640006B857C859E01275F3F4FA601CD010995C3
:103650008B859C85A81AB90A8415950508F0B9CF01
:103660000FC0816082834D855E8586019201BF0116
:10367000C3010E947F18811116C02D853E8511C09F
:103680002D853E85311005C00CC0E11008C02D8588
:103690003E8560EA4F2DC3010E945D1704C08E2D48
:1036A00002C060E8F7CF61960FB6F894DEBF0FBE98
:1036B000CDBFDF91CF911F910F91FF90EF90DF90E1
:1036C000CF90BF90AF909F908F907F906F905F90C2
:1036D0004F903F902F9008958F929F92AF92BF92FC
:1036E000CF92EF920F931F931F921F921F930F93EE
:1036F0003F932F934901A12CB12CCC24C394E12CEE
:1037000006E020E80E948C1A0F900F900F900F9007
:103710000F900F901F910F91EF90CF90BF90AF90AF
:103720009F908F9008958F929F92AF92BF92CF9269
:10373000EF92FF920F931F921F92FF92EF923F938F
:103740002F934901A12CB12C22E0C22EE02E06E0DD
:1037500020E80E948C1A0F900F900F900F900F90FE
:103760000F900F91FF90EF90CF90BF90AF909F90F0
:103770008F9008958F929F92AF92BF92CF92EF92C7
:103780000F93CF931F921F921F921F921F921F920F
:10379000812C912CA12CB12CC12CE22E05E020E033
:1037A0000E948C1AC82F6CE271E080E090E00E94C9
:1037B000D5130F900F900F900F900F900F908C2FAC
:1037C000CF910F91EF90CF90BF90AF909F908F903F
:1037D00008950F931F93CF93DF938A3F3FEF930793
:1037E00011F486ED2DC0DC011696ED91FC91179732
:1037F000EF2B09F1122F242FEC011A8740E00E94D1
:103800004315082F8823C9F0682FCE010E949C150C
:10381000009739F3FC011483202F40E060E0CE01D3
:103820000E94BA1B182F882351F0602FCE010E94EE
:10383000FC15812F05C087ED03C084ED01C080E039
:10384000DF91CF911F910F9108952F923F924F9248
:103850005F926F927F928F929F92AF92BF92CF9220
:10386000DF92EF92FF920F931F93CF93DF93CDB729
:10387000DEB766970FB6F894DEBF0FBECDBF1B8ACA
:1038800038E03C8B3CE33D8B8A3F3FEF930709F4E4
:1038900064C0522E342E462E7C01DC011696CD904B
:1038A000DC901797CE01439617969C938E931697AC
:1038B0001A962C938E010F5F1F4F22E130E040E0FB
:1038C00060E0C7010E946C1BF701D782C68281119C
:1038D000A6C089849A846B847C84FD81FE8B2E80B3
:1038E000670136E5C30ED11C560110E0D5018D915C
:1038F0009C910097F1F1DC01ED91FC910084F18540
:10390000E02D0995811135C0F50180819181DC019F
:10391000ED91FC910088F189E02D622D09958823B5
:1039200041F1F50180819181DC01ED91FC910484EC
:10393000F585E02DA301B4010995811110C0F501B1
:1039400080819181DC01ED91FC910684F785E02D69
:103950006E890995811103C00CC086ED60C0052DEC
:10396000232D442D612FC7010E94C017813D09F00E
:1039700056C01F5FB2E0AB0EB11C103109F0B6CFDC
:1039800010E0F601808191810097E1F1DC01ED9179
:10399000FC910084F185E02D0995811133C0F60179
:1039A00080819181DC01ED91FC910088F189E02D0D
:1039B000622D09958823D9F0F60180819181DC017F
:1039C000ED91FC910484F585E02DA301B4010995E6
:1039D000811118C0F60180819181DC01ED91FC918B
:1039E0000684F785E02D6E89099581110BC0052DA0
:1039F000232D442D612FC7010E94C017982F977F58
:103A0000913D69F41F5FE2E0CE0ED11C103109F048
:103A1000B8CF252D432D642DC7010E94E91B669662
:103A20000FB6F894DEBF0FBECDBFDF91CF911F91CF
:103A30000F91FF90EF90DF90CF90BF90AF909F904D
:103A40008F907F906F905F904F903F902F90089550
:103A50008F929F92AF92BF92CF92EF920F931F924D
:103A60001F921F921F921F921F92812C912CA12CAA
:103A7000B12CC12CE22E09E020E00E948C1A0F909C
:103A80000F900F900F900F900F900F91EF90CF909D
:103A9000BF90AF909F908F9008958F929F92AF921A
:103AA000BF92CF92DF92EF920F931F93CF93DF934A
:103AB00000D000D0CDB7DEB76C01590148011C829F
:103AC0001B821A8219828E010F5F1F4F9E012D5F8C
:103AD0003F4F0E94F01649815A816B817C8184019D
:103AE0009501C6010E94A9190F900F900F900F9099
:103AF000DF91CF911F910F91EF90DF90CF90BF900A
:103B0000AF909F908F900895AF92BF92CF92DF9227
:103B1000EF92FF920F931F93CF938C011D990EC0CC
:103B200088EC0E94CC1685FF05C0C8010E944D029A
:103B300060E201C060E088EC0E94DD1680917202B4
:103B4000813039F040F0823079F0833039F5C1E0CE
:103B50000CC083E106C080915507807F8031F1F071
:103B600081E1809355071AC0C0E080915507807F9E
:103B70008031A9F40E94A413DC01CB0188539F4F2C
:103B8000AF4FBF4F8093510790935207A0935307B5
:103B9000B093540780E28093550701C0C0E07801DC
:103BA00086E5E80EF11C6801A6E7CA0ED11C570194
:103BB000F501819191915F01009739F0DC01ED9160
:103BC000FC910680F781E02D0995AC14BD0481F7C6
:103BD00080915507803409F43FC050F4803221F1C0
:103BE0008033A1F1813109F082C0F60110820AC050
:103BF000813509F458C0803809F46AC0803509F06D
:103C000076C039C0D7018D919D917D01009739F023
:103C1000DC01ED91FC910480F581E02D0995EC1417
:103C2000FD0481F782E161C00E94A4130091510755
:103C3000109152072091530730915407DC01CB01BA
:103C4000801B910BA20BB30BB7FD51C061E088EE56
:103C50000E94DD1680E449C088EE0E94CC1680FDEB
:103C600046C088ED0E94CC16682F686088ED0E94DF
:103C7000DD1680E53AC088EC0E94CC1686FF37C07E
:103C800081E5809355070E94A413DC01CB01449683
:103C9000A11DB11D8093510790935207A093530724
:103CA000B093540724C00E94A413C0905107D09031
:103CB0005207E0905307F0905407DC01CB018C19B8
:103CC0009D09AE09BF09B7FD12C080E88093550772
:103CD0002C2F40E060E0C8010E94251C882321F0C1
:103CE000823D29F080EA01C080E980935507CF9199
:103CF0001F910F91FF90EF90DF90CF90BF90AF900A
:103D0000089580E00895089580E0089580E0089582
:103D100081E00895FC018285089581E0693009F011
:103D200080E00895CF93DF93EC018A819B81DC01D1
:103D3000ED91FC910480F581E02D6A8509958A85D5
:103D4000813439F4EA81FB81EA58FF4F8081846035
:103D500080831A861B861C861D861E861F86188AEF
:103D600080E0DF91CF9108958F929F92AF92BF92A2
:103D7000CF92EF920F93A42EB12CB22A1F921F92D2
:103D80001F921F921F921F92812C912CC12CE62E04
:103D900001E023E240E0FC016285828193810E9480
:103DA0008C1A0F900F900F900F900F900F900F9113
:103DB000EF90CF90BF90AF909F908F9008958F928B
:103DC0009F92AF92BF92CF92EF920F93A62EB12CFB
:103DD0001F921F923F932F935F934F934A01C12CE1
:103DE000E12C00E023EA40E0FC01628582819381BE
:103DF0000E948C1A0F900F900F900F900F900F90C1
:103E00000F91EF90CF90BF90AF909F908F900895BB
:103E10008F929F92AF92BF92CF92EF920F93A42E68
:103E2000B12CB22A1F921F921F921F921F921F92B3
:103E3000812C912CC12CE62E03E023E240E0FC0112
:103E40006285828193810E948C1A0F900F900F904F
:103E50000F900F900F900F91EF90CF90BF90AF9079
:103E60009F908F9008952F923F924F925F926F9202
:103E70007F928F929F92AF92BF92CF92DF92EF92FA
:103E8000FF920F931F93CF93DF93CDB7DEB7E897E1
:103E90000FB6F894DEBF0FBECDBFDC011A963C9181
:103EA000311107C1122F242E362E3C01FC01C28095
:103EB000D380D601ED91FC910190F081E02D60E07E
:103EC000C60109957C01009709F4F5C0FC01A080AA
:103ED000B180A114B10409F4F0C04301F4E08F0EE5
:103EE000911CDC0111969C928E9214961C93FE01FB
:103EF00031962F018F0128E030E040E060E0D301EF
:103F000012968D919C9113970E946C1BF70114825D
:103F10008111D9C08D81893009F0D1C00981D601C4
:103F2000ED91FC910280F381E02D222D41E0632D83
:103F3000C6010995F3018287882309F4C2C09885D8
:103F40009583282F40E060E0828193810E94BA1B14
:103F5000182F882389F0D701AD92BC92D601ED913C
:103F6000FC910480F581E02DD3011A966C91C60175
:103F70000995F3011286ABC0202F013208F020E230
:103F8000D701AD92BC9221110BC0940142E0F30124
:103F90006285828193810E946B16811197C010C047
:103FA00030E0820140E0D3011A966C911A97129684
:103FB0008D919C9113970E946C1B811187C0E5CF56
:103FC0001F921F925F924F921F9288E08F9388E01A
:103FD000882E912CA12CB12C99E2C92EE12C06E05F
:103FE00020EA40E0F3016285828193810E948C1A6D
:103FF000182F0F900F900F900F900F900F9081112E
:1040000066C08B81D3011B968C931B97720100E0D5
:1040100028E030E040E01A966C911A9712968D9144
:104020009C9113970E94931B811150C02B813C815E
:1040300040E0F3016285828193810E94931B81118C
:1040400045C0298130E0CE0181967C0140E0D3015A
:104050001A966C911A9712968D919C9113970E94C3
:10406000931B811133C02E8140E0F3016285828170
:1040700093810E94281D811129C001E0D3011B9664
:104080008C91801740F020E0402F68E0C3010E942F
:10409000081F0F5FF3CFD3011296ED91FC91139798
:1040A000EA58FF4F80818460808381E050968C9332
:1040B0000EC019ED0CC016ED0AC017ED08C011EDC9
:1040C00006C014ED04C0F701B182A082182F812F21
:1040D000E8960FB6F894DEBF0FBECDBFDF91CF914B
:1040E0001F910F91FF90EF90DF90CF90BF90AF9016
:1040F0009F908F907F906F905F904F903F902F9008
:104100000895CF92DF92FF920F931F93CF93DF9387
:1041100000D000D0CDB7DEB78C01F62E19821A82FE
:104120001B821C8220E0462F61E10E94B41E20E029
:104130004F2D60E1C8010E94B41E20E04F2D64E0C5
:10414000C8010E94081F83E0C82ED12C9E012F5F5A
:104150003F4F44E050E06F2DC8010E94DF1E8823CE
:10416000F1F020E04F2D64E1C8010E94B41E20E070
:104170004F2D60E1C8010E94B41E64E170E080E050
:1041800090E00E94D5130F900F900F900F90DF9149
:10419000CF911F910F91FF90DF90CF90089589816B
:1041A0009A81AB81BC819D7F83309140A041B10554
:1041B000C1F264E670E080E090E00E94D51381E0F7
:1041C000C81AD10819F6CDCFFC018DE791E0918393
:1041D00080837383628312861386148615861686FF
:1041E0001786108A148288E085839CE3968391E089
:1041F0009783808784E0818761157105B1F0DB01C9
:10420000AA5ABF4F80E090E02D913D91232B49F4B5
:104210008B96880F991FDB01A80FB91FED93FC93B4
:10422000089501968031910579F70895EF92FF92F4
:104230000F931F93CF938C01C62F7A01FA018081CF
:104240009181A281B3818130F3E09F07F1E0AF0754
:10425000B105D1F060F48115E1E09E07AE07B1052C
:1042600071F181309140A140B10571F064C083309B
:1042700021E0920720E1A207B105E1F183309340EC
:10428000A041B105B9F157C080915607811153C0C3
:1042900020E04C2F61E1C8010E94B41E20E04C2FA9
:1042A00060E1C8010E94B41E20E04C2F64E0C80108
:1042B0000E94081F81E08093560781EB3DC020E0FB
:1042C000462F61E1C8010E94B41E20E04C2F60E13E
:1042D000C8010E94B41E10925607F80162856770EB
:1042E000C770660F660F660F6C2B828193810E94E8
:1042F000881621C020E04C2F64E1C8010E94B41E42
:1043000020E04C2F60E1C8010E94B41E64E170E01F
:1043100080E090E00E94D513F8016285F7012181C9
:104320002695217067704C2FF801828193810E943D
:10433000251C1092560780E0CF911F910F91FF909E
:10434000EF900895CF92DF92EF920F931F93CF9348
:10435000DF93CDB7DEB72E970FB6F894DEBF0FBE52
:10436000CDBF6C0181E090E09E878D87E12C8E01AE
:104370000F5F1F4F9E01235F3F4F41E0F6016285B3
:10438000828193810E944D1D811151C002E011E094
:1043900089818023D1F019861A861B861C869E018E
:1043A000275F3F4F44E050E0612FC6010E94DF1EAF
:1043B00081110BC0AE01475F5F4F612FC6010E94A4
:1043C0001621813B99F1811132C0000F1F5F183017
:1043D000F9F611E0F6018385811740F119861A86F6
:1043E0001B861C869E01275F3F4F44E050E0612FF3
:1043F000C6010E94DF1E811117C089859A858770CA
:1044000091708130914081F48B859C8581609C877F
:104410008B87AE01475F5F4F612FC6010E94162157
:10442000813B21F0811103C01F5FD4CF80E02E9625
:104430000FB6F894DEBF0FBECDBFDF91CF911F91B5
:104440000F91EF90DF90CF9008950F931F93CF932C
:10445000DF93FC012089211102C080E020C0EC0123
:104460000E94A4130C851D852E853F85DC01CB01A0
:10447000801B910BA20BB30BB7FDEFCFCE010E94B7
:10448000A221182F0E94A413DC01CB018C599F4F4D
:10449000AF4FBF4F8C879D87AE87BF87812FDF913E
:1044A000CF911F910F910895FC01858D08958C5A2D
:1044B0009F4FFC01808108956E3584E0780739F0C4
:1044C0006D3A9BE1790719F06E32764141F481E053
:1044D000493197E0590729F04139524011F080E005
:1044E00008950895CF93DF93EC011E8A1F8A188EDA
:1044F000198E1A8E8B8D9C8DDC01ED91FC910480C0
:10450000F581E02D6D8D09951D8ECC5ADF4F1882F7
:1045100080E0DF91CF9108956F927F928F929F926A
:10452000AF92BF92CF92DF92EF92FF920F931F93C1
:10453000CF93DF93CDB7DEB762970FB6F894DEBFA7
:104540000FBECDBFDC015D963C91311176C0122FBC
:10455000642E762E7C01FC01A38CB48CD501ED91E8
:10456000FC910190F081E02D60E0C50109956C019E
:10457000009709F464C0FC0180809180811491044B
:1045800009F45FC0C7014E969183808314838E0126
:104590000F5F1F4F22E130E040E060E0D7015B9603
:1045A0008D919C915C970E946C1B182FF601918253
:1045B0008082811133C089859A858E35F4E09F070A
:1045C00039F08D3A2BE1920719F08E32964151F570
:1045D0008B859C858931B7E09B0739F08139E2E012
:1045E0009E0719F08A3A9240E9F4D501ED91FC91C9
:1045F0000280F381E02D262D40E0672DC50109954D
:10460000F701858F8823F9F08885878F64E170E052
:1046100080E090E00E94D51380EE16C08D3019F036
:1046200011EE01C011EDD701ED91FC910480F581EF
:10463000E02DC7010995812F07C089ED05C086EDE2
:1046400003C087ED01C084ED62960FB6F894DEBF1B
:104650000FBECDBFDF91CF911F910F91FF90EF90D3
:10466000DF90CF90BF90AF909F908F907F906F9092
:104670000895CF92DF92EF92FF920F931F93CF9303
:10468000DF93EC01022FEB8CFC8CD701ED91FC91B8
:104690000190F081E02D6D8DC70109956C01892B8A
:1046A00011F486ED7EC06CE271E080E090E00E9443
:1046B000D5132D8D40E060E08B8D9C8D0E94BA1B40
:1046C000182F882319F0F601148263C0D6011496BE
:1046D0001C92D701ED91FC910190F081E02D6D8D40
:1046E000C70109950097E9F2FC0104837E01FEE110
:1046F000EF0EF11C970141E06D8D8B8D9C8D0E941A
:104700006B16182F811145C001E009A333E027E0A3
:1047100090E29AA384E08BA30CA39DA38EA33FA356
:1047200098A789A73AA79BA78CA735E03DA79EA786
:104730008FA738AB99AB8AAB2BAB9CAB8DAB2EABB9
:104740009FAB88AF970149E06D8D8B8D9C8D0E944A
:104750006B16182F81111DC068EC70E080E090E0AE
:104760000E94D51321E04E8D6D8D8B8D9C8D0E9406
:10477000281D182F81110DC00E8BFE01EC5AFF4F22
:104780000083CB51DF4F188219821A821B8280E08E
:1047900008C0E881F9810480F581E02DCE010995FA
:1047A000812FDF91CF911F910F91FF90EF90DF90BC
:1047B000CF9008950F931F93CF93DF93DC0183E98C
:1047C00091E011969C938E935C967C936E935B978D
:1047D0005D961C925D97FD01EC5AFF4F1082FD0122
:1047E00080E090E0168E582F811102C028E001C0B1
:1047F00020E0278F8C01000F111F9801280F391F0F
:104800002A0F3B1FE90148A14E7F4D7F48A351115C
:1048100002C03FE001C031E0E801C80FD91FCA0F54
:10482000DB1F330F330F28A12370322B38A30196DF
:10483000339681319105B1F661157105C1F0FB0127
:10484000EA5AFF4F20E030E081919191892B51F499
:10485000255D3F4F220F331FFB01E20FF31FB18392
:10486000A08305C02F5F3F4F2031310569F7DF91ED
:10487000CF911F910F91089550E0683059F4FA01DB
:10488000EE0FFF1FEE0FFF1FE80FF91FEB5AFF4F50
:1048900081810895693059F4FA01EE0FFF1FEE0F80
:1048A000FF1FE80FF91FEB5AFF4F80810895E62F95
:1048B000F0E0EE0FFF1FEB59FE4F25913491FA0106
:1048C000EE0FFF1FEE0FFF1FE80FF91FEB5AFF4F10
:1048D000C901A0E0B0E0DC0199278827408151811F
:1048E00062817381482359236A237B2381E0452B0E
:1048F000462B472B09F480E008959C0150E0683076
:1049000031F4480F591FFA01E352FF4F07C06930D5
:1049100051F4480F591FFA01EF51FF4F808188234E
:1049200031F110820895E62FF0E0EE0FFF1FEB59F2
:10493000FE4FA591B491440F551FF901E40FF51FE7
:10494000EB58FF4F60817181FD01E623F72391E071
:10495000EF2B09F490E0420F531FFA01EB58FF4F81
:10496000A095B0956A237B2371836083892F089576
:1049700024E0429F800D911D1124FC01EF57FF4F51
:10498000208181819281613110F4962339F4681776
:1049900029F081E0621719F080E0089581E0089520
:1049A000CF939C0184E0489FA0011124F901E40FFA
:1049B000F51FEF55FF4F80819181A281B381792F3F
:1049C000613198F4C62FCA2381F0462F50E060E091
:1049D00070E0BA0155274427409550956095709531
:1049E00084239523A623B72313C0671308C0420F5F
:1049F000531FFA01EF55FF4F9927BB2709C06813D2
:104A00000DC0420F531FFA01EF55FF4F8827BB27F8
:104A100080839183A283B38381E001C080E0CF9142
:104A2000089524E0429FA0011124460F511D440F18
:104A3000551F840F951FFC01EB54FF4F808191811E
:104A400008958F929F92AF92BF92DF92EF92FF9262
:104A50000F931F93CF93DF93EC018A0179016130AB
:104A600041F068F0623041F06330A9F548E0D42E9F
:104A700008C064E0D62E05C056E0D52E02C032E054
:104A8000D32E0E94A4138090570790905807A090AF
:104A90005907B0905A07681579058A059B0589F36F
:104AA0008D2D90E0FC01EE0FFF1F8E0F9F1FFE016A
:104AB000E80FF91F9701468D6D8D8B8D9C8D0E949F
:104AC00072190E94A413609357077093580780933C
:104AD000590790935A07DF91CF911F910F91FF9043
:104AE000EF90DF90BF90AF909F908F900895AC01B2
:104AF000435F5E4F2CE0FA0111922A95E9F7FA0123
:104B0000108231961082319628E02083319620EC75
:104B100020832CE030E00C942125742FAC01435FFE
:104B20005E4F2CE0FA0111922A95E9F7FA01108202
:104B300031961082319628E020833196262F20640A
:104B400020832CE030E0672F0C942125AC01435FDB
:104B50005E4F2CE0FA0111922A95E9F728E0FA015C
:104B600020833196108231962FE02083319620ECFD
:104B700020832CE030E00C942125AC01435F5E4F94
:104B80002CE0FA0111922A95E9F7FA011082319688
:104B9000108231961082319620E420832CE030E0A0
:104BA0000C942125CF93DF93EC01AC01435F5E4F62
:104BB0008CE0FA01982F11929A95E9F7FA01108288
:104BC000319610823196808331968BE180832CE080
:104BD00030E0CE010E942125CF5ADF4F81E088834B
:104BE000DF91CF910895CF93DF93EC01AC01435F48
:104BF0005E4F8CE0FA01982F11929A95E9F7FA012D
:104C00001082319610823196808331968FE18083B5
:104C10002CE030E0CE010E942125CF5ADF4F81E009
:104C20008883DF91CF910895AC01435F5E4F2CE004
:104C3000FA01322F11923A95E9F7FA011082319672
:104C400010823196208331962EE120832CE030E0D3
:104C50000C942125362F622FFC01E35FFE4F2CE0E0
:104C6000DF011D922A95E9F71082DC01A25FBE4F99
:104C700021E02C9311962FE02C93119620EC2C938D
:104C800011961C9211963C9311964C932CE030E0B7
:104C9000AF010C9421258F929F92AF92BF92CF9239
:104CA000DF92EF92FF920F931F93CF93DF9300D089
:104CB000CDB7DEB76C01F62E5C0183EFA81A8EEF3C
:104CC000B80A8CE0F50111928A95E9F7462F60E069
:104CD000C6010E948D2568E070E080E090E00E94AF
:104CE000D51362E06F0D4F2DC6010E948D25F50191
:104CF000108231961082319682E08083319680E86E
:104D000080832CE030E0A5016F2DC6010E94212593
:104D10006F2DC6010E94BD25FF2041F0F1E0FF1676
:104D200039F082E0F81631F087E005C081E003C079
:104D300083E001C085E020E230E03A832983460128
:104D40009DEE890E911CA82EB12CC501880F991FCC
:104D5000A80EB91EAC0CBD1CE12C84019E012F5F76
:104D60003F4FF501468DF601658D838D948D0E9430
:104D70004D1D9E012F5F3F4FF501468DF601658D5C
:104D8000838D948D0E944D1D62E070E080E090E084
:104D90000E94D51366E06F0D4F2DC6010E948D2530
:104DA0000F900F90DF91CF911F910F91FF90EF9097
:104DB000DF90CF90BF90AF909F908F9008954F92CB
:104DC0005F926F927F928F929F92AF92BF92CF929B
:104DD000DF92EF92FF920F931F93CF93DF939C018B
:104DE0008C0103511F4F09F454C1D8019C911196B5
:104DF00093FF21C08C91F901E60FF11D47898417BB
:104E0000D1F0878B8823A9F081E0828BC901DF91E3
:104E1000CF911F910F91FF90EF90DF90CF90BF90B7
:104E2000AF909F908F907F906F905F904F900C9479
:104E30004B26128A2EC18C9181111DC0F901E051BF
:104E4000FF4F8081837109F41FC1D901AF50BF4F5B
:104E50008C91823208F418C1260F311D260F311DA6
:104E6000D901AB52BF4F808191819827892798271C
:104E70008D939C930EC1911107C1813009F0A6C09A
:104E8000462F50E0F901E40FF51F8789811102C018
:104E900080E8878BD901AD50BF4F6D917D918D9189
:104EA0009C910E942E364B015C01CA01880F991F0C
:104EB000880F991F3901680E791ED301AB5ABF4F75
:104EC0008D929D92AD92BC921397DA01C3E0AA0F26
:104ED000BB1FCA95E1F7A20FB31F6D01C5EBCC0E46
:104EE000D11C7901D7EFED0EF11CE701E880F980C4
:104EF000E601F982E8826D01D7EBCD0ED11C790174
:104F000069EFE60EF11CE70168817981E60179839A
:104F100068836D01D9EBCD0ED11C79016BEFE60EE4
:104F2000F11CE70168817981E601798368837D015D
:104F3000DBEBED0EF11CD901A350BF4F6D917C91BD
:104F4000D7016D937C93E301CB59DF4FC880D980A3
:104F5000EA80FB808C149D04AE04BF0409F494C065
:104F6000C1E0DF01A358BF4FCC93DA01AA0FBB1FEA
:104F7000A20FB31FAB58BF4FB701A6014095509584
:104F800060957095AB016627772725016624772405
:104F9000442155214D935C93C11006C0882021F017
:104FA000DF01AF51BF4FCC93D11006C0992021F043
:104FB000E352FF4F41E04083280F391FF901EB59BD
:104FC000FF4F80829182A282B3825EC0823009F05C
:104FD0005BC0F901EB5FFE4F8081811148C03196C3
:104FE00040813196808190E0A0E0B0E0BA2FA92FF7
:104FF000982F8827A42B31964081842BE62EF12C04
:10500000F901C4E06C9FE00DF11D1124EF01CF57B1
:10501000DF4F88839983AA83BB836F01D1E9CD0ECB
:10502000D11CE601488159816A817B8184179507EB
:10503000A607B70749F12E0D3F1D2F543F4FFF2400
:10504000F394E901F882EF55FF4F40955095609534
:105050007095482359236A237B23408351836283BD
:105060007383F60180839183A283B3830DC0803F55
:1050700059F4F901EA5FFE4F8081833029F4F90188
:10508000E60FF11D81E0828B80E2D8011D928A95A6
:10509000E9F7DF91CF911F910F91FF90EF90DF9093
:1050A000CF90BF90AF909F908F907F906F905F90C8
:1050B0004F90089550E0DA01AA0FBB1FAA0FBB1F43
:1050C00020E030E0F901EA0FFB1FE80FF91F7281C1
:1050D0007F3F59F4440F551F440F551F480F591F68
:1050E000FA01E20FF31F628308952F5F3F4F2430D0
:1050F000310541F70895CF93DF93EC0124E0629FDF
:10510000C00DD11D11242A812F3FE9F0AC01435F6E
:105110005E4F3CE0FA01732F11927A95E9F7FA019C
:1051200010823196108231963083319620832CE0A4
:1051300030E00E9421258B818A838C818B838D8135
:105140008C838FEF8D83DF91CF9108956F927F9243
:105150008F929F92AF92BF92CF92DF92EF92FF9287
:105160000F931F93CF93DF9300D0CDB7DEB7FC0131
:10517000EC5AFF4F2081222309F4D2C06C010E9417
:10518000A413560129EEA20EB11CF5010081118174
:1051900022813381DC01CB01801B910BA20BB30B6D
:1051A0008B3F9105A105B10580F010E0612FC6018C
:1051B0000E947B281F5F1430C9F70E94A413F501D9
:1051C000608371838283938363C00E94A41346012A
:1051D000F5EE8F0E911CF401008111812281338143
:1051E000DC01CB01801B910BA20BB30B853C9940DA
:1051F000A105B10508F44CC0560116E0FF24FA944D
:105200000AEF010F80915B07823019F12CF488239B
:1052100091F08130A9F030C0843051F124F1853013
:1052200059F50E94A413F4016083718382839383F0
:10523000F0925B0721C0602FC6010E94A6251CC00A
:10524000F50187898823C1F0602FC6010E94BD2522
:1052500004C0F5018789882379F0402F612FC601AA
:105260000E948D2509C0602FC6010E94F32504C04D
:10527000602FC6010E941426FFEFAF1ABF0A1F5FFE
:105280001A3009F0BDCF80915B078F5F80935B0779
:105290005601F12C30E2832E912C36012DEE620E58
:1052A000711CF5018289882331F06F2DC6010E949F
:1052B000D225F501128AFF2041F0F1E0FF1639F006
:1052C00022E0F21631F087E005C081E003C083E000
:1052D00001C085E09A82898290E0FC01EE0FFF1FF9
:1052E0008E0F9F1FF601E80FF91FE12C83019E012D
:1052F0002F5F3F4F468DF601658D838D948D0E9403
:105300004D1D89819A81892B21F06F2DC6010E9444
:10531000DF26F394FFEFAF1ABF0A24E0F212C1CFE9
:1053200080E00F900F90DF91CF911F910F91FF9030
:10533000EF90DF90CF90BF90AF909F908F907F9035
:105340006F900895FC0185810895FC01818908957D
:105350006E3584E0780759F06D3A9BE1790739F0B2
:105360006E3286E1780719F06F367E40A1F44E3830
:1053700082E0580791F0463190EF590771F04130C3
:1053800084E0580751F081E0433192E0590739F049
:105390004F3E5E4B21F080E0089581E0089508952E
:1053A000CF93DF93EC011A828B819C81DC01ED911C
:1053B000FC910480F581E02D6D8109951D82198A8B
:1053C00080E0DF91CF910895FC018BEA91E0918319
:1053D0008083748363831582118A168288E08783B1
:1053E0008CE380871186128684E083871486158675
:1053F000868761157105B1F0DB01AA5ABF4F80E0C5
:1054000090E02D913D91232B49F48B96880F991FA5
:10541000DB01A80FB91FED93FC930895019680312D
:10542000910579F708958F929F92AF92BF92CF9294
:10543000DF92EF92FF920F931F93FC01E83D8FEFF5
:10544000F80709F44AC080A5811147C081A58431BD
:1054500009F043C062A573A584A595A50E942E36C8
:10546000628B738B848B958B26A537A5358F248F04
:1054700020A931A9378F268F22A933A931A320A3D0
:1054800024A935A933A322A306891789208D318D3C
:10549000601771078207930701F168017901C094D1
:1054A000D094E094F0944701AA24BB246C01EE242C
:1054B000FF24C820D920D38EC28E011104C06623D8
:1054C00011F041E047A3111104C0772311F021E04E
:1054D00026A3668B778B808F918F1F910F91FF9002
:1054E000EF90DF90CF90BF90AF909F908F900895F6
:1054F000CF92DF92EF920F931F93CF93DF9300D061
:10550000CDB7DEB7FC0121892223A9F06C0180E22E
:1055100090E09A8389838F01085D1F4FE12C9E01E3
:105520002F5F3F4F41856581838194810E944D1D8E
:10553000C6010E94132A80E00F900F90DF91CF9157
:105540001F910F91EF90DF90CF900895DC016830AC
:1055500019F453968C910895693019F452968C91F0
:105560000895E62FF0E0EE0FFF1FE757FE4F45913D
:10557000549160E070E0BA015527442752968D910E
:105580009D910D90BC91A02D482359236A237B2324
:1055900081E0452B462B472B09F480E00895860FC8
:1055A000911D860F911DFC01848D958D08950F939B
:1055B0001F93FC019A018B0144856581838194814D
:1055C0000E94721961E070E080E090E01F910F91FD
:1055D0000C94D513FC01E85BFF4F21E02083DC0134
:1055E000A75BBF4F23E02C9311966C9343E050E0F0
:1055F000BF010C94D72AFC01E85BFF4F1082DC014D
:10560000A75BBF4F28E02C9311961C9211966C93C8
:1056100011964C9311961C9211961C9211961C9205
:1056200048E050E0BF010C94D72A6F927F928F928E
:105630009F92AF92BF92CF92EF920F93CF93DF934F
:10564000CDB7DEB766970FB6F894DEBF0FBECDBFFD
:105650003C011F921F921F921F921F9282E08F9314
:1056600082E0882E912C99E0A92E94E0B92E23E0B7
:10567000C22E32E0E32E06E020E8D30116964C91CC
:10568000169715966C91159713968D919C9114977A
:105690000E948C1A61E070E080E090E00E94D513D7
:1056A0001F921F92CE0101969F938F931F928AE0C3
:1056B0008F9342E2842E912C20E8F301468165818C
:1056C000838194810E948C1A61E070E080E090E018
:1056D0000E94D51380913A0190913B01A0913C0129
:1056E0008C8B9D8BAE8B80913D0190913E01A09162
:1056F0003F01898B9A8BAB8B809140019091410146
:10570000A09142018E879F87A88B1B8683E08C87A0
:105710001D8643E050E0BE016C5E7F4FC3010E94D6
:10572000D72A43E050E0BE016F5E7F4FC3010E9465
:10573000D72A43E050E0BE01625F7F4FC3010E9461
:10574000D72A43E050E0BE01655F7F4FC3010E944E
:10575000D72AD3011F96ED91FC9150970FB6F8947C
:10576000DEBF0FBECDBF309711F0099507C0EEEA3E
:10577000F1E064916C5FC3010E94EA2A66960FB65D
:10578000F894DEBF0FBECDBFDF91CF910F91EF90A8
:10579000CF90BF90AF909F908F907F906F90089523
:1057A0002F923F924F925F926F927F928F929F9231
:1057B000AF92BF92CF92DF92EF92FF920F931F931F
:1057C000CF93DF93CDB7DEB762970FB6F894DEBF05
:1057D0000FBECDBFDC0115965C905110FBC0422E70
:1057E000242E362E7C01FC01C380D480D601ED919D
:1057F000FC910190F081E02D60E0C60109955C010B
:10580000009719F436ED532EEDC0FC0160807180D5
:105810006114710409F4E1C04701F6E08F0E911C98
:10582000DC0111969C928E9214964C928E010F5F21
:105830001F4F22E130E040E060E0F7018381948176
:105840000E946C1B182FD5016D927C928111B8C0FB
:1058500089859A858E35B4E09B0761F08D3AEBE13E
:105860009E0741F08E32F6E19F0721F08F369E4071
:1058700009F0A5C08B859C858F38A2E09A0709F4B2
:105880009EC08931B7E09B0709F499C08139E2E0F5
:105890009E0709F494C08E38F2E09F07A1F086318C
:1058A00020EF920781F08130A4E09A0761F0833104
:1058B000B2E09B0741F08F3EEEEB9E0721F08A336A
:1058C000904F09F07CC0D601ED91FC910280F381EC
:1058D000E02D222D40E0632DC6010995F701858357
:1058E000882309F47DC098859783282F40E060E0E5
:1058F000838194810E94BA1B182FD601ED91FC91EF
:10590000D50114961C92882359F00480F581E02D6E
:10591000D70115966C91C6010995F701158258C0FB
:105920000190F081E02DD70115966C91C601099583
:10593000009709F467CFFC014482940141E0D7014C
:1059400015966C91159713968D919C9114970E94C2
:105950006B16182F811134C001E0F701018790E226
:10596000928784E0838722E0248795878687940145
:1059700043E06581838194810E946B16182F811109
:105980001FC068EC70E080E090E00E94D51321E039
:10599000D70116964C91169715966C9115971396FC
:1059A0008D919C9114970E94281D182F811108C079
:1059B000C7010E94152BF7010283018B13C011ED63
:1059C000D701ED91FC910480F581E02DC701099587
:1059D000512E08C029ED522E05C097ED592E02C058
:1059E00084ED582E852D62960FB6F894DEBF0FBE5B
:1059F000CDBFDF91CF911F910F91FF90EF90DF907E
:105A0000CF90BF90AF909F908F907F906F905F905E
:105A10004F903F902F9008956F927F928F929F9218
:105A2000AF92BF92CF92DF92EF92FF920F931F93AC
:105A3000CF93DF9300D01F92CDB7DEB77C01ADB618
:105A4000BEB68091E80083FF0CC1F701808190E031
:105A500020916507309166072817390709F001C1C1
:105A600080916207833009F4A0C030F4813071F076
:105A7000823009F4D9C0F5C08A3009F4BCC08B303B
:105A800009F4A4C0893009F0ECC050C080916107CE
:105A9000813A09F0E6C08DB69EB61A8219828091CD
:105AA0006307109164078B83F7018085482F50E0CE
:105AB0008DB79EB7841B950B0FB6F8949EBF0FBE93
:105AC0008DBFEDB7FEB731966F0160E070E0CF019A
:105AD0000E944B364FEF410F8E010F5F1F4F960113
