:100000000C94B4010C94DC010C94DC010C94DC0124
:100010000C94DC010C94DC010C94DC010C94DC01EC
:100020000C94DC010C94DC010C949E0F0C94DC010C
:100030000C94DC010C94DC010C94DC010C94DC01CC
:100040000C94DC010C94DC010C94DC010C94DC01BC
:100050000C94DC010C94DC010C94DC010C948708FA
:100060000C94DC010C94F5030C942D040C94DC012D
:100070000C94DC010C94DC010C94DC010C94DC018C
:100080000C94DC010C94DC010C94DC010C94DC017C
:100090000C9453060C94DC010C94DC010C94DC01F0
:1000A0000C94DC010C94DC010C94DC015F07630709
:1000B00063076307630763076307630773066307E1
:1000C00063076307630763076307630773066307D1
:1000D0006307630763076307630763077B066307B9
:1000E000630763076307630763076307A106630783
:1000F0006307630763076307630763077B06630799
:10010000630763076307630763076307A70663075C
:10011000630763076307630763076307AD06630746
:10012000630763076307630763076307BF06630724
:10013000630763076307630763076307E9066307EA
:10014000630763076307630763076307B306630710
:10015000630763076307630763076307CD066307E6
:10016000630763076307630763076307EC066307B7
:10017000630763076307630763076307EC066307A7
:10018000630763076307630763076307EC06630797
:10019000630763076307630763076307EC06630787
:1001A000630763076307630763076307F50663076E
:1001B000630763076307630763076307260763072C
:1001C000630763076307630763076307F50663074E
:1001D000630763076307630763076307260763070C
:1001E0006307630763076307630763070D07630715
:1001F0006307630763076307630763072A076307E8
:100200006307630763076307630763072A076307D7
:100210006307630763076307630763073F076307B2
:100220006307630763076307630763075907630788
:1002300063076307630763076307630759074F098A
:1002400053093D09430949097A097A097A09570985
:100250005D09630969096F097A0975099110BD1073
:10026000B911BD10B91101112511B91181119211E6
:100270000D0A54686973206973206120736C61767C
:100280006520646576696365000D0A5468697320AA
:1002900064657669636520697320696E20706C619E
:1002A00079657220736C6F742000000000020009F1
:1002B0000F0000030401000C00000000000000001B
:1002C000000000000000000000040802011040804F
:1002D000401020408040800802040180402010022D
:1002E000011080102040402004040404040304058D
:1002F00002020202040302020202060606060606C3
:100300000404020202040400000000230026002965
:10031000002C002F0000000000250028002B002EDC
:1003200000310000000000240027002A002D0030CA
:10033000000902200001010080FA090400000258AF
:100340004200000705810320000407050203200086
:100350000412011001000000205E04890221010046
:10036000000001005304820811241FBECFEFDAE021
:10037000DEBFCDBF11E0A0E0B1E0EAEEF6E202C0E0
:1003800005900D92AE35B107D9F723E0AEE5B1E0A7
:1003900001C01D92AD3EB207E1F711E0C4EBD1E020
:1003A00004C02197FE010E945013C23BD107C9F738
:1003B0000E94DE010C9473130C9400000E94DC0870
:1003C00061E084E00E947B0961E089E00E947B0992
:1003D00061E081E10E947B0962E083E10E947B0988
:1003E00062E084E10E947B0960E089E00E94BA0932
:1003F00060E084E00E94BA0961E081E10E94BA09EC
:100400000E94FA11789426E040E251EA67E070E039
:1004100083EC91E00E948D0383E10E94EB09EC01E3
:1004200084E10E94EB09CC0FDD1F8C2B80935E01D1
:1004300069E872E083EC91E00E94AF0460915E0194
:1004400070E06F5F7F4F4AE050E083EC91E00E94E4
:100450007C058CE8EEE3F3E0DF011D928A95E9F775
:1004600060915E0182ED92E00E945F0840E85AE1EF
:1004700066E070E082ED92E00E94730863E672E04D
:1004800082ED92E00E947D0864E772E082ED92E0E6
:100490000E94780860E772E083EC91E00E94AF046C
:1004A00004EE10E0C0E0D1E0F801808191812A855E
:1004B0003B85821B930B049718F0CE010E947C0BA6
:1004C0000E94DF11F1CF41E050E062E573E082ED80
:1004D00092E00E94D70741E050E063E573E082EDCF
:1004E00092E00E94D70708950F931F93CF93DF9355
:1004F000181619066CF4CFE5D1E08C01015A1E4F95
:1005000082ED92E00E947C078993C017D107C1F762
:1005100080915F01803F51F4E0EEF0E080818160E6
:10052000808361E081E10E94BA0916C0E0EEF0E04C
:1005300080818E7F808380913003882321F060E06A
:1005400081E10E94BA0984E1EFE5F1E0AEE3B3E0B6
:1005500001900D928A95E1F7DF91CF911F910F9154
:100560000895FC01918D228D892F90E0805C9F4F32
:10057000821B91098F7399270895FC01918D828DBB
:10058000981731F0828DE80FF11D858D90E0089568
:100590008FEF9FEF0895FC01918D828D981761F088
:1005A000828DDF01A80FB11D5D968C91928D9F5FAA
:1005B0009F73928F90E008958FEF9FEF0895FC0155
:1005C000238D348D231738F08FE390E0821B91093F
:1005D000830F911D0895832F90E0821B910901974D
:1005E0000895FC01848DDF01A80FB11DA35ABF4FF0
:1005F0008C91248D30E02F5F3F4F2F733078332361
:1006000034F421503109206C3F6F2F5F3F4F248F0E
:10061000A689B7898C93A089B1898C9180648C93C9
:10062000938D848D981306C00288F389E02D808114
:100630008F7D80830895CF93DF93EC01888D88238D
:10064000D9F0EA89FB89808185FD05C0A889B9892F
:100650008C9186FD11C00FB607FCF5CF808185FF18
:10066000F2CF04C0CE010E94F102EBCFA889B98974
:100670008C9185FFE8CFF6CFDF91CF9108950F934E
:100680001F93CF93DF93EC0181E0888F9B8D8C8D3E
:10069000981323C0E889F989808185FD2FC01DC08A
:1006A0009C8D19130CC00FB607FCFACFE889F989A5
:1006B000808185FFF5CFCE010E94F102F1CF8B8DB5
:1006C000FE01E80FF11DE35AFF4F00831B8FEA89FB
:1006D000FB8980818062808319C02B8D30E02F5F81
:1006E0003F4F2F733078332334F421503109206C7D
:1006F0003F6F2F5F3F4F062F122FD2CFEE89FF891A
:100700006083E889F98980818064808381E090E05A
:10071000DF91CF911F910F910895CF92DF92EF92C9
:10072000FF921F93CF93DF93EC016A017B01122F9D
:10073000E889F98982E080834115514E6105710590
:10074000B1F060E079E08DE390E0A70196010E94AE
:100750002E13DA01C9010197A109B109B695A79530
:10076000979587959C01211580E13807A8F0E889C5
:10077000F989108260E874E88EE190E0A7019601A3
:100780000E942E13DA01C9010197A109B109B6959A
:10079000A795979587959C01EC85FD853083EE851F
:1007A000FF852083188EEC89FD891083EA89FB89F7
:1007B000808180618083EA89FB8980818860808371
:1007C000EA89FB89808180688083EA89FB8980814E
:1007D0008F7D8083DF91CF911F91FF90EF90DF900D
:1007E000CF90089580E090E008951F920F920FB689
:1007F0000F9211242F938F939F93AF93BF93EF93F7
:10080000FF93E091D301F091D401808182FD14C067
:10081000E3ECF1E0A689B7892C91818D8F5F8F730E
:10082000928D891771F0DF01E18DF0E0ED53FE4FFD
:10083000258F59968C9305C0E091D901F091DA018A
:100840008081FF91EF91BF91AF919F918F912F91F7
:100850000F900FBE0F901F9018951F920F920FB61A
:100860000F9211242F933F934F935F936F937F9336
:100870008F939F93AF93BF93EF93FF9383EC91E09C
:100880000E94F102FF91EF91BF91AF919F918F91E3
:100890007F916F915F914F913F912F910F900FBE7C
:1008A0000F901F901895E3ECF1E01382128288EE0E
:1008B00093E0A0E0B0E084839583A683B78384E1CE
:1008C00091E0918380838DEC90E0958784878CEC18
:1008D00090E09787868788EC90E0918B808B89ECFD
:1008E00090E0938B828B8AEC90E0958B848B8EECDE
:1008F00090E0978B868B118E128E138E148E089536
:10090000CF92DF92EF92FF920F931F93CF93DF93DB
:1009100041155105C1F06A018C01E62EF72EC0E0A9
:10092000D0E0D7016D917D01D801ED91FC9101904E
:10093000F081E02DC8010995892B39F02196CC165C
:10094000DD0679F702C0C0E0D0E0CE01DF91CF91A3
:100950001F910F91FF90EF90DF90CF900895EF924D
:10096000FF920F931F93CF93DF93FB016491662354
:10097000B1F07F018C01C0E0D0E0D801ED91FC9195
:100980000190F081E02DC8010995892B51F0219645
:10099000F701EC0FFD1F64916111EFCF02C0C0E0C1
:1009A000D0E0CE01DF91CF911F910F91FF90EF909A
:1009B0000895DC01ED91FC910190F081E02D099505
:1009C00008958F929F92AF92BF92EF92FF920F93F2
:1009D0001F93CF93DF93CDB7DEB7A1970FB6F894EF
:1009E000DEBF0FBECDBF7C01CB01BA0119A2223000
:1009F00008F42AE08E010F5D1F4F822E912CA12C4E
:100A0000B12CA50194010E942E13E62F622F732FA3
:100A1000842F952F01501109EA3010F4E05D01C0D8
:100A2000E95CD801EC93611571058105910549F7E1
:100A30000115110591F0F80101900020E9F73197B7
:100A4000AF01401B510BD701ED91FC910280F38166
:100A5000E02DB801C701099502C080E090E0A196A1
:100A60000FB6F894DEBF0FBECDBFDF91CF911F91BF
:100A70000F91FF90EF90BF90AF909F908F9008954F
:100A8000CF92DF92EF92FF920F931F93CF93DF935A
:100A9000EC016A017B012115310541F4E881F981FE
:100AA0000190F081E02D642F09951DC02A30310599
:100AB000C1F4772394F46DE20E94D9048C01442799
:100AC0005527BA014C195D096E097F092AE0CE014C
:100AD0000E94E104800F911F06C02AE00E94E104F9
:100AE00002C00E94E104DF91CF911F910F91FF900E
:100AF000EF90DF90CF9008959A01AB01770F660BCE
:100B0000770B0E9440050895CF93DF93CCEBD0E0A4
:100B100018821092D10281E08093CF021092CE020F
:100B200061E082E00E94BA0961E083E00E94BA09B4
:100B3000E9EBF0E080818E7F808380818D7F8083F0
:100B400088E48093B80085E48883DF91CF9108958D
:100B5000813049F410926002109261021092620298
:100B60001092630217C08091600290916102A0917F
:100B70006202B09163020196A11DB11D80936002D3
:100B800090936102A0936202B093630284E690E0C6
:100B90000E94D1088091600290916102A09162024E
:100BA000B091630280359105A105B10580F01092E6
:100BB00060021092610210926202109263020E941F
:100BC000840561E081E10E94BA0981E0089580E036
:100BD0000895880F8093BA0008959B01AC0160E0EE
:100BE00074E284EF90E00E942E13DA01C90140976D
:100BF000A109B109B695A795979587958093B800F7
:100C0000089540918602262F30E0240F311D2132B5
:100C10003105ECF42091D1022430D9F4662381F01F
:100C2000A82FB92F80E090E0309186022D91FC0131
:100C3000E857FD4FE30FF11D208301968617A0F3BF
:100C400080918602680F6093860280E0089581E0BB
:100C5000089582E008959093CB028093CA0208958C
:100C60009093CD028093CC020895CF93DF9385EDCE
:100C70008093BC0081E00E94A805CCEBD0E005C0C9
:100C800080E00E94A805811103C0888184FDF8CF0F
:100C90001092D102DF91CF91089585EC8093BC0032
:100CA0001092D10208951F920F920FB60F92112445
:100CB0002F933F934F935F936F937F938F939F9364
:100CC000AF93BF93EF93FF938091B900E82FE87F34
:100CD0008E2F90E0893C910508F0F5C0FC01EA5A9E
:100CE000FF4F0C9450138091D0028093BB0085EC91
:100CF0008093BC00E8C09091A9028091A802981747
:100D000080F4E091A90281E08E0F8093A902F0E0C7
:100D1000E655FD4F80818093BB0085EC8093BC003D
:100D2000D2C08091CF02882319F00E943506CBC033
:100D300081E08093CE0284EA8093BC001092D102BD
:100D4000C2C080E2809364020E943506BCC080E38A
:100D5000809364020E943506B6C088E380936402E3
:100D60000E944D06B0C0E091A90281E08E0F8093F1
:100D7000A9028091BB00F0E0E655FD4F8083909181
:100D8000A9028091A802981720F485EC8093BC00FA
:100D90009AC085E88093BC0096C0E091A90281E0EA
:100DA0008E0F8093A9028091BB00F0E0E655FD4FC5
:100DB00080838091CF02882319F00E94350683C07A
:100DC00081E08093CE0284EA8093BC001092D1022D
:100DD0007AC00E94350677C083E08093D1021092DA
:100DE000650285EC8093BC006EC080916502803204
:100DF00080F4E091650281E08E0F8093650280911E
:100E0000BB00F0E0EA59FD4F808385EC8093BC0085
:100E10005AC085E88093BC0056C00E944D06809160
:100E20006502803230F4E0916502F0E0EA59FD4F4E
:100E300010826091650270E0E091CA02F091CB02ED
:100E400086E692E00995109265023DC085E88093A0
:100E5000BC0039C084E08093D102109287021092C6
:100E60008602E091CC02F091CD0209958091860234
:100E7000811105C081E08093860210928802E09182
:100E8000870281E08E0F80938702F0E0E857FD4FE4
:100E900080818093BB009091870280918602981791
:100EA00020F485EC8093BC000EC085E88093BC00E4
:100EB0000AC085EC8093BC001092D10204C010924D
:100EC00064020E943506FF91EF91BF91AF919F910F
:100ED0008F917F916F915F914F913F912F910F90E3
:100EE0000FBE0F901F9018958091050390E0209100
:100EF0000603821B910908959091060380910503D2
:100F0000981750F4E92FF0E0E95FFC4F208130E0C2
:100F10009F5F9093060302C02FEF3FEFC901089532
:100F2000E091060380910503E81730F4F0E0E95FF3
:100F3000FC4F808190E008958FEF9FEF0895CF934D
:100F4000DF93EC01E091DE02F091DF02309701F1D6
:100F500090910603809105039817D0F01616170696
:100F60008CF420E030E090E0DE01A90FB11D4C913F
:100F7000D901A95FBC4F4C939F5F292F30E0261702
:100F8000370794F3CB01109206036093050309958C
:100F9000DF91CF910895E091E002F091E102309766
:100FA00029F01092E4021092E30209950895CF927D
:100FB000DF92EF92FF920F931F93CF93DF938C01F9
:100FC000CB016A012091E2022223A1F041155105D3
:100FD000A1F0EB017B01E40EF51E6991D801ED91C2
:100FE000FC910190F081E02DC8010995CE15DF0537
:100FF000A1F703C0642F0E940106C601DF91CF91C3
:101000001F910F91FF90EF90DF90CF900895CF93B5
:10101000DF931F92CDB7DEB7FC0169839091E202A6
:101020009923D9F09091E302903238F081E090E07A
:101030009383828380E090E017C08091E402E82FE0
:10104000F0E0EB51FD4F998190838F5F8093E40234
:101050008093E30281E090E007C061E0CE01019659
:101060000E94010681E090E00F90DF91CF910895FA
:10107000109206031092050380E2E7E0F3E0DF013F
:101080001D928A95E9F70895FC011382128288EE79
:1010900093E0A0E0B0E084839583A683B78386E2E3
:1010A00091E09183808308951092060310920503C6
:1010B0001092E4021092E3020E9484050895CF93F7
:1010C000DF93EC01862F0E94E9058BEC97E00E94EC
:1010D00030068FE997E00E942B06CE010E9454084B
:1010E000DF91CF910895CB01BA010E94ED050895DB
:1010F0007093DF026093DE0208957093E1026093C3
:10110000E002089582ED92E00E94440808951F9243
:101110000F920FB60F9211242F933F938F939F93AB
:10112000AF93BF938091280390912903A0912A0344
:10113000B0912B033091270323E0230F2D3720F4A8
:101140000196A11DB11D05C026E8230F0296A11D21
:10115000B11D209327038093280390932903A09324
:101160002A03B0932B0380912C0390912D03A0911F
:101170002E03B0912F030196A11DB11D80932C0366
:1011800090932D03A0932E03B0932F03BF91AF91A3
:101190009F918F913F912F910F900FBE0F901F90B5
:1011A00018958230910538F0880F991F880F991F84
:1011B00005970197F1F70895789484B5826084BD0E
:1011C00084B5816084BD85B5826085BD85B581604B
:1011D00085BDEEE6F0E0808181608083E1E8F0E0AB
:1011E0001082808182608083808181608083E0E8DA
:1011F000F0E0808181608083E1E9F0E080818260BD
:101200008083808181608083E0E9F0E0808181607B
:101210008083E1ECF0E08081846080838081826063
:101220008083808181608083E3ECF0E08081816055
:101230008083E0ECF0E0808182608083E2ECF0E08B
:10124000808181608083EAE7F0E080818460808330
:1012500080818260808380818160808380818068DA
:101260008083089590E0FC013197EF30F10508F09C
:1012700041C0E15EFE4F0C945013E0E8F0E0808145
:101280008F7780830895E0E8F0E080818F7D808310
:101290000895E0E8F0E08081877F8083089584B539
:1012A0008F7784BD089584B58F7D84BD0895E0E96E
:1012B000F0E080818F7780830895E0E9F0E080811D
:1012C0008F7D80830895E0E9F0E08081877F8083CF
:1012D0000895E0ECF0E080818F7780830895E0EC62
:1012E000F0E080818F7D80830895E2ECF0E08081E2
:1012F000877F80830895CF93DF9390E0FC01E753CD
:10130000FD4F2491FC01E851FD4F8491882379F130
:1013100090E0880F991FFC01ED5DFC4FA591B49101
:10132000FC01EB5EFC4FC591D49161110CC09FB7DD
:10133000F8948C91E22FE0958E238C932881E22300
:10134000E8839FBF14C0623061F49FB7F8948C911A
:10135000322F309583238C93E881E22BE8839FBF63
:1013600006C08FB7F894EC91E22BEC938FBFDF911E
:10137000CF9108951F93CF93DF93282F30E0F90189
:10138000E655FD4F8491F901E753FD4F1491F901A2
:10139000E851FD4FC491CC23D1F0D62F81110E948A
:1013A0003209EC2FF0E0EE0FFF1FEB5EFC4FA59132
:1013B000B4918FB7F894D11106C09C91E12FE095BC
:1013C000E923EC9303C0EC91E12BEC938FBFDF9109
:1013D000CF911F910895CF93DF93282F30E0F9012B
:1013E000E655FD4F8491F901E753FD4FD491F90182
:1013F000E851FD4FC491CC2391F081110E94320934
:10140000EC2FF0E0EE0FFF1FE95FFC4FA591B491C8
:10141000EC91ED2381E090E021F480E002C080E0D7
:1014200090E0DF91CF9108953F924F925F926F923B
:101430007F928F929F92AF92BF92CF92DF92EF9264
:10144000FF920F931F93CF93DF9300D01F92CDB7DE
:10145000DEB76C01EDB6FEB68091E80083FF1DC1DA
:10146000F601808190E020913A0330913B032817E8
:10147000390709F012C180913703833009F4A6C0FF
:1014800030F4813071F0823009F4EBC006C18A304B
:1014900009F4CAC08B3009F4B2C0893009F0FDC02C
:1014A00055C080913603813A09F0F7C0ADB6BEB69B
:1014B0001A821982E6E3F3E0828113818B83F601BD
:1014C0008085482F50E08DB79EB7841B950B0FB6D3
:1014D000F8949EBF0FBE8DBFEDB7FEB731964F019A
:1014E00060E070E0CF010E946C134FEF410F8E015E
:1014F0000F5F1F4F9401BE016D5F7F4FC6010E94B9
:101500009312F60186819781009729F0408550E07B
:10151000B4010E9463131092E900E8EEF0E08081CC
:10152000877F80838B8181118093F10069817A812B
:10153000C4010E949E0CE8EEF0E080818B778083EE
:101540000FB6F894BEBE0FBEADBEA7C080913603E5
:10155000813209F0A2C06DB67EB6E6E3F3E0068103
:101560001781528043808DB79EB7801B910B0FB6B9
:10157000F8949EBF0FBE8DBFEDB7FEB731964F01F9
:101580000F2EF8EEAF2EB12CF02DF5018081877F64
:101590008083B801C4010E94220DF50180818E77FD
:1015A000808321E0511001C020E030E0021B130BCA
:1015B000280D391D4FEF440D652DC6010E94E11223
:1015C0000FB6F8947EBE0FBE6DBE67C08091360325
:1015D000813A09F062C0E8EEF0E08081877F808385
:1015E000808180FFFDCFF60181858093F100E8EED8
:1015F000F0E080818E7780830E94D70E4EC080916C
:101600003603813209F049C0E8EEF0E08081877F3F
:1016100080830E94D70E9091380381E0911101C020
:1016200080E0F601818739C0809136038132A9F5C7
:10163000E8EEF0E08081877F80830E94D70E809162
:1016400038039091390388270024880F991F001CC4
:10165000880F991F001C892F902DF601958784878C
:101660001CC080913603813AC1F4E8EEF0E080813D
:10167000877F8083808180FFFDCFF60184859585FB
:1016800096958795969587958093F100E8EEF0E022
:1016900080818E7780830E94D70E0FB6F894FEBEAD
:1016A0000FBEEDBE0F900F900F90DF91CF911F9165
:1016B0000F91FF90EF90DF90CF90BF90AF909F90F1
:1016C0008F907F906F905F904F903F900895FC01B6
:1016D000399627E0DF011D922A95E9F721E0FC0108
:1016E000218728E833E13587248723E0248361E0DC
:1016F00001960E94870E08955F926F927F928F925B
:101700009F92AF92BF92CF92DF92EF92FF920F9390
:101710001F93CF93DF9300D01F92CDB7DEB77C012C
:10172000ADB6BEB680913503843009F08FC080918C
:10173000E4009091E500F7012285338528173907E9
:1017400009F484C081818F708093E9008091E80062
:1017500085FF7CC08DB69EB6408550E08DB79EB7A4
:10176000841B950B0FB6F8949EBF0FBE8DBFEDB7CF
:10177000FEB731966F011B821A82198260E070E019
:10178000CF010E946C138E010F5F1F4F960140E046
:10179000BE016D5F7F4FC7010E949312582EF70163
:1017A00084859585892B41F081E026853785232B1B
:1017B00009F080E0782E01C0712CF70106811781B5
:1017C0000115110599F049815A81B801C6010E949D
:1017D000561366246394892B09F4612CF701408524
:1017E00050E0B601C8010E94631301C0612C8981D9
:1017F0009A81892BF9F0511004C0611002C070FE6B
:1018000019C0F701848595859787868781818F70B8
:101810008093E9008B8181118093F10069817A8145
:1018200040E050E0C6010E943E0CE8EEF0E080810E
:101830008E7780838091E4009091E500F701938793
:1018400082870FB6F8949EBE0FBE8DBE0FB6F89479
:10185000BEBE0FBEADBE0F900F900F90DF91CF9127
:101860001F910F91FF90EF90DF90CF90BF90AF90BE
:101870009F908F907F906F905F9008958F929F922E
:10188000AF92BF92CF92DF92EF92FF920F931F938E
:10189000CF93DF938C01EB015A010E94FB0E811163
:1018A00040C0A114B10439F0F50180819181C81BB9
:1018B000D90B080F191F209799F1E12CF12C0F2E4D
:1018C000F8EE8F2E912CF02D0F2EF1EFCF2ED12C84
:1018D000F02DF401808185FD16C080818E77808394
:1018E0000E94DF11A114B10449F0F50180819181BA
:1018F000E80EF91EF182E08285E013C00E94FB0E23
:10190000882351F00EC0F80181918F01F601808388
:101910002197FFEFEF1AFF0A2097D9F680E001C068
:1019200080E0DF91CF911F910F91FF90EF90DF90BA
:10193000CF90BF90AF909F908F900895CF92DF92FD
:10194000FF920F931F93CF93DF9320913C0330912D
:101950003D032617370758F06115710539F4E8EE95
:10196000F0E020812E7720839B0101C09B01A82FEE
:10197000B92F10E0E8EEF0E063EF70E042EF50E0E6
:101980000F2EF1EFCF2ED12CF02D01E0F12C30C035
:1019900080913503882309F442C0853009F441C0A1
:1019A000808183FD40C0808182FD32C0808180FFC4
:1019B0001FC0EB011881EA01888190E0912B21156D
:1019C000310579F08032910560F41D91E6011883AC
:1019D0002150310901962115310519F08032910508
:1019E000A1F7102F809709F01F2D80818E778083BB
:1019F0002115310569F61111CBCF0AC0809135034D
:101A0000882399F0853099F0808183FF03C011C04D
:101A1000E8EEF0E0808182FFF1CF80E00BC082E051
:101A200009C083E007C081E005C082E003C083E015
:101A300001C081E0DF91CF911F910F91FF90DF9066
:101A4000CF900895EF92FF921F93CF93DF9361158C
:101A5000710551F5E8EEF0E080818B77808345C019
:101A600080913503882309F447C0853009F446C0C6
:101A7000808183FD45C0808182FFF2CF4DC0EA01A5
:101A800088818D936150710941F0E9011881E70166
:101A9000888190E0912B892B91F780818B778083CF
:101AA0006115710571F421C0A82FB92FE8EEF0E09F
:101AB00023EF30E00F2EF2EFEF2EF12CF02D41EF5F
:101AC00050E0809135038823E9F08530E9F080818A
:101AD00083FD1CC0808182FD1FC0C2CF8091350371
:101AE0008823B1F0853019F415C0E8EEF0E080816C
:101AF00080FFF4CF80E01AC082E018C083E016C0F7
:101B000081E014C082E012C083E010C081E00EC00A
:101B100082E00CC083E00AC0E9011881E7018881F6
:101B200090E0912B892B09F0AACFB7CFDF91CF910D
:101B30001F91FF90EF900895CF92DF92FF920F9345
:101B40001F93CF93DF9320913C0330913D032617E1
:101B5000370758F06115710539F4E8EEF0E020819F
:101B60002E7720839B0101C09B01E82FF92F10E005
:101B7000A8EEB0E063EF70E042EF50E00F2EF1EF1F
:101B8000CF2ED12CF02D01E0F12C31C08091350306
:101B9000882309F443C0853009F442C08C9183FD49
:101BA00041C08C9182FD33C08C9180FF20C0EB013D
:101BB0001881EA01888190E0912B2115310581F08F
:101BC0008032910568F41491E60118833196215012
:101BD000310901962115310519F08032910599F7E7
:101BE000102F809709F01F2D8C918E778C932115E3
:101BF000310561F61111CACF0AC0809135038823DF
:101C000099F0853099F0808183FF03C011C0E8EE20
:101C1000F0E0808182FFF1CF80E00BC082E009C05C
:101C200083E007C081E005C082E003C083E001C01B
:101C300081E0DF91CF911F910F91FF90DF90CF90C6
:101C400008958F929F92BF92CF92DF92EF92FF9270
:101C50000F931F93CF93DF93873070F126C0292F06
:101C60002F70E7012883891731F0E80178812081FE
:101C7000E401588103C0242F762F5B2D21FF12C071
:101C80003C913E7F3C9330813D7F30833C9131607D
:101C90003C93E80178832083E4015883E60128819E
:101CA000222344F49F5F9730D1F68F708093E90030
:101CB00081E021C080E01FC0982F9F709093E900C1
:101CC000982F242F762F50E0ABEEB0E0EDEEF0E051
:101CD0000CEE10E00F2EF0EF8F2E912CF02D0F2E2A
:101CE000FEEECF2ED12CF02D0F2EF9EEEF2EF12C93
:101CF000F02DB12CC3CFDF91CF911F910F91FF90A9
:101D0000EF90DF90CF90BF909F908F900895EF92CB
:101D1000FF920F931F93CF93DF936623F1F1062F6A
:101D2000C82FD92F10E00F2EF6E0FF2EF02D68946B
:101D3000EE24E1F85881552351F19C81E981FA8123
:101D40006B81852F8F70873050F5923010F44E2DB7
:101D500001C04F2DE930F10550F028E030E090E06F
:101D60009F5F220F331F2E173F07D0F301C090E073
:101D70009295907F492B90E4699FB0011124551FE3
:101D80005527551F652B0E94210E882349F01F5FA0
:101D900025960113CFCF81E003C081E001C080E030
:101DA000DF91CF911F910F91FF90EF900895809157
:101DB0003603882344F0E8EEF0E014C08091350348
:101DC000811103C00895E8EEF0E0808182FFF6CF34
:101DD000E8EEF0E080818B77808308958091350371
:101DE000882341F0808180FFF9CFE8EEF0E0808128
:101DF0008E77808308950F931F93CF93DF93209165
:101E0000E4003091E50065E6ACEEB0E0E8EEF0E02D
:101E10000BEE10E044EE50E001C09C019C91892F34
:101E2000817090FD1DC020C080913503882381F012
:101E3000853081F0E801888185FD0EC0EA01888146
:101E400099812817390751F3615039F784E00FC0A1
:101E500082E00DC083E00BC081E009C080E007C0D4
:101E6000808180FFE1CFFACF908192FFDDCFDF91BB
:101E7000CF911F910F9108950F931F93CF93DF93ED
:101E80000E94910F0E94990FC8EDD0E088818F7752
:101E9000888388818068888388818F7D888319BC46
:101EA00010923503109231031092330310923203D3
:101EB00000EE10E0F80180818B7F80838881816053
:101EC000888342E260E080E00E94210EE1EEF0E0D3
:101ED00080818E7F8083E2EEF0E08081816080836C
:101EE000808188608083F80180818E7F80838881F3
:101EF00080618883DF91CF911F910F910895E8ED64
:101F0000F0E080818F7E8083E7EDF0E0808181606A
:101F1000808384E082BF81E0809334030E943C0F81
:101F20000895E8EDF0E080818E7F80831092E200DA
:101F300008951092DA001092E10008951F920F9216
:101F40000FB60F9211242F933F934F935F936F938C
:101F50007F938F939F93AF93BF93EF93FF93809162
:101F6000E10082FF0BC08091E20082FF07C0E1EE3A
:101F7000F0E080818B7F80830E9487128091DA005D
:101F800080FF1FC08091D80080FF1BC0EAEDF0E009
:101F900080818E7F80838091D90080FF0DC080E199
:101FA00089BD82E189BD09B400FEFDCF81E0809347
:101FB00035030E94141205C019BC109235030E940B
:101FC00015128091E10080FF17C08091E20080FF30
:101FD00013C0E2EEF0E080818E7F8083808180619B
:101FE0008083E8EDF0E080818062808319BC85E029
:101FF000809335030E94DE118091E10084FF30C0A0
:102000008091E20084FF2CC080E189BD82E189BD1E
:1020100009B400FEFDCFE8EDF0E080818F7D808384
:10202000E1EEF0E080818F7E8083E2EEF0E080815F
:102030008F7E8083808181608083809131038823BB
:1020400021F084E08093350309C08091E300882368
:1020500014F081E001C083E0809335030E94DE111B
:102060008091E10083FF20C08091E20083FF1CC0CB
:10207000E1EEF0E08081877F808382E0809335030A
:102080001092310380818E7F8083E2EEF0E08081C8
:102090008E7F808380818061808342E260E080E087
:1020A0000E94210E0E94DE11FF91EF91BF91AF912E
:1020B0009F918F917F916F915F914F913F912F9160
:1020C0000F900FBE0F901F9018950F931F93CF93F3
:1020D000DF93CDB7DEB7AA970FB6F894DEBF0FBE79
:1020E000CDBFE6E3F3E02EE333E0A1EFB0E08C9167
:1020F00081932E173F07D9F70E942C128091E80098
:1021000083FF37C1E6E3F3E020813181832F90E044
:102110008A30910508F02DC1FC01E25DFE4F0C9460
:102120005013203821F0223809F023C108C08091D3
:10213000320390913303992389F082600FC080911C
:102140003A038F70873008F014C1E9EEF0E0808325
:102150008091EB0085FB882780F91082E8EEF0E0A3
:102160009081977F9083A1EFB0E08C931C92808147
:102170008E7780830E94D70EFCC0222309F408C109
:10218000223009F0F6C009C181E0333009F080E067
:10219000809333032CC080913A038F709FEF980F88
:1021A000963008F0E6C08093E9009091EB0090FF34
:1021B0001EC090913703933031F4EBEEF0E0808154
:1021C0008062808314C0EBEEF0E090819061908398
:1021D00021E030E0A90102C0440F551F8A95E2F7C3
:1021E000AAEEB0E04C931C928081886080831092AC
:1021F000E900E8EEF0E08081877F80830E94D70EBF
:10220000B8C02111B6C0109138031F77E3EEF0E09B
:1022100080818078812B8083E8EEF0E08081877F69
:1022200080830E94D70EE8EEF0E0808180FFFDCF32
:10223000E3EEF0E0808180688083111102C082E0CB
:1022400001C083E08093350394C02058223008F009
:1022500090C080913803909139038C3D53E09507ED
:10226000A1F583E08A838AE289835FB7F894DE016F
:10227000139620E03EE041E2E32FF0E04093570068
:10228000849120FF03C082958F703F5F8F708A30EA
:1022900018F090E0C79602C090E0C0968D939D9391
:1022A0002F5F243149F75FBF08EE10E0F80180810D
:1022B000877F80836AE270E0CE0101960E949E0CC7
:1022C000F80180818B77808354C060913A037091CC
:1022D0003B03AE014F5F5F4F0E940313BC01892B8C
:1022E00009F447C008EE10E0F8019081977F9083D1
:1022F00089819A810E949C0DF80180818B7780836F
:1023000038C02038B1F5E8EEF0E08081877F808327
:10231000809131038093F10080818E7780830E94C9
:10232000D70E27C0211125C0809138039091390321
:1023300099270297F4F4E8EEF0E08081877F8083AC
:1023400080913803809331030E94D70E809131032E
:10235000882321F084E08093350309C08091E30055
:10236000882314F081E001C084E0809335030E944B
:1023700020128091E80083FF16C0E8EEF0E0808133
:10238000877F8083EBEEF0E08081806280830BC0EA
:1023900080913803813069F7F7CE80913803882324
:1023A00009F4F9CE24CFAA960FB6F894DEBF0FBE7B
:1023B000CDBFDF91CF911F910F9108950895CF93D5
:1023C000809135038823A1F0C091E900CF708091FE
:1023D000EC00982F917080FD90E8C92B1092E900D5
:1023E0008091E80083FD0E946510CF70C093E900E2
:1023F000CF91089584B7877F84BF0FB6F894A895CE
:1024000080916000886180936000109260000FBE30
:1024100090E080E80FB6F89480936100909361009B
:102420000FBE0E947F0F089508951092300360E060
:1024300084E00E94BA0961E081E10E94BA0908952E
:1024400080E091E00E94670BE2EEF0E09081946002
:102450009083809330030895CF93DF938091360368
:10246000813C09F049C0809137038630B9F420914E
:102470003803309139032115324409F042C0C8EEC7
:10248000D0E08881877F888360E170E08EE491E00E
:102490000E949E0C88818B77888336C0813061F5DD
:1024A00080913803909139038115914079F4C8EEF9
:1024B000D0E08881877F888364E170E08AE391E0DF
:1024C0000E949E0C88818B7788831EC08091380380
:1024D000909139038115924079F4C8EED0E088815B
:1024E000877F888366E070E084E391E00E949E0C21
:1024F00088818B77888308C080E091E00E94140A6D
:1025000003C08130C9F7E2CFDF91CF910895809168
:102510000E0190910F01009729F0019790930F0100
:1025200080930E0108950F931F93F901108284E1A7
:102530008183AEE3B3E012968C911297828313826B
:1025400014968C911497848315968C911597858396
:1025500016968C911697868317968C91179787837A
:1025600018968C911897808719968C911997818766
:102570001A968C911A9782871B968C911B9783874A
:102580001C968D919C911D97958784871E968D91A1
:102590009C911F979787868750968D919C91519714
:1025A000918B808B52968D919C915397938B828BBC
:1025B00084E190E0F8019183808380E01F910F9186
:1025C00008950F931F930630110561F4D9011396F6
:1025D0008C911397EEE3F3E0848B15968C91858BA9
:1025E00081E0868B809152038F3F19F48EEF8093A8
:1025F0005203809153038F3F19F48EEF809353035E
:102600001F910F910895CF93DF931F92CDB7DEB73F
:10261000292F30E02230310559F02330310569F09F
:102620002130310581F482E190E021E533E00FC0F3
:1026300080E290E021E333E00AC080E090E09E0178
:102640002F5F3F4F04C080E090E020E030E0FA01CF
:10265000318320830F90DF91CF910895A1E21A2E4C
:10266000AA1BBB1BFD010DC0AA1FBB1FEE1FFF1F36
:10267000A217B307E407F50720F0A21BB30BE40B86
:10268000F50B661F771F881F991F1A9469F76095CD
:102690007095809590959B01AC01BD01CF01089587
:1026A000EE0FFF1F0590F491E02D0994FB01DC0172
:1026B00004C08D910190801921F441505040C8F719
:1026C000881B990B0895FB01DC0102C001900D925B
:1026D00041505040D8F70895DC0101C06D9341503E
:0A26E0005040E0F70895F894FFCF92
:1026EA00008114000001CA03140000000000000069
:1026FA00000000003F038004DF021B03B102CB028B
:10270A00BD02000000000708D707F2033808740763
:10271A007C0790070006FFFFFFFF0014FF00FFFF82
:10272A00FFFFFFFFFFFFFFFFFFFFFFFFFFFF10425B
:0E273A00000101021406FFFFFFFFFFFFFFFF7B
:00000001FF
