:100000000C9447020C946F020C946F020C946F02D4
:100010000C946F020C946F020C946F020C946F029C
:100020000C946F020C946F020C9455220C946F0286
:100030000C946F020C946F020C946F020C946F027C
:100040000C946F020C946F020C946F020C946F026C
:100050000C946F020C946F020C946F020C94EA0CD7
:100060000C946F020C944D070C947F070C946F0254
:100070000C946F020C946F020C946F020C946F023C
:100080000C946F020C946F020C946F020C946F022C
:100090000C94840A0C946F020C946F020C946F02FF
:1000A0000C946F020C946F020C946F021A0E1D0ECA
:1000B0000C0E100E160E3E0E3E0E3E0E210E250E9E
:1000C000290E2F0E330E3E0E390E4B2372236A2457
:1000D00072236A24BE23E1236A24382447240D0AAC
:1000E000546869732069732074686520686F73743D
:1000F00020636F6E74726F6C6C6572000D0A5553DD
:100100004220486F737420436F6E74726F6C6C651D
:100110007220496E697469616C69736564000D0AC7
:100120004F534320646964206E6F7420737461724E
:1001300074000D0A546869732064657669636520EC
:10014000697320696E20706C6179657220736C6FC1
:100150007420000000000200090F000003040100E9
:100160000C00000000000000000000000000000083
:1001700000000408020110408040102040804080B0
:10018000080204018040201002011080102040402D
:10019000200404040404030405020202020403020E
:1001A000020202060606060606040402020204040F
:1001B000000000002300260029002C002F00000072
:1001C0000000250028002B002E0031000000000058
:1001D000240027002A002D0030000D0A002050497D
:1001E000443A20000D0A556E6B6E6F776E204465A1
:1001F0007669636520436F6E6E6563746564202D58
:10020000205649443A20000D0A736574436F6E66A8
:1002100020000D0A73657444657654626C456E2047
:10022000000D0A6765744465764465736372200047
:100230000D0A00285553423A3A496E5472616E7362
:1002400066657229206570207265717565737465C5
:100250006420000D0A00285553423A3A496E547200
:10026000616E7366657229206164647220726571C3
:1002700075657374656420000D0A00285553423A71
:100280003A496E5472616E736665722920536574C3
:1002900041646472657373204661696C6564200013
:1002A0003A20646973636F6E6E65637465640D0AEA
:1002B000003A20636F6E6E6563746564002061733D
:1002C00020636F6E74726F6C6C65722B686561640D
:1002D0007365740D0A00206173206865616473653D
:1002E000740D0A0020617320636F6E74726F6C6C02
:1002F00065720D0A00436F6E74726F6C6C657220CC
:10030000000D0A58626F782033363020496E6974C8
:10031000204661696C65642C206572726F7220637F
:100320006F64653A20000D0A58626F782057697231
:10033000656C6573732052656365697665722043E9
:100340006F6E6E65637465640D0A000D0A41646426
:1003500072657373206E6F7420666F756E64000D26
:100360000A736574416464723A20000D0A41646442
:1003700072657373206E6F7420666F756E64000D06
:100380000A58626F782033363020496E69742046EF
:1003900061696C65642C206572726F7220636F6492
:1003A000653A20000D0A4F7574206F662061646401
:1003B00072657373207370616365000D0A596F7500
:1003C000276C6C206E656564206120776972656CAE
:1003D00065737320726563656976657220666F72F6
:1003E0002074686973206C696261727920746F206F
:1003F000776F726B000D0A6570696E666F206973A6
:10040000206E756C6C000D0A416464726573732014
:100410006E6F7420666F756E64000D0A41646472BD
:1004200065737320696E2075736500000100080014
:1004300002000400200010004000800000000001C5
:1004400000020020001000400080000400080000AE
:1004500002030405010902200001010080FA0904D9
:100460000000025842000007058103200004070530
:10047000020320000412011001000000205E048924
:1004800002210100000001000803A507E60C112469
:100490001FBECFEFDAE0DEBFCDBF11E0A0E0B1E0DC
:1004A000E4E0FCE402C005900D92A438B107D9F74E
:1004B00024E0A4E8B1E001C01D92AC3DB207E1F731
:1004C00012E0C7E4D2E004C02197FE010E94D625C5
:1004D000C434D107C9F70E9412030C9400260C946F
:1004E00000002E9A08952E988EBD0DB407FEFDCF04
:1004F0001EBC0DB407FEFDCF0E9471028EB508959B
:100500002E9882608EBD0DB407FEFDCF6EBD0DB47A
:1005100007FEFDCF0C94710288EF0E947302807C6D
:100520008034A1F018F4882301F10895803819F07F
:10053000803CB9F0089588ED0E94730281FD0BC0E4
:1005400069EC88ED0E94800282E00CC088ED0E9478
:10055000730281FDF5CF6BEC88ED0E94800283E091
:1005600001C081E080938801089561ED88ED0E94CB
:1005700080021092880108950F931F93CF93DF9309
:100580008C01269A0E947102219A229A2398209A1D
:1005900080E58CBD1DBC259868E188E80E9480023A
:1005A00060E288E70E94800260E088E70E948002A3
:1005B000C0E0D0E088E60E947302219680FD06C06C
:1005C000CF3F8FEFD807B1F78FEF1DC061EC88EDFB
:1005D0000E94800260E680ED0E94800264E088EE66
:1005E0000E94800288EE0E94730282FFFBCFC80146
:1005F0000E948C0260E288EC0E94800261E080E848
:100600000E94800280E0DF91CF911F910F910895A9
:1006100089E392E00E946F1069E372E08AE891E05A
:100620000C94BB1A0E94AC0D61E084E00E943F0E66
:1006300061E089E00E943F0E61E081E10E943F0E8F
:1006400062E083E10E943F0E62E084E10E943F0E7F
:1006500060E089E00E947B0E60E084E00E947B0EF7
:1006600061E081E10E947B0E0E949E24789426E046
:1006700040E251EA67E070E080EB92E00E94E5061C
:1006800083E10E94AA0EEC0184E10E94AA0ECC0F25
:10069000DD1F8C2B8093890162E371E080EB92E097
:1006A0000E9412086091890170E06F5F7F4F4AE0FD
:1006B00050E080EB92E00E94E2088CE8EDE2F4E08A
:1006C000DF011D928A95E9F764EF71E080E090E028
:1006D0000E94650D60E089E00E947B0E64E170E09D
:1006E00080E090E00E94650D61E089E00E947B0E51
:1006F00064E170E080E090E00E94650D89E392E0A3
:100700000E94BC028F3F39F46EE171E080EB92E011
:100710000E941208FFCF6CEF70E080EB92E00E9425
:1007200012088FEB93E00E94540C40E85AE166E017
:1007300070E08FEB93E00E945E0C6EED70E080EB5A
:1007400092E00E9412080FEF89E392E00E948C026F
:1007500089E392E00E94CC178DE8C82E81E0D82E64
:10076000CDE2D4E094E8E92E91E0F92E10E0F60114
:1007700081916F01882309F4A0C1412F60E08AE8CC
:1007800091E00E941C1B882319F08A81816002C0BD
:100790008A818E7F8A83412F62E08AE891E00E94FD
:1007A0001C1B882319F08A81826002C08A818D7F98
:1007B0008A83412F63E08AE891E00E941C1B882312
:1007C00019F08A81846002C08A818B7F8A83412FDD
:1007D00061E08AE891E00E941C1B882319F08A815D
:1007E000886002C08A81877F8A83412F65E08AE81A
:1007F00091E00E941C1B882319F08A81806102C04D
:100800008A818F7E8A83412F64E08AE891E00E948A
:100810001C1B882319F08A81806202C08A818F7D27
:100820008A83412F66E08AE891E00E941C1B88239E
:1008300019F08A81806402C08A818F7B8A83412F6C
:1008400067E08AE891E00E941C1B882319F08A81E6
:10085000806802C08A818F778A83412F6DE08AE8A1
:1008600091E00E941C1B882311F00C8301C01C82A4
:10087000412F6CE08AE891E00E941C1B882311F054
:100880000D8301C01D82412F6EE08AE891E00E9435
:100890001C1B882311F00E8301C01E82412F6FE0C4
:1008A0008AE891E00E941C1B882311F00F8301C08D
:1008B0001F82412F6AE08AE891E00E941C1B882376
:1008C00011F0088701C01886412F6BE08AE891E09B
:1008D0000E941C1B882311F0098701C01986412F33
:1008E00068E08AE891E00E941C1B8A87412F69E03A
:1008F0008AE891E00E941C1B8B87412F60E08AE808
:1009000091E00E945A1B9D878C87412F61E08AE805
:1009100091E00E945A1B9F878E87412F62E08AE8F0
:1009200091E00E945A1B998B888B412F63E08AE8E3
:1009300091E00E945A1B9B8B8A8B112309F448C0BB
:10094000612F8FEB93E00E94620C44E150E0BE0106
:100950008FEB93E00E94DC0B61E08FEB93E00E9451
:100960006C0C42E0612F8FEB93E00E94E30C82302D
:1009700059F58FEB93E00E94B90B8F3FFFEF9F0774
:1009800069F0AC0155274F3F510541F02C8930E00B
:100990004217530719F08C8B81E08E8B8FEB93E01D
:1009A0000E94B90B8F3F2FEF920791F0AC015527B2
:1009B0004F3F510569F02D8930E04217530741F050
:1009C0008D8B81E08E8B04C08FEB93E00E94380CFE
:1009D0000E94340D8F8C98A0A9A0BAA0DC01CB0195
:1009E00088199909AA09BB090997A105B10508F455
:1009F00078C0412F60E18AE891E00E941C1B8823A7
:100A000099F18B8D9C8DAD8DBE8D892B8A2B8B2B77
:100A100031F40E94340D6B8F7C8F8D8F9E8F0E94DE
:100A2000340D8B8C9C8CAD8CBE8CDC01CB01881979
:100A30009909AA09BB09893E9340A105B10508F4AB
:100A400050C00E94340D8B8C9C8CAD8CBE8CDC0114
:100A5000CB0188199909AA09BB098C349440A105D6
:100A6000B10508F486C03DC0412F65E08AE891E0F9
:100A70000E941C1B882309F496C0412F64E08AE879
:100A800091E00E941C1B882309F48DC08A8588236D
:100A900009F489C08B85882309F485C0212F40E0A3
:100AA00060E08AE891E00E94F01B0E94340D6F8F95
:100AB00078A389A39AA31E8A14C0112391F0612FF1
:100AC0008FEB93E00E94620C42E050E060E071E046
:100AD0008FEB93E00E94DC0B61E08FEB93E00E94D0
:100AE0006C0C0E9483248091E4009091E500209199
:100AF0000E0130910F01821B930B049720F084E0CC
:100B000091E00E94251F1F5FA396BFEFEB1AFB0A1F
:100B1000143009F02CCE80918D01882371F08091E2
:100B2000E0008E7F8093E00080911F04882371F0A5
:100B300060E081E10E947B0E09C061E081E10E94DA
:100B40007B0E8091E00081608093E0008091E40062
:100B50009091E50020910E0130910F01821B930BC3
:100B6000049720F084E091E00E94251F0E948324D6
:100B7000EBCD1A82212F40E060E08AE891E00E94EC
:100B8000F01B6AE070E080E090E00E94650D612F4C
:100B90008AE891E00E94921B0E94340D6F8F78A327
:100BA00089A39AA39ECF1B8E1C8E1D8E1E8E8E89AE
:100BB000813049F4212F4D896C898AE891E00E94A7
:100BC000F01B1E8AE9CFD7018C918B3FA1F08C3F9F
:100BD00009F18A3F79F5612F8AE891E00E94C41BF0
:100BE0000E94340D6F8F78A389A39AA3F7018081A7
:100BF0008F5F808376CF612F8AE891E00E94DB1BB4
:100C00000E94340D6F8F78A389A39AA3D7018C918A
:100C10008F5F12C0412F61E0610F8AE891E00E946E
:100C2000B71B0E94340D6F8F78A389A39AA3F70195
:100C3000108257CF8F5FD7018C9353CFFC01918DDA
:100C4000228D892F90E0805C9F4F821B91098F73CA
:100C500099270895FC01918D828D981731F0828D2E
:100C6000E80FF11D858D90E008958FEF9FEF0895B7
:100C7000FC01918D828D981761F0828DDF01A80FA4
:100C8000B11D5D968C91928D9F5F9F73928F90E0C6
:100C900008958FEF9FEF0895FC01538D448D252F0C
:100CA00030E0842F90E0821B930B541710F0CF9606
:100CB000089501970895FC01848DDF01A80FB11DEF
:100CC000A35ABF4F2C91848D90E001968F73992782
:100CD000848FA689B7892C93A089B1898C9180646F
:100CE0008C93938D848D981306C00288F389E02D30
:100CF00080818F7D80830895EF92FF920F931F93E1
:100D0000CF93DF93EC0181E0888F9B8D8C8D9813BE
:100D100005C0E889F989808185FD24C0F62E0B8DF8
:100D200010E00F5F1F4F0F731127E02E8C8DE8121C
:100D30000CC00FB607FCFACFE889F989808185FFDE
:100D4000F5CFCE010E945B06F1CF8B8DFE01E80F3F
:100D5000F11DE35AFF4FF0820B8FEA89FB898081F6
:100D6000806207C0EE89FF896083E889F989808104
:100D70008064808381E090E0DF91CF911F910F919B
:100D8000FF90EF900895CF93DF93EC01888D882337
:100D9000C9F0EA89FB89808185FD05C0A889B989E8
:100DA0008C9186FD0FC00FB607FCF5CF808185FFC3
:100DB000F2CFA889B9898C9185FFEDCFCE010E9431
:100DC0005B06E7CFDF91CF910895CF92DF92EF924C
:100DD000FF921F93CF93DF93EC016A017B01122FE7
:100DE000E889F98982E080834115514E61057105DA
:100DF000B1F060E079E08DE390E0A70196010E94F8
:100E0000B425DA01C9010197A109B109B695A795E1
:100E1000979587959C01211580E13807A8F0E8890E
:100E2000F989108260E874E88EE190E0A7019601EC
:100E30000E94B425DA01C9010197A109B109B6954B
:100E4000A795979587959C01EC85FD853083EE8568
:100E5000FF852083188EEC89FD891083EA89FB8940
:100E6000808180618083EA89FB89808188608083BA
:100E7000EA89FB89808180688083EA89FB89808197
:100E80008F7D8083DF91CF911F91FF90EF90DF9056
:100E9000CF90089580E090E008951F920F920FB6D2
:100EA0000F9211242F938F939F93EF93FF93E091D1
:100EB000C002F091C1028081E091C602F091C702A8
:100EC00082FD12C090818091C9028F5F8F73209143
:100ED000CA02821751F0E091C902F0E0E055FD4FDF
:100EE000958F8093C90201C08081FF91EF919F91FE
:100EF0008F912F910F900FBE0F901F9018951F92FA
:100F00000F920FB60F9211242F933F934F935F933D
:100F10006F937F938F939F93AF93BF93EF93FF93C1
:100F200080EB92E00E945B06FF91EF91BF91AF9141
:100F30009F918F917F916F915F914F913F912F91F1
:100F40000F900FBE0F901F901895E0EBF2E0138208
:100F5000128288EE93E0A0E0B0E084839583A683BC
:100F6000B78388E191E0918380838DEC90E0958751
:100F700084878CEC90E09787868788EC90E0918B53
:100F8000808B89EC90E0938B828B8AEC90E0958B40
:100F9000848B8EEC90E0978B868B118E128E138E45
:100FA000148E08950895CF92DF92EF92FF920F93DF
:100FB0001F93CF93DF936C017A018B01C0E0D0E0E7
:100FC000CE15DF0581F0D8016D918D01D601ED912F
:100FD000FC910190F081E02DC6010995892B11F05B
:100FE0002196EECF7E01C701DF91CF911F910F9126
:100FF000FF90EF90DF90CF9008956115710579F023
:10100000FB0101900020E9F73197AF01461B570B18
:10101000DC01ED91FC910280F381E02D099480E0E8
:1010200090E00895EF92FF920F931F93CF93DF9379
:101030008C017B01C0E0D0E0F701EC0FFD1F649153
:10104000662361F0D801ED91FC910190F081E02DD3
:10105000C8010995892B11F02196EECFCE01DF91C1
:10106000CF911F910F91FF90EF900895DC01ED91CA
:10107000FC910190F081E02D09948F929F92AF92A4
:10108000BF92EF92FF920F931F93CF93DF93CDB751
:10109000DEB7A1970FB6F894DEBF0FBECDBF7C01BF
:1010A000FA01CB0119A2223008F42AE08E010F5D6B
:1010B0001F4F822E912CA12CB12CBF01A5019401B0
:1010C0000E94B425F901CA01015011096A3010F4D7
:1010D000605D01C0695CD8016C93232B242B252B08
:1010E00061F7B801C7010E94FD07A1960FB6F894F9
:1010F000DEBF0FBECDBFDF91CF911F910F91FF904B
:10110000EF90BF90AF909F908F900895211531057B
:1011100041F4DC01ED91FC910190F081E02D642F10
:1011200009940C943D089A01462F50E060E070E06D
:101130000C948608CF92DF92EF92FF920F931F9349
:10114000CF93DF932115310581F4DC01ED91FC9102
:101150000190F081E02D642FDF91CF911F910F91CD
:10116000FF90EF90DF90CF9009942A30310501F580
:1011700077FF1DC06A017B01EC016DE20E94360819
:101180008C0144275527BA014C195D096E097F0966
:101190002AE0CE010E943D08800F911FDF91CF9180
:1011A0001F910F91FF90EF90DF90CF9008952AE06C
:1011B000DF91CF911F910F91FF90EF90DF90CF9033
:1011C0000C943D089A01AB01770F660B770B0C94DA
:1011D0009A08CF93DF93CCEBD0E018821092BE0335
:1011E00081E08093BC031092BB0361E082E00E9427
:1011F0007B0E61E083E00E947B0EE9EBF0E08081F2
:101200008E7F808380818D7F808388E48093B80087
:1012100085E48883DF91CF910895813049F410925D
:101220004D0310924E0310924F031092500317C0BB
:1012300080914D0390914E03A0914F03B0915003C4
:101240000196A11DB11D80934D0390934E03A09371
:101250004F03B093500384E690E00E94A10D80916B
:101260004D0390914E03A0914F03B09150038035F0
:101270009105A105B10580F010924D0310924E0327
:1012800010924F03109250030E94E90861E081E13F
:101290000E947B0E81E0089580E008959B01AC01DF
:1012A00060E074E284EF90E00E94B425DA01C901A5
:1012B0004097A109B109B695A79597958795809311
:1012C000B8000895FF920F931F93CF93DF93D82F09
:1012D000162F072FC42FF22E413208F054C081E0A0
:1012E0000E940D098091BE03882329F080E00E94AE
:1012F0000D098823B9F381E08093BE03F092BC030B
:101300009FEF90935103109296039C0F9093950337
:101310008093BD038091BD03DD0FD82BD093BD0317
:101320008091BB03813061F41092BB038091BD03B7
:101330008093BB008091BC0083FDF8CF85EC01C099
:1013400085EE8093BC0081E00E940D098091BE0370
:10135000813029F480E00E940D098823B9F380913F
:1013600096038C1710F4C0919603A7E9B3E0912F70
:10137000E12FF02F8E2F891B8C1718F48D918193FC
:10138000F9CF8C2F01C080E0DF91CF911F910F9199
:10139000FF900895DF92EF92FF920F931F93CF93E8
:1013A000DF93413208F062C0D22E142FE72EF62EC2
:1013B000D82F81E00E940D09C091BE03CC2331F0EB
:1013C00080E00E940D0981114FC0F6CF82E080932A
:1013D000BE030093BC038FEF8093510310929603DA
:1013E000109395039F2DA7E9B3E0EF2DFE2D8E2FCF
:1013F000891B811718F481918D93F9CF1092BD0349
:101400008091BD03DD0FD82BD093BD038091BB032A
:10141000813061F41092BB038091BD038093BB00C7
:101420008091BC0083FDF8CF85EC01C085EE8093F0
:10143000BC0081E00E940D09DD2051F08091BE03C7
:10144000823031F480E00E940D0981110DC0F4CF8B
:10145000809151038F3F79F080915103803241F0A8
:1014600080915103803331F0C4E005C0C1E003C076
:10147000C2E001C0C3E08C2FDF91CF911F910F918B
:10148000FF90EF90DF90089540917303262F30E096
:10149000240F311D21323105DCF42091BE032430AC
:1014A000C9F4FC0180E090E0861758F43091730392
:1014B0002191DC01AB58BC4FA30FB11D2C930196B9
:1014C000F3CF80917303680F6093730380E00895F6
:1014D00081E0089582E0089585ED8093BC0081E06D
:1014E0000E940D098091BC0084FF05C080E00E942D
:1014F0000D098823B9F31092BE03089585EC8093FB
:10150000BC001092BE0308951F920F920FB60F9267
:1015100011242F933F934F935F936F937F938F93F8
:101520009F93AF93BF93EF93FF938091B900887F10
:10153000803609F49EC078F5883209F45DC090F4D5
:10154000803109F456C038F4882309F4F5C0883096
:1015500009F44FC0F5C0883109F44EC0803209F457
:101560005FC0EEC0803409F46AC058F4803309F4D7
:1015700057C0883309F0E4C0809351030E947E0A6B
:10158000DFC0803509F44FC0883509F45DC0883468
:1015900009F0D6C0D3C0883909F4C4C0A8F488378C
:1015A00009F467C038F4883609F463C0803709F459
:1015B00060C0C6C0883809F4B5C0803909F45FC07E
:1015C000803809F0BDC05BC0803B09F483C038F4AB
:1015D000803A09F466C0883A09F47CC0B1C0803C06
:1015E00009F4A4C0883C09F4A1C0883B09F487C071
:1015F000A7C08091BD0310C0909196038091950380
:10160000981770F5E091960381E08E0F8093960312
:10161000F0E0E956FC4F80818093BB0085EC83C0ED
:10162000809351038BC0E091960381E08E0F8093ED
:1016300096038091BB00F0E0E956FC4F80839091C7
:101640009603809195036BC0E091960381E08E0F25
:10165000809396038091BB00F0E0E956FC4F8083B5
:101660008091BC0381116AC081E08093BB0384EA4E
:101670005EC083E08093BE0310925203CFCF80916F
:101680005203803208F04EC0E091520381E08E0F89
:10169000809352038091BB00F0E0ED5AFC4F8083B1
:1016A000BDCF0E947E0A80915203803230F4E091D7
:1016B0005203F0E0ED5AFC4F10826091520370E04B
:1016C000E091B703F091B80383E593E00995109298
:1016D000520336C084E08093BE03109274031092CC
:1016E0007303E091B903F091BA03099580917303F4
:1016F000811105C081E08093730310927503E0911E
:10170000740381E08E0F80937403F0E0EB58FC4F7C
:1017100080818093BB00909174038091730398172C
:1017200008F47CCF85E88093BC000AC085EC8093E8
:10173000BC001092BE0304C0109251030E946C0AB8
:10174000FF91EF91BF91AF919F918F917F916F9199
:101750005F914F913F912F910F900FBE0F901F906F
:1017600018958091EF0390E02091F003821B91097E
:1017700008959091F0038091EF03981750F4E92FAA
:10178000F0E0EF50FC4F208130E09F5F9093F0033A
:1017900002C02FEF3FEFC9010895E091F00380915F
:1017A000EF03E81730F4F0E0EF50FC4F808190E059
:1017B00008958FEF9FEF0895CF92DF92EF92FF92FF
:1017C0000F931F93CF93DF937C01CB018A0120916C
:1017D000CB03222389F0EB016B01C40ED51ECC157F
:1017E000DD0569F06991D701ED91FC910190F081DF
:1017F000E02DC7010995F3CF642F0E94440AC80168
:10180000DF91CF911F910F91FF90EF90DF90CF90DC
:101810000895CF93DF931F92CDB7DEB769832091F0
:10182000CB032223D1F02091CC03203240F021E0E1
:1018300030E0FC013383228380E090E015C080918A
:10184000CD03E82FF0E0E253FC4F998190838F5F46
:101850008093CD038093CC0305C061E0CE01019657
:101860000E94440A81E090E00F90DF91CF910895AB
:101870001092F0031092EF0380E2E1EFF3E0DF015A
:101880001D928A95E9F70895FC011382128288EE71
:1018900093E0A0E0B0E084839583A683B7838AE2D7
:1018A00091E09183808308951092F0031092EF03EA
:1018B0001092CD031092CC030C94E908CB01BA012D
:1018C0000C944E0981E08093CB036093EE03109259
:1018D000CD031092CC0308950F93062F21E0409181
:1018E000CC036EEC73E08091EE030E94CA09109263
:1018F000CD031092CC031092CB030F9108954F9219
:101900005F926F927F92AF92BF92CF92EF92FF92CF
:101910000F931F93CF93DF935C01F62ED42F2801F2
:101920003901EE2021F10E94620CCE2DC43008F066
:10193000C3E0C150C0F028E0C29FC0011124A30140
:10194000920104C056954795379527958A95D2F709
:10195000CA01B901D501ED91FC910190F081E02D12
:10196000C5010995E6CF60E0C5010E946C0C4D2FC2
:10197000D13208F040E22C2D61EF73E08F2D0E94F0
:1019800062091092F0038093EF03DF91CF911F91D2
:101990000F91FF90EF90CF90BF90AF907F906F909E
:1019A0005F904F900895CF92EF920F931F93C22EA6
:1019B000E12C00E010E098010E947F0C1F910F9134
:1019C000EF90CF90089521E00C94D30C8FEB93E02F
:1019D0000C94440C1F920F920FB60F9211242F9368
:1019E0003F938F939F93AF93BF93809112049091F5
:1019F0001304A0911404B09115043091110423E054
:101A0000230F2D3720F40196A11DB11D05C026E836
:101A1000230F0296A11DB11D20931104809312047F
:101A200090931304A0931404B093150480911604AA
:101A300090911704A0911804B09119040196A11D6A
:101A4000B11D8093160490931704A0931804B093CB
:101A50001904BF91AF919F918F913F912F910F905A
:101A60000FBE0F901F9018952FB7F8946091120435
:101A70007091130480911404909115042FBF089560
:101A80003FB7F8948091160490911704A091180420
:101A9000B091190426B5A89B05C02F3F19F00196F7
:101AA000A11DB11D3FBFBA2FA92F982F8827820FE4
:101AB000911DA11DB11DBC01CD0142E0660F771F34
:101AC000881F991F4A95D1F708958F929F92AF92E0
:101AD000BF92CF92DF92EF92FF926B017C010E9446
:101AE000400D4B015C01C114D104E104F10401F18A
:101AF0000E94D2070E94400DDC01CB018819990990
:101B0000AA09BB09883E9340A105B10560F321E015
:101B1000C21AD108E108F10888EE880E83E0981E09
:101B2000A11CB11CC114D104E104F10419F7DBCFED
:101B3000FF90EF90DF90CF90BF90AF909F908F90ED
:101B400008958230910538F0880F991F880F991FEA
:101B500005970197F1F70895789484B5826084BD64
:101B600084B5816084BD85B5826085BD85B58160A1
:101B700085BDEEE6F0E0808181608083E1E8F0E001
:101B80001082808182608083808181608083E0E830
:101B9000F0E0808181608083E1E9F0E08081826013
:101BA0008083808181608083E0E9F0E080818160D2
:101BB0008083E1ECF0E080818460808380818260BA
:101BC0008083808181608083E3ECF0E080818160AC
:101BD0008083E0ECF0E0808182608083E2ECF0E0E2
:101BE000808181608083EAE7F0E080818460808387
:101BF0008081826080838081816080838081806831
:101C00008083089590E0FC013197EF30F105B0F545
:101C1000EA5AFF4F0C94D625809180008F7703C03D
:101C2000809180008F7D8093800008958091800056
:101C3000877FF9CF84B58F7702C084B58F7D84BD4F
:101C40000895809190008F7707C0809190008F7DDC
:101C500003C080919000877F8093900008958091C9
:101C6000C0008F7703C08091C0008F7D8093C0003B
:101C700008958091C200877F8093C2000895CF931A
:101C8000DF9390E0FC01EE58FE4F2491FC01EF56EB
:101C9000FE4F8491882361F190E0880F991FFC0129
:101CA000E453FE4FC591D491FC01E254FE4FA5913F
:101CB000B491611109C09FB7F8948881209582235F
:101CC0008883EC912E230BC0623061F49FB7F894A7
:101CD0008881322F309583238883EC912E2B2C938F
:101CE0009FBF06C08FB7F894E8812E2B28838FBF43
:101CF000DF91CF9108951F93CF93DF93282F30E08A
:101D0000F901ED5AFE4F8491F901EE58FE4FD4913E
:101D1000F901EF56FE4FC491CC23C1F0162F81116B
:101D20000E94020EEC2FF0E0EE0FFF1FE254FE4F78
:101D3000A591B4919FB7F894111104C08C91D095DE
:101D4000D82302C0EC91DE2BDC939FBFDF91CF91B3
:101D50001F910895CF93DF93282F30E0F901ED5ABA
:101D6000FE4F8491F901EE58FE4FD491F901EF56E0
:101D7000FE4FC491CC2391F081110E94020EEC2FF2
:101D8000F0E0EE0FFF1FE055FE4FA591B491EC91EE
:101D9000ED2381E090E021F480E002C080E090E05B
:101DA000DF91CF9108952091020130910301261710
:101DB00037072CF0682F80EB92E00C9436080895DA
:101DC0000F931F93CF93DF93209102013091030172
:101DD0002617370774F0009761F08B01FC0184919E
:101DE000EF012196882329F0B8010E94D30EFE014D
:101DF000F6CFDF91CF911F910F91089520910201AD
:101E000030910301261737073CF04AE050E0682F75
:101E100080EB92E00C949308089560E870E081E212
:101E200092E00C94E00E60E870E082E192E00C94A5
:101E3000E00E60E870E087E092E00C94E00ECF9353
:101E4000C82F282F30E084E0359527958A95E1F753
:101E500080E3820F8A3310F087E3820F60E870E03E
:101E60000E94D30ECF7080E38C0F8A3310F087E38B
:101E70008C0F60E870E00E94D30E60E870E08AED9D
:101E800091E0CF910C94E00ECF93C82F0E940D0FDC
:101E90008C2FCF910C941F0FEF92FF920F931F93F3
:101EA000CF93DF937C018B01CCE0D0E0C7010C2EF7
:101EB00002C0969587950A94E2F7982F9F7080E369
:101EC000890F8A3310F087E3890FB8010E94D30E7F
:101ED0002497CC3F8FEFD80749F7DF91CF911F911F
:101EE0000F91FF90EF9008950F931F93CF93DF937F
:101EF0008C01EB0160E870E084EE91E00E94E00E5E
:101F000060E870E0C8010E944C0F60E870E08DED61
:101F100091E00E94E00E60E870E0CE01DF91CF9189
:101F20001F910F910C944C0FCF93DF93FC01862FE0
:101F30008078A9F4283008F04DC0442321F0958121
:101F4000973009F447C0EF01A1E0B0E09D859923E7
:101F500041F011962596A031B105C1F73BC080E054
:101F600039C061111CC085E08A9FE0018B9FD00DB4
:101F70001124CE0FDF1F442331F081E4888785814F
:101F80008F5F858302C081E0888725E02A9FC0019A
:101F90002B9F900D1124E80FF91F80851BC06770DF
:101FA000660F660F660F442341F0606485818F5F82
:101FB00085838770687F682B03C02770687B622BDE
:101FC00025E02A9FC0012B9F900D1124E80FF91FD7
:101FD0006087862FDF91CF910895611102C0069628
:101FE0000895FC0121E03585631739F02F5F3596A0
:101FF0002031C9F780E090E00895069635E0239FF0
:10200000800D911D11240895DF92EF92FF920F939E
:102010001F93CF93DF93EC01E62EF12C85E0689FB0
:10202000B0011124FE01E60FF71F8085182F1770ED
:1020300086FF17C001E085E0D82EFE01D09EE00D9E
:10204000F11D1124808586958695869587701817D1
:10205000F9F00F5F003189F78D81811302C01150B3
:102060001D8385E08E9DF0018F9DF00D1124EC0FF6
:10207000FD1F108681E0818712862296D783C68352
:10208000DF91CF911F910F91FF90EF90DF90089516
:10209000602FCE010E940410D0CFFC01613499F46E
:1020A0009C01255B3F4F61E0AC014E5F5F4F1586A1
:1020B00066871786548743873596E217F307B9F783
:1020C000FC011582089521E03585631729F02F5F03
:1020D00035962031C9F70895622F0C940410FC0145
:1020E0008CE391E0918380831582108681E0818763
:1020F0001286CF01029697838683128228E023837B
:102100002CE32483DF019F01255B3F4F41E01D96B7
:102110001C921D971E964C931E971F961C921F97FC
:102120001C969C938E931B971596A217B30779F76D
:10213000EA58FF4F108281E180931E040895CF93E7
:10214000C42F0E94ED0F009789F0DC01ED91FC9106
:102150001197309759F013969C9180E0891731F0D0
:1021600020812C1731F033968F5FF8CF80E090E01C
:1021700001C0CF01CF9108950F931F93CF93DF93A9
:102180002115310571F0E901042F162F0E94ED0F82
:10219000FC01892B41F01283D183C083038380E04B
:1021A00003C088ED01C086EDDF91CF911F910F91A3
:1021B00008952E980895CF93C82F0E94D910CEBDB0
:1021C0000DB407FEFDCF1EBC0DB407FEFDCF0E946F
:1021D00071028EB5CF910895CF93DF93C82FD62F7C
:1021E0000E94D910C260CEBD0DB407FEFDCFDEBD8A
:1021F0000DB407FEFDCFDF91CF910C9471028F9249
:102200009F92AF92BF92CF92DF92EF92FF920F9385
:102210001F93CF93DF93EC01D62EC42E59010E9459
:10222000ED0F7C01009709F445C0FC01808191818C
:10223000892B09F441C04C2D6D2DCE010E949F10B9
:10224000F501918380830097C9F1FC018281869515
:10225000869590E08031910514F08FE090E041E0A8
:1022600050E060E070E04A015B0104C0880C991CFA
:10227000AA1CBB1C8A95D2F7D501C4010197F801AD
:10228000918380836D2D80EE0E94EC1088ED0E947A
:10229000DB10F7019481992331F0CA58DF4F688130
:1022A0006260682B02C0682F697F88ED0E94EC1085
:1022B00080E005C086ED03C087ED01C08BEDDF91A6
:1022C000CF911F910F91FF90EF90DF90CF90BF9033
:1022D000AF909F908F9008958F929F92AF92BF92F0
:1022E000CF92DF92EF92FF920F931F93CF93DF93E2
:1022F000862E942E59010E94340D6B017C0128E832
:10230000C20E23E1D21EE11CF11C00E010E0D0E07F
:10231000C0E098280E94340DDC01CB018C199D0986
:10232000AE09BF09B7FF2DC0692D80EF0E94EC10E8
:102330000E94340DDC01CB018C199D09AE09BF0947
:10234000B7FF09C088EC0E94DB1087FFF1CF60E87F
:1023500088EC0E94EC1088EF0E94DB10C82FCF7031
:10236000C43019F0CE3051F00CC00F5F1F4FA114D4
:10237000B10481F20A151B0569F603C0DF5FD33093
:1023800049F68C2FDF91CF911F910F91FF90EF9025
:10239000DF90CF90BF90AF909F908F9008959F92C5
:1023A000AF92BF92CF92DF92EF92FF920F931F9363
:1023B000CF93DF937C01D42F122F902E00E06C017D
:1023C000C60ED11CC60ED11C86E5C80ED11CA42E8B
:1023D000B12CABE2AA0EB11CAA0CBB1CAE0CBF1CEC
:1023E000F60180819181DC01ED91FC910280F38105
:1023F000E02D292D412F6D2F0995803EC9F4D11173
:102400000BC061E088EE0E94EC1066E670E080E0B0
:1024100090E00E94650D14C0F50180819181DC017E
:10242000ED91FC910284F385E02D612F099508C0A0
:102430008D3021F4033008F03FC014C081113FC03B
:10244000F60180819181DC01ED91FC910190F08198
:10245000E02D292D412F6D2F0995C82F8D3051F476
:10246000033050F464E670E080E090E00E94650D77
:102470000F5FB6CF882311F1D1110BC061E088EE58
:102480000E94EC1066E670E080E090E00E94650D2E
:1024900011C0ED2FF0E0BB96EE0FFF1FEE0DFF1DFC
:1024A00080819181DC01ED91FC910284F385E02D26
:1024B000612F09958C2F03C08DE001C080E0DF9172
:1024C000CF911F910F91FF90EF90DF90CF90BF9031
:1024D000AF909F9008950F931F93CF93DF93182F82
:1024E000062FEA010E94D91012601EBDFE01802F46
:1024F000882339F00DB407FEFDCF91919EBD815028
:10250000F7CFC00FD11D0DB407FEFDCF0E947102A1
:10251000CE01DF91CF911F910F9108952F923F929D
:102520004F925F926F927F928F929F92AF92BF92E3
:10253000CF92DF92EF92FF920F931F93CF93DF938F
:1025400000D000D01F92CDB7DEB77D836C834A01E7
:102550006901FB01F1808FEF8F0D803408F074C0AA
:102560000E94340D2B013C01F8E84F0EF3E15F1E91
:10257000611C711CEC81FD81828180FD02C060E4E0
:1025800001C060E888EE0E94EC10312C8F2D90E0A5
:102590009A838983C114D10409F448C0E980FA8080
:1025A000CE14DF0408F47601EB82A8016E2D80E1E1
:1025B0000E946B126E2D88E30E94EC10EC81FD816D
:1025C0006081606280EF0E94EC1088EC0E94DB105A
:1025D00087FFFBCF60E888EC0E94EC1088EF0E9438
:1025E000DB108F70382EA12CB12C212C332009F454
:1025F0006BC00E94340DDC01CB0184199509A6093A
:10260000B709B7FF61C0F6E03F1601F12EE03216C0
:1026100009F455C084E0381209C0FFEFAF1ABF0AB1
:102620008114910449F1A814B90431F588EF0E948E
:10263000DB1085FB882780F9EC81FD81928180FB8E
:1026400090F99283832D45C08AED43C088EF0E94A4
:10265000DB1085FB882780F991E08927EC81FD81DB
:10266000928180FB90F9928390FD02C060E401C0EA
:1026700060E888EE0E94EC1060E088E30E94EC10B5
:10268000F801608180E10E94EC106B8188E30E9478
:10269000EC10EC81FD816081606280EF0E94EC10A3
:1026A00088EC0E94DB1087FFFBCF60E888EC0E947B
:1026B000EC1088EF0E94DB108F70382E97CF239498
:1026C00023E02212D9CFB2CFCE18DF080E0D1F1D86
:1026D00061CF0F900F900F900F900F90DF91CF91DF
:1026E0001F910F91FF90EF90DF90CF90BF90AF9030
:1026F0009F908F907F906F905F904F903F902F9022
:102700000895AF92BF92CF92DF92EF92FF920F9314
:102710001F93CF93DF9300D000D0CDB7DEB77C01FD
:10272000690158011C821B821A8219828E010F5F77
:102730001F4F9E012D5F3F4F0E94FF10811109C066
:1027400049815A816B817C8185019601C7010E9474
:102750008E120F900F900F900F90DF91CF911F91DD
:102760000F91FF90EF90DF90CF90BF90AF900895C2
:102770002F923F924F925F926F927F928F929F9291
:10278000AF92BF92CF92DF92EF92FF920F931F937F
:10279000CF93DF93CDB7DEB72A970FB6F894DEBF9D
:1027A0000FBECDBF1C016B015B834A835901D90168
:1027B0006D907C901197FB01F181F9831D921C9221
:1027C000DB0112968C9181FD02C060E101C060E2E4
:1027D00088EE0E94EC108E2D90E0A0E0B0E08C839B
:1027E0009D83AE83BF8368862A813B81D6014C914D
:1027F00060E0C1010E946C11F82EB6E08B1318C086
:1028000088EF0E94DB1082958170E1E08E27D6016F
:1028100012969C91129780FB91F912969C9391FDD0
:1028200002C060E101C060E288EE0E94EC10DCCFE3
:10283000811167C088EC0E94DB1082FF60C080E3DA
:102840000E94DB10582E90E06816790608F4588430
:10285000F501808191819301281B390B3A872987E3
:1028600037FF02C01A861986852C912C89859A8596
:102870008816990614F49A86898649840E94D9108C
:1028800098E09EBD0DB407FEFDCFF801442041F055
:102890001EBC4A940DB407FEFDCF8EB58193F6CFD2
:1028A000A985BA850A0F1B1F0E94710264E088EC9B
:1028B0000E94EC10F50180819181880E991E918211
:1028C0008082F9815F1618F08614970470F088EF03
:1028D0000E94DB1082958170D60112969C9112970E
:1028E00080FB91F912969C930CC0EE2009F47CCFEA
:1028F0006C817D818E819F810E94650D75CF80EFF7
:10290000F82E8F2D2A960FB6F894DEBF0FBECDBFDE
:10291000DF91CF911F910F91FF90EF90DF90CF90BB
:10292000BF90AF909F908F907F906F905F904F90EF
:102930003F902F9008952F923F924F925F926F9207
:102940007F928F929F92AF92BF92CF92DF92EF923F
:10295000FF920F931F93CF93DF93CDB7DEB76197AD
:102960000FB6F894DEBF0FBECDBF3C01F42E322E61
:10297000202EC98A4EA05FA0C8A4D9A4188A1F8699
:102980001E861D868E01035F1F4F9E01215F3F4FF4
:102990000E94FF10811196C039822A82EB828989B8
:1029A0008C83BE82AD8298868F82AE014F5F5F4F6F
:1029B00068E080E20E946B122D853E854F2D60E11C
:1029C000C3010E946C11E82E811178C0932D90787C
:1029D000392EC114D10409F462C0EF85F8898281CF
:1029E000992309F44DC082608283540122242394E8
:1029F000A114B10409F458C05C864B864D855E85F0
:102A00006F857889E12C86019E01255F3F4FC301C8
:102A10000E94B813E82EA6E08A130FC00F8518890C
:102A200088EF0E94DB1085FB882780F98225F8015A
:102A3000928180FB91F99283DBCF81113FC08AA5FF
:102A40009BA50097A1F0DC01ED91FC9111970190FD
:102A5000F081E02DC4018A199B099A8789876B85CB
:102A60007C859E01275F3F4FA601CD0109958B858F
:102A70009C85A81AB90A8415950508F0B9CF0FC02E
:102A8000816082834D855E8586019201BF01C3010D
:102A90000E948E12811116C02D853E8511C02D8594
:102AA0003E85311005C00CC0E11008C02D853E8563
:102AB00060EA4F2DC3010E946C1104C08E2D02C02C
:102AC00060E8F7CF61960FB6F894DEBF0FBECDBFBA
:102AD000DF91CF911F910F91FF90EF90DF90CF90FA
:102AE000BF90AF909F908F907F906F905F904F902E
:102AF0003F902F9008958F929F92AF92BF92CF9266
:102B0000EF920F931F931F921F921F930F933F9368
:102B10002F934901A12CB12CCC24C394E12C06E0C5
:102B200020E80E949B140F900F900F900F900F9031
:102B30000F901F910F91EF90CF90BF90AF909F900B
:102B40008F9008958F929F92AF92BF92CF92EF9203
:102B50000F93CF931F921F921F921F921F921F924B
:102B6000812C912CA12CB12CC12CE22E05E020E06F
:102B70000E949B14C82F6CE271E080E090E00E94FC
:102B8000650D0F900F900F900F900F900F908C2F5E
:102B9000CF910F91EF90CF90BF90AF909F908F907B
:102BA00008950F931F93CF93DF938A3F3FEF9307CF
:102BB00011F486ED2DC0DC011696ED91FC9117976E
:102BC000EF2B09F1122F242FEC011A8740E00E940D
:102BD000940F082F8823C9F0682FCE010E94ED0FB3
:102BE000009739F3FC011483202F40E060E0CE0110
:102BF0000E94A215182F882351F0602FCE010E9449
:102C00004D10812F05C087ED03C084ED01C080E029
:102C1000DF91CF911F910F9108952F923F924F9284
:102C20005F926F927F928F929F92AF92BF92CF925C
:102C3000DF92EF92FF920F931F93CF93DF93CDB765
:102C4000DEB766970FB6F894DEBF0FBECDBF1B8A06
:102C500038E03C8B3CE33D8B8A3F3FEF930709F420
:102C600064C0522E342E462E7C01DC011696CD9087
:102C7000DC901797CE01439617969C938E931697E8
:102C80001A962C938E010F5F1F4F22E130E040E037
:102C900060E0C7010E947B15F701D782C6828111CF
:102CA000A6C089849A846B847C84FD81FE8B2E80EF
:102CB000670136E5C30ED11C560110E0D5018D9198
:102CC0009C910097F1F1DC01ED91FC910084F1857C
:102CD000E02D0995811135C0F50180819181DC01DC
:102CE000ED91FC910088F189E02D622D09958823F2
:102CF00041F1F50180819181DC01ED91FC91048429
:102D0000F585E02DA301B4010995811110C0F501ED
:102D100080819181DC01ED91FC910684F785E02DA5
:102D20006E890995811103C00CC086ED60C0052D28
:102D3000232D442D612FC7010E94CF11813D09F041
:102D400056C01F5FB2E0AB0EB11C103109F0B6CF18
:102D500010E0F601808191810097E1F1DC01ED91B5
:102D6000FC910084F185E02D0995811133C0F601B5
:102D700080819181DC01ED91FC910088F189E02D49
:102D8000622D09958823D9F0F60180819181DC01BB
:102D9000ED91FC910484F585E02DA301B401099522
:102DA000811118C0F60180819181DC01ED91FC91C7
:102DB0000684F785E02D6E89099581110BC0052DDC
:102DC000232D442D612FC7010E94CF11982F977F8B
:102DD000913D69F41F5FE2E0CE0ED11C103109F085
:102DE000B8CF252D432D642DC7010E94D1156696BD
:102DF0000FB6F894DEBF0FBECDBFDF91CF911F910C
:102E00000F91FF90EF90DF90CF90BF90AF909F9089
:102E10008F907F906F905F904F903F902F9008958C
:102E20008F929F92AF92BF92CF92EF920F931F9289
:102E30001F921F921F921F921F92812C912CA12CE6
:102E4000B12CC12CE22E09E020E00E949B140F90CF
:102E50000F900F900F900F900F900F91EF90CF90D9
:102E6000BF90AF909F908F9008950F931F93CF9333
:102E7000C82F8B01282F30E084E0359527958A955F
:102E8000E1F780E3820F8A3310F087E3820FB80105
:102E90000E94D30ECF7080E38C0F8A3310F087E34B
:102EA0008C0FB801CF911F910F910C94D30E7F928C
:102EB0008F929F92AF92BF92CF92DF92EF92FF924A
:102EC0000F931F93CF93DF9300D000D0CDB7DEB721
:102ED0006C01762EF42E590148011C821B821A8245
:102EE00019828E010F5F1F4F9E012D5F3F4F0E9481
:102EF000FF10182F8823A9F161E870E08BE792E0BA
:102F00000E94E00E61E870E0812F0E94351761E8B1
:102F100070E088E792E00E94E00E61E870E086E5EC
:102F200092E00E94E00E61E870E0872D0E94351764
:102F300061E870E083E592E00E94E00E61E870E0F5
:102F400083E392E00E94E00E61E870E08F2D0E9422
:102F5000351761E870E080E392E00E94E00E812F77
:102F600009C049815A816B817C8184019501C60128
:102F70000E94B8130F900F900F900F90DF91CF9198
:102F80001F910F91FF90EF90DF90CF90BF90AF9087
:102F90009F908F907F900895AF92BF92CF92DF92D3
:102FA000EF92FF920F931F93CF938C011D990EC048
:102FB00088EC0E94DB1085FF05C0C8010E948C02CE
:102FC00060E201C060E088EC0E94EC108091880112
:102FD000813039F040F0823079F0833039F5C1E04A
:102FE0000CC083E106C080911E04807F8031F1F027
:102FF00081E180931E041AC0C0E080911E04807F8E
:103000008031A9F40E94340DDC01CB0188539F4F1D
:10301000AF4FBF4F80931A0490931B04A0931C04DE
:10302000B0931D0480E280931E0401C0C0E07801CB
:1030300086E5E80EF11C6801A6E7CA0ED11C57010F
:10304000F501819191915F01009739F0DC01ED91DB
:10305000FC910680F781E02D0995AC14BD0481F741
:1030600080911E04803409F43FC050F4803221F175
:103070008033A1F1813109F082C0F60110820AC0CB
:10308000813509F458C0803809F46AC0803509F0E8
:1030900076C039C0D7018D919D917D01009739F09F
:1030A000DC01ED91FC910480F581E02D0995EC1493
:1030B000FD0481F782E161C00E94340D00911A0481
:1030C00010911B0420911C0430911D04DC01CB01E4
:1030D000801B910BA20BB30BB7FD51C061E088EED2
:1030E0000E94EC1080E449C088EE0E94DB1080FD55
:1030F00046C088ED0E94DB10682F686088ED0E9452
:10310000EC1080E53AC088EC0E94DB1086FF37C0E7
:1031100081E580931E040E94340DDC01CB014496AE
:10312000A11DB11D80931A0490931B04A0931C044D
:10313000B0931D0424C00E94340DC0901A04D09096
:103140001B04E0901C04F0901D04DC01CB018C19E1
:103150009D09AE09BF09B7FD12C080E880931E0427
:103160002C2F40E060E0C8010E940D16882321F05A
:10317000823D29F080EA01C080E980931E04CF914E
:103180001F910F91FF90EF90DF90CF90BF90AF9085
:103190000895089580E0089581E00895FC018185F7
:1031A0000895FC0187A108956E3584E0780739F011
:1031B0006D3A9BE1790719F06E32764141F481E076
:1031C000493197E0590729F04139524011F080E028
:1031D00008950895CF93DF93EC011A821B821C821D
:1031E0001D821E828F819885DC01ED91FC91048007
:1031F000F581E02D6985099519861FA280E0DF9190
:10320000CF9108956F927F928F929F92AF92BF92CB
:10321000CF92DF92EF92FF920F931F93CF93DF93A2
:10322000CDB7DEB762970FB6F894DEBF0FBECDBF45
:103230007C01762E642E122FDC0119968C91882346
:1032400041F060E870E08AE194E00E94E00E89EDD0
:103250009DC0F701A780B084D501ED91FC9101904C
:10326000F081E02D60E0C50109956C01009741F403
:1032700060E870E086E094E00E94E00E86ED86C093
:10328000FC01808091808114910441F460E870E039
:1032900085EF93E00E94E00E87ED78C0C7010A96A3
:1032A0009183808314838E010F5F1F4F22E130E0F2
:1032B00040E060E0F701878190850E947B15182F20
:1032C000D6018D929C9281114AC0C984DA848B8484
:1032D0009C84BEE5CB16B4E0DB0651F0EDEACE16D9
:1032E000EBE1DE0629F0FEE2CF16F6E1DF0651F44F
:1032F00089E1881687E0980689F0A1E98A16A2E09C
:103300009A0661F060E870E08BEB93E00E94E00EBB
:10331000B401C6010E94740F11ED26C0D501ED91D4
:10332000FC910280F381E02D262D40E0672DC50140
:103330000995F7018187811108C060E870E084EA8F
:1033400093E00E94E00E84ED21C08885838764E1CC
:1033500070E080E090E00E94650D80EE17C00E9452
:10336000440F1D3009F011EE60E870E08FE793E044
:103370000E94E00E812F0E941F0FD701ED91FC915A
:103380000480F581E02DC7010995812F62960FB663
:10339000F894DEBF0FBECDBFDF91CF911F910F918B
:1033A000FF90EF90DF90CF90BF90AF909F908F9065
:1033B0007F906F900895CF92DF92EF92FF920F93DC
:1033C0001F93CF93DF93EC01022FEF80F884D70196
:1033D000ED91FC910190F081E02D6985C70109957F
:1033E0006C01892B29F460E870E08BE693E048C01B
:1033F0006CE271E080E090E00E94650D298540E07C
:1034000060E08F8198850E94A215182F882331F1E2
:1034100060E870E08FE593E00E94E00E212F30E03D
:1034200084E0359527958A95E1F780E3820F8A330A
:1034300010F087E3820F60E870E00E94D30E912FB6
:103440009F7080E3890F8A3310F087E3890F60E86B
:1034500070E00E94D30EF601148273C0D601149658
:103460001C92D701ED91FC910190F081E02D6985CE
:10347000C7010995009741F460E870E08BE493E0A0
:103480000E94E00E86ED6EC0FC0104837E01FAE02E
:10349000EF0EF11C970141E069858F8198850E94AC
:1034A000BC10182F811148C001E00D8733E027E0E0
:1034B00090E29E8784E08F87088B998B8A8B3B8B69
:1034C0009C8B8D8B3E8B9F8B888F35E0398F9A8FAD
:1034D0008B8F3C8F9D8F8E8F2F8F98A389A32AA3CC
:1034E0009BA38CA3970149E069858F8198850E94F1
:1034F000BC10182F811120C068EC70E080E090E0D3
:103500000E94650D21E04A8569858F8198850E941A
:103510001017182F811113C060E870E086E293E065
:103520000E94E00E0A830FA3CC57DF4F1882198246
:103530001A821B8280E016C00E94130F02C00E94F4
:10354000190F60E870E081E093E00E94E00E812FA7
:103550000E941F0FE881F9810480F581E02DCE01E2
:103560000995812FDF91CF911F910F91FF90EF90DF
:10357000DF90CF9008950F931F93CF93DF93DC01DB
:1035800086E491E011969C938E9318967C936E93AB
:10359000179719961C92199797961C929797FD0169
:1035A00080E090E01286582F811102C028E001C00F
:1035B00020E023878C01000F111F9801280F391F6D
:1035C0002A0F3B1FE9014C854E7F4D7F4C875111DF
:1035D00002C03FE001C031E0E801C80FD91FCA0FA7
:1035E000DB1F330F330F2C852370322B3C87019662
:1035F000339689309105B1F661157105C1F0FB0173
:10360000EA5AFF4F20E030E081919191892B51F4EB
:10361000255D3F4F220F331FFB01E20FF31FB183E4
:10362000A08305C02F5F3F4F2031310569F7DF913F
:10363000CF911F910F91089550E0683051F4FA0135
:103640003A96EE0FFF1FEE0FFF1FE80FF91F818163
:103650000895693051F4FA013A96EE0FFF1FEE0F0C
:10366000FF1FE80FF91F80810895E62FF0E0EE0FAD
:10367000FF1FE55DFB4F25913491FA013A96EE0F5D
:10368000FF1FEE0FFF1FE80FF91FC901A0E0B0E018
:10369000DC01992788274081518162817381482309
:1036A00059236A237B2381E0452B462B472B09F4C2
:1036B00080E0089524E0429FA0011124460F511D8F
:1036C000485D5F4F440F551F840F951FFC0180819B
:1036D000918108950F931F93613039F050F062305B
:1036E00031F06330E1F468E005C064E003C066E0F7
:1036F00001C062E08A01DC0170E0FB01EE0FFF1FF8
:103700006E0F7F1FFD01E60FF71F428519966C9122
:10371000199717968D919C9118970E9481131F916C
:103720000F910895AC0148555F4FFA011082319610
:103730001082319628E02083319620EC208324E00B
:1037400030E00C946A1B742FAC0148555F4FFA01AE
:10375000108231961082319628E020833196262FF0
:103760002064208324E030E0672F0C946A1B6623DA
:1037700041F0653041F0E62FF0E0E15BFB4F6491F2
:103780006C5F0C94A31B0895FC0127A1222391F0E8
:10379000AC0148555F4F28E0FA0120833196108232
:1037A00031962FE02083319620EC208324E030E016
:1037B0000C946A1B0895FC0127A1222381F0AC011F
:1037C00048555F4FFA01108231961082319610826F
:1037D000319620E4208324E030E00C946A1B0895A5
:1037E000362F622FFC01E855FF4F1082DC01A755F0
:1037F000BF4F21E02C9311962FE02C93119620ECD3
:103800002C9311961C9211963C9311964C9327E0A1
:1038100030E0AF010C946A1BDC01462F9596ED91C8
:10382000FC919697309709F00994662331F0613046
:1038300031F0623031F064E005C061E003C062E065
:1038400001C063E0CD010C94B71B4F925F926F9261
:103850007F928F929F92BF92CF92DF92EF92FF92D0
:103860000F931F93CF93DF93FC01DC01A857BF4F49
:1038700009F42FC18C918F0107571F4F883009F031
:1038800064C0D8018C917F01E60EF11CE7019B8199
:10389000891709F45AC0C62F6F01F701838360E8C6
:1038A00070E085EF92E00E94E00E60E870E08C2FFF
:1038B0000E94FE0ED70113968C91882389F1F8019E
:1038C0008081803839F0803C41F0803449F406ED45
:1038D00012E008C004EE12E005C00DEB12E002C0D9
:1038E00000E010E060E870E081EB92E00E94E00E02
:1038F00060E870E0C8010E94E00E6C2FC601DF9105
:10390000CF911F910F91FF90EF90DF90CF90BF90DC
:103910009F908F907F906F905F904F900C940C1CB5
:1039200060E870E080EA92E0DF91CF911F910F9103
:10393000FF90EF90DF90CF90BF909F908F907F90FF
:103940006F905F904F900C94E00ED8018C91811194
:103950001DC0DF01A557BF4F8C91837109F4B9C019
:10396000EF01C457DF4F8881823208F4B2C070E0A3
:10397000685C7F4F660F771FE60FF71F8D919C9154
:1039800098278927982791838083A3C0813009F0E5
:10399000A0C0262F30E0DF01A20FB31F13968C9139
:1039A0001397811104C080E813968C931397EF014D
:1039B000C257DF4F688179818A819B810E94DC2513
:1039C000AB01BC01E901CC0FDD1FCC0FDD1F4E01A7
:1039D0008E0E9F1EE40148A759A76AA77BA7C901BD
:1039E0000A9603E0880F991F0A95E1F78E0F9F1F33
:1039F0008F010E561F4FE80108811981EC011983D0
:103A00000883C901C3E0880F991FCA95E1F78E0F9B
:103A10009F1F8C010E5A1F4F7F01D4E9ED0EF11C40
:103A2000E701E880F980E801F982E8820E5F1F4F24
:103A30007F01D6E9ED0EF11CE701E880F980E8018D
:103A4000F982E8828A5A9F4F8F0108561F4FE8017A
:103A500008811981EC0119830883E401C8ACD9AC51
:103A6000EAACFBAC4C155D056E057F0591F1BB24FE
:103A7000B394CD0188589F4FEC01B8822C5D3F4F25
:103A8000220F331FE20FF31F970186010095109557
:103A9000209530952901662477248B01222733272E
:103AA0000421152111830083C11006C0442321F095
:103AB000FD01E058FF4FB082D11006C0552321F020
:103AC000A458BF4F81E08C93F40140AF51AF62AF77
:103AD00073AFDF91CF911F910F91FF90EF90DF9027
:103AE000CF90BF909F908F907F906F905F904F90FE
:103AF00008958F929F92AF92BF92CF92DF92EF92F2
:103B0000FF920F931F93CF93DF9300D0CDB7DEB713
:103B1000FC0127A12223C9F16C01F12C21E090E2E4
:103B2000A92EB12C4F01F8E88F0E911CBA82A98200
:103B300030E0F901EE0FFF1F2E0F3F1FF601E20FDD
:103B4000F31FE12C84019E012F5F3F4F4285F60158
:103B50006185878190850E94571789819A81892B79
:103B600021F06F2DC6010E94251CF394F4E0FF168E
:103B700061F081E0F81629F0E2E0FE1621F027E07E
:103B8000D5CF23E0D3CF25E0D1CF80E00F900F90A9
:103B9000DF91CF911F910F91FF90EF90DF90CF9029
:103BA000BF90AF909F908F9008956F927F928F9269
:103BB0009F92AF92BF92CF92DF92EF92FF920F93BC
:103BC0001F93CF93DF9300D01F92CDB7DEB77C0158
:103BD000ADB6BEB68091E80083FF0CC1F7018081CD
:103BE00090E02091290430912A042817390709F020
:103BF00001C180912604833009F4A0C030F48130E3
:103C000071F0823009F4D9C0F5C08A3009F4BCC023
:103C10008B3009F4A4C0893009F0ECC050C0809109
:103C20002504813A09F0E6C08DB69EB61A82198243
:103C300080912704109128048B83F7018085482FF9
:103C400050E08DB79EB7841B950B0FB6F8949EBFBE
:103C50000FBE8DBFEDB7FEB731966F0160E070E02B
:103C6000CF010E94F9254FEF410F8E010F5F1F4FCB
:103C70009601BE016D5F7F4FC7010E941B25F701B2
:103C800086819781009729F0408550E0B6010E9417
:103C9000F0251092E9008091E800877F8093E8008A
:103CA0008B8181118093F10069817A81C6010E9424
:103CB00030208091E8008B778093E80039C08091B4
:103CC0002504813209F096C08DB69EB600912B0472
:103CD00010912C0470902704609028048DB79EB733
:103CE000801B910B0FB6F8949EBF0FBE8DBFEDB732
:103CF000FEB731966F018091E800877F8093E800DE
:103D0000B801CF010E948E208091E8008E778093C9
:103D1000E80021E0711001C020E030E0021B130B2D
:103D20002C0D3D1D4FEF460D672DC7010E946925E3
:103D30000FB6F8949EBE0FBE8DBE5CC08091250468
:103D4000813A09F057C08091E800877F8093E800AE
:103D50008091E80080FFFCCFF701818542C080910F
:103D60002504813209F046C08091E800877F809366
:103D7000E8000E94A2219091270481E0911101C0E6
:103D800080E0F701818736C080912504813291F56A
:103D90008091E800877F8093E8000E94A2218091B3
:103DA000270490912804882736E0969587953A95C0
:103DB000E1F7F701958784871DC080912504813A3A
:103DC000C9F48091E800877F8093E8008091E80043
:103DD00080FFFCCFF701848595859695879596950C
:103DE00087958093F1008091E8008E778093E800BA
:103DF0000E94A2210FB6F894BEBE0FBEADBE0F90BA
:103E00000F900F90DF91CF911F910F91FF90EF9046
:103E1000DF90CF90BF90AF909F908F907F906F90EA
:103E20000895FC01399627E0DF011D922A95E9F7F4
:103E300021E0FC01218728E833E13587248723E04E
:103E4000248361E001960C9464215F926F927F92CB
:103E50008F929F92AF92BF92CF92DF92EF92FF929A
:103E60000F931F93CF93DF9300D01F92CDB7DEB790
:103E70007C01ADB6BEB680912404843009F08BC0BD
:103E80008091E4009091E500F701228533852817A1
:103E9000390709F480C081818F708093E900809197
:103EA000E80085FF78C08DB69EB6408550E08DB79E
:103EB0009EB7841B950B0FB6F8949EBF0FBE8DBFA7
:103EC000EDB7FEB731966F011B821A82198260E04E
:103ED00070E0CF010E94F9258E010F5F1F4F960100
:103EE00040E0BE016D5F7F4FC7010E941B25582E29
:103EF000F70184859585892B29F011E086859785C2
:103F0000892B09F010E0F701668077806114710455
:103F100091F049815A81B301C6010E94E32501E075
:103F2000892B09F400E0F701408550E0B601C30198
:103F30000E94F02501C000E089819A81892BF9F067
:103F4000511004C0011102C010FF19C0F70184858F
:103F500095859787868781818F708093E9008B8113
:103F600081118093F10069817A8140E050E0C601BF
:103F70000E94E31F8091E8008E778093E800809193
:103F8000E4009091E500F701938782870FB6F894DB
:103F90009EBE0FBE8DBE0FB6F894BEBE0FBEADBEA8
:103FA0000F900F900F90DF91CF911F910F91FF9085
:103FB000EF90DF90CF90BF90AF909F908F907F90C9
:103FC0006F905F900895CF92DF92EF92FF920F93E0
:103FD0001F93CF93DF93EC018B017A010E94C121E3
:103FE000811135C0E114F10439F0F701808191812C
:103FF000081B190BC80FD91FC12CD12C0115110595
:1040000029F18091E80085FD18C08091E8008E7745
:104010008093E8000E948324E114F10449F0F70141
:1040200080819181C80ED91ED182C08285E00FC0E7
:104030000E94C121882311F30AC089918093F10065
:1040400001501109FFEFCF1ADF0AD8CF80E0DF91CE
:10405000CF911F910F91FF90EF90DF90CF90089537
:1040600020912B0430912C042617370748F0611556
:10407000710539F42091E8002E772093E80001C003
:10408000B901FC0120E06115710579F180912404EA
:104090008823F1F18530F1F18091E80083FD3CC087
:1040A0008091E80082FD2EC08091E80080FFEBCF78
:1040B0002091F3008091F20090E0922B6115710540
:1040C00051F08032910538F421912093F100615034
:1040D00071090196F3CF21E0809709F020E08091EB
:1040E000E8008E778093E800CECF2111CFCF0AC0B1
:1040F00080912404882361F0853061F08091E8008C
:1041000083FD0AC08091E80082FFF2CF80E008952D
:1041100082E0089583E0089581E0089561157105B6
:1041200029F42091E8002B772093E800FC01611529
:10413000710541F180912404882361F1853061F19A
:104140008091E80083FD24C08091E80082FFEFCFDA
:104150002091F3008091F20090E0922B892B31F0B6
:104160008091F10081936150710991F78091E8008D
:104170008B778093E800DBCF80912404882351F073
:10418000853051F08091E80080FFF6CF80E00895FF
:1041900081E0089582E0089583E0089520912B0442
:1041A00030912C042617370748F06115710539F452
:1041B0002091E8002E772093E80001C0B901FC01AE
:1041C00020E06115710591F180912404882309F4A0
:1041D00040C0853009F43FC08091E80083FD3DC0B8
:1041E0008091E80082FD2FC08091E80080FFE9CF38
:1041F0002091F3008091F20090E0922B61157105FF
:1042000059F08032910540F424912093F1003196C9
:10421000615071090196F2CF21E0809709F020E00A
:104220008091E8008E778093E800CBCF2111CCCF2E
:104230000AC080912404882361F0853061F0809168
:10424000E80083FD0AC08091E80082FFF2CF80E0A1
:10425000089582E0089583E0089581E00895982FFD
:10426000973068F59093E900981739F07091EC0059
:104270002091ED005091F00003C0242F762F50E0E4
:1042800021FD02C09F5FECCF3091EB003E7F309369
:10429000EB003091ED003D7F3093ED003091EB006D
:1042A00031603093EB007093EC002093ED0050935D
:1042B000F0002091EE0027FDE5CF80E008958F709B
:1042C0008093E90081E008950F931F93CF93DF93CC
:1042D000062FEC0110E0101779F16881611103C01D
:1042E0001F5F2596F8CF2C81A981BA819B81862FEB
:1042F0008F70873010F080E020C0223010F442E050
:1043000001C046E0E8E0F0E020E0EA17FB0720F417
:104310002F5FEE0FFF1FF9CF2295207F422B50E435
:10432000959F90011124661F6627661F622B0E94CD
:104330002F218111D5CFDFCF81E0DF91CF911F9168
:104340000F9108958091250487FF11C08091E800A6
:1043500082FD05C0809124048111F8CF11C08091A5
:10436000E8008B770BC080912404882349F080916A
:10437000E80080FFF8CF8091E8008E778093E80016
:1043800008952091E4003091E50095E64091EC001D
:10439000842F817040FF23C08091E80080FD1DC004
:1043A00080912404882399F0853099F08091EB0066
:1043B00085FD11C04091E4005091E50024173507B8
:1043C00029F3915011F09A01E1CF84E0089582E041
:1043D000089583E0089581E0089580E00895409174
:1043E000E80042FFDDCF08950F931F93CF93DF9333
:1043F0000E9448220E945022C8EDD0E088818F7729
:10440000888388818068888388818F7D888319BCB0
:10441000109224041092200410922204109221047D
:1044200000EE10E0F80180818B7F808388818160BD
:10443000888342E260E080E00E942F21E1EEF0E01C
:1044400080818E7F8083E2EEF0E0808181608083D6
:10445000808188608083F80180818E7F808388815D
:1044600080618883DF91CF911F910F910895E8EDCE
:10447000F0E080818F7E8083E7EDF0E080818160D5
:10448000808384E082BF81E0809323040C94F42134
:10449000E8EDF0E080818E7F80831092E200089545
:1044A0001092DA001092E10008951F920F920FB659
:1044B0000F9211242F933F934F935F936F937F93AA
:1044C0008F939F93AF93BF93EF93FF938091E100FE
:1044D00082FF0BC08091E20082FF07C08091E10063
:1044E0008B7F8093E1000E940F258091DA0080FF8E
:1044F0001FC08091D80080FF1BC08091DA008E7FA2
:104500008093DA008091D90080FF0DC080E189BDE1
:1045100082E189BD09B400FEFDCF81E080932404CF
:104520000E94B72405C019BC109224040E94B8242C
:104530008091E10080FF19C08091E20080FF15C0EA
:104540008091E2008E7F8093E2008091E2008061A2
:104550008093E2008091D80080628093D80019BCDB
:1045600085E0809324040E9482248091E10084FFEE
:1045700030C08091E20084FF2CC080E189BD82E1DF
:1045800089BD09B400FEFDCF8091D8008F7D809356
:10459000D8008091E1008F7E8093E1008091E2005D
:1045A0008F7E8093E2008091E20081608093E20040
:1045B00080912004882311F084E007C08091E300FB
:1045C00087FD02C081E001C083E0809324040E9443
:1045D00082248091E10083FF24C08091E20083FF68
:1045E00020C08091E100877F8093E10082E080938A
:1045F0002404109220048091E1008E7F8093E100DA
:104600008091E2008E7F8093E2008091E2008061E1
:104610008093E20042E260E080E00E942F210E944D
:104620008224FF91EF91BF91AF919F918F917F91E4
:104630006F915F914F913F912F910F900FBE0F900F
:104640001F9018951F93CF93DF93CDB7DEB7AA972E
:104650000FB6F894DEBF0FBECDBFE5E2F4E0809167
:10466000F100819324E0ED32F207C9F70E94CA24D9
:104670008091E80083FF2EC180912504909126044B
:10468000492F50E04A30510508F024C1FA01EB5996
:10469000FF4F0C94D625803821F0823809F01AC1DA
:1046A00008C08091210490912204992389F08260AE
:1046B0000FC0809129048F70873008F00BC1809360
:1046C000E9008091EB0085FB882780F91092E900D2
:1046D0009091E800977F9093E8008093F10010920A
:1046E000F100D1C0282F2D7F09F0F4C0882319F0E4
:1046F000823061F0EFC080912704813009F0EAC078
:10470000933009F080E0809322042EC0809127042A
:1047100081112AC0809129048F702FEF280F263035
:1047200008F0D8C08093E9002091EB0020FF1CC066
:10473000933021F48091EB00806214C09091EB00E3
:1047400090619093EB0021E030E0A90102C0440F9A
:10475000551F8A95E2F74093EA001092EA00809193
:10476000EB0088608093EB001092E9008091E800F4
:10477000877F8093E8000E94A221ACC08111AAC06B
:10478000109127041F778091E3008078812B80931C
:10479000E3008091E800877F8093E8000E94A221D7
:1047A0008091E80080FFFCCF8091E30080688093D7
:1047B000E300111102C082E001C083E08093240471
:1047C00089C08058823008F085C08091270490917C
:1047D00028048C3D53E0950779F583E08A838AE2CB
:1047E00089834FB7F894DE01139620E03EE051E252
:1047F000E32FF0E050935700E49120FF03C0E295CF
:10480000EF703F5FEF708E2F90E0EA3010F0C796A8
:1048100001C0C0968D939D932F5F243149F74FBF00
:104820008091E800877F8093E8006AE270E0CE0123
:1048300001960E94302016C06091290470912A04CC
:10484000AE014F5F5F4F0E948925BC01892B09F49F
:1048500041C09091E800977F9093E80089819A8108
:104860000E94CE208091E8008B778093E80032C0D0
:10487000803881F58091E800877F8093E8008091FF
:1048800020048093F1008091E8008E7772CF81112F
:1048900021C0809127049091280499270297D4F48D
:1048A0008091E800877F8093E800809127048093BF
:1048B00020040E94A22180912004811106C08091D1
:1048C000E30087FD02C081E001C084E080932404FE
:1048D0000E94BE248091E80083FF0AC08091E80016
:1048E000877F8093E8008091EB0080628093EB00EB
:1048F000AA960FB6F894DEBF0FBECDBFDF91CF9161
:104900001F9108950895CF93809124048823A1F0E6
:10491000C091E900CF709091EC00892F817090FDDB
:1049200080E8C82B1092E9008091E80083FD0E9486
:104930002223CF70C093E900CF91089584B7877F79
:1049400084BF0FB6F894A895809160008861809329
:104950006000109260000FBE90E080E80FB6F894FF
:1049600080936100909361000FBE0C9437220895EC
:1049700010921F0461E081E10C947B0E84E091E0D1
:104980000E94111FE2EEF0E090819460908380938A
:104990001F04089580912504813CE9F58091260447
:1049A000863089F4809127049091280481159244DF
:1049B00091F58091E800877F8093E80060E170E0E6
:1049C00084E791E020C0813031F5809127049091F7
:1049D0002804811521E0920751F48091E800877F37
:1049E0008093E80064E170E080E691E00CC08115FE
:1049F000924089F48091E800877F8093E80066E028
:104A000070E08AE591E00E9430208091E8008B7789
:104A10008093E800089584E091E00C94D51D809186
:104A2000120190911301009729F0019790931301BF
:104A30008093120108950F931F93F901108284E16E
:104A40008183ADE2B4E012968C9112978283138237
:104A500014968C911497848315968C911597858361
:104A600016968C911697868317968C911797878345
:104A700018968C911897808719968C911997818731
:104A80001A968C911A9782871B968C911B97838715
:104A90001C968D919C911D97958784871E968D916C
:104AA0009C911F979787868750968D919C915197DF
:104AB000918B808B52968D919C915397938B828B87
:104AC00084E190E0F8019183808380E01F910F9151
:104AD00008950F931F930630110551F4F901838156
:104AE0008093410485818093420481E08093430454
:104AF000809141048F3F19F48EEF8093410480919F
:104B000042048F3F19F48EEF809342041F910F915E
:104B10000895CF93DF931F92CDB7DEB7292F30E0F2
:104B20002230310559F02330310569F0213031054B
:104B300081F482E190E025E734E00FC080E290E06C
:104B400025E534E00AC080E090E09E012F5F3F4FF2
:104B500004C080E090E020E030E0FA01318320835F
:104B60000F90DF91CF910895A1E21A2EAA1BBB1BD3
:104B7000FD010DC0AA1FBB1FEE1FFF1FA217B30729
:104B8000E407F50720F0A21BB30BE40BF50B661F3F
:104B9000771F881F991F1A9469F760957095809503
:104BA00090959B01AC01BD01CF010895EE0FFF1F51
:104BB0000590F491E02D09946927962769277827B5
:104BC000872778270895FB01DC0104C08D910190AF
:104BD000801921F441505040C8F7881B990B089563
:104BE000FB01DC0102C001900D9241505040D8F70A
:104BF0000895DC0101C06D9341505040E0F70895E5
:044C0000F894FFCF56
:104C0400F0F08000008114000001B90414000000D9
:104C140000000000000000007C06D3074C06C30619
:104C24001E0638062A0600000000090CDC0B4A07A1
:104C3400380CB10BB90BCD0B00000000ED0F940F35
:104C44004D1000000000DB190219EA18791DCE1876
:104C5400C918D418CA18CC18D1180006FFFFFFFFD2
:104C64000014FF00FFFFFFFFFFFFFFFFFFFFFFFF39
:104C7400FFFFFFFF1042000101021406FFFFFFFFC8
:044C8400FFFFFFFF30
:00000001FF
