:100000000C94DA000C9402010C9402010C9402018D
:100010000C9402010C9402010C9402010C94020154
:100020000C9402010C9402010C94750C0C940201C6
:100030000C9402010C9402010C9402010C94020134
:100040000C9402010C9402010C9402010C94020124
:100050000C9402010C9402010C9402010C94790698
:100060000C9402010C94AA020C94DC020C94020180
:100070000C9402010C9402010C9402010C940201F4
:100080000C9402010C9402010C9402010C940201E4
:100090000C9444040C9402010C9402010C9402018F
:1000A0000C9402010C9402010C9402013C073F07DE
:1000B0002E073207380760076007600743074707C6
:1000C0004B075107550760075B076B0D920D8A0EB2
:1000D000920D8A0EDE0D010E8A0E580E670E0D0A65
:1000E00054686973206973206120736C61766520A0
:1000F000646576696365000000000200090F000076
:10010000030401000C0000000000000000000000DB
:100110000000000000000408020110408040102090
:1001200040804080080204018040201002011080BD
:1001300010204040200404040404030405020202C9
:100140000204030202020206060606060604040270
:1001500002020404000000002300260029002C00F5
:100160002F0000000000250028002B002E00310089
:1001700000000000240027002A002D0030000902A2
:10018000200001010080FA0904000002584200002A
:100190000705810320000407050203200004120163
:1001A0001001000000205E0489022101000000010E
:1001B0000203750611241FBECFEFDAE0DEBFCDBF0C
:1001C00011E0A0E0B1E0EAE8F0E202C005900D9293
:1001D000A236B107D9F723E0A2E6B1E001C01D9233
:1001E000A438B207E1F710E0CAEDD0E004C02197CF
:1001F000FE010E940A10C83DD107C9F70E941B01E9
:100200000C9443100C9400000E94A30E8091950161
:10021000811110C08091E4009091E50020910E01C1
:1002200030910F01821B930B049720F084E091E042
:100230000C94450908950E94CE0661E089E00E9471
:10024000610761E081E10E94610762E083E10E9451
:10025000610762E084E10E94610760E089E00E943A
:100260009D0761E081E10E949D070E94BE0E789487
:1002700083E10E94CC07EC0184E10E94CC07CC0F03
:10028000DD1F8C2B8093F2018CE5E6E9F1E0DF01C4
:100290001D928A95E9F780E290E00E942D108B3A3A
:1002A00009F56091F20182E093E00E94540640E873
:1002B0005AE166E070E082E093E00E9467066CE934
:1002C00071E082E093E00E9470066CEA71E082E0E7
:1002D00093E00E946B066EED70E083EF91E00E9468
:1002E00059031CC06BEA80E290E00E94351000E0E8
:1002F00011E0C0E0D0E0F801F1908F01CE010E9442
:100300002D10F81621F06F2DCE010E943510219688
:10031000C430D10581F7C5CF0E94040180916201EC
:10032000803FD1F384E1E2E6F1E0A6E9B1E001909B
:100330000D928A95E1F7F0CF41E050E06AEA71E072
:1003400082E093E00E94D20541E050E06BEA71E068
:1003500082E093E00C94D2050F931F93CF93DF9329
:100360008C01C2E6D1E0CE01825691408017910700
:1003700034F482E093E00E9479058993F4CF809170
:100380006201803F39F48091E00081608093E00059
:1003900061E00AC08091E0008E7F8093E000809150
:1003A0009401882341F060E081E1DF91CF911F91BA
:1003B0000F910C949D07DF91CF911F910F9108959C
:1003C000FC01918D228D892F90E0805C9F4F821BD4
:1003D00091098F7399270895FC01918D828D98174B
:1003E00031F0828DE80FF11D858D90E008958FEF3B
:1003F0009FEF0895FC01918D828D981761F0828D99
:10040000DF01A80FB11D5D968C91928D9F5F9F7348
:10041000928F90E008958FEF9FEF0895FC01538D28
:10042000448D252F30E0842F90E0821B930B5417CE
:1004300010F0CF96089501970895FC01848DDF0197
:10044000A80FB11DA35ABF4F2C91848D90E0019647
:100450008F739927848FA689B7892C93A089B18936
:100460008C9180648C93938D848D981306C0028840
:10047000F389E02D80818F7D80830895EF92FF9234
:100480000F931F93CF93DF93EC0181E0888F9B8DB7
:100490008C8D981305C0E889F989808185FD24C079
:1004A000F62E0B8D10E00F5F1F4F0F731127E02EFC
:1004B0008C8DE8120CC00FB607FCFACFE889F989D9
:1004C000808185FFF5CFCE010E941D02F1CF8B8D7B
:1004D000FE01E80FF11DE35AFF4FF0820B8FEA890E
:1004E000FB898081806207C0EE89FF896083E8898B
:1004F000F98980818064808381E090E0DF91CF91F1
:100500001F910F91FF90EF900895CF93DF93EC012F
:10051000888D8823C9F0EA89FB89808185FD05C023
:10052000A889B9898C9186FD0FC00FB607FCF5CF5D
:10053000808185FFF2CFA889B9898C9185FFEDCFA5
:10054000CE010E941D02E7CFDF91CF91089580E098
:1005500090E008951F920F920FB60F9211242F93DF
:100560008F939F93EF93FF93E0910302F091040226
:100570008081E0910902F0910A0282FD12C090810F
:1005800080910C028F5F8F7320910D02821751F0C2
:10059000E0910C02F0E0ED50FE4F958F80930C023D
:1005A00001C08081FF91EF919F918F912F910F90CA
:1005B0000FBE0F901F9018951F920F920FB60F92BB
:1005C00011242F933F934F935F936F937F938F9358
:1005D0009F93AF93BF93EF93FF9383EF91E00E94BC
:1005E0001D02FF91EF91BF91AF919F918F917F91EC
:1005F0006F915F914F913F912F910F900FBE0F9090
:100600001F901895E3EFF1E01382128288EE93E0D9
:10061000A0E0B0E084839583A683B78388E191E06E
:10062000918380838DEC90E0958784878CEC90E0BB
:100630009787868788EC90E0918B808B89EC90E09F
:10064000938B828B8AEC90E0958B848B8EEC90E080
:10065000978B868B118E128E138E148E0895CF92E7
:10066000DF92EF92FF920F931F93CF93DF936C0172
:100670007A018B01C0E0D0E0CE15DF0581F0D80112
:100680006D918D01D601ED91FC910190F081E02DED
:10069000C6010995892B11F02196EECF7E01C70185
:1006A000DF91CF911F910F91FF90EF90DF90CF904E
:1006B0000895EF92FF920F931F93CF93DF938C01D6
:1006C0007B01C0E0D0E0F701EC0FFD1F64916623D1
:1006D00061F0D801ED91FC910190F081E02DC8010D
:1006E0000995892B11F02196EECFCE01DF91CF91A4
:1006F0001F910F91FF90EF900895CF93DF93CCEB74
:10070000D0E018821092010381E08093FF021092E2
:10071000FE0261E082E00E949D0761E083E00E94AA
:100720009D07E9EBF0E080818E7F808380818D7F63
:10073000808388E48093B80085E48883DF91CF913B
:100740000895813049F41092900210929102109213
:1007500092021092930217C08091900290919102A0
:10076000A0919202B09193020196A11DB11D8093B8
:10077000900290939102A0939202B093930284E628
:1007800090E00E94C3068091900290919102A09106
:100790009202B091930280359105A105B10580F0D8
:1007A0001092900210929102109292021092930273
:1007B0000E947D0361E081E10E949D0781E0089530
:1007C00080E00895880F8093BA0008959B01AC01E2
:1007D00060E074E284EF90E00E94E80FDA01C90162
:1007E0004097A109B109B695A795979587958093EC
:1007F000B80008954091B602262F30E0240F311D35
:1008000021323105DCF4209101032430C9F4FC01CC
:1008100080E090E0861758F43091B6022191DC0117
:10082000A854BD4FA30FB11D2C930196F3CF809117
:10083000B602680F6093B60280E0089581E00895E3
:1008400082E008959093FB028093FA0208959093BA
:10085000FD028093FC02089585ED8093BC0081E049
:100860000E94A1038091BC0084FF05C080E00E942B
:10087000A1038823B9F310920103089585EC8093B6
:10088000BC001092010308951F920F920FB60F92B1
:1008900011242F933F934F935F936F937F938F9385
:1008A0009F93AF93BF93EF93FF938091B900887F9D
:1008B000803609F49EC078F5883209F45DC090F462
:1008C000803109F456C038F4882309F4F5C0883023
:1008D00009F44FC0F5C0883109F44EC0803209F4E4
:1008E0005FC0EEC0803409F46AC058F4803309F464
:1008F00057C0883309F0E4C0809394020E943E04FC
:10090000DFC0803509F44FC0883509F45DC08834F4
:1009100009F0D6C0D3C0883909F4C4C0A8F4883718
:1009200009F467C038F4883609F463C0803709F4E5
:1009300060C0C6C0883809F4B5C0803909F45FC00A
:10094000803809F0BDC05BC0803B09F483C038F437
:10095000803A09F466C0883A09F47CC0B1C0803C92
:1009600009F4A4C0883C09F4A1C0883B09F487C0FD
:10097000A7C08091000310C09091D9028091D80245
:10098000981770F5E091D90281E08E0F8093D9021B
:10099000F0E0E652FD4F80818093BB0085EC83C080
:1009A000809394028BC0E091D90281E08E0F8093F6
:1009B000D9028091BB00F0E0E652FD4F8083909118
:1009C000D9028091D8026BC0E091D90281E08E0FEC
:1009D0008093D9028091BB00F0E0E652FD4F808306
:1009E0008091FF0281116AC081E08093FE0284EA57
:1009F0005EC083E08093010310929502CFCF809177
:100A00009502803208F04EC0E091950281E08E0F91
:100A1000809395028091BB00F0E0EA56FD4F808301
:100A2000BDCF0E943E0480919502803230F4E09167
:100A30009502F0E0EA56FD4F10826091950270E059
:100A4000E091FA02F091FB0286E992E0099510929A
:100A5000950236C084E0809301031092B702109291
:100A6000B602E091FC02F091FD0209958091B60278
:100A7000811105C081E08093B6021092B802E09126
:100A8000B70281E08E0F8093B702F0E0E854FD4F8B
:100A900080818093BB009091B7028091B602981735
:100AA00008F47CCF85E88093BC000AC085EC809375
:100AB000BC001092010304C0109294020E942C0406
:100AC000FF91EF91BF91AF919F918F917F916F9126
:100AD0005F914F913F912F910F900FBE0F901F90FC
:100AE00018958091350390E020913603821B91097F
:100AF00008959091360380913503981750F4E92FAB
:100B0000F0E0E95CFC4F208130E09F5F909336037A
:100B100002C02FEF3FEFC9010895E09136038091A5
:100B20003503E81730F4F0E0E95CFC4F808190E099
:100B300008958FEF9FEF0895CF93DF93EC01E0913D
:100B40000E03F0910F033097F1F0909136038091EE
:100B500035039817C0F090E0292F30E026173707AB
:100B600054F4DE01A20FB31F4C91D901A95CBC4F14
:100B70004C939F5FF1CF1092360360933503CB0106
:100B8000DF91CF910994DF91CF910895E091100307
:100B9000F0911103309729F010921403109213036F
:100BA00009940895CF92DF92EF92FF920F931F93D3
:100BB000CF93DF937C01CB018A0120911203222382
:100BC00089F0EB016B01C40ED51ECC15DD0569F073
:100BD0006991D701ED91FC910190F081E02DC70161
:100BE0000995F3CF642F0E94FA03C801DF91CF91DA
:100BF0001F910F91FF90EF90DF90CF900895CF93CA
:100C0000DF931F92CDB7DEB76983209112032223B1
:100C1000D1F020911303203240F021E030E0FC01BC
:100C20003383228380E090E015C080911403E82F85
:100C3000F0E0EB5EFC4F998190838F5F809314030B
:100C40008093130305C061E0CE0101960E94FA0370
:100C500081E090E00F90DF91CF91089510923603DC
:100C60001092350380E2E7E3F3E0DF011D928A95FD
:100C7000E9F70895FC011382128288EE93E0A0E068
:100C8000B0E084839583A683B7838AE291E0918361
:100C90008083089510923603109235031092140346
:100CA000109213030C947D03CF93DF93EC01862FF6
:100CB0000E94E20386EC95E00E9427048CE995E00F
:100CC0000E942204CE01DF91CF910C944A06CB0101
:100CD000BA010C94E60370930F0360930E0308951A
:100CE0007093110360931003089582E093E00C94D5
:100CF0003A061F920F920FB60F9211242F933F9333
:100D00008F939F93AF93BF93809158039091590312
:100D1000A0915A03B0915B033091570323E0230F56
:100D20002D3720F40196A11DB11D05C026E8230F23
:100D30000296A11DB11D20935703809358039093F1
:100D40005903A0935A03B0935B0380915C03909185
:100D50005D03A0915E03B0915F030196A11DB11DDB
:100D600080935C0390935D03A0935E03B0935F0355
:100D7000BF91AF919F918F913F912F910F900FBE97
:100D80000F901F9018958230910538F0880F991FA9
:100D9000880F991F05970197F1F70895789484B506
:100DA000826084BD84B5816084BD85B5826085BD67
:100DB00085B5816085BDEEE6F0E08081816080834D
:100DC000E1E8F0E010828081826080838081816030
:100DD0008083E0E8F0E0808181608083E1E9F0E0F9
:100DE000808182608083808181608083E0E9F0E09F
:100DF000808181608083E1ECF0E080818460808389
:100E0000808182608083808181608083E3ECF0E078
:100E1000808181608083E0ECF0E08081826080836B
:100E2000E2ECF0E0808181608083EAE7F0E080819D
:100E30008460808380818260808380818160808300
:100E4000808180688083089590E0FC013197EF30C5
:100E5000F105B0F5EA5AFF4F0C940A10809180001A
:100E60008F7703C0809180008F7D809380000895EC
:100E700080918000877FF9CF84B58F7702C084B5D9
:100E80008F7D84BD0895809190008F7707C08091F9
:100E900090008F7D03C080919000877F80939000A9
:100EA00008958091C0008F7703C08091C0008F7D2E
:100EB0008093C00008958091C200877F8093C20014
:100EC0000895CF93DF9390E0FC01EA5EFE4F2491FA
:100ED000FC01EB5CFE4F8491882361F190E0880F68
:100EE000991FFC01E059FE4FC591D491FC01EE59C8
:100EF000FE4FA591B491611109C09FB7F894888104
:100F0000209582238883EC912E230BC0623061F4FC
:100F10009FB7F8948881322F309583238883EC9192
:100F20002E2B2C939FBF06C08FB7F894E8812E2BF1
:100F300028838FBFDF91CF9108951F93CF93DF93C5
:100F4000282F30E0F901E950FF4F8491F901EA5E62
:100F5000FE4FD491F901EB5CFE4FC491CC23C1F05C
:100F6000162F81110E942407EC2FF0E0EE0FFF1FD7
:100F7000EE59FE4FA591B4919FB7F894111104C09A
:100F80008C91D095D82302C0EC91DE2BDC939FBFCF
:100F9000DF91CF911F910895CF93DF93282F30E0F9
:100FA000F901E950FF4F8491F901EA5EFE4FD491B7
:100FB000F901EB5CFE4FC491CC2391F081110E94AA
:100FC0002407EC2FF0E0EE0FFF1FEC5AFE4FA59127
:100FD000B491EC91ED2381E090E021F480E002C037
:100FE00080E090E0DF91CF9108956F927F928F9291
:100FF0009F92AF92BF92CF92DF92EF92FF920F93A8
:101000001F93CF93DF9300D01F92CDB7DEB77C0143
:10101000ADB6BEB68091E80083FF0CC1F7018081B8
:1010200090E02091690330916A032817390709F08D
:1010300001C180916603833009F4A0C030F481308F
:1010400071F0823009F4D9C0F5C08A3009F4BCC00F
:101050008B3009F4A4C0893009F0ECC050C08091F5
:101060006503813A09F0E6C08DB69EB61A821982F0
:1010700080916703109168038B83F7018085482F67
:1010800050E08DB79EB7841B950B0FB6F8949EBFAA
:101090000FBE8DBFEDB7FEB731966F0160E070E017
:1010A000CF010E9426104FEF410F8E010F5F1F4F9F
:1010B0009601BE016D5F7F4FC7010E94570FF70178
:1010C00086819781009729F0408550E0B6010E9403
:1010D0001D101092E9008091E800877F8093E8005E
:1010E0008B8181118093F10069817A81C6010E9410
:1010F000500A8091E8008B778093E80039C0809196
:101100006503813209F096C08DB69EB600916B03DF
:1011100010916C0370906703609068038DB79EB761
:10112000801B910B0FB6F8949EBF0FBE8DBFEDB71D
:10113000FEB731966F018091E800877F8093E800C9
:10114000B801CF010E94AE0A8091E8008E778093AB
:10115000E80021E0711001C020E030E0021B130B19
:101160002C0D3D1D4FEF460D672DC7010E949E0FB0
:101170000FB6F8949EBE0FBE8DBE5CC08091650315
:10118000813A09F057C08091E800877F8093E8009A
:101190008091E80080FFFCCFF701818542C08091FB
:1011A0006503813209F046C08091E800877F809313
:1011B000E8000E94C20B9091670381E0911101C089
:1011C00080E0F701818736C080916503813291F517
:1011D0008091E800877F8093E8000E94C20B809195
:1011E000670390916803882736E0969587953A952E
:1011F000E1F7F701958784871DC080916503813AE7
:10120000C9F48091E800877F8093E8008091E8002E
:1012100080FFFCCFF70184859585969587959695F7
:1012200087958093F1008091E8008E778093E800A5
:101230000E94C20B0FB6F894BEBE0FBEADBE0F909B
:101240000F900F90DF91CF911F910F91FF90EF9032
:10125000DF90CF90BF90AF909F908F907F906F90D6
:101260000895FC01399627E0DF011D922A95E9F7E0
:1012700021E0FC01218728E833E13587248723E03A
:10128000248361E001960C94840B5F926F927F92AD
:101290008F929F92AF92BF92CF92DF92EF92FF9286
:1012A0000F931F93CF93DF9300D01F92CDB7DEB77C
:1012B0007C01ADB6BEB680916403843009F08BC06A
:1012C0008091E4009091E500F7012285338528178D
:1012D000390709F480C081818F708093E900809183
:1012E000E80085FF78C08DB69EB6408550E08DB78A
:1012F0009EB7841B950B0FB6F8949EBF0FBE8DBF93
:10130000EDB7FEB731966F011B821A82198260E039
:1013100070E0CF010E9426108E010F5F1F4F9601D3
:1013200040E0BE016D5F7F4FC7010E94570F582EEE
:10133000F70184859585892B29F011E086859785AD
:10134000892B09F010E0F701668077806114710441
:1013500091F049815A81B301C6010E94101001E049
:10136000892B09F400E0F701408550E0B601C30184
:101370000E941D1001C000E089819A81892BF9F03B
:10138000511004C0011102C010FF19C0F70184857B
:1013900095859787868781818F708093E9008B81FF
:1013A00081118093F10069817A8140E050E0C601AB
:1013B0000E94030A8091E8008E778093E800809174
:1013C000E4009091E500F701938782870FB6F894C7
:1013D0009EBE0FBE8DBE0FB6F894BEBE0FBEADBE94
:1013E0000F900F900F90DF91CF911F910F91FF9071
:1013F000EF90DF90CF90BF90AF909F908F907F90B5
:101400006F905F900895CF92DF92EF92FF920F93CB
:101410001F93CF93DF93EC018B017A010E94E10BC4
:10142000811135C0E114F10439F0F7018081918117
:10143000081B190BC80FD91FC12CD12C0115110580
:1014400029F18091E80085FD18C08091E8008E7731
:101450008093E8000E94A30EE114F10449F0F70123
:1014600080819181C80ED91ED182C08285E00FC0D3
:101470000E94E10B882311F30AC089918093F10047
:1014800001501109FFEFCF1ADF0AD8CF80E0DF91BA
:10149000CF911F910F91FF90EF90DF90CF90089523
:1014A00020916B0330916C032617370748F06115C4
:1014B000710539F42091E8002E772093E80001C0EF
:1014C000B901FC0120E06115710579F18091640397
:1014D0008823F1F18530F1F18091E80083FD3CC073
:1014E0008091E80082FD2EC08091E80080FFEBCF64
:1014F0002091F3008091F20090E0922B611571052C
:1015000051F08032910538F421912093F10061501F
:1015100071090196F3CF21E0809709F020E08091D6
:10152000E8008E778093E800CECF2111CFCF0AC09C
:1015300080916403882361F0853061F08091E80038
:1015400083FD0AC08091E80082FFF2CF80E0089519
:1015500082E0089583E0089581E0089561157105A2
:1015600029F42091E8002B772093E800FC01611515
:10157000710541F180916403882361F1853061F147
:101580008091E80083FD24C08091E80082FFEFCFC6
:101590002091F3008091F20090E0922B892B31F0A2
:1015A0008091F10081936150710991F78091E80079
:1015B0008B778093E800DBCF80916403882351F020
:1015C000853051F08091E80080FFF6CF80E00895EB
:1015D00081E0089582E0089583E0089520916B03EF
:1015E00030916C032617370748F06115710539F4FF
:1015F0002091E8002E772093E80001C0B901FC019A
:1016000020E06115710591F180916403882309F44C
:1016100040C0853009F43FC08091E80083FD3DC0A3
:101620008091E80082FD2FC08091E80080FFE9CF23
:101630002091F3008091F20090E0922B61157105EA
:1016400059F08032910540F424912093F1003196B5
:10165000615071090196F2CF21E0809709F020E0F6
:101660008091E8008E778093E800CBCF2111CCCF1A
:101670000AC080916403882361F0853061F0809115
:10168000E80083FD0AC08091E80082FFF2CF80E08D
:10169000089582E0089583E0089581E00895982FE9
:1016A000973068F59093E900981739F07091EC0045
:1016B0002091ED005091F00003C0242F762F50E0D0
:1016C00021FD02C09F5FECCF3091EB003E7F309355
:1016D000EB003091ED003D7F3093ED003091EB0059
:1016E00031603093EB007093EC002093ED00509349
:1016F000F0002091EE0027FDE5CF80E008958F7087
:101700008093E90081E008950F931F93CF93DF93B7
:10171000062FEC0110E0101779F16881611103C008
:101720001F5F2596F8CF2C81A981BA819B81862FD6
:101730008F70873010F080E020C0223010F442E03B
:1017400001C046E0E8E0F0E020E0EA17FB0720F403
:101750002F5FEE0FFF1FF9CF2295207F422B50E421
:10176000959F90011124661F6627661F622B0E94B9
:101770004F0B8111D5CFDFCF81E0DF91CF911F914A
:101780000F9108958091650387FF11C08091E80053
:1017900082FD05C0809164038111F8CF11C0809152
:1017A000E8008B770BC080916403882349F0809117
:1017B000E80080FFF8CF8091E8008E778093E80002
:1017C00008952091E4003091E50095E64091EC0009
:1017D000842F817040FF23C08091E80080FD1DC0F0
:1017E00080916403882399F0853099F08091EB0013
:1017F00085FD11C04091E4005091E50024173507A4
:1018000029F3915011F09A01E1CF84E0089582E02C
:10181000089583E0089581E0089580E0089540915F
:10182000E80042FFDDCF08950F931F93CF93DF931E
:101830000E94680C0E94700CC8EDD0E088818F7700
:10184000888388818068888388818F7D888319BC9C
:10185000109264031092600310926203109261036D
:1018600000EE10E0F80180818B7F808388818160A9
:10187000888342E260E080E00E944F0BE1EEF0E0FE
:1018800080818E7F8083E2EEF0E0808181608083C2
:10189000808188608083F80180818E7F8083888149
:1018A00080618883DF91CF911F910F910895E8EDBA
:1018B000F0E080818F7E8083E7EDF0E080818160C1
:1018C000808384E082BF81E0809363030C94140CD6
:1018D000E8EDF0E080818E7F80831092E200089531
:1018E0001092DA001092E10008951F920F920FB645
:1018F0000F9211242F933F934F935F936F937F9396
:101900008F939F93AF93BF93EF93FF938091E100E9
:1019100082FF0BC08091E20082FF07C08091E1004E
:101920008B7F8093E1000E94470F8091DA0080FF57
:101930001FC08091D80080FF1BC08091DA008E7F8D
:101940008093DA008091D90080FF0DC080E189BDCD
:1019500082E189BD09B400FEFDCF81E0809364037C
:101960000E94D70E05C019BC109264030E94D80EC5
:101970008091E10080FF19C08091E20080FF15C0D6
:101980008091E2008E7F8093E2008091E20080618E
:101990008093E2008091D80080628093D80019BCC7
:1019A00085E0809364030E94A20E8091E10084FF91
:1019B00030C08091E20084FF2CC080E189BD82E1CB
:1019C00089BD09B400FEFDCF8091D8008F7D809342
:1019D000D8008091E1008F7E8093E1008091E20049
:1019E0008F7E8093E2008091E20081608093E2002C
:1019F00080916003882311F084E007C08091E300A8
:101A000087FD02C081E001C083E0809364030E94EF
:101A1000A20E8091E10083FF24C08091E20083FF49
:101A200020C08091E100877F8093E10082E0809375
:101A30006403109260038091E1008E7F8093E10047
:101A40008091E2008E7F8093E2008091E2008061CD
:101A50008093E20042E260E080E00E944F0B0E942F
:101A6000A20EFF91EF91BF91AF919F918F917F91C6
:101A70006F915F914F913F912F910F900FBE0F90FB
:101A80001F9018951F93CF93DF93CDB7DEB7AA971A
:101A90000FB6F894DEBF0FBECDBFE5E6F3E0809150
:101AA000F100819323E0ED36F207C9F70E94F00EB2
:101AB0008091E80083FF2EC18091650390916603B9
:101AC000492F50E04A30510508F024C1FA01EB5982
:101AD000FF4F0C940A10803821F0823809F01AC1A7
:101AE00008C08091610390916203992389F082601C
:101AF0000FC0809169038F70873008F00BC180930D
:101B0000E9008091EB0085FB882780F91092E900BD
:101B10009091E800977F9093E8008093F1001092F5
:101B2000F100D1C0282F2D7F09F0F4C0882319F0CF
:101B3000823061F0EFC080916703813009F0EAC024
:101B4000933009F080E0809362032EC08091670398
:101B500081112AC0809169038F702FEF280F2630E2
:101B600008F0D8C08093E9002091EB0020FF1CC052
:101B7000933021F48091EB00806214C09091EB00CF
:101B800090619093EB0021E030E0A90102C0440F86
:101B9000551F8A95E2F74093EA001092EA0080917F
:101BA000EB0088608093EB001092E9008091E800E0
:101BB000877F8093E8000E94C20BACC08111AAC04D
:101BC000109167031F778091E3008078812B8093C9
:101BD000E3008091E800877F8093E8000E94C20BB9
:101BE0008091E80080FFFCCF8091E30080688093C3
:101BF000E300111102C082E001C083E0809364031E
:101C000089C08058823008F085C080916703909128
:101C100068038C3D53E0950779F583E08A838AE277
:101C200089834FB7F894DE01139620E03EE051E23D
:101C3000E32FF0E050935700E49120FF03C0E295BA
:101C4000EF703F5FEF708E2F90E0EA3010F0C79694
:101C500001C0C0968D939D932F5F243149F74FBFEC
:101C60008091E800877F8093E8006AE270E0CE010F
:101C700001960E94500A16C06091690370916A0330
:101C8000AE014F5F5F4F0E94B40FBC01892B09F476
:101C900041C09091E800977F9093E80089819A81F4
:101CA0000E94EE0A8091E8008B778093E80032C0B2
:101CB000803881F58091E800877F8093E8008091EB
:101CC00060038093F1008091E8008E7772CF8111DC
:101CD00021C0809167039091680399270297D4F4FB
:101CE0008091E800877F8093E8008091670380936C
:101CF00060030E94C20B80916003811106C0809135
:101D0000E30087FD02C081E001C084E080936403AA
:101D10000E94DE0E8091E80083FF0AC08091E800F7
:101D2000877F8093E8008091EB0080628093EB00D6
:101D3000AA960FB6F894DEBF0FBECDBFDF91CF914C
:101D40001F9108950895CF93809164038823A1F093
:101D5000C091E900CF709091EC00892F817090FDC7
:101D600080E8C82B1092E9008091E80083FD0E9472
:101D7000420DCF70C093E900CF91089584B7877F5B
:101D800084BF0FB6F894A895809160008861809315
:101D90006000109260000FBE90E080E80FB6F894EB
:101DA00080936100909361000FBE0C94570C0895CE
:101DB0001092940161E081E10C949D07809195015E
:101DC000811105C084E091E00E94310901C081E0E9
:101DD0009091E20094609093E200809394010895C2
:101DE00080916503813C09F049C08091660386308B
:101DF000A9F4809167039091680381159244F1F5ED
:101E00008091E800877F8093E8008091950181119F
:101E10002FC060E170E082E591E028C0813071F56B
:101E20008091670390916803811521E0920771F416
:101E30008091E800877F8093E8008091950181116F
:101E400017C064E170E08EE391E010C0811592400C
:101E5000A9F48091E800877F8093E8008091950144
:101E6000811106C066E070E088E391E00E94500AAC
:101E70008091E8008B778093E80008958091950128
:101E8000811104C084E091E00C94F50708958091DD
:101E9000950181110BC0809112019091130100975F
:101EA00029F00197909313018093120108950F93E5
:101EB0001F93F9018091950181113CC0108284E14A
:101EC0008183809198018283138280919A01848317
:101ED00080919B01858380919C01868380919D01E7
:101EE000878380919E01808780919F018187809167
:101EF000A00182878091A10183878091A2019091A6
:101F0000A301958784878091A4019091A50197876B
:101F100086878091A6019091A701918B808B8091FB
:101F2000A8019091A901938B828B84E190E0F80144
:101F30009183808380E01F910F9108950F931F93E9
:101F40008091950181110DC00630110551F4F90100
:101F500083818093AA0185818093AB0181E0809386
:101F6000AC011F910F910895CF93DF931F92CDB7CE
:101F7000DEB7292F30E022303105B1F023303105B2
:101F800021F021303105C9F406C080E090E09E01C7
:101F90002F5F3F4F16C08091950181110EC082E1E5
:101FA00090E02EE931E00DC080919501811105C0CE
:101FB00080E290E02EE731E004C080E090E020E095
:101FC00030E0FA01318320830F90DF91CF910895A3
:101FD000A1E21A2EAA1BBB1BFD010DC0AA1FBB1F2D
:101FE000EE1FFF1FA217B307E407F50720F0A21B9F
:101FF000B30BE40BF50B661F771F881F991F1A940C
:1020000069F760957095809590959B01AC01BD0135
:10201000CF010895EE0FFF1F0590F491E02D099474
:10202000FB01DC0104C08D910190801921F4415025
:102030005040C8F7881B990B0895FB01DC0102C0D2
:1020400001900D9241505040D8F70895DC0101C035
:102050006D9341505040E0F70895F999FECF92BD3D
:1020600081BDF89A992780B50895262FF999FECF5A
:102070001FBA92BD81BD20BD0FB6F894FA9AF99AA5
:0A2080000FBE01960895F894FFCFFB
:10208A00900100000081140000016D031700000098
:10209A0000000000000000003E022F030E0285022D
:1020AA00E001FA01EC0100000000FF05D205A702D9
:1020BA002E06710579058D050006FFFFFFFF001446
:1020CA00FF00FFFFFFFFFFFFFFFFFFFFFFFFFFFF15
:1020DA00FFFF1042000101021406FFFFFFFFFFFF8E
:0220EA00FFFFF6
:00000001FF
