:100000000C9410030C9438030C9438030C943803AC
:100010000C9438030C9438030C9438030C94380374
:100020000C9438030C9438030C949E2C0C943803D5
:100030000C9438030C9438030C9438030C94380354
:100040000C9438030C9438030C9438030C94380344
:100050000C9438030C9438030C9438030C946E0EF3
:100060000C9438030C94A0080C94D8080C94380312
:100070000C9438030C9438030C9438030C94380314
:100080000C9438030C9438030C9438030C94380304
:100090000C94060C0C9438030C9438030C9438031D
:1000A0000C9438030C9438030C943803120D160D7D
:1000B000160D160D160D160D160D160D260C160D19
:1000C000160D160D160D160D160D160D260C160D09
:1000D000160D160D160D160D160D160D2E0C160DF1
:1000E000160D160D160D160D160D160D540C160DBB
:1000F000160D160D160D160D160D160D2E0C160DD1
:10010000160D160D160D160D160D160D5A0C160D94
:10011000160D160D160D160D160D160D600C160D7E
:10012000160D160D160D160D160D160D720C160D5C
:10013000160D160D160D160D160D160D9C0C160D22
:10014000160D160D160D160D160D160D660C160D48
:10015000160D160D160D160D160D160D800C160D1E
:10016000160D160D160D160D160D160D9F0C160DEF
:10017000160D160D160D160D160D160D9F0C160DDF
:10018000160D160D160D160D160D160D9F0C160DCF
:10019000160D160D160D160D160D160D9F0C160DBF
:1001A000160D160D160D160D160D160DA80C160DA6
:1001B000160D160D160D160D160D160DD90C160D65
:1001C000160D160D160D160D160D160DA80C160D86
:1001D000160D160D160D160D160D160DD90C160D45
:1001E000160D160D160D160D160D160DC00C160D4E
:1001F000160D160D160D160D160D160DDD0C160D21
:10020000160D160D160D160D160D160DDD0C160D10
:10021000160D160D160D160D160D160DF20C160DEB
:10022000160D160D160D160D160D160D0C0D160DC0
:10023000160D160D160D160D160D160D0C0DAE0F16
:10024000B20F9C0FA20FA80FD90FD90FD90FB60F5D
:10025000BC0FC20FC80FCE0FD90FD40F912DBD2DDB
:10026000B92EBD2DB92E012E252EB92E812E922EFE
:100270000D0A546869732069732074686520686F7B
:10028000737420636F6E74726F6C6C6572000D0A0C
:1002900055534220486F737420436F6E74726F6CB5
:1002A0006C657220496E697469616C69736564007C
:1002B0000D0A4F534320646964206E6F7420737479
:1002C000617274000D0A546869732064657669630D
:1002D0006520697320696E20706C61796572207386
:1002E0006C6F7420000000000200090F000003047E
:1002F00001000C00000000000000000000000000F1
:1003000000000000040802011040804010204080DE
:10031000408008020401804020100201108010205B
:100320004040200404040404030405020202020401
:100330000302020202060606060606040402020280
:100340000404000000002300260029002C002F00D8
:1003500000000000250028002B002E0031000000C6
:100360000000240027002A002D0030000D0A002084
:100370005049443A20000D0A556E6B6E6F776E201F
:1003800044657669636520436F6E6E65637465646A
:10039000202D205649443A20000D0A736574436F9E
:1003A0006E6620000D0A73657444657654626C4570
:1003B0006E20000D0A676574446576446573637248
:1003C00020000D0A00285553423A3A496E54726192
:1003D0006E7366657229206570207265717565732C
:1003E00074656420000D0A00285553423A3A496E5C
:1003F0005472616E73666572292061646472207242
:10040000657175657374656420000D0A0028555385
:10041000423A3A496E5472616E736665722920538E
:10042000657441646472657373204661696C6564C8
:1004300020003A20646973636F6E6E65637465644F
:100440000D0A003A20636F6E6E6563746564002068
:10045000617320636F6E74726F6C6C65722B68656C
:1004600061647365740D0A002061732068656164BE
:100470007365740D0A0020617320636F6E74726F70
:100480006C6C65720D0A00436F6E74726F6C6C65F4
:100490007220000D0A58626F782033363020496E82
:1004A0006974204661696C65642C206572726F7294
:1004B00020636F64653A20000D0A58626F782057F8
:1004C0006972656C657373205265636569766572E0
:1004D00020436F6E6E65637465640D0A000D0A41FA
:1004E000646472657373206E6F7420666F756E64DA
:1004F000000D0A736574416464723A20000D0A416C
:10050000646472657373206E6F7420666F756E64B9
:10051000000D0A58626F782033363020496E6974B6
:10052000204661696C65642C206572726F7220636D
:100530006F64653A20000D0A4F7574206F66206164
:10054000646472657373207370616365000D0A598A
:100550006F75276C6C206E65656420612077697209
:10056000656C657373207265636569766572206674
:100570006F722074686973206C696261727920748B
:100580006F20776F726B000D0A6570696E666F2061
:100590006973206E756C6C000D0A4164647265733A
:1005A00073206E6F7420666F756E64000D0A41646F
:1005B000647265737320696E2075736500000100B5
:1005C000080002000400200010004000800000002D
:1005D000000100020020001000400080000400081C
:1005E000000002030405010902200001010080FA55
:1005F000090400000258420000070581032000049E
:100600000705020320000412011001000000205E13
:1006100004890221010000000100F803FE08690EB0
:1006200011241FBECFEFDAE0DEBFCDBF11E0A0E0A6
:10063000B1E0EAEEF0E602C005900D92A438B107F1
:10064000D9F724E0A4E8B1E001C01D92A93DB207AA
:10065000E1F713E0C0E1D3E004C02197FE010E945E
:100660005030CD30D107C9F70E9403040C94733089
:100670000C9400002E9862606EBD0DB407FEFDCF95
:100680004EBD0DB407FEFDCF2E9A08952E986EBD77
:100690000DB407FEFDCF1EBC0DB407FEFDCF2E9A94
:1006A0008EB50895CF93DF93EC0168EF0E94460367
:1006B000807C803409F118F48823D1F140C080385F
:1006C00019F0803C89F13BC068EDCE010E944603E1
:1006D00081FD09C049EC68EDCE010E943A0382E039
:1006E000809385012CC04BEC68EDCE010E943A034B
:1006F00083E08093850123C068EDCE010E9446030C
:1007000081FD09C04BEC68EDCE010E943A0383E005
:100710008093850114C049EC68EDCE010E943A0334
:1007200082E0809385010BC081E08093850107C042
:1007300041ED68EDCE010E943A0310928501DF91F0
:10074000CF9108950F931F93CF93DF938C01269A37
:100750002E9A219A229A2398209A80E58CBD1DBC5E
:10076000259848E168E8C8010E943A0340E268E73A
:10077000C8010E943A0340E068E7C8010E943A03BA
:10078000CFEFDFEF02C02197E1F068E6C8010E94D9
:10079000460380FFF8CF17C068EEC8010E944603E9
:1007A00082FFFACFC8010E94520340E268ECC80100
:1007B0000E943A0341E060E8C8010E943A0380E0E9
:1007C00012C08FEF10C041EC68EDC8010E943A03DF
:1007D00040E660EDC8010E943A0344E068EEC801BB
:1007E0000E943A03D9CFDF91CF911F910F910895C5
:1007F00086E392E00E94EF1166E372E087E891E001
:100800000E945C2308950E943B0F61E084E00E94F7
:10081000DA0F61E089E00E94DA0F61E081E10E9475
:10082000DA0F62E083E10E94DA0F62E084E10E9465
:10083000DA0F60E089E00E94191060E084E00E9415
:10084000191061E081E10E9419100E94FA2E78943B
:1008500026E040E251EA67E070E08DEA92E00E9413
:10086000380883E10E944A10EC0184E10E944A109A
:10087000CC0FDD1F8C2B8093860164EC72E08DEA37
:1008800092E00E945B096091860170E06F5F7F4F8C
:100890004AE050E08DEA92E00E94280A8CE8EAE201
:1008A000F4E0DF011D928A95E9F760E089E00E949B
:1008B000191064E170E080E090E00E94EA0E61E0CF
:1008C00089E00E94191086E392E00E94A2038F3F04
:1008D00039F460EB72E08DEA92E00E945B09FFCF91
:1008E0006EE872E08DEA92E00E945B098CEB93E087
:1008F0000E94CF0D40E85AE166E070E08CEB93E097
:100900000E94DA0D60E772E08DEA92E00E945B09D6
:1009100007E811E033243A940F2EF0EEAF2EB12CFD
:10092000F02D0F2EF4EE6F2E712CF02D0F2EF4E023
:100930008F2EF1E09F2EF02D86E392E00E944D2055
:10094000F8018281882309F452C20F2EFAE8EF2EB3
:10095000F1E0FF2EF02DCAE2D4E0512C4424439460
:1009600003C043945394A396D7018D917D018823AE
:1009700009F41EC2452D60E0C8010E94D8238823D7
:1009800021F08A8181608A8303C08A818E7F8A8375
:10099000452D62E0C8010E94D823882321F08A8176
:1009A00082608A8303C08A818D7F8A83452D63E0BC
:1009B000C8010E94D823882321F08A8184608A8319
:1009C00003C08A818B7F8A83452D61E0C8010E9424
:1009D000D823882321F08A8188608A8303C08A8192
:1009E000877F8A83452D65E0C8010E94D82388232C
:1009F00021F08A8180618A8303C08A818F7E8A8305
:100A0000452D64E0C8010E94D823882321F08A8103
:100A100080628A8303C08A818F7D8A83452D66E048
:100A2000C8010E94D823882321F08A8180648A83A8
:100A300003C08A818F7B8A83452D67E0C8010E94AD
:100A4000D823882321F08A8180688A8303C08A8121
:100A50008F778A83452D6DE0C8010E94D8238823B3
:100A600011F03C8201C01C82452D6CE0C8010E943F
:100A7000D823882311F03D8201C01D82452D6EE0F0
:100A8000C8010E94D823882311F03E8201C01E8233
:100A9000452D6FE0C8010E94D823882311F03F82C2
:100AA00001C01F82452D6AE0C8010E94D823882317
:100AB00011F0388601C01886452D6BE0C8010E94F0
:100AC000D823882311F0398601C01986452D68E0A6
:100AD000C8010E94D8236E018A87452D69E0C801AC
:100AE0000E94D8238B87452D60E0C8010E941924FD
:100AF0009D878C87452D61E0C8010E9419249F873E
:100B00008E87452D62E0C8010E941924998B888B3D
:100B1000452D63E0C8010E9419249B8B8A8B5520C8
:100B200009F499C1652D8CEB93E00E94DF0DE091F3
:100B3000BC03F091BD030280F381E02D44E150E05D
:100B4000BE018CEB93E0099561E08CEB93E00E9491
:100B5000E90D42E0652D8CEB93E00E94650E82303A
:100B600069F58CEB93E00E942F0D8F3FBFEF9B0741
:100B700059F02C8930E08217930731F08F3F9105AF
:100B800019F08C8B81E08E8B8CEB93E00E942F0D03
:100B90008F3FEFEF9E07B1F0D60155962C915597F8
:100BA00030E08217930771F08F3F910559F0559609
:100BB0008C93559781E056968C9304C08CEB93E010
:100BC0000E94B30D0E94B80EF601278D30A141A1FD
:100BD00052A1DC01CB01821B930BA40BB50B089730
:100BE000A105B10508F4FFC0452D60E1C8010E94D0
:100BF000D823882309F47BC0F601838D948DA58DBD
:100C0000B68D892B8A2B8B2B49F40E94B80ED60106
:100C10005B966D937D938D939C935E970E94B80E27
:100C2000F601238D348D458D568DDC01CB01821B61
:100C3000930BA40BB50B893E9340A105B105E0F1E0
:100C40000E94B80ED6015B962D913D914D915C911D
:100C50005E97DC01CB01821B930BA40BB50B8C348C
:100C60009440A105B10540F5D60112961C92129749
:100C700054961C92549755961C92F601138E148E1E
:100C8000158E168E252D40E060E0C8010E94DF24FD
:100C90006AE070E080E090E00E94EA0E652DC801F5
:100CA0000E9452240E94B80ED6015F966D937D93E8
:100CB0008D939C93929797C00E94B80EF601238D56
:100CC000348D458D568DDC01CB01821B930BA40B1B
:100CD000B50B8D349440A105B10508F484C0D6014C
:100CE0005B961D921D921D921C925E977CC0F60130
:100CF000138E148E158E168E86898130D1F4252D93
:100D000045896489C8010E94DF24D60156961C9249
:100D10000E94B80EF601678B708F818F928F0E94B0
:100D2000B80ED6015F966D937D938D939C939297A9
:100D30005AC00E94B80EF6012789308D418D528D20
:100D4000DC01CB01821B930BA40BB50B8B3F9105F0
:100D5000A105B10508F4A4C0848981118EC08589DC
:100D600081118BC09DC0C8010E9489240E94B80EC9
:100D7000D6015F966D937D938D939C93929780910E
:100D800084018F5F809384012EC0452D642DC8019E
:100D90000E9479240E94B80EF601678F70A381A388
:100DA00092A3109284011FC06F5F609384011BC0E7
:100DB000552009F4D6CD652D8CEB93E00E94DF0D14
:100DC000E091BC03F091BD030280F381E02D42E08D
:100DD00050E060E071E08CEB93E0099561E08CEB12
:100DE00093E00E94E90DF3E0F41508F0BACDD801C4
:100DF00013968C91882389F0F50180818E7F808302
:100E000080911C048823A9F060E081E10E94191000
:100E100061E084E00E9419100CC061E081E10E9451
:100E2000191060E084E00E941910D5018C91816056
:100E30008C93F30180819181D4011A962D913C917C
:100E40001B97821B930B049718F0C4010E947C2807
:100E50000E94DF2E71CD0E94B80E2F8D38A149A1BE
:100E60005AA1DC01CB01821B930BA40BB50B089795
:100E7000A105B10508F475CDB7CEF601158A148A1F
:100E8000252D40E060E0C8010E94DF240E94B80EDA
:100E9000D6015F966D937D938D939C939297A3CF8C
:100EA00060918401643608F47FCF663608F45BCF26
:100EB000663609F46ACF78CFFC01918D228D892F97
:100EC00090E0805C9F4F821B91098F739927089552
:100ED000FC01918D828D981731F0828DE80FF11D04
:100EE000858D90E008958FEF9FEF0895FC01918D1F
:100EF000828D981761F0828DDF01A80FB11D5D967C
:100F00008C91928D9F5F9F73928F90E008958FEFE9
:100F10009FEF0895FC01238D348D231738F08FE364
:100F200090E0821B9109830F911D0895832F90E01B
:100F3000821B910901970895FC01848DDF01A80FA0
:100F4000B11DA35ABF4F8C91248D30E02F5F3F4FCE
:100F50002F733078332334F421503109206C3F6FE4
:100F60002F5F3F4F248FA689B7898C93A089B189C1
:100F70008C9180648C93938D848D981306C0028825
:100F8000F389E02D80818F7D80830895CF93DF9357
:100F9000EC01888D8823D9F0EA89FB89808185FD61
:100FA00005C0A889B9898C9186FD11C00FB607FCD0
:100FB000F5CF808185FFF2CF04C0CE010E949C074F
:100FC000EBCFA889B9898C9185FFE8CFF6CFDF9167
:100FD000CF9108950F931F93CF93DF93EC0181E09E
:100FE000888F9B8D8C8D981323C0E889F989808127
:100FF00085FD2FC01DC09C8D19130CC00FB607FCBA
:10100000FACFE889F989808185FFF5CFCE010E946A
:101010009C07F1CF8B8DFE01E80FF11DE35AFF4FC6
:1010200000831B8FEA89FB8980818062808319C0DD
:101030002B8D30E02F5F3F4F2F733078332334F404
:1010400021503109206C3F6F2F5F3F4F062F122F29
:10105000D2CFEE89FF896083E889F9898081806435
:10106000808381E090E0DF91CF911F910F910895EF
:10107000CF92DF92EF92FF921F93CF93DF93EC0119
:101080006A017B01122FE889F98982E0808341158A
:10109000514E61057105B1F060E079E08DE390E0BB
:1010A000A70196010E942E30DA01C9010197A1091A
:1010B000B109B695A795979587959C01211580E173
:1010C0003807A8F0E889F989108260E874E88EE1B1
:1010D00090E0A70196010E942E30DA01C901019724
:1010E000A109B109B695A795979587959C01EC85BF
:1010F000FD853083EE85FF852083188EEC89FD8980
:101100001083EA89FB89808180618083EA89FB8979
:10111000808188608083EA89FB8980818068808300
:10112000EA89FB8980818F7D8083DF91CF911F9138
:10113000FF90EF90DF90CF90089580E090E00895C9
:101140001F920F920FB60F9211242F938F939F939C
:10115000AF93BF93EF93FF93E091BD02F091BE0276
:10116000808182FD14C0EDEAF2E0A689B7892C9156
:10117000818D8F5F8F73928D891771F0DF01E18D03
:10118000F0E0E355FD4F258F59968C9305C0E09113
:10119000C302F091C4028081FF91EF91BF91AF91A2
:1011A0009F918F912F910F900FBE0F901F901895C8
:1011B0001F920F920FB60F9211242F933F934F93CC
:1011C0005F936F937F938F939F93AF93BF93EF93AF
:1011D000FF938DEA92E00E949C07FF91EF91BF91EF
:1011E000AF919F918F917F916F915F914F913F91BF
:1011F0002F910F900FBE0F901F901895EDEAF2E01F
:101200001382128288EE93E0A0E0B0E0848395839D
:10121000A683B78388E191E0918380838DEC90E091
:10122000958784878CEC90E09787868788EC90E0A0
:10123000918B808B89EC90E0938B828B8AEC90E091
:10124000958B848B8EEC90E0978B868B118E128E13
:10125000138E148E08950895CF92DF92EF92FF922D
:101260000F931F93CF93DF9341155105C1F06A018E
:101270008C01E62EF72EC0E0D0E0D7016D917D0104
:10128000D801ED91FC910190F081E02DC801099504
:10129000892B39F02196CC16DD0679F702C0C0E023
:1012A000D0E0CE01DF91CF911F910F91FF90EF9091
:1012B000DF90CF900895EF92FF920F931F93CF93FB
:1012C000DF93FB0164916623B1F07F018C01C0E0E4
:1012D000D0E0D801ED91FC910190F081E02DC801A2
:1012E0000995892B51F02196F701EC0FFD1F6491B0
:1012F0006111EFCF02C0C0E0D0E0CE01DF91CF910D
:101300001F910F91FF90EF900895DC01ED91FC91FA
:101310000190F081E02D099508958F929F92AF92F0
:10132000BF92EF92FF920F931F93CF93DF93CDB7AE
:10133000DEB7A1970FB6F894DEBF0FBECDBF7C011C
:10134000CB01BA0119A2223008F42AE08E010F5D08
:101350001F4F822E912CA12CB12CA50194010E942B
:101360002E30E62F622F732F842F952F01501109F5
:10137000EA3010F4E05D01C0E95CD801EC9361153E
:1013800071058105910549F70115110591F0F801E5
:1013900001900020E9F73197AF01401B510BD701B5
:1013A000ED91FC910280F381E02DB801C701099510
:1013B00002C080E090E0A1960FB6F894DEBF0FBEA9
:1013C000CDBFDF91CF911F910F91FF90EF90BF9014
:1013D000AF909F908F900895CF92DF92EF92FF92FF
:1013E0000F931F93CF93DF93EC016A017B012115CB
:1013F000310541F4E881F9810190F081E02D642FFD
:1014000009951DC02A303105C1F4772394F46DE2AB
:101410000E9485098C0144275527BA014C195D09A2
:101420006E097F092AE0CE010E948D09800F911F6D
:1014300006C02AE00E948D0902C00E948D09DF913A
:10144000CF911F910F91FF90EF90DF90CF90089573
:101450009A01AB01770F660B770B0E94EC09089598
:101460002115310549F4DC01ED91FC910190F081E9
:10147000E02D642F099508950E948D0908959A0121
:10148000462F50E060E070E00E94300A0895CF934C
:10149000DF93CCEBD0E018821092BB0381E0809305
:1014A000B9031092B80361E082E00E94191061E074
:1014B00083E00E941910E9EBF0E080818E7F808349
:1014C00080818D7F808388E48093B80085E4888361
:1014D000DF91CF910895813049F410924A03109220
:1014E0004B0310924C0310924D0317C080914A0396
:1014F00090914B03A0914C03B0914D030196A11D17
:10150000B11D80934A0390934B03A0934C03B09377
:101510004D0384E690E00E94300F80914A03909141
:101520004B03A0914C03B0914D0380359105A1056B
:10153000B10580F010924A0310924B0310924C03B5
:1015400010924D030E94470A61E081E10E94191048
:1015500081E0089580E008959B01AC0160E074E2B1
:1015600084EF90E00E942E30DA01C9014097A10972
:10157000B109B695A795979587958093B80008957A
:10158000FF920F931F93CF93DF93D82FF62E072F41
:10159000C42F122F413208F05EC081E00E946B0A16
:1015A00005C080E00E946B0A811104C08091BB03DA
:1015B0008111F7CF81E08093BB031093B9039FEFB4
:1015C00090934E03109293039C0F909392038093F9
:1015D000BA038091BA03DD0FD82BD093BA03809160
:1015E000B803813081F41092B803ABEBB0E0ECEBC0
:1015F000F0E08091BA038C93808183FDFACF85EC73
:101600008093BC0003C085EE8093BC0081E00E9403
:101610006B0A05C080E00E946B0A811104C08091B2
:10162000BB038130B9F3809193038C1710F4C09100
:101630009303CC2391F0E4E9F3E0AF2DB02F2FEF2B
:101640002C0F30E02B563C4F91919D93E217F307FE
:10165000D9F78C2F03C080E001C080E0DF91CF91EB
:101660001F910F91FF900895DF92EF92FF920F93D9
:101670001F93CF93DF93413208F06EC0D22EC42F58
:101680007B01182F81E00E946B0A05C080E00E9458
:101690006B0A811163C0D091BB03D111F7CF82E0F7
:1016A0008093BB030093B9038FEF80934E03109296
:1016B0009303C0939203CC2381F0F701A4E9B3E034
:1016C0004FEF4C0F50E04F5F5F4FB701640F751F36
:1016D00081918D93E617F707D9F71092BA0380919D
:1016E000BA03110F182B1093BA038091B8038130FD
:1016F00081F41092B803ABEBB0E0ECEBF0E080913A
:10170000BA038C93808183FDFACF85EC8093BC0073
:1017100003C085EE8093BC0081E00E946B0ADD204F
:1017200069F08091BB03823049F480E00E946B0A2B
:10173000811116C08091BB038230B9F380914E03B2
:101740008F3F99F080914E03803261F080914E037B
:10175000803351F0D4E009C0D1E007C0D4E005C027
:10176000D4E003C0D2E001C0D3E08D2FDF91CF9150
:101770001F910F91FF90EF90DF90089540917003BB
:10178000262F30E0240F311D21323105ECF4209159
:10179000BB032430D9F4662381F0A82FB92F80E051
:1017A00090E0309170032D91FC01EE58FC4FE30F57
:1017B000F11D208301968617A0F380917003680FB6
:1017C0006093700380E0089581E0089582E00895B9
:1017D000CF93DF9385ED8093BC0081E00E946B0A7C
:1017E000CCEBD0E005C080E00E946B0A811103C001
:1017F000888184FDF8CF1092BB03DF91CF910895CB
:1018000085EC8093BC001092BB0308951F920F9249
:101810000FB60F9211242F933F934F935F936F93C3
:101820007F938F939F93AF93BF93EF93FF93809199
:10183000B900E82FE87F8E2F90E0893C910508F0F1
:10184000F5C0FC01EA5AFF4F0C9450308091BA0366
:101850008093BB0085EC8093BC00E8C0909193031B
:1018600080919203981780F4E091930381E08E0FAA
:1018700080939303F0E0EC56FC4F80818093BB0093
:1018800085EC8093BC00D2C08091B903882319F005
:101890000E94E80BCBC081E08093B80384EA809378
:1018A000BC001092BB03C2C080E280934E030E9432
:1018B000E80BBCC080E380934E030E94E80BB6C0E7
:1018C00088E380934E030E94000CB0C0E091930324
:1018D00081E08E0F809393038091BB00F0E0EC5683
:1018E000FC4F80839091930380919203981720F48A
:1018F00085EC8093BC009AC085E88093BC0096C0BC
:10190000E091930381E08E0F809393038091BB005D
:10191000F0E0EC56FC4F80838091B903882319F0E6
:101920000E94E80B83C081E08093B80384EA80932F
:10193000BC001092BB037AC00E94E80B77C083E022
:101940008093BB0310924F0385EC8093BC006EC064
:1019500080914F03803280F4E0914F0381E08E0F3D
:1019600080934F038091BB00F0E0E05BFC4F8083ED
:1019700085EC8093BC005AC085E88093BC0056C0BB
:101980000E94000C80914F03803230F4E0914F03AD
:10199000F0E0E05BFC4F108260914F0370E0E0915B
:1019A000B403F091B50380E593E0099510924F03DD
:1019B0003DC085E88093BC0039C084E08093BB03C0
:1019C0001092710310927003E091B603F091B70387
:1019D000099580917003811105C081E080937003A7
:1019E00010927203E091710381E08E0F8093710376
:1019F000F0E0EE58FC4F80818093BB009091710322
:101A000080917003981720F485EC8093BC000EC081
:101A100085E88093BC000AC085EC8093BC001092DE
:101A2000BB0304C010924E030E94E80BFF91EF919C
:101A3000BF91AF919F918F917F916F915F914F91E6
:101A40003F912F910F900FBE0F901F90189580918E
:101A5000EC0390E02091ED03821B91090895909191
:101A6000ED038091EC03981750F4E92FF0E0E25178
:101A7000FC4F208130E09F5F9093ED0302C02FEF79
:101A80003FEFC9010895E091ED038091EC03E81761
:101A900030F4F0E0E251FC4F808190E008958FEF48
:101AA0009FEF0895CF92DF92EF92FF920F931F93D3
:101AB000CF93DF938C01CB016A012091C8032223CD
:101AC000A1F041155105A1F0EB017B01E40EF51EDB
:101AD0006991D801ED91FC910190F081E02DC80150
:101AE0000995CE15DF05A1F703C0642F0E94BE0B38
:101AF000C601DF91CF911F910F91FF90EF90DF9082
:101B0000CF900895CF93DF931F92CDB7DEB7FC013E
:101B100069839091C8039923D9F09091C9039032B9
:101B200038F081E090E09383828380E090E017C0FA
:101B30008091CA03E82FF0E0E553FC4F9981908330
:101B40008F5F8093CA038093C90381E090E007C050
:101B500061E0CE0101960E94BE0B81E090E00F9003
:101B6000DF91CF9108951092ED031092EC0380E283
:101B7000EEEEF3E0DF011D928A95E9F70895FC018E
:101B80001382128288EE93E0A0E0B0E08483958314
:101B9000A683B7838AE291E09183808308951092AF
:101BA000ED031092EC031092CA031092C9030E9435
:101BB000470A0895CB01BA010E94AC0A089581E05A
:101BC0008093C8036093EB031092CA031092C90379
:101BD00008950F93062F21E04091C9036BEC73E049
:101BE0008091EB030E94340B1092CA031092C90338
:101BF0001092C8030F9108954F925F926F927F9257
:101C0000AF92BF92CF92EF92FF920F931F93CF9319
:101C1000DF935C01F62ED42F28013901EE2049F123
:101C20000E94DF0D8E2D843008F083E0CFEFC80FC7
:101C30008823D9F08C2F880F880F880FA301920179
:101C400004C056954795379527958A95D2F7CA01CE
:101C5000B901D501ED91FC910190F081E02DC50114
:101C600009958C2FC1508111E5CF60E0C5010E941C
:101C7000E90D4D2FD13208F040E22C2D6EEE73E0CD
:101C80008F2D0E94C00A1092ED038093EC03DF9128
:101C9000CF911F910F91FF90EF90CF90BF90AF9099
:101CA0007F906F905F904F900895CF92EF920F9337
:101CB0001F93C22EE12C00E010E098010E94FC0D61
:101CC0001F910F91EF90CF90089521E00E94550E43
:101CD00008958CEB93E00E94BF0D08951F920F9220
:101CE0000FB60F9211242F933F938F939F93AF932F
:101CF000BF9380910F0490911004A0911104B091B2
:101D0000120430910E0423E0230F2D3720F40196A6
:101D1000A11DB11D05C026E8230F0296A11DB11D0E
:101D200020930E0480930F0490931004A093110449
:101D3000B09312048091130490911404A09115049F
:101D4000B09116040196A11DB11D809313049093C8
:101D50001404A0931504B0931604BF91AF919F9102
:101D60008F913F912F910F900FBE0F901F9018955C
:101D70002FB7F89460910F047091100480911104B2
:101D8000909112042FBF08953FB7F89480911304E7
:101D900090911404A0911504B091160426B5A89B47
:101DA00005C02F3F19F00196A11DB11D3FBFBA2FED
:101DB000A92F982F8827820F911DA11DB11DBC014D
:101DC000CD01660F771F881F991F660F771F881F29
:101DD000991F08958F929F92AF92BF92CF92DF92F8
:101DE000EF92FF926B017C010E94C40E4B015C01DB
:101DF000C114D104E104F10439F529C00E942B0972
:101E000010C021E0C21AD108E108F10888EE880E5E
:101E100083E0981EA11CB11CC114D104E104F1049B
:101E2000B1F00E94C40EDC01CB0188199909AA09FE
:101E3000BB09883E9340A105B10518F7C114D10430
:101E4000E104F104D9F603C00E942B09EACFFF9008
:101E5000EF90DF90CF90BF90AF909F908F900895BC
:101E60008230910538F0880F991F880F991F0597C8
:101E70000197F1F70895789484B5826084BD84B5A4
:101E8000816084BD85B5826085BD85B5816085BD75
:101E9000EEE6F0E0808181608083E1E8F0E010828E
:101EA000808182608083808181608083E0E8F0E0CF
:101EB000808181608083E1E9F0E0808182608083BD
:101EC000808181608083E0E9F0E0808181608083AF
:101ED000E1ECF0E080818460808380818260808397
:101EE000808181608083E3ECF0E080818160808389
:101EF000E0ECF0E0808182608083E2ECF0E08081C1
:101F000081608083EAE7F0E0808184608083808163
:101F1000826080838081816080838081806880830B
:101F2000089590E0FC013197EF30F10508F041C0D1
:101F3000E15EFE4F0C945030E0E8F0E080818F7756
:101F400080830895E0E8F0E080818F7D80830895AC
:101F5000E0E8F0E08081877F8083089584B58F7703
:101F600084BD089584B58F7D84BD0895E0E9F0E0D7
:101F700080818F7780830895E0E9F0E080818F7D14
:101F800080830895E0E9F0E08081877F8083089571
:101F9000E0ECF0E080818F7780830895E0ECF0E062
:101FA00080818F7D80830895E2ECF0E08081877FDF
:101FB00080830895CF93DF9390E0FC01EC5FFC4FAA
:101FC0002491FC01ED5DFC4F8491882379F190E030
:101FD000880F991FFC01E25AFC4FA591B491FC01B6
:101FE000E05BFC4FC591D49161110CC09FB7F89490
:101FF0008C91E22FE0958E238C932881E223E88355
:102000009FBF14C0623061F49FB7F8948C91322F57
:10201000309583238C93E881E22BE8839FBF06C031
:102020008FB7F894EC91E22BEC938FBFDF91CF91B7
:1020300008951F93CF93DF93282F30E0F901EB51E0
:10204000FD4F8491F901EC5FFC4F1491F901ED5DB6
:10205000FC4FC491CC23D1F0D62F81110E94910F57
:10206000EC2FF0E0EE0FFF1FE05BFC4FA591B49169
:102070008FB7F894D11106C09C91E12FE095E92328
:10208000EC9303C0EC91E12BEC938FBFDF91CF91E8
:102090001F910895CF93DF93282F30E0F901EB5182
:1020A000FD4F8491F901EC5FFC4FD491F901ED5D96
:1020B000FC4FC491CC2391F081110E94910FEC2F21
:1020C000F0E0EE0FFF1FEE5BFC4FA591B491EC9199
:1020D000ED2381E090E021F480E002C080E090E018
:1020E000DF91CF91089520910201309103012617CD
:1020F00037072CF0682F8DEA92E00E948509089539
:102100000F931F93CF93DF9320910201309103012E
:10211000261737078CF0009779F0EC012196FC0127
:102120008491882349F08B01B8010E947310FE014D
:10213000849121968111F8CFDF91CF911F910F915A
:1021400008952091020130910301261737073CF0D2
:10215000682F4AE050E08DEA92E00E943F0A08951D
:1021600060E870E083EB93E00E948010089560E8DF
:1021700070E084EA93E00E948010089560E870E0C7
:1021800089E993E00E9480100895CF93C82F90E0D2
:102190009595879595958795959587959595879527
:1021A000982F9F7080E3890F8A3310F087E3890F9F
:1021B00060E870E00E947310CF7080E38C0F8A3368
:1021C00010F087E38C0F60E870E00E94731060E805
:1021D00070E08CE693E00E948010CF910895CF9339
:1021E000C82F0E94B0108C2F0E94C510CF91089567
:1021F000EF92FF920F931F93CF93DF937C018B019C
:10220000CCE0D0E0C7010C2E02C0969587950A94C9
:10221000E2F7982F9F7080E3890F8A3310F087E3ED
:10222000890FB8010E9473102497CC3F8FEFD80715
:1022300049F7DF91CF911F910F91FF90EF90089593
:102240000F931F93CF93DF938C01EB0160E870E055
:1022500086E793E00E94801060E870E0C8010E9469
:10226000F81060E870E08FE693E00E94801060E86C
:1022700070E0CE010E94F810DF91CF911F910F9175
:102280000895DC01662331F01D968C911D9768132B
:1022900003C010C006960895FD01729622E0908159
:1022A000691729F02F5F35962031C9F711C0222315
:1022B00091F001C021E0CD01069630E0A901440F64
:1022C000551F440F551F240F351F820F931F08956C
:1022D00080E090E0089580E090E00895CF93DF9350
:1022E000EC01862F807809F06BC0283008F074C0AC
:1022F000442309F469C09D81973009F065C06CC022
:102300003C91332329F09F5F15969031C9F764C043
:10231000992309F457C001C091E0611130C04423F2
:1023200091F0292F30E0F901EE0FFF1FEE0FFF1F94
:102330002E0F3F1FFE01E20FF31F81E480878D8186
:102340008F5F8D830EC0292F30E0F901EE0FFF1F44
:10235000EE0FFF1F2E0F3F1FFE01E20FF31F81E064
:102360008087292F30E0F901EE0FFF1FEE0FFF1FCE
:102370002E0F3F1FFE01E20FF31F80852DC0562F49
:102380005770550F550F550F442341F050648D8100
:102390008F5F8D838770587F582B03C02770587BC1
:1023A000522B292F30E0F901EE0FFF1FEE0FFF1F18
:1023B0002E0F3F1FFE01E20FF31F5087852F0CC029
:1023C00080E00AC0832F08C09D85992309F4A4CF1B
:1023D000DE01529692E094CFDF91CF910895DC0117
:1023E0008CE391E011969C938E9315961C92159711
:1023F00018961C92189781E019968C9319971A9643
:102400001C921A979D012E5F3F4F17963C932E9377
:10241000169712961C92129788E013968C93139736
:102420008CE314968C931497FD013B96AD014A5AA8
:102430005F4F91E01282938314823183208335961B
:10244000E417F507B9F7AA58BF4F1C9281E18093B2
:102450001B040895DC01662331F01D968C911D97B5
:10246000681303C010C016961BC0FD01729692E05F
:102470003081631729F09F5F35969031C9F72AC0E4
:10248000992359F101C091E01696292F30E0C90136
:10249000880F991F880F991F280F391FA20FB31F8C
:1024A0001097F1F0ED91FC9111973097E1F01396B0
:1024B0002C912223D9F080814817D9F080E003C005
:1024C00090819417C9F033968F5F8213F9CF80E023
:1024D00090E0089580E090E0089580E090E0089515
:1024E00080E090E0089580E090E0089580E090E042
:1024F00008958E2F9F2F08958E2F9F2F0895CF938D
:10250000DF93FC01E901209761F1662321F08585C5
:10251000681303C010C036961CC0DF01529692E0CB
:102520003C91631729F09F5F15969031C9F71BC046
:102530009923D9F001C091E0DF011696E92FF0E070
:10254000CF01880F991F880F991FE80FF91FEA0F15
:10255000FB1F309761F06283D183C083438380E0A7
:1025600007C088ED05C086ED03C086ED01C086ED8D
:10257000DF91CF9108959F92AF92BF92CF92DF9259
:10258000EF92FF920F931F93CF93DF935C01942EF2
:10259000122FD0E0E62EF12CEE0CFF1CE80EF91EF7
:1025A00086E5E80EF11CC42ED12CABE2CA0ED11C7C
:1025B000CC0CDD1CCA0CDB1C01C0DF5FF701808185
:1025C0009181DC01ED91FC910280F381E02D202FBF
:1025D000412F692D0995803ED1F491100CC041E046
:1025E00068EEC5010E943A0366E670E080E090E084
:1025F0000E94EA0E1AC0F60180819181DC01ED9102
:10260000FC910284F385E02D612F09950EC08D3079
:1026100051F4D33008F047C064E670E080E090E009
:102620000E94EA0ECACF811141C0F70180819181D9
:10263000DC01ED91FC910190F081E02D202F412FE4
:10264000692D0995C82F8D3049F4D33048F464E6DC
:1026500070E080E090E00E94EA0EAFCF882329F17D
:1026600091100DC041E068EEC5010E943A0366E694
:1026700070E080E090E00E94EA0E8C2F17C0892D58
:1026800090E08B96880F991FF501E80FF91F808164
:102690009181DC01ED91FC910284F385E02D612FA5
:1026A00009958C2F03C08DE001C080E0DF91CF91B0
:1026B0001F910F91FF90EF90DF90CF90BF90AF9060
:1026C0009F9008956F927F928F929F92BF92CF9228
:1026D000DF92EF92FF920F931F93CF93DF937C01D2
:1026E000662329F0FC018585681304C012C0EC0143
:1026F00026961CC0D7015296E2E09C91691729F0FA
:10270000EF5F1596E031C9F75CC0EE2309F45BC0BA
:1027100001C0E1E0F0E0EF01CC0FDD1FCC0FDD1FC9
:10272000EC0FFD1FE7012696CE0FDF1F209709F45F
:102730004CC088819981892B09F449C06901B62E62
:10274000C7010E942A12F60191838083009709F441
:1027500040C0FC0182818695869590E0803191058C
:1027600014F08FE090E041E050E060E070E03A016A
:102770004B0104C0660C771C881C991C8A95D2F703
:10278000D401C3010197F801918380834B2D60EE42
:10279000C7010E943A0368EDC7010E9446039C816D
:1027A000992339F0F701EA58FF4F40814260482BE6
:1027B00002C0482F497F68EDC7010E943A0380E0BC
:1027C00009C086ED07C086ED05C086ED03C087ED24
:1027D00001C08BEDDF91CF911F910F91FF90EF9092
:1027E000DF90CF90BF909F908F907F906F900895D3
:1027F0004F925F926F928F929F92AF92BF92DF92B1
:10280000EF92FF920F931F93CF93DF93EC01662E0D
:10281000D42E79010E94B80E4B015C0128E8820E8B
:1028200023E1921EA11CB11C412C512C00E010E0B0
:10283000D6280E94B80EDC01CB0188199909AA0993
:10284000BB098AF54D2D60EFCE010E943A030E942C
:10285000B80EDC01CB0188199909AA09BB095AF401
:1028600068ECCE010E94460388238CF740E868ECB0
:10287000CE010E943A0368EFCE010E944603182F52
:102880001F70143019F01E3059F00DC08FEF481A28
:10289000580AE114F10469F24E145F0451F603C0C2
:1028A0000F5F033031F6812FDF91CF911F910F9190
:1028B000FF90EF90DF90BF90AF909F908F906F90C0
:1028C0005F904F9008952F923F924F925F926F9238
:1028D0007F928F929F92AF92BF92CF92DF92EF92B0
:1028E000FF920F931F93CF93DF9300D000D000D0BF
:1028F000CDB7DEB76C014B013A013E832D83D90180
:10290000AD90BC901197FB0131801D921C92828189
:1029100081FD02C040E101C040E268EEC6010E94B4
:102920003A036894442443F82E2D30E040E050E010
:1029300029833A834B835C832A2C9301D4014C91E5
:1029400060E0C6010E94F813582EB6E08B1317C042
:1029500068EFC6010E9446038295817091E0982736
:10296000F401828190FB81F9828381FD02C040E104
:1029700001C040E268EEC6010E943A03DECF811139
:102980006AC068ECC6010E94460382FF60C060E333
:10299000C6010E944603F82E90E0A816B90608F476
:1029A000F22CAD81BE818D919C91F501E81BF90B54
:1029B000CF0112F480E090E02F2D30E02817390786
:1029C0000CF4C901282F2E984EBC0DB407FEFDCF84
:1029D000222389F0F801822F1EBC81500DB407FE1E
:1029E000FDCF9EB591938111F7CF8FEF820F90E0CD
:1029F0000196080F191F2E9A44E068ECC6010E9448
:102A00003A03ED81FE81808191818F0D911D91832B
:102A10008083F31418F08A159B0578F068EFC601DF
:102A20000E94460382958170D40112969C91129760
:102A300080FB91F912969C930EC0EE2009F47DCF95
:102A400069817A818B819C810E94EA0E76CF0F2E5C
:102A5000F0EF5F2EF02D852D26960FB6F894DEBF91
:102A60000FBECDBFDF91CF911F910F91FF90EF90DF
:102A7000DF90CF90BF90AF909F908F907F906F909E
:102A80005F904F903F902F900895D9012E986260EB
:102A90006EBD442379F0F901942F0DB407FEFDCFEC
:102AA00031913EBD9150C9F7415050E04F5F5F4FAB
:102AB000A40FB51F0DB407FEFDCF2E9ACD010895CA
:102AC0002F923F924F925F926F927F928F929F923E
:102AD000AF92BF92CF92DF92EF92FF920F931F932C
:102AE000CF93DF93CDB7DEB727970FB6F894DEBF4D
:102AF0000FBECDBF9F838E837B015A016901FB010D
:102B000091808FEF890D803408F0DEC00E94B80EEE
:102B10002B013C01F8E84F0EF3E15F1E611C711CB4
:102B2000F701828180FD02C040E401C040E868EE08
:102B30008E819F810E943A03C114D10409F4B4C06C
:102B4000892D90E09D838C83EC81FD81FA83E9835C
:102B5000CE16DF0610F4DA82C982F981FB83980170
:102B60004F2F60E18E819F810E944515498168E366
:102B70008E819F810E943A03F7014081406260EF9D
:102B80008E819F810E943A0368EC8E819F810E9412
:102B900046038823CCF740E868EC8E819F810E9431
:102BA0003A0368EF8E819F810E9446038F70382E12
:102BB000812C912C212C332009F46BC00E94B80E7B
:102BC000DC01CB0184199509A609B7090AF061C097
:102BD000F6E03F16A9F02EE0321669F084E03812D4
:102BE00064C09FEF891A990AA114B10411F18A14E3
:102BF0009B04F9F45AC02394E3E02E121AC055C086
:102C000068EF8E819F810E94460385FB882780F9AB
:102C1000F1E08F27F701928180FB90F9928390FD7C
:102C200002C040E401C040E868EE8E819F810E94AE
:102C30003A0340E068E38E819F810E943A03F801E5
:102C4000408160E18E819F810E943A034B8168E35D
:102C50008E819F810E943A03F7014081406260EFBC
:102C60008E819F810E943A0368EC8E819F810E9431
:102C700046038823CCF740E868EC8E819F810E9450
:102C80003A0368EF8E819F810E9446038F70382E31
:102C900092CF89819A81C81AD90A080F191FC114C5
:102CA000D10409F051CF01C0312C68EF8E819F8192
:102CB0000E94460385FB882780F9F701928180FBFB
:102CC00090F99283832D01C08AED27960FB6F89470
:102CD000DEBF0FBECDBFDF91CF911F910F91FF904F
:102CE000EF90DF90CF90BF90AF909F908F907F90AC
:102CF0006F905F904F903F902F900895AF92BF924A
:102D0000CF92DF92EF92FF920F931F93CF93DF93B7
:102D100000D000D0CDB7DEB77C01690158011A821E
:102D200019821C821B828E010D5F1F4F9E012F5F37
:102D30003F4F0E946213811109C04B815C81698100
:102D40007A8185019601C7010E9460150F900F904E
:102D50000F900F90DF91CF911F910F91FF90EF9007
:102D6000DF90CF90BF90AF9008952F923F924F92F7
:102D70005F926F927F928F929F92AF92BF92CF920B
:102D8000DF92EF92FF920F931F93CF93DF93CDB714
:102D9000DEB760970FB6F894DEBF0FBECDBF3C0123
:102DA000F42E522E402E3C2CCDA0DEA01C861B867D
:102DB0001E861D868E01035F1F4F9E01255F3F4FBC
:102DC0000E9462138111B1C05B824C82ED823E820F
:102DD000B886AF829A8689869E012D5F3F4F48E074
:102DE00060E2C3010E9445152D853E854F2D60E1AF
:102DF000C3010E94F813811198C0852D807890E05E
:102E00002FA138A5232B09F472C0181619060CF04F
:102E10005AC0EB85FC858281826082838114910493
:102E200009F474C054015524539404C0A114B1048E
:102E300009F474C0D88ACF864D855E856B857C8504
:102E4000E12C0FA118A59E01215F3F4FC3010E94F5
:102E50006314182F863099F42B843C8468EFC301E7
:102E60000E94460385FB882780F98525D1011296AB
:102E70009C91129780FB91F912969C93D7CF811168
:102E800054C0E9A5FAA53097A9F00190F081E02D92
:102E90000190F081E02DC4018A199B099A838983EE
:102EA0006F8578899E012F5F3F4F4FA158A589A557
:102EB0009AA509958F859889A81AB90A8C159D0538
:102EC00008F0B4CF23C06B857C85DB0112968C9112
:102ED0001297816012968C934D855E850FA118A57F
:102EE0009601C3010E9460158823D9F01EC02D856C
:102EF0003E851816190614F060E801C060EA4F2DEF
:102F0000C3010E94F81311C0812F0FC02D853E858B
:102F100060EAF5CF2D853E8560EAF1CF1111F4CF3F
:102F2000F9CF2D853E8560E8EACF60960FB6F8941C
:102F3000DEBF0FBECDBFDF91CF911F910F91FF90EC
:102F4000EF90DF90CF90BF90AF909F908F907F9049
:102F50006F905F904F903F902F9008958F929F9227
:102F6000AF92BF92CF92EF920F931F931F921F9237
:102F70001F930F933F932F93822E932EA12CB12C4E
:102F8000CC24C394E12C06E020E80E94B5160F90F3
:102F90000F900F900F900F900F901F910F91EF9047
:102FA000CF90BF90AF909F908F9008958F929F92F7
:102FB000AF92BF92CF92EF920F93CF931F921F9237
:102FC0001F921F921F921F92812C912CA12CB12C29
:102FD000C12CE22E05E020E00E94B516C82F6CE25D
:102FE00071E080E090E00E94EA0E0F900F900F9049
:102FF0000F900F900F908C2FCF910F91EF90CF905B
:10300000BF90AF909F908F9008958F929F92AF92B4
:10301000BF92CF92EF920F931F921F921F921F9217
:103020001F921F92812C912CA12CB12CC12CE22E2D
:1030300009E020E00E94B5160F900F900F900F90BE
:103040000F900F900F91EF90CF90BF90AF909F9007
:103050008F9008950F931F93CF93C82F8B0190E00B
:103060009595879595958795959587959595879548
:10307000982F9F7080E3890F8A3310F087E3890FC0
:10308000B8010E947310CF7080E38C0F8A3310F068
:1030900087E38C0FB8010E947310CF911F910F919D
:1030A00008957F928F929F92AF92BF92CF92DF92BC
:1030B000EF92FF920F931F93CF93DF9300D000D036
:1030C000CDB7DEB76C01762EF42E590148011A8275
:1030D00019821C821B828E010D5F1F4F9E012F5F84
:1030E0003F4F0E946213182F8823A9F161E870E016
:1030F0008DE094E00E94801061E870E0812F0E94D2
:103100002A1861E870E08AE094E00E94801061E88B
:1031100070E088EE93E00E94801061E870E0872DF7
:103120000E942A1861E870E085EE93E00E9480100A
:1031300061E870E085EC93E00E94801061E870E047
:103140008F2D0E942A1861E870E082EC93E00E94C3
:103150008010812F09C04B815C8169817A81840153
:103160009501C6010E9463140F900F900F900F906D
:10317000DF91CF911F910F91FF90EF90DF90CF9053
:10318000BF90AF909F908F907F9008952F923F9225
:103190004F925F926F927F928F929F92AF92BF9267
:1031A000CF92DF92EF92FF920F931F93CF93DF9313
:1031B000CDB7DEB76A970FB6F894DEBF0FBECDBFAE
:1031C000662309F45DC41C01262F30E03B872A8763
:1031D000C901880F991F880F991F820F931FF10152
:1031E000E80FF91F2085822F8770888F26FFBEC3C6
:1031F0009924939444244394510132E0A30EB11CCA
:103200008FEF890D8F3008F0C6C38FE0891508F461
:10321000A5C3892D90E0FC01EE0FFF1FEE0FFF1FED
:103220008E0F9F1FF101E80FF91F80858695869507
:1032300086958770988D981316C01BC0822F90E0DA
:10324000FC01EE0FFF1FEE0FFF1F8E0F9F1FF101FE
:10325000E80FF91F80858695869586958770E88D9D
:103260008E1731F001C0292D2F5F203138F376C33E
:10327000922E911003C072C399249394292D30E0AB
:103280003F872E87C901880F991F880F991F820FCA
:10329000931FF101E80FF91F2085822F87708F8B14
:1032A00026FF4AC331E03B838B8181508F3008F089
:1032B00080C38B81803108F037C390E0FC01EE0FB2
:1032C000FF1FEE0FFF1F8E0F9F1FF101E80FF91F69
:1032D000808586958695869587709F89981316C0F8
:1032E0001BC0822F90E0FC01EE0FFF1FEE0FFF1FAF
:1032F0008E0F9F1FF101E80FF91F80858695869537
:1033000086958770EF898E1731F001C02B812F5F72
:10331000203138F309C32B83FB81F11103C004C3AF
:1033200021E02B839B81892F90E09D878C87880FDC
:10333000991F880F991FEC85FD858E0F9F1FF10146
:10334000E80FF91F2085822F87708C8B26FFDAC249
:10335000F1E0FC838C8181508F3008F037C32C81E1
:10336000203108F0C7C2822F90E0FC01EE0FFF1F52
:10337000EE0FFF1F8E0F9F1FF101E80FF91F8085D1
:1033800086958695869587703C89381316C01BC034
:10339000822F90E0FC01EE0FFF1FEE0FFF1F8E0F3C
:1033A0009F1FF101E80FF91F808586958695869508
:1033B00087709C89891731F001C02C812F5F2031E3
:1033C00038F398C22C83EC81E11103C093C2F1E081
:1033D000FC833C81232F30E0398B288BC901880F77
:1033E000991F880F991F820F931FF101E80FF91F92
:1033F0002085822F8770898726FF6AC281E08D83AE
:103400008D8181508F3008F0EEC29D81903108F09F
:1034100057C2892F90E0FC01EE0FFF1FEE0FFF1F38
:103420008E0F9F1FF101E80FF91F80858695869505
:1034300086958770E985E81315C01BC0822F90E040
:10344000FC01EE0FFF1FEE0FFF1F8E0F9F1FF101FC
:10345000E80FF91F808586958695869587703817C1
:1034600039F002C039852D812F5F203138F328C211
:103470002D83FD81F11103C023C221E02D839D81A5
:10348000892F90E09B8B8A8B880F991F880F991F3B
:10349000EA89FB898E0F9F1FF101E80FF91F208534
:1034A000822F8770888726FFF9C155245394752C85
:1034B0008FEF870D8F3008F0A4C2FFE0F71508F4F6
:1034C000E5C1872D90E0FC01EE0FFF1FEE0FFF1FFF
:1034D0008E0F9F1FF101E80FF91F80858695869555
:1034E000869587702885281315C01BC0822F90E011
:1034F000FC01EE0FFF1FEE0FFF1F8E0F9F1FF1014C
:10350000E80FF91F80858695869586958770381710
:1035100039F002C03885272D2F5F203138F3B6C12E
:10352000722E711003C0B2C177247394872D90E07E
:103530009E8B8D8B880F991F880F991FED89FE89AF
:103540008E0F9F1FF101E80FF91F2085822F8770D2
:1035500026FF8AC155245394F72CE82E8FEF850D52
:103560008F3008F05DC2FFE0F51508F475C1852DB8
:1035700090E0FC01EE0FFF1FEE0FFF1F8E0F9F1F4D
:10358000F101E80FF91F80858695869586958770ED
:103590008E1115C01CC0822F90E0FC01EE0FFF1FA2
:1035A000EE0FFF1F8E0F9F1FF101E80FF91F80859F
:1035B00086958695869587708E1541F001C0252DDC
:1035C0002F5F203140F37F2C6E2C48C1522E5110BA
:1035D00005C07F2C6E2C42C155245394252D30E01C
:1035E0003F832E83C901880F991F880F991F820F6F
:1035F000931FF101E80FF91F2085822F8770882E15
:1036000026FF18C111E06F2C8FEF810F8F3008F06B
:1036100014C2103108F007C1812F90E0FC01EE0FB9
:10362000FF1FEE0FFF1F8E0F9F1FF101E80FF91F05
:1036300080858695869586958770881114C018C0F8
:10364000812F90E0FC01EE0FFF1FEE0FFF1F8E0F8A
:103650009F1FF101E80FF91F808586958695869555
:103660008770881529F01F5F103150F3F62CDCC0ED
:10367000111103C0F62CD8C011E0812F90E09A837D
:103680008983880F991F880F991FE981FA818E0F0E
:103690009F1FF101E80FF91F2085822F8770F82EF8
:1036A00026FFAEC001E08FEF800F8F3008F0D0C151
:1036B000003108F09FC0802F90E0FC01EE0FFF1F4B
:1036C000EE0FFF1F8E0F9F1FF101E80FF91F80857E
:1036D00086958695869587708F1114C017C0802FA8
:1036E00090E0FC01EE0FFF1FEE0FFF1F8E0F9F1FDC
:1036F000F101E80FF91F808586958695869587707C
:103700008F1521F00F5F003150F374C0011102C01A
:1037100071C001E0C02ED12CC601880F991F880FFF
:10372000991F8C0D9D1DF101E80FF91F2085322F87
:1037300037703A8F26FF4EC081E0898F898D815086
:103740008F3008F090C1998D9031E0F5892F90E08D
:10375000FC01EE0FFF1FEE0FFF1F8E0F9F1FF101E9
:10376000E80FF91F80858695869586958770EA8D86
:103770008E1317C01CC0F98D8F2F90E0FC01EE0F47
:10378000FF1FEE0FFF1F8E0F9F1FF101E80FF91FA4
:10379000808586958695869587702A8D821739F063
:1037A00000C0998D9F5F998F903128F30BC0398DA0
:1037B000311103C007C091E0998F698DC1010E944A
:1037C000C618BCCFF1018581FA8D8F1303C08150DB
:1037D000F1018583F601EE0FFF1FEE0FFF1FCE0EE6
:1037E000DF1EF101EC0DFD1D108641861286B782A9
:1037F000A68259CFF10185818F1102C08150858346
:10380000E981FA81EE0FFF1FEE0FFF1F89819A8178
:103810008E0F9F1FF101E80FF91F10864186128657
:10382000B782A682F1CEF62CF1018581881102C003
:1038300081508583EE81FF81EE0FFF1FEE0FFF1F8A
:103840002E813F81E20FF31FE20DF31D10864186AA
:103850001286B782A68282CE7F2C6E2CF1018581E2
:10386000861102C081508583ED89FE89EE0FFF1F0E
:10387000EE0FFF1F2D893E89E20FF31FE20DF31DAE
:10388000108641861286B782A68212CEF10185810A
:10389000F8858F1303C08150F1018583EA89FB8984
:1038A000EE0FFF1FEE0FFF1F2A893B89E20FF31F68
:1038B000E20DF31D108641861286B782A682A0CD46
:1038C000F1018581F9858F1303C08150F101858352
:1038D000E889F989EE0FFF1FEE0FFF1F288939894C
:1038E000E20FF31FE20DF31D108641861286B782A8
:1038F000A68230CDF1018581FC898F1303C08150F0
:10390000F1018583EC85FD85EE0FFF1FEE0FFF1F94
:103910002C853D85E20FF31FE20DF31D10864186D5
:103920001286B782A682C0CCF1018581FF898F13F0
:1039300003C08150F1018583EE85FF85EE0FFF1FE7
:10394000EE0FFF1F2E853F85E20FF31FE20DF31DE3
:10395000108641861286B782A68252CCF1018581FB
:10396000F88D8F1303C08150F1018583EA85FB85B3
:10397000EE0FFF1FEE0FFF1F2A853B85E20FF31F9F
:10398000E20DF31D108681E081871286C101029647
:103990009783868375C0F101858586958695869582
:1039A0008770F88D8F1709F467CC99249394292D8B
:1039B0005BCCF10185858695869586958770FF8914
:1039C000F81709F4ADCC21E02B83A1CCF10185855A
:1039D0008695869586958770FC89F81709F4F7CC4B
:1039E00021E02C83EBCCF101858586958695869523
:1039F0008770F985F81709F440CD21E02D833F2F1A
:103A000033CDF10185858695869586958770F885F5
:103A1000F81709F489CD772473943F2F272D7CCD97
:103A2000F101858586958695869587708E1509F4B2
:103A3000D3CD55245394252DC3CDF101858586958D
:103A4000869586958770881509F416CE11E00BCE01
:103A5000F10185858695869586958770F81609F417
:103A600058CE01E04FCEF1018585869586958695E5
:103A70008770FA8DF81709F49ECE21E0298F91CE38
:103A80006A960FB6F894DEBF0FBECDBFDF91CF911F
:103A90001F910F91FF90EF90DF90CF90BF90AF906C
:103AA0009F908F907F906F905F904F903F902F905E
:103AB0000895CF92DF92EF920F931F93CF93DF93EE
:103AC000DC01613431F01D968C911D97681316C08E
:103AD00024C0FC013B96AC014A5A5F4F91E09D0126
:103AE0002E5F3F4F12829383148231832083359659
:103AF000E417F507B9F715961C9282C0FD0172967E
:103B0000C2E09081691729F0CF5F3596C031C9F7BF
:103B100077C0CC2309F474C001C0C1E08D01CC2E64
:103B2000D12CC601880F991F880F991F8C0D9D1DE0
:103B3000FD01E80FF91F2085822F8770E82E26FFF0
:103B400042C0C1E08FEF8C0F8F3008F04FC0C03102
:103B5000A0F58C2F90E0FC01EE0FFF1FEE0FFF1F72
:103B60008E0F9F1FF801E80FF91F808586958695B7
:103B700086958770E81214C017C02C2F30E0F90129
:103B8000EE0FFF1FEE0FFF1F2E0F3F1FF801E20F7A
:103B9000F31F908596959695969597709E1521F0B2
:103BA000CF5FC03150F309C0C11102C006C0C1E0EF
:103BB0006C2FC8010E94C618C5CFF80185818E11EF
:103BC00002C081508583C601880F991F880F991FF5
:103BD000EC01CC0DDD1DC00FD11F188681E0898757
:103BE0001A860E5F1F4F1F830E830AC0F80185855A
:103BF00086958695869587708E15C9F2C1E0D0CFDF
:103C0000DF91CF911F910F91EF90DF90CF900895AA
:103C1000AF92BF92DF92EF920F931F93CF93DF93F8
:103C2000EC01DC01169609F408C18E819F81892B75
:103C300009F405C12A87162F107809F00AC1483007
:103C400008F007C18D85882379F0FE01729692E015
:103C50008081882329F09F5F35969031C9F7FBC09A
:103C6000992309F4F6C001C091E0611110C0692FD9
:103C700070E0FB01EE0FFF1FEE0FFF1F6E0F7F1FA7
:103C8000FE01E60FF71F81E0808701E017C0677033
:103C9000042F0770660F660F660F062B692F70E002
:103CA000FB01EE0FFF1FEE0FFF1F6E0F7F1FFE01C8
:103CB000E60FF71F0087002309F4C3C08D85801726
:103CC00079F0FE01729682E09081901729F08F5F63
:103CD00035968031C9F7B7C0882309F4B6C001C052
:103CE00081E090E0AC01440F551F440F551F840F35
:103CF000951FA80FB91F109709F4A9C014962C930B
:103D0000202F40E060E0CE010E94D617E82E8823E5
:103D100009F4ACC0013421F08D85801315C023C097
:103D2000FE013B96AE014A5A5F4F21E0CE0102965A
:103D30001282238314829183808335964E175F0706
:103D4000B9F71D821E2D92C0FE01729682E090810D
:103D5000901729F08F5F35968031C9F76CC08823A2
:103D600009F469C001C081E0A82EB12CC501880FFB
:103D7000991F880F991F8A0D9B1DFE01E80FF91FDF
:103D80002085822F8770D82E26FF41C011E08FEF4B
:103D9000810F8F3008F061C01031A0F5812F90E0C5
:103DA000FC01EE0FFF1FEE0FFF1F8E0F9F1FFE0186
:103DB000E80FF91F80858695869586958770D812BD
:103DC00014C017C0812F90E0FC01EE0FFF1FEE0F13
:103DD000FF1F8E0F9F1FFE01E80FF91F808586953C
:103DE0008695869587708D1521F01F5F103150F3F1
:103DF00009C0111102C006C011E0612FCE010E945E
:103E0000C618C5CF8D818D1102C081508D83F501FB
:103E1000EE0FFF1FEE0FFF1F8F010A0D1B1DFE018E
:103E2000E00FF11F108681E0818712862296D783EA
:103E3000C6831E2D1BC01E2D19C016ED17C017ED11
:103E400015C014ED13C016ED11C016ED0FC016ED20
:103E50000DC014ED0BC014ED09C08D8586958695B7
:103E600086958770D81641F211E0BFCF812FDF9180
:103E7000CF911F910F91EF90DF90BF90AF90089579
:103E80002F923F924F925F926F927F928F929F926A
:103E9000AF92BF92CF92DF92EF92FF920F931F9358
:103EA000CF93DF93CDB7DEB768970FB6F894DEBF38
:103EB0000FBECDBF5C01762E642E922E1B8A88E049
:103EC0008C8B8CE38D8BD501ED91FC910190F08171
:103ED000E02D60E0C50109957C01009709F4BFC0A1
:103EE000FC01C080D180CE0143969183808394826F
:103EF0008E010F5F1F4F22E130E040E060E0C5011E
:103F00000E94AE17D701CD92DC928111ADC0E98538
:103F1000FA85FF8BEE8B4B845C84FD81F88F8E805D
:103F2000650186E5C80ED11C760110E0D7018D91A0
:103F30009C910097E1F1DC01ED91FC910084F18509
:103F4000E02D0995811133C0F70180819181DC0159
:103F5000ED91FC910088F189E02D682D0995882369
:103F600031F1F70180819181DC01ED91FC910484B4
:103F7000F585E02DA2016E897F89099581110DC01B
:103F8000F70180819181DC01ED91FC910684F78538
:103F9000E02D688D0995882351F0092D262D472D98
:103FA000612FC5010E94BB12813D09F05AC01F5FFD
:103FB000B2E0EB0EF11C103109F0B8CF10E0F601C1
:103FC000808191810097E9F1DC01ED91FC91008401
:103FD000F185E02D0995811134C0F6018081918130
:103FE000DC01ED91FC910088F189E02D682D0995A7
:103FF0008823E1F0F60180819181DC01ED91FC9153
:104000000484F585E02DA2016E897F8909958111CF
:1040100018C0F60180819181DC01ED91FC9106844C
:10402000F785E02D688D099581110BC0092D262D8E
:10403000472D612FC5010E94BB12982F977F913D9C
:1040400099F41F5FB2E0CB0ED11C103109F0B7CF4D
:10405000292D462D672DC5010E94081E05C086ED3D
:1040600003C0103108F0AACF68960FB6F894DEBFEF
:104070000FBECDBFDF91CF911F910F91FF90EF90B9
:10408000DF90CF90BF90AF909F908F907F906F9078
:104090005F904F903F902F900895BF92CF92DF9204
:1040A000EF92FF920F931F93CF93DF936C011D99B3
:1040B0000FC068EC0E94460385FF05C0C6010E9440
:1040C000520340E201C040E068ECC6010E943A039E
:1040D00080918501813031F050F08230A9F0833039
:1040E00081F02CC083E180931B04B12C2AC0809105
:1040F0001B04807F803121F181E180931B04B12C6E
:1041000020C0BB24B39401C0B12C80911B04807FDC
:104110008031B9F40E94B80EDC01CB0188539F4F67
:10412000AF4FBF4F8093170490931804A0931904C6
:10413000B0931A0480E280931B0403C0B12C01C029
:10414000B12C760186E5E80EF11C86010A581F4F56
:10415000E70189919991009739F0DC01ED91FC918B
:104160000680F781E02D0995C017D10791F780915E
:104170001B04803409F446C040F4803241F180339E
:10418000C1F1813109F090C00AC0813509F467C0DE
:10419000803809F478C0803509F086C047C0F60140
:1041A000EA58FF4F1082F701819191917F010097AA
:1041B00039F0DC01ED91FC910480F581E02D099549
:1041C000E016F10681F782E180931B046DC00E9426
:1041D000B80E009117041091180420911904309121
:1041E0001A04DC01CB01801B910BA20BB30B0AF468
:1041F0005BC041E068EEC6010E943A0380E4809310
:104200001B0452C068EEC6010E94460380FD4CC0EC
:1042100068EDC6010E944603482F486068EDC6015C
:104220000E943A0380E580931B043EC068ECC601FF
:104230000E94460386FF38C081E580931B040E94DC
:10424000B80EDC01CB014496A11DB11D809317046B
:1042500090931804A0931904B0931A0425C00E94E7
:10426000B80E009117041091180420911904309190
:104270001A04DC01CB01801B910BA20BB30BA2F043
:1042800080E880931B042B2D40E060E0C6010E9473
:10429000401F882331F0823D39F080EA80931B046F
:1042A00003C080E980931B04DF91CF911F910F9190
:1042B000FF90EF90DF90CF90BF900895089580E039
:1042C000089581E00895FC0181850895FC0187A18E
:1042D00008956E3584E0780739F06D3A9BE17907EF
:1042E00019F06E32764151F4493197E0590741F0A7
:1042F00081E04139524029F080E0089580E008953E
:1043000081E00895CF93DF93EC011A821B821C8217
:104310001D821E828F819885DC01ED91FC910480C5
:10432000F581E02D6985099519861FA280E0DF914E
:10433000CF9108956F927F928F929F92AF92BF928A
:10434000CF92DF92EF92FF920F931F93CF93DF9361
:10435000CDB7DEB762970FB6F894DEBF0FBECDBF04
:104360007C01762E642E122FDC0119968C91882305
:1043700041F060E870E08CEA95E00E94801089EDE1
:104380009DC0F701A780B084D501ED91FC9101900B
:10439000F081E02D60E0C50109956C01009741F4C2
:1043A00060E870E088E995E00E94801086ED86C0A4
:1043B000FC01808091808114910441F460E870E0F8
:1043C00087E895E00E94801087ED78C0C7010A96C3
:1043D0009183808314838E010F5F1F4F22E130E0B1
:1043E00040E060E0F701878190850E94AE17182FAA
:1043F000D6018D929C9281114AC0C984DA848B8443
:104400009C84BEE5CB16B4E0DB0651F0EDEACE1697
:10441000EBE1DE0629F0FEE2CF16F6E1DF0651F40D
:1044200089E1881687E0980689F0A1E98A16A2E05A
:104430009A0661F060E870E08DE495E00E948010DB
:10444000B401C6010E94201111ED26C0D501ED91E5
:10445000FC910280F381E02D262D40E0672DC501FF
:104460000995F7018187811108C060E870E086E353
:1044700095E00E94801084ED21C08885838764E1E7
:1044800070E080E090E00E94EA0E80EE17C00E948B
:10449000EF101D3009F011EE60E870E081E195E069
:1044A0000E948010812F0E94C510D701ED91FC91D0
:1044B0000480F581E02DC7010995812F62960FB622
:1044C000F894DEBF0FBECDBFDF91CF911F910F914A
:1044D000FF90EF90DF90CF90BF90AF909F908F9024
:1044E0007F906F900895CF92DF92EF92FF920F939B
:1044F0001F93CF93DF93EC01022FEF80F884D70155
:10450000ED91FC910190F081E02D6985C70109953D
:104510006C01892B41F460E870E08DEF94E00E941B
:10452000801086EDC0C06CE271E080E090E00E94F7
:10453000EA0E298540E060E08F8198850E94D617B9
:10454000182F882359F160E870E081EF94E00E9411
:104550008010812F90E095958795959587959595F5
:10456000879595958795982F9F7080E3890F8A335B
:1045700010F087E3890F60E870E00E947310912FBC
:104580009F7080E3890F8A3310F087E3890F60E81A
:1045900070E00E947310F601148274C0D601149664
:1045A0001C92D701ED91FC910190F081E02D69857D
:1045B000C7010995009741F460E870E08DED94E043
:1045C0000E94801086ED6FC0FC0104837E01FAE03A
:1045D000EF0EF11C970141E069858F8198850E945B
:1045E0007F12182F811149C041E04D8733E027E049
:1045F00090E29E8784E08F87488B998B8A8B3B8BD8
:104600009C8B8D8B3E8B9F8B888F35E0398F9A8F5B
:104610008B8F3C8F9D8F8E8F2F8F98A389A32AA37A
:104620009BA38CA3970149E069858F8198850E949F
:104630007F12182F811121C068EC70E080E090E0BB
:104640000E94EA0E21E04A8569858F8198850E9443
:104650000518182F811114C060E870E088EB94E011
:104660000E94801081E08A838FA3CC57DF4F18828D
:1046700019821A821B8280E016C00E94B71002C005
:104680000E94BE1060E870E083E994E00E94801010
:10469000812F0E94C510E881F9810480F581E02D09
:1046A000CE010995812FDF91CF911F910F91FF903E
:1046B000EF90DF90CF900895FF920F931F93CF93C9
:1046C000DF9326E431E0FC01318320837087678328
:1046D000118617A2EC012A9620E030E06894FF24AE
:1046E000F3F80FE011E0F9011882211139C049C037
:1046F000AF01440F551FE40FF51FE80FF91FAA0F74
:10470000AA0F44854370A42BA4872F5F3F4F2396A5
:104710002930310541F76115710509F443C0FB01EA
:10472000EA5AFF4F20813181232B49F0329621E054
:1047300030E0D90141915191452B61F402C0A0E0D4
:10474000B0E09B96AA0FBB1FFB01EA0FFB1F9183F2
:10475000808328C02F5F3F4F2031310551F722C0A1
:104760001982D901AA0FBB1FA20FB31FA80FB91F2F
:104770001C964C911C974E7F4D7F1C964C93A12FFD
:10478000B7CFF982D901AA0FBB1FA20FB31FA80F81
:10479000B91F1C964C911C974E7F4D7F1C964C93D5
:1047A000A02FA6CFDF91CF911F910F91FF90089579
:1047B000683059F4E42FF0E03A96EE0FFF1FEE0F49
:1047C000FF1FE80FF91F218132C0693059F4E42F2F
:1047D000F0E03A96EE0FFF1FEE0FFF1FE80FF91FF4
:1047E000208125C0E62FF0E0EE0FFF1FE354FA4FC3
:1047F00025913491E42FF0E03A96EE0FFF1FEE0F73
:10480000FF1FE80FF91FC901A0E0B0E0DC01992704
:104810008827408151816281738184239523A62357
:10482000B72321E0892B8A2B8B2B09F420E0822FE0
:10483000089570E024E0429F600D711D1124685DB1
:104840007F4F660F771F860F971FFC018081918134
:1048500008950F931F93613031F058F0623029F0C2
:10486000633029F01CC064E005C066E003C068E066
:1048700001C062E08A01DC0170E0FB01EE0FFF1F66
:104880006E0F7F1FFC01E60FF71F428519966C9192
:10489000199717968D919C9118970E947E161F91DB
:1048A0000F910895AC0148555F4FFA01108231967F
:1048B0001082319628E02083319620EC208324E07A
:1048C00030E00E9429240895742FAC0148555F4FB1
:1048D000FA01108231961082319628E020833196B9
:1048E000262F2064208324E030E0672F0E942924B3
:1048F0000895611103C00E9464240895653041F059
:10490000E62FF0E0EF51FA4F64916C5F0E9464244F
:104910000895CF92DF92EF92FF921F93CF93DF9390
:10492000FC0127A1222309F442C0EC0160FF1CC056
:1049300088E0E855FF4F8083319610828FE03196F2
:10494000808380EC3196808310E07E01F8EAEF0EE0
:10495000F11C24E030E0A701612FCE010E94292440
:104960001F5F1430B1F723C0FC01E855FF4F1082E0
:10497000319610823196108280E4319680837E01D8
:1049800083E0E80EF11C10E06E01E8EACE0ED11CC7
:10499000F70181917F01882339F024E030E0A601FE
:1049A000612FCE010E9429241F5F143089F7DF9107
:1049B000CF911F91FF90EF90DF90CF900895362F09
:1049C000622FFC01E855FF4F1082DC01A755BF4F55
:1049D00021E02C9311962FE02C93119620EC2C9330
:1049E00011961C9211963C9311964C9327E030E05F
:1049F000AF010E9429240895DC019596ED91FC9168
:104A00009697309711F009950895662331F061303B
:104A100031F0623031F024E005C021E003C022E033
:104A200001C023E0462F622F0E94792408958F92BF
:104A30009F92AF92BF92CF92DF92EF92FF920F932D
:104A40001F93CF93DF93262F88373FEF930709F407
:104A500046C1FC01E857FF4F3081383009F04AC0A9
:104A600031963081462F50E0FC01E40FF51F638141
:104A7000361709F43FC0F22E8C01EF01338360E852
:104A800070E087E894E00E94801060E870E08F2D6D
:104A90000E94A1108B81882331F1F801E757FF4F65
:104AA0008081803829F0803C49F0803451F403C083
:104AB000C6E7D4E008C0C8E6D4E005C0CFE4D4E03F
:104AC00002C0C0E0D0E060E870E083E494E00E94BF
:104AD000801060E870E0CE010E9480106F2DC80148
:104AE0000E94FC24FCC060E870E082E394E00E9435
:104AF0008010F5C0FC01E757FF4F3081311119C01C
:104B000032963081432F437109F4E9C031964081D8
:104B1000423208F4E4C0622F70E0685C7F4F660F99
:104B2000771FFC01E60FF71F50E0532B51834083A2
:104B3000D6C0313009F0D3C0E22FF0E0DC01AE0F77
:104B4000BF1F13963C91311106C030E8DC01AE0F57
:104B5000BF1F13963C93DC01A157BF4F3C911197A7
:104B60004C9150E060E070E0742F66275527442791
:104B7000632B1296CC90D12CDC2CCC2411963C913A
:104B8000C32AE12CF12C4C295D296E297F29EC01E7
:104B9000A4E02A9FC00DD11D112448A759A76AA7D8
:104BA0007BA7DF011A96AA0FBB1FAA0FBB1FAA0F74
:104BB000BB1F7D01E80EF91E9C012D563F4FD90108
:104BC0002C9130E0322F22278C010E561F4FD80136
:104BD0001C91212BD7012D933C939F01220F331F52
:104BE000220F331F220F331F280F391F7901B2E51F
:104BF000EB0EF11CDC01AB56BF4FAC91B0E0DA2EEE
:104C0000CC248C010C561F4FD8011C91C12AD7010E
:104C1000CD92DC927901B4E5EB0EF11CDC01A956D2
:104C2000BF4FAC91B0E0DA2ECC248C010A561F4F56
:104C3000D8011C91C12AD701CD92DC922A5A3F4F4C
:104C4000DC01A756BF4FAC91B0E0FA2EEE248C01E8
:104C500008561F4FD8011C91E12AD901ED92FC9210
:104C6000C8ACD9ACEAACFBAC4C155D056E057F0554
:104C7000B1F1DC01AE0FBF1FA858BF4F21E02C934C
:104C8000DF019496AA0FBB1FA80FB91F97018601D9
:104C900000951095209530954901AA24BB248B01DD
:104CA00022273327082119210D931C93C11009C015
:104CB000442339F0DC01AE0FBF1FA058BF4F21E0E5
:104CC0002C93D11008C0552331F0E80FF91FE45898
:104CD000FF4F81E0808348AF59AF6AAF7BAFDF9170
:104CE000CF911F910F91FF90EF90DF90CF90BF90E9
:104CF000AF909F908F9008955F926F927F928F9266
:104D00009F92AF92BF92CF92DF92EF92FF920F935A
:104D10001F93CF93DF9300D0CDB7DEB7FC0127A15F
:104D2000211104C06EC0F394B39414C06C01BB2471
:104D3000B394F12C6894662465F8712C4C01F8E862
:104D40008F0E911C0F2EF3E05F2EF02D0F2EF5E04D
:104D5000AF2EF02DFF2009F440C081E0F816E9F0F5
:104D6000E2E0FE16E1F07A826982E12C84019E0184
:104D70002F5F3F4FF601478D6185878190850E94A7
:104D8000511889819A81892B21F06F2DC6010E94CB
:104D90001725F3E0FB1538F634C0852D01C08A2DA8
:104DA0007A82698290E0FC01EE0FFF1F8E0F9F1F39
:104DB000F601E80FF91FE12C84019E012F5F3F4FA0
:104DC0004285F6016185878190850E94511889810D
:104DD0009A81892B09F4A7CFD8CF7A826982E12CF6
:104DE00084019E012F5F3F4FF601458561858781D4
:104DF00090850E94511889819A81892B09F493CF5B
:104E0000C4CF80E00F900F90DF91CF911F910F9151
:104E1000FF90EF90DF90CF90BF90AF909F908F90DA
:104E20007F906F905F9008953F924F925F926F9244
:104E30007F928F929F92AF92BF92CF92DF92EF922A
:104E4000FF920F931F93CF93DF9300D01F92CDB7A4
:104E5000DEB76C01EDB6FEB68091E80083FF1DC1A0
:104E6000F601808190E020912604309127042817D4
:104E7000390709F012C180912304833009F4A6C0D8
:104E800030F4813071F0823009F4EBC006C18A3011
:104E900009F4CAC08B3009F4B2C0893009F0FDC0F2
:104EA00055C080912204813A09F0F7C0ADB6BEB674
:104EB0001A821982E2E2F4E0828113818B83F60187
:104EC0008085482F50E08DB79EB7841B950B0FB699
:104ED000F8949EBF0FBE8DBFEDB7FEB731964F0160
:104EE00060E070E0CF010E946C304FEF410F8E0107
:104EF0000F5F1F4F9401BE016D5F7F4FC6010E947F
:104F0000932FF60186819781009729F0408550E024
:104F1000B4010E9463301092E900E8EEF0E0808175
:104F2000877F80838B8181118093F10069817A81F1
:104F3000C4010E949E29E8EEF0E080818B77808397
:104F40000FB6F894BEBE0FBEADBEA7C080912204BE
:104F5000813209F0A2C06DB67EB6E2E2F4E00681CD
:104F60001781528043808DB79EB7801B910B0FB67F
:104F7000F8949EBF0FBE8DBFEDB7FEB731964F01BF
:104F80000F2EF8EEAF2EB12CF02DF5018081877F2A
:104F90008083B801C4010E94222AF50180818E77A6
:104FA000808321E0511001C020E030E0021B130B90
:104FB000280D391D4FEF440D652DC6010E94E12FCC
:104FC0000FB6F8947EBE0FBE6DBE67C080912204FE
:104FD000813A09F062C0E8EEF0E08081877F80834B
:104FE000808180FFFDCFF60181858093F100E8EE9E
:104FF000F0E080818E7780830E94D72B4EC0809115
:105000002204813209F049C0E8EEF0E08081877F18
:1050100080830E94D72B9091240481E0911101C0DC
:1050200080E0F601818739C0809122048132A9F5A0
:10503000E8EEF0E08081877F80830E94D72B80910B
:1050400024049091250488270024880F991F001CB0
:10505000880F991F001C892F902DF6019587848752
:105060001CC080912204813AC1F4E8EEF0E0808116
:10507000877F8083808180FFFDCFF60184859585C1
:1050800096958795969587958093F100E8EEF0E0E8
:1050900080818E7780830E94D72B0FB6F894FEBE56
:1050A0000FBEEDBE0F900F900F90DF91CF911F912B
:1050B0000F91FF90EF90DF90CF90BF90AF909F90B7
:1050C0008F907F906F905F904F903F900895FC017C
:1050D000399627E0DF011D922A95E9F721E0FC01CE
:1050E000218728E833E13587248723E0248361E0A2
:1050F00001960E94872B08955F926F927F928F9204
:105100009F92AF92BF92CF92DF92EF92FF920F9356
:105110001F93CF93DF9300D01F92CDB7DEB77C01F2
:10512000ADB6BEB680912104843009F08FC0809165
:10513000E4009091E500F7012285338528173907AF
:1051400009F484C081818F708093E9008091E80028
:1051500085FF7CC08DB69EB6408550E08DB79EB76A
:10516000841B950B0FB6F8949EBF0FBE8DBFEDB795
:10517000FEB731966F011B821A82198260E070E0DF
:10518000CF010E946C308E010F5F1F4F960140E0EF
:10519000BE016D5F7F4FC7010E94932F582EF7010C
:1051A00084859585892B41F081E026853785232BE1
:1051B00009F080E0782E01C0712CF701068117817B
:1051C0000115110599F049815A81B801C6010E9463
:1051D000563066246394892B09F4612CF7014085CD
:1051E00050E0B601C8010E94633001C0612C898182
:1051F0009A81892BF9F0511004C0611002C070FE31
:1052000019C0F701848595859787868781818F707E
:105210008093E9008B8181118093F10069817A810B
:1052200040E050E0C6010E943E29E8EEF0E08081B7
:105230008E7780838091E4009091E500F701938759
:1052400082870FB6F8949EBE0FBE8DBE0FB6F8943F
:10525000BEBE0FBEADBE0F900F900F90DF91CF91ED
:105260001F910F91FF90EF90DF90CF90BF90AF9084
:105270009F908F907F906F905F9008958F929F92F4
:10528000AF92BF92CF92DF92EF92FF920F931F9354
:10529000CF93DF938C01EB015A010E94FB2B81110C
:1052A00040C0A114B10439F0F50180819181C81B7F
:1052B000D90B080F191F209799F1E12CF12C0F2E13
:1052C000F8EE8F2E912CF02D0F2EF1EFCF2ED12C4A
:1052D000F02DF401808185FD16C080818E7780835A
:1052E0000E94DF2EA114B10449F0F5018081918163
:1052F000E80EF91EF182E08285E013C00E94FB2BCC
:10530000882351F00EC0F80181918F01F60180834E
:105310002197FFEFEF1AFF0A2097D9F680E001C02E
:1053200080E0DF91CF911F910F91FF90EF90DF9080
:10533000CF90BF90AF909F908F900895CF92DF92C3
:10534000FF920F931F93CF93DF9320912804309106
:1053500029042617370758F06115710539F4E8EE6E
:10536000F0E020812E7720839B0101C09B01A82FB4
:10537000B92F10E0E8EEF0E063EF70E042EF50E0AC
:105380000F2EF1EFCF2ED12CF02D01E0F12C30C0FB
:1053900080912104882309F442C0853009F441C07A
:1053A000808183FD40C0808182FD32C0808180FF8A
:1053B0001FC0EB011881EA01888190E0912B211533
:1053C000310579F08032910560F41D91E601188372
:1053D0002150310901962115310519F080329105CE
:1053E000A1F7102F809709F01F2D80818E77808381
:1053F0002115310569F61111CBCF0AC08091210426
:10540000882399F0853099F0808183FF03C011C013
:10541000E8EEF0E0808182FFF1CF80E00BC082E017
:1054200009C083E007C081E005C082E003C083E0DB
:1054300001C081E0DF91CF911F910F91FF90DF902C
:10544000CF900895EF92FF921F93CF93DF93611552
:10545000710551F5E8EEF0E080818B77808345C0DF
:1054600080912104882309F447C0853009F446C09F
:10547000808183FD45C0808182FFF2CF4DC0EA016B
:1054800088818D936150710941F0E9011881E7012C
:10549000888190E0912B892B91F780818B77808395
:1054A0006115710571F421C0A82FB92FE8EEF0E065
:1054B00023EF30E00F2EF2EFEF2EF12CF02D41EF25
:1054C00050E0809121048823E9F08530E9F0808163
:1054D00083FD1CC0808182FD1FC0C2CF809121044A
:1054E0008823B1F0853019F415C0E8EEF0E0808132
:1054F00080FFF4CF80E01AC082E018C083E016C0BD
:1055000081E014C082E012C083E010C081E00EC0D0
:1055100082E00CC083E00AC0E9011881E7018881BC
:1055200090E0912B892B09F0AACFB7CFDF91CF91D3
:105530001F91FF90EF900895CF92DF92FF920F930B
:105540001F93CF93DF9320912804309129042617CD
:10555000370758F06115710539F4E8EEF0E0208165
:105560002E7720839B0101C09B01E82FF92F10E0CB
:10557000A8EEB0E063EF70E042EF50E00F2EF1EFE5
:10558000CF2ED12CF02D01E0F12C31C080912104DF
:10559000882309F443C0853009F442C08C9183FD0F
:1055A00041C08C9182FD33C08C9180FF20C0EB0103
:1055B0001881EA01888190E0912B2115310581F055
:1055C0008032910568F41491E601188331962150D8
:1055D000310901962115310519F08032910599F7AD
:1055E000102F809709F01F2D8C918E778C932115A9
:1055F000310561F61111CACF0AC0809121048823B8
:1056000099F0853099F0808183FF03C011C0E8EEE6
:10561000F0E0808182FFF1CF80E00BC082E009C022
:1056200083E007C081E005C082E003C083E001C0E1
:1056300081E0DF91CF911F910F91FF90DF90CF908C
:1056400008958F929F92BF92CF92DF92EF92FF9236
:105650000F931F93CF93DF93873070F126C0292FCC
:105660002F70E7012883891731F0E80178812081C4
:10567000E401588103C0242F762F5B2D21FF12C037
:105680003C913E7F3C9330813D7F30833C91316043
:105690003C93E80178832083E4015883E601288164
:1056A000222344F49F5F9730D1F68F708093E900F6
:1056B00081E021C080E01FC0982F9F709093E90087
:1056C000982F242F762F50E0ABEEB0E0EDEEF0E017
:1056D0000CEE10E00F2EF0EF8F2E912CF02D0F2EF0
:1056E000FEEECF2ED12CF02D0F2EF9EEEF2EF12C59
:1056F000F02DB12CC3CFDF91CF911F910F91FF906F
:10570000EF90DF90CF90BF909F908F900895EF9291
:10571000FF920F931F93CF93DF936623F1F1062F30
:10572000C82FD92F10E00F2EF6E0FF2EF02D689431
:10573000EE24E1F85881552351F19C81E981FA81E9
:105740006B81852F8F70873050F5923010F44E2D7D
:1057500001C04F2DE930F10550F028E030E090E035
:105760009F5F220F331F2E173F07D0F301C090E039
:105770009295907F492B90E4699FB0011124551FA9
:105780005527551F652B0E94212B882349F01F5F49
:1057900025960113CFCF81E003C081E001C080E0F6
:1057A000DF91CF911F910F91FF90EF90089580911D
:1057B0002204882344F0E8EEF0E014C08091210434
:1057C000811103C00895E8EEF0E0808182FFF6CFFA
:1057D000E8EEF0E080818B7780830895809121044A
:1057E000882341F0808180FFF9CFE8EEF0E08081EE
:1057F0008E77808308950F931F93CF93DF9320912B
:10580000E4003091E50065E6ACEEB0E0E8EEF0E0F3
:105810000BEE10E044EE50E001C09C019C91892FFA
:10582000817090FD1DC020C080912104882381F0EB
:10583000853081F0E801888185FD0EC0EA0188810C
:1058400099812817390751F3615039F784E00FC067
:1058500082E00DC083E00BC081E009C080E007C09A
:10586000808180FFE1CFFACF908192FFDDCFDF9181
:10587000CF911F910F9108950F931F93CF93DF93B3
:105880000E94912C0E94992CC8EDD0E088818F77DE
:10589000888388818068888388818F7D888319BC0C
:1058A0001092210410921D0410921F0410921E04E5
:1058B00000EE10E0F80180818B7F80838881816019
:1058C000888342E260E080E00E94212BE1EEF0E07C
:1058D00080818E7F8083E2EEF0E080818160808332
:1058E000808188608083F80180818E7F80838881B9
:1058F00080618883DF91CF911F910F910895E8ED2A
:10590000F0E080818F7E8083E7EDF0E08081816030
:10591000808384E082BF81E0809320040E943C2C3D
:105920000895E8EDF0E080818E7F80831092E200A0
:1059300008951092DA001092E10008951F920F92DC
:105940000FB60F9211242F933F934F935F936F9352
:105950007F938F939F93AF93BF93EF93FF93809128
:10596000E10082FF0BC08091E20082FF07C0E1EE00
:10597000F0E080818B7F80830E94872F8091DA0006
:1059800080FF1FC08091D80080FF1BC0EAEDF0E0CF
:1059900080818E7F80838091D90080FF0DC080E15F
:1059A00089BD82E189BD09B400FEFDCF81E080930D
:1059B00021040E94142F05C019BC109221040E94DA
:1059C000152F8091E10080FF17C08091E20080FFD9
:1059D00013C0E2EEF0E080818E7F80838081806161
:1059E0008083E8EDF0E080818062808319BC85E0EF
:1059F000809321040E94DE2E8091E10084FF30C05C
:105A00008091E20084FF2CC080E189BD82E189BDE4
:105A100009B400FEFDCFE8EDF0E080818F7D80834A
:105A2000E1EEF0E080818F7E8083E2EEF0E0808125
:105A30008F7E808380818160808380911D04882394
:105A400021F084E08093210409C08091E300882341
:105A500014F081E001C083E0809321040E94DE2ED7
:105A60008091E10083FF20C08091E20083FF1CC091
:105A7000E1EEF0E08081877F808382E080932104E3
:105A800010921D0480818E7F8083E2EEF0E08081A1
:105A90008E7F808380818061808342E260E080E04D
:105AA0000E94212B0E94DE2EFF91EF91BF91AF91BA
:105AB0009F918F917F916F915F914F913F912F9126
:105AC0000F900FBE0F901F9018950F931F93CF93B9
:105AD000DF93CDB7DEB7AA970FB6F894DEBF0FBE3F
