:100000000C9445010C946D010C946D010C946D01E0
:100010000C946D010C946D010C946D010C946D01A8
:100020000C946D010C946D010C94552F0C946D0182
:100030000C946D010C946D010C946D010C946D0188
:100040000C946D010C946D010C946D010C946D0178
:100050000C946D010C946D010C946D010C94020EC6
:100060000C946D010C9479080C94AB080C946D0100
:100070000C946D010C946D010C946D010C946D0148
:100080000C946D010C946D010C946D010C946D0138
:100090000C949C0B0C946D010C946D010C946D01EF
:1000A0000C946D010C946D010C946D01320F350FA1
:1000B000240F280F2E0F560F560F560F390F3D0FD6
:1000C000410F470F4B0F560F510F4B3072306A31B3
:1000D00072306A31BE30E1306A31383147310D0A51
:1000E000546869732069732074686520686F73743D
:1000F00020636F6E74726F6C6C6572000D0A5553DD
:100100004220486F737420436F6E74726F6C6C651D
:100110007220496E697469616C69736564000D0AC7
:100120004F534320646964206E6F7420737461724E
:1001300074000D0A546869732064657669636520EC
:10014000697320696E20706C6179657220736C6FC1
:100150007420000000000200090F000003040100E9
:100160000C00000000000000000000000000000083
:1001700000000408020110408040102040804080B0
:10018000080204018040201002011080102040402D
:10019000200404040404030405020202020403020E
:1001A000020202060606060606040402020204040F
:1001B000000000002300260029002C002F00000072
:1001C0000000250028002B002E0031000000000058
:1001D000240027002A002D00300000010008000242
:1001E000000400200010004000800000000001001A
:1001F0000200200010004000800004000800000100
:1002000000080002000400200010004000800000F0
:1002100000000100020020001000400080000400E7
:1002200008000002030405010001000800020004A8
:1002300000200010004000800000000001000200CB
:1002400020001000400080000400080000020304A9
:1002500005010902200001010080FA0904000002E2
:10026000584200000705810320000407050203200F
:10027000000412011001000000205E048902210127
:1002800000000001FF02D108FE0D11241FBECFEFB8
:10029000DAE0DEBFCDBF11E0A0E0B1E0ECE2F6E6CF
:1002A00002C005900D92A63EB107D9F728E0A6EE50
:1002B000B1E001C01D92AA35B207E1F711E0C5E433
:1002C000D1E004C02197FE010E94EA32C234D10776
:1002D000C9F70E943F030C9414330C9400000E9451
:1002E000833180916806811110C08091E400909163
:1002F000E50020911B0130911C01821B930B049798
:1003000020F081E191E00C94252C0895982F462F40
:10031000262F30E0F901E953FB4F5789552329F087
:10032000682F87EC94E00C94E624220F331FF90128
:10033000EF5FFE4F0190F081E02D8281882321F054
:10034000692FCF010C941629F901E75FFE4F019048
:10035000F081E02D8481882389F0692F88EF890F4F
:10036000823040F4CF010E9403219695879596959F
:10037000879503C0CF010E940321582F852F089530
:10038000982F462F262F30E0F901E953FB4F87893C
:10039000882329F0692F87EC94E00C942725220FFD
:1003A000331FF901EF5FFE4F0190F081E02D828154
:1003B000882321F0692FCF010C943F29F901E75FD1
:1003C000FE4F0190F081E02D8481882321F0692F78
:1003D000CF010C94282180E090E00895FF920F93C4
:1003E0001F93CF93DF93182FF62E042FC42FD0E046
:1003F000FE01E953FB4F8789882339F0242F462FCC
:10040000612F87EC94E00E94ED25CC0FDD1FC75FC4
:10041000DE4F88819981FC012481222381F0011122
:100420000EC00F2D0695212F26954F2D46954695EA
:100430004695612F6695669566950E94BA22DF9172
:10044000CF911F910F91FF9008951F93CF93DF934A
:10045000182F462FC62FD0E0FE01E953FB4F8789A6
:10046000882329F0612F87EC94E00E948425CC0F2B
:10047000DD1FCF5FDE4F88819981FC01228122231D
:1004800031F0612FDF91CF911F910C948229DF9180
:10049000CF911F910895282F30E0F901E953FB4FC8
:1004A0008789811113C0220F331FF901EF5FFE4FBF
:1004B0000190F081E02D8281811109C0F901E75F8F
:1004C000FE4F0190F081E02D8481089581E0089530
:1004D0002E9A08952E988EBD0DB407FEFDCF1EBC3A
:1004E0000DB407FEFDCF0E9468028EB508952E98C8
:1004F00082608EBD0DB407FEFDCF6EBD0DB407FE4C
:10050000FDCF0C94680288EF0E946A02807C8034E0
:10051000A1F018F4882301F10895803819F0803C87
:10052000B9F0089588ED0E946A0281FD0BC069EC64
:1005300088ED0E94770282E00CC088ED0E946A027A
:1005400081FDF5CF6BEC88ED0E94770283E001C05E
:1005500081E080932602089561ED88ED0E94770284
:100560001092260208950F931F93CF93DF938C016F
:10057000269A0E946802219A229A2398209A80E55E
:100580008CBD1DBC259868E188E80E94770260E276
:1005900088E70E94770260E088E70E947702C0E067
:1005A000D0E088E60E946A02219680FD06C0CF3F17
:1005B0008FEFD807B1F78FEF1DC061EC88ED0E9477
:1005C000770260E680ED0E94770264E088EE0E9488
:1005D000770288EE0E946A0282FFFBCFC8010E9468
:1005E000830260E288EC0E94770261E080E80E946A
:1005F000770280E0DF91CF911F910F91089588EEEF
:1006000095E00E94FA1068EE75E087ED95E00E9493
:100610001D1C68EE75E087EC94E00E94842468EE6F
:1006200075E08FE694E00E949B1F68EE75E087E11D
:1006300094E00E949B1F68EE75E08FEB93E00E94B0
:100640009B1F68EE75E087E693E00E949B1F68EEB3
:1006500075E087E193E00E94542868EE75E087EC2E
:1006600092E00E94542868EE75E087E792E00E94CD
:10067000542868EE75E087E292E00C945428CF93FA
:10068000DF9300D000D0CDB7DEB70E94C40E61E08A
:1006900089E00E94570F61E081E10E94570F61E0FD
:1006A00087E00E94570F62E083E10E94570F62E0EB
:1006B00084E10E94570F60E089E00E94930F61E09F
:1006C00081E10E94930F0E949E31789426E040E2DF
:1006D00051EA67E070E086EC96E00E94110883E141
:1006E0000E94C20F9A83898384E10E94C20F2981EC
:1006F0003A81220F331F822B8093C50662E371E09B
:1007000086EC96E00E943E096091C50670E06F5F3E
:100710007F4F4AE050E086EC96E00E94FA098CE5B3
:10072000E9E6F6E0DF011D928A95E9F764E670E0FC
:1007300080E090E00E947D0E60E089E00E94930FCF
:1007400064E170E080E090E00E947D0E61E089E06D
:100750000E94930F64E170E080E090E00E947D0EC3
:1007600088EE95E00E94B3028F3FB9F46EE171E02C
:1007700086EC96E00E943E0981E10E94C20F61E092
:10078000892B09F060E081E10E94930F64EF71E032
:1007900080E090E00E947D0EEFCF6CEF70E086EC81
:1007A00096E00E943E0985ED97E00E946C0D40E8BE
:1007B0005AE166E070E085ED97E00E94760D6EEDFF
:1007C00070E086EC96E00E943E09A9EDB4E0E7EC0B
:1007D000F4E08FEF91E082838383848385839D930C
:1007E000349624E0E73DF207B1F70FEF88EE95E08D
:1007F0000E94830286EE682E81E0782E96E1292EF3
:1008000092E0392E2FE5A22E26E0B22E89E091E06B
:100810009A83898336EF432E31E0532E46E0842EAF
:1008200042E0942E57ECE52E54E0F52E6701A9E640
:10083000B6E0BC83AB8310E088EE95E00E94BD1863
:10084000812F0E944B02882309F4FCC18091680625
:10085000882319F0112309F4EEC0EB81FC81128288
:10086000612F80E00E948601882341F0AB81BC812A
:1008700012968C911297816012968C93612F82E070
:100880000E948601882329F0EB81FC8182818260AD
:100890008283612F83E00E948601882341F0AB812F
:1008A000BC8112968C911297846012968C93612F62
:1008B00081E00E948601882329F0EB81FC818281FE
:1008C00088608283612F85E00E948601882341F041
:1008D000AB81BC8112968C911297806112968C9399
:1008E000612F84E00E948601882329F0EB81FC813E
:1008F000828180628283612F86E00E948601882344
:1009000041F0AB81BC8112968C9112978064129653
:100910008C93612F87E00E948601882329F0EB8168
:10092000FC81828180688283612F8DE00E94860134
:10093000882329F0AB81BC8114960C9303C0EB8112
:10094000FC811482612F8CE00E948601882329F0AB
:10095000AB81BC8115960C9303C0EB81FC811582A1
:10096000612F8EE00E948601882329F0AB81BC8133
:1009700016960C9303C0EB81FC811682612F8FE0E9
:100980000E948601882329F0AB81BC8117960C93C5
:1009900003C0EB81FC811782612F8AE00E948601EF
:1009A000882329F0AB81BC8119960C9303C0EB819D
:1009B000FC811186612F8BE00E948601882329F03B
:1009C000AB81BC8118960C9303C0EB81FC8110862F
:1009D000612F88E00E948601AB81BC811A968C93BE
:1009E000612F89E00E948601EB81FC818387612F62
:1009F00080E00E94C001AB81BC811D969C938E93C8
:100A00001C97612F81E00E94C001EB81FC819787D8
:100A10008687612F82E00E94C001AB81BC81519624
:100A20009C938E935097612F83E00E94C001EB81CD
:100A3000FC81938B828B0E944C0ED1012D913D91B4
:100A40004D915C91DC01CB01821B930BA40BB50B88
:100A50000997A105B10508F489C0612F80E10E94C2
:100A600086018823B9F1F40180819181A281B3814B
:100A7000892B8A2B8B2B41F40E944C0ED4016D9351
:100A80007D938D939C9313970E944C0EF4012081CB
:100A9000318142815381DC01CB01821B930BA40B7A
:100AA000B50B893E9340A105B10508F458C00E94DA
:100AB0004C0ED4012D913D914D915C91DC01CB0107
:100AC000821B930BA40BB50B8C349440A105B1058C
:100AD00050F145C0612F85E00E948601882309F40A
:100AE000FCC0612F84E00E948601882309F4F5C0D0
:100AF000612F88E00E948601882309F4EEC0612FEF
:100B000089E00E948601882309F4E7C0E9E6F6E05F
:100B1000148A158A21E0268B779685EC96E08E174D
:100B20009F07B1F71CC0EB81FC811282412F60E06E
:100B300080E00E94EE016AE070E080E090E00E94B8
:100B40007D0ED60157968C91882329F0612F87EC72
:100B500094E00E945F25E1E0D6015296EC930E945A
:100B60004C0EF1016083718382839383112309F416
:100B700066C0612F85ED97E00E947A0D44E150E058
:100B80006B817C8185ED97E00E94F40C61E085ED3E
:100B900097E00E94840D0E944C0ED3012D913D914F
:100BA0004D915C91DC01CB01821B930BA40BB50B27
:100BB0000997A105B10508F442C042E0612F85ED17
:100BC00097E00E94FB0D823071F585ED97E00E9461
:100BD000D10C8F3FBFEF9B0761F0EB81FC81248933
:100BE00030E0AC0155272417350719F0848B21E03C
:100BF000268B85ED97E00E94D10C8F3F3FEF930746
:100C0000B1F0AB81BC8155962C91559730E0AC0189
:100C100055272417350759F055968C935597E1E0E1
:100C20005696EC9304C085ED97E00E94500D0E940B
:100C30004C0ED3016D937D938D939C9313970E94DB
:100C40006F0114C0112391F0612F85ED97E00E9490
:100C50007A0D41E050E060E071E085ED97E00E94A0
:100C6000F40C61E085ED97E00E94840D1F5FB4E015
:100C70006B0E711CEB81FC817796FC83EB83F4E0B7
:100C80002F0E311C2FEFC21AD20A3FEFA31AB30A5C
:100C900089819A8102969A83898394E0490E511C36
:100CA000A4E0EA0EF11CB4E08B0E911C143009F0A4
:100CB000C3CD80E00E944B02882309F4DEC08091FE
:100CC000630690916406A0916506B0916606892B33
:100CD0008A2B8B2B09F4C2C0D0C0F4011082118280
:100CE00012821382D60157968C918823F9F0D6018F
:100CF00052968C918130D1F4111118C0F501808188
:100D000080FF14C060E087EC94E00E949125D6013A
:100D100052961C928091680681113CC029E0F7012F
:100D2000228382E083832483858334C00E944C0E17
:100D3000F2012081318142815381DC01CB01821B90
:100D4000930BA40BB50B87399105A105B10508F4E8
:100D50006DC0D70112966C916F3F09F467C0F60120
:100D60008289811163C08789882309F45FC01111CA
:100D70005DC0D5018C9180FF59C040E087EC94E0C4
:100D80000E94F927F701838182838481838385818F
:100D9000848305830E944C0ED2016D937D938D93C5
:100DA0009C931397D5018C918C3DF9F028F48823FE
:100DB00069F0883C79F035C0863E39F1803F89F58D
:100DC000612F81E0810F0E9425022BC024E6F501EE
:100DD000208327C0A981BA818D919C91FC01248137
:100DE0002223F9F00E94E5221CC0D60157968C916F
:100DF00057978823B1F052968C91811112C0612FC0
:100E000087EC94E00E94B3250CC0F6018789882303
:100E100041F08289811105C0612F87EC94E00E9426
:100E2000D525D5018C918F5F8C9399CEEB81FC8178
:100E30008689813009F0B6CFF501808180FFB2CF7D
:100E4000412FAB81BC8155966C91559754968C91EE
:100E50000E94EE01EB81FC81168AA4CF8091E00014
:100E60008E7F8093E00080916706882309F4BECCD2
:100E700060E081E10E94930FB9CC61E081E10E94C2
:100E8000930F8091E00081608093E000F1E0F093A7
:100E9000D904ACCCFC01918D228D892F90E0805C2F
:100EA0009F4F821B91098F7399270895FC01918DA3
:100EB000828D981731F0828DE80FF11D858D90E0BD
:100EC00008958FEF9FEF0895FC01918D828D981703
:100ED00061F0828DDF01A80FB11D5D968C91928D1E
:100EE0009F5F9F73928F90E008958FEF9FEF08951B
:100EF000FC01538D448D252F30E0842F90E0821B20
:100F0000930B541710F0CF96089501970895FC01A4
:100F1000848DDF01A80FB11DA35ABF4F2C91848D82
:100F200090E001968F739927848FA689B7892C93B7
:100F3000A089B1898C9180648C93938D848D981352
:100F400006C00288F389E02D80818F7D808308951B
:100F5000EF92FF920F931F93CF93DF93EC0181E009
:100F6000888F9B8D8C8D981305C0E889F9898081C5
:100F700085FD24C0F62E0B8D10E00F5F1F4F0F7301
:100F80001127E02E8C8DE8120CC00FB607FCFACFAB
:100F9000E889F989808185FFF5CFCE010E94870716
:100FA000F1CF8B8DFE01E80FF11DE35AFF4FF08268
:100FB0000B8FEA89FB898081806207C0EE89FF89F7
:100FC0006083E889F98980818064808381E090E092
:100FD000DF91CF911F910F91FF90EF900895CF93E4
:100FE000DF93EC01888D8823C9F0EA89FB89808131
:100FF00085FD05C0A889B9898C9186FD0FC00FB603
:1010000007FCF5CF808185FFF2CFA889B9898C9143
:1010100085FFEDCFCE010E948707E7CFDF91CF910B
:101020000895CF92DF92EF92FF921F93CF93DF93B9
:10103000EC016A017B01122FE889F98982E0808343
:101040004115514E61057105B1F060E079E08DE325
:1010500090E0A70196010E94C832DA01C901019708
:10106000A109B109B695A795979587959C0121157A
:1010700080E13807A8F0E889F989108260E874E80F
:101080008EE190E0A70196010E94C832DA01C90101
:101090000197A109B109B695A795979587959C01E8
:1010A000EC85FD853083EE85FF852083188EEC89E5
:1010B000FD891083EA89FB89808180618083EA89C8
:1010C000FB89808188608083EA89FB8980818068D0
:1010D0008083EA89FB8980818F7D8083DF91CF9136
:1010E0001F91FF90EF90DF90CF90089580E090E007
:1010F00008951F920F920FB60F9211242F938F9382
:101100009F93EF93FF93E091D606F091D7068081ED
:10111000E091DC06F091DD0682FD12C090818091A5
:10112000DF068F5F8F732091E006821751F0E09108
:10113000DF06F0E0EA53F94F958F8093DF0601C098
:101140008081FF91EF919F918F912F910F900FBE12
:101150000F901F9018951F920F920FB60F921124A7
:101160002F933F934F935F936F937F938F939F93AF
:10117000AF93BF93EF93FF9386EC96E00E948707AF
:10118000FF91EF91BF91AF919F918F917F916F915F
:101190005F914F913F912F910F900FBE0F901F9035
:1011A0001895E6ECF6E01382128288EE93E0A0E058
:1011B000B0E084839583A683B78385E291E0918331
:1011C00080838DEC90E0958784878CEC90E0978706
:1011D000868788EC90E0918B808B89EC90E0938BF4
:1011E000828B8AEC90E0958B848B8EEC90E0978BD1
:1011F000868B118E128E138E148E08950895CF92C1
:10120000DF92EF92FF920F931F93CF93DF936C01C6
:101210007A018B01C0E0D0E0CE15DF0581F0D80166
:101220006D918D01D601ED91FC910190F081E02D41
:10123000C6010995892B11F02196EECF7E01C701D9
:10124000DF91CF911F910F91FF90EF90DF90CF90A2
:1012500008956115710579F0FB0101900020E9F70F
:101260003197AF01461B570BDC01ED91FC910280D9
:10127000F381E02D099480E090E00895EF92FF92D1
:101280000F931F93CF93DF938C017B01C0E0D0E0DD
:10129000F701EC0FFD1F6491662361F0D801ED9119
:1012A000FC910190F081E02DC8010995892B11F086
:1012B0002196EECFCE01DF91CF911F910F91FF903C
:1012C000EF900895DC01ED91FC910190F081E02D0B
:1012D00009948F929F92AF92BF92EF92FF920F93D9
:1012E0001F93CF93DF93CDB7DEB7A1970FB6F894D6
:1012F000DEBF0FBECDBF7C01FA01CB0119A22230A7
:1013000008F42AE08E010F5D1F4F822E912CA12C34
:10131000B12CBF01A50194010E94C832F901CA0194
:10132000015011096A3010F4605D01C0695CD80198
:101330006C93232B242B252B61F7B801C7010E9446
:101340002909A1960FB6F894DEBF0FBECDBFDF917D
:10135000CF911F910F91FF90EF90BF90AF909F9012
:101360008F900895CF92DF92EF92FF920F931F9389
:10137000CF93DF932115310581F4DC01ED91FC91D0
:101380000190F081E02D642FDF91CF911F910F919B
:10139000FF90EF90DF90CF9009942A30310501F54E
:1013A00077FF1DC06A017B01EC016DE20E946209BA
:1013B0008C0144275527BA014C195D096E097F0934
:1013C0002AE0CE010E946909800F911FDF91CF9121
:1013D0001F910F91FF90EF90DF90CF9008952AE03A
:1013E000DF91CF911F910F91FF90EF90DF90CF9001
:1013F0000C9469099A01AB01770F660B770B0C947B
:10140000B209CF93DF93CCEBD0E018821092D407CF
:1014100081E08093D2071092D10761E082E00E94C0
:10142000930F61E083E00E94930FE9EBF0E080818D
:101430008E7F808380818D7F808388E48093B80055
:1014400085E48883DF91CF910895813049F410922B
:10145000630710926407109265071092660717C021
:101460008091630790916407A0916507B09166072A
:101470000196A11DB11D8093630790936407A0930B
:101480006507B093660784E690E00E94B90E8091EC
:10149000630790916407A0916507B0916607803556
:1014A0009105A105B10580F01092630710926407C1
:1014B00010926507109266070E94010A61E081E1BF
:1014C0000E94930F81E0089580E008959B01AC0194
:1014D00060E074E284EF90E00E94C832DA01C90152
:1014E0004097A109B109B695A795979587958093DF
:1014F000B8000895FF920F931F93CF93DF93D82FD7
:10150000162F072FC42FF22E413208F054C081E06D
:101510000E94250A8091D407882329F080E00E9448
:10152000250A8823B9F381E08093D407F092D2078B
:101530009FEF909367071092AC079C0F9093AB07B7
:101540008093D3078091D307DD0FD82BD093D30797
:101550008091D107813061F41092D1078091D30737
:101560008093BB008091BC0083FDF8CF85EC01C067
:1015700085EE8093BC0081E00E94250A8091D4070B
:10158000813029F480E00E94250A8823B9F38091F4
:10159000AC078C1710F4C091AC07ADEAB7E0912FFF
:1015A000E12FF02F8E2F891B8C1718F48D918193CA
:1015B000F9CF8C2F01C080E0DF91CF911F910F9167
:1015C000FF900895DF92EF92FF920F931F93CF93B6
:1015D000DF93413208F062C0D22E142FE72EF62E90
:1015E000D82F81E00E94250AC091D407CC2331F086
:1015F00080E00E94250A81114FC0F6CF82E08093DF
:10160000D4070093D2078FEF809367071092AC073F
:101610001093AB079F2DADEAB7E0EF2DFE2D8E2F77
:10162000891B811718F481918D93F9CF1092D307FC
:101630008091D307DD0FD82BD093D3078091D107AA
:10164000813061F41092D1078091D3078093BB0061
:101650008091BC0083FDF8CF85EC01C085EE8093BE
:10166000BC0081E00E94250ADD2051F08091D40762
:10167000823031F480E00E94250A81110DC0F4CF40
:10168000809167078F3F79F080916707803241F042
:1016900080916707803331F0C4E005C0C1E003C02A
:1016A000C2E001C0C3E08C2FDF91CF911F910F9159
:1016B000FF90EF90DF90089540918907262F30E04A
:1016C000240F311D21323105DCF42091D407243060
:1016D000C9F4FC0180E090E0861758F43091890746
:1016E0002191DC01A557B84FA30FB11D2C93019692
:1016F000F3CF80918907680F6093890780E0089590
:1017000081E0089582E0089585ED8093BC0081E03A
:101710000E94250A8091BC0084FF05C080E00E94E1
:10172000250A8823B9F31092D407089585EC809395
:10173000BC001092D40708951F920F920FB60F921B
:1017400011242F933F934F935F936F937F938F93C6
:101750009F93AF93BF93EF93FF938091B900887FDE
:10176000803609F49EC078F5883209F45DC090F4A3
:10177000803109F456C038F4882309F4F5C0883064
:1017800009F44FC0F5C0883109F44EC0803209F425
:101790005FC0EEC0803409F46AC058F4803309F4A5
:1017A00057C0883309F0E4C0809367070E94960B06
:1017B000DFC0803509F44FC0883509F45DC0883436
:1017C00009F0D6C0D3C0883909F4C4C0A8F488375A
:1017D00009F467C038F4883609F463C0803709F427
:1017E00060C0C6C0883809F4B5C0803909F45FC04C
:1017F000803809F0BDC05BC0803B09F483C038F479
:10180000803A09F466C0883A09F47CC0B1C0803CD3
:1018100009F4A4C0883C09F4A1C0883B09F487C03E
:10182000A7C08091D30710C09091AC078091AB07FF
:10183000981770F5E091AC0781E08E0F8093AC07AC
:10184000F0E0E355F84F80818093BB0085EC83C0C6
:10185000809367078BC0E091AC0781E08E0F809387
:10186000AC078091BB00F0E0E355F84F8083909186
:10187000AC078091AB076BC0E091AC0781E08E0FA5
:101880008093AC078091BB00F0E0E355F84F808374
:101890008091D20781116AC081E08093D10784EAE8
:1018A0005EC083E08093D40710926807CFCF809109
:1018B0006807803208F04EC0E091680781E08E0F23
:1018C000809368078091BB00F0E0E759F84F808370
:1018D000BDCF0E94960B80916807803230F4E09172
:1018E0006807F0E0E759F84F10826091680770E0F0
:1018F000E091CD07F091CE0789E697E00995109227
:10190000680736C084E08093D40710928A0710924B
:101910008907E091CF07F091D00709958091890759
:10192000811105C081E08093890710928B07E091B7
:101930008A0781E08E0F80938A07F0E0E557F84F21
:1019400080818093BB0090918A07809189079817C6
:1019500008F47CCF85E88093BC000AC085EC8093B6
:10196000BC001092D40704C0109267070E94840B39
:10197000FF91EF91BF91AF919F918F917F916F9167
:101980005F914F913F912F910F900FBE0F901F903D
:1019900018958091050890E020910608821B910916
:1019A00008959091060880910508981750F4E92F42
:1019B000F0E0E95FF74F208130E09F5F90930608E9
:1019C00002C02FEF3FEFC9010895E0910608809112
:1019D0000508E81730F4F0E0E95FF74F808190E008
:1019E00008958FEF9FEF0895CF92DF92EF92FF92CD
:1019F0000F931F93CF93DF937C01CB018A0120913A
:101A0000E107222389F0EB016B01C40ED51ECC1532
:101A1000DD0569F06991D701ED91FC910190F081AC
:101A2000E02DC7010995F3CF642F0E945C0BC8011C
:101A3000DF91CF911F910F91FF90EF90DF90CF90AA
:101A40000895CF93DF931F92CDB7DEB769832091BE
:101A5000E1072223D1F02091E207203240F021E07B
:101A600030E0FC013383228380E090E015C0809158
:101A7000E307E82FF0E0EC51F84F998190838F5FF6
:101A80008093E3078093E20705C061E0CE010196F1
:101A90000E945C0B81E090E00F90DF91CF91089560
:101AA000109206081092050880E2E7E0F8E0DF01F6
:101AB0001D928A95E9F70895FC011382128288EE3F
:101AC00093E0A0E0B0E084839583A683B78387E3A7
:101AD00091E0918380830895109206081092050882
:101AE0001092E3071092E2070C94010ACB01BA01AD
:101AF0000C94660A81E08093E107609304081092D9
:101B0000E3071092E20708950F93062F21E040911A
:101B1000E20764EE77E0809104080E94E20A1092E6
:101B2000E3071092E2071092E1070F9108954F9298
:101B30005F926F927F92AF92BF92CF92EF92FF929D
:101B40000F931F93CF93DF935C01F62ED42F2801C0
:101B50003901EE2021F10E947A0DCE2DC43008F01B
:101B6000C3E0C150C0F028E0C29FC0011124A3010E
:101B7000920104C056954795379527958A95D2F7D7
:101B8000CA01B901D501ED91FC910190F081E02DE0
:101B9000C5010995E6CF60E0C5010E94840D4D2F77
:101BA000D13208F040E22C2D67E078E08F2D0E94C2
:101BB0007A0A1092060880930508DF91CF911F9151
:101BC0000F91FF90EF90CF90BF90AF907F906F906C
:101BD0005F904F900895CF92EF920F931F93C22E74
:101BE000E12C00E010E098010E94970D1F910F91E9
:101BF000EF90CF90089521E00C94EB0D85ED97E0E8
:101C00000C945C0D1F920F920FB60F9211242F931C
:101C10003F938F939F93AF93BF93809128089091A8
:101C20002908A0912A08B0912B083091270823E0B9
:101C3000230F2D3720F40196A11DB11D05C026E804
:101C4000230F0296A11DB11D209327088093280819
:101C500090932908A0932A08B0932B0880912C0810
:101C600090912D08A0912E08B0912F080196A11DEA
:101C7000B11D80932C0890932D08A0932E08B0934B
:101C80002F08BF91AF919F918F913F912F910F900E
:101C90000FBE0F901F9018952FB7F89460912808E9
:101CA0007091290880912A0890912B082FBF0895E0
:101CB0003FB7F89480912C0890912D08A0912E08A0
:101CC000B0912F0826B5A89B05C02F3F19F00196AB
:101CD000A11DB11D3FBFBA2FA92F982F8827820FB2
:101CE000911DA11DB11DBC01CD0142E0660F771F02
:101CF000881F991F4A95D1F708958F929F92AF92AE
:101D0000BF92CF92DF92EF92FF926B017C010E9413
:101D1000580E4B015C01C114D104E104F10401F13E
:101D20000E94FE080E94580EDC01CB018819990917
:101D3000AA09BB09883E9340A105B10560F321E0E3
:101D4000C21AD108E108F10888EE880E83E0981ED7
:101D5000A11CB11CC114D104E104F10419F7DBCFBB
:101D6000FF90EF90DF90CF90BF90AF909F908F90BB
:101D700008958230910538F0880F991F880F991FB8
:101D800005970197F1F70895789484B5826084BD32
:101D900084B5816084BD85B5826085BD85B581606F
:101DA00085BDEEE6F0E0808181608083E1E8F0E0CF
:101DB0001082808182608083808181608083E0E8FE
:101DC000F0E0808181608083E1E9F0E080818260E1
:101DD0008083808181608083E0E9F0E080818160A0
:101DE0008083E1ECF0E08081846080838081826088
:101DF0008083808181608083E3ECF0E0808181607A
:101E00008083E0ECF0E0808182608083E2ECF0E0AF
:101E1000808181608083EAE7F0E080818460808354
:101E200080818260808380818160808380818068FE
:101E30008083089590E0FC013197EF30F105B0F513
:101E4000EA5AFF4F0C94EA32809180008F7703C0EA
:101E5000809180008F7D8093800008958091800024
:101E6000877FF9CF84B58F7702C084B58F7D84BD1D
:101E70000895809190008F7707C0809190008F7DAA
:101E800003C080919000877F809390000895809197
:101E9000C0008F7703C08091C0008F7D8093C00009
:101EA00008958091C200877F8093C2000895CF93E8
:101EB000DF9390E0FC01EE58FE4F2491FC01EF56B9
:101EC000FE4F8491882361F190E0880F991FFC01F7
:101ED000E453FE4FC591D491FC01E254FE4FA5910D
:101EE000B491611109C09FB7F8948881209582232D
:101EF0008883EC912E230BC0623061F49FB7F89475
:101F00008881322F309583238883EC912E2B2C935C
:101F10009FBF06C08FB7F894E8812E2B28838FBF10
:101F2000DF91CF9108951F93CF93DF93282F30E057
:101F3000F901ED5AFE4F8491F901EE58FE4FD4910C
:101F4000F901EF56FE4FC491CC23C1F0162F811139
:101F50000E941A0FEC2FF0E0EE0FFF1FE254FE4F2D
:101F6000A591B4919FB7F894111104C08C91D095AC
:101F7000D82302C0EC91DE2BDC939FBFDF91CF9181
:101F80001F910895CF93DF93282F30E0F901ED5A88
:101F9000FE4F8491F901EE58FE4FD491F901EF56AE
:101FA000FE4FC491CC2391F081110E941A0FEC2FA7
:101FB000F0E0EE0FFF1FE055FE4FA591B491EC91BC
:101FC000ED2381E090E021F480E002C080E090E029
:101FD000DF91CF910895CF93DF93FC01EB018081D6
:101FE0009181892B21F18281882319F1DA012D91C8
:101FF0003C91232BE1F0A881B9819C91A381B0E0B1
:10200000A81BB10920813181A20FB31F9C9382814B
:1020100081508283DA018D919C91119701978D9364
:102020009C9388819981019699838883DCCF80E095
:1020300003C08381828381E0DF91CF910895CF93A4
:10204000DF93FC01862F8078A9F4283008F04DC07A
:10205000442321F09581973009F447C0EF01A1E0B6
:10206000B0E09D85992341F011962596A031B105E8
:10207000C1F73BC080E039C061111CC085E08A9F78
:10208000E0018B9FD00D1124CE0FDF1F442331F0D0
:1020900081E4888785818F5F858302C081E088879E
:1020A00025E02A9FC0012B9F900D1124E80FF91FF6
:1020B00080851BC06770660F660F660F442341F072
:1020C000606485818F5F85838770687F682B03C01C
:1020D0002770687B622B25E02A9FC0012B9F900D03
:1020E0001124E80FF91F6087862FDF91CF910895A3
:1020F000611102C006960895FC0121E03585631741
:1021000039F02F5F35962031C9F780E090E00895CF
:10211000069635E0239F800D911D11240895DF92CE
:10212000EF92FF920F931F93CF93DF93EC01E62E74
:10213000F12C85E0689FB0011124FE01E60FF71F26
:102140008085182F177086FF17C001E085E0D82E14
:10215000FE01D09EE00DF11D1124808586958695A7
:10216000869587701817F9F00F5F003189F78D8118
:10217000811302C011501D8385E08E9DF0018F9D5B
:10218000F00D1124EC0FFD1F108681E0818712866F
:102190002296D783C683DF91CF911F910F91FF9035
:1021A000EF90DF900895602FCE010E948F10D0CF66
:1021B000FC01613499F49C01255B3F4F61E0AC0167
:1021C0004E5F5F4F1586668717865487438735961F
:1021D000E217F307B9F7FC011582089521E0358570
:1021E000631729F02F5F35962031C9F70895622FC4
:1021F0000C948F10FC0189E491E091838083158217
:10220000108681E081871286CF01029697838683AC
:10221000128228E023832CE32483DF019F01255BC6
:102220003F4F41E01D961C921D971E964C931E97A2
:102230001F961C921F971C969C938E931B97159626
:10224000A217B30779F7EA58FF4F108281E1809314
:1022500034080895CF93C42F0E947810009789F016
:10226000DC01ED91FC911197309759F013969C91F8
:1022700080E0891731F020812C1731F033968F5F81
:10228000F8CF80E090E001C0CF01CF9108950F9387
:102290001F93CF93DF932115310571F0E901042FCE
:1022A000162F0E947810FC01892B41F01283D183F4
:1022B000C083038380E003C088ED01C086EDDF9119
:1022C000CF911F910F910895CF92DF92FF920F93BC
:1022D0001F93CF93DF93662381F1F62E8C016C015F
:1022E00086E5C80ED11CC0E0D0E0D6018D919D914D
:1022F0006D010097F1F0DC01ED91FC910084F18516
:10230000E02D0995F81215C0AB96CC0FDD1FC00F5C
:10231000D11F88819981DC01ED91FC910480F581C8
:10232000E02DDF91CF911F910F91FF90DF90CF9023
:1023300009942196C031D105C1F680E0DF91CF919B
:102340001F910F91FF90DF90CF9008952E980895E0
:10235000CF93C82F0E94A611CEBD0DB407FEFDCFAE
:102360001EBC0DB407FEFDCF0E9468028EB5CF9152
:102370000895CF93DF93C82FD62F0E94A611C26075
:10238000CEBD0DB407FEFDCFDEBD0DB407FEFDCF03
:10239000DF91CF910C9468028F929F92AF92BF927F
:1023A000CF92DF92EF92FF920F931F93CF93DF9321
:1023B000EC01D62EC42E59010E9478107C010097A2
:1023C00009F445C0FC0180819181892B09F441C049
:1023D0004C2D6D2DCE010E942A11F5019183808331
:1023E0000097C9F1FC0182818695869590E0803145
:1023F000910514F08FE090E041E050E060E070E083
:102400004A015B0104C0880C991CAA1CBB1C8A955C
:10241000D2F7D501C4010197F801918380836D2D16
:1024200080EE0E94B91188ED0E94A811F7019481F5
:10243000992331F0CA58DF4F68816260682B02C06F
:10244000682F697F88ED0E94B91180E005C086ED94
:1024500003C087ED01C08BEDDF91CF911F910F91EC
:10246000FF90EF90DF90CF90BF90AF909F908F90B4
:1024700008958F929F92AF92BF92CF92DF92EF9288
:10248000FF920F931F93CF93DF93862E942E5901C3
:102490000E944C0E6B017C0128E8C20E23E1D21E83
:1024A000E11CF11C00E010E0D0E0C0E098280E94A0
:1024B0004C0EDC01CB018C199D09AE09BF09B7FF99
:1024C0002DC0692D80EF0E94B9110E944C0EDC01D5
:1024D000CB018C199D09AE09BF09B7FF09C088EC73
:1024E0000E94A81187FFF1CF60E888EC0E94B91123
:1024F00088EF0E94A811C82FCF70C43019F0CE30D9
:1025000051F00CC00F5F1F4FA114B10481F20A15E6
:102510001B0569F603C0DF5FD33049F68C2FDF91CE
:10252000CF911F910F91FF90EF90DF90CF90BF90D0
:10253000AF909F908F9008959F92AF92BF92CF924D
:10254000DF92EF92FF920F931F93CF93DF937C0163
:10255000D42F122F902E00E06C01C60ED11CC60E97
:10256000D11C86E5C80ED11CA42EB12CABE2AA0E5C
:10257000B11CAA0CBB1CAE0CBF1CF6018081918162
:10258000DC01ED91FC910280F381E02D292D412F9A
:102590006D2F0995803EC9F4D1110BC061E088EE22
:1025A0000E94B91166E670E080E090E00E947D0E26
:1025B00014C0F50180819181DC01ED91FC910284D0
:1025C000F385E02D612F099508C08D3021F403308B
:1025D00008F03FC014C081113FC0F6018081918195
:1025E000DC01ED91FC910190F081E02D292D412F2E
:1025F0006D2F0995C82F8D3051F4033050F464E6E7
:1026000070E080E090E00E947D0E0F5FB6CF8823DF
:1026100011F1D1110BC061E088EE0E94B91166E69C
:1026200070E080E090E00E947D0E11C0ED2FF0E0A0
:10263000BB96EE0FFF1FEE0DFF1D80819181DC0127
:10264000ED91FC910284F385E02D612F09958C2F8B
:1026500003C08DE001C080E0DF91CF911F910F9109
:10266000FF90EF90DF90CF90BF90AF909F90089534
:102670000F931F93CF93DF93182F062FEA010E9429
:10268000A61112601EBDFE01802F882339F00DB403
:1026900007FEFDCF91919EBD8150F7CFC00FD11D98
:1026A0000DB407FEFDCF0E946802CE01DF91CF91ED
:1026B0001F910F9108952F923F924F925F926F92C8
:1026C0007F928F929F92AF92BF92CF92DF92EF92C2
:1026D000FF920F931F93CF93DF9300D000D01F92F0
:1026E000CDB7DEB77D836C834A016901FB01F180C0
:1026F0008FEF8F0D803408F074C00E944C0E2B01B8
:102700003C01F8E84F0EF3E15F1E611C711CEC8187
:10271000FD81828180FD02C060E401C060E888EE36
:102720000E94B911312C8F2D90E09A838983C114B6
:10273000D10409F448C0E980FA80CE14DF0408F41B
:102740007601EB82A8016E2D80E10E9438136E2D78
:1027500088E30E94B911EC81FD816081606280EFA5
:102760000E94B91188EC0E94A81187FFFBCF60E896
:1027700088EC0E94B91188EF0E94A8118F70382E42
:10278000A12CB12C212C332009F46BC00E944C0EDB
:10279000DC01CB0184199509A609B709B7FF61C00F
:1027A000F6E03F1601F12EE0321609F455C084E040
:1027B000381209C0FFEFAF1ABF0A8114910449F122
:1027C000A814B90431F588EF0E94A81185FB882769
:1027D00080F9EC81FD81928180FB90F99283832DB9
:1027E00045C08AED43C088EF0E94A81185FB882769
:1027F00080F991E08927EC81FD81928180FB90F93D
:10280000928390FD02C060E401C060E888EE0E94FF
:10281000B91160E088E30E94B911F801608180E19C
:102820000E94B9116B8188E30E94B911EC81FD818E
:102830006081606280EF0E94B91188EC0E94A8114B
:1028400087FFFBCF60E888EC0E94B91188EF0E94F7
:10285000A8118F70382E97CF239423E02212D9CF5E
:10286000B2CFCE18DF080E0D1F1D61CF0F900F9055
:102870000F900F900F90DF91CF911F910F91FF90CC
:10288000EF90DF90CF90BF90AF909F908F907F9010
:102890006F905F904F903F902F900895AF92BF92AE
:1028A000CF92DF92EF92FF920F931F93CF93DF931C
:1028B00000D000D0CDB7DEB77C01690158011C8281
:1028C0001B821A8219828E010F5F1F4F9E012D5F9E
:1028D0003F4F0E94CC11811109C049815A816B81FF
:1028E0007C8185019601C7010E945B130F900F90B8
:1028F0000F900F90DF91CF911F910F91FF90EF906C
:10290000DF90CF90BF90AF9008952F923F924F925B
:102910005F926F927F928F929F92AF92BF92CF926F
:10292000DF92EF92FF920F931F93CF93DF93CDB778
:10293000DEB72A970FB6F894DEBF0FBECDBF1C01DD
:102940006B015B834A835901D9016D907C9011978B
:10295000FB01F181F9831D921C92DB0112968C918F
:1029600081FD02C060E101C060E288EE0E94B91101
:102970008E2D90E0A0E0B0E08C839D83AE83BF837A
:1029800068862A813B81D6014C9160E0C1010E949A
:102990003912F82EB6E08B1318C088EF0E94A811E8
:1029A00082958170E1E08E27D60112969C91129754
:1029B00080FB91F912969C9391FD02C060E101C0E9
:1029C00060E288EE0E94B911DCCF811167C088EC0B
:1029D0000E94A81182FF60C080E30E94A811582EB7
:1029E00090E06816790608F45884F5018081918199
:1029F0009301281B390B3A87298737FF02C01A86B3
:102A00001986852C912C89859A858816990614F447
:102A10009A86898649840E94A61198E09EBD0DB4CD
:102A200007FEFDCFF801442041F01EBC4A940DB4CE
:102A300007FEFDCF8EB58193F6CFA985BA850A0F23
:102A40001B1F0E94680264E088EC0E94B911F50126
:102A500080819181880E991E91828082F9815F1612
:102A600018F08614970470F088EF0E94A8118295E0
:102A70008170D60112969C91129780FB91F9129663
:102A80009C930CC0EE2009F47CCF6C817D818E81FB
:102A90009F810E947D0E75CF80EFF82E8F2D2A9694
:102AA0000FB6F894DEBF0FBECDBFDF91CF911F915F
:102AB0000F91FF90EF90DF90CF90BF90AF909F90DD
:102AC0008F907F906F905F904F903F902F900895E0
:102AD0002F923F924F925F926F927F928F929F922E
:102AE000AF92BF92CF92DF92EF92FF920F931F931C
:102AF000CF93DF93CDB7DEB761970FB6F894DEBF03
:102B00000FBECDBF3C01F42E322E202EC98A4EA01E
:102B10005FA0C8A4D9A4188A1F861E861D868E01B0
:102B2000035F1F4F9E01215F3F4F0E94CC11811117
:102B300096C039822A82EB8289898C83BE82AD82DB
:102B400098868F82AE014F5F5F4F68E080E20E94FF
:102B500038132D853E854F2D60E1C3010E94391247
:102B6000E82E811178C0932D9078392EC114D104AC
:102B700009F462C0EF85F8898281992309F44DC078
:102B800082608283540122242394A114B10409F4A5
:102B900058C05C864B864D855E856F857889E12CB3
:102BA00086019E01255F3F4FC3010E948514E82ED8
:102BB000A6E08A130FC00F85188988EF0E94A8111C
:102BC00085FB882780F98225F801928180FB91F9A5
:102BD0009283DBCF81113FC08AA59BA50097A1F00E
:102BE000DC01ED91FC9111970190F081E02DC40181
:102BF0008A199B099A8789876B857C859E01275F47
:102C00003F4FA601CD0109958B859C85A81AB90A6D
:102C10008415950508F0B9CF0FC0816082834D857A
:102C20005E8586019201BF01C3010E945B13811181
:102C300016C02D853E8511C02D853E85311005C0FD
:102C40000CC0E11008C02D853E8560EA4F2DC30100
:102C50000E94391204C08E2D02C060E8F7CF619641
:102C60000FB6F894DEBF0FBECDBFDF91CF911F919D
:102C70000F91FF90EF90DF90CF90BF90AF909F901B
:102C80008F907F906F905F904F903F902F9008951E
:102C90008F929F92AF92BF92CF92EF920F931F931A
:102CA0001F921F921F930F933F932F934901A12CC3
:102CB000B12CCC24C394E12C06E020E80E946815D6
:102CC0000F900F900F900F900F900F901F910F91FA
:102CD000EF90CF90BF90AF909F908F9008958F927C
:102CE0009F92AF92BF92CF92EF92FF920F931F925B
:102CF0001F92FF92EF923F932F934901A12CB12C89
:102D000022E0C22EE02E06E020E80E9468150F9017
:102D10000F900F900F900F900F900F91FF90EF90EA
:102D2000CF90BF90AF909F908F9008954F925F92F9
:102D30006F927F928F929F92AF92BF92CF92DF92CB
:102D4000EF92FF920F931F93CF93DF93CDB7DEB730
:102D5000C054D1090FB6F894DEBF0FBECDBF3C0101
:102D6000D62E542E422EC02ECE0101965C017C013F
:102D7000022F29E030E0C3010E946F1681111BC0B1
:102D80008B809C801F93CF92BF92AF921F9280E462
:102D90008F93A12CB12C82E0C82EE42C06E020E811
:102DA000452D6D2DC3010E9468150F900F900F9057
:102DB0000F900F900F90C05CDF4F0FB6F894DEBFFE
:102DC0000FBECDBFDF91CF911F910F91FF90EF907C
:102DD000DF90CF90BF90AF909F908F907F906F903B
:102DE0005F904F9008958F929F92AF92BF92CF9233
:102DF000EF920F93CF931F921F921F921F921F92D9
:102E00001F92812C912CA12CB12CC12CE22E05E01B
:102E100020E00E946815C82F6CE271E080E090E02D
:102E20000E947D0E0F900F900F900F900F900F90BB
:102E30008C2FCF910F91EF90CF90BF90AF909F903C
:102E40008F9008950F931F93CF93DF938A3F3FEFA7
:102E5000930711F486ED2DC0DC011696ED91FC91DF
:102E60001797EF2B09F1122F242FEC011A8740E05E
:102E70000E941F10082F8823C9F0682FCE010E94DE
:102E80007810009739F3FC011483202F40E060E0B4
:102E9000CE010E94F316182F882351F0602FCE0127
:102EA0000E94D810812F05C087ED03C084ED01C0BA
:102EB00080E0DF91CF911F910F9108952F923F9263
:102EC0004F925F926F927F928F929F92AF92BF923A
:102ED000CF92DF92EF92FF920F931F93CF93DF93E6
:102EE000CDB7DEB766970FB6F894DEBF0FBECDBF85
:102EF0001B8A38E03C8B3CE33D8B8A3F3FEF9307D6
:102F000009F464C0522E342E462E7C01DC01169644
:102F1000CD90DC901797CE01439617969C938E9395
:102F200016971A962C938E010F5F1F4F22E130E007
:102F300040E060E0C7010E944816F701D782C682D0
:102F40008111A6C089849A846B847C84FD81FE8B68
:102F50002E80670136E5C30ED11C560110E0D50165
:102F60008D919C910097F1F1DC01ED91FC91008431
:102F7000F185E02D0995811135C0F50180819181A0
:102F8000DC01ED91FC910088F189E02D622D09951D
:102F9000882341F1F50180819181DC01ED91FC9163
:102FA0000484F585E02DA301B4010995811110C0B9
:102FB000F50180819181DC01ED91FC910684F7851A
:102FC000E02D6E890995811103C00CC086ED60C0AB
:102FD000052D232D442D612FC7010E949C12813D98
:102FE00009F056C01F5FB2E0AB0EB11C103109F002
:102FF000B6CF10E0F601808191810097E1F1DC010C
:10300000ED91FC910084F185E02D0995811133C08B
:10301000F60180819181DC01ED91FC910088F189BC
:10302000E02D622D09958823D9F0F60180819181E8
:10303000DC01ED91FC910484F585E02DA301B40140
:103040000995811118C0F60180819181DC01ED9113
:10305000FC910684F785E02D6E89099581110BC0DE
:10306000052D232D442D612FC7010E949C12982FFE
:10307000977F913D69F41F5FE2E0CE0ED11C1031C5
:1030800009F0B8CF252D432D642DC7010E942217CA
:1030900066960FB6F894DEBF0FBECDBFDF91CF911D
:1030A0001F910F91FF90EF90DF90CF90BF90AF9066
:1030B0009F908F907F906F905F904F903F902F9058
:1030C00008958F929F92AF92BF92CF92EF920F93FB
:1030D0001F921F921F921F921F921F92812C912C60
:1030E000A12CB12CC12CE22E09E020E00E94681531
:1030F0000F900F900F900F900F900F900F91EF90F7
:10310000CF90BF90AF909F908F9008958F929F9295
:10311000AF92BF92CF92DF92EF920F931F93CF9314
:10312000DF9300D000D0CDB7DEB76C015901480164
:103130001C821B821A8219828E010F5F1F4F9E0113
:103140002D5F3F4F0E94CC1149815A816B817C8158
:1031500084019501C6010E9485140F900F900F9075
:103160000F90DF91CF911F910F91EF90DF90CF9053
:10317000BF90AF909F908F900895AF92BF92CF92E3
:10318000DF92EF92FF920F931F93CF938C011D99C3
:103190000EC088EC0E94A81185FF05C0C8010E94DE
:1031A000830260E201C060E088EC0E94B911809166
:1031B0002602813039F040F0823079F0833039F5E1
:1031C000C1E00CC083E106C080913408807F80316B
:1031D000F1F081E1809334081AC0C0E08091340896
:1031E000807F8031A9F40E944C0EDC01CB01885312
:1031F0009F4FAF4FBF4F8093300890933108A093FB
:103200003208B093330880E28093340801C0C0E0F4
:10321000780186E5E80EF11C6801A6E7CA0ED11C0C
:103220005701F501819191915F01009739F0DC011F
:10323000ED91FC910680F781E02D0995AC14BD0459
:1032400081F780913408803409F43FC050F4803213
:1032500021F18033A1F1813109F082C0F6011082A1
:103260000AC0813509F458C0803809F46AC0803535
:1032700009F076C039C0D7018D919D917D010097ED
:1032800039F0DC01ED91FC910480F581E02D099588
:10329000EC14FD0481F782E161C00E944C0E0091A4
:1032A0003008109131082091320830913308DC0148
:1032B000CB01801B910BA20BB30BB7FD51C061E09A
:1032C00088EE0E94B91180E449C088EE0E94A811DE
:1032D00080FD46C088ED0E94A811682F686088EDC7
:1032E0000E94B91180E53AC088EC0E94A81186FFBF
:1032F00037C081E5809334080E944C0EDC01CB017D
:103300004496A11DB11D8093300890933108A0937D
:103310003208B093330824C00E944C0EC09030088D
:10332000D0903108E0903208F0903308DC01CB01F6
:103330008C199D09AE09BF09B7FD12C080E88093C2
:1033400034082C2F40E060E0C8010E945E178823FB
:1033500021F0823D29F080EA01C080E980933408A1
:10336000CF911F910F91FF90EF90DF90CF90BF9082
:10337000AF90089580E00895089580E0089580E07A
:10338000089581E00895FC018285089581E0693007
:1033900009F080E00895CF93DF93EC018A819B814F
:1033A000DC01ED91FC910480F581E02D6A850995A1
:1033B0008A85813439F4EA81FB81EA58FF4F8081A4
:1033C000846080831A861B861C861D861E861F8647
:1033D000188A80E0DF91CF9108958F929F92AF92EB
:1033E000BF92CF92EF920F93A42EB12CB22A1F92CC
:1033F0001F921F921F921F921F92812C912CC12C01
:10340000E62E01E023E240E0FC01628582819381A7
:103410000E9468150F900F900F900F900F900F90D3
:103420000F91EF90CF90BF90AF909F908F900895A5
:103430008F929F92AF92BF92CF92EF920F93A62E50
:10344000B12C1F921F923F932F935F934F934A018A
:10345000C12CE12C00E023EA40E0FC01628582817E
:1034600093810E9468150F900F900F900F900F900E
:103470000F900F91EF90CF90BF90AF909F908F9053
:1034800008958F929F92AF92BF92CF92EF920F9337
:10349000A42EB12CB22A1F921F921F921F921F922C
:1034A0001F92812C912CC12CE62E03E023E240E0F8
:1034B000FC016285828193810E9468150F900F90B4
:1034C0000F900F900F900F900F91EF90CF90BF90B3
:1034D000AF909F908F9008952F923F924F925F925E
:1034E0006F927F928F929F92AF92BF92CF92DF9214
:1034F000EF92FF920F931F93CF93DF93CDB7DEB779
:10350000E8970FB6F894DEBF0FBECDBFDC011A9668
:103510003C91311107C1122F242E362E3C01FC01A3
:10352000C280D380D601ED91FC910190F081E02D15
:1035300060E0C60109957C01009709F4F5C0FC0123
:10354000A080B180A114B10409F4F0C04301F4E0FB
:103550008F0E911CDC0111969C928E9214961C93F6
:10356000FE0131962F018F0128E030E040E060E05D
:10357000D30112968D919C9113970E944816F701E2
:1035800014828111D9C08D81893009F0D1C009819F
:10359000D601ED91FC910280F381E02D222D41E0D6
:1035A000632DC6010995F3018287882309F4C2C0FF
:1035B00098859583282F40E060E0828193810E9466
:1035C000F316182F882389F0D701AD92BC92D6014B
:1035D000ED91FC910480F581E02DD3011A966C9158
:1035E000C6010995F3011286ABC0202F013208F005
:1035F00020E2D701AD92BC9221110BC0940142E0B0
:10360000F3016285828193810E944711811197C0E5
:1036100010C030E0820140E0D3011A966C911A97F5
:1036200012968D919C9113970E944816811187C024
:10363000E5CF1F921F925F924F921F9288E08F9367
:1036400088E0882E912CA12CB12C99E2C92EE12C76
:1036500006E020EA40E0F3016285828193810E94C6
:103660006815182F0F900F900F900F900F900F90DC
:10367000811166C08B81D3011B968C931B977201BD
:1036800000E028E030E040E01A966C911A9712961C
:103690008D919C9113970E946F16811150C02B81C0
:1036A0003C8140E0F3016285828193810E946F1624
:1036B000811145C0298130E0CE0181967C0140E036
:1036C000D3011A966C911A9712968D919C9113972B
:1036D0000E946F16811133C02E8140E0F301628594
:1036E000828193810E946118811129C001E0D30178
:1036F0001B968C91801740F020E0402F68E0C301BA
:103700000E94411A0F5FF3CFD3011296ED91FC9105
:103710001397EA58FF4F80818460808381E0509640
:103720008C930EC019ED0CC016ED0AC017ED08C041
:1037300011ED06C014ED04C0F701B182A082182F6C
:10374000812FE8960FB6F894DEBF0FBECDBFDF9194
:10375000CF911F910F91FF90EF90DF90CF90BF908E
:10376000AF909F908F907F906F905F904F903F9021
:103770002F900895CF92DF92FF920F931F93CF93D4
:10378000DF9300D000D0CDB7DEB78C01F62E1982C2
:103790001A821B821C8220E0462F61E10E94ED19F3
:1037A00020E04F2D60E1C8010E94ED1920E04F2D6F
:1037B00064E0C8010E94411A83E0C82ED12C9E010A
:1037C0002F5F3F4F44E050E06F2DC8010E94181A50
:1037D0008823F1F020E04F2D64E1C8010E94ED192B
:1037E00020E04F2D60E1C8010E94ED1964E170E016
:1037F00080E090E00E947D0E0F900F900F900F9050
:10380000DF91CF911F910F91FF90DF90CF9008959E
:1038100089819A81AB81BC819D7F83309140A04199
:10382000B105C1F264E670E080E090E00E947D0E98
:1038300081E0C81AD10819F6CDCFFC0183E591E0EB
:103840009183808373836283128613861486158620
:1038500016861786108A148288E085839CE39683F7
:1038600091E09783808784E0818761157105B1F0CD
:10387000DB01AA5ABF4F80E090E02D913D91232BB0
:1038800049F48B96880F991FDB01A80FB91FED93A0
:10389000FC93089501968031910579F70895EF9290
:1038A000FF920F931F93CF938C01C62F7A01FA01D9
:1038B00080819181A281B3818130F3E09F07F1E0A3
:1038C000AF07B105D1F060F48115E1E09E07AE07C6
:1038D000B10571F181309140A140B10571F064C032
:1038E000833021E0920720E1A207B105E1F18330A6
:1038F0009340A041B105B9F157C0809135088111BD
:1039000053C020E04C2F61E1C8010E94ED1920E076
:103910004C2F60E1C8010E94ED1920E04C2F64E0BB
:10392000C8010E94411A81E08093350881EB3DC0B7
:1039300020E0462F61E1C8010E94ED1920E04C2FE4
:1039400060E1C8010E94ED1910923508F801628506
:103950006770C770660F660F660F6C2B828193814C
:103960000E94641121C020E04C2F64E1C8010E9434
:10397000ED1920E04C2F60E1C8010E94ED1964E1CF
:1039800070E080E090E00E947D0EF8016285F70112
:1039900021812695217067704C2FF80182819381D7
:1039A0000E945E171092350880E0CF911F910F9111
:1039B000FF90EF900895CF92DF92EF920F931F93B5
:1039C000CF93DF93CDB7DEB72E970FB6F894DEBF57
:1039D0000FBECDBF6C0181E090E09E878D87E12C0A
:1039E0008E010F5F1F4F9E01235F3F4F41E0F601A5
:1039F0006285828193810E948618811151C002E004
:103A000011E089818023D1F019861A861B861C86D5
:103A10009E01275F3F4F44E050E0612FC6010E94A6
:103A2000181A81110BC0AE01475F5F4F612FC601AD
:103A30000E944F1C813B99F1811132C0000F1F5F22
:103A40001830F9F611E0F6018385811740F11986E7
:103A50001A861B861C869E01275F3F4F44E050E07C
:103A6000612FC6010E94181A811117C089859A8595
:103A7000877091708130914081F48B859C85816045
:103A80009C878B87AE01475F5F4F612FC6010E9405
:103A90004F1C813B21F0811103C01F5FD4CF80E018
:103AA0002E960FB6F894DEBF0FBECDBFDF91CF913B
:103AB0001F910F91EF90DF90CF9008950F931F9378
:103AC000CF93DF93FC012089211102C080E020C048
:103AD000EC010E944C0E0C851D852E853F85DC0176
:103AE000CB01801B910BA20BB30BB7FDEFCFCE0127
:103AF0000E94DB1C182F0E944C0EDC01CB018C595C
:103B00009F4FAF4FBF4F8C879D87AE87BF87812F59
:103B1000DF91CF911F910F910895FC018385089546
:103B2000FC01868D08956E3524E0720799F06833A4
:103B300087E0780779F06F369EE0790759F06D30AD
:103B40002FE0720739F0623385E1780719F0663C9F
:103B50007442A1F5413D22E0520791F14D3D82E0D2
:103B6000580771F1433E92E0590751F14A3E22E075
:103B7000520731F141308AE4580711F1493391E09D
:103B80005907F1F0463421E05207D1F0473651058C
:103B9000B9F043308AE0580799F0CA018F7D8A3125
:103BA000944571F04A3284E5580751F081E04A307B
:103BB0009BE0590739F0473A524021F080E00895E0
:103BC00081E008950895CF93DF93EC011C828985ED
:103BD0009A85DC01ED91FC910480F581E02D6B85E7
:103BE00009951B8681E08E8B1F8A188E198E1A8E7E
:103BF0001D8E1E8E80E0DF91CF9108953F924F92EF
:103C00005F926F927F928F929F92AF92BF92CF926C
:103C1000DF92EF92FF920F931F93CF93DF9300D029
:103C200000D0CDB7DEB76C017C836B835A834983A8
:103C30004C0180E1880E911C5601A7E0AA0EB11C30
:103C400011E084E0482E3601B2E16B0E711C93E066
:103C5000392E22E0522E8B819C81892B09F4EEC0F3
:103C6000F60180A1823059F128F4882341F0813097
:103C700071F0F1CF833039F18430C1F1ECCF54824F
:103C800085819681908787835286518610A3AE01E5
:103C90004D5F5F4FBE016F5F7F4FC5010E94EB0F0D
:103CA000882309F4CBC0D6011596ED91FC911697A7
:103CB000808191968C939197818192968C93F60155
:103CC0007682658230A2D60192968C91929784304A
:103CD00011F493961C92F60181A182508483258170
:103CE0003681308727838287818740A2D6019296CA
:103CF0008C918430A9F08530D1F1823009F062C016
:103D0000AE014D5F5F4FBE016F5F7F4FC5010E94E7
:103D1000EB0F882309F492C0F601858984A386C03D
:103D2000AE014D5F5F4FBE016F5F7F4FC5010E94C7
:103D3000EB0F882309F482C0D60198968C9198974E
:103D4000811174C093961C93939752968C915297BD
:103D500096968C93969753968C91539797968C93AF
:103D6000979757968C91579795968C935FC0AE0115
:103D70004D5F5F4FBE016F5F7F4FC5010E94EB0F2C
:103D8000882309F45BC0F60183A1882309F44EC09F
:103D900082819381009709F449C0DC01ED91FC9187
:103DA0000190F081E02D7401D60195960C919597C4
:103DB00097962C91979796964C91969794966C918E
:103DC000099534C0F6018585882319F0813039F0D2
:103DD00028C081A190E002979787868715872B815D
:103DE0003C8189819A81782F692FF6014685578514
:103DF0004115510581F001962115310529F479838A
:103E00006A831C821B820DC0415051095787468727
:103E100021503109E8CF9A8389833C832B83F601B3
:103E20001586F60186859785892B41F4D60116966D
:103E30009C928E92159790961C920DCF0F900F909A
:103E40000F900F90DF91CF911F910F91FF90EF9006
:103E5000DF90CF90BF90AF909F908F907F906F90AA
:103E60005F904F903F900895EF92FF92CF93DF9332
:103E7000E701DC01129755966C9355978B818370FF
:103E8000833009F58A81E82FEE1FEE27EE1FEF5FE2
:103E9000F0E09F01220F331FE20FF31FEA0FFB1F19
:103EA0008F7084878C8185878E815D969C915D97CC
:103EB000981718F45D968C935D9756968C9156974B
:103EC0008F5F56968C93DF91CF91FF90EF9008957E
:103ED000EF92FF92CF93DF93DC01E70155966C934D
:103EE00055978B818370833009F58A81E82FEE1F07
:103EF000EE27EE1FEF5FF0E09F01220F331FE20F6E
:103F0000F31FEA0FFB1F8F7084878C8185878E815A
:103F10005D969C915D97981718F45D968C935D97CC
:103F200056968C9156978F5F56968C93DF91CF91D2
:103F3000FF90EF900895FC018FE691E091838083DC
:103F400089E891E09383828372876187138681E099
:103F5000868B178A108E118E128E158E168E1486F1
:103F600088E085878CE386871786108A84E0818BBA
:103F7000128A138A848B61157105B1F0DB01AA5A8C
:103F8000BF4F80E090E02D913D91232B49F48B961B
:103F9000880F991FDB01A80FB91FED93FC930895BB
:103FA00001968031910579F70895CF93DF93DC0175
:103FB000D7968C91D797873009F037C0DB968C91D4
:103FC000DB975F964D915C919097EAEFF1E081303D
:103FD00049F425913491242B352B90963C932E93C4
:103FE0005F970AC08591949180959095842395233D
:103FF00090969C938E935F975F962D913C919097AE
:1040000091968D919C9192972817390709F4ACC02D
:10401000809590958223932394969C938E93939767
:1040200092963C932E9391979FC0803209F09CC04A
:10403000EAEFF1E065917491DC962C91DC97DB96C8
:104040008C91DB97922F9F70482F4C7050E0542F2B
:104050004427550F550F592B982F907F492B922F9E
:10406000907C592B8170C82F80E0D82FCE01E3E0DF
:10407000880F991FEA95E1F7842B952B207330E088
:10408000F4E035952795FA95E1F7822B932B5F960F
:104090002D913C91909762237323862B972B9096BA
:1040A0009C938E935F97DD966D917C91DE979E96A3
:1040B0007C936E939D97FD01FF9640815181D09630
:1040C0005C934E939F9732962081318196963C93D4
:1040D0002E93959732962081318198963C932E931A
:1040E00097973296208131819A963C932E93999797
:1040F0003296208131819C963C932E939B9791968A
:104100002D913C9192978217930761F020953095FD
:104110002823392394963C932E93939792969C93BD
:104120008E9391976115710551F0D1968D919C9167
:10413000D297892B21F481E0D5968C93D597D2968E
:104140007C936E93D1974115510551F0D3968D9183
:104150009C91D497892B21F481E0D6968C93D697A5
:10416000D4965C934E93D397DF91CF910895CF92DD
:10417000DF92EF920F931F93CF93DF9300D0CDB7D1
:10418000DEB7FC01268D222399F16C010E944C0EB2
:10419000F6010789108D218D328DDC01CB01801B4A
:1041A000910BA20BB30BB7FD23C00E944C0EF6017E
:1041B000E58CDC01CB018E0D911DA11DB11D878BFE
:1041C000908FA18FB28F838990E09A838983860133
:1041D000095C1F4F9E012F5F3F4F42896385818598
:1041E00092850E948618811103C0C6010E94D51FC6
:1041F00080E00F900F90DF91CF911F910F91EF9082
:10420000DF90CF900895DC01683031F49D968C9159
:104210009D979E969C910895693031F49F968C915C
:104220009F97D0969C910895E62FF0E0EE0FFF1F28
:10423000E652FE4F259134915F968D919C91909717
:104240002823392381E090E0232B09F480E00895AE
:10425000860F911D860F911DFC0185A196A10895E1
:104260000F931F93FC019A01DC01A95ABF4F8C9157
:1042700091E0980F9C93DB0112968C938B014785FC
:104280006385818592850E944E141F910F91089538
:10429000DC015B96ED91FC915C97309709F00994F5
:1042A00008952F923F924F925F926F927F928F92DA
:1042B0009F92AF92BF92CF92DF92EF92FF920F93B5
:1042C0001F93CF93DF93CDB7DEB7EB970FB6F8947C
:1042D000DEBF0FBECDBFDC011B965C90511028C124
:1042E000422E242E362E7C01FC01C184D284D601BC
:1042F000ED91FC910190F081E02D60E0C6010995FF
:104300005C01009719F446ED542E1AC1FC0160803F
:1043100071806114710409F40EC14701FCE08F0E35
:10432000911CDC0111969C928E9214964C928E01F7
:10433000065D1F4F22E130E040E060E0F70181853B
:1043400092850E944816182FD5016D927C9281119A
:10435000E5C06AA97BA9F701708767834CA95DA9AD
:10436000568345830190F081E02D0484F585E02D8E
:10437000C7010995811102C011EDD0C0D601ED91A0
:10438000FC910280F381E02D222D40E0632DC601D7
:104390000995F7018387882309F4D0C099A99587E7
:1043A000282F40E060E0818592850E94F316182F47
:1043B000D601ED91FC91D50114961C92882359F0F9
:1043C0000480F581E02DD7011B966C91C6010995FB
:1043D000F7011386ABC00190F081E02DD7011B9649
:1043E0006C91C6010995009709F48DCFFC014482B8
:1043F000940141E0D7011B966C911B9719968D9102
:104400009C911A970E944711182F811187C03BACCD
:10441000412C39E6632E31E0732E5701B2E0AB0E2A
:10442000B11C6E01E1E1CE0ED11C431461F17A8220
:104430006982BC82AB821E86188A1F8619A21AA2C4
:104440001BA219A6DF82CE82D986C8868D818B8772
:104450008A87DD86CC868E010F5F1F4F242D40E0BA
:10446000D7011B966C911B9719968D919C911A9769
:104470000E949616182F811151C0F701868983304A
:1044800010F44394D2CFD70156964C9156974330AF
:1044900008F472CF94011B966C911B9719968D911D
:1044A0009C911A970E944711182F811137C068EC10
:1044B00070E080E090E00E947D0EF7012589448540
:1044C0006385818592850E946118182F811126C00D
:1044D00068EC70E080E090E00E947D0EF701E95A00
:1044E000FF4F108285E0898380E28A8301E00C839C
:1044F0001D8245E050E0BE016F5F7F4FC7010E9403
:104500003021182F81110AC0C7010E944821D7010C
:1045100014960C9314975E960C9312C0D701ED91EC
:10452000FC910480F581E02DC7010995512E08C04A
:1045300029ED522E05C097ED592E02C084ED582E5C
:10454000852DEB960FB6F894DEBF0FBECDBFDF9181
:10455000CF911F910F91FF90EF90DF90CF90BF9080
:10456000AF909F908F907F906F905F904F903F9013
:104570002F9008950F93CF93DF93CDB7DEB72D978C
:104580000FB6F894DEBF0FBECDBF39E039831A8273
:104590003C831D823FE03E836F83488729870A87DB
:1045A0002FEF2B871C862D874DE050E0BE016F5FFB
:1045B0007F4F0E9430212D960FB6F894DEBF0FBEBC
:1045C000CDBFDF91CF910F910895CF93DF9300D0AE
:1045D00000D01F92CDB7DEB725E0298320E22A83E1
:1045E00021E02C831D8245E050E0BE016F5F7F4FCC
:1045F0000E9430210F900F900F900F900F90DF913D
:10460000CF910895FC01858D08958C5A9F4FFC0130
:10461000808108956E3584E0780739F06D3A9BE12A
:10462000790719F06E32764141F481E0493197E023
:10463000590729F04139524011F080E0089508955A
:10464000CF93DF93EC011E8A1F8A188E198E1A8E63
:104650008B8D9C8DDC01ED91FC910480F581E02D2A
:104660006D8D09951D8ECC5ADF4F188280E0DF9149
:10467000CF9108956F927F928F929F92AF92BF9247
:10468000CF92DF92EF92FF920F931F93CF93DF931E
:10469000CDB7DEB762970FB6F894DEBF0FBECDBFC1
:1046A000DC015D963C91311172C0122F642E762E82
:1046B0007C01FC01A38CB48CD501ED91FC9101909F
:1046C000F081E02D60E0C50109956C01009709F4C7
:1046D00060C0FC01808091808114910409F45BC06A
:1046E000C7014E969183808314838E010F5F1F4F05
:1046F00022E130E040E060E0D7015B968D919C9133
:104700005C970E944816182FF601918280828111D1
:104710002FC089859A858E35F4E09F0739F08D3A50
:104720002BE1920719F08E32964131F58B859C85ED
:104730008931B7E09B0719F081399240E9F4D5013E
:10474000ED91FC910280F381E02D262D40E0672D54
:10475000C5010995F701858F8823F9F08885878F32
:1047600064E170E080E090E00E947D0E80EE16C073
:104770008D3019F011EE01C011EDD701ED91FC91D2
:104780000480F581E02DC7010995812F07C089EDCF
:1047900005C086ED03C087ED01C084ED62960FB6BB
:1047A000F894DEBF0FBECDBFDF91CF911F910F9167
:1047B000FF90EF90DF90CF90BF90AF909F908F9041
:1047C0007F906F900895CF92DF92EF92FF920F93B8
:1047D0001F93CF93DF93EC01022FEB8CFC8CD7015E
:1047E000ED91FC910190F081E02D6D8DC70109954F
:1047F0006C01892B11F486ED7EC06CE271E080E0E3
:1048000090E00E947D0E2D8D40E060E08B8D9C8DB0
:104810000E94F316182F882319F0F601148263C042
:10482000D60114961C92D701ED91FC910190F08174
:10483000E02D6D8DC70109950097E9F2FC01048315
:104840007E01FEE1EF0EF11C970141E06D8D8B8D35
:104850009C8D0E944711182F811145C001E009A3CA
:1048600033E027E090E29AA384E08BA30CA39DA3FE
:104870008EA33FA398A789A73AA79BA78CA735E04B
:104880003DA79EA78FA738AB99AB8AAB2BAB9CAB50
:104890008DAB2EAB9FAB88AF970149E06D8D8B8DB3
:1048A0009C8D0E944711182F81111DC068EC70E08B
:1048B00080E090E00E947D0E21E04E8D6D8D8B8D0D
:1048C0009C8D0E946118182F81110DC00E8BFE0166
:1048D000EC5AFF4F0083CB51DF4F188219821A82A6
:1048E0001B8280E008C0E881F9810480F581E02D19
:1048F000CE010995812FDF91CF911F910F91FF90EC
:10490000EF90DF90CF9008950F931F93CF93DF9395
:10491000DC018FE891E011969C938E935C967C93DA
:104920006E935B975D961C925D97FD01EC5AFF4F6D
:104930001082FD0180E090E0168E582F811102C098
:1049400028E001C020E0278F8C01000F111F980183
:10495000280F391F2A0F3B1FE90148A14E7F4D7FC9
:1049600048A3511102C03FE001C031E0E801C80F87
:10497000D91FCA0FDB1F330F330F28A12370322B2F
:1049800038A30196339681319105B1F66115710511
:10499000C1F0FB01EA5AFF4F20E030E08191919194
:1049A000892B51F4255D3F4F220F331FFB01E20F8E
:1049B000F31FB183A08305C02F5F3F4F2031310526
:1049C00069F7DF91CF911F910F91089550E0683002
:1049D00059F4FA01EE0FFF1FEE0FFF1FE80FF91F4A
:1049E000EB5AFF4F81810895693059F4FA01EE0FB7
:1049F000FF1FEE0FFF1FE80FF91FEB5AFF4F8081DB
:104A00000895E62FF0E0EE0FFF1FE250FE4F2591D4
:104A10003491FA01EE0FFF1FEE0FFF1FE80FF91F91
:104A2000EB5AFF4FC901A0E0B0E0DC0199278827CD
:104A30004081518162817381482359236A237B23FA
:104A400081E0452B462B472B09F480E0089524E0B4
:104A5000429FA0011124460F511D440F551F840F82
:104A6000951FFC01EB54FF4F8081918108950F93B6
:104A70001F93613039F050F0623031F06330E1F46F
:104A800068E005C064E003C066E001C062E08A013E
:104A9000DC0170E0FB01EE0FFF1F6E0F7F1FFD01B9
:104AA000E60FF71F468D5D966C915D975B968D9135
:104AB0009C915C970E944E141F910F910895AC0138
:104AC000475F5E4FFA01108231961082319628E0DE
:104AD0002083319620EC208324E030E00C943725AD
:104AE000742FAC01475F5E4FFA011082319610823D
:104AF000319628E020833196262F2064208324E0FD
:104B000030E0672F0C943725662341F0653041F083
:104B1000E62FF0E0EE5DFD4F64916C5F0C94702524
:104B20000895CF93DF93FC01EC5AFF4F208122239D
:104B3000B9F0EC01AC01475F5E4FFA01108231968B
:104B4000108231968CE0808331968BE1808324E063
:104B500030E0CE010E943725CF5ADF4F81E08883B5
:104B6000DF91CF910895CF93DF93FC01EC5AFF4F73
:104B700020812223B9F0EC01AC01475F5E4FFA01BE
:104B800010823196108231968CE0808331968FE1CD
:104B9000808324E030E0CE010E943725CF5ADF4FDA
:104BA00081E08883DF91CF910895FC01EC5AFF4F9B
:104BB0002081222389F0AC01475F5E4FFA01108209
:104BC0003196108231962CE0208331962EE120839D
:104BD00024E030E00C9437250895362F622FFC0135
:104BE000E75FFE4F1082DC01A65FBE4F21E02C93F1
:104BF00011962FE02C93119620EC2C9311961C9279
:104C000011963C9311964C9327E030E0AF010C9441
:104C100037259C01462FFC01EE5AFF4F0190F08191
:104C2000E02D309709F00994662331F0613031F0BE
:104C3000623031F064E005C061E003C062E001C0B1
:104C400063E0C9010C9484254F925F926F927F922A
:104C50008F929F92AF92BF92CF92DF92EF92FF928C
:104C60000F931F93CF93DF939C018C0107511F4F2C
:104C700009F450C1D8019C91F901E651FF4F9830D9
:104C800091F48081E901C60FD11D4F89841759F035
:104C90008F8B882329F0C90121E02A8B0E940926E5
:104CA00081E08A8B37C1808181111DC0F901E451F7
:104CB000FF4F8081837109F428C1D901A351BF4FEF
:104CC0008C91823208F421C1260F311D260F311D2F
:104CD000D901AB52BF4F80819181982789279827AE
:104CE0008D939C9317C1911110C1813009F0ADC013
:104CF000F901E451FF4F8081803F09F006C1462F42
:104D000050E0F901E40FF51F8789811102C080E8A6
:104D1000878BD901A151BF4F6D917D918D919C9150
:104D20000E94F0324B015C01CA01880F991F880F65
:104D3000991F3901680E791ED301AB5ABF4F8D926E
:104D40009D92AD92BC921397DA01C3E0AA0FBB1FEC
:104D5000CA95E1F7A20FB31F6D01C5EBCC0ED11CB4
:104D60007901D3EFED0EF11CE701E880F980E6014F
:104D7000F982E8826D01D7EBCD0ED11C790165EF88
:104D8000E60EF11CE70168817981E6017983688389
:104D90006D01D9EBCD0ED11C790167EFE60EF11C48
:104DA000E70168817981E601798368837D01DBEB26
:104DB000ED0EF11CD901A750BF4F6D917C91D70129
:104DC0006D937C93E301CB59DF4FC880D980EA8093
:104DD000FB808C149D04AE04BF0409F496C0C1E0AE
:104DE000DF01A358BF4FCC93DA01AA0FBB1FA20F5C
:104DF000B31FAB58BF4FB701A601409550956095C2
:104E00007095AB0166277727250166247724442116
:104E100055214D935C93C11006C0882021F0DF011D
:104E2000AF51BF4FCC93D11006C0992021F0E3526F
:104E3000FF4F41E04083820F931FFC01EB59FF4F6E
:104E400080829182A282B38260C0823009F05DC00C
:104E5000F901E451FF4F8081803F09F056C07596FB
:104E60008081811145C0319680813196C080D12CDE
:104E7000E12CF12CFE2CED2CDC2CCC24E82A3196F4
:104E80008081C82A862F90E0F901B4E06B9FE00D85
:104E9000F11D1124DF01AF57BF4FCD92DD92ED928E
:104EA000FC92139750964D915D916D917C91139763
:104EB000C416D506E606F70641F1820F931FEC01F2
:104EC000CF54DF4F81E08883EF55FF4F40955095D9
:104ED000609570954C215D216E217F214083518327
:104EE00062837383CD92DD92ED92FC9213970DC095
:104EF000803F59F4F901EE5FFE4F8081833029F441
:104F0000F901E60FF11D81E0828B80E2E801199240
:104F10008A95E9F7DF91CF911F910F91FF90EF9064
:104F2000DF90CF90BF90AF909F908F907F906F90C9
:104F30005F904F9008958F929F92AF92BF92CF92C1
:104F4000DF92EF92FF920F931F93CF93DF9300D0E6
:104F5000CDB7DEB7FC01EC5AFF4F20812223C9F107
:104F60006C01F12C21E090E2A92EB12C460189EED2
:104F7000880E911CBA82A98230E0F901EE0FFF1F62
:104F80002E0F3F1FF601E20FF31FE12C84019E015B
:104F90002F5F3F4F468DF601658D838D948D0E9466
:104FA000861889819A81892B21F06F2DC6010E9474
:104FB0002426F394F4E0FF1661F0E1E0FE1629F0F8
:104FC000F2E0FF1621F027E0D5CF23E0D3CF25E094
:104FD000D1CF80E00F900F90DF91CF911F910F9173
:104FE000FF90EF90DF90CF90BF90AF909F908F9009
:104FF0000895262F642FFC01EC5AFF4F3081332394
:1050000081F0AC01475F5E4FFA0110823196108249
:1050100031963CE030833196208324E030E00C94DC
:1050200037250895FC0185810895FC018189089543
:105030006E3584E0780759F06D3A9BE1790739F0D5
:105040006E3286E1780719F06F367E40A1F44E3853
:1050500082E0580791F0463190EF590771F04130E6
:1050600084E0580751F081E0433192E0590739F06C
:105070004F3E5E4B21F080E0089581E00895089551
:10508000CF93DF93EC011A828B819C81DC01ED913F
:10509000FC910480F581E02D6D8109951D82198AAE
:1050A00080E0DF91CF910895FC0187EA91E0918340
:1050B0008083748363831582118A168288E08783D4
:1050C0008CE380871186128684E083871486158698
:1050D000868761157105B1F0DB01AA5ABF4F80E0E8
:1050E00090E02D913D91232B49F48B96880F991FC9
:1050F000DB01A80FB91FED93FC9308950196803151
:10510000910579F708958F929F92AF92BF92CF92B7
:10511000DF92EF92FF920F931F93FC01E83D8FEF18
:10512000F80709F44AC080A5811147C081A58431E0
:1051300009F043C062A573A584A595A50E94F0322D
:10514000628B738B848B958B26A537A5358F248F27
:1051500020A931A9378F268F22A933A931A320A3F3
:1051600024A935A933A322A306891789208D318D5F
:10517000601771078207930701F168017901C094F4
:10518000D094E094F0944701AA24BB246C01EE244F
:10519000FF24C820D920D38EC28E011104C06623FB
:1051A00011F041E047A3111104C0772311F021E071
:1051B00026A3668B778B808F918F1F910F91FF9025
:1051C000EF90DF90CF90BF90AF909F908F90089519
:1051D000CF92DF92EF920F931F93CF93DF9300D084
:1051E000CDB7DEB7FC0121892223A9F06C0180E252
:1051F00090E09A8389838F01085D1F4FE12C9E0107
:105200002F5F3F4F41856581838194810E9486187D
:10521000C6010E94832880E00F900F90DF91CF910C
:105220001F910F91EF90DF90CF900895DC016830CF
:1052300019F453968C910895693019F452968C9113
:105240000895E62FF0E0EE0FFF1FE85DFD4F45915A
:10525000549160E070E0BA015527442752968D9131
:105260009D910D90BC91A02D482359236A237B2347
:1052700081E0452B462B472B09F480E00895860FEB
:10528000911D860F911DFC01848D958D08958F923F
:105290009F92AF92BF92CF92EF920F93FC011F9219
:1052A0001F927F936F935F934F934A01A12CB12C70
:1052B00082E0C82EE12C09E021E2468165818381EC
:1052C00094810E9468150F900F900F900F900F908F
:1052D0000F900F91EF90CF90BF90AF909F908F90D5
:1052E0000895FC01E85BFF4F21E02083DC01A75B10
:1052F000BF4F23E02C9311966C9343E050E0BF0125
:105300000C944729662341F0653041F0E62FF0E028
:10531000E45BFD4F64916C5F0C9471290895DC018E
:105320001F96ED91FC915097309709F00994EDE4A8
:10533000F2E064916C5F0C9471292F923F924F922E
:105340005F926F927F928F929F92AF92BF92CF9215
:10535000DF92EF92FF920F931F93CF93DF93CDB71E
:10536000DEB762970FB6F894DEBF0FBECDBFDC018B
:1053700015965C905110F7C0422E242E362E7C01DB
:10538000FC01C380D480D601ED91FC910190F081A5
:10539000E02D60E0C60109955C01009719F436ED37
:1053A000532EE9C0FC01608071806114710409F41E
:1053B000DDC04701F6E08F0E911CDC0111969C9236
:1053C0008E9214964C928E010F5F1F4F22E130E0B7
:1053D00040E060E0F701838194810E944816182F15
:1053E000D5016D927C928111B4C089859A858E35E4
:1053F000B4E09B0761F08D3AEBE19E0741F08E32FD
:10540000F6E19F0721F08F369E4009F0A1C08B8501
:105410009C858F38A2E09A0709F49AC08931B7E0D9
:105420009B0709F495C08139E2E09E0709F490C01A
:105430008E38F2E09F0781F0863120EF920761F00D
:105440008130A4E09A0741F08331B2E09B0721F05C
:105450008F3E9E4B09F07CC0D601ED91FC910280FD
:10546000F381E02D222D40E0632DC6010995F7015F
:105470008583882309F47DC098859783282F40E091
:1054800060E0838194810E94F316182FD601ED917C
:10549000FC91D50114961C92882359F00480F58163
:1054A000E02DD70115966C91C6010995F70115827B
:1054B00058C00190F081E02DD70115966C91C6017E
:1054C0000995009709F46BCFFC014482940141E0F7
:1054D000D70115966C91159713968D919C91149701
:1054E0000E944711182F811134C001E0F701018794
:1054F00090E2928784E0838722E0248795878687DD
:10550000940143E06581838194810E944711182FA3
:1055100081111FC068EC70E080E090E00E947D0E79
:1055200021E0D70116964C91169715966C91159718
:1055300013968D919C9114970E946118182F8111D8
:1055400008C0C7010E948F29F7010283018B13C095
:1055500011EDD701ED91FC910480F581E02DC7019B
:105560000995512E08C029ED522E05C097ED592EF0
:1055700002C084ED582E852D62960FB6F894DEBFDA
:105580000FBECDBFDF91CF911F910F91FF90EF9094
:10559000DF90CF90BF90AF909F908F907F906F9053
:1055A0005F904F903F902F9008956F927F928F92CF
:1055B0009F92AF92BF92CF92DF92EF92FF920F93A2
:1055C0001F93CF93DF9300D01F92CDB7DEB77C013E
:1055D000ADB6BEB68091E80083FF0CC1F7018081B3
:1055E00090E020913F08309140082817390709F0D2
:1055F00001C180913C08833009F4A0C030F48130AF
:1056000071F0823009F4D9C0F5C08A3009F4BCC009
:105610008B3009F4A4C0893009F0ECC050C08091EF
:105620003B08813A09F0E6C08DB69EB61A8219820F
:1056300080913D0810913E088B83F7018085482FAB
:1056400050E08DB79EB7841B950B0FB6F8949EBFA4
:105650000FBE8DBFEDB7FEB731966F0160E070E011
:10566000CF010E940D334FEF410F8E010F5F1F4F8F
:105670009601BE016D5F7F4FC7010E943732F7016F
:1056800086819781009729F0408550E0B6010E94FD
:1056900004331092E9008091E800877F8093E8004E
:1056A0008B8181118093F10069817A81C6010E940A
:1056B000302D8091E8008B778093E80039C080918D
:1056C0003B08813209F096C08DB69EB60091410824
:1056D0001091420870903D0860903E088DB79EB7CB
:1056E000801B910B0FB6F8949EBF0FBE8DBFEDB718
:1056F000FEB731966F018091E800877F8093E800C4
:10570000B801CF010E948E2D8091E8008E778093A2
:10571000E80021E0711001C020E030E0021B130B13
:105720002C0D3D1D4FEF460D672DC7010E947E32A7
:105730000FB6F8949EBE0FBE8DBE5CC080913B0834
:10574000813A09F057C08091E800877F8093E80094
:105750008091E80080FFFCCFF701818542C08091F5
:105760003B08813209F046C08091E800877F809332
:10577000E8000E94A22E90913D0881E0911101C0A5
:1057800080E0F701818736C080913B08813291F536
:105790008091E800877F8093E8000E94A22E80918C
:1057A0003D0890913E08882736E0969587953A9572
:1057B000E1F7F701958784871DC080913B08813A06
:1057C000C9F48091E800877F8093E8008091E80029
:1057D00080FFFCCFF70184859585969587959695F2
:1057E00087958093F1008091E8008E778093E800A0
:1057F0000E94A22E0FB6F894BEBE0FBEADBE0F9093
:105800000F900F90DF91CF911F910F91FF90EF902C
:10581000DF90CF90BF90AF909F908F907F906F90D0
:105820000895FC01399627E0DF011D922A95E9F7DA
:1058300021E0FC01218728E833E13587248723E034
:10584000248361E001960C94642E5F926F927F92A4
:105850008F929F92AF92BF92CF92DF92EF92FF9280
:105860000F931F93CF93DF9300D01F92CDB7DEB776
:105870007C01ADB6BEB680913A08843009F08BC089
:105880008091E4009091E500F70122853385281787
:10589000390709F480C081818F708093E90080917D
:1058A000E80085FF78C08DB69EB6408550E08DB784
:1058B0009EB7841B950B0FB6F8949EBF0FBE8DBF8D
:1058C000EDB7FEB731966F011B821A82198260E034
:1058D00070E0CF010E940D338E010F5F1F4F9601C4
:1058E00040E0BE016D5F7F4FC7010E943732582EE6
:1058F000F70184859585892B29F011E086859785A8
:10590000892B09F010E0F70166807780611471043B
:1059100091F049815A81B301C6010E94F73201E03A
:10592000892B09F400E0F701408550E0B601C3017E
:105930000E94043301C000E089819A81892BF9F02B
:10594000511004C0011102C010FF19C0F701848575
:1059500095859787868781818F708093E9008B81F9
:1059600081118093F10069817A8140E050E0C601A5
:105970000E94E32C8091E8008E778093E80080916C
:10598000E4009091E500F701938782870FB6F894C1
:105990009EBE0FBE8DBE0FB6F894BEBE0FBEADBE8E
:1059A0000F900F900F90DF91CF911F910F91FF906B
:1059B000EF90DF90CF90BF90AF909F908F907F90AF
:1059C0006F905F900895CF92DF92EF92FF920F93C6
:1059D0001F93CF93DF93EC018B017A010E94C12EBC
:1059E000811135C0E114F10439F0F7018081918112
:1059F000081B190BC80FD91FC12CD12C011511057B
:105A000029F18091E80085FD18C08091E8008E772B
:105A10008093E8000E948331E114F10449F0F7011A
:105A200080819181C80ED91ED182C08285E00FC0CD
:105A30000E94C12E882311F30AC089918093F1003E
:105A400001501109FFEFCF1ADF0AD8CF80E0DF91B4
:105A5000CF911F910F91FF90EF90DF90CF9008951D
:105A600020914108309142082617370748F0611508
:105A7000710539F42091E8002E772093E80001C0E9
:105A8000B901FC0120E06115710579F180913A08B6
:105A90008823F1F18530F1F18091E80083FD3CC06D
:105AA0008091E80082FD2EC08091E80080FFEBCF5E
:105AB0002091F3008091F20090E0922B6115710526
:105AC00051F08032910538F421912093F10061501A
:105AD00071090196F3CF21E0809709F020E08091D1
