:100000000C9445010C946D010C946D010C946D01E0
:100010000C946D010C946D010C946D010C946D01A8
:100020000C946D010C946D010C94272F0C946D01B0
:100030000C946D010C946D010C946D010C946D0188
:100040000C946D010C946D010C946D010C946D0178
:100050000C946D010C946D010C946D010C948A0D3F
:100060000C946D010C9401080C9433080C946D01F0
:100070000C946D010C946D010C946D010C946D0148
:100080000C946D010C946D010C946D010C946D0138
:100090000C94240B0C946D010C946D010C946D0167
:1000A0000C946D010C946D010C946D01BA0EBD0E93
:1000B000AC0EB00EB60EDE0EDE0EDE0EC10EC50E9E
:1000C000C90ECF0ED30EDE0ED90E1D3044303C319A
:1000D00044303C319030B3303C310A3119310D0A93
:1000E000546869732069732074686520686F73743D
:1000F00020636F6E74726F6C6C6572000D0A5553DD
:100100004220486F737420436F6E74726F6C6C651D
:100110007220496E697469616C69736564000D0AC7
:100120004F534320646964206E6F7420737461724E
:1001300074000D0A546869732064657669636520EC
:10014000697320696E20706C6179657220736C6FC1
:100150007420000000000200090F000003040100E9
:100160000C00000000000000000000000000000083
:1001700000000408020110408040102040804080B0
:10018000080204018040201002011080102040402D
:10019000200404040404030405020202020403020E
:1001A000020202060606060606040402020204040F
:1001B000000000002300260029002C002F00000072
:1001C0000000250028002B002E0031000000000058
:1001D000240027002A002D00300000010008000242
:1001E000000400200010004000800000000001001A
:1001F0000200200010004000800004000800000100
:1002000000080002000400200010004000800000F0
:1002100000000100020020001000400080000400E7
:1002200008000002030405010001000800020004A8
:1002300000200010004000800000000001000200CB
:1002400020001000400080000400080000020304A9
:1002500005010902200001010080FA0904000002E2
:10026000584200000705810320000407050203200F
:10027000000412011001000000205E048902210127
:10028000000000010E035908860D11241FBECFEF98
:10029000DAE0DEBFCDBF11E0A0E0B1E0E0EDF5E6D1
:1002A00002C005900D92A63EB107D9F728E0A6EE50
:1002B000B1E001C01D92A634B207E1F711E0C5E438
:1002C000D1E004C02197FE010E94BC32C234D107A4
:1002D000C9F70E944E030C94E6320C9400000E9471
:1002E000553180915406811110C08091E4009091A5
:1002F000E50020911C0130911D01821B930B049796
:1003000020F082E191E00C94F72B0895982F462F6E
:10031000262F30E0F901E554FB4F5789552329F08A
:10032000682F8BEB94E00C946E24220F331FF9019D
:10033000EE5FFE4F0190F081E02D8281882321F055
:10034000692FCF010C94CE28F901E65FFE4F019092
:10035000F081E02D8481882389F0692F88EF890F4F
:10036000823040F4CF010E948B2096958795969518
:10037000879503C0CF010E948B20582F852F0895A9
:10038000982F462F262F30E0F901E554FB4F87893F
:10039000882329F0692F8BEB94E00C94AF24220F73
:1003A000331FF901EE5FFE4F0190F081E02D828155
:1003B000882321F0692FCF010C94F728F901E65F1B
:1003C000FE4F0190F081E02D8481882321F0692F78
:1003D000CF010C94B02080E090E00895FF920F933D
:1003E0001F93CF93DF93182FF62E042FC42FD0E046
:1003F000FE01E554FB4F8789882339F0242F462FCF
:10040000612F8BEB94E00E94A525CC0FDD1FFE0130
:10041000EE5FFE4F80819181FC012281222331F029
:10042000011104C04F2D612F0E944729C65FDE4F86
:1004300088819981FC012481222381F001110EC061
:100440000F2D0695212F26954F2D469546954695BD
:10045000612F6695669566950E944222DF91CF9145
:100460001F910F91FF9008951F93CF93DF93182F43
:10047000462FC62FD0E0FE01E554FB4F8789882325
:1004800029F0612F8BEB94E00E940C25CC0FDD1F2F
:10049000CE5FDE4F88819981FC012281222331F0D9
:1004A000612FDF91CF911F910C943A29DF91CF9169
:1004B0001F910895282F30E0F901E554FB4F8789FB
:1004C000811113C0220F331FF901EE5FFE4F01901F
:1004D000F081E02D8281811109C0F901E65FFE4FB4
:1004E0000190F081E02D8481089581E008952E9A95
:1004F00008952E988EBD0DB407FEFDCF1EBC0DB421
:1005000007FEFDCF0E9477028EB508952E98826077
:100510008EBD0DB407FEFDCF6EBD0DB407FEFDCF41
:100520000C94770288EF0E947902807C8034A1F0DD
:1005300018F4882301F10895803819F0803CB9F04F
:10054000089588ED0E94790281FD0BC069EC88ED69
:100550000E94860282E00CC088ED0E94790281FD33
:10056000F5CF6BEC88ED0E94860283E001C081E04C
:1005700080931A02089561ED88ED0E948602109220
:100580001A0208950F931F93CF93DF938C01269A3D
:100590000E947702219A229A2398209A80E58CBDA6
:1005A0001DBC259868E188E80E94860260E288E721
:1005B0000E94860260E088E70E948602C0E0D0E0E8
:1005C00088E60E947902219680FD06C0CF3F8FEF1A
:1005D000D807B1F78FEF1DC061EC88ED0E9486024D
:1005E00060E680ED0E94860264E088EE0E9486024A
:1005F00088EE0E94790282FFFBCFC8010E9492021E
:1006000060E288EC0E94860261E080E80E94860237
:1006100080E0DF91CF911F910F9108958CED95E0CF
:100620000E9482106CED75E08BEC95E00E94A51B9A
:100630006CED75E08BEB94E00E940C246CED75E0A2
:1006400083E694E00E94231F6CED75E08BE094E05C
:100650000E94231F6CED75E083EB93E00E94231F43
:100660006CED75E08BE593E00E94231F6CED75E067
:100670008BE093E00E940C286CED75E08BEB92E030
:100680000E940C286CED75E08BE692E00E940C282D
:100690006CED75E08BE192E00C940C280E944C0EFE
:1006A00061E089E00E94DF0E61E081E10E94DF0EDF
:1006B00061E087E00E94DF0E62E083E10E94DF0ECE
:1006C00062E084E10E94DF0E60E089E00E941B0F7F
:1006D00061E081E10E941B0F0E947031789426E056
:1006E00040E251EA67E070E082EB96E00E949907F1
:1006F00083E10E944A0FEC0184E10E944A0FCC0F73
:10070000DD1F8C2B8093B10662E371E082EB96E0F3
:100710000E94C6086091B10670E06F5F7F4F4AE0AB
:1007200050E082EB96E00E9482098CE5E5E5F6E078
:10073000DF011D928A95E9F764E670E080E090E0C1
:100740000E94050E60E089E00E941B0F64E170E0EA
:1007500080E090E00E94050E61E089E00E941B0F9E
:1007600064E170E080E090E00E94050E8CED95E081
:100770000E94C2028F3FB9F46EE171E082EB96E015
:100780000E94C60881E10E944A0F61E0892B09F0AE
:1007900060E081E10E941B0F64EF71E080E090E077
:1007A0000E94050EEFCF6CEF70E082EB96E00E94A6
:1007B000C60881EC97E00E94F40C40E85AE166E03C
:1007C00070E081EC97E00E94FE0C6EED70E082EB31
:1007D00096E00E94C608ADECB4E0EBEBF4E08FEFDE
:1007E00091E082838383848385839D93349624E080
:1007F000EB3CF207B1F744244A948CED95E00E945B
:1008000092028AEE682E81E0782E9AE0C92E92E05C
:10081000D92EC5E5D6E026EE822E21E0922E3AE0D2
:10082000232E31E0332E4AEFA42E41E0B42E0BEB01
:1008300014E07801512C8CED95E00E944518852D2F
:100840000E945A02882309F462C1809154068111E2
:10085000A0C01A82652D0E948601882319F08A8122
:1008600081608A83652D82E00E948601882319F0C9
:100870008A8182608A83652D83E00E9486018823B5
:1008800019F08A8184608A83652D81E00E94860147
:10089000882319F08A8188608A83652D85E00E940B
:1008A0008601882319F08A8180618A83652D84E01E
:1008B0000E948601882319F08A8180628A83652DCF
:1008C00086E00E948601882319F08A8180648A83E9
:1008D000652D87E00E948601882319F08A8180684F
:1008E0008A83652D8DE00E948601882311F04C8259
:1008F00001C01C82652D8CE00E948601882311F0C6
:100900004D8201C01D82652D8EE00E9486018823E4
:1009100011F04E8201C01E82652D8FE00E9486017B
:10092000882311F04F8201C01F82652D8AE00E944A
:100930008601882311F0498601C01986652D8BE058
:100940000E948601882311F0488601C01886652D13
:1009500088E00E9486018A87652D89E00E948601D1
:100960008B87652D80E00E94C0019D878C87652D57
:1009700081E00E94C0019F878E87652D82E00E94E2
:10098000C001998B888B652D83E00E94C0019B8BF1
:100990008A8B0E94D40DD6012D913D914D915C9191
:1009A000DC01CB01821B930BA40BB50B0997A105AE
:1009B000B10508F466C0652D80E10E948601882398
:1009C000B9F1F50180819181A281B381892B8A2BB4
:1009D0008B2B41F40E94D40DD5016D937D938D93A3
:1009E0009C9313970E94D40DF5012081318142819F
:1009F0005381DC01CB01821B930BA40BB50B893E09
:100A00009340A105B105E8F10E94D40DD5012D91C7
:100A10003D914D915C91DC01CB01821B930BA40BAA
:100A2000B50B8C349440A105B10508F4BEC029C0B3
:100A3000652D85E00E948601882309F4D8C0652DC4
:100A400084E00E948601882309F4D1C0652D88E0E6
:100A50000E948601882309F4CAC0652D89E00E949E
:100A60008601882309F4C3C0452D60E080E00E9420
:100A7000EE010E94D40DF60160837183828393831B
:100A80001E8A552009F440C0652D81EC97E00E9434
:100A9000020D44E150E0BE0181EC97E00E947C0C25
:100AA00061E081EC97E00E940C0D42E0652D81EC45
:100AB00097E00E94830D823019F581EC97E00E9447
:100AC000590CAC01019651F08C8990E09A013327C2
:100AD0008217930719F04C8B81E08E8B81EC97E0A5
:100AE0000E94590CAC01019679F08D8990E09A0131
:100AF00033278217930741F04D8B81E08E8B04C022
:100B000081EC97E00E94D80C0E946F0114C0552020
:100B100091F0652D81EC97E00E94020D42E050E0DB
:100B200060E071E081EC97E00E947C0C61E081EC78
:100B300097E00E940C0D539484E0680E711C94E0C1
:100B4000E90EF11CA4E0CA0ED11C67960F5F1F4F7F
:100B5000BFEF8B1A9B0AE2E02E0E311CF4E0AF0EC1
:100B6000B11C24E0521267CE80E00E945A02882312
:100B700079F08091E0008E7F8093E00080915306B1
:100B8000882309F43ACE60E081E10E941B0F35CE44
:100B900061E081E10E941B0F8091E0008160809301
:100BA000E00081E08093CD0428CE1A82452D60E0DC
:100BB00080E00E94EE016AE070E080E090E00E9438
:100BC000050ED80157968C91882329F0652D8BEB63
:100BD00094E00E94E7240E94D40DD6016D937D938A
:100BE0008D939C93139781E0F801828B4ACFD501B6
:100BF0001D921D921D921C9213978E89813079F45B
:100C0000452D6D898C890E94EE011E8A0E94D40DAB
:100C1000D6016D937D938D939C93139732CFF801FA
:100C200087898823F9F082898130E1F451101AC054
:100C300060E08BEB94E00E944925D80152961C920B
:100C400080915406811105C029E0F701228382E0DA
:100C500083830E94D40DD3016D937D938D939C93D8
:100C6000139752CF0E94D40DF3012081318142812C
:100C70005381DC01CB01821B930BA40BB50B87398D
:100C80009105A105B10558F1D70112966C916F3FFE
:100C900031F1F8018289811122C087898823F9F016
:100CA00051101DC040E08BEB94E00E94B127F7018A
:100CB00083818283848183838581848345820E94AA
:100CC000D40DD6016D937D938D939C9313970E94C1
:100CD000D40DF301608371838283938315CFD40194
:100CE0008C91823D51F4F8018789882369F0652D44
:100CF0008BEB94E00E94322507C0833D48F58111BB
:100D000010C0E4E6D401EC930E94D40DD6016D939B
:100D10007D938D939C931397F40180818F5F8083E3
:100D2000B0CE883C89F7D80157968C91882329F05A
:100D3000652D8BEB94E00E941925F1018081918152
:100D4000DC0114962C912223F9F20E946D22DCCF53
:100D5000863E69F4F80187898823B1F2828981117E
:100D6000D3CF652D8BEB94E00E948D25CDCF803FB6
:100D700031F4652D81E0850D0E943402C5CF8C3D94
:100D800019F6D80157968C915797882309F4BCCF50
:100D900052968C918111B8CF652D8BEB94E00E9417
:100DA0006B25B2CFFC01918D228D892F90E0805C64
:100DB0009F4F821B91098F7399270895FC01918D94
:100DC000828D981731F0828DE80FF11D858D90E0AE
:100DD00008958FEF9FEF0895FC01918D828D9817F4
:100DE00061F0828DDF01A80FB11D5D968C91928D0F
:100DF0009F5F9F73928F90E008958FEF9FEF08950C
:100E0000FC01538D448D252F30E0842F90E0821B10
:100E1000930B541710F0CF96089501970895FC0195
:100E2000848DDF01A80FB11DA35ABF4F2C91848D73
:100E300090E001968F739927848FA689B7892C93A8
:100E4000A089B1898C9180648C93938D848D981343
:100E500006C00288F389E02D80818F7D808308950C
:100E6000EF92FF920F931F93CF93DF93EC0181E0FA
:100E7000888F9B8D8C8D981305C0E889F9898081B6
:100E800085FD24C0F62E0B8D10E00F5F1F4F0F73F2
:100E90001127E02E8C8DE8120CC00FB607FCFACF9C
:100EA000E889F989808185FFF5CFCE010E940F077F
:100EB000F1CF8B8DFE01E80FF11DE35AFF4FF08259
:100EC0000B8FEA89FB898081806207C0EE89FF89E8
:100ED0006083E889F98980818064808381E090E083
:100EE000DF91CF911F910F91FF90EF900895CF93D5
:100EF000DF93EC01888D8823C9F0EA89FB89808122
:100F000085FD05C0A889B9898C9186FD0FC00FB6F3
:100F100007FCF5CF808185FFF2CFA889B9898C9134
:100F200085FFEDCFCE010E940F07E7CFDF91CF9174
:100F30000895CF92DF92EF92FF921F93CF93DF93AA
:100F4000EC016A017B01122FE889F98982E0808334
:100F50004115514E61057105B1F060E079E08DE316
:100F600090E0A70196010E949A32DA01C901019727
:100F7000A109B109B695A795979587959C0121156B
:100F800080E13807A8F0E889F989108260E874E800
:100F90008EE190E0A70196010E949A32DA01C90120
:100FA0000197A109B109B695A795979587959C01D9
:100FB000EC85FD853083EE85FF852083188EEC89D6
:100FC000FD891083EA89FB89808180618083EA89B9
:100FD000FB89808188608083EA89FB8980818068C1
:100FE0008083EA89FB8980818F7D8083DF91CF9127
:100FF0001F91FF90EF90DF90CF90089580E090E0F8
:1010000008951F920F920FB60F9211242F938F9372
:101010009F93EF93FF93E091C206F091C306808106
:10102000E091C806F091C90682FD12C090818091BE
:10103000CB068F5F8F732091CC06821751F0E09121
:10104000CB06F0E0EE54F94F958F8093CB0601C0AC
:101050008081FF91EF919F918F912F910F900FBE03
:101060000F901F9018951F920F920FB60F92112498
:101070002F933F934F935F936F937F938F939F93A0
:10108000AF93BF93EF93FF9382EB96E00E940F071D
:10109000FF91EF91BF91AF919F918F917F916F9150
:1010A0005F914F913F912F910F900FBE0F901F9026
:1010B0001895E2EBF6E01382128288EE93E0A0E04E
:1010C000B0E084839583A683B78386E291E0918321
:1010D00080838DEC90E0958784878CEC90E09787F7
:1010E000868788EC90E0918B808B89EC90E0938BE5
:1010F000828B8AEC90E0958B848B8EEC90E0978BC2
:10110000868B118E128E138E148E08950895CF92B1
:10111000DF92EF92FF920F931F93CF93DF936C01B7
:101120007A018B01C0E0D0E0CE15DF0581F0D80157
:101130006D918D01D601ED91FC910190F081E02D32
:10114000C6010995892B11F02196EECF7E01C701CA
:10115000DF91CF911F910F91FF90EF90DF90CF9093
:1011600008956115710579F0FB0101900020E9F700
:101170003197AF01461B570BDC01ED91FC910280CA
:10118000F381E02D099480E090E00895EF92FF92C2
:101190000F931F93CF93DF938C017B01C0E0D0E0CE
:1011A000F701EC0FFD1F6491662361F0D801ED910A
:1011B000FC910190F081E02DC8010995892B11F077
:1011C0002196EECFCE01DF91CF911F910F91FF902D
:1011D000EF900895DC01ED91FC910190F081E02DFC
:1011E00009948F929F92AF92BF92EF92FF920F93CA
:1011F0001F93CF93DF93CDB7DEB7A1970FB6F894C7
:10120000DEBF0FBECDBF7C01FA01CB0119A2223097
:1012100008F42AE08E010F5D1F4F822E912CA12C25
:10122000B12CBF01A50194010E949A32F901CA01B3
:10123000015011096A3010F4605D01C0695CD80189
:101240006C93232B242B252B61F7B801C7010E9437
:10125000B108A1960FB6F894DEBF0FBECDBFDF91E7
:10126000CF911F910F91FF90EF90BF90AF909F9003
:101270008F900895CF92DF92EF92FF920F931F937A
:10128000CF93DF932115310581F4DC01ED91FC91C1
:101290000190F081E02D642FDF91CF911F910F918C
:1012A000FF90EF90DF90CF9009942A30310501F53F
:1012B00077FF1DC06A017B01EC016DE20E94EA0824
:1012C0008C0144275527BA014C195D096E097F0925
:1012D0002AE0CE010E94F108800F911FDF91CF918B
:1012E0001F910F91FF90EF90DF90CF9008952AE02B
:1012F000DF91CF911F910F91FF90EF90DF90CF90F2
:101300000C94F1089A01AB01770F660B770B0C94E4
:101310003A09CF93DF93CCEBD0E018821092C0074C
:1013200081E08093BE071092BD0761E082E00E94D9
:101330001B0F61E083E00E941B0FE9EBF0E080816E
:101340008E7F808380818D7F808388E48093B80046
:1013500085E48883DF91CF910895813049F410921C
:101360004F0710925007109251071092520717C062
:1013700080914F0790915007A0915107B09152076B
:101380000196A11DB11D80934F0790935007A09324
:101390005107B093520784E690E00E94410E80917D
:1013A0004F0790915007A0915107B0915207803597
:1013B0009105A105B10580F010924F0710925007DA
:1013C00010925107109252070E94890961E081E151
:1013D0000E941B0F81E0089580E008959B01AC01FD
:1013E00060E074E284EF90E00E949A32DA01C90171
:1013F0004097A109B109B695A795979587958093D0
:10140000B8000895FF920F931F93CF93DF93D82FC7
:10141000162F072FC42FF22E413208F054C081E05E
:101420000E94AD098091C007882329F080E00E94C6
:10143000AD098823B9F381E08093C007F092BE071D
:101440009FEF90935307109298079C0F90939707E4
:101450008093BF078091BF07DD0FD82BD093BF07C4
:101460008091BD07813061F41092BD078091BF0764
:101470008093BB008091BC0083FDF8CF85EC01C058
:1014800085EE8093BC0081E00E94AD098091C00789
:10149000813029F480E00E94AD098823B9F380915E
:1014A00098078C1710F4C0919807A9E9B7E0912F1D
:1014B000E12FF02F8E2F891B8C1718F48D918193BB
:1014C000F9CF8C2F01C080E0DF91CF911F910F9158
:1014D000FF900895DF92EF92FF920F931F93CF93A7
:1014E000DF93413208F062C0D22E142FE72EF62E81
:1014F000D82F81E00E94AD09C091C007CC2331F004
:1015000080E00E94AD0981114FC0F6CF82E0809348
:10151000C0070093BE078FEF809353071092980780
:10152000109397079F2DA9E9B7E0EF2DFE2D8E2F81
:10153000891B811718F481918D93F9CF1092BF0701
:101540008091BF07DD0FD82BD093BF078091BD07D7
:10155000813061F41092BD078091BF078093BB007A
:101560008091BC0083FDF8CF85EC01C085EE8093AF
:10157000BC0081E00E94AD09DD2051F08091C007E0
:10158000823031F480E00E94AD0981110DC0F4CFAA
:10159000809153078F3F79F080915307803241F05B
:1015A00080915307803331F0C4E005C0C1E003C02F
:1015B000C2E001C0C3E08C2FDF91CF911F910F914A
:1015C000FF90EF90DF90089540917507262F30E04F
:1015D000240F311D21323105DCF42091C007243065
:1015E000C9F4FC0180E090E0861758F4309175074B
:1015F0002191DC01A958B84FA30FB11D2C9301967E
:10160000F3CF80917507680F6093750780E00895A8
:1016100081E0089582E0089585ED8093BC0081E02B
:101620000E94AD098091BC0084FF05C080E00E944B
:10163000AD098823B9F31092C007089585EC809313
:10164000BC001092C00708951F920F920FB60F9220
:1016500011242F933F934F935F936F937F938F93B7
:101660009F93AF93BF93EF93FF938091B900887FCF
:10167000803609F49EC078F5883209F45DC090F494
:10168000803109F456C038F4882309F4F5C0883055
:1016900009F44FC0F5C0883109F44EC0803209F416
:1016A0005FC0EEC0803409F46AC058F4803309F496
:1016B00057C0883309F0E4C0809353070E941E0B83
:1016C000DFC0803509F44FC0883509F45DC0883427
:1016D00009F0D6C0D3C0883909F4C4C0A8F488374B
:1016E00009F467C038F4883609F463C0803709F418
:1016F00060C0C6C0883809F4B5C0803909F45FC03D
:10170000803809F0BDC05BC0803B09F483C038F469
:10171000803A09F466C0883A09F47CC0B1C0803CC4
:1017200009F4A4C0883C09F4A1C0883B09F487C02F
:10173000A7C08091BF0710C090919807809197072C
:10174000981770F5E091980781E08E0F80939807C5
:10175000F0E0E756F84F80818093BB0085EC83C0B2
:10176000809353078BC0E091980781E08E0F8093A0
:1017700098078091BB00F0E0E756F84F8083909186
:101780009807809197076BC0E091980781E08E0FD2
:10179000809398078091BB00F0E0E756F84F808374
:1017A0008091BE0781116AC081E08093BD0784EA01
:1017B0005EC083E08093C00710925407CFCF809122
:1017C0005407803208F04EC0E091540781E08E0F3C
:1017D000809354078091BB00F0E0EB5AF84F808370
:1017E000BDCF0E941E0B80915407803230F4E091EF
:1017F0005407F0E0EB5AF84F10826091540770E004
:10180000E091B907F091BA0785E597E00995109244
:10181000540736C084E08093C00710927607109278
:101820007507E091BB07F091BC070995809175079A
:10183000811105C081E08093750710927707E091D0
:10184000760781E08E0F80937607F0E0E958F84F35
:1018500080818093BB0090917607809175079817DF
:1018600008F47CCF85E88093BC000AC085EC8093A7
:10187000BC001092C00704C0109253070E940C0BCA
:10188000FF91EF91BF91AF919F918F917F916F9158
:101890005F914F913F912F910F900FBE0F901F902E
:1018A00018958091F10790E02091F207821B910931
:1018B00008959091F2078091F107981750F4E92F5D
:1018C000F0E0ED50F84F208130E09F5F9093F207F9
:1018D00002C02FEF3FEFC9010895E091F207809118
:1018E000F107E81730F4F0E0ED50F84F808190E018
:1018F00008958FEF9FEF0895CF92DF92EF92FF92BE
:101900000F931F93CF93DF937C01CB018A0120912A
:10191000CD07222389F0EB016B01C40ED51ECC1537
:10192000DD0569F06991D701ED91FC910190F0819D
:10193000E02DC7010995F3CF642F0E94E40AC80186
:10194000DF91CF911F910F91FF90EF90DF90CF909B
:101950000895CF93DF931F92CDB7DEB769832091AF
:10196000CD072223D1F02091CE07203240F021E094
:1019700030E0FC013383228380E090E015C0809149
:10198000CF07E82FF0E0E053F84F998190838F5F05
:101990008093CF078093CE0705C061E0CE0101960A
:1019A0000E94E40A81E090E00F90DF91CF910895CA
:1019B0001092F2071092F10780E2E3EFF7E0DF0107
:1019C0001D928A95E9F70895FC011382128288EE30
:1019D00093E0A0E0B0E084839583A683B78388E397
:1019E00091E09183808308951092F2071092F1079D
:1019F0001092CF071092CE070C948909CB01BA013F
:101A00000C94EE0981E08093CD076093F00710926B
:101A1000CF071092CE0708950F93062F21E0409133
:101A2000CE0760ED77E08091F0070E946A0A10927D
:101A3000CF071092CE071092CD070F9108954F92C5
:101A40005F926F927F92AF92BF92CF92EF92FF928E
:101A50000F931F93CF93DF935C01F62ED42F2801B1
:101A60003901EE2021F10E94020DCE2DC43008F084
:101A7000C3E0C150C0F028E0C29FC0011124A301FF
:101A8000920104C056954795379527958A95D2F7C8
:101A9000CA01B901D501ED91FC910190F081E02DD1
:101AA000C5010995E6CF60E0C5010E940C0D4D2FE0
:101AB000D13208F040E22C2D63EF77E08F2D0E94A9
:101AC000020A1092F2078093F107DF91CF911F91E4
:101AD0000F91FF90EF90CF90BF90AF907F906F905D
:101AE0005F904F900895CF92EF920F931F93C22E65
:101AF000E12C00E010E098010E941F0D1F910F9152
:101B0000EF90CF90089521E00C94730D81EC97E055
:101B10000C94E40C1F920F920FB60F9211242F9386
:101B20003F938F939F93AF93BF93809114089091AD
:101B30001508A0911608B09117083091130823E0FA
:101B4000230F2D3720F40196A11DB11D05C026E8F5
:101B5000230F0296A11DB11D209313088093140832
:101B600090931508A0931608B09317088091180851
:101B700090911908A0911A08B0911B080196A11D17
:101B8000B11D8093180890931908A0931A08B09378
:101B90001B08BF91AF919F918F913F912F910F9013
:101BA0000FBE0F901F9018952FB7F89460911408EE
:101BB0007091150880911608909117082FBF08950D
:101BC0003FB7F8948091180890911908A0911A08CD
:101BD000B0911B0826B5A89B05C02F3F19F00196B0
:101BE000A11DB11D3FBFBA2FA92F982F8827820FA3
:101BF000911DA11DB11DBC01CD0142E0660F771FF3
:101C0000881F991F4A95D1F708958F929F92AF929E
:101C1000BF92CF92DF92EF92FF926B017C010E9404
:101C2000E00D4B015C01C114D104E104F10401F1A8
:101C30000E9486080E94E00DDC01CB0188199909F9
:101C4000AA09BB09883E9340A105B10560F321E0D4
:101C5000C21AD108E108F10888EE880E83E0981EC8
:101C6000A11CB11CC114D104E104F10419F7DBCFAC
:101C7000FF90EF90DF90CF90BF90AF909F908F90AC
:101C800008958230910538F0880F991F880F991FA9
:101C900005970197F1F70895789484B5826084BD23
:101CA00084B5816084BD85B5826085BD85B5816060
:101CB00085BDEEE6F0E0808181608083E1E8F0E0C0
:101CC0001082808182608083808181608083E0E8EF
:101CD000F0E0808181608083E1E9F0E080818260D2
:101CE0008083808181608083E0E9F0E08081816091
:101CF0008083E1ECF0E08081846080838081826079
:101D00008083808181608083E3ECF0E0808181606A
:101D10008083E0ECF0E0808182608083E2ECF0E0A0
:101D2000808181608083EAE7F0E080818460808345
:101D300080818260808380818160808380818068EF
:101D40008083089590E0FC013197EF30F105B0F504
:101D5000EA5AFF4F0C94BC32809180008F7703C009
:101D6000809180008F7D8093800008958091800015
:101D7000877FF9CF84B58F7702C084B58F7D84BD0E
:101D80000895809190008F7707C0809190008F7D9B
:101D900003C080919000877F809390000895809188
:101DA000C0008F7703C08091C0008F7D8093C000FA
:101DB00008958091C200877F8093C2000895CF93D9
:101DC000DF9390E0FC01EE58FE4F2491FC01EF56AA
:101DD000FE4F8491882361F190E0880F991FFC01E8
:101DE000E453FE4FC591D491FC01E254FE4FA591FE
:101DF000B491611109C09FB7F8948881209582231E
:101E00008883EC912E230BC0623061F49FB7F89465
:101E10008881322F309583238883EC912E2B2C934D
:101E20009FBF06C08FB7F894E8812E2B28838FBF01
:101E3000DF91CF9108951F93CF93DF93282F30E048
:101E4000F901ED5AFE4F8491F901EE58FE4FD491FD
:101E5000F901EF56FE4FC491CC23C1F0162F81112A
:101E60000E94A20EEC2FF0E0EE0FFF1FE254FE4F97
:101E7000A591B4919FB7F894111104C08C91D0959D
:101E8000D82302C0EC91DE2BDC939FBFDF91CF9172
:101E90001F910895CF93DF93282F30E0F901ED5A79
:101EA000FE4F8491F901EE58FE4FD491F901EF569F
:101EB000FE4FC491CC2391F081110E94A20EEC2F11
:101EC000F0E0EE0FFF1FE055FE4FA591B491EC91AD
:101ED000ED2381E090E021F480E002C080E090E01A
:101EE000DF91CF910895CF93DF93FC01EB018081C7
:101EF0009181892B21F18281882319F1DA012D91B9
:101F00003C91232BE1F0A881B9819C91A381B0E0A1
:101F1000A81BB10920813181A20FB31F9C9382813C
:101F200081508283DA018D919C91119701978D9355
:101F30009C9388819981019699838883DCCF80E086
:101F400003C08381828381E0DF91CF910895CF9395
:101F5000DF93FC01862F8078A9F4283008F04DC06B
:101F6000442321F09581973009F447C0EF01A1E0A7
:101F7000B0E09D85992341F011962596A031B105D9
:101F8000C1F73BC080E039C061111CC085E08A9F69
:101F9000E0018B9FD00D1124CE0FDF1F442331F0C1
:101FA00081E4888785818F5F858302C081E088878F
:101FB00025E02A9FC0012B9F900D1124E80FF91FE7
:101FC00080851BC06770660F660F660F442341F063
:101FD000606485818F5F85838770687F682B03C00D
:101FE0002770687B622B25E02A9FC0012B9F900DF4
:101FF0001124E80FF91F6087862FDF91CF91089594
:10200000611102C006960895FC0121E03585631731
:1020100039F02F5F35962031C9F780E090E00895C0
:10202000069635E0239F800D911D11240895DF92BF
:10203000EF92FF920F931F93CF93DF93EC01E62E65
:10204000F12C85E0689FB0011124FE01E60FF71F17
:102050008085182F177086FF17C001E085E0D82E05
:10206000FE01D09EE00DF11D112480858695869598
:10207000869587701817F9F00F5F003189F78D8109
:10208000811302C011501D8385E08E9DF0018F9D4C
:10209000F00D1124EC0FFD1F108681E08187128660
:1020A0002296D783C683DF91CF911F910F91FF9026
:1020B000EF90DF900895602FCE010E941710D0CFCF
:1020C000FC01613499F49C01255B3F4F61E0AC0158
:1020D0004E5F5F4F15866687178654874387359610
:1020E000E217F307B9F7FC011582089521E0358561
:1020F000631729F02F5F35962031C9F70895622FB5
:102100000C941710FC018AE491E09183808315827E
:10211000108681E081871286CF010296978386839D
:10212000128228E023832CE32483DF019F01255BB7
:102130003F4F41E01D961C921D971E964C931E9793
:102140001F961C921F971C969C938E931B97159617
:10215000A217B30779F7EA58FF4F108281E1809305
:1021600020080895CF93C42F0E940010009789F093
:10217000DC01ED91FC911197309759F013969C91E9
:1021800080E0891731F020812C1731F033968F5F72
:10219000F8CF80E090E001C0CF01CF9108950F9378
:1021A0001F93CF93DF932115310571F0E901042FBF
:1021B000162F0E940010FC01892B41F01283D1835D
:1021C000C083038380E003C088ED01C086EDDF910A
:1021D000CF911F910F910895CF92DF92FF920F93AD
:1021E0001F93CF93DF93662381F1F62E8C016C0150
:1021F00086E5C80ED11CC0E0D0E0D6018D919D913E
:102200006D010097F1F0DC01ED91FC910084F18506
:10221000E02D0995F81215C0AB96CC0FDD1FC00F4D
:10222000D11F88819981DC01ED91FC910480F581B9
:10223000E02DDF91CF911F910F91FF90DF90CF9014
:1022400009942196C031D105C1F680E0DF91CF918C
:102250001F910F91FF90DF90CF9008952E980895D1
:10226000CF93C82F0E942E11CEBD0DB407FEFDCF17
:102270001EBC0DB407FEFDCF0E9477028EB5CF9134
:102280000895CF93DF93C82FD62F0E942E11C260DE
:10229000CEBD0DB407FEFDCFDEBD0DB407FEFDCFF4
:1022A000DF91CF910C9477028F929F92AF92BF9261
:1022B000CF92DF92EF92FF920F931F93CF93DF9312
:1022C000EC01D62EC42E59010E9400107C0100970B
:1022D00009F445C0FC0180819181892B09F441C03A
:1022E0004C2D6D2DCE010E94B210F501918380839B
:1022F0000097C9F1FC0182818695869590E0803136
:10230000910514F08FE090E041E050E060E070E073
:102310004A015B0104C0880C991CAA1CBB1C8A954D
:10232000D2F7D501C4010197F801918380836D2D07
:1023300080EE0E94411188ED0E943011F7019481D6
:10234000992331F0CA58DF4F68816260682B02C060
:10235000682F697F88ED0E94411180E005C086EDFD
:1023600003C087ED01C08BEDDF91CF911F910F91DD
:10237000FF90EF90DF90CF90BF90AF909F908F90A5
:1023800008958F929F92AF92BF92CF92DF92EF9279
:10239000FF920F931F93CF93DF93862E942E5901B4
:1023A0000E94D40D6B017C0128E8C20E23E1D21EED
:1023B000E11CF11C00E010E0D0E0C0E098280E9491
:1023C000D40DDC01CB018C199D09AE09BF09B7FF03
:1023D0002DC0692D80EF0E9441110E94D40DDC01B7
:1023E000CB018C199D09AE09BF09B7FF09C088EC64
:1023F0000E94301187FFF1CF60E888EC0E94411104
:1024000088EF0E943011C82FCF70C43019F0CE3041
:1024100051F00CC00F5F1F4FA114B10481F20A15D7
:102420001B0569F603C0DF5FD33049F68C2FDF91BF
:10243000CF911F910F91FF90EF90DF90CF90BF90C1
:10244000AF909F908F9008959F92AF92BF92CF923E
:10245000DF92EF92FF920F931F93CF93DF937C0154
:10246000D42F122F902E00E06C01C60ED11CC60E88
:10247000D11C86E5C80ED11CA42EB12CABE2AA0E4D
:10248000B11CAA0CBB1CAE0CBF1CF6018081918153
:10249000DC01ED91FC910280F381E02D292D412F8B
:1024A0006D2F0995803EC9F4D1110BC061E088EE13
:1024B0000E94411166E670E080E090E00E94050E07
:1024C00014C0F50180819181DC01ED91FC910284C1
:1024D000F385E02D612F099508C08D3021F403307C
:1024E00008F03FC014C081113FC0F6018081918186
:1024F000DC01ED91FC910190F081E02D292D412F1F
:102500006D2F0995C82F8D3051F4033050F464E6D7
:1025100070E080E090E00E94050E0F5FB6CF882348
:1025200011F1D1110BC061E088EE0E94411166E605
:1025300070E080E090E00E94050E11C0ED2FF0E009
:10254000BB96EE0FFF1FEE0DFF1D80819181DC0118
:10255000ED91FC910284F385E02D612F09958C2F7C
:1025600003C08DE001C080E0DF91CF911F910F91FA
:10257000FF90EF90DF90CF90BF90AF909F90089525
:102580000F931F93CF93DF93182F062FEA010E941A
:102590002E1112601EBDFE01802F882339F00DB46C
:1025A00007FEFDCF91919EBD8150F7CFC00FD11D89
:1025B0000DB407FEFDCF0E947702CE01DF91CF91CF
:1025C0001F910F9108952F923F924F925F926F92B9
:1025D0007F928F929F92AF92BF92CF92DF92EF92B3
:1025E000FF920F931F93CF93DF9300D000D01F92E1
:1025F000CDB7DEB77D836C834A016901FB01F180B1
:102600008FEF8F0D803408F074C00E94D40D2B0121
:102610003C01F8E84F0EF3E15F1E611C711CEC8178
:10262000FD81828180FD02C060E401C060E888EE27
:102630000E944111312C8F2D90E09A838983C1141F
:10264000D10409F448C0E980FA80CE14DF0408F40C
:102650007601EB82A8016E2D80E10E94C0126E2DE2
:1026600088E30E944111EC81FD816081606280EF0E
:102670000E94411188EC0E94301187FFFBCF60E877
:1026800088EC0E94411188EF0E9430118F70382E23
:10269000A12CB12C212C332009F46BC00E94D40D45
:1026A000DC01CB0184199509A609B709B7FF61C000
:1026B000F6E03F1601F12EE0321609F455C084E031
:1026C000381209C0FFEFAF1ABF0A8114910449F113
:1026D000A814B90431F588EF0E94301185FB8827D2
:1026E00080F9EC81FD81928180FB90F99283832DAA
:1026F00045C08AED43C088EF0E94301185FB8827D2
:1027000080F991E08927EC81FD81928180FB90F92D
:10271000928390FD02C060E401C060E888EE0E94F0
:10272000411160E088E30E944111F801608180E17D
:102730000E9441116B8188E30E944111EC81FD816F
:102740006081606280EF0E94411188EC0E9430112C
:1027500087FFFBCF60E888EC0E94411188EF0E9460
:1027600030118F70382E97CF239423E02212D9CFC7
:10277000B2CFCE18DF080E0D1F1D61CF0F900F9046
:102780000F900F900F90DF91CF911F910F91FF90BD
:10279000EF90DF90CF90BF90AF909F908F907F9001
:1027A0006F905F904F903F902F900895AF92BF929F
:1027B000CF92DF92EF92FF920F931F93CF93DF930D
:1027C00000D000D0CDB7DEB77C01690158011C8272
:1027D0001B821A8219828E010F5F1F4F9E012D5F8F
:1027E0003F4F0E945411811109C049815A816B8168
:1027F0007C8185019601C7010E94E3120F900F9022
:102800000F900F90DF91CF911F910F91FF90EF905C
:10281000DF90CF90BF90AF9008952F923F924F924C
:102820005F926F927F928F929F92AF92BF92CF9260
:10283000DF92EF92FF920F931F93CF93DF93CDB769
:10284000DEB72A970FB6F894DEBF0FBECDBF1C01CE
:102850006B015B834A835901D9016D907C9011977C
:10286000FB01F181F9831D921C92DB0112968C9180
:1028700081FD02C060E101C060E288EE0E9441116A
:102880008E2D90E0A0E0B0E08C839D83AE83BF836B
:1028900068862A813B81D6014C9160E0C1010E948B
:1028A000C111F82EB6E08B1318C088EF0E943011CA
:1028B00082958170E1E08E27D60112969C91129745
:1028C00080FB91F912969C9391FD02C060E101C0DA
:1028D00060E288EE0E944111DCCF811167C088EC74
:1028E0000E94301182FF60C080E30E943011582E98
:1028F00090E06816790608F45884F501808191818A
:102900009301281B390B3A87298737FF02C01A86A3
:102910001986852C912C89859A858816990614F438
:102920009A86898649840E942E1198E09EBD0DB436
:1029300007FEFDCFF801442041F01EBC4A940DB4BF
:1029400007FEFDCF8EB58193F6CFA985BA850A0F14
:102950001B1F0E94770264E088EC0E944111F50180
:1029600080819181880E991E91828082F9815F1603
:1029700018F08614970470F088EF0E943011829549
:102980008170D60112969C91129780FB91F9129654
:102990009C930CC0EE2009F47CCF6C817D818E81EC
:1029A0009F810E94050E75CF80EFF82E8F2D2A96FD
:1029B0000FB6F894DEBF0FBECDBFDF91CF911F9150
:1029C0000F91FF90EF90DF90CF90BF90AF909F90CE
:1029D0008F907F906F905F904F903F902F900895D1
:1029E0002F923F924F925F926F927F928F929F921F
:1029F000AF92BF92CF92DF92EF92FF920F931F930D
:102A0000CF93DF93CDB7DEB761970FB6F894DEBFF3
:102A10000FBECDBF3C01F42E322E202EC98A4EA00F
:102A20005FA0C8A4D9A4188A1F861E861D868E01A1
:102A3000035F1F4F9E01215F3F4F0E945411811180
:102A400096C039822A82EB8289898C83BE82AD82CC
:102A500098868F82AE014F5F5F4F68E080E20E94F0
:102A6000C0122D853E854F2D60E1C3010E94C1112A
:102A7000E82E811178C0932D9078392EC114D1049D
:102A800009F462C0EF85F8898281992309F44DC069
:102A900082608283540122242394A114B10409F496
:102AA00058C05C864B864D855E856F857889E12CA4
:102AB00086019E01255F3F4FC3010E940D14E82E41
:102AC000A6E08A130FC00F85188988EF0E94301185
:102AD00085FB882780F98225F801928180FB91F996
:102AE0009283DBCF81113FC08AA59BA50097A1F0FF
:102AF000DC01ED91FC9111970190F081E02DC40172
:102B00008A199B099A8789876B857C859E01275F37
:102B10003F4FA601CD0109958B859C85A81AB90A5E
:102B20008415950508F0B9CF0FC0816082834D856B
:102B30005E8586019201BF01C3010E94E3128111EB
:102B400016C02D853E8511C02D853E85311005C0EE
:102B50000CC0E11008C02D853E8560EA4F2DC301F1
:102B60000E94C11104C08E2D02C060E8F7CF6196AB
:102B70000FB6F894DEBF0FBECDBFDF91CF911F918E
:102B80000F91FF90EF90DF90CF90BF90AF909F900C
:102B90008F907F906F905F904F903F902F9008950F
:102BA0008F929F92AF92BF92CF92EF920F931F930B
:102BB0001F921F921F930F933F932F934901A12CB4
:102BC000B12CCC24C394E12C06E020E80E94F01440
:102BD0000F900F900F900F900F900F901F910F91EB
:102BE000EF90CF90BF90AF909F908F9008958F926D
:102BF0009F92AF92BF92CF92EF92FF920F931F924C
:102C00001F92FF92EF923F932F934901A12CB12C79
:102C100022E0C22EE02E06E020E80E94F0140F9081
:102C20000F900F900F900F900F900F91FF90EF90DB
:102C3000CF90BF90AF909F908F9008954F925F92EA
:102C40006F927F928F929F92AF92BF92CF92DF92BC
:102C5000EF92FF920F931F93CF93DF93CDB7DEB721
:102C6000C054D1090FB6F894DEBF0FBECDBF3C01F2
:102C7000D62E542E422EC02ECE0101965C017C0130
:102C8000022F29E030E0C3010E94F71581111BC01B
:102C90008B809C801F93CF92BF92AF921F9280E453
:102CA0008F93A12CB12C82E0C82EE42C06E020E802
:102CB000452D6D2DC3010E94F0140F900F900F90C1
:102CC0000F900F900F90C05CDF4F0FB6F894DEBFEF
:102CD0000FBECDBFDF91CF911F910F91FF90EF906D
:102CE000DF90CF90BF90AF909F908F907F906F902C
:102CF0005F904F9008958F929F92AF92BF92CF9224
:102D0000EF920F93CF931F921F921F921F921F92C9
:102D10001F92812C912CA12CB12CC12CE22E05E00C
:102D200020E00E94F014C82F6CE271E080E090E097
:102D30000E94050E0F900F900F900F900F900F9024
:102D40008C2FCF910F91EF90CF90BF90AF909F902D
:102D50008F9008950F931F93CF93DF938A3F3FEF98
:102D6000930711F486ED2DC0DC011696ED91FC91D0
:102D70001797EF2B09F1122F242FEC011A8740E04F
:102D80000E94A70F082F8823C9F0682FCE010E9448
:102D90000010009739F3FC011483202F40E060E01D
:102DA000CE010E947B16182F882351F0602FCE0190
:102DB0000E946010812F05C087ED03C084ED01C023
:102DC00080E0DF91CF911F910F9108952F923F9254
:102DD0004F925F926F927F928F929F92AF92BF922B
:102DE000CF92DF92EF92FF920F931F93CF93DF93D7
:102DF000CDB7DEB766970FB6F894DEBF0FBECDBF76
:102E00001B8A38E03C8B3CE33D8B8A3F3FEF9307C6
:102E100009F464C0522E342E462E7C01DC01169635
:102E2000CD90DC901797CE01439617969C938E9386
:102E300016971A962C938E010F5F1F4F22E130E0F8
:102E400040E060E0C7010E94D015F701D782C6823A
:102E50008111A6C089849A846B847C84FD81FE8B59
:102E60002E80670136E5C30ED11C560110E0D50156
:102E70008D919C910097F1F1DC01ED91FC91008422
:102E8000F185E02D0995811135C0F5018081918191
:102E9000DC01ED91FC910088F189E02D622D09950E
:102EA000882341F1F50180819181DC01ED91FC9154
:102EB0000484F585E02DA301B4010995811110C0AA
:102EC000F50180819181DC01ED91FC910684F7850B
:102ED000E02D6E890995811103C00CC086ED60C09C
:102EE000052D232D442D612FC7010E942412813D01
:102EF00009F056C01F5FB2E0AB0EB11C103109F0F3
:102F0000B6CF10E0F601808191810097E1F1DC01FC
:102F1000ED91FC910084F185E02D0995811133C07C
:102F2000F60180819181DC01ED91FC910088F189AD
:102F3000E02D622D09958823D9F0F60180819181D9
:102F4000DC01ED91FC910484F585E02DA301B40131
:102F50000995811118C0F60180819181DC01ED9104
:102F6000FC910684F785E02D6E89099581110BC0CF
:102F7000052D232D442D612FC7010E942412982F67
:102F8000977F913D69F41F5FE2E0CE0ED11C1031B6
:102F900009F0B8CF252D432D642DC7010E94AA1634
:102FA00066960FB6F894DEBF0FBECDBFDF91CF910E
:102FB0001F910F91FF90EF90DF90CF90BF90AF9057
:102FC0009F908F907F906F905F904F903F902F9049
:102FD00008958F929F92AF92BF92CF92EF920F93EC
:102FE0001F921F921F921F921F921F92812C912C51
:102FF000A12CB12CC12CE22E09E020E00E94F0149B
:103000000F900F900F900F900F900F900F91EF90E7
:10301000CF90BF90AF909F908F9008958F929F9286
:10302000AF92BF92CF92DF92EF920F931F93CF9305
:10303000DF9300D000D0CDB7DEB76C015901480155
:103040001C821B821A8219828E010F5F1F4F9E0104
:103050002D5F3F4F0E94541149815A816B817C81C1
:1030600084019501C6010E940D140F900F900F90DE
:103070000F90DF91CF911F910F91EF90DF90CF9044
:10308000BF90AF909F908F900895AF92BF92CF92D4
:10309000DF92EF92FF920F931F93CF938C011D99B4
:1030A0000EC088EC0E94301185FF05C0C8010E9447
:1030B000920260E201C060E088EC0E9441118091C0
:1030C0001A02813039F040F0823079F0833039F5DE
:1030D000C1E00CC083E106C080912008807F803170
:1030E000F1F081E1809320081AC0C0E080912008AF
:1030F000807F8031A9F40E94D40DDC01CB0188537C
:103100009F4FAF4FBF4F80931C0890931D08A09313
:103110001E08B0931F0880E28093200801C0C0E021
:10312000780186E5E80EF11C6801A6E7CA0ED11CFD
:103130005701F501819191915F01009739F0DC0110
:10314000ED91FC910680F781E02D0995AC14BD044A
:1031500081F780912008803409F43FC050F4803218
:1031600021F18033A1F1813109F082C0F601108292
:103170000AC0813509F458C0803809F46AC0803526
:1031800009F076C039C0D7018D919D917D010097DE
:1031900039F0DC01ED91FC910480F581E02D099579
:1031A000EC14FD0481F782E161C00E94D40D00910E
:1031B0001C0810911D0820911E0830911F08DC0189
:1031C000CB01801B910BA20BB30BB7FD51C061E08B
:1031D00088EE0E94411180E449C088EE0E943011BF
:1031E00080FD46C088ED0E943011682F686088ED30
:1031F0000E94411180E53AC088EC0E94301186FFA0
:1032000037C081E5809320080E94D40DDC01CB01FA
:103210004496A11DB11D80931C0890931D08A09396
:103220001E08B0931F0824C00E94D40DC0901C0833
:10323000D0901D08E0901E08F0901F08DC01CB0123
:103240008C199D09AE09BF09B7FD12C080E88093B3
:1032500020082C2F40E060E0C8010E94E616882379
:1032600021F0823D29F080EA01C080E980932008A6
:10327000CF911F910F91FF90EF90DF90CF90BF9073
:10328000AF90089580E00895089580E0089580E06B
:10329000089581E00895FC018285089581E06930F8
:1032A00009F080E00895CF93DF93EC018A819B8140
:1032B000DC01ED91FC910480F581E02D6A85099592
:1032C0008A85813439F4EA81FB81EA58FF4F808195
:1032D000846080831A861B861C861D861E861F8638
:1032E000188A80E0DF91CF9108958F929F92AF92DC
:1032F000BF92CF92EF920F93A42EB12CB22A1F92BD
:103300001F921F921F921F921F92812C912CC12CF1
:10331000E62E01E023E240E0FC0162858281938198
:103320000E94F0140F900F900F900F900F900F903D
:103330000F91EF90CF90BF90AF909F908F90089596
:103340008F929F92AF92BF92CF92EF920F93A62E41
:10335000B12C1F921F923F932F935F934F934A017B
:10336000C12CE12C00E023EA40E0FC01628582816F
:1033700093810E94F0140F900F900F900F900F9078
:103380000F900F91EF90CF90BF90AF909F908F9044
:1033900008958F929F92AF92BF92CF92EF920F9328
:1033A000A42EB12CB22A1F921F921F921F921F921D
:1033B0001F92812C912CC12CE62E03E023E240E0E9
:1033C000FC016285828193810E94F0140F900F901E
:1033D0000F900F900F900F900F91EF90CF90BF90A4
:1033E000AF909F908F9008952F923F924F925F924F
:1033F0006F927F928F929F92AF92BF92CF92DF9205
:10340000EF92FF920F931F93CF93DF93CDB7DEB769
:10341000E8970FB6F894DEBF0FBECDBFDC011A9659
:103420003C91311107C1122F242E362E3C01FC0194
:10343000C280D380D601ED91FC910190F081E02D06
:1034400060E0C60109957C01009709F4F5C0FC0114
:10345000A080B180A114B10409F4F0C04301F4E0EC
:103460008F0E911CDC0111969C928E9214961C93E7
:10347000FE0131962F018F0128E030E040E060E04E
:10348000D30112968D919C9113970E94D015F7014C
:1034900014828111D9C08D81893009F0D1C0098190
:1034A000D601ED91FC910280F381E02D222D41E0C7
:1034B000632DC6010995F3018287882309F4C2C0F0
:1034C00098859583282F40E060E0828193810E9457
:1034D0007B16182F882389F0D701AD92BC92D601B4
:1034E000ED91FC910480F581E02DD3011A966C9149
:1034F000C6010995F3011286ABC0202F013208F0F6
:1035000020E2D701AD92BC9221110BC0940142E0A0
:10351000F3016285828193810E94CF10811197C04F
:1035200010C030E0820140E0D3011A966C911A97E6
:1035300012968D919C9113970E94D015811187C08E
:10354000E5CF1F921F925F924F921F9288E08F9358
:1035500088E0882E912CA12CB12C99E2C92EE12C67
:1035600006E020EA40E0F3016285828193810E94B7
:10357000F014182F0F900F900F900F900F900F9046
:10358000811166C08B81D3011B968C931B977201AE
:1035900000E028E030E040E01A966C911A9712960D
:1035A0008D919C9113970E94F715811150C02B812A
:1035B0003C8140E0F3016285828193810E94F7158E
:1035C000811145C0298130E0CE0181967C0140E027
:1035D000D3011A966C911A9712968D919C9113971C
:1035E0000E94F715811133C02E8140E0F3016285FE
:1035F000828193810E94E917811129C001E0D301E2
:103600001B968C91801740F020E0402F68E0C301AA
:103610000E94C9190F5FF3CFD3011296ED91FC916F
:103620001397EA58FF4F80818460808381E0509631
:103630008C930EC019ED0CC016ED0AC017ED08C032
:1036400011ED06C014ED04C0F701B182A082182F5D
:10365000812FE8960FB6F894DEBF0FBECDBFDF9185
:10366000CF911F910F91FF90EF90DF90CF90BF907F
:10367000AF909F908F907F906F905F904F903F9012
:103680002F900895CF92DF92FF920F931F93CF93C5
:10369000DF9300D000D0CDB7DEB78C01F62E1982B3
:1036A0001A821B821C8220E0462F61E10E9475195C
:1036B00020E04F2D60E1C8010E94751920E04F2DD8
:1036C00064E0C8010E94C91983E0C82ED12C9E0174
:1036D0002F5F3F4F44E050E06F2DC8010E94A019BA
:1036E0008823F1F020E04F2D64E1C8010E94751994
:1036F00020E04F2D60E1C8010E94751964E170E07F
:1037000080E090E00E94050E0F900F900F900F90B8
:10371000DF91CF911F910F91FF90DF90CF9008958F
:1037200089819A81AB81BC819D7F83309140A0418A
:10373000B105C1F264E670E080E090E00E94050E01
:1037400081E0C81AD10819F6CDCFFC0184E591E0DB
:103750009183808373836283128613861486158611
:1037600016861786108A148288E085839CE39683E8
:1037700091E09783808784E0818761157105B1F0BE
:10378000DB01AA5ABF4F80E090E02D913D91232BA1
:1037900049F48B96880F991FDB01A80FB91FED9391
:1037A000FC93089501968031910579F70895EF9281
:1037B000FF920F931F93CF938C01C62F7A01FA01CA
:1037C00080819181A281B3818130F3E09F07F1E094
:1037D000AF07B105D1F060F48115E1E09E07AE07B7
:1037E000B10571F181309140A140B10571F064C023
:1037F000833021E0920720E1A207B105E1F1833097
:103800009340A041B105B9F157C0809121088111C1
:1038100053C020E04C2F61E1C8010E94751920E0DF
:103820004C2F60E1C8010E94751920E04C2F64E024
:10383000C8010E94C91981E08093210881EB3DC035
:1038400020E0462F61E1C8010E94751920E04C2F4D
:1038500060E1C8010E94751910922108F801628583
:103860006770C770660F660F660F6C2B828193813D
:103870000E94EC1021C020E04C2F64E1C8010E949E
:10388000751920E04C2F60E1C8010E94751964E1B0
:1038900070E080E090E00E94050EF8016285F7017B
:1038A00021812695217067704C2FF80182819381C8
:1038B0000E94E6161092210880E0CF911F910F918F
:1038C000FF90EF900895CF92DF92EF920F931F93A6
:1038D000CF93DF93CDB7DEB72E970FB6F894DEBF48
:1038E0000FBECDBF6C0181E090E09E878D87E12CFB
:1038F0008E010F5F1F4F9E01235F3F4F41E0F60196
:103900006285828193810E940E18811151C002E06C
:1039100011E089818023D1F019861A861B861C86C6
:103920009E01275F3F4F44E050E0612FC6010E9497
:10393000A01981110BC0AE01475F5F4F612FC60117
:103940000E94D71B813B99F1811132C0000F1F5F8C
:103950001830F9F611E0F6018385811740F11986D8
:103960001A861B861C869E01275F3F4F44E050E06D
:10397000612FC6010E94A019811117C089859A85FF
:10398000877091708130914081F48B859C85816036
:103990009C878B87AE01475F5F4F612FC6010E94F6
:1039A000D71B813B21F0811103C01F5FD4CF80E082
:1039B0002E960FB6F894DEBF0FBECDBFDF91CF912C
:1039C0001F910F91EF90DF90CF9008950F931F9369
:1039D000CF93DF93FC012089211102C080E020C039
:1039E000EC010E94D40D0C851D852E853F85DC01E0
:1039F000CB01801B910BA20BB30BB7FDEFCFCE0118
:103A00000E94631C182F0E94D40DDC01CB018C593D
:103A10009F4FAF4FBF4F8C879D87AE87BF87812F4A
:103A2000DF91CF911F910F910895FC018385089537
:103A3000FC01868D08956E3524E0720799F0683395
:103A400087E0780779F06F369EE0790759F06D309E
:103A50002FE0720739F0623385E1780719F0663C90
:103A60007442A1F5413D22E0520791F14D3D82E0C3
:103A7000580771F1433E92E0590751F14A3E22E066
:103A8000520731F141308AE4580711F1493391E08E
:103A90005907F1F0463421E05207D1F0473651057D
:103AA000B9F043308AE0580799F0CA018F7D8A3116
:103AB000944571F04A3284E5580751F081E04A306C
:103AC0009BE0590739F0473A524021F080E00895D1
:103AD00081E008950895CF93DF93EC011C828985DE
:103AE0009A85DC01ED91FC910480F581E02D6B85D8
:103AF00009951B8681E08E8B1F8A188E198E1A8E6F
:103B00001D8E1E8E80E0DF91CF9108953F924F92DF
:103B10005F926F927F928F929F92AF92BF92CF925D
:103B2000DF92EF92FF920F931F93CF93DF9300D01A
:103B300000D0CDB7DEB76C017C836B835A83498399
:103B40004C0180E1880E911C5601A7E0AA0EB11C21
:103B500011E084E0482E3601B2E16B0E711C93E057
:103B6000392E22E0522E8B819C81892B09F4EEC0E4
:103B7000F60180A1823059F128F4882341F0813088
:103B800071F0F1CF833039F18430C1F1ECCF548240
:103B900085819681908787835286518610A3AE01D6
:103BA0004D5F5F4FBE016F5F7F4FC5010E94730F76
:103BB000882309F4CBC0D6011596ED91FC91169798
:103BC000808191968C939197818192968C93F60146
:103BD0007682658230A2D60192968C91929784303B
:103BE00011F493961C92F60181A182508483258161
:103BF0003681308727838287818740A2D6019296BB
:103C00008C918430A9F08530D1F1823009F062C006
:103C1000AE014D5F5F4FBE016F5F7F4FC5010E94D8
:103C2000730F882309F492C0F601858984A386C0A6
:103C3000AE014D5F5F4FBE016F5F7F4FC5010E94B8
:103C4000730F882309F482C0D60198968C919897B7
:103C5000811174C093961C93939752968C915297AE
:103C600096968C93969753968C91539797968C93A0
:103C7000979757968C91579795968C935FC0AE0106
:103C80004D5F5F4FBE016F5F7F4FC5010E94730F95
:103C9000882309F45BC0F60183A1882309F44EC090
:103CA00082819381009709F449C0DC01ED91FC9178
:103CB0000190F081E02D7401D60195960C919597B5
:103CC00097962C91979796964C91969794966C917F
:103CD000099534C0F6018585882319F0813039F0C3
:103CE00028C081A190E002979787868715872B814E
:103CF0003C8189819A81782F692FF6014685578505
:103D00004115510581F001962115310529F479837A
:103D10006A831C821B820DC0415051095787468718
:103D200021503109E8CF9A8389833C832B83F601A4
:103D30001586F60186859785892B41F4D60116965E
:103D40009C928E92159790961C920DCF0F900F908B
:103D50000F900F90DF91CF911F910F91FF90EF90F7
:103D6000DF90CF90BF90AF909F908F907F906F909B
:103D70005F904F903F900895EF92FF92CF93DF9323
:103D8000E701DC01129755966C9355978B818370F0
:103D9000833009F58A81E82FEE1FEE27EE1FEF5FD3
:103DA000F0E09F01220F331FE20FF31FEA0FFB1F0A
:103DB0008F7084878C8185878E815D969C915D97BD
:103DC000981718F45D968C935D9756968C9156973C
:103DD0008F5F56968C93DF91CF91FF90EF9008956F
:103DE000EF92FF92CF93DF93DC01E70155966C933E
:103DF00055978B818370833009F58A81E82FEE1FF8
:103E0000EE27EE1FEF5FF0E09F01220F331FE20F5E
:103E1000F31FEA0FFB1F8F7084878C8185878E814B
:103E20005D969C915D97981718F45D968C935D97BD
:103E300056968C9156978F5F56968C93DF91CF91C3
:103E4000FF90EF900895FC0180E791E091838083DB
:103E50008AE891E09383828372876187138681E089
:103E6000868B178A108E118E128E158E168E1486E2
:103E700088E085878CE386871786108A84E0818BAB
:103E8000128A138A848B61157105B1F0DB01AA5A7D
:103E9000BF4F80E090E02D913D91232B49F48B960C
:103EA000880F991FDB01A80FB91FED93FC930895AC
:103EB00001968031910579F70895CF93DF93DC0166
:103EC000D7968C91D797873009F037C0DB968C91C5
:103ED000DB975F964D915C919097EAEFF1E081302E
:103EE00049F425913491242B352B90963C932E93B5
:103EF0005F970AC08591949180959095842395232E
:103F000090969C938E935F975F962D913C9190979E
:103F100091968D919C9192972817390709F4ACC01E
:103F2000809590958223932394969C938E93939758
:103F300092963C932E9391979FC0803209F09CC03B
:103F4000EAEFF1E065917491DC962C91DC97DB96B9
:103F50008C91DB97922F9F70482F4C7050E0542F1C
:103F60004427550F550F592B982F907F492B922F8F
:103F7000907C592B8170C82F80E0D82FCE01E3E0D0
:103F8000880F991FEA95E1F7842B952B207330E079
:103F9000F4E035952795FA95E1F7822B932B5F9600
:103FA0002D913C91909762237323862B972B9096AB
:103FB0009C938E935F97DD966D917C91DE979E9694
:103FC0007C936E939D97FD01FF9640815181D09621
:103FD0005C934E939F9732962081318196963C93C5
:103FE0002E93959732962081318198963C932E930B
:103FF00097973296208131819A963C932E93999788
:104000003296208131819C963C932E939B9791967A
:104010002D913C9192978217930761F020953095EE
:104020002823392394963C932E93939792969C93AE
:104030008E9391976115710551F0D1968D919C9158
:10404000D297892B21F481E0D5968C93D597D2967F
:104050007C936E93D1974115510551F0D3968D9174
:104060009C91D497892B21F481E0D6968C93D69796
:10407000D4965C934E93D397DF91CF910895CF92CE
:10408000DF92EF920F931F93CF93DF9300D0CDB7C2
:10409000DEB7FC01268D222399F16C010E94D40D1C
:1040A000F6010789108D218D328DDC01CB01801B3B
:1040B000910BA20BB30BB7FD23C00E94D40DF601E8
:1040C000E58CDC01CB018E0D911DA11DB11D878BEF
:1040D000908FA18FB28F838990E09A838983860124
:1040E000095C1F4F9E012F5F3F4F42896385818589
:1040F00092850E940E18811103C0C6010E945D1FA7
:1041000080E00F900F90DF91CF911F910F91EF9072
:10411000DF90CF900895DC01683031F49D968C914A
:104120009D979E969C910895693031F49F968C914D
:104130009F97D0969C910895E62FF0E0EE0FFF1F19
:10414000E652FE4F259134915F968D919C91909708
:104150002823392381E090E0232B09F480E008959F
:10416000860F911D860F911DFC0185A196A10895D2
:104170000F931F93FC019A01DC01A95ABF4F8C9148
:1041800091E0980F9C93DB0112968C938B014785ED
:104190006385818592850E94D6131F910F910895A2
:1041A000DC015B96ED91FC915C97309709F00994E6
:1041B00008952F923F924F925F926F927F928F92CB
:1041C0009F92AF92BF92CF92DF92EF92FF920F93A6
:1041D0001F93CF93DF93CDB7DEB7EB970FB6F8946D
:1041E000DEBF0FBECDBFDC011B965C90511028C115
:1041F000422E242E362E7C01FC01C184D284D601AD
:10420000ED91FC910190F081E02D60E0C6010995EF
:104210005C01009719F446ED542E1AC1FC01608030
:1042200071806114710409F40EC14701FCE08F0E26
:10423000911CDC0111969C928E9214964C928E01E8
:10424000065D1F4F22E130E040E060E0F70181852C
:1042500092850E94D015182FD5016D927C92811104
:10426000E5C06AA97BA9F701708767834CA95DA99E
:10427000568345830190F081E02D0484F585E02D7F
:10428000C7010995811102C011EDD0C0D601ED9191
:10429000FC910280F381E02D222D40E0632DC601C8
:1042A0000995F7018387882309F4D0C099A99587D8
:1042B000282F40E060E0818592850E947B16182FB0
:1042C000D601ED91FC91D50114961C92882359F0EA
:1042D0000480F581E02DD7011B966C91C6010995EC
:1042E000F7011386ABC00190F081E02DD7011B963A
:1042F0006C91C6010995009709F48DCFFC014482A9
:10430000940141E0D7011B966C911B9719968D91F2
:104310009C911A970E94CF10182F811187C03BAC37
:10432000412C3AE6632E31E0732E5701B2E0AB0E1A
:10433000B11C6E01E1E1CE0ED11C431461F17A8211
:104340006982BC82AB821E86188A1F8619A21AA2B5
:104350001BA219A6DF82CE82D986C8868D818B8763
:104360008A87DD86CC868E010F5F1F4F242D40E0AB
:10437000D7011B966C911B9719968D919C911A975A
:104380000E941E16182F811151C0F70186898330B3
:1043900010F44394D2CFD70156964C9156974330A0
:1043A00008F472CF94011B966C911B9719968D910E
:1043B0009C911A970E94CF10182F811137C068EC7A
:1043C00070E080E090E00E94050EF70125894485A9
:1043D0006385818592850E94E917182F811126C077
:1043E00068EC70E080E090E00E94050EF701E95A69
:1043F000FF4F108285E0898380E28A8301E00C838D
:104400001D8245E050E0BE016F5F7F4FC7010E94F3
:10441000B820182F81110AC0C7010E94D020D701EF
:1044200014960C9314975E960C9312C0D701ED91DD
:10443000FC910480F581E02DC7010995512E08C03B
:1044400029ED522E05C097ED592E02C084ED582E4D
:10445000852DEB960FB6F894DEBF0FBECDBFDF9172
:10446000CF911F910F91FF90EF90DF90CF90BF9071
:10447000AF909F908F907F906F905F904F903F9004
:104480002F9008950F93CF93DF93CDB7DEB72D977D
:104490000FB6F894DEBF0FBECDBF39E039831A8264
:1044A0003C831D823FE03E836F83488729870A87CC
:1044B0002FEF2B871C862D874DE050E0BE016F5FEC
:1044C0007F4F0E94B8202D960FB6F894DEBF0FBE26
:1044D000CDBFDF91CF910F910895CF93DF9300D09F
:1044E00000D01F92CDB7DEB725E0298320E22A83D2
:1044F00021E02C831D8245E050E0BE016F5F7F4FBD
:104500000E94B8200F900F900F900F900F90DF91A6
:10451000CF910895FC01858D08958C5A9F4FFC0121
:10452000808108956E3584E0780739F06D3A9BE11B
:10453000790719F06E32764141F481E0493197E014
:10454000590729F04139524011F080E0089508954B
:10455000CF93DF93EC011E8A1F8A188E198E1A8E54
:104560008B8D9C8DDC01ED91FC910480F581E02D1B
:104570006D8D09951D8ECC5ADF4F188280E0DF913A
:10458000CF9108956F927F928F929F92AF92BF9238
:10459000CF92DF92EF92FF920F931F93CF93DF930F
:1045A000CDB7DEB762970FB6F894DEBF0FBECDBFB2
:1045B000DC015D963C91311172C0122F642E762E73
:1045C0007C01FC01A38CB48CD501ED91FC91019090
:1045D000F081E02D60E0C50109956C01009709F4B8
:1045E00060C0FC01808091808114910409F45BC05B
:1045F000C7014E969183808314838E010F5F1F4FF6
:1046000022E130E040E060E0D7015B968D919C9123
:104610005C970E94D015182FF6019182808281113B
:104620002FC089859A858E35F4E09F0739F08D3A41
:104630002BE1920719F08E32964131F58B859C85DE
:104640008931B7E09B0719F081399240E9F4D5012F
:10465000ED91FC910280F381E02D262D40E0672D45
:10466000C5010995F701858F8823F9F08885878F23
:1046700064E170E080E090E00E94050E80EE16C0DC
:104680008D3019F011EE01C011EDD701ED91FC91C3
:104690000480F581E02DC7010995812F07C089EDC0
:1046A00005C086ED03C087ED01C084ED62960FB6AC
:1046B000F894DEBF0FBECDBFDF91CF911F910F9158
:1046C000FF90EF90DF90CF90BF90AF909F908F9032
:1046D0007F906F900895CF92DF92EF92FF920F93A9
:1046E0001F93CF93DF93EC01022FEB8CFC8CD7014F
:1046F000ED91FC910190F081E02D6D8DC701099540
:104700006C01892B11F486ED7EC06CE271E080E0D3
:1047100090E00E94050E2D8D40E060E08B8D9C8D19
:104720000E947B16182F882319F0F601148263C0AB
:10473000D60114961C92D701ED91FC910190F08165
:10474000E02D6D8DC70109950097E9F2FC01048306
:104750007E01FEE1EF0EF11C970141E06D8D8B8D26
:104760009C8D0E94CF10182F811145C001E009A334
:1047700033E027E090E29AA384E08BA30CA39DA3EF
:104780008EA33FA398A789A73AA79BA78CA735E03C
:104790003DA79EA78FA738AB99AB8AAB2BAB9CAB41
:1047A0008DAB2EAB9FAB88AF970149E06D8D8B8DA4
:1047B0009C8D0E94CF10182F81111DC068EC70E0F5
:1047C00080E090E00E94050E21E04E8D6D8D8B8D76
:1047D0009C8D0E94E917182F81110DC00E8BFE01D0
:1047E000EC5AFF4F0083CB51DF4F188219821A8297
:1047F0001B8280E008C0E881F9810480F581E02D0A
:10480000CE010995812FDF91CF911F910F91FF90DC
:10481000EF90DF90CF9008950F931F93CF93DF9386
:10482000DC0180E991E011969C938E935C967C93D9
:104830006E935B975D961C925D97FD01EC5AFF4F5E
:104840001082FD0180E090E0168E582F811102C089
:1048500028E001C020E0278F8C01000F111F980174
:10486000280F391F2A0F3B1FE90148A14E7F4D7FBA
:1048700048A3511102C03FE001C031E0E801C80F78
:10488000D91FCA0FDB1F330F330F28A12370322B20
:1048900038A30196339681319105B1F66115710502
:1048A000C1F0FB01EA5AFF4F20E030E08191919185
:1048B000892B51F4255D3F4F220F331FFB01E20F7F
:1048C000F31FB183A08305C02F5F3F4F2031310517
:1048D00069F7DF91CF911F910F91089550E06830F3
:1048E00059F4FA01EE0FFF1FEE0FFF1FE80FF91F3B
:1048F000EB5AFF4F81810895693059F4FA01EE0FA8
:10490000FF1FEE0FFF1FE80FF91FEB5AFF4F8081CB
:104910000895E62FF0E0EE0FFF1FE250FE4F2591C5
:104920003491FA01EE0FFF1FEE0FFF1FE80FF91F82
:10493000EB5AFF4FC901A0E0B0E0DC0199278827BE
:104940004081518162817381482359236A237B23EB
:1049500081E0452B462B472B09F480E0089524E0A5
:10496000429FA0011124460F511D440F551F840F73
:10497000951FFC01EB54FF4F8081918108950F93A7
:104980001F93613039F050F0623031F06330E1F460
:1049900068E005C064E003C066E001C062E08A012F
:1049A000DC0170E0FB01EE0FFF1F6E0F7F1FFD01AA
:1049B000E60FF71F468D5D966C915D975B968D9126
:1049C0009C915C970E94D6131F910F910895AC01A2
:1049D000475F5E4FFA01108231961082319628E0CF
:1049E0002083319620EC208324E030E00C94BF2417
:1049F000742FAC01475F5E4FFA011082319610822E
:104A0000319628E020833196262F2064208324E0ED
:104A100030E0672F0C94BF24662341F0653041F0ED
:104A2000E62FF0E0EE5DFD4F64916C5F0C94F8248E
:104A30000895FC01EC5AFF4F2081222391F0AC0134
:104A4000475F5E4F28E0FA0120833196108231964D
:104A50002FE02083319620EC208324E030E00C947A
:104A6000BF240895FC01EC5AFF4F2081222381F0DE
:104A7000AC01475F5E4FFA01108231961082319689
:104A80001082319620E4208324E030E00C94BF248F
:104A90000895CF93DF93FC01EC5AFF4F208122232E
:104AA000B9F0EC01AC01475F5E4FFA01108231961C
:104AB000108231968CE0808331968BE1808324E0F4
:104AC00030E0CE010E94BF24CF5ADF4F81E08883BF
:104AD000DF91CF910895CF93DF93FC01EC5AFF4F04
:104AE00020812223B9F0EC01AC01475F5E4FFA014F
:104AF00010823196108231968CE0808331968FE15E
:104B0000808324E030E0CE010E94BF24CF5ADF4FE3
:104B100081E08883DF91CF910895FC01EC5AFF4F2B
:104B20002081222389F0AC01475F5E4FFA01108299
:104B30003196108231962CE0208331962EE120832D
:104B400024E030E00C94BF240895362F622FFC013E
:104B5000E75FFE4F1082DC01A65FBE4F21E02C9381
:104B600011962FE02C93119620EC2C9311961C9209
:104B700011963C9311964C9327E030E0AF010C94D2
:104B8000BF249C01462FFC01EE5AFF4F0190F0819B
:104B9000E02D309709F00994662331F0613031F04F
:104BA000623031F064E005C061E003C062E001C042
:104BB00063E0C9010C940C254F925F926F927F9233
:104BC0008F929F92AF92BF92CF92DF92EF92FF921D
:104BD0000F931F93CF93DF939C018C0107511F4FBD
:104BE00009F450C1D8019C91F901E651FF4F98306A
:104BF00091F48081E901C60FD11D4F89841759F0C6
:104C00008F8B882329F0C90121E02A8B0E94C125BE
:104C100081E08A8B37C1808181111DC0F901E45187
:104C2000FF4F8081837109F428C1D901A351BF4F7F
:104C30008C91823208F421C1260F311D260F311DBF
:104C4000D901AB52BF4F808191819827892798273E
:104C50008D939C9317C1911110C1813009F0ADC0A3
:104C6000F901E451FF4F8081803F09F006C1462FD2
:104C700050E0F901E40FF51F8789811102C080E837
:104C8000878BD901A151BF4F6D917D918D919C91E1
:104C90000E94C2324B015C01CA01880F991F880F24
:104CA000991F3901680E791ED301AB5ABF4F8D92FF
:104CB0009D92AD92BC921397DA01C3E0AA0FBB1F7D
:104CC000CA95E1F7A20FB31F6D01C5EBCC0ED11C45
:104CD0007901D3EFED0EF11CE701E880F980E601E0
:104CE000F982E8826D01D7EBCD0ED11C790165EF19
:104CF000E60EF11CE70168817981E601798368831A
:104D00006D01D9EBCD0ED11C790167EFE60EF11CD8
:104D1000E70168817981E601798368837D01DBEBB6
:104D2000ED0EF11CD901A750BF4F6D917C91D701B9
:104D30006D937C93E301CB59DF4FC880D980EA8023
:104D4000FB808C149D04AE04BF0409F496C0C1E03E
:104D5000DF01A358BF4FCC93DA01AA0FBB1FA20FEC
:104D6000B31FAB58BF4FB701A60140955095609552
:104D70007095AB01662777272501662477244421A7
:104D800055214D935C93C11006C0882021F0DF01AE
:104D9000AF51BF4FCC93D11006C0992021F0E35200
:104DA000FF4F41E04083820F931FFC01EB59FF4FFF
:104DB00080829182A282B38260C0823009F05DC09D
:104DC000F901E451FF4F8081803F09F056C075968C
:104DD0008081811145C0319680813196C080D12C6F
:104DE000E12CF12CFE2CED2CDC2CCC24E82A319685
:104DF0008081C82A862F90E0F901B4E06B9FE00D16
:104E0000F11D1124DF01AF57BF4FCD92DD92ED921E
:104E1000FC92139750964D915D916D917C911397F3
:104E2000C416D506E606F70641F1820F931FEC0182
:104E3000CF54DF4F81E08883EF55FF4F4095509569
:104E4000609570954C215D216E217F2140835183B7
:104E500062837383CD92DD92ED92FC9213970DC025
:104E6000803F59F4F901EE5FFE4F8081833029F4D1
:104E7000F901E60FF11D81E0828B80E2E8011992D1
:104E80008A95E9F7DF91CF911F910F91FF90EF90F5
:104E9000DF90CF90BF90AF909F908F907F906F905A
:104EA0005F904F9008958F929F92AF92BF92CF9252
:104EB000DF92EF92FF920F931F93CF93DF9300D077
:104EC000CDB7DEB7FC01EC5AFF4F20812223C9F198
:104ED0006C01F12C21E090E2A92EB12C460189EE63
:104EE000880E911CBA82A98230E0F901EE0FFF1FF3
:104EF0002E0F3F1FF601E20FF31FE12C84019E01EC
:104F00002F5F3F4F468DF601658D838D948D0E94F6
:104F10000E1889819A81892B21F06F2DC6010E947C
:104F2000DC25F394F4E0FF1661F0E1E0FE1629F0D1
:104F3000F2E0FF1621F027E0D5CF23E0D3CF25E024
:104F4000D1CF80E00F900F90DF91CF911F910F9103
:104F5000FF90EF90DF90CF90BF90AF909F908F9099
:104F60000895262F642FFC01EC5AFF4F3081332324
:104F700081F0AC01475F5E4FFA01108231961082DA
:104F800031963CE030833196208324E030E00C946D
:104F9000BF240895FC0185810895FC01818908954D
:104FA0006E3584E0780759F06D3A9BE1790739F066
:104FB0006E3286E1780719F06F367E40A1F44E38E4
:104FC00082E0580791F0463190EF590771F0413077
:104FD00084E0580751F081E0433192E0590739F0FD
:104FE0004F3E5E4B21F080E0089581E008950895E2
:104FF000CF93DF93EC011A828B819C81DC01ED91D0
:10500000FC910480F581E02D6D8109951D82198A3E
:1050100080E0DF91CF910895FC0188EA91E09183CF
:105020008083748363831582118A168288E0878364
:105030008CE380871186128684E083871486158628
:10504000868761157105B1F0DB01AA5ABF4F80E078
:1050500090E02D913D91232B49F48B96880F991F59
:10506000DB01A80FB91FED93FC93089501968031E1
:10507000910579F708958F929F92AF92BF92CF9248
:10508000DF92EF92FF920F931F93FC01E83D8FEFA9
:10509000F80709F44AC080A5811147C081A5843171
:1050A00009F043C062A573A584A595A50E94C232EC
:1050B000628B738B848B958B26A537A5358F248FB8
:1050C00020A931A9378F268F22A933A931A320A384
:1050D00024A935A933A322A306891789208D318DF0
:1050E000601771078207930701F168017901C09485
:1050F000D094E094F0944701AA24BB246C01EE24E0
:10510000FF24C820D920D38EC28E011104C066238B
:1051100011F041E047A3111104C0772311F021E001
:1051200026A3668B778B808F918F1F910F91FF90B5
:10513000EF90DF90CF90BF90AF909F908F900895A9
:10514000CF92DF92EF920F931F93CF93DF9300D014
:10515000CDB7DEB7FC0121892223A9F06C0180E2E2
:1051600090E09A8389838F01085D1F4FE12C9E0197
:105170002F5F3F4F41856581838194810E940E1886
:10518000C6010E943B2880E00F900F90DF91CF91E5
:105190001F910F91EF90DF90CF900895DC01683060
:1051A00019F453968C910895693019F452968C91A4
:1051B0000895E62FF0E0EE0FFF1FE85DFD4F4591EB
:1051C000549160E070E0BA015527442752968D91C2
:1051D0009D910D90BC91A02D482359236A237B23D8
:1051E00081E0452B462B472B09F480E00895860F7C
:1051F000911D860F911DFC01848D958D08958F92D0
:105200009F92AF92BF92CF92EF920F93FC011F92A9
:105210001F927F936F935F934F934A01A12CB12C00
:1052200082E0C82EE12C09E021E24681658183817C
:1052300094810E94F0140F900F900F900F900F9098
:105240000F900F91EF90CF90BF90AF909F908F9065
:105250000895FC01E85BFF4F21E02083DC01A75BA0
:10526000BF4F23E02C9311966C9343E050E0BF01B5
:105270000C94FF28662341F0653041F0E62FF0E002
:10528000E45BFD4F64916C5F0C9429290895FC0147
:10529000E85BFF4F1082DC01A75BBF4F28E02C9337
:1052A00011961C9211966C9311964C9311961C9228
:1052B00011961C9211961C9248E050E0BF010C948C
:1052C000FF28DC011F96ED91FC915097309709F073
:1052D0000994EDE4F2E064916C5F0C9429292F921B
:1052E0003F924F925F926F927F928F929F92AF9276
:1052F000BF92CF92DF92EF92FF920F931F93CF93C3
:10530000DF93CDB7DEB762970FB6F894DEBF0FBE5E
:10531000CDBFDC0115965C905110F7C0422E242EB3
:10532000362E7C01FC01C380D480D601ED91FC9126
:105330000190F081E02D60E0C60109955C010097C5
:1053400019F436ED532EE9C0FC01608071806114C0
:10535000710409F4DDC04701F6E08F0E911CDC01F9
:1053600011969C928E9214964C928E010F5F1F4F55
:1053700022E130E040E060E0F701838194810E9407
:10538000D015182FD5016D927C928111B4C08985FA
:105390009A858E35B4E09B0761F08D3AEBE19E076C
:1053A00041F08E32F6E19F0721F08F369E4009F0E2
:1053B000A1C08B859C858F38A2E09A0709F49AC01A
:1053C0008931B7E09B0709F495C08139E2E09E0777
:1053D00009F490C08E38F2E09F0781F0863120EF0B
:1053E000920761F08130A4E09A0741F08331B2E086
:1053F0009B0721F08F3E9E4B09F07CC0D601ED91BA
:10540000FC910280F381E02D222D40E0632DC60146
:105410000995F7018583882309F47DC098859783D2
:10542000282F40E060E0838194810E947B16182F32
:10543000D601ED91FC91D50114961C92882359F068
:105440000480F581E02DD70115966C91C601099570
:10545000F701158258C00190F081E02DD701159613
:105460006C91C6010995009709F46BCFFC01448249
:10547000940141E0D70115966C91159713968D9183
:105480009C9114970E94CF10182F811134C001E015
:10549000F701018790E2928784E0838722E02487E6
:1054A00095878687940143E06581838194810E947A
:1054B000CF10182F81111FC068EC70E080E090E0E1
:1054C0000E94050E21E0D70116964C91169715966D
:1054D0006C91159713968D919C9114970E94E917E2
:1054E000182F811108C0C7010E946129F7010283AA
:1054F000018B13C011EDD701ED91FC910480F58172
:10550000E02DC7010995512E08C029ED522E05C086
:1055100097ED592E02C084ED582E852D62960FB658
:10552000F894DEBF0FBECDBFDF91CF911F910F91D9
:10553000FF90EF90DF90CF90BF90AF909F908F90B3
:105540007F906F905F904F903F902F9008956F9253
:105550007F928F929F92AF92BF92CF92DF92EF9203
:10556000FF920F931F93CF93DF9300D01F92CDB77D
:10557000DEB77C01ADB6BEB68091E80083FF0CC1FA
:10558000F701808190E020912B0830912C0828179A
:10559000390709F001C180912808833009F4A0C0BF
:1055A00030F4813071F0823009F4D9C0F5C08A300E
:1055B00009F4BCC08B3009F4A4C0893009F0ECC0F8
:1055C00050C080912708813A09F0E6C08DB69EB69A
:1055D0001A8219828091290810912A088B83F70179
:1055E0008085482F50E08DB79EB7841B950B0FB672
:1055F000F8949EBF0FBE8DBFEDB7FEB731966F0119
:1056000060E070E0CF010E94DF324FEF410F8E016A
:105610000F5F1F4F9601BE016D5F7F4FC7010E9454
:105620000932F70186819781009729F0408550E083
:10563000B6010E94D6321092E9008091E800877F7F
:105640008093E8008B8181118093F10069817A81D8
:10565000C6010E94022D8091E8008B778093E800BC
:1056600039C080912708813209F096C08DB69EB668
:1056700000912D0810912E087090290860902A083A
:105680008DB79EB7801B910B0FB6F8949EBF0FBECF
:105690008DBFEDB7FEB731966F018091E800877F2F
:1056A0008093E800B801CF010E94602D8091E8004E
:1056B0008E778093E80021E0711001C020E030E097
:1056C000021B130B2C0D3D1D4FEF460D672DC7011F
:1056D0000E9450320FB6F8949EBE0FBE8DBE5CC0C5
:1056E00080912708813A09F057C08091E800877FB0
:1056F0008093E8008091E80080FFFCCFF70181856E
:1057000042C080912708813209F046C08091E800AC
:10571000877F8093E8000E94742E9091290881E091
:10572000911101C080E0F701818736C08091270880
:10573000813291F58091E800877F8093E8000E9494
:10574000742E8091290890912A08882736E0969532
:1057500087953A95E1F7F701958784871DC0809179
:105760002708813AC9F48091E800877F8093E80098
:105770008091E80080FFFCCFF701848595859695A0
:105780008795969587958093F1008091E8008E77B4
:105790008093E8000E94742E0FB6F894BEBE0FBE30
:1057A000ADBE0F900F900F90DF91CF911F910F9191
:1057B000FF90EF90DF90CF90BF90AF909F908F9031
:1057C0007F906F900895FC01399627E0DF011D92CC
:1057D0002A95E9F721E0FC01218728E833E13587A4
:1057E000248723E0248361E001960C94362E5F9297
:1057F0006F927F928F929F92AF92BF92CF92DF92E1
:10580000EF92FF920F931F93CF93DF9300D01F92DD
:10581000CDB7DEB77C01ADB6BEB680912608843028
:1058200009F08BC08091E4009091E500F70122859A
:1058300033852817390709F480C081818F708093E0
:10584000E9008091E80085FF78C08DB69EB640855E
:1058500050E08DB79EB7841B950B0FB6F8949EBF92
:105860000FBE8DBFEDB7FEB731966F011B821A8256
:10587000198260E070E0CF010E94DF328E010F5F7D
:105880001F4F960140E0BE016D5F7F4FC7010E9430
:105890000932582EF70184859585892B29F011E06E
:1058A00086859785892B09F010E0F701668077805F
:1058B0006114710491F049815A81B301C6010E94BB
:1058C000C93201E0892B09F400E0F701408550E07E
:1058D000B601C3010E94D63201C000E089819A81DD
:1058E000892BF9F0511004C0011102C010FF19C03A
:1058F000F701848595859787868781818F7080934E
:10590000E9008B8181118093F10069817A8140E007
:1059100050E0C6010E94B52C8091E8008E778093FC
:10592000E8008091E4009091E500F7019387828779
:105930000FB6F8949EBE0FBE8DBE0FB6F894BEBED5
:105940000FBEADBE0F900F900F90DF91CF911F91C2
:105950000F91FF90EF90DF90CF90BF90AF909F900E
:105960008F907F906F905F900895CF92DF92EF922B
:10597000FF920F931F93CF93DF93EC018B017A017A
:105980000E94932E811135C0E114F10439F0F70122
:1059900080819181081B190BC80FD91FC12CD12CF4
:1059A0000115110529F18091E80085FD18C080914D
:1059B000E8008E778093E8000E945531E114F104ED
:1059C00049F0F70180819181C80ED91ED182C08231
:1059D00085E00FC00E94932E882311F30AC089919D
:1059E0008093F10001501109FFEFCF1ADF0AD8CFE1
:1059F00080E0DF91CF911F910F91FF90EF90DF90AA
:105A0000CF90089520912D0830912E082617370742
:105A100048F06115710539F42091E8002E77209344
:105A2000E80001C0B901FC0120E06115710579F1C0
:105A3000809126088823F1F18530F1F18091E8000A
:105A400083FD3CC08091E80082FD2EC08091E8007B
:105A500080FFEBCF2091F3008091F20090E0922B39
:105A60006115710551F08032910538F42191209330
:105A7000F100615071090196F3CF21E0809709F0A0
:105A800020E08091E8008E778093E800CECF21114E
:105A9000CFCF0AC080912608882361F0853061F05D
:105AA0008091E80083FD0AC08091E80082FFF2CF78
:105AB00080E0089582E0089583E0089581E00895EC
:105AC0006115710529F42091E8002B772093E800F7
:105AD000FC016115710541F180912608882361F16F
