:100000000C944E010C9476010C9476010C947601BC
:100010000C9476010C9476010C9476010C94760184
:100020000C9476010C9476010C94C52C0C947601FA
:100030000C9476010C9476010C9476010C94760164
:100040000C9476010C9476010C9476010C94760154
:100050000C9476010C9476010C9476010C94771331
:100060000C9476010C94EE0D0C94200E0C947601F9
:100070000C9476010C9476010C9476010C94760124
:100080000C9476010C9476010C9476010C94760114
:100090000C9411110C9476010C9476010C94760159
:1000A0000C9476010C9476010C947601A714AA1492
:1000B00099149D14A314CB14CB14CB14AE14B21406
:1000C000B614BC14C014CB14C614BB2DE22DDA2E0A
:1000D000E22DDA2E2E2E512EDA2EA82EB72E084A19
:1000E000D73B3BCE016E84BCBFFDC12F3D6C74314C
:1000F0009ABD56833DDA3D00C77F11BED9E4BB4CA3
:100100003E916BAAAABE000000803F000D0A546811
:1001100069732069732074686520686F7374206345
:100120006F6E74726F6C6C6572000D0A55534220CD
:10013000486F737420436F6E74726F6C6C657220BD
:10014000496E697469616C69736564000D0A4F5387
:100150004320646964206E6F74207374617274004C
:100160000D0A546869732064657669636520697354
:1001700020696E20706C6179657220736C6F7420D9
:10018000000000000200090F0000030401000C0041
:10019000000000000000000000000000000000005F
:1001A0000408020110408040102040804080080276
:1001B00004018040201002011080102040402004E3
:1001C00004040404030405020202020403020202FE
:1001D00002060606060606040402020204040000E3
:1001E00000002300260029002C002F000000000042
:1001F000250028002B002E00310000000000240004
:1002000027002A002D003000000100080002000431
:1002100000200010004000800000000001000200EB
:1002200020001000400080000400080000020304C9
:1002300005010902200001010080FA090400000202
:10024000584200000705820320000407050303222B
:10025000000412011001000000207B0A00D0000100
:10026000000000010902200001010080FA090400D9
:100270000002584200000705810320000407050220
:100280000320000412011001000000205E04890216
:100290002101000000013403460E731311241FBE18
:1002A000CFEFDAE0DEBFCDBF12E0A0E0B1E0EEE9D3
:1002B000F8E602C005900D92A630B107D9F725E007
:1002C000A6E0B2E001C01D92AA3FB207E1F711E03B
:1002D000CEE4D1E004C02197FE010E942334CB3448
:1002E000D107C9F70E9444030C944D340C940000CC
:1002F0000E94F32E8091EE03882319F0813081F063
:1003000008958091E4009091E50020911D013091C5
:100310001E01821B930B049798F083E191E00EC0BD
:100320008091E4009091E50020910D0130910E0143
:10033000821B930B049720F083E091E00C949529A5
:1003400008952F923F924F925F926F927F928F9279
:100350009F92AF92BF92CF92DF92EF92FF920F9354
:100360001F93CF93DF93CDB7DEB72E970FB6F894D8
:10037000DEBF0FBECDBF1C017A8769872D833E8308
:100380004F83588727013801CA01B9010E943533CC
:1003900069837A838B839C83A8019701C801B70185
:1003A0000E9435339B01AC0169817A818B819C81EC
:1003B0000E94C9300E94A83369837A838B839C830F
:1003C000A60195010E94283318160CF056C0A6010C
:1003D000950169817A818B819C810E94C8306B87ED
:1003E0007C878D879E872BA13CA14DA15EA160E0FB
:1003F00070E080E89FE30E94C830A60195010E944A
:10040000C8309B01AC016B857C858D859E850E94E3
:10041000A7314B015C0120E030E040E85FE30E943F
:100420002833181634F4812C912C80E8A82E8FE301
:10043000B82E29813A814B815C81C501B4010E94AB
:10044000A7316B017C019B01AC016D817E818F81A5
:1004500098850E943533F101608371838283938391
:10046000A7019601C301B2010E943533E985FA85DF
:1004700060837183828393830BC0F10110821182A8
:1004800012821382E985FA85108211821282138208
:100490002E960FB6F894DEBF0FBECDBFDF91CF9181
:1004A0001F910F91FF90EF90DF90CF90BF90AF9092
:1004B0009F908F907F906F905F904F903F902F9084
:1004C0000895462FE62FF0E0E55CFD4F97899923CC
:1004D00029F0682F8BE392E00C94552480E0089576
:1004E000462FE62FF0E0E55CFD4F9789992329F030
:1004F000682F8BE392E00C942A2580E090E0089529
:10050000242FE42FF0E0E55CFD4F9789992331F02B
:10051000462F682F8BE392E00C9420260895462FF7
:10052000E62FF0E0E55CFD4F9789992329F0682FCD
:100530008BE392E00C94872508952E9A08952E98C7
:100540008EBD0DB407FEFDCF1EBC0DB407FEFDCF62
:100550000E949D028EB508952E9882608EBD0DB4C6
:1005600007FEFDCF6EBD0DB407FEFDCF0C949D02BE
:1005700088EF0E949F02807C8034A1F018F48823C9
:1005800001F10895803819F0803CB9F0089588EDA4
:100590000E949F0281FD0BC069EC88ED0E94AC02B5
:1005A00082E00CC088ED0E949F0281FDF5CF6BECCC
:1005B00088ED0E94AC0283E001C081E080933A02A2
:1005C000089561ED88ED0E94AC0210923A02089500
:1005D0000F931F93CF93DF938C01269A0E949D0265
:1005E000219A229A2398209A80E58CBD1DBC2598DB
:1005F00068E188E80E94AC0260E288E70E94AC02F1
:1006000060E088E70E94AC02C0E0D0E088E60E948B
:100610009F02219680FD06C0CF3F8FEFD807B1F72C
:100620008FEF1DC061EC88ED0E94AC0260E680EDAA
:100630000E94AC0264E088EE0E94AC0288EE0E9448
:100640009F0282FFFBCFC8010E94B80260E288ECE3
:100650000E94AC0261E080E80E94AC0280E0DF9181
:10066000CF911F910F9108958CE593E00E943B1666
:100670006CE573E08BE493E00E9401216CE573E08C
:100680008BE392E00C94F323CF93DF93CDB7DEB7E7
:100690006C970FB6F894DEBF0FBECDBF0E94391421
:1006A00061E089E00E94CC1461E081E10E94CC14F9
:1006B00061E087E00E94CC1462E083E10E94CC14E8
:1006C00062E084E10E94CC1460E089E00E94081599
:1006D00061E081E10E9408150E940E2F789426E0C7
:1006E00040E251EA67E070E08CE494E00E94860DFD
:1006F00083E10E9437157C0184E10E943715EE0CDE
:10070000FF1C8E2980934B0460E671E08CE494E03A
:100710000E94B30E60914B0470E06F5F7F4F4AE020
:1007200050E08CE494E00E946F0F8CE5EFEEF3E074
:10073000DF011D928A95E9F764E670E080E090E0C1
:100740000E94F21360E089E00E94081564E170E005
:1007500080E090E00E94F21361E089E00E940815B9
:1007600064E170E080E090E00E94F2138CE593E099
:100770000E94E8028F3FB9F46CE471E08CE494E0ED
:100780000E94B30E81E10E94371561E0892B09F0C8
:1007900060E081E10E94081564EF71E080E090E084
:1007A0000E94F213EFCF6AE271E08CE494E00E94C1
:1007B000B30E8BE595E00E94E11240E85AE166E055
:1007C00070E08BE595E00E94EB126CE071E08CE448
:1007D00094E00E94B30EADE4B2E0EBE3F2E08FEF01
:1007E00091E082838383848385839D93349622E082
:1007F000EB34F207B1F78CE593E00E94B8028AE08F
:1008000092E09C8F8B8FAAE2B2E0BA8BA98B2FEE7D
:10081000822E23E0922EE6E0F2E0FE8BED8B2AE1C1
:1008200032E03C8B2B8B3BE3432E32E0532E120104
:10083000712C66246A948CE593E00E94A11DD1017D
:1008400057968C91882309F482C58091EE0381111B
:10085000D4C0F4011282672D80E00E9461028823D7
:1008600039F0D40112968C911297816012968C9374
:10087000672D82E00E946102882321F0F4018281C9
:1008800082608283672D83E00E946102882339F0B1
:10089000D40112968C911297846012968C93672DD6
:1008A00081E00E946102882321F0F4018281886046
:1008B0008283672D85E00E946102882339F0D4018C
:1008C00012968C911297806112968C93672D84E01A
:1008D0000E946102882321F0F40182818062828378
:1008E000672D86E00E946102882339F0D4011296B8
:1008F0008C911297806412968C93672D87E00E94EA
:100900006102882321F0F401828180688283672D4F
:100910008DE00E946102882321F0D40114966C922C
:1009200002C0F4011482672D8CE00E9461028823CA
:1009300021F0D40115966C9202C0F4011582672D46
:100940008EE00E946102882321F0D40116966C92F9
:1009500002C0F4011682672D8FE00E946102882395
:1009600021F0D40117966C9202C0F4011782672D12
:100970008AE00E946102882321F0D40119966C92CA
:1009800002C0F4011186672D8BE00E94610288236A
:1009900021F0D40118966C9202C0F4011086672DE4
:1009A00088E00E946102D4011A968C93672D89E039
:1009B0000E946102F4018387672D80E00E9470022B
:1009C000D4011D969C938E931C97672D81E00E9405
:1009D0007002F40197878687672D82E00E9470027B
:1009E000D40151969C938E935097672D83E00E947B
:1009F0007002F401938B828BB6C3813009F0B3C3CC
:100A00007110B1C31092D6031092D5031092D8037F
:100A10001092D7038091D9039091DA038C7F909341
:100A2000DA038093D90340E065E08BE392E00E9413
:100A30005524882349F08091D5039091D60380688E
:100A40009093D6038093D50340E064E08BE392E07B
:100A50000E945524882349F08091D5039091D603B4
:100A600092609093D6038093D50340E06AE08BE3D5
:100A700092E00E945524882349F08091D5039091FB
:100A8000D60382609093D6038093D50340E066E05E
:100A90008BE392E00E945524882349F08091D7038C
:100AA0009091D80380629093D8038093D70340E05D
:100AB0006EE08BE392E00E945524882349F08091F8
:100AC000D5039091D60380629093D6038093D5038B
:100AD00040E067E08BE392E00E945524811172C4EC
:100AE00040E06CE08BE392E00E94552481116AC4DF
:100AF00040E06BE08BE392E00E94552481116CC4CE
:100B000040E06DE08BE392E00E945524811164C4C3
:100B100040E060E18BE392E00E945524811166C4BD
:100B200040E065E68BE392E00E94D12481115EC42F
:100B300040E068E08BE392E00E94D124811109C07B
:100B400040E064E08BE392E00E945524882309F49E
:100B500057C440E067E18BE392E00E94D1248823F0
:100B600049F08091D7039091D80390619093D80376
:100B70008093D70340E066E18BE392E00E94D124AA
:100B8000882349F08091D7039091D8039062909385
:100B9000D8038093D70340E065E18BE392E00E94A5
:100BA000D124882349F08091D7039091D803906491
:100BB0009093D8038093D70340E064E18BE392E005
:100BC0000E94D124882349F08091D7039091D803C3
:100BD00090689093D8038093D70340E063E18BE360
:100BE00092E00E94D124882349F08091D90390910A
:100BF000DA0381609093DA038093D90340E062E0E6
:100C00008BE392E00E942A25813596440CF006C5BC
:100C100040E063E08BE392E00E942A258135964410
:100C20000CF0FCC440E062E08BE392E00E942A25D5
:100C3000803B994B0CF4F2C440E063E08BE392E01C
:100C40000E942A25803B994B0CF4E8C440E067E2FF
:100C50008BE392E00E94E924882351F08091D9032C
:100C60009091DA03B8E08B279093DA038093D9034D
:100C700040E067E38BE392E00E94E924882351F08F
:100C80008091D9039091DA03E4E08E279093DA0300
:100C90008093D90340E066E28BE392E00E94E9246E
:100CA000882351F08091D9039091DA03F0E48F27E3
:100CB0009093DA038093D90340E066E38BE392E0FC
:100CC0000E94E924882351F08091D9039091DA039E
:100CD00020E282279093DA038093D90340E066E410
:100CE0008BE392E00E94E924882351F08091D9039C
:100CF0009091DA0330E183279093DA038093D9034C
:100D000040E065E38BE392E00E94D124882349F020
:100D10008091D7039091D80381609093D8038093FA
:100D2000D70340E064E38BE392E00E94D124882360
:100D300049F08091D7039091D80382609093D803B3
:100D40008093D70340E063E38BE392E00E94D124D9
:100D5000882349F08091D7039091D80384609093C1
:100D6000D8038093D70340E065E48BE392E00E94D0
:100D7000D124811191C440E061E58BE392E00E94AF
:100D8000D124811189C440E064E48BE392E00E94A5
:100D9000D12481118BC440E065E58BE392E00E9491
:100DA000D124811183C440E063E48BE392E00E948C
:100DB000D124811185C440E064E58BE392E00E9478
:100DC000D12481117DC440E061E28BE392E00E9476
:100DD000D124882349F08091D5039091D60380686F
:100DE0009093D6038093D50340E061E38BE392E0D8
:100DF0000E94D124882349F08091D5039091D60395
:100E000092609093D6038093D50340E061E48BE336
:100E100092E00E94D124882349F08091D5039091DB
:100E2000D60398609093D6038093D50340E066E79D
:100E30008BE392E00E94D124882349F08091D5036E
:100E40009091D60391609093D6038093D50340E0B0
:100E500067E78BE392E00E94D124882349F08091D8
:100E6000D5039091D60394609093D6038093D503D5
:100E700040E062E58BE392E00E94D124882349F0B0
:100E80008091D5039091D60390619093D60380937F
:100E9000D50340E064E68BE392E00E94D1248823EE
:100EA00049F08091D5039091D60380619093D60349
:100EB0008093D50340E062E68BE392E00E94D12468
:100EC000882349F08091D5039091D6038062909356
:100ED000D6038093D50340E063E68BE392E00E9463
:100EE000D124882349F08091D5039091D603806462
:100EF0009093D6038093D50340E068E08BE392E0C3
:100F00000E9455241092E7038093E80340E069E0D3
:100F10008BE392E00E9455241092E9038093EA0348
:100F200040E06FE08BE392E00E945524882309F4AF
:100F300030C380E09FEF9093E6038093E50340E0A9
:100F400063E08BE392E00E945524882309F426C3D2
:100F5000A1E0B0E8B093E003A093DF0340E060E0DD
:100F60008BE392E00E942A259093E2038093E103B1
:100F700040E061E08BE392E00E942A258095909505
:100F80009093E4038093E30340E068E08BE392E016
:100F90000E94D124882309F415C340E061E08BE36B
:100FA00092E00E942A256C0140E060E08BE392E031
:100FB0000E942A257C01B601DD0C880B990B0E944A
:100FC000513220E030E040E058E30E9435336F8B2F
:100FD000788F898F9A8FB701FF0C880B990B0E942D
:100FE000513220E030E040E058E30E9435339B016D
:100FF000AC011F921F921F921F928DECA82E8CECB9
:10100000B82E8CE4C82E8EE3D82EEF88F88C098D8C
:101010001A8DBE01675F7F4FCE010D960E94A10120
:1010200040E063E08BE392E00E942A256C0140E0FF
:1010300062E08BE392E00E942A257C01B601DD0C80
:10104000880B990B0E94513220E030E040E058E3D9
:101050000E9435336F8B788F898F9A8FB701FF0C81
:10106000880B990B0E94513220E030E040E058E3B9
:101070000E9435339B01AC011F921F921F921F9259
:101080009DECA92E9CECB92E9CE4C92E9EE3D92E92
:10109000EF88F88C098D1A8DBE016F5F7F4FCE01EE
:1010A00005960E94A10120E030E040E057E46D8504
:1010B0007E858F8598890E9435336F8B788F898FD5
:1010C0009A8F6D877E878F87988B20E030E040E095
:1010D00057E46D817E818F8198850E9435336D83C1
:1010E0007E838F83988720E030E040E057E4698575
:1010F0007A858B859C850E9435336B017C016987DD
:101100007A878B879C8720E030E040E057E4698154
:101110007A818B819C810E94353369837A838B83AA
:101120009C836F89788D898D9A8D0E941932709376
:10113000E2036093E103C701B6010E941932609592
:1011400070957093E4036093E30340E068E08BE301
:1011500092E00E94D1240FB6F894DEBF0FBECDBF3F
:10116000882309F439C2472D62E08BE392E00E94A4
:10117000D1248823E1F0472D64E08BE392E00E94C4
:10118000E9248823A1F08091E00081608093E00051
:101190008091EE03813009F4B7C281E08093EE03C1
:1011A000EAE0D2011296EC93129713968C930E9468
:1011B000C113A989BA89CD90DD90ED90FC90DC0136
:1011C000CB018C199D09AE09BF090997A105B1058D
:1011D00008F46EC0672D80E10E9461028823E1F16E
:1011E000EB89FC8980819181A281B381892B8A2B33
:1011F0008B2B49F40E94C113AB89BC896D937D93FD
:101200008D939C9313970E94C113EB89FC89C08036
:10121000D180E280F380DC01CB018C199D09AE09FD
:10122000BF09893E9340A105B10508F441C00E9461
:10123000C113AB89BC89CD90DD90ED90FC90DC01B1
:10124000CB018C199D09AE09BF098C349440A105CE
:10125000B10508F462C22CC0672D85E00E946102CE
:10126000882309F47EC2672D84E00E9461028823EE
:1012700009F477C2672D88E00E946102882309F48F
:1012800070C2672D89E00E946102882309F469C257
:10129000472D60E080E00E9480020E94C113A9896E
:1012A000BA896D937D938D939C931397F401168A5D
:1012B000772009F449C0672D8BE595E00E94EF1275
:1012C00044E150E0B4018BE595E00E94691261E0D1
:1012D0008BE595E00E94F91242E0672D8BE595E0E1
:1012E0000E947013823061F58BE595E00E944612F2
:1012F0008F3FFFEF9F0781F0D40154962C915497B4
:1013000030E0AC0155272417350731F054968C9303
:10131000549781E056968C938BE595E00E94461297
:101320008F3FBFEF9B0781F0F401258930E0AC01CE
:1013300055272417350741F0858B81E0868B04C043
:101340008BE595E00E94C5120E94780114C07720B9
:1013500091F0672D8BE595E00E94EF1242E050E09E
:1013600060E071E08BE595E00E94691261E08BE539
:1013700095E00E94F9127394FFEF2F1A3F0A2B8D0C
:101380003C8D2C5F3F4F3C8F2B8F34E0430E511C24
:1013900089899A8904969A8B898B97E1890E911C89
:1013A000AD89BE891196BE8BAD8BEB89FC893496D5
:1013B000FC8BEB8BF4E07F123ECA809152028111CC
:1013C000BFC2CFC28091D5039091D6038460909321
:1013D000D6038093D5038CCB8091D5039091D6030F
:1013E00081609093D6038093D50392CB8091D503EF
:1013F0009091D60388609093D6038093D50398CBC1
:1014000040E067E18BE392E00E94D124882349F019
:101410008091D7039091D80380649093D8038093F0
:10142000D70340E066E18BE392E00E94D124882359
:1014300049F08091D7039091D80388609093D803A6
:101440008093D70340E065E18BE392E00E94D124D2
:10145000882349F08091D5039091D60390629093B0
:10146000D6038093D50340E064E18BE392E00E94D1
:10147000D124882349F08091D7039091D8038068C4
:101480009093D8038093D70340E063E18BE392E02D
:101490000E94D124882349F08091D7039091D803EA
:1014A00080619093D8038093D70340E062E18BE39F
:1014B00092E00E94D124882349F08091D503909135
:1014C000D60390649093D6038093D50340E061E106
:1014D0008BE392E00E94D124882349F08091D703C6
:1014E0009091D80391609093D8038093D70340E004
:1014F00067E68BE392E00E94D124882349F0809133
:10150000D7039091D80380629093D8038093D70338
:1015100040E066E68BE392E00E94D124882349F004
:101520008091D5039091D60390689093D6038093D1
:10153000D50340E060E08BE392E00E94962488238C
:1015400021F0809102018F5F0BC040E062E08BE3ED
:1015500092E00E949624882329F080910201815014
:10156000809302018091020187301CF086E0809315
:1015700002018091020187FD10920201E0910201B7
:101580000E2E000CFF0BED5DFE4F80818093EC036F
:101590005DCB1092E6031092E503D1CC40E061E010
:1015A0008BE392E00E945524882339F0EFEFFFE7A8
:1015B000F093E003E093DF03D1CC1092E0031092AC
:1015C000DF03CCCC40E064E08BE392E00E94552442
:1015D000882309F47FC0E1CC40E064E08BE392E033
:1015E0000E9455248111BFCD6D817E818F819885A8
:1015F0000E94193270587093DC036093DB03698199
:101600007A818B819C810E9419328FEF9FE7861B24
:10161000970B9093DE038093DD03A5CD40E062E05D
:101620008BE392E00E942A256C0140E063E08BE3AB
:1016300092E00E942A257C01B601DD0C880B990BF3
:101640000E9451325B016C01B701FF0C880B990BB2
:101650000E945132905820E030E040E85FE30E9461
:10166000C830A60195010E9448312BED3FE049E4C6
:1016700050E40E94C93020E030E040E751E40E948D
:1016800035332BED3FE049EC50E40E94A7310E9436
:1016900020326093EB03DACA8091D7039091D8038C
:1016A00092609093D8038093D7036DCB8091D7033A
:1016B0009091D80394609093D8038093D70373CB11
:1016C0008091D7039091D80398609093D80380932A
:1016D000D70379CB40E062E08BE392E00E942A25B9
:1016E00090589093DC038093DB0340E063E08BE34E
:1016F00092E00E942A252FEF3FE7281B390B3093F9
:10170000DE032093DD0349CC1092EE03E9E0D20121
:101710001296EC93129782E048CDD40112961C9257
:10172000472D60E080E00E9480026AE070E080E087
:1017300090E00E94F213F1018789882329F0672D38
:101740008BE392E00E9462250E94C113A989BA89A5
:101750006D937D938D939C93139781E0F101828B20
:10176000A7CDAB89BC891D921D921D921C92139727
:10177000F40186898130A9F4472DD40155966C91E6
:10178000559754968C910E948002F401168A0E940B
:10179000C113A989BA896D937D938D939C931397F7
:1017A00087CDF1018789882311F182898130F9F48D
:1017B00071101DC060E08BE392E00E94C425D1014E
:1017C00052961C928091EE03882359F0813009F0E3
:1017D00051C0D20112968C931297EAE01396EC93C3
:1017E00049C029E0F201228382E0838343C00E9442
:1017F000C113EB8DFC8DC080D180E280F380DC01D1
:10180000CB018C199D09AE09BF0987399105A10546
:10181000B105D0F1D20112966C916F3FA9F1F1019F
:101820008289811131C08789882371F171102CC0A0
:1018300040E08BE392E00E942C28D20113968C9119
:10184000139712968C93129714968C911497139663
:101850008C93139715968C91159714968C931497D7
:1018600015966C920E94C113E989FA89608371838D
:10187000828393830E94C113AB8DBC8D6D937D9346
:101880008D939C93139760CDED89FE898081823D75
:1018900051F4F1018789882371F0672D8BE392E081
:1018A0000E94AD2508C0833D10F5811113C0E4E608
:1018B000AD89BE89EC930E94C113A989BA896D9341
:1018C0007D938D939C931397ED89FE8980818F5F23
:1018D0008083EECC883C79F7D10157968C91882390
:1018E00051F3672D8BE392E00E949425E4CF863E6E
:1018F00069F4F10187898823F1F282898111DBCFB4
:10190000672D8BE392E00E940826D5CF803F31F40B
:10191000672D81E0870D0E948F02CDCF8C3D59F657
:10192000D10157968C915797882329F252968C9122
:101930008111C1CF672D8BE392E00E94E625BBCFDA
:101940008091E0008E7F8093E0008091ED038823FA
:1019500011F40C94FB0360E081E10E9408150C94E3
:10196000FB0361E081E10E9408158091E000816045
:101970008093E00081E080934D020C94FB03FC0116
:10198000918D228D892F90E0805C9F4F821B910961
:101990008F7399270895FC01918D828D981731F0EE
:1019A000828DE80FF11D858D90E008958FEF9FEFF8
:1019B0000895FC01918D828D981761F0828DDF0171
:1019C000A80FB11D5D968C91928D9F5F9F73928F32
:1019D00090E008958FEF9FEF0895FC01538D448DA3
:1019E000252F30E0842F90E0821B930B541710F0CA
:1019F000CF96089501970895FC01848DDF01A80F0B
:101A0000B11DA35ABF4F2C91848D90E001968F7326
:101A10009927848FA689B7892C93A089B1898C9145
:101A200080648C93938D848D981306C00288F3890B
:101A3000E02D80818F7D80830895EF92FF920F9338
:101A40001F93CF93DF93EC0181E0888F9B8D8C8D6A
:101A5000981305C0E889F989808185FD24C0F62E98
:101A60000B8D10E00F5F1F4F0F731127E02E8C8D31
:101A7000E8120CC00FB607FCFACFE889F98980811B
:101A800085FFF5CFCE010E94FC0CF1CF8B8DFE01BE
:101A9000E80FF11DE35AFF4FF0820B8FEA89FB89B3
:101AA0008081806207C0EE89FF896083E889F989B7
:101AB00080818064808381E090E0DF91CF911F91ED
:101AC0000F91FF90EF900895CF93DF93EC01888DF5
:101AD0008823C9F0EA89FB89808185FD05C0A88932
:101AE000B9898C9186FD0FC00FB607FCF5CF8081B8
:101AF00085FFF2CFA889B9898C9185FFEDCFCE0102
:101B00000E94FC0CE7CFDF91CF910895CF92DF9236
:101B1000EF92FF921F93CF93DF93EC016A017B0159
:101B2000122FE889F98982E080834115514E6105C1
:101B30007105B1F060E079E08DE390E0A7019601D6
:101B40000E940134DA01C9010197A109B109B695D2
:101B5000A795979587959C01211580E13807A8F0F6
:101B6000E889F989108260E874E88EE190E0A701C5
:101B700096010E940134DA01C9010197A109B10956
:101B8000B695A795979587959C01EC85FD85308343
:101B9000EE85FF852083188EEC89FD891083EA8904
:101BA000FB89808180618083EA89FB8980818860EC
:101BB0008083EA89FB89808180688083EA89FB8948
:101BC00080818F7D8083DF91CF911F91FF90EF9077
:101BD000DF90CF90089580E090E008951F920F92DB
:101BE0000FB60F9211242F938F939F93EF93FF9330
:101BF000E0915C04F0915D048081E0916204F091D9
:101C0000630482FD12C09081809165048F5F8F73A1
:101C100020916604821751F0E0916504F0E0E45BE6
:101C2000FB4F958F8093650401C08081FF91EF91F8
:101C30009F918F912F910F900FBE0F901F9018952D
:101C40001F920F920FB60F9211242F933F934F9331
:101C50005F936F937F938F939F93AF93BF93EF9314
:101C6000FF938CE494E00E94FC0CFF91EF91BF91F4
:101C7000AF919F918F917F916F915F914F913F9124
:101C80002F910F900FBE0F901F901895ECE4F4E089
:101C90001382128288EE93E0A0E0B0E08483958303
:101CA000A683B7838EE291E0918380838DEC90E0F0
:101CB000958784878CEC90E09787868788EC90E006
:101CC000918B808B89EC90E0938B828B8AEC90E0F7
:101CD000958B848B8EEC90E0978B868B118E128E79
:101CE000138E148E08950895CF92DF92EF92FF9293
:101CF0000F931F93CF93DF936C017A018B01C0E0A8
:101D0000D0E0CE15DF0581F0D8016D918D01D601AF
:101D1000ED91FC910190F081E02DC6010995892B90
:101D200011F02196EECF7E01C701DF91CF911F9177
:101D30000F91FF90EF90DF90CF900895611571059E
:101D400079F0FB0101900020E9F73197AF01461BC4
:101D5000570BDC01ED91FC910280F381E02D099499
:101D600080E090E00895EF92FF920F931F93CF933E
:101D7000DF938C017B01C0E0D0E0F701EC0FFD1F89
:101D80006491662361F0D801ED91FC910190F0819E
:101D9000E02DC8010995892B11F02196EECFCE01D7
:101DA000DF91CF911F910F91FF90EF900895DC018B
:101DB000ED91FC910190F081E02D09948F929F921A
:101DC000AF92BF92EF92FF920F931F93CF93DF9347
:101DD000CDB7DEB7A1970FB6F894DEBF0FBECDBF6B
:101DE0007C01FA01CB0119A2223008F42AE08E010D
:101DF0000F5D1F4F822E912CA12CB12CBF01A5018C
:101E000094010E940134F901CA01015011096A309C
:101E100010F4605D01C0695CD8016C93232B242B06
:101E2000252B61F7B801C7010E949E0EA1960FB63F
:101E3000F894DEBF0FBECDBFDF91CF911F910F9100
:101E4000FF90EF90BF90AF909F908F900895CF92AA
:101E5000DF92EF92FF920F931F93CF93DF932115A1
:101E6000310581F4DC01ED91FC910190F081E02DD0
:101E7000642FDF91CF911F910F91FF90EF90DF9032
:101E8000CF9009942A30310501F577FF1DC06A0112
:101E90007B01EC016DE20E94D70E8C01442755278F
:101EA000BA014C195D096E097F092AE0CE010E9432
:101EB000DE0E800F911FDF91CF911F910F91FF9048
:101EC000EF90DF90CF9008952AE0DF91CF911F919E
:101ED0000F91FF90EF90DF90CF900C94DE0E9A015F
:101EE000AB01770F660B770B0C94270FCF93DF9323
:101EF000CCEBD0E0188210925A0581E0809358050F
:101F00001092570561E082E00E94081561E083E0CD
:101F10000E940815E9EBF0E080818E7F808380814C
:101F20008D7F808388E48093B80085E48883DF9187
:101F3000CF910895813049F41092E9041092EA0497
:101F40001092EB041092EC0417C08091E904909178
:101F5000EA04A091EB04B091EC040196A11DB11D1F
:101F60008093E9049093EA04A093EB04B093EC040B
:101F700084E690E00E942E148091E9049091EA0496
:101F8000A091EB04B091EC0480359105A105B10559
:101F900080F01092E9041092EA041092EB0410927F
:101FA000EC040E94760F61E081E10E94081581E057
:101FB000089580E008959B01AC0160E074E284EF35
:101FC00090E00E940134DA01C9014097A109B109EA
:101FD000B695A795979587958093B8000895FF9239
:101FE0000F931F93CF93DF93D82F162F072FC42F54
:101FF000F22E413208F054C081E00E949A0F809185
:102000005A05882329F080E00E949A0F8823B9F3AB
:1020100081E080935A05F09258059FEF9093ED046C
:10202000109232059C0F9093310580935905809151
:102030005905DD0FD82BD093590580915705813074
:1020400061F410925705809159058093BB008091EF
:10205000BC0083FDF8CF85EC01C085EE8093BC0009
:1020600081E00E949A0F80915A05813029F480E026
:102070000E949A0F8823B9F3809132058C1710F4CF
:10208000C0913205A3E3B5E0912FE12FF02F8E2F01
:10209000891B8C1718F48D918193F9CF8C2F01C077
:1020A00080E0DF91CF911F910F91FF900895DF9213
:1020B000EF92FF920F931F93CF93DF93413208F07B
:1020C00062C0D22E142FE72EF62ED82F81E00E9468
:1020D0009A0FC0915A05CC2331F080E00E949A0FEC
:1020E00081114FC0F6CF82E080935A0500935805C6
:1020F0008FEF8093ED0410923205109331059F2DE0
:10210000A3E3B5E0EF2DFE2D8E2F891B811718F468
:1021100081918D93F9CF1092590580915905DD0F6A
:10212000D82BD093590580915705813061F41092D6
:102130005705809159058093BB008091BC0083FDB9
:10214000F8CF85EC01C085EE8093BC0081E00E9451
:102150009A0FDD2051F080915A05823031F480E0F1
:102160000E949A0F81110DC0F4CF8091ED048F3F32
:1021700079F08091ED04803241F08091ED0480335C
:1021800031F0C4E005C0C1E003C0C2E001C0C3E05B
:102190008C2FDF91CF911F910F91FF90EF90DF90E7
:1021A000089540910F05262F30E0240F311D213274
:1021B0003105DCF420915A052430C9F4FC0180E09B
:1021C00090E0861758F430910F052191DC01AF5E45
:1021D000BA4FA30FB11D2C930196F3CF80910F0539
:1021E000680F60930F0580E0089581E0089582E014
:1021F000089585ED8093BC0081E00E949A0F809144
:10220000BC0084FF05C080E00E949A0F8823B9F3C8
:1022100010925A05089585EC8093BC0010925A05DF
:1022200008951F920F920FB60F9211242F933F9390
:102230004F935F936F937F938F939F93AF93BF93CE
:10224000EF93FF938091B900887F803609F49EC098
:1022500078F5883209F45DC090F4803109F456C0F5
:1022600038F4882309F4F5C0883009F44FC0F5C06C
:10227000883109F44EC0803209F45FC0EEC080346A
:1022800009F46AC058F4803309F457C0883309F060
:10229000E4C08093ED040E940B11DFC0803509F487
:1022A0004FC0883509F45DC0883409F0D6C0D3C06A
:1022B000883909F4C4C0A8F4883709F467C038F431
:1022C000883609F463C0803709F460C0C6C0883816
:1022D00009F4B5C0803909F45FC0803809F0BDC089
:1022E0005BC0803B09F483C038F4803A09F466C0CF
:1022F000883A09F47CC0B1C0803C09F4A4C0883C91
:1023000009F4A1C0883B09F487C0A7C08091590592
:1023100010C09091320580913105981770F5E091C9
:10232000320581E08E0F80933205F0E0ED5CFA4FCC
:1023300080818093BB0085EC83C08093ED048BC0CB
:10234000E091320581E08E0F809332058091BB00D1
:10235000F0E0ED5CFA4F8083909132058091310579
:102360006BC0E091320581E08E0F80933205809141
:10237000BB00F0E0ED5CFA4F80838091580581113D
:102380006AC081E08093570584EA5EC083E0809351
:102390005A051092EE04CFCF8091EE04803208F0FF
:1023A0004EC0E091EE0481E08E0F8093EE048091A8
:1023B000BB00F0E0E151FB4F8083BDCF0E940B11C9
:1023C0008091EE04803230F4E091EE04F0E0E151CF
:1023D000FB4F10826091EE0470E0E0915305F091A4
:1023E00054058FEE94E009951092EE0436C084E017
:1023F00080935A051092100510920F05E091550533
:10240000F0915605099580910F05811105C081E075
:1024100080930F0510921105E091100581E08E0F59
:1024200080931005F0E0EF5EFA4F80818093BB004F
:102430009091100580910F05981708F47CCF85E8DE
:102440008093BC000AC085EC8093BC0010925A05B2
:1024500004C01092ED040E94F910FF91EF91BF911A
:10246000AF919F918F917F916F915F914F913F912C
:102470002F910F900FBE0F901F90189580918B0594
:1024800090E020918C05821B9109089590918C0514
:1024900080918B05981750F4E92FF0E0E357FA4F3D
:1024A000208130E09F5F90938C0502C02FEF3FEFBB
:1024B000C9010895E0918C0580918B05E81730F4EF
:1024C000F0E0E357FA4F808190E008958FEF9FEF9F
:1024D0000895CF92DF92EF92FF920F931F93CF93C5
:1024E000DF937C01CB018A0120916705222389F0CB
:1024F000EB016B01C40ED51ECC15DD0569F06991A9
:10250000D701ED91FC910190F081E02DC701099573
:10251000F3CF642F0E94D110C801DF91CF911F919A
:102520000F91FF90EF90DF90CF900895CF93DF93BE
:102530001F92CDB7DEB76983209167052223D1F0C2
:1025400020916805203240F021E030E0FC01338327
:10255000228380E090E015C080916905E82FF0E0CB
:10256000E659FA4F998190838F5F80936905809334
:10257000680505C061E0CE0101960E94D11081E09E
:1025800090E00F90DF91CF91089510928C051092FA
:102590008B0580E2EDE8F5E0DF011D928A95E9F711
:1025A0000895FC011382128288EE93E0A0E0B0E06F
:1025B00084839583A683B78380E491E091838083AD
:1025C000089510928C0510928B0510926905109257
:1025D00068050C94760FCB01BA010C94DB0F81E0F7
:1025E0008093670560938A051092690510926805CB
:1025F00008950F93062F21E0409168056AE675E083
:1026000080918A050E945710109269051092680502
:10261000109267050F9108954F925F926F927F928B
:10262000AF92BF92CF92EF92FF920F931F93CF93EF
:10263000DF935C01F62ED42F28013901EE2021F121
:102640000E94EF12CE2DC43008F0C3E0C150C0F09C
:1026500028E0C29FC0011124A301920104C0569535
:102660004795379527958A95D2F7CA01B901D501C3
:10267000ED91FC910190F081E02DC5010995E6CF27
:1026800060E0C5010E94F9124D2FD13208F040E2FE
:102690002C2D6DE875E08F2D0E94EF0F10928C05A8
:1026A00080938B05DF91CF911F910F91FF90EF9059
:1026B000CF90BF90AF907F906F905F904F900895B4
:1026C000CF92EF920F931F93C22EE12C00E010E007
:1026D00098010E940C131F910F91EF90CF900895D5
:1026E00021E00C9460138BE595E00C94D1121F92BD
:1026F0000F920FB60F9211242F933F938F939F93B6
:10270000AF93BF938091AE059091AF05A091B005B6
:10271000B091B1053091AD0523E0230F2D3720F4A2
:102720000196A11DB11D05C026E8230F0296A11D2B
:10273000B11D2093AD058093AE059093AF05A09396
:10274000B005B093B1058091B2059091B305A09109
:10275000B405B091B5050196A11DB11D8093B205D8
:102760009093B305A093B405B093B505BF91AF9115
:102770009F918F913F912F910F900FBE0F901F90BF
:1027800018952FB7F8946091AE057091AF058091C0
:10279000B0059091B1052FBF08953FB7F89480918F
:1027A000B2059091B305A091B405B091B50526B5D9
:1027B000A89B05C02F3F19F00196A11DB11D3FBF79
:1027C000BA2FA92F982F8827820F911DA11DB11D07
:1027D000BC01CD0142E0660F771F881F991F4A9503
:1027E000D1F708958F929F92AF92BF92CF92DF92CE
:1027F000EF92FF926B017C010E94CD134B015C01B3
:10280000C114D104E104F10401F10E94730E0E948D
:10281000CD13DC01CB0188199909AA09BB09883EAF
:102820009340A105B10560F321E0C21AD108E10887
:10283000F10888EE880E83E0981EA11CB11CC1141B
:10284000D104E104F10419F7DBCFFF90EF90DF90A2
:10285000CF90BF90AF909F908F9008958230910558
:1028600038F0880F991F880F991F05970197F1F786
:102870000895789484B5826084BD84B5816084BDF8
:1028800085B5826085BD85B5816085BDEEE6F0E0E9
:10289000808181608083E1E8F0E010828081826045
:1028A0008083808181608083E0E8F0E080818160C6
:1028B0008083E1E9F0E080818260808380818160B3
:1028C0008083E0E9F0E0808181608083E1ECF0E0EA
:1028D0008081846080838081826080838081816048
:1028E0008083E3ECF0E0808181608083E0ECF0E0C5
:1028F000808182608083E2ECF0E08081816080836F
:10290000EAE7F0E080818460808380818260808358
:10291000808181608083808180688083089590E0D9
:10292000FC013197EF30F105B0F5EA5AFF4F0C94F6
:102930002334809180008F7703C0809180008F7D49
:1029400080938000089580918000877FF9CF84B5BF
:102950008F7702C084B58F7D84BD089580919000EB
:102960008F7707C0809190008F7D03C08091900089
:10297000877F8093900008958091C0008F7703C077
:102980008091C0008F7D8093C00008958091C20027
:10299000877F8093C2000895CF93DF9390E0FC017E
:1029A000E056FE4F2491FC01E154FE4F84918823B0
:1029B00061F190E0880F991FFC01E650FE4FC59130
:1029C000D491FC01E451FE4FA591B491611109C06D
:1029D0009FB7F8948881209582238883EC912E23D9
:1029E0000BC0623061F49FB7F8948881322F309524
:1029F00083238883EC912E2B2C939FBF06C08FB727
:102A0000F894E8812E2B28838FBFDF91CF91089512
:102A10001F93CF93DF93282F30E0F901EF57FE4F3C
:102A20008491F901E056FE4FD491F901E154FE4F33
:102A3000C491CC23C1F0162F81110E948F14EC2F6A
:102A4000F0E0EE0FFF1FE451FE4FA591B4919FB748
:102A5000F894111104C08C91D095D82302C0EC9148
:102A6000DE2BDC939FBFDF91CF911F910895CF9311
:102A7000DF93282F30E0F901EF57FE4F8491F901E1
:102A8000E056FE4FD491F901E154FE4FC491CC239E
:102A900091F081110E948F14EC2FF0E0EE0FFF1FD8
:102AA000E252FE4FA591B491EC91ED2381E090E0CC
:102AB00021F480E002C080E090E0DF91CF910895A2
:102AC000CF93DF93FC01862F8078A9F4283008F09B
:102AD0004DC0442321F09581973009F447C0EF01A0
:102AE000A1E0B0E09D85992341F011962596A03193
:102AF000B105C1F73BC080E039C061111CC085E061
:102B00008A9FE0018B9FD00D1124CE0FDF1F44233D
:102B100031F081E4888785818F5F858302C081E001
:102B2000888725E02A9FC0012B9F900D1124E80F74
:102B3000F91F80851BC06770660F660F660F442300
:102B400041F0606485818F5F85838770687F682B23
:102B500003C02770687B622B25E02A9FC0012B9F52
:102B6000900D1124E80FF91F6087862FDF91CF9118
:102B70000895611102C006960895FC0121E0358593
:102B8000631739F02F5F35962031C9F780E090E068
:102B90000895069635E0239F800D911D1124089518
:102BA000DF92EF92FF920F931F93CF93DF93EC018D
:102BB000E62EF12C85E0689FB0011124FE01E60F9E
:102BC000F71F8085182F177086FF17C001E085E07A
:102BD000D82EFE01D09EE00DF11D11248085869532
:102BE0008695869587701817F9F00F5F003189F781
:102BF0008D81811302C011501D8385E08E9DF001EF
:102C00008F9DF00D1124EC0FFD1F108681E0818750
:102C100012862296D783C683DF91CF911F910F91A1
:102C2000FF90EF90DF900895602FCE010E94D015A5
:102C3000D0CFFC01613499F49C01255B3F4F61E0EA
:102C4000AC014E5F5F4F15866687178654874387B2
:102C50003596E217F307B9F7FC011582089521E0D4
:102C60003585631729F02F5F35962031C9F7089510
:102C7000622F0C94D015FC0182E591E09183808352
:102C80001582108681E081871286CF010296978394
:102C90008683128228E023832CE32483DF019F01B3
:102CA000255B3F4F41E01D961C921D971E964C934D
:102CB0001E971F961C921F971C969C938E931B9792
:102CC0001596A217B30779F7EA58FF4F108281E1F2
:102CD0008093BA050895CF93C42F0E94B915009729
:102CE00089F0DC01ED91FC911197309759F0139622
:102CF0009C9180E0891731F020812C1731F03396B8
:102D00008F5FF8CF80E090E001C0CF01CF910895B0
:102D10000F931F93CF93DF932115310571F0E901D4
:102D2000042F162F0E94B915FC01892B41F0128344
:102D3000D183C083038380E003C088ED01C086EDAA
:102D4000DF91CF911F910F910895CF92DF92FF9263
:102D50000F931F93CF93DF93662381F1F62E8C019F
:102D60006C0186E5C80ED11CC0E0D0E0D6018D9183
:102D70009D916D010097F1F0DC01ED91FC910084D3
:102D8000F185E02D0995F81215C0AB96CC0FDD1F2B
:102D9000C00FD11F88819981DC01ED91FC910480E5
:102DA000F581E02DDF91CF911F910F91FF90DF9082
:102DB000CF9009942196C031D105C1F680E0DF9112
:102DC000CF911F910F91FF90DF90CF9008952E9893
:102DD0000895CF93C82F0E94E716CEBD0DB407FE0D
:102DE000FDCF1EBC0DB407FEFDCF0E949D028EB527
:102DF000CF910895CF93DF93C82FD62F0E94E71667
:102E0000C260CEBD0DB407FEFDCFDEBD0DB407FE22
:102E1000FDCFDF91CF910C949D028F929F92AF9244
:102E2000BF92CF92DF92EF92FF920F931F93CF93B7
:102E3000DF93EC01D62EC42E59010E94B9157C01F6
:102E4000009709F445C0FC0180819181892B09F428
:102E500041C04C2D6D2DCE010E946B16F501918362
:102E600080830097C9F1FC0182818695869590E068
:102E70008031910514F08FE090E041E050E060E097
:102E800070E04A015B0104C0880C991CAA1CBB1CA1
:102E90008A95D2F7D501C4010197F8019183808307
:102EA0006D2D80EE0E94FA1688ED0E94E916F7015A
:102EB0009481992331F0CA58DF4F68816260682B92
:102EC00002C0682F697F88ED0E94FA1680E005C075
:102ED00086ED03C087ED01C08BEDDF91CF911F918F
:102EE0000F91FF90EF90DF90CF90BF90AF909F90A9
:102EF0008F9008958F929F92AF92BF92CF92DF9260
:102F0000EF92FF920F931F93CF93DF93862E942E11
:102F100059010E94C1136B017C0128E8C20E23E114
:102F2000D21EE11CF11C00E010E0D0E0C0E09828C7
:102F30000E94C113DC01CB018C199D09AE09BF09A8
:102F4000B7FF2DC0692D80EF0E94FA160E94C113B1
:102F5000DC01CB018C199D09AE09BF09B7FF09C07F
:102F600088EC0E94E91687FFF1CF60E888EC0E94A8
:102F7000FA1688EF0E94E916C82FCF70C43019F0F6
:102F8000CE3051F00CC00F5F1F4FA114B10481F27D
:102F90000A151B0569F603C0DF5FD33049F68C2F95
:102FA000DF91CF911F910F91FF90EF90DF90CF9025
:102FB000BF90AF909F908F9008959F92AF92BF92D5
:102FC000CF92DF92EF92FF920F931F93CF93DF93F5
:102FD0007C01D42F122F902E00E06C01C60ED11C64
:102FE000C60ED11C86E5C80ED11CA42EB12CABE2B6
:102FF000AA0EB11CAA0CBB1CAE0CBF1CF601808132
:103000009181DC01ED91FC910280F381E02D292D6D
:10301000412F6D2F0995803EC9F4D1110BC061E09D
:1030200088EE0E94FA1666E670E080E090E00E946A
:10303000F21314C0F50180819181DC01ED91FC91C6
:103040000284F385E02D612F099508C08D3021F4AD
:10305000033008F03FC014C081113FC0F6018081E9
:103060009181DC01ED91FC910190F081E02D292D01
:10307000412F6D2F0995C82F8D3051F4033050F436
:1030800064E670E080E090E00E94F2130F5FB6CF3C
:10309000882311F1D1110BC061E088EE0E94FA166D
:1030A00066E670E080E090E00E94F21311C0ED2F20
:1030B000F0E0BB96EE0FFF1FEE0DFF1D80819181AA
:1030C000DC01ED91FC910284F385E02D612F0995DF
:1030D0008C2F03C08DE001C080E0DF91CF911F9164
:1030E0000F91FF90EF90DF90CF90BF90AF909F90A7
:1030F00008950F931F93CF93DF93182F062FEA01A4
:103100000E94E71612601EBDFE01802F882339F051
:103110000DB407FEFDCF91919EBD8150F7CFC00F3A
:10312000D11D0DB407FEFDCF0E949D02CE01DF919F
:10313000CF911F910F9108952F923F924F925F92DE
:103140006F927F928F929F92AF92BF92CF92DF92B7
:10315000EF92FF920F931F93CF93DF9300D000D095
:103160001F92CDB7DEB77D836C834A016901FB01F5
:10317000F1808FEF8F0D803408F074C00E94C1136E
:103180002B013C01F8E84F0EF3E15F1E611C711C3E
:10319000EC81FD81828180FD02C060E401C060E8B5
:1031A00088EE0E94FA16312C8F2D90E09A83898345
:1031B000C114D10409F448C0E980FA80CE14DF04B8
:1031C00008F47601EB82A8016E2D80E10E94791847
:1031D0006E2D88E30E94FA16EC81FD8160816062A9
:1031E00080EF0E94FA1688EC0E94E91687FFFBCF59
:1031F00060E888EC0E94FA1688EF0E94E9168F704A
:10320000382EA12CB12C212C332009F46BC00E9444
:10321000C113DC01CB0184199509A609B709B7FFD1
:1032200061C0F6E03F1601F12EE0321609F455C0F8
:1032300084E0381209C0FFEFAF1ABF0A811491046D
:1032400049F1A814B90431F588EF0E94E91685FB0D
:10325000882780F9EC81FD81928180FB90F992832F
:10326000832D45C08AED43C088EF0E94E91685FB97
:10327000882780F991E08927EC81FD81928180FB8C
:1032800090F9928390FD02C060E401C060E888EE8E
:103290000E94FA1660E088E30E94FA16F801608145
:1032A00080E10E94FA166B8188E30E94FA16EC8195
:1032B000FD816081606280EF0E94FA1688EC0E94B6
:1032C000E91687FFFBCF60E888EC0E94FA1688EFCA
:1032D0000E94E9168F70382E97CF239423E0221294
:1032E000D9CFB2CFCE18DF080E0D1F1D61CF0F90C2
:1032F0000F900F900F900F90DF91CF911F910F9132
:10330000FF90EF90DF90CF90BF90AF909F908F9005
:103310007F906F905F904F903F902F900895AF9265
:10332000BF92CF92DF92EF92FF920F931F93CF93B2
:10333000DF9300D000D0CDB7DEB77C016901580122
:103340001C821B821A8219828E010F5F1F4F9E0101
:103350002D5F3F4F0E940D17811109C049815A818D
:103360006B817C8185019601C7010E949C180F909A
:103370000F900F900F90DF91CF911F910F91FF90C1
:10338000EF90DF90CF90BF90AF9008952F923F9233
:103390004F925F926F927F928F929F92AF92BF9265
:1033A000CF92DF92EF92FF920F931F93CF93DF9311
:1033B000CDB7DEB72A970FB6F894DEBF0FBECDBFEC
:1033C0001C016B015B834A835901D9016D907C908C
:1033D0001197FB01F181F9831D921C92DB0112967A
:1033E0008C9181FD02C060E101C060E288EE0E9424
:1033F000FA168E2D90E0A0E0B0E08C839D83AE8322
:10340000BF8368862A813B81D6014C9160E0C1016F
:103410000E947A17F82EB6E08B1318C088EF0E942E
:10342000E91682958170E1E08E27D60112969C9173
:10343000129780FB91F912969C9391FD02C060E176
:1034400001C060E288EE0E94FA16DCCF811167C0ED
:1034500088EC0E94E91682FF60C080E30E94E916B2
:10346000582E90E06816790608F45884F50180819A
:1034700091819301281B390B3A87298737FF02C0B6
:103480001A861986852C912C89859A858816990625
:1034900014F49A86898649840E94E71698E09EBDB6
:1034A0000DB407FEFDCFF801442041F01EBC4A9444
:1034B0000DB407FEFDCF8EB58193F6CFA985BA85F1
:1034C0000A0F1B1F0E949D0264E088EC0E94FA16FE
:1034D000F50180819181880E991E91828082F98107
:1034E0005F1618F08614970470F088EF0E94E916B2
:1034F00082958170D60112969C91129780FB91F96A
:1035000012969C930CC0EE2009F47CCF6C817D81D7
:103510008E819F810E94F21375CF80EFF82E8F2D40
:103520002A960FB6F894DEBF0FBECDBFDF91CF91C4
:103530001F910F91FF90EF90DF90CF90BF90AF90D1
:103540009F908F907F906F905F904F903F902F90C3
:1035500008952F923F924F925F926F927F928F9237
:103560009F92AF92BF92CF92DF92EF92FF920F9312
:103570001F93CF93DF93CDB7DEB761970FB6F89463
:10358000DEBF0FBECDBF3C01F42E322E202EC98AE5
:103590004EA05FA0C8A4D9A4188A1F861E861D86C7
:1035A0008E01035F1F4F9E01215F3F4F0E940D1749
:1035B000811196C039822A82EB8289898C83BE82EE
:1035C000AD8298868F82AE014F5F5F4F68E080E2E8
:1035D0000E9479182D853E854F2D60E1C3010E9420
:1035E0007A17E82E811178C0932D9078392EC11466
:1035F000D10409F462C0EF85F8898281992309F426
:103600004DC082608283540122242394A114B1040A
:1036100009F458C05C864B864D855E856F85788938
:10362000E12C86019E01255F3F4FC3010E94C61910
:10363000E82EA6E08A130FC00F85188988EF0E9434
:10364000E91685FB882780F98225F801928180FBA5
:1036500091F99283DBCF81113FC08AA59BA500978A
:10366000A1F0DC01ED91FC9111970190F081E02D2A
:10367000C4018A199B099A8789876B857C859E017D
:10368000275F3F4FA601CD0109958B859C85A81A20
:10369000B90A8415950508F0B9CF0FC081608283FF
:1036A0004D855E8586019201BF01C3010E949C1871
:1036B000811116C02D853E8511C02D853E853110A6
:1036C00005C00CC0E11008C02D853E8560EA4F2D75
:1036D000C3010E947A1704C08E2D02C060E8F7CFA4
:1036E00061960FB6F894DEBF0FBECDBFDF91CF91CC
:1036F0001F910F91FF90EF90DF90CF90BF90AF9010
:103700009F908F907F906F905F904F903F902F9001
:1037100008958F929F92AF92BF92CF92EF920F93A4
:103720001F931F921F921F930F933F932F93490153
:10373000A12CB12CCC24C394E12C06E020E80E94FB
:10374000A91A0F900F900F900F900F900F901F914C
:103750000F91EF90CF90BF90AF909F908F90089572
:103760008F929F92AF92BF92CF92EF92FF920F9360
:103770001F921F92FF92EF923F932F934901A12C2A
:10378000B12C22E0C22EE02E06E020E80E94A91A09
:103790000F900F900F900F900F900F900F91FF9040
:1037A000EF90CF90BF90AF909F908F9008958F92A1
:1037B0009F92AF92BF92CF92EF920F93CF931F92AF
:1037C0001F921F921F921F921F92812C912CA12C4D
:1037D000B12CC12CE22E05E020E00E94A91AC82FCE
:1037E0006CE271E080E090E00E94F2130F900F9085
:1037F0000F900F900F900F908C2FCF910F91EF9013
:10380000CF90BF90AF909F908F9008950F931F938C
:10381000CF93DF938A3F3FEF930711F486ED2DC0DE
:10382000DC011696ED91FC911797EF2B09F1122F01
:10383000242FEC011A8740E00E946015082F88238E
:10384000C9F0682FCE010E94B915009739F3FC0129
:103850001483202F40E060E0CE010E94D71B182F78
:10386000882351F0602FCE010E941916812F05C0C8
:1038700087ED03C084ED01C080E0DF91CF911F91FF
:103880000F9108952F923F924F925F926F927F9285
:103890008F929F92AF92BF92CF92DF92EF92FF9260
:1038A0000F931F93CF93DF93CDB7DEB766970FB615
:1038B000F894DEBF0FBECDBF1B8A38E03C8B3CE3E3
:1038C0003D8B8A3F3FEF930709F464C0522E342E9C
:1038D000462E7C01DC011696CD90DC901797CE0128
:1038E000439617969C938E9316971A962C938E0157
:1038F0000F5F1F4F22E130E040E060E0C7010E940F
:10390000891BF701D782C6828111A6C089849A8457
:103910006B847C84FD81FE8B2E80670136E5C30EAF
:10392000D11C560110E0D5018D919C910097F1F1C9
:10393000DC01ED91FC910084F185E02D0995811168
:1039400035C0F50180819181DC01ED91FC91008809
:10395000F189E02D622D0995882341F1F5018081DF
:103960009181DC01ED91FC910484F585E02DA301AA
:10397000B4010995811110C0F50180819181DC01AC
:10398000ED91FC910684F785E02D6E8909958111F2
:1039900003C00CC086ED60C0052D232D442D612F82
:1039A000C7010E94DD17813D09F056C01F5FB2E0DC
:1039B000AB0EB11C103109F0B6CF10E0F6018081DA
:1039C00091810097E1F1DC01ED91FC910084F1859A
:1039D000E02D0995811133C0F60180819181DC01D0
:1039E000ED91FC910088F189E02D622D09958823E5
:1039F000D9F0F60180819181DC01ED91FC91048484
:103A0000F585E02DA301B4010995811118C0F601D7
:103A100080819181DC01ED91FC910684F785E02D98
:103A20006E89099581110BC0052D232D442D612F21
:103A3000C7010E94DD17982F977F913D69F41F5FA2
:103A4000E2E0CE0ED11C103109F0B8CF252D432D68
:103A5000642DC7010E94061C66960FB6F894DEBF5F
:103A60000FBECDBFDF91CF911F910F91FF90EF90CF
:103A7000DF90CF90BF90AF909F908F907F906F908E
:103A80005F904F903F902F9008958F929F92AF92AA
:103A9000BF92CF92EF920F931F921F921F921F928D
:103AA0001F921F92812C912CA12CB12CC12CE22EA3
:103AB00009E020E00E94A91A0F900F900F900F903C
:103AC0000F900F900F91EF90CF90BF90AF909F907D
:103AD0008F9008958F929F92AF92BF92CF92DF9274
:103AE000EF920F931F93CF93DF9300D000D0CDB709
:103AF000DEB76C01590148011C821B821A821982AF
:103B00008E010F5F1F4F9E012D5F3F4F0E940D17CB
:103B100049815A816B817C8184019501C6010E9493
:103B2000C6190F900F900F900F90DF91CF911F91BA
:103B30000F91EF90DF90CF90BF90AF909F908F90BC
:103B40000895AF92BF92CF92DF92EF92FF920F93C0
:103B50001F93CF938C011D990EC088EC0E94E9162B
:103B600085FF05C0C8010E94B80260E201C060E0A4
:103B700088EC0E94FA1680913A02813039F040F0C8
:103B8000823079F0833039F5C1E00CC083E106C0A2
:103B90008091BA05807F8031F1F081E18093BA0590
:103BA0001AC0C0E08091BA05807F8031A9F40E94DC
:103BB000C113DC01CB0188539F4FAF4FBF4F8093A0
:103BC000B6059093B705A093B805B093B90580E208
:103BD0008093BA0501C0C0E0780186E5E80EF11CCB
:103BE0006801A6E7CA0ED11C5701F5018191919198
:103BF0005F01009739F0DC01ED91FC910680F781BF
:103C0000E02D0995AC14BD0481F78091BA0580348C
:103C100009F43FC050F4803221F18033A1F18131A9
:103C200009F082C0F60110820AC0813509F458C03B
:103C3000803809F46AC0803509F076C039C0D701F0
:103C40008D919D917D01009739F0DC01ED91FC9102
:103C50000480F581E02D0995EC14FD0481F782E1E3
:103C600061C00E94C1130091B6051091B705209163
:103C7000B8053091B905DC01CB01801B910BA20B7B
:103C8000B30BB7FD51C061E088EE0E94FA1680E4E4
:103C900049C088EE0E94E91680FD46C088ED0E946A
:103CA000E916682F686088ED0E94FA1680E53AC030
:103CB00088EC0E94E91686FF37C081E58093BA053B
:103CC0000E94C113DC01CB014496A11DB11D80935C
:103CD000B6059093B705A093B805B093B90524C075
:103CE0000E94C113C090B605D090B705E090B8050A
:103CF000F090B905DC01CB018C199D09AE09BF0913
:103D0000B7FD12C080E88093BA052C2F40E060E038
:103D1000C8010E94421C882321F0823D29F080EADC
:103D200001C080E98093BA05CF911F910F91FF9058
:103D3000EF90DF90CF90BF90AF90089580E008950E
:103D4000089580E0089580E0089581E00895FC01E1
:103D50008285089581E0693009F080E00895CF936D
:103D6000DF93EC018A819B81DC01ED91FC91048061
:103D7000F581E02D6A8509958A85813439F4EA81D7
:103D8000FB81EA58FF4F8081846080831A861B86FE
:103D90001C861D861E861F86188A80E0DF91CF91C3
:103DA00008958F929F92AF92BF92CF92EF920F930E
:103DB000A42EB12CB22A1F921F921F921F921F9203
:103DC0001F92812C912CC12CE62E01E023E240E0D1
:103DD000FC016285828193810E94A91A0F900F9045
:103DE0000F900F900F900F900F91EF90CF90BF908A
:103DF000AF909F908F9008958F929F92AF92BF92B5
:103E0000CF92EF920F93A62EB12C1F921F923F9349
:103E10002F935F934F934A01C12CE12C00E023EADA
:103E200040E0FC016285828193810E94A91A0F9073
:103E30000F900F900F900F900F900F91EF90CF90E9
:103E4000BF90AF909F908F9008958F929F92AF9266
:103E5000BF92CF92EF920F93A42EB12CB22A1F9251
:103E60001F921F921F921F921F92812C912CC12C86
:103E7000E62E03E023E240E0FC016285828193812B
:103E80000E94A91A0F900F900F900F900F900F9013
:103E90000F91EF90CF90BF90AF909F908F9008952B
:103EA0002F923F924F925F926F927F928F929F924A
:103EB000AF92BF92CF92DF92EF92FF920F931F9338
:103EC000CF93DF93CDB7DEB7E8970FB6F894DEBF98
:103ED0000FBECDBFDC011A963C91311107C1122FE4
:103EE000242E362E3C01FC01C280D380D601ED91F8
:103EF000FC910190F081E02D60E0C60109957C0104
:103F0000009709F4F5C0FC01A080B180A114B104B0
:103F100009F4F0C04301F4E08F0E911CDC0111960E
:103F20009C928E9214961C93FE0131962F018F0164
:103F300028E030E040E060E0D30112968D919C9142
:103F400013970E94891BF70114828111D9C08D81BA
:103F5000893009F0D1C00981D601ED91FC91028030
:103F6000F381E02D222D41E0632DC6010995F30177
:103F70008287882309F4C2C098859583282F40E062
:103F800060E0828193810E94D71B182F882389F0DB
:103F9000D701AD92BC92D601ED91FC910480F581E0
:103FA000E02DD3011A966C91C6010995F301128692
:103FB000ABC0202F013208F020E2D701AD92BC92B5
:103FC00021110BC0940142E0F3016285828193814B
:103FD0000E948816811197C010C030E0820140E035
:103FE000D3011A966C911A9712968D919C91139702
:103FF0000E94891B811187C0E5CF1F921F925F929B
:104000004F921F9288E08F9388E0882E912CA12CEC
:10401000B12C99E2C92EE12C06E020EA40E0F30140
:104020006285828193810E94A91A182F0F900F90A8
:104030000F900F900F900F90811166C08B81D3016C
:104040001B968C931B97720100E028E030E040E063
:104050001A966C911A9712968D919C9113970E94C3
:10406000B01B811150C02B813C8140E0F30162857F
:10407000828193810E94B01B811145C0298130E06B
:10408000CE0181967C0140E0D3011A966C911A977B
:1040900012968D919C9113970E94B01B811133C091
:1040A0002E8140E0F3016285828193810E94451D4B
:1040B000811129C001E0D3011B968C91801740F03B
:1040C00020E0402F68E0C3010E94251F0F5FF3CF5F
:1040D000D3011296ED91FC911397EA58FF4F80811E
:1040E0008460808381E050968C930EC019ED0CC0E3
:1040F00016ED0AC017ED08C011ED06C014ED04C09E
:10410000F701B182A082182F812FE8960FB6F8949C
:10411000DEBF0FBECDBFDF91CF911F910F91FF90FA
:10412000EF90DF90CF90BF90AF909F908F907F9057
:104130006F905F904F903F902F900895CF92DF92B5
:10414000FF920F931F93CF93DF9300D000D0CDB792
:10415000DEB78C01F62E19821A821B821C8220E0A7
:10416000462F61E10E94D11E20E04F2D60E1C80181
:104170000E94D11E20E04F2D64E0C8010E94251F3F
:1041800083E0C82ED12C9E012F5F3F4F44E050E0CA
:104190006F2DC8010E94FC1E8823F1F020E04F2DF6
:1041A00064E1C8010E94D11E20E04F2D60E1C801EA
:1041B0000E94D11E64E170E080E090E00E94F21362
:1041C0000F900F900F900F90DF91CF911F910F9153
:1041D000FF90DF90CF90089589819A81AB81BC8157
:1041E0009D7F83309140A041B105C1F264E670E04B
:1041F00080E090E00E94F21381E0C81AD10819F61D
:10420000CDCFFC018CE591E0918380837383628341
:10421000128613861486158616861786108A1482CF
:1042200088E085839CE3968391E09783808784E090
:10423000818761157105B1F0DB01AA5ABF4F80E09B
:1042400090E02D913D91232B49F48B96880F991F77
:10425000DB01A80FB91FED93FC93089501968031FF
:10426000910579F70895EF92FF920F931F93CF93E3
:104270008C01C62F7A01FA0180819181A281B381DC
:104280008130F3E09F07F1E0AF07B105D1F060F4B2
:104290008115E1E09E07AE07B10571F181309140D3
:1042A000A140B10571F064C0833021E0920720E1A4
:1042B000A207B105E1F183309340A041B105B9F106
:1042C00057C08091BB05811153C020E04C2F61E1A4
:1042D000C8010E94D11E20E04C2F60E1C8010E945D
:1042E000D11E20E04C2F64E0C8010E94251F81E010
:1042F0008093BB0581EB3DC020E0462F61E1C80102
:104300000E94D11E20E04C2F60E1C8010E94D11E06
:104310001092BB05F80162856770C770660F660F63
:10432000660F6C2B828193810E94A51621C020E02C
:104330004C2F64E1C8010E94D11E20E04C2F60E1A7
:10434000C8010E94D11E64E170E080E090E00E940C
:10435000F213F8016285F7012181269521706770BB
:104360004C2FF801828193810E94421C1092BB0560
:1043700080E0CF911F910F91FF90EF900895CF9221
:10438000DF92EF920F931F93CF93DF93CDB7DEB7FA
:104390002E970FB6F894DEBF0FBECDBF6C0181E043
:1043A00090E09E878D87E12C8E010F5F1F4F9E014D
:1043B000235F3F4F41E0F6016285828193810E9435
:1043C0006A1D811151C002E011E089818023D1F082
:1043D00019861A861B861C869E01275F3F4F44E084
:1043E00050E0612FC6010E94FC1E81110BC0AE017E
:1043F000475F5F4F612FC6010E943321813B99F1D6
:10440000811132C0000F1F5F1830F9F611E0F6017C
:104410008385811740F119861A861B861C869E01AA
:10442000275F3F4F44E050E0612FC6010E94FC1E11
:10443000811117C089859A8587709170813091406C
:1044400081F48B859C8581609C878B87AE01475F5B
:104450005F4F612FC6010E943321813B21F0811102
:1044600003C01F5FD4CF80E02E960FB6F894DEBF56
:104470000FBECDBFDF91CF911F910F91EF90DF90D5
:10448000CF9008950F931F93CF93DF93FC01208962
:10449000211102C080E020C0EC010E94C1130C85F4
:1044A0001D852E853F85DC01CB01801B910BA20B66
:1044B000B30BB7FDEFCFCE010E94BF21182F0E9492
:1044C000C113DC01CB018C599F4FAF4FBF4F8C877D
:1044D0009D87AE87BF87812FDF91CF911F910F916D
:1044E0000895FC01858D08958C5A9F4FFC018081B1
:1044F00008956E3584E0780739F06D3A9BE17907CD
:1045000019F06E32764141F481E0493197E0590764
:1045100029F04139524011F080E008950895CF9379
:10452000DF93EC011E8A1F8A188E198E1A8E8B8DCE
:104530009C8DDC01ED91FC910480F581E02D6D8D69
:1045400009951D8ECC5ADF4F188280E0DF91CF9104
:1045500008956F927F928F929F92AF92BF92CF9267
:10456000DF92EF92FF920F931F93CF93DF93CDB71C
:10457000DEB762970FB6F894DEBF0FBECDBFDC0189
:104580005D963C91311172C0122F642E762E7C0103
:10459000FC01A38CB48CD501ED91FC910190F081CC
:1045A000E02D60E0C50109956C01009709F460C039
:1045B000FC01808091808114910409F45BC0C701E3
:1045C0004E969183808314838E010F5F1F4F22E1EB
:1045D00030E040E060E0D7015B968D919C915C9764
:1045E0000E94891B182FF6019182808281112FC0B1
:1045F00089859A858E35F4E09F0739F08D3A2BE155
:10460000920719F08E32964131F58B859C85893160
:10461000B7E09B0719F081399240E9F4D501ED919B
:10462000FC910280F381E02D262D40E0672DC5012D
:104630000995F701858F8823F9F08885878F64E1D4
:1046400070E080E090E00E94F21380EE16C08D30A2
:1046500019F011EE01C011EDD701ED91FC9104802C
:10466000F581E02DC7010995812F07C089ED05C0AF
:1046700086ED03C087ED01C084ED62960FB6F89415
:10468000DEBF0FBECDBFDF91CF911F910F91FF9085
:10469000EF90DF90CF90BF90AF909F908F907F90E2
:1046A0006F900895CF92DF92EF92FF920F931F9336
:1046B000CF93DF93EC01022FEB8CFC8CD701ED91B3
:1046C000FC910190F081E02D6D8DC70109956C0181
:1046D000892B11F486ED7EC06CE271E080E090E001
:1046E0000E94F2132D8D40E060E08B8D9C8D0E9426
:1046F000D71B182F882319F0F601148263C0D60146
:1047000014961C92D701ED91FC910190F081E02D5F
:104710006D8DC70109950097E9F2FC0104837E01C4
:10472000FEE1EF0EF11C970141E06D8D8B8D9C8DAC
:104730000E948816182F811145C001E009A333E0BB
:1047400027E090E29AA384E08BA30CA39DA38EA301
:104750003FA398A789A73AA79BA78CA735E03DA7B9
:104760009EA78FA738AB99AB8AAB2BAB9CAB8DAB1D
:104770002EAB9FAB88AF970149E06D8D8B8D9C8DE3
:104780000E948816182F81111DC068EC70E080E02F
:1047900090E00E94F21321E04E8D6D8D8B8D9C8DEB
:1047A0000E94451D182F81110DC00E8BFE01EC5A81
:1047B000FF4F0083CB51DF4F188219821A821B8270
:1047C00080E008C0E881F9810480F581E02DCE0108
:1047D0000995812FDF91CF911F910F91FF90EF905D
:1047E000DF90CF9008950F931F93CF93DF93DC0159
:1047F00082E791E011969C938E935C967C936E93E6
:104800005B975D961C925D97FD01EC5AFF4F1082FD
:10481000FD0180E090E0168E582F811102C028E043
:1048200001C020E0278F8C01000F111F9801280F75
:10483000391F2A0F3B1FE90148A14E7F4D7F48A336
:10484000511102C03FE001C031E0E801C80FD91F9B
:10485000CA0FDB1F330F330F28A12370322B38A36D
:104860000196339681319105B1F661157105C1F05C
:10487000FB01EA5AFF4F20E030E081919191892BB2
:1048800051F4255D3F4F220F331FFB01E20FF31F51
:10489000B183A08305C02F5F3F4F2031310569F7F9
:1048A000DF91CF911F910F91089550E0683059F436
:1048B000FA01EE0FFF1FEE0FFF1FE80FF91FEB5A73
:1048C000FF4F81810895693059F4FA01EE0FFF1FFF
:1048D000EE0FFF1FE80FF91FEB5AFF4F808108957D
:1048E000E62FF0E0EE0FFF1FE85FFD4F25913491BA
:1048F000FA01EE0FFF1FEE0FFF1FE80FF91FEB5A33
:10490000FF4FC901A0E0B0E0DC0199278827408172
:10491000518162817381482359236A237B2381E07B
:10492000452B462B472B09F480E008959C0150E06D
:10493000683031F4480F591FFA01E352FF4F07C0A6
:10494000693051F4480F591FFA01EF51FF4F808130
:10495000882331F110820895E62FF0E0EE0FFF1F5B
:10496000E85FFD4FA591B491440F551FF901E40F85
:10497000F51FEB58FF4F60817181FD01E623F7239E
:1049800091E0EF2B09F490E0420F531FFA01EB582E
:10499000FF4FA095B0956A237B2371836083892F95
:1049A000089524E0429F800D911D1124FC01EF57D2
:1049B000FF4F208181819281613110F4962339F477
:1049C000681729F081E0621719F080E0089581E00E
:1049D0000895CF939C0184E0489FA0011124F90120
:1049E000E40FF51FEF55FF4F80819181A281B381C4
:1049F000792F613198F4C62FCA2381F0462F50E0F9
:104A000060E070E0BA0155274427409550956095C5
:104A1000709584239523A623B72313C0671308C07A
:104A2000420F531FFA01EF55FF4F9927BB2709C0CB
:104A300068130DC0420F531FFA01EF55FF4F88272F
:104A4000BB2780839183A283B38381E001C080E090
:104A5000CF91089524E0429FA0011124460F511DDB
:104A6000440F551F840F951FFC01EB54FF4F8081AD
:104A7000918108950F931F93613039F050F06230A7
:104A800031F06330E1F468E005C064E003C066E043
:104A900001C062E08A01DC0170E0FB01EE0FFF1F44
:104AA0006E0F7F1FFD01E60FF71F468D5D966C911F
:104AB0005D975B968D919C915C970E948F191F91D9
:104AC0000F910895AC01475F5E4FFA011082319655
:104AD0001082319628E02083319620EC208324E058
:104AE00030E00C943A25742FAC01475F5E4FFA0119
:104AF000108231961082319628E020833196262F3D
:104B00002064208324E030E0672F0C943A2566234C
:104B100041F0653041F0E62FF0E0E45DFD4F649137
:104B20006C5F0C9473250895FC01EC5AFF4F2081B3
:104B3000222391F0AC01475F5E4F28E0FA01208309
:104B40003196108231962FE02083319620EC20831D
:104B500024E030E00C943A250895FC01EC5AFF4F14
:104B60002081222381F0AC01475F5E4FFA01108261
:104B70003196108231961082319620E4208324E011
:104B800030E00C943A250895CF93DF93FC01EC5A62
:104B9000FF4F20812223B9F0EC01AC01475F5E4F4B
:104BA000FA0110823196108231968CE08083319622
:104BB0008BE1808324E030E0CE010E943A25CF5A79
:104BC000DF4F81E08883DF91CF910895CF93DF930A
:104BD000FC01EC5AFF4F20812223B9F0EC01AC011B
:104BE000475F5E4FFA0110823196108231968CE059
:104BF000808331968FE1808324E030E0CE010E94F3
:104C00003A25CF5ADF4F81E08883DF91CF91089515
:104C1000FC01EC5AFF4F2081222389F0AC01475F51
:104C20005E4FFA0110823196108231962CE020837B
:104C300031962EE1208324E030E00C943A2508954B
:104C4000362F622FFC01E75FFE4F1082DC01A65F6A
:104C5000BE4F21E02C9311962FE02C93119620EC5F
:104C60002C9311961C9211963C9311964C9327E02D
:104C700030E0AF010C943A259C01462FFC01EE5A1E
:104C8000FF4F0190F081E02D309709F009946623E1
:104C900031F0613031F0623031F064E005C061E044
:104CA00003C062E001C063E0C9010C9487254F9204
:104CB0005F926F927F928F929F92AF92BF92CF92AC
:104CC000DF92EF92FF920F931F93CF93DF939C019C
:104CD0008C0107511F4F09F450C1D8019C91F90173
:104CE000E651FF4F983091F48081E901C60FD11D44
:104CF0004F89841759F08F8B882329F0C90121E04F
:104D00002A8B0E943C2681E08A8B37C180818111E9
:104D10001DC0F901E451FF4F8081837109F428C15E
:104D2000D901A351BF4F8C91823208F421C1260FC3
:104D3000311D260F311DD901AB52BF4F80819181AA
:104D40009827892798278D939C9317C1911110C19B
:104D5000813009F0ADC0F901E451FF4F8081803FFF
:104D600009F006C1462F50E0F901E40FF51F8789CD
:104D7000811102C080E8878BD901A151BF4F6D918D
:104D80007D918D919C910E9429344B015C01CA0157
:104D9000880F991F880F991F3901680E791ED3015A
:104DA000AB5ABF4F8D929D92AD92BC921397DA0190
:104DB000C3E0AA0FBB1FCA95E1F7A20FB31F6D0195
:104DC000C5EBCC0ED11C7901D3EFED0EF11CE70140
:104DD000E880F980E601F982E8826D01D7EBCD0E1B
:104DE000D11C790165EFE60EF11CE701688179813C
:104DF000E601798368836D01D9EBCD0ED11C790171
:104E000067EFE60EF11CE70168817981E60179839D
:104E100068837D01DBEBED0EF11CD901A750BF4F7C
:104E20006D917C91D7016D937C93E301CB59DF4F5A
:104E3000C880D980EA80FB808C149D04AE04BF0436
:104E400009F496C0C1E0DF01A358BF4FCC93DA014B
:104E5000AA0FBB1FA20FB31FAB58BF4FB701A601CC
:104E60004095509560957095AB0166277727250191
:104E700066247724442155214D935C93C11006C0CC
:104E8000882021F0DF01AF51BF4FCC93D11006C075
:104E9000992021F0E352FF4F41E04083820F931F9E
:104EA000FC01EB59FF4F80829182A282B38260C0E5
:104EB000823009F05DC0F901E451FF4F8081803FED
:104EC00009F056C075968081811145C03196808168
:104ED0003196C080D12CE12CF12CFE2CED2CDC2C59
:104EE000CC24E82A31968081C82A862F90E0F901E7
:104EF000B4E06B9FE00DF11D1124DF01AF57BF4FF0
:104F0000CD92DD92ED92FC92139750964D915D916A
:104F10006D917C911397C416D506E606F70641F10C
:104F2000820F931FEC01CF54DF4F81E08883EF5550
:104F3000FF4F40955095609570954C215D216E21F5
:104F40007F214083518362837383CD92DD92ED9202
:104F5000FC9213970DC0803F59F4F901EE5FFE4FAC
:104F60008081833029F4F901E60FF11D81E0828B05
:104F700080E2E80119928A95E9F7DF91CF911F91BC
:104F80000F91FF90EF90DF90CF90BF90AF909F90E8
:104F90008F907F906F905F904F9008958F929F9227
:104FA000AF92BF92CF92DF92EF92FF920F931F9337
:104FB000CF93DF9300D0CDB7DEB7FC01EC5AFF4FA3
:104FC00020812223C9F16C01F12C21E090E2A92E6D
:104FD000B12C460189EE880E911CBA82A98230E07C
:104FE000F901EE0FFF1F2E0F3F1FF601E20FF31F17
:104FF000E12C84019E012F5F3F4F468DF601658DA8
:10500000838D948D0E946A1D89819A81892B21F05C
:105010006F2DC6010E945726F394F4E0FF1661F04D
:10502000E1E0FE1629F0F2E0FF1621F027E0D5CFEF
:1050300023E0D3CF25E0D1CF80E00F900F90DF9118
:10504000CF911F910F91FF90EF90DF90CF90BF9085
:10505000AF909F908F900895262F642FFC01EC5AFB
:10506000FF4F3081332381F0AC01475F5E4FFA017F
:1050700010823196108231963CE030833196208345
:1050800024E030E00C943A2508956F927F928F923D
:105090009F92AF92BF92CF92DF92EF92FF920F93C7
:1050A0001F93CF93DF9300D01F92CDB7DEB77C0163
:1050B000ADB6BEB68091E80083FF0CC1F7018081D8
:1050C00090E02091C5053091C6052817390709F0F1
:1050D00001C18091C205833009F4A0C030F4813051
:1050E00071F0823009F4D9C0F5C08A3009F4BCC02F
:1050F0008B3009F4A4C0893009F0ECC050C0809115
:10510000C105813A09F0E6C08DB69EB61A821982B1
:105110008091C3051091C4058B83F7018085482FCA
:1051200050E08DB79EB7841B950B0FB6F8949EBFC9
:105130000FBE8DBFEDB7FEB731966F0160E070E036
:10514000CF010E9446344FEF410F8E010F5F1F4F7A
:105150009601BE016D5F7F4FC7010E94D72FF701F7
:1051600086819781009729F0408550E0B6010E9422
:105170003D341092E9008091E800877F8093E80039
:105180008B8181118093F10069817A81C6010E942F
:10519000A02A8091E8008B778093E80039C0809145
:1051A000C105813209F096C08DB69EB60091C70543
:1051B0001091C8057090C3056090C4058DB79EB767
:1051C000801B910B0FB6F8949EBF0FBE8DBFEDB73D
:1051D000FEB731966F018091E800877F8093E800E9
:1051E000B801CF010E94FE2A8091E8008E7780935B
:1051F000E80021E0711001C020E030E0021B130B39
:105200002C0D3D1D4FEF460D672DC7010E947030DC
:105210000FB6F8949EBE0FBE8DBE5CC08091C105D6
:10522000813A09F057C08091E800877F8093E800B9
:105230008091E80080FFFCCFF701818542C080911A
:10524000C105813209F046C08091E800877F8093D4
:10525000E8000E94122C9091C30581E0911101C0D9
:1052600080E0F701818736C08091C105813291F5D8
:105270008091E800877F8093E8000E94122C809143
:10528000C3059091C405882736E0969587953A9591
:10529000E1F7F701958784871DC08091C105813AA8
:1052A000C9F48091E800877F8093E8008091E8004E
:1052B00080FFFCCFF7018485958596958795969517
:1052C00087958093F1008091E8008E778093E800C5
:1052D0000E94122C0FB6F894BEBE0FBEADBE0F904A
:1052E0000F900F90DF91CF911F910F91FF90EF9052
:1052F000DF90CF90BF90AF909F908F907F906F90F6
:105300000895FC01399627E0DF011D922A95E9F7FF
:1053100021E0FC01218728E833E13587248723E059
:10532000248361E001960C94D42B5F926F927F925C
:105330008F929F92AF92BF92CF92DF92EF92FF92A5
:105340000F931F93CF93DF9300D01F92CDB7DEB79B
:105350007C01ADB6BEB68091C005843009F08BC02B
:105360008091E4009091E500F701228533852817AC
:10537000390709F480C081818F708093E9008091A2
:10538000E80085FF78C08DB69EB6408550E08DB7A9
:105390009EB7841B950B0FB6F8949EBF0FBE8DBFB2
:1053A000EDB7FEB731966F011B821A82198260E059
:1053B00070E0CF010E9446348E010F5F1F4F9601AF
:1053C00040E0BE016D5F7F4FC7010E94D72F582E6E
:1053D000F70184859585892B29F011E086859785CD
:1053E000892B09F010E0F701668077806114710461
:1053F00091F049815A81B301C6010E94303401E025
:10540000892B09F400E0F701408550E0B601C301A3
:105410000E943D3401C000E089819A81892BF9F016
:10542000511004C0011102C010FF19C0F70184859A
:1054300095859787868781818F708093E9008B811E
:1054400081118093F10069817A8140E050E0C601CA
:105450000E94532A8091E8008E778093E800809123
:10546000E4009091E500F701938782870FB6F894E6
:105470009EBE0FBE8DBE0FB6F894BEBE0FBEADBEB3
:105480000F900F900F90DF91CF911F910F91FF9090
:10549000EF90DF90CF90BF90AF909F908F907F90D4
:1054A0006F905F900895CF92DF92EF92FF920F93EB
:1054B0001F93CF93DF93EC018B017A010E94312C73
:1054C000811135C0E114F10439F0F7018081918137
:1054D000081B190BC80FD91FC12CD12C01151105A0
:1054E00029F18091E80085FD18C08091E8008E7751
:1054F0008093E8000E94F32EE114F10449F0F701D3
:1055000080819181C80ED91ED182C08285E00FC0F2
:105510000E94312C882311F30AC089918093F100F5
:1055200001501109FFEFCF1ADF0AD8CF80E0DF91D9
:10553000CF911F910F91FF90EF90DF90CF90089542
:105540002091C7053091C8052617370748F0611527
:10555000710539F42091E8002E772093E80001C00E
:10556000B901FC0120E06115710579F18091C00558
:105570008823F1F18530F1F18091E80083FD3CC092
:105580008091E80082FD2EC08091E80080FFEBCF83
:105590002091F3008091F20090E0922B611571054B
:1055A00051F08032910538F421912093F10061503F
:1055B00071090196F3CF21E0809709F020E08091F6
:1055C000E8008E778093E800CECF2111CFCF0AC0BC
:1055D0008091C005882361F0853061F08091E800FA
:1055E00083FD0AC08091E80082FFF2CF80E0089539
:1055F00082E0089583E0089581E0089561157105C2
:1056000029F42091E8002B772093E800FC01611534
:10561000710541F18091C005882361F1853061F108
:105620008091E80083FD24C08091E80082FFEFCFE5
:105630002091F3008091F20090E0922B892B31F0C1
:105640008091F10081936150710991F78091E80098
:105650008B778093E800DBCF8091C005882351F0E1
:10566000853051F08091E80080FFF6CF80E008950A
:1056700081E0089582E0089583E008952091C705B0
:105680003091C8052617370748F06115710539F4C0
:105690002091E8002E772093E80001C0B901FC01B9
:1056A00020E06115710591F18091C005882309F40E
:1056B00040C0853009F43FC08091E80083FD3DC0C3
:1056C0008091E80082FD2FC08091E80080FFE9CF43
:1056D0002091F3008091F20090E0922B611571050A
:1056E00059F08032910540F424912093F1003196D5
:1056F000615071090196F2CF21E0809709F020E016
:105700008091E8008E778093E800CBCF2111CCCF39
:105710000AC08091C005882361F0853061F08091D6
:10572000E80083FD0AC08091E80082FFF2CF80E0AC
:10573000089582E0089583E0089581E00895982F08
:10574000973068F59093E900981739F07091EC0064
:105750002091ED005091F00003C0242F762F50E0EF
:1057600021FD02C09F5FECCF3091EB003E7F309374
:10577000EB003091ED003D7F3093ED003091EB0078
:1057800031603093EB007093EC002093ED00509368
:10579000F0002091EE0027FDE5CF80E008958F70A6
:1057A0008093E90081E008950F931F93CF93DF93D7
:1057B000062FEC0110E0101779F16881611103C028
:1057C0001F5F2596F8CF2C81A981BA819B81862FF6
:1057D0008F70873010F080E020C0223010F442E05B
:1057E00001C046E0E8E0F0E020E0EA17FB0720F423
:1057F0002F5FEE0FFF1FF9CF2295207F422B50E441
:10580000959F90011124661F6627661F622B0E94D8
:105810009F2B8111D5CFDFCF81E0DF91CF911F91F9
:105820000F9108958091C10587FF11C08091E80014
:1058300082FD05C08091C0058111F8CF11C0809113
:10584000E8008B770BC08091C005882349F08091D8
:10585000E80080FFF8CF8091E8008E778093E80021
:1058600008952091E4003091E50095E64091EC0028
:10587000842F817040FF23C08091E80080FD1DC00F
:105880008091C005882399F0853099F08091EB00D4
:1058900085FD11C04091E4005091E50024173507C3
:1058A00029F3915011F09A01E1CF84E0089582E04C
:1058B000089583E0089581E0089580E0089540917F
:1058C000E80042FFDDCF08950F931F93CF93DF933E
:1058D0000E94B82C0E94C02CC8EDD0E088818F7740
:1058E000888388818068888388818F7D888319BCBC
:1058F0001092C0051092BC051092BE051092BD0515
:1059000000EE10E0F80180818B7F808388818160C8
:10591000888342E260E080E00E949F2BE1EEF0E0AD
:1059200080818E7F8083E2EEF0E0808181608083E1
:10593000808188608083F80180818E7F8083888168
:1059400080618883DF91CF911F910F910895E8EDD9
:10595000F0E080818F7E8083E7EDF0E080818160E0
:10596000808384E082BF81E08093BF050C94642C27
:10597000E8EDF0E080818E7F80831092E200089550
:105980001092DA001092E10008951F920F920FB664
:105990000F9211242F933F934F935F936F937F93B5
:1059A0008F939F93AF93BF93EF93FF938091E10009
:1059B00082FF0BC08091E20082FF07C08091E1006E
:1059C0008B7F8093E1000E94B82F8091DA0080FFE6
:1059D0001FC08091D80080FF1BC08091DA008E7FAD
:1059E0008093DA008091D90080FF0DC080E189BDED
:1059F00082E189BD09B400FEFDCF81E08093C0053E
:105A00000E94272F05C019BC1092C0050E94282FA4
:105A10008091E10080FF19C08091E20080FF15C0F5
:105A20008091E2008E7F8093E2008091E2008061AD
:105A30008093E2008091D80080628093D80019BCE6
:105A400085E08093C0050E94F22E8091E10084FFE2
:105A500030C08091E20084FF2CC080E189BD82E1EA
:105A600089BD09B400FEFDCF8091D8008F7D809361
:105A7000D8008091E1008F7E8093E1008091E20068
:105A80008F7E8093E2008091E20081608093E2004B
:105A90008091BC05882311F084E007C08091E30069
:105AA00087FD02C081E001C083E08093C0050E94B1
:105AB000F22E8091E10083FF24C08091E20083FFF9
:105AC00020C08091E100877F8093E10082E0809395
:105AD000C0051092BC058091E1008E7F8093E100AB
