:100000000C94D8010C9400020C9400020C94000291
:100010000C9400020C9400020C9400020C94000258
:100020000C9400020C9400020C9410100C9400022A
:100030000C9400020C9400020C9400020C94000238
:100040000C9400020C9400020C9400020C94000228
:100050000C9400020C9400020C9400020C94ED0825
:100060000C9400020C9459040C9491040C9400021A
:100070000C9400020C9400020C9400020C940002F8
:100080000C9400020C9400020C9400020C940002E8
:100090000C94B9060C9400020C9400020C9400021B
:1000A0000C9400020C9400020C940002C507C907CE
:1000B000C907C907C907C907C907C907D906C907B1
:1000C000C907C907C907C907C907C907D906C907A1
:1000D000C907C907C907C907C907C907E106C90789
:1000E000C907C907C907C907C907C9070707C90752
:1000F000C907C907C907C907C907C907E106C90769
:10010000C907C907C907C907C907C9070D07C9072B
:10011000C907C907C907C907C907C9071307C90715
:10012000C907C907C907C907C907C9072507C907F3
:10013000C907C907C907C907C907C9074F07C907B9
:10014000C907C907C907C907C907C9071907C907DF
:10015000C907C907C907C907C907C9073307C907B5
:10016000C907C907C907C907C907C9075207C90786
:10017000C907C907C907C907C907C9075207C90776
:10018000C907C907C907C907C907C9075207C90766
:10019000C907C907C907C907C907C9075207C90756
:1001A000C907C907C907C907C907C9075B07C9073D
:1001B000C907C907C907C907C907C9078C07C907FC
:1001C000C907C907C907C907C907C9075B07C9071D
:1001D000C907C907C907C907C907C9078C07C907DC
:1001E000C907C907C907C907C907C9077307C907E5
:1001F000C907C907C907C907C907C9079007C907B8
:10020000C907C907C907C907C907C9079007C907A7
:10021000C907C907C907C907C907C907A507C90782
:10022000C907C907C907C907C907C907BF07C90758
:10023000C907C907C907C907C907C907BF07C1094E
:10024000C509AF09B509BB09EC09EC09EC09C909F5
:10025000CF09D509DB09E109EC09E70903112F11E1
:100260002B122F112B12731197112B12F311041251
:100270000D0A4932432074696D6564206F757420DE
:10028000616674657220313030306D732C20646982
:1002900073636F6E6E656374696E67205553422099
:1002A000636F6E74726F6C6C65722066726F6D2016
:1002B0004F472058626F78000D0A546869732069AF
:1002C00073206120736C617665206465766963656F
:1002D000000D0A5468697320646576696365206956
:1002E0007320696E20706C6179657220736C6F7415
:1002F00020000000000200090F0000030401000CB0
:1003000000000000000000000000000000000000ED
:100310000004080201104080401020408040800806
:100320000204018040201002011080102040402073
:10033000040404040403040502020202040302028A
:10034000020206060606060604040202020404006F
:100350000000002300260029002C002F00000000D0
:1003600000250028002B002E003100000000002492
:100370000027002A002D00300009022000010100A2
:1003800080FA09040000025842000007058103209A
:100390000004070502032000041201100100000000
:1003A000205E04890221010000000100B704E80872
:1003B00011241FBECFEFDAE0DEBFCDBF11E0A0E019
:1003C000B1E0EEECF7E202C005900D92AE35B10758
:1003D000D9F723E0AEE5B1E001C01D92A43EB2071B
:1003E000E1F711E0C8EDD1E004C02197FE010E94C1
:1003F000C213C63DD107C9F70E943B020C94E51316
:100400000C94000041E050E06DE573E08BED92E06C
:100410000E943D0841E050E06EE573E08BED92E014
:100420000E943D0808950F931F93CF93DF931816F2
:1004300019066CF4C7E6D1E08C0109591E4F8BED0B
:1004400092E00E94E2078993C017D107C1F7E0EE5E
:10045000F0E080818E7F80830E9437096093630182
:10046000709364018093650190936601DF91CF9151
:100470001F910F9108950E944E0961E084E00E944F
:10048000ED0961E089E00E94ED0961E081E10E94EF
:10049000ED0962E083E10E94ED0962E084E10E94DF
:1004A000ED0960E089E00E942C0A60E084E00E948F
:1004B0002C0A61E081E10E942C0A0E946C1278945F
:1004C00026E040E251EA67E070E08BEC91E00E94A8
:1004D000F10383E10E945D0AEC0184E10E945D0A60
:1004E000CC0FDD1F8C2B80935E0161ED72E08BECF5
:1004F00091E00E94130560915E0170E06F5F7F4F95
:100500004AE050E08BEC91E00E94E00560915E01D2
:100510008BED92E00E94C50840E85AE166E070E089
:100520008BED92E00E94D90862E072E08BED92E0E0
:100530000E94E30863E172E08BED92E00E94DE0826
:1005400068EB72E08BEC91E00E941305C0EED0E006
:100550000E943709009163011091640120916501A7
:1005600030916601DC01CB01801B910BA20BB30B18
:10057000893E9340A105B105D8F0888181608883C8
:1005800060E084E00E942C0A81E10E945D0A892BD0
:1005900031F460E772E08BEC91E00E94130561E0BA
:1005A00081E10E942C0A8BED92E00E949E0815C00A
:1005B00084E1E7E6F1E0A9E4B3E001900D928A95C9
:1005C000E1F780913903882341F060E081E10E94E6
:1005D0002C0A61E084E00E942C0A0E9437090091F5
:1005E0005F01109160012091610130916201DC0195
:1005F000CB01801B910BA20BB30B0597A105B10595
:1006000018F40E945112E9CF0B5F1F4F2F4F3F4F3D
:1006100000935F01109360012093610130936201A8
:1006200080E091E00E94EE0B93CFFC01918D228D32
:10063000892F90E0805C9F4F821B91098F739927CF
:100640000895FC01918D828D981731F0828DE80F0D
:10065000F11D858D90E008958FEF9FEF0895FC01C7
:10066000918D828D981761F0828DDF01A80FB11DE9
:100670005D968C91928D9F5F9F73928F90E008950D
:100680008FEF9FEF0895FC01238D348D231738F0F1
:100690008FE390E0821B9109830F911D0895832FB2
:1006A00090E0821B910901970895FC01848DDF0180
:1006B000A80FB11DA35ABF4F8C91248D30E02F5F3E
:1006C0003F4F2F733078332334F421503109206C9D
:1006D0003F6F2F5F3F4F248FA689B7898C93A089E6
:1006E000B1898C9180648C93938D848D981306C00E
:1006F0000288F389E02D80818F7D80830895CF93D8
:10070000DF93EC01888D8823D9F0EA89FB89808109
:1007100085FD05C0A889B9898C9186FD11C00FB6E9
:1007200007FCF5CF808185FFF2CF04C0CE010E9487
:100730005503EBCFA889B9898C9185FFE8CFF6CF17
:10074000DF91CF9108950F931F93CF93DF93EC0127
:1007500081E0888F9B8D8C8D981323C0E889F9895F
:10076000808185FD2FC01DC09C8D19130CC00FB654
:1007700007FCFACFE889F989808185FFF5CFCE01A2
:100780000E945503F1CF8B8DFE01E80FF11DE35A56
:10079000FF4F00831B8FEA89FB8980818062808301
:1007A00019C02B8D30E02F5F3F4F2F7330783323EC
:1007B00034F421503109206C3F6F2F5F3F4F062FDB
:1007C000122FD2CFEE89FF896083E889F989808171
:1007D0008064808381E090E0DF91CF911F910F9141
:1007E0000895CF92DF92EF92FF921F93CF93DF9302
:1007F000EC016A017B01122FE889F98982E080838C
:100800004115514E61057105B1F060E079E08DE36D
:1008100090E0A70196010E94A013DA01C901019797
:10082000A109B109B695A795979587959C012115C2
:1008300080E13807A8F0E889F989108260E874E857
:100840008EE190E0A70196010E94A013DA01C90190
:100850000197A109B109B695A795979587959C0130
:10086000EC85FD853083EE85FF852083188EEC892D
:10087000FD891083EA89FB89808180618083EA8910
:10088000FB89808188608083EA89FB898081806818
:100890008083EA89FB8980818F7D8083DF91CF917E
:1008A0001F91FF90EF90DF90CF90089580E090E04F
:1008B00008951F920F920FB60F9211242F938F93CA
:1008C0009F93AF93BF93EF93FF93E091DB01F09180
:1008D000DC01808182FD14C0EBECF1E0A689B789D0
:1008E0002C91818D8F5F8F73928D891771F0DF014D
:1008F000E18DF0E0E553FE4F258F59968C9305C0AE
:10090000E091E101F091E2018081FF91EF91BF91CF
:10091000AF919F918F912F910F900FBE0F901F90CD
:1009200018951F920F920FB60F9211242F933F9399
:100930004F935F936F937F938F939F93AF93BF93E7
:10094000EF93FF938BEC91E00E945503FF91EF91A1
:10095000BF91AF919F918F917F916F915F914F91D7
:100960003F912F910F900FBE0F901F901895EBECB9
:10097000F1E01382128288EE93E0A0E0B0E084837D
:100980009583A683B78384E191E0918380838DEC86
:1009900090E0958784878CEC90E09787868788EC39
:1009A00090E0918B808B89EC90E0938B828B8AEC2A
:1009B00090E0958B848B8EEC90E0978B868B118EDC
:1009C000128E138E148E0895CF92DF92EF92FF92C3
:1009D0000F931F93CF93DF9341155105C1F06A0127
:1009E0008C01E62EF72EC0E0D0E0D7016D917D019D
:1009F000D801ED91FC910190F081E02DC80109959D
:100A0000892B39F02196CC16DD0679F702C0C0E0BB
:100A1000D0E0CE01DF91CF911F910F91FF90EF9029
:100A2000DF90CF900895EF92FF920F931F93CF9393
:100A3000DF93FB0164916623B1F07F018C01C0E07C
:100A4000D0E0D801ED91FC910190F081E02DC8013A
:100A50000995892B51F02196F701EC0FFD1F649148
:100A60006111EFCF02C0C0E0D0E0CE01DF91CF91A5
:100A70001F910F91FF90EF900895DC01ED91FC9193
:100A80000190F081E02D099508958F929F92AF9289
:100A9000BF92EF92FF920F931F93CF93DF93CDB747
:100AA000DEB7A1970FB6F894DEBF0FBECDBF7C01B5
:100AB000CB01BA0119A2223008F42AE08E010F5DA1
:100AC0001F4F822E912CA12CB12CA50194010E94C4
:100AD000A013E62F622F732F842F952F0150110939
:100AE000EA3010F4E05D01C0E95CD801EC936115D7
:100AF00071058105910549F70115110591F0F8017E
:100B000001900020E9F73197AF01401B510BD7014D
:100B1000ED91FC910280F381E02DB801C7010995A8
:100B200002C080E090E0A1960FB6F894DEBF0FBE41
:100B3000CDBFDF91CF911F910F91FF90EF90BF90AC
:100B4000AF909F908F900895CF92DF92EF92FF9297
:100B50000F931F93CF93DF93EC016A017B01211563
:100B6000310541F4E881F9810190F081E02D642F95
:100B700009951DC02A303105C1F4772394F46DE244
:100B80000E943D058C0144275527BA014C195D0987
:100B90006E097F092AE0CE010E944505800F911F52
:100BA00006C02AE00E94450502C00E944505DF916B
:100BB000CF911F910F91FF90EF90DF90CF9008950C
:100BC0009A01AB01770F660B770B0E94A40508957D
:100BD000CF93DF93CCEBD0E018821092DA0281E061
:100BE0008093D8021092D70261E082E00E942C0A22
:100BF00061E083E00E942C0AE9EBF0E080818E7FC7
:100C0000808380818D7F808388E48093B80085E431
:100C10008883DF91CF910895813049F41092680262
:100C20001092690210926A0210926B0217C08091B2
:100C3000680290916902A0916A02B0916B020196DC
:100C4000A11DB11D8093680290936902A0936A026E
:100C5000B0936B0284E690E00E94430980916802A1
:100C600090916902A0916A02B0916B028035910562
:100C7000A105B10590F010926802109269021092DD
:100C80006A0210926B020E94E80561E081E10E9415
:100C90002C0A81E080936C02089580E00895880F0B
:100CA0008093BA0008959B01AC0160E074E284EF88
:100CB00090E00E94A013DA01C9014097A109B1098F
:100CC000B695A795979587958093B800089540911C
:100CD0008F02262F30E0240F311D21323105ECF434
:100CE0002091DA022430D9F4662381F0A82FB92F9D
:100CF00080E090E030918F022D91FC01EF56FD4F86
:100D0000E30FF11D208301968617A0F380918F02D7
:100D1000680F60938F0280E0089581E0089582E07B
:100D200008959093D4028093D30208959093D602AD
:100D30008093D5020895CF93DF9385ED8093BC0017
:100D400081E00E940C06CCEBD0E005C080E00E9460
:100D50000C06811103C0888184FDF8CF1092DA025D
:100D6000DF91CF91089585EC8093BC001092DA0258
:100D700008951F920F920FB60F9211242F933F9355
:100D80004F935F936F937F938F939F93AF93BF9393
:100D9000EF93FF938091B900E82FE87F8E2F90E0CA
:100DA000893C910508F0F5C0FC01EA5AFF4F0C940C
:100DB000C2138091D9028093BB0085EC8093BC0064
:100DC000E8C09091B2028091B102981780F4E0914E
:100DD000B20281E08E0F8093B202F0E0ED54FD4F3D
:100DE00080818093BB0085EC8093BC00D2C0809151
:100DF000D802882319F00E949B06CBC081E0809323
:100E0000D70284EA8093BC001092DA02C2C080E26A
:100E100080936D020E949B06BCC080E380936D02AC
:100E20000E949B06B6C088E380936D020E94B306C1
:100E3000B0C0E091B20281E08E0F8093B202809147
:100E4000BB00F0E0ED54FD4F80839091B2028091A1
:100E5000B102981720F485EC8093BC009AC085E815
:100E60008093BC0096C0E091B20281E08E0F809327
:100E7000B2028091BB00F0E0ED54FD4F8083809181
:100E8000D802882319F00E949B0683C081E08093DA
:100E9000D70284EA8093BC001092DA027AC00E94E2
:100EA0009B0677C083E08093DA0210926E0285EC95
:100EB0008093BC006EC080916E02803280F4E0911D
:100EC0006E0281E08E0F80936E028091BB00F0E095
:100ED000E159FD4F808385EC8093BC005AC085E8C2
:100EE0008093BC0056C00E94B30680916E0280328F
:100EF00030F4E0916E02F0E0E159FD4F1082609114
:100F00006E0270E0E091D302F091D4028FE692E09D
:100F1000099510926E023DC085E88093BC0039C0EF
:100F200084E08093DA021092900210928F02E09196
:100F3000D502F091D602099580918F02811105C0EA
:100F400081E080938F0210929102E091900281E003
:100F50008E0F80939002F0E0EF56FD4F80818093DA
:100F6000BB009091900280918F02981720F485EC3D
:100F70008093BC000EC085E88093BC000AC085EC5D
:100F80008093BC001092DA0204C010926D020E949D
:100F90009B06FF91EF91BF91AF919F918F917F91B0
:100FA0006F915F914F913F912F910F900FBE0F90D6
:100FB0001F90189580910E0390E020910F03821BE3
:100FC0009109089590910F0380910E03981750F4A2
:100FD000E92FF0E0E05FFC4F208130E09F5F9093CD
:100FE0000F0302C02FEF3FEFC9010895E0910F03F7
:100FF00080910E03E81730F4F0E0E05FFC4F808151
:1010000090E008958FEF9FEF0895CF93DF93EC0169
:10101000E091E702F091E802309701F190910F031F
:1010200080910E039817D0F0161617068CF420E066
:1010300030E090E0DE01A90FB11D4C91D901A05F15
:10104000BC4F4C939F5F292F30E02617370794F34E
:10105000CB0110920F0360930E030995DF91CF919E
:101060000895E091E902F091EA02309729F0109298
:10107000ED021092EC0209950895CF92DF92EF9263
:10108000FF920F931F93CF93DF938C01CB016A01E3
:101090002091EB022223A1F041155105A1F0EB01B3
:1010A0007B01E40EF51E6991D801ED91FC91019050
:1010B000F081E02DC8010995CE15DF05A1F703C029
:1010C000642F0E946706C601DF91CF911F910F9197
:1010D000FF90EF90DF90CF900895CF93DF931F9212
:1010E000CDB7DEB7FC0169839091EB029923D9F06B
:1010F0009091EC02903238F081E090E0938382830B
:1011000080E090E017C08091ED02E82FF0E0E2511E
:10111000FD4F998190838F5F8093ED028093EC0265
:1011200081E090E007C061E0CE0101960E94670671
:1011300081E090E00F90DF91CF91089510920F031E
:1011400010920E0380E2E0E1F3E0DF011D928A9548
:10115000E9F70895FC011382128288EE93E0A0E083
:10116000B0E084839583A683B78386E291E0918380
:101170008083089510920F0310920E031092ED02D7
:101180001092EC020E94E8050895CF93DF93EC01E2
:10119000862F0E944F0681E398E00E94960685E024
:1011A00098E00E949106CE010E94BA08DF91CF918B
:1011B0000895CB01BA010E94530608957093E80286
:1011C0006093E70208957093EA026093E90208953C
:1011D0008BED92E00E94AA0808951F920F920FB61D
:1011E0000F9211242F933F938F939F93AF93BF93AD
:1011F0008091310390913203A0913303B091340375
:101200003091300323E0230F2D3720F40196A11DE8
:10121000B11D05C026E8230F0296A11DB11D209324
:1012200030038093310390933203A0933303B09340
:1012300034038091350390913603A0913703B09128
:1012400038030196A11DB11D809335039093360399
:10125000A0933703B0933803BF91AF919F918F91C3
:101260003F912F910F900FBE0F901F9018952FB7A1
:10127000F89460913103709132038091330390911F
:1012800034032FBF08958230910538F0880F991FDD
:10129000880F991F05970197F1F70895789484B501
:1012A000826084BD84B5816084BD85B5826085BD62
:1012B00085B5816085BDEEE6F0E080818160808348
:1012C000E1E8F0E01082808182608083808181602B
:1012D0008083E0E8F0E0808181608083E1E9F0E0F4
:1012E000808182608083808181608083E0E9F0E09A
:1012F000808181608083E1ECF0E080818460808384
:10130000808182608083808181608083E3ECF0E073
:10131000808181608083E0ECF0E080818260808366
:10132000E2ECF0E0808181608083EAE7F0E0808198
:1013300084608083808182608083808181608083FB
:10134000808180688083089590E0FC013197EF30C0
:10135000F10508F041C0E15EFE4F0C94C213E0E8D5
:10136000F0E080818F7780830895E0E8F0E080816D
:101370008F7D80830895E0E8F0E08081877F80831F
:10138000089584B58F7784BD089584B58F7D84BD1D
:101390000895E0E9F0E080818F7780830895E0E9A7
:1013A000F0E080818F7D80830895E0E9F0E0808126
:1013B000877F80830895E0ECF0E080818F778083E1
:1013C0000895E0ECF0E080818F7D80830895E2EC69
:1013D000F0E08081877F80830895CF93DF9390E052
:1013E000FC01EF5EFC4F2491FC01E05DFC4F849119
:1013F000882379F190E0880F991FFC01E559FC4F93
:10140000A591B491FC01E35AFC4FC591D4916111AF
:101410000CC09FB7F8948C91E22FE0958E238C93AB
:101420002881E223E8839FBF14C0623061F49FB734
:10143000F8948C91322F309583238C93E881E22BA2
:10144000E8839FBF06C08FB7F894EC91E22BEC9332
:101450008FBFDF91CF9108951F93CF93DF93282FF4
:1014600030E0F901EE50FD4F8491F901EF5EFC4F41
:101470001491F901E05DFC4FC491CC23D1F0D62F3B
:1014800081110E94A409EC2FF0E0EE0FFF1FE35A38
:10149000FC4FA591B4918FB7F894D11106C09C91DF
:1014A000E12FE095E923EC9303C0EC91E12BEC9361
:1014B0008FBFDF91CF911F910895CF93DF93282F96
:1014C00030E0F901EE50FD4F8491F901EF5EFC4FE1
:1014D000D491F901E05DFC4FC491CC2391F08111CE
:1014E0000E94A409EC2FF0E0EE0FFF1FE15BFC4F20
:1014F000A591B491EC91ED2381E090E021F480E09E
:1015000002C080E090E0DF91CF9108953F924F922A
:101510005F926F927F928F929F92AF92BF92CF9283
:10152000DF92EF92FF920F931F93CF93DF9300D040
:101530001F92CDB7DEB76C01EDB6FEB68091E80024
:1015400083FF1DC1F601808190E02091430330911B
:1015500044032817390709F012C1809140038330F2
:1015600009F4A6C030F4813071F0823009F4EBC088
:1015700006C18A3009F4CAC08B3009F4B2C0893080
:1015800009F0FDC055C080913F03813A09F0F7C0D2
:10159000ADB6BEB61A821982EFE3F3E08281138101
:1015A0008B83F6018085482F50E08DB79EB7841B52
:1015B000950B0FB6F8949EBF0FBE8DBFEDB7FEB76B
:1015C00031964F0160E070E0CF010E94DE134FEFD3
:1015D000410F8E010F5F1F4F9401BE016D5F7F4F62
:1015E000C6010E940513F60186819781009729F0B4
:1015F000408550E0B4010E94D5131092E900E8EE56
:10160000F0E08081877F80838B8181118093F1005E
:1016100069817A81C4010E94100DE8EEF0E08081BA
:101620008B7780830FB6F894BEBE0FBEADBEA7C049
:1016300080913F03813209F0A2C06DB67EB6EFE320
:10164000F3E006811781528043808DB79EB7801BDF
:10165000910B0FB6F8949EBF0FBE8DBFEDB7FEB7CE
:1016600031964F010F2EF8EEAF2EB12CF02DF50173
:101670008081877F8083B801C4010E94940DF501A9
:1016800080818E77808321E0511001C020E030E01E
:10169000021B130B280D391D4FEF440D652DC6019C
:1016A0000E9453130FB6F8947EBE0FBE6DBE67C086
:1016B00080913F03813A09F062C0E8EEF0E080815A
:1016C000877F8083808180FFFDCFF60181858093B5
:1016D000F100E8EEF0E080818E7780830E94490F70
:1016E0004EC080913F03813209F049C0E8EEF0E03E
:1016F0008081877F80830E94490F9091410381E020
:10170000911101C080E0F601818739C080913F03CB
:101710008132A9F5E8EEF0E08081877F80830E9426
:10172000490F809141039091420388270024880F3C
:10173000991F001C880F991F001C892F902DF601FE
:10174000958784871CC080913F03813AC1F4E8EEFD
:10175000F0E08081877F8083808180FFFDCFF6016C
:101760008485958596958795969587958093F100C4
:10177000E8EEF0E080818E7780830E94490F0FB6FB
:10178000F894FEBE0FBEEDBE0F900F900F90DF914C
:10179000CF911F910F91FF90EF90DF90CF90BF906E
:1017A000AF909F908F907F906F905F904F903F9001
:1017B0000895FC01399627E0DF011D922A95E9F78B
:1017C00021E0FC01218728E833E13587248723E0E5
:1017D000248361E001960E94F90E08955F926F9252
:1017E0007F928F929F92AF92BF92CF92DF92EF92B1
:1017F000FF920F931F93CF93DF9300D01F92CDB72B
:10180000DEB77C01ADB6BEB680913E03843009F0F0
:101810008FC08091E4009091E500F7012285338527
:101820002817390709F484C081818F708093E900FB
:101830008091E80085FF7CC08DB69EB6408550E063
:101840008DB79EB7841B950B0FB6F8949EBF0FBE45
:101850008DBFEDB7FEB731966F011B821A821982D8
:1018600060E070E0CF010E94DE138E010F5F1F4F1A
:10187000960140E0BE016D5F7F4FC7010E940513D6
:10188000582EF70184859585892B41F081E02685C6
:101890003785232B09F080E0782E01C0712CF701E9
:1018A000068117810115110599F049815A81B80106
:1018B000C6010E94C81366246394892B09F4612C25
:1018C000F701408550E0B601C8010E94D51301C060
:1018D000612C89819A81892BF9F0511004C0611023
:1018E00002C070FE19C0F7018485958597878687A9
:1018F00081818F708093E9008B8181118093F10049
:1019000069817A8140E050E0C6010E94B00CE8EEA7
:10191000F0E080818E7780838091E4009091E500F3
:10192000F701938782870FB6F8949EBE0FBE8DBED7
:101930000FB6F894BEBE0FBEADBE0F900F900F90C5
:10194000DF91CF911F910F91FF90EF90DF90CF909B
:10195000BF90AF909F908F907F906F905F90089511
:101960008F929F92AF92BF92CF92DF92EF92FF92AF
:101970000F931F93CF93DF938C01EB015A010E94C9
:101980006D0F811140C0A114B10439F0F5018081BF
:101990009181C81BD90B080F191F209799F1E12CD1
:1019A000F12C0F2EF8EE8F2E912CF02D0F2EF1EF43
:1019B000CF2ED12CF02DF401808185FD16C08081C1
:1019C0008E7780830E945112A114B10449F0F50171
:1019D00080819181E80EF91EF182E08285E013C0DA
:1019E0000E946D0F882351F00EC0F80181918F0184
:1019F000F60180832197FFEFEF1AFF0A2097D9F6AF
:101A000080E001C080E0DF91CF911F910F91FF90A6
:101A1000EF90DF90CF90BF90AF909F908F90089500
:101A2000CF92DF92FF920F931F93CF93DF9320917A
:101A30004503309146032617370758F061157105A5
:101A400039F4E8EEF0E020812E7720839B0101C07D
:101A50009B01A82FB92F10E0E8EEF0E063EF70E0F3
:101A600042EF50E00F2EF1EFCF2ED12CF02D01E000
:101A7000F12C30C080913E03882309F442C08530A8
:101A800009F441C0808183FD40C0808182FD32C065
:101A9000808180FF1FC0EB011881EA01888190E0FE
:101AA000912B2115310579F08032910560F41D915B
:101AB000E60118832150310901962115310519F0ED
:101AC00080329105A1F7102F809709F01F2D80819A
:101AD0008E7780832115310569F61111CBCF0AC0AD
:101AE00080913E03882399F0853099F0808183FFAF
:101AF00003C011C0E8EEF0E0808182FFF1CF80E00A
:101B00000BC082E009C083E007C081E005C082E02D
:101B100003C083E001C081E0DF91CF911F910F915D
:101B2000FF90DF90CF900895EF92FF921F93CF9395
:101B3000DF936115710551F5E8EEF0E080818B7758
:101B4000808345C080913E03882309F447C08530D7
:101B500009F446C0808183FD45C0808182FFF2CFB9
:101B60004DC0EA0188818D936150710941F0E9010E
:101B70001881E701888190E0912B892B91F7808172
:101B80008B7780836115710571F421C0A82FB92F5F
:101B9000E8EEF0E023EF30E00F2EF2EFEF2EF12C25
:101BA000F02D41EF50E080913E038823E9F085302D
:101BB000E9F0808183FD1CC0808182FD1FC0C2CFFF
:101BC00080913E038823B1F0853019F415C0E8EE0A
:101BD000F0E0808180FFF4CF80E01AC082E018C07E
:101BE00083E016C081E014C082E012C083E010C020
:101BF00081E00EC082E00CC083E00AC0E9011881D8
:101C0000E701888190E0912B892B09F0AACFB7CF0B
:101C1000DF91CF911F91FF90EF900895CF92DF92C7
:101C2000FF920F931F93CF93DF9320914503309141
:101C300046032617370758F06115710539F4E8EEA9
:101C4000F0E020812E7720839B0101C09B01E82FCB
:101C5000F92F10E0A8EEB0E063EF70E042EF50E043
:101C60000F2EF1EFCF2ED12CF02D01E0F12C31C051
:101C700080913E03882309F443C0853009F442C0B3
:101C80008C9183FD41C08C9182FD33C08C9180FF8B
:101C900020C0EB011881EA01888190E0912B211589
:101CA000310581F08032910568F41491E6011883C2
:101CB00031962150310901962115310519F08032F4
:101CC000910599F7102F809709F01F2D8C918E7731
:101CD0008C932115310561F61111CACF0AC080918C
:101CE0003E03882399F0853099F0808183FF03C0FB
:101CF00011C0E8EEF0E0808182FFF1CF80E00BC000
:101D000082E009C083E007C081E005C082E003C033
:101D100083E001C081E0DF91CF911F910F91FF908F
:101D2000DF90CF9008958F929F92BF92CF92DF92D3
:101D3000EF92FF920F931F93CF93DF93873070F151
:101D400026C0292F2F70E7012883891731F0E80179
:101D500078812081E401588103C0242F762F5B2DE8
:101D600021FF12C03C913E7F3C9330813D7F308308
:101D70003C9131603C93E80178832083E4015883EF
:101D8000E6012881222344F49F5F9730D1F68F70BB
:101D90008093E90081E021C080E01FC0982F9F70F0
:101DA0009093E900982F242F762F50E0ABEEB0E00F
:101DB000EDEEF0E00CEE10E00F2EF0EF8F2E912CF8
:101DC000F02D0F2EFEEECF2ED12CF02D0F2EF9EE92
:101DD000EF2EF12CF02DB12CC3CFDF91CF911F91BD
:101DE0000F91FF90EF90DF90CF90BF909F908F90DA
:101DF0000895EF92FF920F931F93CF93DF93662383
:101E0000F1F1062FC82FD92F10E00F2EF6E0FF2E8C
:101E1000F02D6894EE24E1F85881552351F19C810E
:101E2000E981FA816B81852F8F70873050F5923070
:101E300010F44E2D01C04F2DE930F10550F028E08F
:101E400030E090E09F5F220F331F2E173F07D0F343
:101E500001C090E09295907F492B90E4699FB0017A
:101E60001124551F5527551F652B0E94930E88235B
:101E700049F01F5F25960113CFCF81E003C081E0B9
:101E800001C080E0DF91CF911F910F91FF90EF9003
:101E9000089580913F03882344F0E8EEF0E014C0F9
:101EA00080913E03811103C00895E8EEF0E0808147
:101EB00082FFF6CFE8EEF0E080818B778083089593
:101EC00080913E03882341F0808180FFF9CFE8EEC6
:101ED000F0E080818E77808308950F931F93CF93D6
:101EE000DF932091E4003091E50065E6ACEEB0E0D0
:101EF000E8EEF0E00BEE10E044EE50E001C09C0193
:101F00009C91892F817090FD1DC020C080913E035F
:101F1000882381F0853081F0E801888185FD0EC03D
:101F2000EA01888199812817390751F3615039F7FF
:101F300084E00FC082E00DC083E00BC081E009C0E7
:101F400080E007C0808180FFE1CFFACF908192FFCF
:101F5000DDCFDF91CF911F910F9108950F931F93C4
:101F6000CF93DF930E9403100E940B10C8EDD0E0C6
:101F700088818F77888388818068888388818F7D36
:101F8000888319BC10923E0310923A0310923C03CE
:101F900010923B0300EE10E0F80180818B7F80837C
:101FA00088818160888342E260E080E00E94930E35
:101FB000E1EEF0E080818E7F8083E2EEF0E08081D0
:101FC00081608083808188608083F80180818E7F3A
:101FD0008083888180618883DF91CF911F910F91E9
:101FE0000895E8EDF0E080818F7E8083E7EDF0E0FA
:101FF00080818160808384E082BF81E080933D03A3
:102000000E94AE0F0895E8EDF0E080818E7F80831E
:102010001092E20008951092DA001092E100089503
:102020001F920F920FB60F9211242F933F934F934D
:102030005F936F937F938F939F93AF93BF93EF9330
:10204000FF938091E10082FF0BC08091E20082FF4C
:1020500007C0E1EEF0E080818B7F80830E94F9125F
:102060008091DA0080FF1FC08091D80080FF1BC0E4
:10207000EAEDF0E080818E7F80838091D90080FF3F
:102080000DC080E189BD82E189BD09B400FEFDCFAC
:1020900081E080933E030E94861205C019BC109215
:1020A0003E030E9487128091E10080FF17C080915B
:1020B000E20080FF13C0E2EEF0E080818E7F80833B
:1020C000808180618083E8EDF0E0808180628083A0
:1020D00019BC85E080933E030E9450128091E1007C
:1020E00084FF30C08091E20084FF2CC080E189BD74
:1020F00082E189BD09B400FEFDCFE8EDF0E080810A
:102100008F7D8083E1EEF0E080818F7E8083E2EE40
:10211000F0E080818F7E80838081816080838091E8
:102120003A03882321F084E080933E0309C0809124
:10213000E300882314F081E001C083E080933E0334
:102140000E9450128091E10083FF20C08091E20044
:1021500083FF1CC0E1EEF0E08081877F808382E016
:1021600080933E0310923A0380818E7F8083E2EE5B
:10217000F0E080818E7F808380818061808342E275
:1021800060E080E00E94930E0E945012FF91EF9158
:10219000BF91AF919F918F917F916F915F914F917F
:1021A0003F912F910F900FBE0F901F9018950F9396
:1021B0001F93CF93DF93CDB7DEB7AA970FB6F894EE
:1021C000DEBF0FBECDBFEFE3F3E027E433E0A1EFC6
:1021D000B0E08C9181932E173F07D9F70E949E1291
:1021E0008091E80083FF37C1EFE3F3E02081318184
:1021F000832F90E08A30910508F02DC1FC01E25D4B
:10220000FE4F0C94C213203821F0223809F023C16C
:1022100008C080913B0390913C03992389F0826030
:102220000FC0809143038F70873008F014C1E9EE2E
:10223000F0E080838091EB0085FB882780F9108295
:10224000E8EEF0E09081977F9083A1EFB0E08C936F
:102250001C9280818E7780830E94490FFCC02223CC
:1022600009F408C1223009F0F6C009C181E0333019
:1022700009F080E080933C032CC0809143038F7071
:102280009FEF980F963008F0E6C08093E900909198
:10229000EB0090FF1EC090914003933031F4EBEEC1
:1022A000F0E080818062808314C0EBEEF0E09081EA
:1022B0009061908321E030E0A90102C0440F551FD6
:1022C0008A95E2F7AAEEB0E04C931C928081886078
:1022D00080831092E900E8EEF0E08081877F8083C0
:1022E0000E94490FB8C02111B6C0109141031F7759
:1022F000E3EEF0E080818078812B8083E8EEF0E0EF
:102300008081877F80830E94490FE8EEF0E0808122
:1023100080FFFDCFE3EEF0E08081806880831111C3
:1023200002C082E001C083E080933E0394C0205845
:10233000223008F090C080914103909142038C3D7F
:1023400053E09507A1F583E08A838AE289835FB72A
:10235000F894DE01139620E03EE041E2E32FF0E046
:1023600040935700849120FF03C082958F703F5F98
:102370008F708A3018F090E0C79602C090E0C09647
:102380008D939D932F5F243149F75FBF08EE10E0D6
:10239000F8018081877F80836AE270E0CE01019638
:1023A0000E94100DF80180818B77808354C060916A
:1023B000430370914403AE014F5F5F4F0E9475135A
:1023C000BC01892B09F447C008EE10E0F8019081A8
:1023D000977F908389819A810E940E0EF8018081F7
:1023E0008B77808338C02038B1F5E8EEF0E080814B
:1023F000877F808380913A038093F10080818E777C
:1024000080830E94490F27C0211125C0809141037C
:102410009091420399270297F4F4E8EEF0E080816E
:10242000877F80838091410380933A030E94490F04
:1024300080913A03882321F084E080933E0309C011
:102440008091E300882314F081E001C084E0809350
:102450003E030E9492128091E80083FF16C0E8EECE
:10246000F0E08081877F8083EBEEF0E08081806206
:1024700080830BC080914103813069F7F7CE809152
:102480004103882309F4F9CE24CFAA960FB6F89415
:10249000DEBF0FBECDBFDF91CF911F910F91089589
:1024A0000895CF9380913E038823A1F0C091E90065
:1024B000CF708091EC00982F917080FD90E8C92B2F
:1024C0001092E9008091E80083FD0E94D710CF7040
:1024D000C093E900CF91089584B7877F84BF0FB67A
:1024E000F894A895809160008861809360001092B4
:1024F00060000FBE90E080E80FB6F8948093610012
:10250000909361000FBE0E94F10F089508951092FC
:10251000390360E084E00E942C0A61E081E10E94BE
:102520002C0A089580E091E00E94D90BE2EEF0E0E1
:10253000908194609083809339030895CF93DF93C3
:1025400080913F03813C09F049C08091400386306F
:10255000B9F420914103309142032115324409F02E
:1025600042C0C8EED0E08881877F888360E170E058
:102570008EE491E00E94100D88818B77888336C0AD
:10258000813061F580914103909142038115914022
:1025900079F4C8EED0E08881877F888364E170E0B9
:1025A0008AE391E00E94100D88818B7788831EC09A
:1025B00080914103909142038115924079F4C8EED5
:1025C000D0E08881877F888366E070E084E391E0D3
:1025D0000E94100D88818B77888308C080E091E08D
:1025E0000E94860A03C08130C9F7E2CFDF91CF9104
:1025F000089580910E0190910F01009729F00197A5
:1026000090930F0180930E0108950F931F93F9018A
:10261000108284E18183A9E4B3E012968C91129731
:102620008283138214968C911497848315968C91CF
:102630001597858316968C911697868317968C919D
:102640001797878318968C911897808719968C9185
:10265000199781871A968C911A9782871B968C916D
:102660001B9783871C968D919C911D9795878487D6
:102670001E968D919C911F979787868750968D9176
:102680009C915197918B808B52968D919C915397F1
:10269000938B828B84E190E0F8019183808380E0CA
:1026A0001F910F9108950F931F930630110561F448
:1026B000D90113968C911397E9E4F3E0848B159676
:1026C0008C91858B81E0868B80915D038F3F19F41F
:1026D0008EEF80935D0380915E038F3F19F48EEF40
:1026E00080935E031F910F910895CF93DF931F9204
:1026F000CDB7DEB7292F30E02230310559F0233035
:10270000310569F02130310581F482E190E029E959
:1027100033E00FC080E290E029E733E00AC080E0B8
:1027200090E09E012F5F3F4F04C080E090E020E0EA
:1027300030E0FA01318320830F90DF91CF9108952B
:10274000A1E21A2EAA1BBB1BFD010DC0AA1FBB1FB5
:10275000EE1FFF1FA217B307E407F50720F0A21B27
:10276000B30BE40BF50B661F771F881F991F1A9494
:1027700069F760957095809590959B01AC01BD01BE
:10278000CF010895EE0FFF1F0590F491E02D0994FD
:10279000FB01DC0104C08D910190801921F44150AE
:1027A0005040C8F7881B990B0895FB01DC0102C05B
:1027B00001900D9241505040D8F70895DC0101C0BE
:0E27C0006D9341505040E0F70895F894FFCF1C
:1027CE00008114000001C503140000000000000089
:1027DE0000000000A303E40443037F0315032F034B
:1027EE002103000000006D083D0856049E08DA071C
:1027FE00E207F6070006FFFFFFFF0014FF00FFFFD2
:10280E00FFFFFFFFFFFFFFFFFFFFFFFFFFFF104276
:0E281E00000101021406FFFFFFFFFFFFFFFF96
:00000001FF
