:100000000C94DA000C9402010C9402010C9402018D
:100010000C9402010C9402010C9402010C94020154
:100020000C9402010C9402010C94410D0C940201F9
:100030000C9402010C9402010C9402010C94020134
:100040000C9402010C9402010C9402010C94020124
:100050000C9402010C9402010C9402010C9497067A
:100060000C9402010C94C7020C94F9020C94020146
:100070000C9402010C9402010C9402010C940201F4
:100080000C9402010C9402010C9402010C940201E4
:100090000C9462040C9402010C9402010C94020171
:1000A0000C9402010C9402010C940201BB07BE07E0
:1000B000AD07B107B707DF07DF07DF07C207C607CE
:1000C000CA07D007D407DF07DA07370E5E0E560FD0
:1000D0005E0E560FAA0ECD0E560F240F330F0D0ACB
:1000E00054686973206973206120736C61766520A0
:1000F000646576696365000000000200090F000076
:10010000030401000C0000000000000000000000DB
:100110000000000000000408020110408040102090
:1001200040804080080204018040201002011080BD
:1001300010204040200404040404030405020202C9
:100140000204030202020206060606060604040270
:1001500002020404000000002300260029002C00F5
:100160002F0000000000250028002B002E00310089
:1001700000000000240027002A002D0030000902A2
:10018000200001010080FA0904000002584200002A
:100190000705810320000407050203200004120163
:1001A0001001000000205E0489022101000000010E
:1001B0001F03930611241FBECFEFDAE0DEBFCDBFD1
:1001C00011E0A0E0B1E0E8E0F2E202C005900D929B
:1001D000AE35B107D9F723E0AEE5B1E001C01D921D
:1001E000A638B207E1F710E0CAEDD0E004C02197CD
:1001F000FE010E94DF10C83DD107C9F70E941B0114
:100200000C9402110C9400000E946F0F80919701D2
:10021000811110C08091E4009091E50020910A01C5
:1002200030910B01821B930B049720F080E091E04A
:100230000C94C40908950E944D0761E089E00E9472
:10024000E00761E081E10E94E00762E083E10E9453
:10025000E00762E084E10E94E00760E089E00E943C
:100260001C0861E081E10E941C080E948A0F7894BA
:1002700083E10E944B08EC0184E10E944B08CC0F03
:10028000DD1F6C2F682B6093F4018CE5E8E9F1E049
:10029000DF011D928A95E9F784E093E00E947206DF
:1002A00040E85AE166E070E084E093E00E94850651
:1002B0006CEA71E084E093E00E948E066CEB71E0E2
:1002C00084E093E00E9489066EED70E085EF91E096
:1002D0000E947703D2E011E0C091E900CF709091C5
:1002E000EC00892F817090FD80E8C82BD093E90045
:1002F0008091E80082FF1DC040E050E066E070E0C1
:100300008EE591E00E94CF0A8091E8008B77809380
:10031000E80080915F01863051F480916101809303
:10032000AC01809163018093AD011093AE011092F6
:100330005F01CF70C093E90080916401803F49F074
:1003400084E1E4E6F1E0A8E9B1E001900D928A953C
:10035000E1F70E940401C0CF41E050E06CEA71E097
:1003600084E093E00E94F00541E050E06DEA71E026
:1003700084E093E00C94F0050F931F93CF93DF93E9
:100380008C01C4E6D1E0CE018456914080179107DC
:1003900034F484E093E00E9497058993F4CF809130
:1003A0006401803F31F48091E00081608093E0003F
:1003B0000CC08A3A61F460E081E10E941C086AEF97
:1003C00070E080E090E00E94060761E00AC0809142
:1003D000E0008E7F8093E00080919601882341F0B9
:1003E00060E081E1DF91CF911F910F910C941C0887
:1003F000DF91CF911F910F910895FC01918D228D76
:10040000892F90E0805C9F4F821B91098F73992701
:100410000895FC01918D828D981731F0828DE80F3F
:10042000F11D858D90E008958FEF9FEF0895FC01F9
:10043000918D828D981761F0828DDF01A80FB11D1B
:100440005D968C91928D9F5F9F73928F90E008953F
:100450008FEF9FEF0895FC01538D448D252F30E0E1
:10046000842F90E0821B930B541710F0CF960895C1
:1004700001970895FC01848DDF01A80FB11DA35AD7
:10048000BF4F2C91848D90E001968F739927848FB4
:10049000A689B7892C93A089B1898C9180648C93AB
:1004A000938D848D981306C00288F389E02D808196
:1004B0008F7D80830895EF92FF920F931F93CF93C8
:1004C000DF93EC0181E0888F9B8D8C8D981305C0A4
:1004D000E889F989808185FD24C0F62E0B8D10E016
:1004E0000F5F1F4F0F731127E02E8C8DE8120CC089
:1004F0000FB607FCFACFE889F989808185FFF5CF2F
:10050000CE010E943A02F1CF8B8DFE01E80FF11D62
:10051000E35AFF4FF0820B8FEA89FB89808180626A
:1005200007C0EE89FF896083E889F989808180644A
:10053000808381E090E0DF91CF911F910F91FF9038
:10054000EF900895CF93DF93EC01888D8823C9F055
:10055000EA89FB89808185FD05C0A889B9898C91CC
:1005600086FD0FC00FB607FCF5CF808185FFF2CF67
:10057000A889B9898C9185FFEDCFCE010E943A02FE
:10058000E7CFDF91CF91089580E090E008951F922A
:100590000F920FB60F9211242F938F939F93EF9387
:1005A000FF93E0910502F09106028081E0910B0239
:1005B000F0910C0282FD12C0908180910E028F5F3B
:1005C0008F7320910F02821751F0E0910E02F0E03C
:1005D000EB50FE4F958F80930E0201C08081FF91FA
:1005E000EF919F918F912F910F900FBE0F901F90C1
:1005F00018951F920F920FB60F9211242F933F93CD
:100600004F935F936F937F938F939F93AF93BF931A
:10061000EF93FF9385EF91E00E943A02FF91EF91F3
:10062000BF91AF919F918F917F916F915F914F910A
:100630003F912F910F900FBE0F901F901895E5EFEF
:10064000F1E01382128288EE93E0A0E0B0E08483B0
:100650009583A683B78384E191E0918380838DECB9
:1006600090E0958784878CEC90E09787868788EC6C
:1006700090E0918B808B89EC90E0938B828B8AEC5D
:1006800090E0958B848B8EEC90E0978B868B118E0F
:10069000128E138E148E08950895CF92DF92EF92EA
:1006A000FF920F931F93CF93DF936C017A018B011D
:1006B000C0E0D0E0CE15DF0581F0D8016D918D014D
:1006C000D601ED91FC910190F081E02DC6010995D4
:1006D000892B11F02196EECF7E01C701DF91CF91DA
:1006E0001F910F91FF90EF90DF90CF900895EF92C0
:1006F000FF920F931F93CF93DF938C017B01C0E098
:10070000D0E0F701EC0FFD1F6491662361F0D80182
:10071000ED91FC910190F081E02DC8010995892BA4
:1007200011F02196EECFCE01DF91CF911F910F9165
:10073000FF90EF900895CF93DF93CCEBD0E0188239
:100740001092030381E0809301031092000361E0A3
:1007500082E00E941C0861E083E00E941C08E9EB33
:10076000F0E080818E7F808380818D7F808388E42C
:100770008093B80085E48883DF91CF91089581301C
:1007800049F41092920210929302109294021092E5
:10079000950217C08091920290919302A0919402C9
:1007A000B09195020196A11DB11D80939202909384
:1007B0009302A0939402B093950284E690E00E9485
:1007C00042078091920290919302A0919402B0917D
:1007D000950280359105A105B10580F01092920235
:1007E0001092930210929402109295020E949B0321
:1007F00061E081E10E941C0881E0089580E0089595
:10080000880F8093BA0008959B01AC0160E074E208
:1008100084EF90E00E94BD10DA01C9014097A10960
:10082000B109B695A795979587958093B8000895D7
:100830004091B802262F30E0240F311D21323105BE
:10084000DCF4209103032430C9F4FC0180E090E043
:10085000861758F43091B8022191DC01A654BD4F9F
:10086000A30FB11D2C930196F3CF8091B802680FAE
:100870006093B80280E0089581E0089582E00895D1
:100880009093FD028093FC0208959093FF02809361
:10089000FE02089585ED8093BC0081E00E94BF03B5
:1008A0008091BC0084FF05C080E00E94BF038823C4
:1008B000B9F310920303089585EC8093BC00109265
:1008C000030308951F920F920FB60F9211242F93D6
:1008D0003F934F935F936F937F938F939F93AF93C8
:1008E000BF93EF93FF938091B900887F803609F41E
:1008F0009EC078F5883209F45DC090F4803109F427
:1009000056C038F4882309F4F5C0883009F44FC084
:10091000F5C0883109F44EC0803209F45FC0EEC0E2
:10092000803409F46AC058F4803309F457C088331E
:1009300009F0E4C0809396020E945C04DFC0803519
:1009400009F44FC0883509F45DC0883409F0D6C079
:10095000D3C0883909F4C4C0A8F4883709F467C043
:1009600038F4883609F463C0803709F460C0C6C023
:10097000883809F4B5C0803909F45FC0803809F0BF
:10098000BDC05BC0803B09F483C038F4803A09F4F1
:1009900066C0883A09F47CC0B1C0803C09F4A4C0A8
:1009A000883C09F4A1C0883B09F487C0A7C08091A6
:1009B000020310C09091DB028091DA02981770F563
:1009C000E091DB0281E08E0F8093DB02F0E0E452E5
:1009D000FD4F80818093BB0085EC83C0809396029D
:1009E0008BC0E091DB0281E08E0F8093DB0280916F
:1009F000BB00F0E0E452FD4F80839091DB028091D8
:100A0000DA026BC0E091DB0281E08E0F8093DB02A3
:100A10008091BB00F0E0E452FD4F808380910103A0
:100A200081116AC081E08093000384EA5EC083E0A4
:100A30008093030310929702CFCF80919702803268
:100A400008F04EC0E091970281E08E0F80939702EC
:100A50008091BB00F0E0E856FD4F8083BDCF0E943F
:100A60005C0480919702803230F4E0919702F0E0CC
:100A7000E856FD4F10826091970270E0E091FC0211
:100A8000F091FD0288E992E009951092970236C034
:100A900084E0809303031092B9021092B802E091AF
:100AA000FE02F091FF0209958091B802811105C004
:100AB00081E08093B8021092BA02E091B90281E01D
:100AC0008E0F8093B902F0E0E654FD4F8081809351
:100AD000BB009091B9028091B802981708F47CCFBE
:100AE00085E88093BC000AC085EC8093BC0010921E
:100AF000030304C0109296020E944A04FF91EF91F2
:100B0000BF91AF919F918F917F916F915F914F9125
:100B10003F912F910F900FBE0F901F9018958091CD
:100B2000370390E020913803821B9109089590913A
:100B3000380380913703981750F4E92FF0E0E75C11
:100B4000FC4F208130E09F5F9093380302C02FEF6D
:100B50003FEFC9010895E091380380913703E8170A
:100B600030F4F0E0E75CFC4F808190E008958FEF77
:100B70009FEF0895CF93DF93EC01E0911003F09184
:100B800011033097F1F09091380380913703981753
:100B9000C0F090E0292F30E02617370754F4DE012B
:100BA000A20FB31F4C91D901A75CBC4F4C939F5F20
:100BB000F1CF1092380360933703CB01DF91CF91CF
:100BC0000994DF91CF910895E0911203F0911303FE
:100BD000309729F010921603109215030994089586
:100BE000CF92DF92EF92FF920F931F93CF93DF93F9
:100BF0007C01CB018A0120911403222389F0EB01AF
:100C00006B01C40ED51ECC15DD0569F06991D701C5
:100C1000ED91FC910190F081E02DC7010995F3CF92
:100C2000642F0E941804C801DF91CF911F910F918A
:100C3000FF90EF90DF90CF900895CF93DF931F92B6
:100C4000CDB7DEB76983209114032223D1F0209120
:100C50001503203240F021E030E0FC013383228391
:100C600080E090E015C080911603E82FF0E0E95E87
:100C7000FC4F998190838F5F8093160380931503B7
:100C800005C061E0CE0101960E94180481E090E069
:100C90000F90DF91CF91089510923803109237038F
:100CA00080E2E9E3F3E0DF011D928A95E9F7089518
:100CB000FC011382128288EE93E0A0E0B0E084830E
:100CC0009583A683B78386E291E09183808308951C
:100CD00010923803109237031092160310921503E6
:100CE0000C949B03CF93DF93EC01862F0E940004AA
:100CF00084EE95E00E9445048AEB95E00E94400452
:100D0000CE01DF91CF910C946806CB01BA010C940F
:100D100004047093110360931003089570931303F8
:100D200060931203089584E093E00C9458061F9298
:100D30000F920FB60F9211242F933F938F939F938F
:100D4000AF93BF9380915A0390915B03A0915C0392
:100D5000B0915D033091590323E0230F2D3720F428
:100D60000196A11DB11D05C026E8230F0296A11D05
:100D7000B11D2093590380935A0390935B03A09372
:100D80005C03B0935D0380915E0390915F03A0913B
:100D90006003B09161030196A11DB11D80935E03B4
:100DA00090935F03A0936003B0936103BF91AF91F1
:100DB0009F918F913F912F910F900FBE0F901F9099
:100DC00018953FB7F89480915E0390915F03A091CE
:100DD0006003B091610326B5A89B05C02F3F19F0B1
:100DE0000196A11DB11D3FBFBA2FA92F982F8827AB
:100DF000820F911DA11DB11DBC01CD0142E0660F06
:100E0000771F881F991F4A95D1F708958F929F9257
:100E1000AF92BF92CF92DF92EF92FF926B017C0173
:100E20000E94E1064B015C01C114D104E104F1040C
:100E300001F10E944C030E94E106DC01CB018819FC
:100E40009909AA09BB09883E9340A105B10560F341
:100E500021E0C21AD108E108F10888EE880E83E08B
:100E6000981EA11CB11CC114D104E104F10419F7AE
:100E7000DBCFFF90EF90DF90CF90BF90AF909F902F
:100E80008F9008958230910538F0880F991F880F50
:100E9000991F05970197F1F70895789484B58260BA
:100EA00084BD84B5816084BD85B5826085BD85B50E
:100EB000816085BDEEE6F0E0808181608083E1E8BD
:100EC000F0E01082808182608083808181608083F5
:100ED000E0E8F0E0808181608083E1E9F0E08081FA
:100EE00082608083808181608083E0E9F0E080819E
:100EF00081608083E1ECF0E0808184608083808188
:100F000082608083808181608083E3ECF0E0808177
:100F100081608083E0ECF0E0808182608083E2EC9D
:100F2000F0E0808181608083EAE7F0E08081846086
:100F300080838081826080838081816080838081E2
:100F400080688083089590E0FC013197EF30F105CF
:100F5000B0F5EA5AFF4F0C94DF10809180008F7734
:100F600003C0809180008F7D8093800008958091E0
:100F70008000877FF9CF84B58F7702C084B58F7DDD
:100F800084BD0895809190008F7707C08091900074
:100F90008F7D03C080919000877F8093900008959B
:100FA0008091C0008F7703C08091C0008F7D8093B7
:100FB000C00008958091C200877F8093C200089589
:100FC000CF93DF9390E0FC01EA5EFE4F2491FC0199
:100FD000EB5CFE4F8491882361F190E0880F991FAC
:100FE000FC01E059FE4FC591D491FC01EE59FE4F32
:100FF000A591B491611109C09FB7F894888120959B
:1010000082238883EC912E230BC0623061F49FB75A
:10101000F8948881322F309583238883EC912E2B8E
:101020002C939FBF06C08FB7F894E8812E2B28839E
:101030008FBFDF91CF9108951F93CF93DF93282F18
:1010400030E0F901E950FF4F8491F901EA5EFE4F6B
:10105000D491F901EB5CFE4FC491CC23C1F0162F63
:1010600081110E94A307EC2FF0E0EE0FFF1FEE5955
:10107000FE4FA591B4919FB7F894111104C08C91C3
:10108000D095D82302C0EC91DE2BDC939FBFDF917B
:10109000CF911F910895CF93DF93282F30E0F9016E
:1010A000E950FF4F8491F901EA5EFE4FD491F901B6
:1010B000EB5CFE4FC491CC2391F081110E94A307F9
:1010C000EC2FF0E0EE0FFF1FEC5AFE4FA591B4910C
:1010D000EC91ED2381E090E021F480E002C080E01B
:1010E00090E0DF91CF9108956F927F928F929F92BF
:1010F000AF92BF92CF92DF92EF92FF920F931F9326
:10110000CF93DF9300D01F92CDB7DEB77C01ADB691
:10111000BEB68091E80083FF0CC1F701808190E0AA
:1011200020916B0330916C032817390709F001C136
:1011300080916803833009F4A0C030F4813071F0ED
:10114000823009F4D9C0F5C08A3009F4BCC08B30B4
:1011500009F4A4C0893009F0ECC050C08091670345
:10116000813A09F0E6C08DB69EB61A821982809146
:10117000690310916A038B83F7018085482F50E043
:101180008DB79EB7841B950B0FB6F8949EBF0FBE0C
:101190008DBFEDB7FEB731966F0160E070E0CF0113
:1011A0000E94FB104FEF410F8E010F5F1F4F960102
:1011B000BE016D5F7F4FC7010E942C10F701868131
:1011C0009781009729F0408550E0B6010E94F21007
:1011D0001092E9008091E800877F8093E8008B817E
:1011E00081118093F10069817A81C6010E941C0BF4
:1011F0008091E8008B778093E80039C08091670385
:10120000813209F096C08DB69EB600916D031091A3
:101210006E037090690360906A038DB79EB7801B60
:10122000910B0FB6F8949EBF0FBE8DBFEDB7FEB702
:1012300031966F018091E800877F8093E800B801C4
:10124000CF010E947A0B8091E8008E778093E800AE
:1012500021E0711001C020E030E0021B130B2C0DC7
:101260003D1D4FEF460D672DC7010E9473100FB64D
:10127000F8949EBE0FBE8DBE5CC080916703813A1C
:1012800009F057C08091E800877F8093E800809143
:10129000E80080FFFCCFF701818542C080916703A1
:1012A000813209F046C08091E800877F8093E80092
:1012B0000E948E0C9091690381E0911101C080E041
:1012C000F701818736C080916703813291F5809163
:1012D000E800877F8093E8000E948E0C809169036C
:1012E00090916A03882736E0969587953A95E1F7BD
:1012F000F701958784871DC080916703813AC9F4FF
:101300008091E800877F8093E8008091E80080FF6B
:10131000FCCFF70184859585969587959695879559
:101320008093F1008091E8008E778093E8000E941E
:101330008E0C0FB6F894BEBE0FBEADBE0F900F90D0
:101340000F90DF91CF911F910F91FF90EF90DF9061
:10135000CF90BF90AF909F908F907F906F900895A7
:10136000FC01399627E0DF011D922A95E9F721E07B
:10137000FC01218728E833E13587248723E0248393
:1013800061E001960C94500C5F926F927F928F9265
:101390009F92AF92BF92CF92DF92EF92FF920F9304
:1013A0001F93CF93DF9300D01F92CDB7DEB77C01A0
:1013B000ADB6BEB680916603843009F08BC08091D3
:1013C000E4009091E500F70122853385281739075D
:1013D00009F480C081818F708093E9008091E800DA
:1013E00085FF78C08DB69EB6408550E08DB79EB71C
:1013F000841B950B0FB6F8949EBF0FBE8DBFEDB743
:10140000FEB731966F011B821A82198260E070E08C
:10141000CF010E94FB108E010F5F1F4F960140E02D
:10142000BE016D5F7F4FC7010E942C10582EF7013F
:1014300084859585892B29F011E086859785892BF0
:1014400009F010E0F701668077806114710491F073
:1014500049815A81B301C6010E94E51001E0892B40
:1014600009F400E0F701408550E0B601C3010E9495
:10147000F21001C000E089819A81892BF9F05110A6
:1014800004C0011102C010FF19C0F70184859585C1
:101490009787868781818F708093E9008B81811186
:1014A0008093F10069817A8140E050E0C6010E949A
:1014B000820A8091E8008E778093E8008091E400B2
:1014C0009091E500F701938782870FB6F8949EBE4E
:1014D0000FBE8DBE0FB6F894BEBE0FBEADBE0F9050
:1014E0000F900F90DF91CF911F910F91FF90EF9090
:1014F000DF90CF90BF90AF909F908F907F906F9034
:101500005F900895CF92DF92EF92FF920F931F9317
:10151000CF93DF93EC018B017A010E94AD0C811116
:1015200035C0E114F10439F0F70180819181081B85
:10153000190BC80FD91FC12CD12C0115110529F188
:101540008091E80085FD18C08091E8008E77809337
:10155000E8000E946F0FE114F10449F0F701808167
:101560009181C80ED91ED182C08285E00FC00E9431
:10157000AD0C882311F30AC089918093F1000150CA
:101580001109FFEFCF1ADF0AD8CF80E0DF91CF91AA
:101590001F910F91FF90EF90DF90CF900895CF9221
:1015A000DF92EF92FF920F931F93CF93DF93EC01A3
:1015B0008B017A010E94AD0C811135C0E114F10458
:1015C00039F0F70180819181081B190BC80FD91FD1
:1015D000C12CD12C0115110529F18091E80085FD60
:1015E00018C08091E8008B778093E8000E946F0F0D
:1015F000E114F10449F0F70180819181C80ED91EF0
:10160000D182C08285E00FC00E94AD0C882311F307
:101610000AC08091F100899301501109FFEFCF1AA0
:10162000DF0AD8CF80E0DF91CF911F910F91FF901B
:10163000EF90DF90CF90089520916D0330916E036D
:101640002617370748F06115710539F42091E80035
:101650002E772093E80001C0B901FC0120E061155C
:10166000710579F1809166038823F1F18530F1F1FC
:101670008091E80083FD3CC08091E80082FD2EC08F
:101680008091E80080FFEBCF2091F3008091F20081
:1016900090E0922B6115710551F08032910538F47C
:1016A00021912093F100615071090196F3CF21E05F
:1016B000809709F020E08091E8008E778093E80021
:1016C000CECF2111CFCF0AC080916603882361F06D
:1016D000853061F08091E80083FD0AC08091E800C8
:1016E00082FFF2CF80E0089582E0089583E00895BC
:1016F00081E008956115710529F42091E8002B77A8
:101700002093E800FC016115710541F180916603A9
:10171000882361F1853061F18091E80083FD24C068
:101720008091E80082FFEFCF2091F3008091F200DA
:1017300090E0922B892B31F08091F10081936150E0
:10174000710991F78091E8008B778093E800DBCFF7
:1017500080916603882351F0853051F08091E80034
:1017600080FFF6CF80E0089581E0089582E008953B
:1017700083E0089520916D0330916E03261737079B
:1017800048F06115710539F42091E8002E77209317
:10179000E80001C0B901FC0120E06115710591F17B
:1017A00080916603882309F440C0853009F43FC066
:1017B0008091E80083FD3DC08091E80082FD2FC04C
:1017C0008091E80080FFE9CF2091F3008091F20042
:1017D00090E0922B6115710559F08032910540F42B
:1017E00024912093F1003196615071090196F2CF56
:1017F00021E0809709F020E08091E8008E778093C7
:10180000E800CBCF2111CCCF0AC08091660388239A
:1018100061F0853061F08091E80083FD0AC080911D
:10182000E80082FFF2CF80E0089582E0089583E02F
:10183000089581E00895982F973068F59093E90016
:10184000981739F07091EC002091ED005091F00064
:1018500003C0242F762F50E021FD02C09F5FECCF04
:101860003091EB003E7F3093EB003091ED003D7FF7
:101870003093ED003091EB0031603093EB007093CA
:10188000EC002093ED005093F0002091EE0027FD36
:10189000E5CF80E008958F708093E90081E008959E
:1018A0000F931F93CF93DF93062FEC0110E01017D7
:1018B00079F16881611103C01F5F2596F8CF2C81F3
:1018C000A981BA819B81862F8F70873010F080E0CC
:1018D00020C0223010F442E001C046E0E8E0F0E031
:1018E00020E0EA17FB0720F42F5FEE0FFF1FF9CF70
:1018F0002295207F422B50E4959F90011124661F72
:101900006627661F622B0E941B0C8111D5CFDFCF8B
:1019100081E0DF91CF911F910F910895809167032E
:1019200087FF11C08091E80082FD05C080916603A9
:101930008111F8CF11C08091E8008B770BC08091A6
:101940006603882349F08091E80080FFF8CF8091FA
:10195000E8008E778093E80008952091E4003091AC
:10196000E50095E64091EC00842F817040FF23C094
:101970008091E80080FD1DC080916603882399F066
:10198000853099F08091EB0085FD11C04091E40015
:101990005091E5002417350729F3915011F09A0171
:1019A000E1CF84E0089582E0089583E0089581E026
:1019B000089580E008954091E80042FFDDCF08954A
:1019C0000F931F93CF93DF930E94340D0E943C0D21
:1019D000C8EDD0E088818F7788838881806888838C
:1019E00088818F7D888319BC1092660310926203F0
:1019F000109264031092630300EE10E0F8018081FE
:101A00008B7F808388818160888342E260E080E010
:101A10000E941B0CE1EEF0E080818E7F8083E2EE7D
:101A2000F0E0808181608083808188608083F8011C
:101A300080818E7F8083888180618883DF91CF91D0
:101A40001F910F910895E8EDF0E080818F7E8083F3
:101A5000E7EDF0E080818160808384E082BF81E0F7
:101A6000809365030C94E00CE8EDF0E080818E7FBC
:101A700080831092E20008951092DA001092E10043
:101A800008951F920F920FB60F9211242F933F9338
:101A90004F935F936F937F938F939F93AF93BF9376
:101AA000EF93FF938091E10082FF0BC08091E200F1
:101AB00082FF07C08091E1008B7F8093E1000E944C
:101AC0001C108091DA0080FF1FC08091D80080FF39
:101AD0001BC08091DA008E7F8093DA008091D9005C
:101AE00080FF0DC080E189BD82E189BD09B400FE9F
:101AF000FDCF81E0809366030E94A30F05C019BC4F
:101B0000109266030E94A40F8091E10080FF19C02B
:101B10008091E20080FF15C08091E2008E7F80936B
:101B2000E2008091E20080618093E2008091D80021
:101B300080628093D80019BC85E0809366030E9480
:101B40006E0F8091E10084FF30C08091E20084FF3D
:101B50002CC080E189BD82E189BD09B400FEFDCFC2
:101B60008091D8008F7D8093D8008091E1008F7E96
:101B70008093E1008091E2008F7E8093E20080916B
:101B8000E20081608093E20080916203882311F07B
:101B900084E007C08091E30087FD02C081E001C0BE
:101BA00083E0809366030E946E0F8091E10083FFC3
:101BB00024C08091E20083FF20C08091E100877FF4
:101BC0008093E10082E0809366031092620380912B
:101BD000E1008E7F8093E1008091E2008E7F809310
:101BE000E2008091E20080618093E20042E260E0E6
:101BF00080E00E941B0C0E946E0FFF91EF91BF913D
:101C0000AF919F918F917F916F915F914F913F9194
:101C10002F910F900FBE0F901F9018951F93CF9389
:101C2000DF93CDB7DEB7AA970FB6F894DEBF0FBE2D
:101C3000CDBFE7E6F3E08091F100819323E0EF363A
:101C4000F207C9F70E94C50F8091E80083FF2EC1FB
:101C50008091670390916803492F50E04A30510505
:101C600008F024C1FA01EB59FF4F0C94DF108038C3
:101C700021F0823809F01AC108C080916303909165
:101C80006403992389F082600FC080916B038F7089
:101C9000873008F00BC18093E9008091EB0085FB51
:101CA000882780F91092E9009091E800977F90933F
:101CB000E8008093F1001092F100D1C0282F2D7F11
:101CC00009F0F4C0882319F0823061F0EFC08091F0
:101CD0006903813009F0EAC0933009F080E0809315
:101CE00064032EC08091690381112AC080916B0327
:101CF0008F702FEF280F263008F0D8C08093E900AE
:101D00002091EB0020FF1CC0933021F48091EB0068
:101D1000806214C09091EB0090619093EB0021E001
:101D200030E0A90102C0440F551F8A95E2F74093A5
:101D3000EA001092EA008091EB0088608093EB004B
:101D40001092E9008091E800877F8093E8000E946C
:101D50008E0CACC08111AAC0109169031F778091CD
:101D6000E3008078812B8093E3008091E800877FF7
:101D70008093E8000E948E0C8091E80080FFFCCFE9
:101D80008091E30080688093E300111102C082E03B
:101D900001C083E08093660389C08058823008F0D8
:101DA00085C08091690390916A038C3D53E095074B
:101DB00079F583E08A838AE289834FB7F894DE015C
:101DC000139620E03EE051E2E32FF0E050935700FD
:101DD000E49120FF03C0E295EF703F5FEF708E2F1C
:101DE00090E0EA3010F0C79601C0C0968D939D93A5
:101DF0002F5F243149F74FBF8091E800877F8093A0
:101E0000E8006AE270E0CE0101960E941C0B16C049
:101E100060916B0370916C03AE014F5F5F4F0E9446
:101E20008910BC01892B09F441C09091E800977F8B
:101E30009093E80089819A810E94BA0B8091E80012
:101E40008B778093E80032C0803881F58091E8007C
:101E5000877F8093E800809162038093F1008091F6
:101E6000E8008E7772CF811121C080916903909133
:101E70006A0399270297D4F48091E800877F8093C2
:101E8000E80080916903809362030E948E0C809128
:101E90006203811106C08091E30087FD02C081E0EA
:101EA00001C084E0809366030E94AA0F8091E8003D
:101EB00083FF0AC08091E800877F8093E8008091CB
:101EC000EB0080628093EB00AA960FB6F894DEBF19
:101ED0000FBECDBFDF91CF911F9108950895CF938D
:101EE000809166038823A1F0C091E900CF709091A2
:101EF000EC00892F817090FD80E8C82B1092E900DA
:101F00008091E80083FD0E940E0ECF70C093E9001F
:101F1000CF91089584B7877F84BF0FB6F894A895B2
:101F200080916000886180936000109260000FBE15
:101F300090E080E80FB6F894809361009093610080
:101F40000FBE0C94230D08951092960161E081E17B
:101F50000C941C08CF938091970181110CC080E0F4
:101F600091E00E94B009C82F42E060EC82E00E943C
:101F70001B0C8C2301C081E09091E200946090934F
:101F8000E20080939601CF91089580916703813C90
:101F900009F049C0809168038630A9F480916903F3
:101FA00090916A0381159244F1F58091E800877F52
:101FB0008093E8008091970181112FC060E170E06B
:101FC0008EE491E028C0813071F580916903909191
:101FD0006A03811521E0920771F48091E800877F00
:101FE0008093E80080919701811117C064E170E04F
:101FF0008AE391E010C081159240A9F48091E80035
:10200000877F8093E80080919701811106C066E088
:1020100070E084E391E00E941C0B8091E8008B77D4
:102020008093E800089580919701811104C080E0B9
:1020300091E00C94740808958091970181110BC070
:1020400080910E0190910F01009729F001979093D4
:102050000F0180930E0108950F931F93F901809152
:10206000970181113CC0108284E1818380919A01A3
:102070008283138280919C01848380919D0185835A
:1020800080919E01868380919F0187838091A0012A
:1020900080878091A10181878091A20182878091B0
:1020A000A30183878091A4019091A50195878487DE
:1020B0008091A6019091A701978786878091A801BA
:1020C0009091A901918B808B8091AA019091AB0195
:1020D000938B828B84E190E0F8019183808380E090
:1020E0001F910F9108950F931F9380919701811174
:1020F0000DC00630110551F4F90183818093AC01C4
:1021000085818093AD0181E08093AE011F910F9195
:102110000895CF93DF931F92CDB7DEB7292F30E01C
:1021200022303105B1F02330310521F02130310565
:10213000C9F406C080E090E09E012F5F3F4F16C0BB
:102140008091970181110EC082E190E02EE931E08B
:102150000DC080919701811105C080E290E02EE7CB
:1021600031E004C080E090E020E030E0FA0131830B
:1021700020830F90DF91CF910895A1E21A2EAA1B20
:10218000BB1BFD010DC0AA1FBB1FEE1FFF1FA21727
:10219000B307E407F50720F0A21BB30BE40BF50B24
:1021A000661F771F881F991F1A9469F760957095AD
:1021B000809590959B01AC01BD01CF010895EE0F74
:1021C000FF1F0590F491E02D0994FB01DC0104C090
:1021D0008D910190801921F441505040C8F7881B1F
:1021E000990B0895FB01DC0102C001900D92415052
:1021F0005040D8F70895DC0101C06D934150504024
:08220000E0F70895F894FFCF08
:102208000081140000016F031700000000000000A7
:10221800000000005B024D032B02A202FD01170221
:102228000902000000001D06F005C4024C068F05D7
:102238009705AB050006FFFFFFFF0014FF00FFFF37
:10224800FFFFFFFFFFFFFFFFFFFFFFFFFFFF104242
:0E225800000101021406FFFFFFFFFFFFFFFF62
:00000001FF
