:100000000C944E010C9476010C9476010C947601BC
:100010000C9476010C9476010C9476010C94760184
:100020000C9476010C9476010C94D12D0C947601ED
:100030000C9476010C9476010C9476010C94760164
:100040000C9476010C9476010C9476010C94760154
:100050000C9476010C9476010C9476010C94661441
:100060000C9476010C94DD0E0C940F0F0C94760119
:100070000C9476010C9476010C9476010C94760124
:100080000C9476010C9476010C9476010C94760114
:100090000C9400120C9476010C9476010C94760169
:1000A0000C9476010C9476010C94760196159915B2
:1000B00088158C159215BA15BA15BA159D15A11586
:1000C000A515AB15AF15BA15B515C72EEE2EE62F33
:1000D000EE2EE62F3A2F5D2FE62FB42FC32F084ABE
:1000E000D73B3BCE016E84BCBFFDC12F3D6C74314C
:1000F0009ABD56833DDA3D00C77F11BED9E4BB4CA3
:100100003E916BAAAABE000000803F000D0A546811
:1001100069732069732074686520686F7374206345
:100120006F6E74726F6C6C6572000D0A55534220CD
:10013000486F737420436F6E74726F6C6C657220BD
:10014000496E697469616C69736564000D0A4F5387
:100150004320646964206E6F74207374617274004C
:100160000D0A546869732064657669636520697354
:1001700020696E20706C6179657220736C6F7420D9
:10018000000000000200090F0000030401000C0041
:10019000000000000000000000000000000000005F
:1001A0000408020110408040102040804080080276
:1001B00004018040201002011080102040402004E3
:1001C00004040404030405020202020403020202FE
:1001D00002060606060606040402020204040000E3
:1001E00000002300260029002C002F000000000042
:1001F000250028002B002E00310000000000240004
:1002000027002A002D003000000100080002000431
:1002100000200010004000800000000001000200EB
:1002200020001000400080000400080000020304C9
:1002300005010902200001010080FA090400000202
:10024000584200000705820320000407050103202F
:10025000000412011001000000207B0A00D0000100
:10026000000000010902200001010080FA090400D9
:100270000002584200000705810320000407050220
:100280000320000412011001000000205E04890216
:100290002101000000013403350F621411241FBE38
:1002A000CFEFDAE0DEBFCDBF12E0A0E0B1E0ECECD2
:1002B000FAE602C005900D92A430B107D9F726E006
:1002C000A4E0B2E001C01D92A232B207E1F711E052
:1002D000CEE4D1E004C02197FE010E943A35CB3430
:1002E000D107C9F70E9444030C9464350C940000B4
:1002F0000E94FF2F80911604882319F0813081F02D
:1003000008958091E4009091E50020911C013091C6
:100310001D01821B930B049798F082E191E00EC0BF
:100320008091E4009091E50020910C0130910D0145
:10033000821B930B049720F082E091E00C94542AE6
:1003400008952F923F924F925F926F927F928F9279
:100350009F92AF92BF92CF92DF92EF92FF920F9354
:100360001F93CF93DF93CDB7DEB72E970FB6F894D8
:10037000DEBF0FBECDBF1C017A8769872D833E8308
:100380004F83588727013801CA01B9010E944C34B4
:1003900069837A838B839C83A8019701C801B70185
:1003A0000E944C349B01AC0169817A818B819C81D4
:1003B0000E94E0310E94BF3469837A838B839C83DF
:1003C000A60195010E943F3418160CF056C0A601F4
:1003D000950169817A818B819C810E94DF316B87D5
:1003E0007C878D879E872BA13CA14DA15EA160E0FB
:1003F00070E080E89FE30E94DF31A60195010E9432
:10040000DF319B01AC016B857C858D859E850E94CB
:10041000BE324B015C0120E030E040E85FE30E9427
:100420003F34181634F4812C912C80E8A82E8FE3E9
:10043000B82E29813A814B815C81C501B4010E94AB
:10044000BE326B017C019B01AC016D817E818F818D
:1004500098850E944C34F101608371838283938379
:10046000A7019601C301B2010E944C34E985FA85C7
:1004700060837183828393830BC0F10110821182A8
:1004800012821382E985FA85108211821282138208
:100490002E960FB6F894DEBF0FBECDBFDF91CF9181
:1004A0001F910F91FF90EF90DF90CF90BF90AF9092
:1004B0009F908F907F906F905F904F903F902F9084
:1004C0000895462FE62FF0E0EB5BFD4F97899923C7
:1004D00029F0682F85E492E00C94442580E008958B
:1004E000462FE62FF0E0EB5BFD4F9789992329F02B
:1004F000682F85E492E00C94192680E090E008953E
:10050000242FE42FF0E0EB5BFD4F9789992331F026
:10051000462F682F85E492E00C94DF260895462F3D
:10052000E62FF0E0EB5BFD4F9789992329F0682FC8
:1005300085E492E00C94762608952E9A08952E98DC
:100540008EBD0DB407FEFDCF1EBC0DB407FEFDCF62
:100550000E949D028EB508952E9882608EBD0DB4C6
:1005600007FEFDCF6EBD0DB407FEFDCF0C949D02BE
:1005700088EF0E949F02807C8034A1F018F48823C9
:1005800001F10895803819F0803CB9F0089588EDA4
:100590000E949F0281FD0BC069EC88ED0E94AC02B5
:1005A00082E00CC088ED0E949F0281FDF5CF6BECCC
:1005B00088ED0E94AC0283E001C081E08093440298
:1005C000089561ED88ED0E94AC02109244020895F6
:1005D0000F931F93CF93DF938C01269A0E949D0265
:1005E000219A229A2398209A80E58CBD1DBC2598DB
:1005F00068E188E80E94AC0260E288E70E94AC02F1
:1006000060E088E70E94AC02C0E0D0E088E60E948B
:100610009F02219680FD06C0CF3F8FEFD807B1F72C
:100620008FEF1DC061EC88ED0E94AC0260E680EDAA
:100630000E94AC0264E088EE0E94AC0288EE0E9448
:100640009F0282FFFBCFC8010E94B80260E288ECE3
:100650000E94AC0261E080E80E94AC0280E0DF9181
:10066000CF911F910F91089586E693E00E942A177B
:1006700066E673E085E593E00E94F02166E673E0AC
:1006800085E492E00C94E224CF93DF93CDB7DEB7FC
:100690006E970FB6F894DEBF0FBECDBF0E9428152F
:1006A00061E089E00E94BB1561E081E10E94BB1519
:1006B00061E087E00E94BB1562E083E10E94BB1508
:1006C00062E084E10E94BB1560E089E00E94F715BA
:1006D00061E081E10E94F7150E941A30789426E0CB
:1006E00040E251EA67E070E084E794E00E94750E12
:1006F00083E10E9426167C0184E10E942616EE0CFE
:10070000FF1C8E298093730460E671E084E794E017
:100710000E94A20F6091730470E06F5F7F4F4AE008
:1007200050E084E794E00E945E108CE5E7E1F4E09D
:10073000DF011D928A95E9F764E670E080E090E0C1
:100740000E94E11460E089E00E94F71564E170E026
:1007500080E090E00E94E11461E089E00E94F715DA
:1007600064E170E080E090E00E94E11486E693E0AE
:100770000E94E8028F3FB9F46CE471E084E794E0F2
:100780000E94A20F81E10E94261661E0892B09F0E8
:1007900060E081E10E94F71564EF71E080E090E095
:1007A0000E94E114EFCF6AE271E084E794E00E94D6
:1007B000A20F83E895E00E94D01340E85AE166E07A
:1007C00070E083E895E00E94DA136CE071E084E762
:1007D00094E00E94A20FA7E5B2E0E5E4F2E08FEF1B
:1007E00091E082838383848385839D93349622E082
:1007F000E535F207B1F786E693E00E94B80284E09F
:1008000092E09E8F8D8FA4E3B2E0BC8FAB8FEDE0C2
:10081000F4E0FA8BE98B24E132E03A8F298F84E20D
:1008200092E09C8B8B8B25E4422E22E0522E37E106
:10083000832E34E0932E1201712C6624639486E695
:1008400093E00E94901ED10157968C91882309F461
:1008500075C680911604882319F0772009F4DBC04F
:10086000F4011282672D80E00E946102882339F032
:10087000D40112968C911297816012968C93672DF9
:1008800082E00E946102882321F0F401828182606B
:100890008283672D83E00E946102882339F0D401AE
:1008A00012968C911297846012968C93672D81E03A
:1008B0000E946102882321F0F40182818860828392
:1008C000672D85E00E946102882339F0D4011296D9
:1008D0008C911297806112968C93672D84E00E9410
:1008E0006102882321F0F401828180628283672D76
:1008F00086E00E946102882339F0D40112968C911F
:100900001297806412968C93672D87E00E94610293
:10091000882321F0F401828180688283672D8DE035
:100920000E946102882329F0EFEFD4011496EC9322
:1009300003C0D40114961C92672D8CE00E946102C2
:10094000882321F02FEFF401258303C0D4011596ED
:100950001C92672D8EE00E946102882321F02FEF08
:10096000F401268303C0D40116961C92672D8FE0F4
:100970000E946102882321F02FEFF401278303C036
:10098000D40117961C92672D8AE00E946102882389
:1009900021F02FEFF401218703C0D40119961C9296
:1009A000672D8BE00E946102882321F02FEFF40174
:1009B000208703C0D40118961C92672D88E00E94FE
:1009C0006102F4018287672D89E00E946102D401EF
:1009D0001B968C93672D80E00E947002F40195872E
:1009E0008487672D81E00E947002D4011F969C933A
:1009F0008E931E97672D82E00E947002F401918B06
:100A0000808B672D83E00E947002D40153969C93E3
:100A10008E93529722C4813009F01FC4F4011282D0
:100A20001092F6031092F5031092F8031092F70358
:100A30008091F9039091FA038C7F9093FA0380934D
:100A4000F90340E065E085E492E00E9444258823B4
:100A500049F08091F5039091F60380649093F6033A
:100A60008093F50340E06AE085E492E00E9444252B
:100A7000882349F08091F5039091F603826090936A
:100A8000F6038093F50340E066E085E492E00E947F
:100A90004425882349F08091F9039091FA038260FC
:100AA0009093FA038093F90340E067E085E492E0D5
:100AB0000E94442581119CC540E06CE085E492E0F1
:100AC0000E944425811194C540E06BE085E492E0EA
:100AD0000E944425811196C540E06DE085E492E0D6
:100AE0000E94442581118EC540E060E185E492E0DA
:100AF0000E944425811190C540E065E685E492E0BE
:100B00000E94C025811188C58091E603982F907FAF
:100B100031F0D40155969C93559756966C92982F28
:100B20009F70C9F0B0E18B9FC0011124F401848B48
:100B3000858B668A40E06EE085E492E00E94442561
:100B4000882349F08091F7039091F8038260909395
:100B5000F8038093F7038091EB03982F9F70F1F0D7
:100B6000F0E18F9FC0011124D40154968C935497C7
:100B700055968C93559756966C9240E06EE085E4BE
:100B800092E00E944425882349F08091F7039091D8
:100B9000F80398609093F8038093F7038091E5033E
:100BA000807F89F040E06EE085E492E00E94442579
:100BB000882349F08091F7039091F8038160909326
:100BC000F8038093F7038091DF03982F9F7041F023
:100BD000B0E18B9FC0011124F401848B858B668A60
:100BE00040E068E085E492E00E94C025811109C0E0
:100BF00040E064E085E492E00E944425882309F403
:100C00005AC540E067E185E492E00E94C025882350
:100C100049F08091F7039091F80390619093F80365
:100C20008093F70340E066E185E492E00E94C025EE
:100C3000882349F08091F7039091F8039062909394
:100C4000F8038093F70340E065E185E492E00E94B9
:100C5000C025882349F08091F7039091F8039064B0
:100C60009093F8038093F70340E064E185E492E019
:100C70000E94C025882349F08091F7039091F803E2
:100C800090689093F8038093F70340E063E185E474
:100C900092E00E94C025882349F08091F903909149
:100CA000FA0381609093FA038093F90340E062E0D5
:100CB00085E492E00E941926813596440CF0B1C576
:100CC00040E063E085E492E00E9419268135964475
:100CD0000CF0A7C540E062E085E492E00E9419268E
:100CE000803B994B0CF49DC540E063E085E492E0C5
:100CF0000E941926803B994B0CF493C540E067E2B3
:100D000085E492E00E94D825882351F08091F90370
:100D10009091FA03B8E08B279093FA038093F9033C
:100D200040E067E385E492E00E94D825882351F0F3
:100D30008091F9039091FA03E4E08E279093FA03EF
:100D40008093F90340E066E285E492E00E94D825B2
:100D5000882351F08091F9039091FA03F0E48F27F2
:100D60009093FA038093F90340E066E385E492E010
:100D70000E94D825882351F08091F9039091FA03BD
:100D800020E282279093FA038093F90340E066E41F
:100D900085E492E00E94D825882351F08091F903E0
:100DA0009091FA0330E183279093FA038093F9033B
:100DB00040E065E385E492E00E94C025882349F085
:100DC0008091F7039091F80381609093F8038093EA
:100DD000F70340E064E385E492E00E94C0258823A5
:100DE00049F08091F7039091F80382609093F803A3
:100DF0008093F70340E063E385E492E00E94C0251E
:100E0000882349F08091F7039091F80384609093D0
:100E1000F8038093F70340E065E485E492E00E94E4
:100E2000C025811171C540E061E585E492E00E9432
:100E3000C025811169C540E064E485E492E00E9428
:100E4000C02581116BC540E065E585E492E00E9414
:100E5000C025811163C540E063E485E492E00E940F
:100E6000C025811165C540E064E585E492E00E94FB
:100E7000C02581115DC540E061E285E492E00E94F9
:100E8000C025882349F08091F5039091F60380688E
:100E90009093F6038093F50340E061E385E492E0EC
:100EA0000E94C025882349F08091F5039091F603B4
:100EB00092609093F6038093F50340E061E485E44B
:100EC00092E00E94C025882349F08091F50390911B
:100ED000F60398609093F6038093F50340E066E78D
:100EE00085E492E00E94C025882349F08091F503B3
:100EF0009091F60391609093F6038093F50340E0A0
:100F000067E785E492E00E94C025882349F080913C
:100F1000F5039091F60394609093F6038093F503A4
:100F200040E062E585E492E00E94C025882349F014
:100F30008091F5039091F60390619093F60380936E
:100F4000F50340E064E685E492E00E94C025882332
:100F500051F08091F5039091F6038F7D806190931D
:100F6000F6038093F50340E062E685E492E00E9498
:100F7000C025882351F08091F5039091F6038F7E70
:100F800080629093F6038093F50340E063E685E486
:100F900092E00E94C025882349F08091F50390914A
:100FA000F60380649093F6038093F5031091E900B3
:100FB0001F709091EC00892F817090FD80E8182BB4
:100FC0006092E9008091E80082FF0DC040E050E0AF
:100FD00066E170E08DED93E00E945F2B8091E80068
:100FE0008B778093E8001F701093E90040E068E081
:100FF00085E492E00E944425109205048093060443
:1010000040E069E085E492E00E94442510920904E2
:1010100080930A0440E06FE085E492E00E9444255A
:10102000882309F403C380E09FEF90930804809322
:10103000070440E063E085E492E00E9444258823B1
:1010400009F4F9C2A1E0B0E8B0930004A093FF0353
:1010500040E060E085E492E00E941926909302044B
:101060008093010440E061E085E492E00E9419264B
:1010700080959095909304048093030440E068E089
:1010800085E492E00E94C025882309F4E8C240E08C
:1010900061E085E492E00E9419266C0140E060E086
:1010A00085E492E00E9419267C01B601DD0C880BD4
:1010B000990B0E94683320E030E040E058E30E9442
:1010C0004C346D8B7E8B8F8B988FB701FF0C880B08
:1010D000990B0E94683320E030E040E058E30E9422
:1010E0004C349B01AC011F921F921F921F928DECFA
:1010F000A82E8CECB82E8CE4C82E8EE3D82EED886A
:10110000FE880F89188DBE01675F7F4FCE010D9657
:101110000E94A10140E063E085E492E00E9419266C
:101120006C0140E062E085E492E00E9419267C01B7
:10113000B601DD0C880B990B0E94683320E030E08B
:1011400040E058E30E944C346D8B7E8B8F8B988FE0
:10115000B701FF0C880B990B0E94683320E030E048
:1011600040E058E30E944C349B01AC011F921F9257
:101170001F921F929DECA92E9CECB92E9CE4C92EC7
:101180009EE3D92EED88FE880F89188DBE016F5F12
:101190007F4FCE0105960E94A10120E030E040E0A3
:1011A00057E46D857E858F8598890E944C346D8BC0
:1011B0007E8B8F8B988F6D877E878F87988B20E0B3
:1011C00030E040E057E46D817E818F8198850E94F8
:1011D0004C346D837E838F83988720E030E040E03D
:1011E00057E469857A858B859C850E944C346B0118
:1011F0007C0169877A878B879C8720E030E040E01C
:1012000057E469817A818B819C810E944C34698387
:101210007A838B839C836D897E898F89988D0E94C8
:1012200030337093020460930104C701B6010E9439
:10123000303360957095709304046093030440E02C
:1012400068E085E492E00E94C0250FB6F894DEBF06
:101250000FBECDBF882309F40CC240E062E085E4F4
:1012600092E00E94C025882311F140E064E085E40B
:1012700092E00E94D8258823D1F08091E00081601F
:101280008093E0000E94B0146093110470931204E4
:10129000809313049093140480911604813009F410
:1012A0006BC33AE03093470281E08093480280911B
:1012B000110490911204A0911304B0911404892B8D
:1012C0008A2B8B2BB9F10E94B014C0901104D090DE
:1012D0001204E0901304F0901404DC01CB018C198B
:1012E0009D09AE09BF098B3F9105A105B10510F11C
:1012F00080911604813009F444C3A1E0A093160440
:1013000010922B0410922C04A0932D041092F6033B
:101310001092F5031092F8031092F7031092FA035B
:101320001092F903109211041092120410921304F7
:10133000109214040E94B014EB8DFC8DC080D180FB
:10134000E280F380DC01CB018C199D09AE09BF0955
:101350000997A105B10508F48AC0672D80E10E94B4
:1013600061028823D9F1EB89FC8980819181A28176
:10137000B381892B8A2B8B2B49F40E94B014AB8943
:10138000BC896D937D938D939C9313970E94B014A9
:10139000EB89FC89C080D180E280F380DC01CB0145
:1013A0008C199D09AE09BF09893E9340A105B1057D
:1013B00008F455C00E94B014AB89BC89CD90DD9073
:1013C000ED90FC90DC01CB018C199D09AE09BF09A1
:1013D0008C349440A105B10540F141C0672D85E0F2
:1013E0000E946102882309F4D7C2672D84E00E941D
:1013F0006102882309F4D0C2672D88E00E9461024F
:10140000882309F4C9C2672D89E00E9461028823FC
:1014100009F4C2C2E7E1F4E0148A158A668A779675
:10142000B4E0E337FB07C1F71AC0F4011282472D7D
:1014300060E080E00E9480026AE070E080E090E07E
:101440000E94E114D10157968C91882329F0672DD1
:1014500085E492E00E945126D10152966C920E943E
:10146000B014EB8DFC8D608371838283938377202E
:1014700009F461C0672D83E895E00E94DE1344E122
:1014800050E0B40183E895E00E94581361E083E8DE
:1014900095E00E94E8130E94B014AD8DBE8DCD90F2
:1014A000DD90ED90FC90DC01CB018C199D09AE091B
:1014B000BF090997A105B105F0F142E0672D83E866
:1014C00095E00E945F14823051F583E895E00E9418
:1014D00035138F3FBFEF9B0751F0F401248930E0B3
:1014E000AC0155272417350711F0848B668A83E8F1
:1014F00095E00E9435138F3FFFEF9F07A1F0D401C5
:1015000055962C91559730E0AC0155272417350797
:1015100051F055968C93559756966C9204C083E87B
:1015200095E00E94B4130E94B014ED8DFE8D60838F
:101530007183828393830E94780114C0772091F095
:10154000672D83E895E00E94DE1341E050E060E003
:1015500071E083E895E00E94581361E083E895E02C
:101560000E94E8137394FFEF2F1A3F0A2D8D3E8DD2
:101570002C5F3F4F3E8F2D8F37E1830E911C8B8D5B
:101580009C8D04969C8F8B8FA989BA891196BA8BF2
:10159000A98BE98DFA8D3496FA8FE98FF4E04F0E1E
:1015A000511C2B893C892C5F3F4F3C8B2B8B34E0AB
:1015B000731245C980915C02882369F080911104FF
:1015C00090911204A0911304B0911404892B8A2BDA
:1015D0008B2B09F4B2C261E081E10E94F715809182
:1015E000E00081608093E00081E08093570203C9AE
:1015F0008091F5039091F60384609093F6038093B5
:10160000F50362CA8091F5039091F603816090938F
:10161000F6038093F50368CA8091F5039091F60371
:1016200088609093F6038093F5036ECA10920804C5
:1016300010920704FECC40E061E085E492E00E9455
:101640004425882339F0EFEFFFE7F0930004E0939F
:10165000FF03FECC109200041092FF03F9CC40E08F
:1016600064E085E492E00E944425882309F46AC17D
:101670000ECD40E064E085E492E00E9444258111B3
:10168000ECCD6D817E818F8198850E9430337058BA
:101690007093FC036093FB0369817A818B819C8149
:1016A0000E9430338FEF9FE7861B970B9093FE03CA
:1016B0008093FD03D2CD40E067E185E492E00E9493
:1016C000C025882349F08091F7039091F803806446
:1016D0009093F8038093F70340E066E185E492E09D
:1016E0000E94C025882349F08091F7039091F80368
:1016F00088609093F8038093F70340E065E185E408
:1017000092E00E94C025882349F08091F5039091D2
:10171000F60390629093F6038093F50340E064E152
:1017200085E492E00E94C025882349F08091F70368
:101730009091F80380689093F8038093F70340E05A
:1017400063E185E492E00E94C025882349F08091FE
:10175000F7039091F80380619093F8038093F70367
:1017600040E062E185E492E00E94C025882349F0D0
:101770008091F5039091F60390649093F603809323
:10178000F50340E061E185E492E00E94C0258823F2
:1017900049F08091F7039091F80391609093F803DA
:1017A0008093F70340E067E685E492E00E94C0255D
:1017B000882349F08091F7039091F8038062909319
:1017C000F8038093F70340E066E685E492E00E9428
:1017D000C025882349F08091F5039091F603906825
:1017E0009093F6038093F50340E060E085E492E097
:1017F0000E948525882309F452C040E063E085E417
:1018000092E00E94442581114AC040E061E085E4F5
:1018100092E00E944425811142C0809101018F5FB6
:1018200070C040E062E085E492E00E9419266C01FD
:1018300040E063E085E492E00E9419267C01B60155
:10184000DD0C880B990B0E9468335B016C01B701BA
:10185000FF0C880B990B0E946833905820E030E011
:1018600040E85FE30E94DF31A60195010E945F32EC
:101870002BED3FE049E450E40E94E03120E030E00D
:1018800040E751E40E944C342BED3FE049EC50E43A
:101890000E94BE320E94373360930B042FCA40E08F
:1018A00062E085E492E00E948525882381F040E093
:1018B00063E085E492E00E944425811108C040E085
:1018C00061E085E492E00E9444258823B9F080918C
:1018D000010187301CF086E08093010180910101B5
:1018E00087FD10920101E09101010E2E000CFF0B0B
:1018F000EE5DFE4F808180930C0400CA809101014F
:10190000815080930101E3CF8091F7039091F80318
:1019100092609093F8038093F7038DCA8091F70348
:101920009091F80394609093F8038093F70393CA1F
:101930008091F7039091F80398609093F803809357
:10194000F70399CA40E062E085E492E00E9419261C
:1019500090589093FC038093FB0340E063E085E4A0
:1019600092E00E941926AFEFBFE7A81BB90BB09316
:10197000FE03A093FD038BCB99E09093470282E096
:1019800094CC1092160410922B0410922C04809385
:101990002D0410921904C6CCEB89FC8910821182A7
:1019A00012821382D10157968C918823C1F1F101E3
:1019B00082898130A1F5711032C0A989BA898C91D0
:1019C00080FF2DC060E085E492E00E948326F10153
:1019D000128A80911604882391F0813009F056C054
:1019E000D20112968C931297EAE01396EC93139718
:1019F00014968C931497FAE01596FC9347C0E9E08F
:101A0000D2011296EC93129782E013968C9313975F
:101A1000F9E01496FC93149715968C9337C00E94A6
:101A2000B014E98DFA8DC080D180E280F380DC01B2
:101A3000CB018C199D09AE09BF0987399105A10514
:101A4000B10508F465C0D20112966C916F3F09F49C
:101A50005FC0F101828981115BC08789882309F405
:101A600057C0711055C0A989BA898C9180FF50C0A8
:101A700040E085E492E00E94EB28F20183818283BA
:101A800084818383858184832FEF25830E94B01412
:101A9000A98DBA8D6D937D938D939C931397A9898E
:101AA000BA898C918C3D91F038F481112BC024E6D9
:101AB000E989FA89208326C0863EC1F0803F11F56E
:101AC000672D81E0870D0E948F021CC0D1015796BF
:101AD0008C9157978823B1F052968C91811112C046
:101AE000672D85E492E00E94A5260CC0F10187894C
:101AF000882341F08289811105C0672D85E492E039
:101B00000E94C726A989BA898C918F5F8C93A7CC34
:101B1000F4018689813019F6E989FA89808180FF8C
:101B2000BECF472DD40155966C91559754968C9104
:101B30000E948002F401168AB2CF8091E0008E7F6D
:101B40008093E00080911504882311F40C94FB032A
:101B500060E081E10E94F7150C94FB03FC01918D7C
:101B6000228D892F90E0805C9F4F821B91098F739B
:101B700099270895FC01918D828D981731F0828DFF
:101B8000E80FF11D858D90E008958FEF9FEF089588
:101B9000FC01918D828D981761F0828DDF01A80F75
:101BA000B11D5D968C91928D9F5F9F73928F90E097
:101BB00008958FEF9FEF0895FC01538D448D252FDD
:101BC00030E0842F90E0821B930B541710F0CF96D7
:101BD000089501970895FC01848DDF01A80FB11DC0
:101BE000A35ABF4F2C91848D90E001968F73992753
:101BF000848FA689B7892C93A089B1898C91806440
:101C00008C93938D848D981306C00288F389E02D00
:101C100080818F7D80830895EF92FF920F931F93B1
:101C2000CF93DF93EC0181E0888F9B8D8C8D98138F
:101C300005C0E889F989808185FD24C0F62E0B8DC9
:101C400010E00F5F1F4F0F731127E02E8C8DE812ED
:101C50000CC00FB607FCFACFE889F989808185FFAF
:101C6000F5CFCE010E94EB0DF1CF8B8DFE01E80F79
:101C7000F11DE35AFF4FF0820B8FEA89FB898081C7
:101C8000806207C0EE89FF896083E889F9898081D5
:101C90008064808381E090E0DF91CF911F910F916C
:101CA000FF90EF900895CF93DF93EC01888D882308
:101CB000C9F0EA89FB89808185FD05C0A889B989B9
:101CC0008C9186FD0FC00FB607FCF5CF808185FF94
:101CD000F2CFA889B9898C9185FFEDCFCE010E9402
:101CE000EB0DE7CFDF91CF910895CF92DF92EF9286
:101CF000FF921F93CF93DF93EC016A017B01122FB8
:101D0000E889F98982E080834115514E61057105AA
:101D1000B1F060E079E08DE390E0A70196010E94C8
:101D20001835DA01C9010197A109B109B695A7953E
:101D3000979587959C01211580E13807A8F0E889DF
:101D4000F989108260E874E88EE190E0A7019601BD
:101D50000E941835DA01C9010197A109B109B695A8
:101D6000A795979587959C01EC85FD853083EE8539
:101D7000FF852083188EEC89FD891083EA89FB8911
:101D8000808180618083EA89FB898081886080838B
:101D9000EA89FB89808180688083EA89FB89808168
:101DA0008F7D8083DF91CF911F91FF90EF90DF9027
:101DB000CF90089580E090E008951F920F920FB6A3
:101DC0000F9211242F938F939F93EF93FF93E091A2
:101DD0008404F09185048081E0918A04F0918B0461
:101DE00082FD12C0908180918D048F5F8F7320914E
:101DF0008E04821751F0E0918D04F0E0EC58FB4F17
:101E0000958F80938D0401C08081FF91EF919F9108
:101E10008F912F910F900FBE0F901F9018951F92CA
:101E20000F920FB60F9211242F933F934F935F930E
:101E30006F937F938F939F93AF93BF93EF93FF9392
:101E400084E794E00E94EB0DFF91EF91BF91AF9179
:101E50009F918F917F916F915F914F913F912F91C2
:101E60000F900FBE0F901F901895E4E7F4E01382D7
:101E7000128288EE93E0A0E0B0E084839583A6838D
:101E8000B7838DE291E0918380838DEC90E095871C
:101E900084878CEC90E09787868788EC90E0918B24
:101EA000808B89EC90E0938B828B8AEC90E0958B11
:101EB000848B8EEC90E0978B868B118E128E138E16
:101EC000148E08950895CF92DF92EF92FF920F93B0
:101ED0001F93CF93DF936C017A018B01C0E0D0E0B8
:101EE000CE15DF0581F0D8016D918D01D601ED9100
:101EF000FC910190F081E02DC6010995892B11F02C
:101F00002196EECF7E01C701DF91CF911F910F91F6
:101F1000FF90EF90DF90CF9008956115710579F0F3
:101F2000FB0101900020E9F73197AF01461B570BE9
:101F3000DC01ED91FC910280F381E02D099480E0B9
:101F400090E00895EF92FF920F931F93CF93DF934A
:101F50008C017B01C0E0D0E0F701EC0FFD1F649124
:101F6000662361F0D801ED91FC910190F081E02DA4
:101F7000C8010995892B11F02196EECFCE01DF9192
:101F8000CF911F910F91FF90EF900895DC01ED919B
:101F9000FC910190F081E02D09948F929F92AF9275
:101FA000BF92EF92FF920F931F93CF93DF93CDB722
:101FB000DEB7A1970FB6F894DEBF0FBECDBF7C0190
:101FC000FA01CB0119A2223008F42AE08E010F5D3C
:101FD0001F4F822E912CA12CB12CBF01A501940181
:101FE0000E941835F901CA01015011096A3010F434
:101FF000605D01C0695CD8016C93232B242B252BD9
:1020000061F7B801C7010E948D0FA1960FB6F89431
:10201000DEBF0FBECDBFDF91CF911F910F91FF901B
:10202000EF90BF90AF909F908F900895CF92DF92E6
:10203000EF92FF920F931F93CF93DF9321153105FA
:1020400081F4DC01ED91FC910190F081E02D642F91
:10205000DF91CF911F910F91FF90EF90DF90CF9084
:1020600009942A30310501F577FF1DC06A017B0113
:10207000EC016DE20E94C60F8C0144275527BA017E
:102080004C195D096E097F092AE0CE010E94CD0F2F
:10209000800F911FDF91CF911F910F91FF90EF90D3
:1020A000DF90CF9008952AE0DF91CF911F910F919B
:1020B000FF90EF90DF90CF900C94CD0F9A01AB0181
:1020C000770F660B770B0C941610CF93DF93CCEB46
:1020D000D0E018821092820581E0809380051092F2
:1020E0007F0561E082E00E94F71561E083E00E94D5
:1020F000F715E9EBF0E080818E7F808380818D7F12
:10210000808388E48093B80085E48883DF91CF9151
:102110000895813049F41092110510921205109221
:1021200013051092140517C08091110590911205A6
:10213000A0911305B09114050196A11DB11D8093C6
:10214000110590931205A0931305B093140584E62E
:1021500090E00E941D158091110590911205A091AB
:102160001305B091140580359105A105B10580F0E6
:102170001092110510921205109213051092140579
:102180000E94651061E081E10E94F71581E00895E9
:1021900080E008959B01AC0160E074E284EF90E080
:1021A0000E941835DA01C9014097A109B109B69515
:1021B000A795979587958093B8000895FF920F9300
:1021C0001F93CF93DF93D82F162F072FC42FF22EF4
:1021D000413208F054C081E00E948910809182054C
:1021E000882329F080E00E9489108823B9F381E0D8
:1021F00080938205F09280059FEF909315051092D1
:102200005A059C0F90935905809381058091810513
:10221000DD0FD82BD093810580917F05813061F44B
:1022200010927F05809181058093BB008091BC0056
:1022300083FDF8CF85EC01C085EE8093BC0081E082
:102240000E94891080918205813029F480E00E94EB
:1022500089108823B9F380915A058C1710F4C09126
:102260005A05ABE5B5E0912FE12FF02F8E2F891B9A
:102270008C1718F48D918193F9CF8C2F01C080E0D9
:10228000DF91CF911F910F91FF900895DF92EF9210
:10229000FF920F931F93CF93DF93413208F062C0F8
:1022A000D22E142FE72EF62ED82F81E00E9489100F
:1022B000C0918205CC2331F080E00E948910811109
:1022C0004FC0F6CF82E080938205009380058FEFA8
:1022D0008093150510925A05109359059F2DABE573
:1022E000B5E0EF2DFE2D8E2F891B811718F48191FB
:1022F0008D93F9CF1092810580918105DD0FD82B48
:10230000D093810580917F05813061F410927F0523
:10231000809181058093BB008091BC0083FDF8CF44
:1023200085EC01C085EE8093BC0081E00E9489109D
:10233000DD2051F080918205823031F480E00E94EE
:10234000891081110DC0F4CF809115058F3F79F070
:1023500080911505803241F080911505803331F070
:10236000C4E005C0C1E003C0C2E001C0C3E08C2FDF
:10237000DF91CF911F910F91FF90EF90DF90089523
:1023800040913705262F30E0240F311D21323105D1
:10239000DCF4209182052430C9F4FC0180E090E057
:1023A000861758F4309137052191DC01A75CBA4FAC
:1023B000A30FB11D2C930196F3CF80913705680FC1
:1023C0006093370580E0089581E0089582E00895E4
:1023D00085ED8093BC0081E00E9489108091BC0053
:1023E00084FF05C080E00E9489108823B9F3109211
:1023F0008205089585EC8093BC00109282050895B3
:102400001F920F920FB60F9211242F933F934F9369
:102410005F936F937F938F939F93AF93BF93EF934C
:10242000FF938091B900887F803609F49EC078F5CB
:10243000883209F45DC090F4803109F456C038F454
:10244000882309F4F5C0883009F44FC0F5C08831FD
:1024500009F44EC0803209F45FC0EEC0803409F444
:102460006AC058F4803309F457C0883309F0E4C0D7
:10247000809315050E94FA11DFC0803509F44FC022
:10248000883509F45DC0883409F0D6C0D3C08839D6
:1024900009F4C4C0A8F4883709F467C038F4883652
:1024A00009F463C0803709F460C0C6C0883809F4F5
:1024B000B5C0803909F45FC0803809F0BDC05BC089
:1024C000803B09F483C038F4803A09F466C0883A46
:1024D00009F47CC0B1C0803C09F4A4C0883C09F474
:1024E000A1C0883B09F487C0A7C08091810510C0B6
:1024F00090915A0580915905981770F5E0915A0509
:1025000081E08E0F80935A05F0E0E55AFA4F808102
:102510008093BB0085EC83C0809315058BC0E09150
:102520005A0581E08E0F80935A058091BB00F0E040
:10253000E55AFA4F808390915A05809159056BC0F6
:10254000E0915A0581E08E0F80935A058091BB007F
:10255000F0E0E55AFA4F80838091800581116AC0CE
:1025600081E080937F0584EA5EC083E080938205EA
:1025700010921605CFCF80911605803208F04EC01C
:10258000E091160581E08E0F809316058091BB00C7
:10259000F0E0E95EFA4F8083BDCF0E94FA1180918E
:1025A0001605803230F4E0911605F0E0E95EFA4F4E
:1025B00010826091160570E0E0917B05F0917C053A
:1025C00087E195E009951092160536C084E0809366
:1025D00082051092380510923705E0917D05F09143
:1025E0007E05099580913705811105C081E08093B2
:1025F000370510923905E091380581E08E0F809300
:102600003805F0E0E75CFA4F80818093BB00909141
:10261000380580913705981708F47CCF85E88093BA
:10262000BC000AC085EC8093BC001092820504C0F7
:10263000109215050E94E811FF91EF91BF91AF91A3
:102640009F918F917F916F915F914F913F912F91CA
:102650000F900FBE0F901F9018958091B30590E0DA
:102660002091B405821B910908959091B405809141
:10267000B305981750F4E92FF0E0EB54FA4F20819E
:1026800030E09F5F9093B40502C02FEF3FEFC90188
:102690000895E091B4058091B305E81730F4F0E0B7
:1026A000EB54FA4F808190E008958FEF9FEF0895EB
:1026B000CF92DF92EF92FF920F931F93CF93DF930E
:1026C0007C01CB018A0120918F05222389F0EB0147
:1026D0006B01C40ED51ECC15DD0569F06991D701DB
:1026E000ED91FC910190F081E02DC7010995F3CFA8
:1026F000642F0E94C011C801DF91CF911F910F91EB
:10270000FF90EF90DF90CF900895CF93DF931F92CB
:10271000CDB7DEB7698320918F052223D1F02091B8
:102720009005203240F021E030E0FC013383228329
:1027300080E090E015C080919105E82FF0E0EE5622
:10274000FA4F998190838F5F8093910580939005D4
:1027500005C061E0CE0101960E94C01181E090E0C9
:102760000F90DF91CF9108951092B4051092B305A8
:1027700080E2E5EBF5E0DF011D928A95E9F7089527
:10278000FC011382128288EE93E0A0E0B0E0848323
:102790009583A683B7838FE391E091838083089527
:1027A0001092B4051092B305109291051092900505
:1027B0000C946510CB01BA010C94CA1081E080938F
:1027C0008F056093B20510929105109290050895BF
:1027D0000F93062F21E04091900562E975E080910A
:1027E000B2050E9446111092910510929005109228
:1027F0008F050F9108954F925F926F927F92AF92E3
:10280000BF92CF92EF92FF920F931F93CF93DF93DC
:102810005C01F62ED42F28013901EE2021F10E940F
:10282000DE13CE2DC43008F0C3E0C150C0F028E064
:10283000C29FC0011124A301920104C0569547957F
:10284000379527958A95D2F7CA01B901D501ED913F
:10285000FC910190F081E02DC5010995E6CF60E083
:10286000C5010E94E8134D2FD13208F040E22C2D13
:1028700065EB75E08F2D0E94DE101092B4058093F9
:10288000B305DF91CF911F910F91FF90EF90CF9003
:10289000BF90AF907F906F905F904F900895CF92D0
:1028A000EF920F931F93C22EE12C00E010E09801ED
:1028B0000E94FB131F910F91EF90CF90089521E09C
:1028C0000C944F1483E895E00C94C0131F920F9260
:1028D0000FB60F9211242F933F938F939F93AF9333
:1028E000BF938091D6059091D705A091D805B0915E
:1028F000D9053091D50523E0230F2D3720F401961B
:10290000A11DB11D05C026E8230F0296A11DB11D12
:102910002093D5058093D6059093D705A093D8052D
:10292000B093D9058091DA059091DB05A091DC0583
:10293000B091DD050196A11DB11D8093DA0590933C
:10294000DB05A093DC05B093DD05BF91AF919F91AE
:102950008F913F912F910F900FBE0F901F90189560
:102960002FB7F8946091D6057091D7058091D8055E
:102970009091D9052FBF08953FB7F8948091DA055B
:102980009091DB05A091DC05B091DD0526B5A89BF3
:1029900005C02F3F19F00196A11DB11D3FBFBA2FF1
:1029A000A92F982F8827820F911DA11DB11DBC0151
:1029B000CD0142E0660F771F881F991F4A95D1F716
:1029C00008958F929F92AF92BF92CF92DF92EF9233
:1029D000FF926B017C010E94BC144B015C01C1148D
:1029E000D104E104F10401F10E94620F0E94BC14C1
:1029F000DC01CB0188199909AA09BB09883E9340DB
:102A0000A105B10560F321E0C21AD108E108F1087F
:102A100088EE880E83E0981EA11CB11CC114D1045D
:102A2000E104F10419F7DBCFFF90EF90DF90CF9036
:102A3000BF90AF909F908F9008958230910538F0AD
:102A4000880F991F880F991F05970197F1F708952F
:102A5000789484B5826084BD84B5816084BD85B579
:102A6000826085BD85B5816085BDEEE6F0E0808140
:102A700081608083E1E8F0E0108280818260808361
:102A8000808181608083E0E8F0E0808181608083E4
:102A9000E1E9F0E0808182608083808181608083D1
:102AA000E0E9F0E0808181608083E1ECF0E080810A
:102AB0008460808380818260808380818160808364
:102AC000E3ECF0E0808181608083E0ECF0E08081E5
:102AD00082608083E2ECF0E0808181608083EAE7BD
:102AE000F0E0808184608083808182608083808147
:102AF00081608083808180688083089590E0FC01FC
:102B00003197EF30F105B0F5EA5AFF4F0C943A35A2
:102B1000809180008F7703C0809180008F7D8093AB
:102B20008000089580918000877FF9CF84B58F77EA
:102B300002C084B58F7D84BD0895809190008F7709
:102B400007C0809190008F7D03C080919000877FA7
:102B50008093900008958091C0008F7703C080918A
:102B6000C0008F7D8093C00008958091C200877F50
:102B70008093C2000895CF93DF9390E0FC01E0566C
:102B8000FE4F2491FC01E154FE4F8491882361F1B2
:102B900090E0880F991FFC01E650FE4FC591D4913B
:102BA000FC01E451FE4FA591B491611109C09FB79A
:102BB000F8948881209582238883EC912E230BC082
:102BC000623061F49FB7F8948881322F3095832367
:102BD0008883EC912E2B2C939FBF06C08FB7F8945F
:102BE000E8812E2B28838FBFDF91CF9108951F930B
:102BF000CF93DF93282F30E0F901EF57FE4F8491F8
:102C0000F901E056FE4FD491F901E154FE4FC49111
:102C1000CC23C1F0162F81110E947E15EC2FF0E01D
:102C2000EE0FFF1FE451FE4FA591B4919FB7F894AA
:102C3000111104C08C91D095D82302C0EC91DE2BE9
:102C4000DC939FBFDF91CF911F910895CF93DF93C6
:102C5000282F30E0F901EF57FE4F8491F901E0563B
:102C6000FE4FD491F901E154FE4FC491CC2391F071
:102C700081110E947E15EC2FF0E0EE0FFF1FE25253
:102C8000FE4FA591B491EC91ED2381E090E021F409
:102C900080E002C080E090E0DF91CF910895CF9373
:102CA000DF93FC01862F8078A9F4283008F04DC00E
:102CB000442321F09581973009F447C0EF01A1E04A
:102CC000B0E09D85992341F011962596A031B1057C
:102CD000C1F73BC080E039C061111CC085E08A9F0C
:102CE000E0018B9FD00D1124CE0FDF1F442331F064
:102CF00081E4888785818F5F858302C081E0888732
:102D000025E02A9FC0012B9F900D1124E80FF91F89
:102D100080851BC06770660F660F660F442341F005
:102D2000606485818F5F85838770687F682B03C0AF
:102D30002770687B622B25E02A9FC0012B9F900D96
:102D40001124E80FF91F6087862FDF91CF91089536
:102D5000611102C006960895FC0121E035856317D4
:102D600039F02F5F35962031C9F780E090E0089563
:102D7000069635E0239F800D911D11240895DF9262
:102D8000EF92FF920F931F93CF93DF93EC01E62E08
:102D9000F12C85E0689FB0011124FE01E60FF71FBA
:102DA0008085182F177086FF17C001E085E0D82EA8
:102DB000FE01D09EE00DF11D11248085869586953B
:102DC000869587701817F9F00F5F003189F78D81AC
:102DD000811302C011501D8385E08E9DF0018F9DEF
:102DE000F00D1124EC0FFD1F108681E08187128603
:102DF0002296D783C683DF91CF911F910F91FF90C9
:102E0000EF90DF900895602FCE010E94BF16D0CFC3
:102E1000FC01613499F49C01255B3F4F61E0AC01FA
:102E20004E5F5F4F158666871786548743873596B2
:102E3000E217F307B9F7FC011582089521E0358503
:102E4000631729F02F5F35962031C9F70895622F57
:102E50000C94BF16FC0181E591E09183808315827B
:102E6000108681E081871286CF0102969783868340
:102E7000128228E023832CE32483DF019F01255B5A
:102E80003F4F41E01D961C921D971E964C931E9736
:102E90001F961C921F971C969C938E931B971596BA
:102EA000A217B30779F7EA58FF4F108281E18093A8
:102EB000E2050895CF93C42F0E94A816009789F0C9
:102EC000DC01ED91FC911197309759F013969C918C
:102ED00080E0891731F020812C1731F033968F5F15
:102EE000F8CF80E090E001C0CF01CF9108950F931B
:102EF0001F93CF93DF932115310571F0E901042F62
:102F0000162F0E94A816FC01892B41F01283D18351
:102F1000C083038380E003C088ED01C086EDDF91AC
:102F2000CF911F910F910895CF92DF92FF920F934F
:102F30001F93CF93DF93662381F1F62E8C016C01F2
:102F400086E5C80ED11CC0E0D0E0D6018D919D91E0
:102F50006D010097F1F0DC01ED91FC910084F185A9
:102F6000E02D0995F81215C0AB96CC0FDD1FC00FF0
:102F7000D11F88819981DC01ED91FC910480F5815C
:102F8000E02DDF91CF911F910F91FF90DF90CF90B7
:102F900009942196C031D105C1F680E0DF91CF912F
:102FA0001F910F91FF90DF90CF9008952E98089574
:102FB000CF93C82F0E94D617CEBD0DB407FEFDCF0C
:102FC0001EBC0DB407FEFDCF0E949D028EB5CF91B1
:102FD0000895CF93DF93C82FD62F0E94D617C260D3
:102FE000CEBD0DB407FEFDCFDEBD0DB407FEFDCF97
:102FF000DF91CF910C949D028F929F92AF92BF92DE
:10300000CF92DF92EF92FF920F931F93CF93DF93B4
:10301000EC01D62EC42E59010E94A8167C010097FF
:1030200009F445C0FC0180819181892B09F441C0DC
:103030004C2D6D2DCE010E945A17F501918380838E
:103040000097C9F1FC0182818695869590E08031D8
:10305000910514F08FE090E041E050E060E070E016
:103060004A015B0104C0880C991CAA1CBB1C8A95F0
:10307000D2F7D501C4010197F801918380836D2DAA
:1030800080EE0E94E91788ED0E94D817F70194811D
:10309000992331F0CA58DF4F68816260682B02C003
:1030A000682F697F88ED0E94E91780E005C086EDF2
:1030B00003C087ED01C08BEDDF91CF911F910F9180
:1030C000FF90EF90DF90CF90BF90AF909F908F9048
:1030D00008958F929F92AF92BF92CF92DF92EF921C
:1030E000FF920F931F93CF93DF93862E942E590157
:1030F0000E94B0146B017C0128E8C20E23E1D21EAD
:10310000E11CF11C00E010E0D0E0C0E098280E9433
:10311000B014DC01CB018C199D09AE09BF09B7FFC2
:103120002DC0692D80EF0E94E9170E94B014DC01C8
:10313000CB018C199D09AE09BF09B7FF09C088EC06
:103140000E94D81787FFF1CF60E888EC0E94E9174A
:1031500088EF0E94D817C82FCF70C43019F0CE3036
:1031600051F00CC00F5F1F4FA114B10481F20A157A
:103170001B0569F603C0DF5FD33049F68C2FDF9162
:10318000CF911F910F91FF90EF90DF90CF90BF9064
:10319000AF909F908F9008959F92AF92BF92CF92E1
:1031A000DF92EF92FF920F931F93CF93DF937C01F7
:1031B000D42F122F902E00E06C01C60ED11CC60E2B
:1031C000D11C86E5C80ED11CA42EB12CABE2AA0EF0
:1031D000B11CAA0CBB1CAE0CBF1CF60180819181F6
:1031E000DC01ED91FC910280F381E02D292D412F2E
:1031F0006D2F0995803EC9F4D1110BC061E088EEB6
:103200000E94E91766E670E080E090E00E94E11419
:1032100014C0F50180819181DC01ED91FC91028463
:10322000F385E02D612F099508C08D3021F403301E
:1032300008F03FC014C081113FC0F6018081918128
:10324000DC01ED91FC910190F081E02D292D412FC1
:103250006D2F0995C82F8D3051F4033050F464E67A
:1032600070E080E090E00E94E1140F5FB6CF882309
:1032700011F1D1110BC061E088EE0E94E91766E6FA
:1032800070E080E090E00E94E11411C0ED2FF0E0CA
:10329000BB96EE0FFF1FEE0DFF1D80819181DC01BB
:1032A000ED91FC910284F385E02D612F09958C2F1F
:1032B00003C08DE001C080E0DF91CF911F910F919D
:1032C000FF90EF90DF90CF90BF90AF909F900895C8
:1032D0000F931F93CF93DF93182F062FEA010E94BD
:1032E000D61712601EBDFE01802F882339F00DB461
:1032F00007FEFDCF91919EBD8150F7CFC00FD11D2C
:103300000DB407FEFDCF0E949D02CE01DF91CF914B
:103310001F910F9108952F923F924F925F926F925B
:103320007F928F929F92AF92BF92CF92DF92EF9255
:10333000FF920F931F93CF93DF9300D000D01F9283
:10334000CDB7DEB77D836C834A016901FB01F18053
:103350008FEF8F0D803408F074C00E94B0142B01E1
:103360003C01F8E84F0EF3E15F1E611C711CEC811B
:10337000FD81828180FD02C060E401C060E888EECA
:103380000E94E917312C8F2D90E09A838983C11414
:10339000D10409F448C0E980FA80CE14DF0408F4AF
:1033A0007601EB82A8016E2D80E10E9468196E2DD6
:1033B00088E30E94E917EC81FD816081606280EF03
:1033C0000E94E91788EC0E94D81787FFFBCF60E8BE
:1033D00088EC0E94E91788EF0E94D8178F70382E6A
:1033E000A12CB12C212C332009F46BC00E94B01405
:1033F000DC01CB0184199509A609B709B7FF61C0A3
:10340000F6E03F1601F12EE0321609F455C084E0D3
:10341000381209C0FFEFAF1ABF0A8114910449F1B5
:10342000A814B90431F588EF0E94D81785FB8827C6
:1034300080F9EC81FD81928180FB90F99283832D4C
:1034400045C08AED43C088EF0E94D81785FB8827C6
:1034500080F991E08927EC81FD81928180FB90F9D0
:10346000928390FD02C060E401C060E888EE0E9493
:10347000E91760E088E30E94E917F801608180E1C4
:103480000E94E9176B8188E30E94E917EC81FD81B6
:103490006081606280EF0E94E91788EC0E94D81773
:1034A00087FFFBCF60E888EC0E94E91788EF0E9455
:1034B000D8178F70382E97CF239423E02212D9CFBC
:1034C000B2CFCE18DF080E0D1F1D61CF0F900F90E9
:1034D0000F900F900F90DF91CF911F910F91FF9060
:1034E000EF90DF90CF90BF90AF909F908F907F90A4
:1034F0006F905F904F903F902F900895AF92BF9242
:10350000CF92DF92EF92FF920F931F93CF93DF93AF
:1035100000D000D0CDB7DEB77C01690158011C8214
:103520001B821A8219828E010F5F1F4F9E012D5F31
:103530003F4F0E94FC17811109C049815A816B815C
:103540007C8185019601C7010E948B190F900F9015
:103550000F900F90DF91CF911F910F91FF90EF90FF
:10356000DF90CF90BF90AF9008952F923F924F92EF
:103570005F926F927F928F929F92AF92BF92CF9203
:10358000DF92EF92FF920F931F93CF93DF93CDB70C
:10359000DEB72A970FB6F894DEBF0FBECDBF1C0171
:1035A0006B015B834A835901D9016D907C9011971F
:1035B000FB01F181F9831D921C92DB0112968C9123
:1035C00081FD02C060E101C060E288EE0E94E9175F
:1035D0008E2D90E0A0E0B0E08C839D83AE83BF830E
:1035E00068862A813B81D6014C9160E0C1010E942E
:1035F0006918F82EB6E08B1318C088EF0E94D81710
:1036000082958170E1E08E27D60112969C911297E7
:1036100080FB91F912969C9391FD02C060E101C07C
:1036200060E288EE0E94E917DCCF811167C088EC68
:103630000E94D81782FF60C080E30E94D817582EDE
:1036400090E06816790608F45884F501808191812C
:103650009301281B390B3A87298737FF02C01A8646
:103660001986852C912C89859A858816990614F4DB
:103670009A86898649840E94D61798E09EBD0DB42B
:1036800007FEFDCFF801442041F01EBC4A940DB462
:1036900007FEFDCF8EB58193F6CFA985BA850A0FB7
:1036A0001B1F0E949D0264E088EC0E94E917F5014F
:1036B00080819181880E991E91828082F9815F16A6
:1036C00018F08614970470F088EF0E94D81782953E
:1036D0008170D60112969C91129780FB91F91296F7
:1036E0009C930CC0EE2009F47CCF6C817D818E818F
:1036F0009F810E94E11475CF80EFF82E8F2D2A96BE
:103700000FB6F894DEBF0FBECDBFDF91CF911F91F2
:103710000F91FF90EF90DF90CF90BF90AF909F9070
:103720008F907F906F905F904F903F902F90089573
:103730002F923F924F925F926F927F928F929F92C1
:10374000AF92BF92CF92DF92EF92FF920F931F93AF
:10375000CF93DF93CDB7DEB761970FB6F894DEBF96
:103760000FBECDBF3C01F42E322E202EC98A4EA0B2
:103770005FA0C8A4D9A4188A1F861E861D868E0144
:10378000035F1F4F9E01215F3F4F0E94FC17811175
:1037900096C039822A82EB8289898C83BE82AD826F
:1037A00098868F82AE014F5F5F4F68E080E20E9493
:1037B00068192D853E854F2D60E1C3010E9469186F
:1037C000E82E811178C0932D9078392EC114D10440
:1037D00009F462C0EF85F8898281992309F44DC00C
:1037E00082608283540122242394A114B10409F439
:1037F00058C05C864B864D855E856F857889E12C47
:1038000086019E01255F3F4FC3010E94B51AE82E35
:10381000A6E08A130FC00F85188988EF0E94D81779
:1038200085FB882780F98225F801928180FB91F938
:103830009283DBCF81113FC08AA59BA50097A1F0A1
:10384000DC01ED91FC9111970190F081E02DC40114
:103850008A199B099A8789876B857C859E01275FDA
:103860003F4FA601CD0109958B859C85A81AB90A01
:103870008415950508F0B9CF0FC0816082834D850E
:103880005E8586019201BF01C3010E948B198111DF
:1038900016C02D853E8511C02D853E85311005C091
:1038A0000CC0E11008C02D853E8560EA4F2DC30194
:1038B0000E94691804C08E2D02C060E8F7CF61969F
:1038C0000FB6F894DEBF0FBECDBFDF91CF911F9131
:1038D0000F91FF90EF90DF90CF90BF90AF909F90AF
:1038E0008F907F906F905F904F903F902F900895B2
:1038F0008F929F92AF92BF92CF92EF920F931F93AE
:103900001F921F921F930F933F932F934901A12C56
:10391000B12CCC24C394E12C06E020E80E94981B33
:103920000F900F900F900F900F900F901F910F918D
:10393000EF90CF90BF90AF909F908F9008958F920F
:103940009F92AF92BF92CF92EF92FF920F931F92EE
:103950001F92FF92EF923F932F934901A12CB12C1C
:1039600022E0C22EE02E06E020E80E94981B0F9075
:103970000F900F900F900F900F900F91FF90EF907E
:10398000CF90BF90AF909F908F9008958F929F920D
:10399000AF92BF92CF92EF920F93CF931F921F924D
:1039A0001F921F921F921F92812C912CA12CB12C3F
:1039B000C12CE22E05E020E00E94981BC82F6CE28B
:1039C00071E080E090E00E94E1140F900F900F9062
:1039D0000F900F900F908C2FCF910F91EF90CF9071
:1039E000BF90AF909F908F9008950F931F93CF93A8
:1039F000DF938A3F3FEF930711F486ED2DC0DC0182
:103A00001696ED91FC911797EF2B09F1122F242FA9
:103A1000EC011A8740E00E944F16082F8823C9F056
:103A2000682FCE010E94A816009739F3FC01148379
:103A3000202F40E060E0CE010E94C61C182F882392
:103A400051F0602FCE010E940817812F05C087ED2D
:103A500003C084ED01C080E0DF91CF911F910F91F1
:103A600008952F923F924F925F926F927F928F9222
:103A70009F92AF92BF92CF92DF92EF92FF920F93FD
:103A80001F93CF93DF93CDB7DEB766970FB6F89449
:103A9000DEBF0FBECDBF1B8A38E03C8B3CE33D8BC5
:103AA0008A3F3FEF930709F464C0522E342E462E0E
:103AB0007C01DC011696CD90DC901797CE014396E1
:103AC00017969C938E9316971A962C938E010F5FE0
:103AD0001F4F22E130E040E060E0C7010E94781C07
:103AE000F701D782C6828111A6C089849A846B842B
:103AF0007C84FD81FE8B2E80670136E5C30ED11CD0
:103B0000560110E0D5018D919C910097F1F1DC01F7
:103B1000ED91FC910084F185E02D0995811135C06E
:103B2000F50180819181DC01ED91FC910088F189A2
:103B3000E02D622D0995882341F1F5018081918165
:103B4000DC01ED91FC910484F585E02DA301B40125
:103B50000995811110C0F50180819181DC01ED9101
:103B6000FC910684F785E02D6E890995811103C0CB
:103B70000CC086ED60C0052D232D442D612FC7019B
:103B80000E94CC18813D09F056C01F5FB2E0AB0E19
:103B9000B11C103109F0B6CF10E0F601808191819F
:103BA0000097E1F1DC01ED91FC910084F185E02DBD
:103BB0000995811133C0F60180819181DC01ED917D
:103BC000FC910088F189E02D622D09958823D9F0B8
:103BD000F60180819181DC01ED91FC910484F585F1
:103BE000E02DA301B4010995811118C0F60180816F
:103BF0009181DC01ED91FC910684F785E02D6E89C1
:103C0000099581110BC0052D232D442D612FC7016E
:103C10000E94CC18982F977F913D69F41F5FE2E0D6
:103C2000CE0ED11C103109F0B8CF252D432D642DB7
:103C3000C7010E94F51C66960FB6F894DEBF0FBE52
:103C4000CDBFDF91CF911F910F91FF90EF90DF904B
:103C5000CF90BF90AF909F908F907F906F905F902C
:103C60004F903F902F9008958F929F92AF92BF9266
:103C7000CF92EF920F931F921F921F921F921F924B
:103C80001F92812C912CA12CB12CC12CE22E09E089
:103C900020E00E94981B0F900F900F900F900F90B4
:103CA0000F900F91EF90CF90BF90AF909F908F901B
:103CB00008958F929F92AF92BF92CF92DF92EF9230
:103CC0000F931F93CF93DF9300D000D0CDB7DEB713
:103CD0006C01590148011C821B821A8219828E01D3
:103CE0000F5F1F4F9E012D5F3F4F0E94FC174981C0
:103CF0005A816B817C8184019501C6010E94B51AAD
:103D00000F900F900F900F90DF91CF911F910F9117
:103D1000EF90DF90CF90BF90AF909F908F900895DD
:103D2000AF92BF92CF92DF92EF92FF920F931F93C9
:103D3000CF938C011D990EC088EC0E94D81785FF87
:103D400005C0C8010E94B80260E201C060E088ECD2
:103D50000E94E91780914402813039F040F08230AE
:103D600079F0833039F5C1E00CC083E106C0809161
:103D7000E205807F8031F1F081E18093E2051AC095
:103D8000C0E08091E205807F8031A9F40E94B014E8
:103D9000DC01CB0188539F4FAF4FBF4F8093DE05AF
:103DA0009093DF05A093E005B093E10580E2809356
:103DB000E20501C0C0E0780186E5E80EF11C68016B
:103DC000A6E7CA0ED11C5701F501819191915F01BF
:103DD000009739F0DC01ED91FC910680F781E02D30
:103DE0000995AC14BD0481F78091E205803409F493
:103DF0003FC050F4803221F18033A1F1813109F0CC
:103E000082C0F60110820AC0813509F458C080389A
:103E100009F46AC0803509F076C039C0D7018D91A8
:103E20009D917D01009739F0DC01ED91FC910480BA
:103E3000F581E02D0995EC14FD0481F782E161C064
:103E40000E94B0140091DE051091DF052091E0057D
:103E50003091E105DC01CB01801B910BA20BB30B70
:103E6000B7FD51C061E088EE0E94E91780E449C0C7
:103E700088EE0E94D81780FD46C088ED0E94D817B2
:103E8000682F686088ED0E94E91780E53AC088ECE9
:103E90000E94D81786FF37C081E58093E2050E9413
:103EA000B014DC01CB014496A11DB11D8093DE0549
:103EB0009093DF05A093E005B093E10524C00E9434
:103EC000B014C090DE05D090DF05E090E005F090E2
:103ED000E105DC01CB018C199D09AE09BF09B7FDD5
:103EE00012C080E88093E2052C2F40E060E0C8011A
:103EF0000E94311D882321F0823D29F080EA01C013
:103F000080E98093E205CF911F910F91FF90EF9090
:103F1000DF90CF90BF90AF90089580E0089508950E
:103F200080E0089580E0089581E00895FC01828595
:103F3000089581E0693009F080E00895CF93DF9320
:103F4000EC018A819B81DC01ED91FC910480F5817B
:103F5000E02D6A8509958A85813439F4EA81FB81EF
:103F6000EA58FF4F8081846080831A861B861C86F6
:103F70001D861E861F86188A80E0DF91CF910895E6
:103F80008F929F92AF92BF92CF92EF920F93A42EF7
:103F9000B12CB22A1F921F921F921F921F921F9242
:103FA000812C912CC12CE62E01E023E240E0FC01A3
:103FB0006285828193810E94981B0F900F900F90D1
:103FC0000F900F900F900F91EF90CF90BF90AF9008
:103FD0009F908F9008958F929F92AF92BF92CF92B1
:103FE000EF920F93A62EB12C1F921F923F932F9307
:103FF0005F934F934A01C12CE12C00E023EA40E09B
:10400000FC016285828193810E94981B0F900F9022
:104010000F900F900F900F900F91EF90CF90BF9057
:10402000AF909F908F9008958F929F92AF92BF9282
:10403000CF92EF920F93A42EB12CB22A1F921F920F
:104040001F921F921F921F92812C912CC12CE62E41
:1040500003E023E240E0FC016285828193810E94BB
:10406000981B0F900F900F900F900F900F900F9143
:10407000EF90CF90BF90AF909F908F9008952F9228
:104080003F924F925F926F927F928F929F92AF92E8
:10409000BF92CF92DF92EF92FF920F931F93CF9335
:1040A000DF93CDB7DEB7E8970FB6F894DEBF0FBE4B
:1040B000CDBFDC011A963C91311107C1122F242E7D
:1040C000362E3C01FC01C280D380D601ED91FC91DB
:1040D0000190F081E02D60E0C60109957C01009718
:1040E00009F4F5C0FC01A080B180A114B10409F469
:1040F000F0C04301F4E08F0E911CDC0111969C92FC
:104100008E9214961C93FE0131962F018F0128E0A8
:1041100030E040E060E0D30112968D919C911397BE
:104120000E94781CF70114828111D9C08D818930D9
:1041300009F0D1C00981D601ED91FC910280F38193
:10414000E02D222D41E0632DC6010995F301828700
:10415000882309F4C2C098859583282F40E060E049
:10416000828193810E94C61C182F882389F0D70171
:10417000AD92BC92D601ED91FC910480F581E02DC9
:10418000D3011A966C91C6010995F3011286ABC052
:10419000202F013208F020E2D701AD92BC9221110C
:1041A0000BC0940142E0F3016285828193810E94F9
:1041B0007717811197C010C030E0820140E0D30131
:1041C0001A966C911A9712968D919C9113970E9452
:1041D000781C811187C0E5CF1F921F925F924F928A
:1041E0001F9288E08F9388E0882E912CA12CB12C0F
:1041F00099E2C92EE12C06E020EA40E0F301628555
:10420000828193810E94981B182F0F900F900F901E
:104210000F900F900F90811166C08B81D3011B9678
:104220008C931B97720100E028E030E040E01A9682
:104230006C911A9712968D919C9113970E949F1CD6
:10424000811150C02B813C8140E0F3016285828165
:1042500093810E949F1C811145C0298130E0CE01CD
:1042600081967C0140E0D3011A966C911A971296C0
:104270008D919C9113970E949F1C811133C02E81B8
:1042800040E0F3016285828193810E94341E811196
:1042900029C001E0D3011B968C91801740F020E0EB
:1042A000402F68E0C3010E9414200F5FF3CFD301B9
:1042B0001296ED91FC911397EA58FF4F808184602C
:1042C000808381E050968C930EC019ED0CC016EDE2
:1042D0000AC017ED08C011ED06C014ED04C0F701C7
:1042E000B182A082182F812FE8960FB6F894DEBF16
:1042F0000FBECDBFDF91CF911F910F91FF90EF9037
:10430000DF90CF90BF90AF909F908F907F906F90F5
:104310005F904F903F902F900895CF92DF92FF9241
:104320000F931F93CF93DF9300D000D0CDB7DEB7AC
:104330008C01F62E19821A821B821C8220E0462FE5
:1043400061E10E94C01F20E04F2D60E1C8010E9482
:10435000C01F20E04F2D64E0C8010E94142083E0BC
:10436000C82ED12C9E012F5F3F4F44E050E06F2DAF
:10437000C8010E94EB1F8823F1F020E04F2D64E17B
:10438000C8010E94C01F20E04F2D60E1C8010E94BB
:10439000C01F64E170E080E090E00E94E1140F90A3
:1043A0000F900F900F90DF91CF911F910F91FF9081
:1043B000DF90CF90089589819A81AB81BC819D7FE8
:1043C00083309140A041B105C1F264E670E080E025
:1043D00090E00E94E11481E0C81AD10819F6CDCF0F
:1043E000FC018BE591E09183808373836283128665
:1043F00013861486158616861786108A148288E01E
:1044000085839CE3968391E09783808784E081870E
:1044100061157105B1F0DB01AA5ABF4F80E090E051
:104420002D913D91232B49F48B96880F991FDB0129
:10443000A80FB91FED93FC93089501968031910563
:1044400079F70895EF92FF920F931F93CF938C010A
:10445000C62F7A01FA0180819181A281B3818130D6
:10446000F3E09F07F1E0AF07B105D1F060F48115EB
:10447000E1E09E07AE07B10571F181309140A140A6
:10448000B10571F064C0833021E0920720E1A207FA
:10449000B105E1F183309340A041B105B9F157C0B6
:1044A0008091E305811153C020E04C2F61E1C801E8
:1044B0000E94C01F20E04C2F60E1C8010E94C01F75
:1044C00020E04C2F64E0C8010E94142081E080931A
:1044D000E30581EB3DC020E0462F61E1C8010E9469
:1044E000C01F20E04C2F60E1C8010E94C01F109245
:1044F000E305F80162856770C770660F660F660F87
:104500006C2B828193810E94941721C020E04C2F54
:1045100064E1C8010E94C01F20E04C2F60E1C80187
:104520000E94C01F64E170E080E090E00E94E1140E
:10453000F8016285F70121812695217067704C2F63
:10454000F801828193810E94311D1092E30580E081
:10455000CF911F910F91FF90EF900895CF92DF922E
:10456000EF920F931F93CF93DF93CDB7DEB72E97C4
:104570000FB6F894DEBF0FBECDBF6C0181E090E0B6
:104580009E878D87E12C8E010F5F1F4F9E01235F59
:104590003F4F41E0F6016285828193810E94591E5E
:1045A000811151C002E011E089818023D1F0198688
:1045B0001A861B861C869E01275F3F4F44E050E011
:1045C000612FC6010E94EB1F81110BC0AE01475F36
:1045D0005F4F612FC6010E942222813B99F1811118
:1045E00032C0000F1F5F1830F9F611E0F601838525
:1045F000811740F119861A861B861C869E01275F4B
:104600003F4F44E050E0612FC6010E94EB1F811133
:1046100017C089859A85877091708130914081F4A7
:104620008B859C8581609C878B87AE01475F5F4F40
:10463000612FC6010E942222813B21F0811103C01B
:104640001F5FD4CF80E02E960FB6F894DEBF0FBE6A
:10465000CDBFDF91CF911F910F91EF90DF90CF9061
:1046600008950F931F93CF93DF93FC0120892111AD
:1046700002C080E020C0EC010E94B0140C851D85B2
:104680002E853F85DC01CB01801B910BA20BB30B68
:10469000B7FDEFCFCE010E94AE22182F0E94B014BA
:1046A000DC01CB018C599F4FAF4FBF4F8C879D874B
:1046B000AE87BF87812FDF91CF911F910F91089512
:1046C000FC01858D08958C5A9F4FFC0180810895CF
:1046D0006E3584E0780739F06D3A9BE1790719F07F
:1046E0006E32764141F481E0493197E0590729F073
:1046F0004139524011F080E008950895CF93DF933F
:10470000EC011E8A1F8A188E198E1A8E8B8D9C8D35
:10471000DC01ED91FC910480F581E02D6D8D099512
:104720001D8ECC5ADF4F188280E0DF91CF91089523
:104730006F927F928F929F92AF92BF92CF92DF92B1
:10474000EF92FF920F931F93CF93DF93CDB7DEB716
:1047500062970FB6F894DEBF0FBECDBFDC015D9649
:104760003C91311172C0122F642E762E7C01FC0117
:10477000A38CB48CD501ED91FC910190F081E02DDA
:1047800060E0C50109956C01009709F460C0FC0167
:10479000808091808114910409F45BC0C7014E961A
:1047A0009183808314838E010F5F1F4F22E130E0DD
:1047B00040E060E0D7015B968D919C915C970E94F0
:1047C000781C182FF6019182808281112FC0898573
:1047D0009A858E35F4E09F0739F08D3A2BE19207E8
:1047E00019F08E32964131F58B859C858931B7E081
:1047F0009B0719F081399240E9F4D501ED91FC91C4
:104800000280F381E02D262D40E0672DC50109953A
:10481000F701858F8823F9F08885878F64E170E040
:1048200080E090E00E94E11480EE16C08D3019F017
:1048300011EE01C011EDD701ED91FC910480F581DD
:10484000E02DC7010995812F07C089ED05C086EDD0
:1048500003C087ED01C084ED62960FB6F894DEBF09
:104860000FBECDBFDF91CF911F910F91FF90EF90C1
:10487000DF90CF90BF90AF909F908F907F906F9080
:104880000895CF92DF92EF92FF920F931F93CF93F1
:10489000DF93EC01022FEB8CFC8CD701ED91FC91A6
:1048A0000190F081E02D6D8DC70109956C01892B78
:1048B00011F486ED7EC06CE271E080E090E00E9431
:1048C000E1142D8D40E060E08B8D9C8D0E94C61C14
:1048D000182F882319F0F601148263C0D6011496AC
:1048E0001C92D701ED91FC910190F081E02D6D8D2E
:1048F000C70109950097E9F2FC0104837E01FEE1FE
:10490000EF0EF11C970141E06D8D8B8D9C8D0E9407
:104910007717182F811145C001E009A333E027E084
:1049200090E29AA384E08BA30CA39DA38EA33FA344
:1049300098A789A73AA79BA78CA735E03DA79EA774
:104940008FA738AB99AB8AAB2BAB9CAB8DAB2EABA7
:104950009FAB88AF970149E06D8D8B8D9C8D0E9438
:104960007717182F81111DC068EC70E080E090E08F
:104970000E94E11421E04E8D6D8D8B8D9C8D0E94E7
:10498000341E182F81110DC00E8BFE01EC5AFF4F03
:104990000083CB51DF4F188219821A821B8280E07C
:1049A00008C0E881F9810480F581E02DCE010995E8
:1049B000812FDF91CF911F910F91FF90EF90DF90AA
:1049C000CF9008950F931F93CF93DF93DC0181E77E
:1049D00091E011969C938E935C967C936E935B977B
:1049E0005D961C925D97FD01EC5AFF4F1082FD0110
:1049F00080E090E0168E582F811102C028E001C09F
:104A000020E0278F8C01000F111F9801280F391FFC
:104A10002A0F3B1FE90148A14E7F4D7F48A351114A
:104A200002C03FE001C031E0E801C80FD91FCA0F42
:104A3000DB1F330F330F28A12370322B38A30196CD
:104A4000339681319105B1F661157105C1F0FB0115
:104A5000EA5AFF4F20E030E081919191892B51F487
:104A6000255D3F4F220F331FFB01E20FF31FB18380
:104A7000A08305C02F5F3F4F2031310569F7DF91DB
:104A8000CF911F910F91089550E0683059F4FA01C9
:104A9000EE0FFF1FEE0FFF1FE80FF91FEB5AFF4F3E
:104AA00081810895693059F4FA01EE0FFF1FEE0F6E
:104AB000FF1FE80FF91FEB5AFF4F80810895E62F83
:104AC000F0E0EE0FFF1FE85FFD4F25913491FA01F2
:104AD000EE0FFF1FEE0FFF1FE80FF91FEB5AFF4FFE
:104AE000C901A0E0B0E0DC0199278827408151810D
:104AF00062817381482359236A237B2381E0452BFC
:104B0000462B472B09F480E008959C0150E0683063
:104B100031F4480F591FFA01E352FF4F07C06930C3
:104B200051F4480F591FFA01EF51FF4F808188233C
:104B300031F110820895E62FF0E0EE0FFF1FE85FDD
:104B4000FD4FA591B491440F551FF901E40FF51FD6
:104B5000EB58FF4F60817181FD01E623F72391E05F
:104B6000EF2B09F490E0420F531FFA01EB58FF4F6F
:104B7000A095B0956A237B2371836083892F089564
:104B800024E0429F800D911D1124FC01EF57FF4F3F
:104B9000208181819281613110F4962339F4681764
:104BA00029F081E0621719F080E0089581E008950E
:104BB000CF939C0184E0489FA0011124F901E40FE8
:104BC000F51FEF55FF4F80819181A281B381792F2D
:104BD000613198F4C62FCA2381F0462F50E060E07F
:104BE00070E0BA015527442740955095609570951F
:104BF00084239523A623B72313C0671308C0420F4D
:104C0000531FFA01EF55FF4F9927BB2709C06813BF
:104C10000DC0420F531FFA01EF55FF4F8827BB27E6
:104C200080839183A283B38381E001C080E0CF9130
:104C3000089524E0429FA0011124460F511D440F06
:104C4000551F840F951FFC01EB54FF4F808191810C
:104C500008950F931F93613039F050F0623031F0B6
:104C60006330E1F468E005C064E003C066E001C0C1
:104C700062E08A01DC0170E0FB01EE0FFF1F6E0FA6
:104C80007F1FFD01E60FF71F468D5D966C915D97C6
:104C90005B968D919C915C970E947E1A1F910F915B
:104CA0000895AC01475F5E4FFA0110823196108281
:104CB000319628E02083319620EC208324E030E0F8
:104CC0000C942926742FAC01475F5E4FFA011082C5
:104CD00031961082319628E020833196262F206469
:104CE000208324E030E0672F0C942926662341F0CE
:104CF000653041F0E62FF0E0E45DFD4F64916C5FBC
:104D00000C9462260895CF93DF93FC01EC5AFF4F79
:104D100020812223B9F0EC01AC01475F5E4FFA011C
:104D200010823196108231968CE0808331968BE12F
:104D3000808324E030E0CE010E942926CF5ADF4F45
:104D400081E08883DF91CF910895CF93DF93FC01B9
:104D5000EC5AFF4F20812223B9F0EC01AC01475FF0
:104D60005E4FFA0110823196108231968CE080837A
:104D700031968FE1808324E030E0CE010E94292625
:104D8000CF5ADF4F81E08883DF91CF910895FC01F6
:104D9000EC5AFF4F2081222389F0AC01475F5E4F20
:104DA000FA0110823196108231962CE020833196E0
:104DB0002EE1208324E030E00C9429260895362F3C
:104DC000622FFC01E75FFE4F1082DC01A65FBE4F41
:104DD00021E02C9311962FE02C93119620EC2C932C
:104DE00011961C9211963C9311964C9327E030E05B
:104DF000AF010C9429269C01462FFC01EE5AFF4F6F
:104E00000190F081E02D309709F00994662331F08C
:104E1000613031F0623031F064E005C061E003C020
:104E200062E001C063E0C9010C9476264F925F9264
:104E30006F927F928F929F92AF92BF92CF92DF92AA
:104E4000EF92FF920F931F93CF93DF939C018C01FE
:104E500007511F4F09F450C1D8019C91F901E65147
:104E6000FF4F983091F48081E901C60FD11D4F8921
:104E7000841759F08F8B882329F0C90121E02A8BF0
:104E80000E94FB2681E08A8B37C1808181111DC081
:104E9000F901E451FF4F8081837109F428C1D901E0
:104EA000A351BF4F8C91823208F421C1260F311DCE
:104EB000260F311DD901AB52BF4F808191819827B8
:104EC000892798278D939C9317C1911110C1813028
:104ED00009F0ADC0F901E451FF4F8081803F09F036
:104EE00006C1462F50E0F901E40FF51F87898111B3
:104EF00002C080E8878BD901A151BF4F6D917D9190
:104F00008D919C910E9440354B015C01CA01880F34
:104F1000991F880F991F3901680E791ED301AB5A6A
:104F2000BF4F8D929D92AD92BC921397DA01C3E070
:104F3000AA0FBB1FCA95E1F7A20FB31F6D01C5EB06
:104F4000CC0ED11C7901D3EFED0EF11CE701E88006
:104F5000F980E601F982E8826D01D7EBCD0ED11C14
:104F6000790165EFE60EF11CE70168817981E601C0
:104F7000798368836D01D9EBCD0ED11C790167EF80
:104F8000E60EF11CE70168817981E6017983688387
:104F90007D01DBEBED0EF11CD901A750BF4F6D91E8
:104FA0007C91D7016D937C93E301CB59DF4FC8808F
:104FB000D980EA80FB808C149D04AE04BF0409F400
:104FC00096C0C1E0DF01A358BF4FCC93DA01AA0F0E
:104FD000BB1FA20FB31FAB58BF4FB701A60140952F
:104FE000509560957095AB0166277727250166245B
:104FF0007724442155214D935C93C11006C088202D
:1050000021F0DF01AF51BF4FCC93D11006C09920E2
:1050100021F0E352FF4F41E04083820F931FFC01D8
:10502000EB59FF4F80829182A282B38260C08230AE
:1050300009F05DC0F901E451FF4F8081803F09F024
:1050400056C075968081811145C031968081319618
:10505000C080D12CE12CF12CFE2CED2CDC2CCC24AE
:10506000E82A31968081C82A862F90E0F901B4E0C1
:105070006B9FE00DF11D1124DF01AF57BF4FCD92A3
:10508000DD92ED92FC92139750964D915D916D914A
:105090007C911397C416D506E606F70641F1820FF8
:1050A000931FEC01CF54DF4F81E08883EF55FF4F12
:1050B00040955095609570954C215D216E217F2122
:1050C0004083518362837383CD92DD92ED92FC9293
:1050D00013970DC0803F59F4F901EE5FFE4F8081B8
:1050E000833029F4F901E60FF11D81E0828B80E223
:1050F000E80119928A95E9F7DF91CF911F910F91FD
:10510000FF90EF90DF90CF90BF90AF909F908F90E7
:105110007F906F905F904F9008958F929F92AF9283
:10512000BF92CF92DF92EF92FF920F931F93CF9394
:10513000DF9300D0CDB7DEB7FC01EC5AFF4F2081E2
:105140002223C9F16C01F12C21E090E2A92EB12CAF
:10515000460189EE880E911CBA82A98230E0F901DD
:10516000EE0FFF1F2E0F3F1FF601E20FF31FE12C82
:1051700084019E012F5F3F4F468DF601658D838D23
:10518000948D0E94591E89819A81892B21F06F2D5F
:10519000C6010E941627F394F4E0FF1661F0E1E0E7
:1051A000FE1629F0F2E0FF1621F027E0D5CF23E02C
:1051B000D3CF25E0D1CF80E00F900F90DF91CF913A
:1051C0001F910F91FF90EF90DF90CF90BF90AF9025
:1051D0009F908F900895262F642FFC01EC5AFF4F6B
:1051E0003081332381F0AC01475F5E4FFA011082BA
:1051F0003196108231963CE030833196208324E052
:1052000030E00C94292608956F927F928F929F929E
:10521000AF92BF92CF92DF92EF92FF920F931F93C4
:10522000CF93DF9300D01F92CDB7DEB77C01ADB630
:10523000BEB68091E80083FF0CC1F701808190E049
:105240002091ED053091EE052817390709F001C1CD
:105250008091EA05833009F4A0C030F4813071F008
:10526000823009F4D9C0F5C08A3009F4BCC08B3053
:1052700009F4A4C0893009F0ECC050C08091E90560
:10528000813A09F0E6C08DB69EB61A8219828091E5
:10529000EB051091EC058B83F7018085482F50E0DA
:1052A0008DB79EB7841B950B0FB6F8949EBF0FBEAB
:1052B0008DBFEDB7FEB731966F0160E070E0CF01B2
:1052C0000E945D354FEF410F8E010F5F1F4F96011A
:1052D000BE016D5F7F4FC7010E94EE30F7018681EE
:1052E0009781009729F0408550E0B6010E9454351F
:1052F0001092E9008091E800877F8093E8008B811D
:1053000081118093F10069817A81C6010E94AC2BE2
:105310008091E8008B778093E80039C08091E9059F
:10532000813209F096C08DB69EB60091EF051091BE
:10533000F0057090EB056090EC058DB79EB7801B73
:10534000910B0FB6F8949EBF0FBE8DBFEDB7FEB7A1
:1053500031966F018091E800877F8093E800B80163
:10536000CF010E940A2C8091E8008E778093E8009C
:1053700021E0711001C020E030E0021B130B2C0D66
:105380003D1D4FEF460D672DC7010E9487310FB6B7
:10539000F8949EBE0FBE8DBE5CC08091E905813A37
:1053A00009F057C08091E800877F8093E8008091E2
:1053B000E80080FFFCCFF701818542C08091E905BC
:1053C000813209F046C08091E800877F8093E80031
:1053D0000E941E2D9091EB0581E0911101C080E0AB
:1053E000F701818736C08091E905813291F580917E
:1053F000E800877F8093E8000E941E2D8091EB05D6
:105400009091EC05882736E0969587953A95E1F7D7
:10541000F701958784871DC08091E905813AC9F419
:105420008091E800877F8093E8008091E80080FF0A
:10543000FCCFF701848595859695879596958795F8
:105440008093F1008091E8008E778093E8000E94BD
:105450001E2D0FB6F894BEBE0FBEADBE0F900F90BE
:105460000F90DF91CF911F910F91FF90EF90DF9000
:10547000CF90BF90AF909F908F907F906F90089546
:10548000FC01399627E0DF011D922A95E9F721E01A
:10549000FC01218728E833E13587248723E0248332
:1054A00061E001960C94E02C5F926F927F928F9254
:1054B0009F92AF92BF92CF92DF92EF92FF920F93A3
:1054C0001F93CF93DF9300D01F92CDB7DEB77C013F
:1054D000ADB6BEB68091E805843009F08BC08091EE
:1054E000E4009091E500F7012285338528173907FC
:1054F00009F480C081818F708093E9008091E80079
:1055000085FF78C08DB69EB6408550E08DB79EB7BA
:10551000841B950B0FB6F8949EBF0FBE8DBFEDB7E1
:10552000FEB731966F011B821A82198260E070E02B
:10553000CF010E945D358E010F5F1F4F960140E045
:10554000BE016D5F7F4FC7010E94EE30582EF701FC
:1055500084859585892B29F011E086859785892B8F
:1055600009F010E0F701668077806114710491F012
:1055700049815A81B301C6010E94473501E0892B58
:1055800009F400E0F701408550E0B601C3010E9434
:10559000543501C000E089819A81892BF9F05110BE
:1055A00004C0011102C010FF19C0F7018485958560
:1055B0009787868781818F708093E9008B81811125
:1055C0008093F10069817A8140E050E0C6010E9439
:1055D000122B8091E8008E778093E8008091E400A0
:1055E0009091E500F701938782870FB6F8949EBEED
:1055F0000FBE8DBE0FB6F894BEBE0FBEADBE0F90EF
:105600000F900F90DF91CF911F910F91FF90EF902E
:10561000DF90CF90BF90AF909F908F907F906F90D2
:105620005F900895CF92DF92EF92FF920F931F93B6
:10563000CF93DF93EC018B017A010E943D2D811104
:1056400035C0E114F10439F0F70180819181081B24
:10565000190BC80FD91FC12CD12C0115110529F127
:105660008091E80085FD18C08091E8008E778093D6
:10567000E8000E94FF2FE114F10449F0F701808156
:105680009181C80ED91ED182C08285E00FC00E94D0
:105690003D2D882311F30AC089918093F1000150B8
:1056A0001109FFEFCF1ADF0AD8CF80E0DF91CF9149
:1056B0001F910F91FF90EF90DF90CF900895CF92C0
:1056C000DF92EF92FF920F931F93CF93DF93EC0142
:1056D0008B017A010E943D2D811135C0E114F10446
:1056E00039F0F70180819181081B190BC80FD91F70
:1056F000C12CD12C0115110529F18091E80085FDFF
:1057000018C08091E8008B778093E8000E94FF2FFB
:10571000E114F10449F0F70180819181C80ED91E8E
:10572000D182C08285E00FC00E943D2D882311F3F5
:105730000AC08091F100899301501109FFEFCF1A3F
:10574000DF0AD8CF80E0DF91CF911F910F91FF90BA
:10575000EF90DF90CF9008952091EF053091F00504
:105760002617370748F06115710539F42091E800D4
:105770002E772093E80001C0B901FC0120E06115FB
:10578000710579F18091E8058823F1F18530F1F117
:105790008091E80083FD3CC08091E80082FD2EC02E
:1057A0008091E80080FFEBCF2091F3008091F20020
:1057B00090E0922B6115710551F08032910538F41B
:1057C00021912093F100615071090196F3CF21E0FE
:1057D000809709F020E08091E8008E778093E800C0
:1057E000CECF2111CFCF0AC08091E805882361F088
:1057F000853061F08091E80083FD0AC08091E80067
:1058000082FFF2CF80E0089582E0089583E008955A
:1058100081E008956115710529F42091E8002B7746
:105820002093E800FC016115710541F18091E805C4
:10583000882361F1853061F18091E80083FD24C007
:105840008091E80082FFEFCF2091F3008091F20079
:1058500090E0922B892B31F08091F100819361507F
:10586000710991F78091E8008B778093E800DBCF96
:105870008091E805882351F0853051F08091E8004F
:1058800080FFF6CF80E0089581E0089582E00895DA
:1058900083E008952091EF053091F0052617370732
:1058A00048F06115710539F42091E8002E772093B6
:1058B000E80001C0B901FC0120E06115710591F11A
:1058C0008091E805882309F440C0853009F43FC081
:1058D0008091E80083FD3DC08091E80082FD2FC0EB
:1058E0008091E80080FFE9CF2091F3008091F200E1
:1058F00090E0922B6115710559F08032910540F4CA
:1059000024912093F1003196615071090196F2CFF4
:1059100021E0809709F020E08091E8008E77809365
:10592000E800CBCF2111CCCF0AC08091E8058823B5
:1059300061F0853061F08091E80083FD0AC08091BC
:10594000E80082FFF2CF80E0089582E0089583E0CE
:10595000089581E00895982F973068F59093E900B5
:10596000981739F07091EC002091ED005091F00003
:1059700003C0242F762F50E021FD02C09F5FECCFA3
:105980003091EB003E7F3093EB003091ED003D7F96
:105990003093ED003091EB0031603093EB00709369
:1059A000EC002093ED005093F0002091EE0027FDD5
:1059B000E5CF80E008958F708093E90081E008953D
:1059C0000F931F93CF93DF93062FEC0110E0101776
:1059D00079F16881611103C01F5F2596F8CF2C8192
:1059E000A981BA819B81862F8F70873010F080E06B
:1059F00020C0223010F442E001C046E0E8E0F0E0D0
:105A000020E0EA17FB0720F42F5FEE0FFF1FF9CF0E
:105A10002295207F422B50E4959F90011124661F10
:105A20006627661F622B0E94AB2C8111D5CFDFCF7A
:105A300081E0DF91CF911F910F9108958091E90549
:105A400087FF11C08091E80082FD05C08091E805C4
:105A50008111F8CF11C08091E8008B770BC0809145
:105A6000E805882349F08091E80080FFF8CF809115
:105A7000E8008E778093E80008952091E40030914B
:105A8000E50095E64091EC00842F817040FF23C033
:105A90008091E80080FD1DC08091E805882399F081
:105AA000853099F08091EB0085FD11C04091E400B4
:105AB0005091E5002417350729F3915011F09A0110
:105AC000E1CF84E0089582E0089583E0089581E0C5
:105AD000089580E008954091E80042FFDDCF0895E9
